{
  "contractName": "ComplexStorage",
  "abi": [
    {
      "constant": true,
      "inputs": [],
      "name": "string2",
      "outputs": [
        {
          "name": "",
          "type": "bytes32"
        }
      ],
      "payable": false,
      "stateMutability": "view",
      "type": "function"
    },
    {
      "constant": true,
      "inputs": [],
      "name": "storeduint1",
      "outputs": [
        {
          "name": "",
          "type": "uint256"
        }
      ],
      "payable": false,
      "stateMutability": "view",
      "type": "function"
    },
    {
      "constant": true,
      "inputs": [],
      "name": "singleDD",
      "outputs": [
        {
          "name": "deviceBrand",
          "type": "string"
        },
        {
          "name": "deviceYear",
          "type": "string"
        },
        {
          "name": "batteryWearLevel",
          "type": "string"
        }
      ],
      "payable": false,
      "stateMutability": "view",
      "type": "function"
    },
    {
      "constant": true,
      "inputs": [
        {
          "name": "",
          "type": "uint256"
        }
      ],
      "name": "uintarray",
      "outputs": [
        {
          "name": "",
          "type": "uint256"
        }
      ],
      "payable": false,
      "stateMutability": "view",
      "type": "function"
    },
    {
      "constant": true,
      "inputs": [
        {
          "name": "",
          "type": "uint256"
        }
      ],
      "name": "deviceDataArray",
      "outputs": [
        {
          "name": "deviceBrand",
          "type": "string"
        },
        {
          "name": "deviceYear",
          "type": "string"
        },
        {
          "name": "batteryWearLevel",
          "type": "string"
        }
      ],
      "payable": false,
      "stateMutability": "view",
      "type": "function"
    },
    {
      "constant": true,
      "inputs": [],
      "name": "string3",
      "outputs": [
        {
          "name": "",
          "type": "string"
        }
      ],
      "payable": false,
      "stateMutability": "view",
      "type": "function"
    },
    {
      "constant": true,
      "inputs": [],
      "name": "constuint",
      "outputs": [
        {
          "name": "",
          "type": "uint256"
        }
      ],
      "payable": false,
      "stateMutability": "view",
      "type": "function"
    },
    {
      "constant": true,
      "inputs": [],
      "name": "string1",
      "outputs": [
        {
          "name": "",
          "type": "bytes16"
        }
      ],
      "payable": false,
      "stateMutability": "view",
      "type": "function"
    },
    {
      "constant": true,
      "inputs": [],
      "name": "investmentsDeadlineTimeStamp",
      "outputs": [
        {
          "name": "",
          "type": "uint32"
        }
      ],
      "payable": false,
      "stateMutability": "view",
      "type": "function"
    },
    {
      "constant": true,
      "inputs": [],
      "name": "investmentsLimit",
      "outputs": [
        {
          "name": "",
          "type": "uint128"
        }
      ],
      "payable": false,
      "stateMutability": "view",
      "type": "function"
    },
    {
      "inputs": [],
      "payable": false,
      "stateMutability": "nonpayable",
      "type": "constructor"
    }
  ],
  "bytecode": "0x6080604052600f60005561429f600160006101000a8154816fffffffffffffffffffffffffffffffff02191690836fffffffffffffffffffffffffffffffff16021790555042600160106101000a81548163ffffffff021916908363ffffffff1602179055507f7465737431000000000000000000000000000000000000000000000000000000600260006101000a8154816fffffffffffffffffffffffffffffffff0219169083700100000000000000000000000000000000900402179055507f74657374313233360000000000000000000000000000000000000000000000006003906000191690556040805190810160405280601581526020017f6c65747320737472696e6720736f6d657468696e67000000000000000000000081525060049080519060200190620001379291906200077c565b503480156200014557600080fd5b506000806200015362000803565b6200015d62000803565b6200016762000803565b73bccc714d56bc0da0fd33d96d2a87b680dd6d0df6945073aee905fdd3ed851e48d22059575b9f4245a82b0493506058600560008773ffffffffffffffffffffffffffffffffffffffff1673ffffffffffffffffffffffffffffffffffffffff168152602001908152602001600020819055506063600560008673ffffffffffffffffffffffffffffffffffffffff1673ffffffffffffffffffffffffffffffffffffffff168152602001908152602001600020819055506060604051908101604052806040805190810160405280600b81526020017f6465766963654272616e6400000000000000000000000000000000000000000081525081526020016040805190810160405280600a81526020017f646576696365596561720000000000000000000000000000000000000000000081525081526020016040805190810160405280600981526020017f776561724c6576656c000000000000000000000000000000000000000000000081525081525092506060604051908101604052806040805190810160405280600c81526020017f6465766963654272616e6432000000000000000000000000000000000000000081525081526020016040805190810160405280600b81526020017f646576696365596561723200000000000000000000000000000000000000000081525081526020016040805190810160405280600a81526020017f776561724c6576656c320000000000000000000000000000000000000000000081525081525091506060604051908101604052806040805190810160405280600c81526020017f6465766963654272616e6433000000000000000000000000000000000000000081525081526020016040805190810160405280600b81526020017f646576696365596561723300000000000000000000000000000000000000000081525081526020016040805190810160405280600a81526020017f776561724c6576656c3300000000000000000000000000000000000000000000815250815250905082600660008773ffffffffffffffffffffffffffffffffffffffff1673ffffffffffffffffffffffffffffffffffffffff1681526020019081526020016000206000820151816000019080519060200190620004b492919062000825565b506020820151816001019080519060200190620004d392919062000825565b506040820151816002019080519060200190620004f292919062000825565b5090505081600660008673ffffffffffffffffffffffffffffffffffffffff1673ffffffffffffffffffffffffffffffffffffffff16815260200190815260200160002060008201518160000190805190602001906200055492919062000825565b5060208201518160010190805190602001906200057392919062000825565b5060408201518160020190805190602001906200059292919062000825565b509050508060096000820151816000019080519060200190620005b792919062000825565b506020820151816001019080519060200190620005d692919062000825565b506040820151816002019080519060200190620005f592919062000825565b509050506007611f40908060018154018082558091505090600182039060005260206000200160009091929091909150555060076123289080600181540180825580915050906001820390600052602060002001600090919290919091505550600883908060018154018082558091505090600182039060005260206000209060030201600090919290919091506000820151816000019080519060200190620006a192919062000825565b506020820151816001019080519060200190620006c092919062000825565b506040820151816002019080519060200190620006df92919062000825565b505050506008829080600181540180825580915050906001820390600052602060002090600302016000909192909190915060008201518160000190805190602001906200072f92919062000825565b5060208201518160010190805190602001906200074e92919062000825565b5060408201518160020190805190602001906200076d92919062000825565b505050505050505050620008d4565b828054600181600116156101000203166002900490600052602060002090601f016020900481019282601f10620007bf57805160ff1916838001178555620007f0565b82800160010185558215620007f0579182015b82811115620007ef578251825591602001919060010190620007d2565b5b509050620007ff9190620008ac565b5090565b6060604051908101604052806060815260200160608152602001606081525090565b828054600181600116156101000203166002900490600052602060002090601f016020900481019282601f106200086857805160ff191683800117855562000899565b8280016001018555821562000899579182015b82811115620008985782518255916020019190600101906200087b565b5b509050620008a89190620008ac565b5090565b620008d191905b80821115620008cd576000816000905550600101620008b3565b5090565b90565b610afa80620008e46000396000f3006080604052600436106100a4576000357c0100000000000000000000000000000000000000000000000000000000900463ffffffff1680630ca0aa79146100a957806311f9c74d146100dc57806328a20b5e146101075780636c0c1bcf1461026f57806384eeda56146102b0578063927558601461042e57806397ba784f146104be578063a7b2cfca146104e9578063df4fddf51461053a578063eec65f2914610571575b600080fd5b3480156100b557600080fd5b506100be6105c0565b60405180826000191660001916815260200191505060405180910390f35b3480156100e857600080fd5b506100f16105c6565b6040518082815260200191505060405180910390f35b34801561011357600080fd5b5061011c6105cc565b60405180806020018060200180602001848103845287818151815260200191508051906020019080838360005b83811015610164578082015181840152602081019050610149565b50505050905090810190601f1680156101915780820380516001836020036101000a031916815260200191505b50848103835286818151815260200191508051906020019080838360005b838110156101ca5780820151818401526020810190506101af565b50505050905090810190601f1680156101f75780820380516001836020036101000a031916815260200191505b50848103825285818151815260200191508051906020019080838360005b83811015610230578082015181840152602081019050610215565b50505050905090810190601f16801561025d5780820380516001836020036101000a031916815260200191505b50965050505050505060405180910390f35b34801561027b57600080fd5b5061029a600480360381019080803590602001909291905050506107ac565b6040518082815260200191505060405180910390f35b3480156102bc57600080fd5b506102db600480360381019080803590602001909291905050506107cf565b60405180806020018060200180602001848103845287818151815260200191508051906020019080838360005b83811015610323578082015181840152602081019050610308565b50505050905090810190601f1680156103505780820380516001836020036101000a031916815260200191505b50848103835286818151815260200191508051906020019080838360005b8381101561038957808201518184015260208101905061036e565b50505050905090810190601f1680156103b65780820380516001836020036101000a031916815260200191505b50848103825285818151815260200191508051906020019080838360005b838110156103ef5780820151818401526020810190506103d4565b50505050905090810190601f16801561041c5780820380516001836020036101000a031916815260200191505b50965050505050505060405180910390f35b34801561043a57600080fd5b506104436109d0565b6040518080602001828103825283818151815260200191508051906020019080838360005b83811015610483578082015181840152602081019050610468565b50505050905090810190601f1680156104b05780820380516001836020036101000a031916815260200191505b509250505060405180910390f35b3480156104ca57600080fd5b506104d3610a6e565b6040518082815260200191505060405180910390f35b3480156104f557600080fd5b506104fe610a73565b60405180826fffffffffffffffffffffffffffffffff19166fffffffffffffffffffffffffffffffff1916815260200191505060405180910390f35b34801561054657600080fd5b5061054f610a96565b604051808263ffffffff1663ffffffff16815260200191505060405180910390f35b34801561057d57600080fd5b50610586610aac565b60405180826fffffffffffffffffffffffffffffffff166fffffffffffffffffffffffffffffffff16815260200191505060405180910390f35b60035481565b60005481565b6009806000018054600181600116156101000203166002900480601f0160208091040260200160405190810160405280929190818152602001828054600181600116156101000203166002900480156106665780601f1061063b57610100808354040283529160200191610666565b820191906000526020600020905b81548152906001019060200180831161064957829003601f168201915b505050505090806001018054600181600116156101000203166002900480601f0160208091040260200160405190810160405280929190818152602001828054600181600116156101000203166002900480156107045780601f106106d957610100808354040283529160200191610704565b820191906000526020600020905b8154815290600101906020018083116106e757829003601f168201915b505050505090806002018054600181600116156101000203166002900480601f0160208091040260200160405190810160405280929190818152602001828054600181600116156101000203166002900480156107a25780601f10610777576101008083540402835291602001916107a2565b820191906000526020600020905b81548152906001019060200180831161078557829003601f168201915b5050505050905083565b6007818154811015156107bb57fe5b906000526020600020016000915090505481565b6008818154811015156107de57fe5b9060005260206000209060030201600091509050806000018054600181600116156101000203166002900480601f01602080910402602001604051908101604052809291908181526020018280546001816001161561010002031660029004801561088a5780601f1061085f5761010080835404028352916020019161088a565b820191906000526020600020905b81548152906001019060200180831161086d57829003601f168201915b505050505090806001018054600181600116156101000203166002900480601f0160208091040260200160405190810160405280929190818152602001828054600181600116156101000203166002900480156109285780601f106108fd57610100808354040283529160200191610928565b820191906000526020600020905b81548152906001019060200180831161090b57829003601f168201915b505050505090806002018054600181600116156101000203166002900480601f0160208091040260200160405190810160405280929190818152602001828054600181600116156101000203166002900480156109c65780601f1061099b576101008083540402835291602001916109c6565b820191906000526020600020905b8154815290600101906020018083116109a957829003601f168201915b5050505050905083565b60048054600181600116156101000203166002900480601f016020809104026020016040519081016040528092919081815260200182805460018160011615610100020316600290048015610a665780601f10610a3b57610100808354040283529160200191610a66565b820191906000526020600020905b815481529060010190602001808311610a4957829003601f168201915b505050505081565b601081565b600260009054906101000a90047001000000000000000000000000000000000281565b600160109054906101000a900463ffffffff1681565b600160009054906101000a90046fffffffffffffffffffffffffffffffff16815600a165627a7a723058209ad6b99e834912a44fe4cecafcaeb76caa2ec1bd0e9150ede7e3beb486e769c60029",
  "source": "pragma solidity ^0.4.0;\n\ncontract ComplexStorage {\n    uint public storeduint1 = 15;\n    uint public constant constuint = 16;\n    uint128 public investmentsLimit = 17055;\n    uint32 public investmentsDeadlineTimeStamp = uint32(now);\n\n    bytes16 public string1 = \"test1\";\n    bytes32 public string2 = \"test1236\";\n    string public string3 = \"lets string something\";\n\n    mapping (address => uint) uints1;\n    mapping (address => DeviceData) structs1;\n\n    uint[] public uintarray;\n    DeviceData[] public deviceDataArray;\n    DeviceData public singleDD;\n\n    struct DeviceData {\n        string deviceBrand;\n        string deviceYear;\n        string batteryWearLevel;\n    }\n\n    constructor() public {\n        address address1 = 0xbCcc714d56bc0da0fd33d96d2a87b680dD6D0DF6;\n        address address2 = 0xaee905FdD3ED851e48d22059575b9F4245A82B04;\n\n        uints1[address1] = 88;\n        uints1[address2] = 99;\n\n        DeviceData memory dev1 = DeviceData(\"deviceBrand\", \"deviceYear\", \"wearLevel\");\n        DeviceData memory dev2 = DeviceData(\"deviceBrand2\", \"deviceYear2\", \"wearLevel2\");\n        DeviceData memory dev3 = DeviceData(\"deviceBrand3\", \"deviceYear3\", \"wearLevel3\");\n\n        structs1[address1] = dev1;\n        structs1[address2] = dev2;\n        singleDD = dev3;\n\n        uintarray.push(8000);\n        uintarray.push(9000);\n\n        deviceDataArray.push(dev1);\n        deviceDataArray.push(dev2);\n    }\n}",
  "sourcePath": "/Users/sergei/LuggageCrowdsurance/contracts/ComplexStorage.sol",
  "compiler": {
    "name": "solc",
    "version": "0.4.24+commit.e67f0147.Emscripten.clang"
  },
  "schemaVersion": "2.0.0",
  "updatedAt": "2018-07-02T09:16:34.616Z"
}