{
  "contractName": "ERC20Adapter",
  "abi": [
    {
      "constant": true,
      "inputs": [],
      "name": "name",
      "outputs": [
        {
          "name": "",
          "type": "string"
        }
      ],
      "payable": false,
      "stateMutability": "view",
      "type": "function"
    },
    {
      "constant": false,
      "inputs": [
        {
          "name": "_spender",
          "type": "address"
        },
        {
          "name": "_value",
          "type": "uint256"
        }
      ],
      "name": "approve",
      "outputs": [
        {
          "name": "success",
          "type": "bool"
        }
      ],
      "payable": false,
      "stateMutability": "nonpayable",
      "type": "function"
    },
    {
      "constant": true,
      "inputs": [],
      "name": "totalSupply",
      "outputs": [
        {
          "name": "",
          "type": "uint256"
        }
      ],
      "payable": false,
      "stateMutability": "view",
      "type": "function"
    },
    {
      "constant": false,
      "inputs": [
        {
          "name": "_from",
          "type": "address"
        },
        {
          "name": "_to",
          "type": "address"
        },
        {
          "name": "_value",
          "type": "uint256"
        }
      ],
      "name": "transferFrom",
      "outputs": [
        {
          "name": "success",
          "type": "bool"
        }
      ],
      "payable": false,
      "stateMutability": "nonpayable",
      "type": "function"
    },
    {
      "constant": true,
      "inputs": [],
      "name": "decimals",
      "outputs": [
        {
          "name": "",
          "type": "uint8"
        }
      ],
      "payable": false,
      "stateMutability": "view",
      "type": "function"
    },
    {
      "constant": false,
      "inputs": [
        {
          "name": "_fromId",
          "type": "uint256"
        },
        {
          "name": "_spender",
          "type": "address"
        },
        {
          "name": "_toId",
          "type": "uint256"
        },
        {
          "name": "_value",
          "type": "uint256"
        }
      ],
      "name": "approveFrom",
      "outputs": [
        {
          "name": "success",
          "type": "bool"
        }
      ],
      "payable": false,
      "stateMutability": "nonpayable",
      "type": "function"
    },
    {
      "constant": true,
      "inputs": [],
      "name": "standard",
      "outputs": [
        {
          "name": "",
          "type": "string"
        }
      ],
      "payable": false,
      "stateMutability": "view",
      "type": "function"
    },
    {
      "constant": true,
      "inputs": [
        {
          "name": "_owner",
          "type": "address"
        }
      ],
      "name": "balanceOf",
      "outputs": [
        {
          "name": "",
          "type": "uint256"
        }
      ],
      "payable": false,
      "stateMutability": "view",
      "type": "function"
    },
    {
      "constant": true,
      "inputs": [],
      "name": "symbol",
      "outputs": [
        {
          "name": "",
          "type": "string"
        }
      ],
      "payable": false,
      "stateMutability": "view",
      "type": "function"
    },
    {
      "constant": false,
      "inputs": [
        {
          "name": "_to",
          "type": "address"
        },
        {
          "name": "_value",
          "type": "uint256"
        }
      ],
      "name": "transfer",
      "outputs": [
        {
          "name": "success",
          "type": "bool"
        }
      ],
      "payable": false,
      "stateMutability": "nonpayable",
      "type": "function"
    },
    {
      "constant": true,
      "inputs": [
        {
          "name": "_owner",
          "type": "address"
        },
        {
          "name": "_spender",
          "type": "address"
        }
      ],
      "name": "allowance",
      "outputs": [
        {
          "name": "",
          "type": "uint256"
        }
      ],
      "payable": false,
      "stateMutability": "view",
      "type": "function"
    },
    {
      "constant": true,
      "inputs": [],
      "name": "controller",
      "outputs": [
        {
          "name": "",
          "type": "address"
        }
      ],
      "payable": false,
      "stateMutability": "view",
      "type": "function"
    },
    {
      "inputs": [
        {
          "name": "_controller",
          "type": "address"
        },
        {
          "name": "_name",
          "type": "string"
        },
        {
          "name": "_symbol",
          "type": "string"
        },
        {
          "name": "_decimals",
          "type": "uint8"
        }
      ],
      "payable": false,
      "stateMutability": "nonpayable",
      "type": "constructor"
    },
    {
      "anonymous": false,
      "inputs": [
        {
          "indexed": true,
          "name": "_from",
          "type": "address"
        },
        {
          "indexed": true,
          "name": "_to",
          "type": "address"
        },
        {
          "indexed": false,
          "name": "_value",
          "type": "uint256"
        }
      ],
      "name": "Transfer",
      "type": "event"
    },
    {
      "anonymous": false,
      "inputs": [
        {
          "indexed": true,
          "name": "_owner",
          "type": "address"
        },
        {
          "indexed": true,
          "name": "_spender",
          "type": "address"
        },
        {
          "indexed": false,
          "name": "_value",
          "type": "uint256"
        }
      ],
      "name": "Approval",
      "type": "event"
    }
  ],
  "bytecode": "0x606060405260408051908101604052600981527f546f6b656e20302e3100000000000000000000000000000000000000000000006020820152600190805161004b92916020019061015a565b50602060405190810160405260008152600290805161006e92916020019061015a565b50602060405190810160405260008152600390805161009192916020019061015a565b506004805460ff1916905534156100a757600080fd5b604051610b73380380610b73833981016040528080519190602001805182019190602001805182019190602001805191506000905083511180156100ec575060008251115b15156100f757600080fd5b600283805161010a92916020019061015a565b50600382805161011e92916020019061015a565b506004805460ff191660ff92909216919091179055505060008054600160a060020a031916600160a060020a03929092169190911790556101f5565b828054600181600116156101000203166002900490600052602060002090601f016020900481019282601f1061019b57805160ff19168380011785556101c8565b828001600101855582156101c8579182015b828111156101c85782518255916020019190600101906101ad565b506101d49291506101d8565b5090565b6101f291905b808211156101d457600081556001016101de565b90565b61096f806102046000396000f3006060604052600436106100a05763ffffffff60e060020a60003504166306fdde0381146100a5578063095ea7b31461012f57806318160ddd1461016557806323b872dd1461018a578063313ce567146101b25780634471fb2b146101db5780635a3b7e421461020357806370a082311461021657806395d89b4114610235578063a9059cbb14610248578063dd62ed3e1461026a578063f77c47911461028f575b600080fd5b34156100b057600080fd5b6100b86102be565b60405160208082528190810183818151815260200191508051906020019080838360005b838110156100f45780820151838201526020016100dc565b50505050905090810190601f1680156101215780820380516001836020036101000a031916815260200191505b509250505060405180910390f35b341561013a57600080fd5b610151600160a060020a036004351660243561035c565b604051901515815260200160405180910390f35b341561017057600080fd5b610178610418565b60405190815260200160405180910390f35b341561019557600080fd5b610151600160a060020a0360043581169060243516604435610498565b34156101bd57600080fd5b6101c5610578565b60405160ff909116815260200160405180910390f35b34156101e657600080fd5b610151600435600160a060020a0360243516604435606435610581565b341561020e57600080fd5b6100b8610675565b341561022157600080fd5b610178600160a060020a03600435166106e0565b341561024057600080fd5b6100b8610788565b341561025357600080fd5b610151600160a060020a03600435166024356107f3565b341561027557600080fd5b610178600160a060020a036004358116906024351661088e565b341561029a57600080fd5b6102a2610934565b604051600160a060020a03909116815260200160405180910390f35b60028054600181600116156101000203166002900480601f0160208091040260200160405190810160405280929190818152602001828054600181600116156101000203166002900480156103545780601f1061032957610100808354040283529160200191610354565b820191906000526020600020905b81548152906001019060200180831161033757829003601f168201915b505050505081565b60008054600160a060020a0316151561037457600080fd5b600160a060020a038316151561038957600080fd5b81151561039557600080fd5b60008054600160a060020a0316906332c4ee8390859085906040516020015260405160e060020a63ffffffff8516028152600160a060020a0390921660048301526024820152604401602060405180830381600087803b15156103f757600080fd5b6102c65a03f1151561040857600080fd5b5050506040518051949350505050565b60008054600160a060020a0316151561043057600080fd5b60008054600160a060020a031690638f1fc77c90604051602001526040518163ffffffff1660e060020a028152600401602060405180830381600087803b151561047957600080fd5b6102c65a03f1151561048a57600080fd5b505050604051805191505090565b60008054600160a060020a031615156104b057600080fd5b600160a060020a03831615156104c557600080fd5b600160a060020a03841615156104da57600080fd5b8115156104e657600080fd5b60008054600160a060020a03169063bf622665908690869086906040516020015260405160e060020a63ffffffff8616028152600160a060020a0393841660048201529190921660248201526044810191909152606401602060405180830381600087803b151561055657600080fd5b6102c65a03f1151561056757600080fd5b505050604051805195945050505050565b60045460ff1681565b60008054600160a060020a0316151561059957600080fd5b8415156105a557600080fd5b600160a060020a03841615156105ba57600080fd5b8215156105c657600080fd5b8115156105d257600080fd5b848314156105df57600080fd5b60008054600160a060020a0316906398dc5c959087908790879087906040516020015260405160e060020a63ffffffff87160281526004810194909452600160a060020a03909216602484015260448301526064820152608401602060405180830381600087803b151561065257600080fd5b6102c65a03f1151561066357600080fd5b50505060405180519695505050505050565b60018054600181600116156101000203166002900480601f0160208091040260200160405190810160405280929190818152602001828054600181600116156101000203166002900480156103545780601f1061032957610100808354040283529160200191610354565b60008054600160a060020a031615156106f857600080fd5b600160a060020a038216151561070d57600080fd5b60008054600160a060020a03169063b13570799084906040516020015260405160e060020a63ffffffff8416028152600160a060020a039091166004820152602401602060405180830381600087803b151561076857600080fd5b6102c65a03f1151561077957600080fd5b50505060405180519392505050565b60038054600181600116156101000203166002900480601f0160208091040260200160405190810160405280929190818152602001828054600181600116156101000203166002900480156103545780601f1061032957610100808354040283529160200191610354565b60008054600160a060020a0316151561080b57600080fd5b600160a060020a038316151561082057600080fd5b81151561082c57600080fd5b60008054600160a060020a0316906366d80ba590859085906040516020015260405160e060020a63ffffffff8516028152600160a060020a0390921660048301526024820152604401602060405180830381600087803b15156103f757600080fd5b60008054600160a060020a031615156108a657600080fd5b600160a060020a03831615156108bb57600080fd5b600160a060020a03821615156108d057600080fd5b60008054600160a060020a03169063f81fd7ea90859085906040516020015260405160e060020a63ffffffff8516028152600160a060020a03928316600482015291166024820152604401602060405180830381600087803b15156103f757600080fd5b600054600160a060020a0316815600a165627a7a723058204c83154bdd9b6d6b140624f6fd3d22411bda7d61b60b110fd34e4a7d97861cd60029",
  "source": "// \n// MIT License\n// \n// Copyright (c) 2018 REGA Risk Sharing\n//   \n// Permission is hereby granted, free of charge, to any person obtaining a copy\n// of this software and associated documentation files (the \"Software\"), to deal\n// in the Software without restriction, including without limitation the rights\n// to use, copy, modify, merge, publish, distribute, sublicense, and/or sell\n// copies of the Software, and to permit persons to whom the Software is\n// furnished to do so, subject to the following conditions:\n// \n// The above copyright notice and this permission notice shall be included in all\n// copies or substantial portions of the Software.\n// \n// THE SOFTWARE IS PROVIDED \"AS IS\", WITHOUT WARRANTY OF ANY KIND, EXPRESS OR\n// IMPLIED, INCLUDING BUT NOT LIMITED TO THE WARRANTIES OF MERCHANTABILITY,\n// FITNESS FOR A PARTICULAR PURPOSE AND NONINFRINGEMENT. IN NO EVENT SHALL THE\n// AUTHORS OR COPYRIGHT HOLDERS BE LIABLE FOR ANY CLAIM, DAMAGES OR OTHER\n// LIABILITY, WHETHER IN AN ACTION OF CONTRACT, TORT OR OTHERWISE, ARISING FROM,\n// OUT OF OR IN CONNECTION WITH THE SOFTWARE OR THE USE OR OTHER DEALINGS IN THE\n// SOFTWARE.\n// \n// Author: Sergei Sevriugin\n// Version: 0.0.1\n//  \npragma solidity ^0.4.18;\n\nimport './interfaces/IERC20Controller.sol';\nimport './interfaces/IERC20Adapter.sol';\n/// ERC20 Adapter\ncontract ERC20Adapter is IERC20Adapter {\n    /// ERC20 Controller \n    IERC20Controller public controller;\n    /// ERC20 Standard\n    string public standard = \"Token 0.1\";\n    /// ERC20 Token name\n    string public name = \"\";\n    /// ERC20 Token symbol\n    string public symbol = \"\";\n    /// ERC20 Token decimals \n    uint8 public decimals = 0;\n    /// ERC20 total supply\n    /// @return total ERC20 supply\n    function totalSupply() public view returns (uint256) {\n        require(controller != address(0));\n\n        return controller.cTotalSupply();\n    }\n    /// ERC20 balance \n    /// @param _owner token owner\n    /// @return token owner balance\n    function balanceOf(address _owner) public view returns (uint256) {\n        require(controller != address(0));\n        require(_owner != address(0));\n\n        return controller.cBalanceOf(_owner);\n    }\n    /// ERC20 allowance \n    /// @param _owner token owner\n    /// @param _spender spender address \n    /// @return allowance amount\n    function allowance(address _owner, address _spender) public view returns (uint256) { \n        require(controller != address(0));\n        require(_owner != address(0));\n        require(_spender != address(0));\n\n        return controller.cAllowance(_owner, _spender);\n    }\n    /// ERC20 transfer \n    /// @param _to adress to transfer\n    /// @param _value transfer amount \n    /// @return TRUE if transfer is succesuful \n    function transfer(address _to, uint256 _value) public returns (bool success) {\n        require(controller != address(0));\n        require(_to != address(0));\n        require(_value != uint256(0));\n\n        return controller.cTransfer(_to, _value);\n    }\n    /// ERC20 transfer from\n    /// @param _from address to transfer from \n    /// @param _to adress to transfer to \n    /// @param _value transfer amount \n    /// @return TRUE if transfer is succesuful \n    function transferFrom(address _from, address _to, uint256 _value) public returns (bool success) {\n        require(controller != address(0));\n        require(_to != address(0));\n        require(_from != address(0));\n        require(_value != uint256(0));\n\n        return controller.cTransferFrom(_from, _to, _value);\n    }\n    /// ERC20 transfer approve\n    /// @param _spender address to approve\n    /// @param _value amount to approve\n    /// @return TRUE if transfer is succesuful \n    function approve(address _spender, uint256 _value) public returns (bool success) {\n        require(controller != address(0));\n        require(_spender != address(0));\n        require(_value != uint256(0));\n\n        return controller.cApprove(_spender, _value);\n    }\n    /// ERC20 / ERC721 transfer approve \n    /// @param _fromId NFT token ID to send value\n    /// @param _spender address to approve\n    /// @param _toId NFT token to recieve value\n    /// @param _value amount to approve\n    /// @return TRUE if transfer is succesuful \n    function approveFrom(uint256 _fromId, address _spender, uint256 _toId, uint256 _value) public returns (bool success) {\n        require(controller != address(0));\n        require(_fromId != uint256(0));\n        require(_spender != address(0));\n        require(_toId != uint256(0));\n        require(_value != uint256(0));\n        require(_fromId != _toId);\n\n        return controller.cApproveFrom(_fromId, _spender, _toId, _value);\n    }\n    /// Constructor \n    /// @param _controller ERC20 Controller\n    /// @param _name ERC20 token name\n    /// @param _symbol ERC20 token symbol\n    /// @param _decimals ERC20 token decimals\n    function ERC20Adapter(IERC20Controller _controller, string _name, string _symbol, uint8 _decimals) public {\n        require(bytes(_name).length > 0 && bytes(_symbol).length > 0); // validate input\n\n        name = _name;\n        symbol = _symbol;\n        decimals = _decimals;\n        controller = _controller;\n    }\n\n}",
  "sourcePath": "/Users/sergei/LuggageCrowdsurance/contracts/ERC20Adapter.sol",
  "compiler": {
    "name": "solc",
    "version": "0.4.18+commit.9cf6e910.Emscripten.clang"
  },
  "schemaVersion": "1.0.1",
  "updatedAt": "2018-05-17T07:19:34.413Z"
}