{
  "contractName": "ERC721",
  "abi": [
    {
      "constant": true,
      "inputs": [
        {
          "name": "",
          "type": "uint256"
        }
      ],
      "name": "tokenIndexToOwner",
      "outputs": [
        {
          "name": "",
          "type": "address"
        }
      ],
      "payable": false,
      "stateMutability": "view",
      "type": "function"
    },
    {
      "constant": true,
      "inputs": [],
      "name": "owner",
      "outputs": [
        {
          "name": "",
          "type": "address"
        }
      ],
      "payable": false,
      "stateMutability": "view",
      "type": "function"
    },
    {
      "constant": true,
      "inputs": [
        {
          "name": "",
          "type": "uint256"
        }
      ],
      "name": "tokenIndexToApproved",
      "outputs": [
        {
          "name": "",
          "type": "address"
        }
      ],
      "payable": false,
      "stateMutability": "view",
      "type": "function"
    },
    {
      "constant": true,
      "inputs": [
        {
          "name": "",
          "type": "address"
        },
        {
          "name": "",
          "type": "address"
        }
      ],
      "name": "allowance",
      "outputs": [
        {
          "name": "",
          "type": "uint256"
        }
      ],
      "payable": false,
      "stateMutability": "view",
      "type": "function"
    },
    {
      "inputs": [
        {
          "name": "_n",
          "type": "string"
        },
        {
          "name": "_s",
          "type": "string"
        }
      ],
      "payable": false,
      "stateMutability": "nonpayable",
      "type": "constructor"
    },
    {
      "anonymous": false,
      "inputs": [
        {
          "indexed": false,
          "name": "from",
          "type": "address"
        },
        {
          "indexed": false,
          "name": "to",
          "type": "address"
        },
        {
          "indexed": false,
          "name": "tokenId",
          "type": "uint256"
        }
      ],
      "name": "Transfer",
      "type": "event"
    },
    {
      "anonymous": false,
      "inputs": [
        {
          "indexed": false,
          "name": "owner",
          "type": "address"
        },
        {
          "indexed": false,
          "name": "approved",
          "type": "address"
        },
        {
          "indexed": false,
          "name": "tokenId",
          "type": "uint256"
        }
      ],
      "name": "Approval",
      "type": "event"
    },
    {
      "anonymous": false,
      "inputs": [
        {
          "indexed": false,
          "name": "value",
          "type": "uint256"
        },
        {
          "indexed": false,
          "name": "metadata",
          "type": "string"
        },
        {
          "indexed": false,
          "name": "kind",
          "type": "uint256"
        },
        {
          "indexed": false,
          "name": "owner",
          "type": "address"
        }
      ],
      "name": "Birth",
      "type": "event"
    },
    {
      "constant": true,
      "inputs": [],
      "name": "name",
      "outputs": [
        {
          "name": "",
          "type": "string"
        }
      ],
      "payable": false,
      "stateMutability": "view",
      "type": "function"
    },
    {
      "constant": true,
      "inputs": [],
      "name": "symbol",
      "outputs": [
        {
          "name": "",
          "type": "string"
        }
      ],
      "payable": false,
      "stateMutability": "view",
      "type": "function"
    },
    {
      "constant": true,
      "inputs": [
        {
          "name": "_interfaceID",
          "type": "bytes4"
        }
      ],
      "name": "supportsInterface",
      "outputs": [
        {
          "name": "",
          "type": "bool"
        }
      ],
      "payable": false,
      "stateMutability": "view",
      "type": "function"
    },
    {
      "constant": true,
      "inputs": [
        {
          "name": "_owner",
          "type": "address"
        }
      ],
      "name": "balanceOf",
      "outputs": [
        {
          "name": "count",
          "type": "uint256"
        }
      ],
      "payable": false,
      "stateMutability": "view",
      "type": "function"
    },
    {
      "constant": true,
      "inputs": [
        {
          "name": "_tokenId",
          "type": "uint256"
        }
      ],
      "name": "valueOf",
      "outputs": [
        {
          "name": "value",
          "type": "uint256"
        }
      ],
      "payable": false,
      "stateMutability": "view",
      "type": "function"
    },
    {
      "constant": false,
      "inputs": [
        {
          "name": "_to",
          "type": "address"
        },
        {
          "name": "_tokenId",
          "type": "uint256"
        }
      ],
      "name": "transfer",
      "outputs": [],
      "payable": false,
      "stateMutability": "nonpayable",
      "type": "function"
    },
    {
      "constant": false,
      "inputs": [
        {
          "name": "_to",
          "type": "address"
        },
        {
          "name": "_tokenId",
          "type": "uint256"
        }
      ],
      "name": "approve",
      "outputs": [],
      "payable": false,
      "stateMutability": "nonpayable",
      "type": "function"
    },
    {
      "constant": false,
      "inputs": [
        {
          "name": "_from",
          "type": "address"
        },
        {
          "name": "_to",
          "type": "address"
        },
        {
          "name": "_tokenId",
          "type": "uint256"
        }
      ],
      "name": "transferFrom",
      "outputs": [],
      "payable": false,
      "stateMutability": "nonpayable",
      "type": "function"
    },
    {
      "constant": true,
      "inputs": [],
      "name": "totalSupply",
      "outputs": [
        {
          "name": "",
          "type": "uint256"
        }
      ],
      "payable": false,
      "stateMutability": "view",
      "type": "function"
    },
    {
      "constant": true,
      "inputs": [
        {
          "name": "_tokenId",
          "type": "uint256"
        }
      ],
      "name": "ownerOf",
      "outputs": [
        {
          "name": "",
          "type": "address"
        }
      ],
      "payable": false,
      "stateMutability": "view",
      "type": "function"
    },
    {
      "constant": true,
      "inputs": [
        {
          "name": "_owner",
          "type": "address"
        }
      ],
      "name": "tokensOfOwner",
      "outputs": [
        {
          "name": "ownerTokens",
          "type": "uint256[]"
        }
      ],
      "payable": false,
      "stateMutability": "view",
      "type": "function"
    },
    {
      "constant": true,
      "inputs": [
        {
          "name": "_tokenId",
          "type": "uint256"
        }
      ],
      "name": "tokenMetadata",
      "outputs": [
        {
          "name": "infoUrl",
          "type": "string"
        }
      ],
      "payable": false,
      "stateMutability": "view",
      "type": "function"
    }
  ],
  "bytecode": "0x60806040523480156200001157600080fd5b506040516200171138038062001711833981018060405281019080805182019291906020018051820192919050505033600260006101000a81548173ffffffffffffffffffffffffffffffffffffffff021916908373ffffffffffffffffffffffffffffffffffffffff160217905550816000908051906020019062000099929190620000bb565b508060019080519060200190620000b2929190620000bb565b5050506200016a565b828054600181600116156101000203166002900490600052602060002090601f016020900481019282601f10620000fe57805160ff19168380011785556200012f565b828001600101855582156200012f579182015b828111156200012e57825182559160200191906001019062000111565b5b5090506200013e919062000142565b5090565b6200016791905b808211156200016357600081600090555060010162000149565b5090565b90565b611597806200017a6000396000f3006080604052600436106100e6576000357c0100000000000000000000000000000000000000000000000000000000900463ffffffff16806301ffc9a7146100eb57806306fdde031461014f578063095ea7b3146101df57806318160ddd1461022c5780631d36e06c1461025757806323b872dd146102c45780636352211e146103315780636914db601461039e57806370a08231146104445780638462151c1461049b5780638da5cb5b1461053357806395d89b411461058a578063a8bd9c321461061a578063a9059cbb14610687578063cadf338f146106d4578063dd62ed3e14610715575b600080fd5b3480156100f757600080fd5b5061013560048036038101908080357bffffffffffffffffffffffffffffffffffffffffffffffffffffffff1916906020019092919050505061078c565b604051808215151515815260200191505060405180910390f35b34801561015b57600080fd5b50610164610a9d565b6040518080602001828103825283818151815260200191508051906020019080838360005b838110156101a4578082015181840152602081019050610189565b50505050905090810190601f1680156101d15780820380516001836020036101000a031916815260200191505b509250505060405180910390f35b3480156101eb57600080fd5b5061022a600480360381019080803573ffffffffffffffffffffffffffffffffffffffff16906020019092919080359060200190929190505050610b3f565b005b34801561023857600080fd5b50610241610c01565b6040518082815260200191505060405180910390f35b34801561026357600080fd5b5061028260048036038101908080359060200190929190505050610c23565b604051808273ffffffffffffffffffffffffffffffffffffffff1673ffffffffffffffffffffffffffffffffffffffff16815260200191505060405180910390f35b3480156102d057600080fd5b5061032f600480360381019080803573ffffffffffffffffffffffffffffffffffffffff169060200190929190803573ffffffffffffffffffffffffffffffffffffffff16906020019092919080359060200190929190505050610c56565b005b34801561033d57600080fd5b5061035c60048036038101908080359060200190929190505050610d07565b604051808273ffffffffffffffffffffffffffffffffffffffff1673ffffffffffffffffffffffffffffffffffffffff16815260200191505060405180910390f35b3480156103aa57600080fd5b506103c960048036038101908080359060200190929190505050610d85565b6040518080602001828103825283818151815260200191508051906020019080838360005b838110156104095780820151818401526020810190506103ee565b50505050905090810190601f1680156104365780820380516001836020036101000a031916815260200191505b509250505060405180910390f35b34801561045057600080fd5b50610485600480360381019080803573ffffffffffffffffffffffffffffffffffffffff169060200190929190505050610e47565b6040518082815260200191505060405180910390f35b3480156104a757600080fd5b506104dc600480360381019080803573ffffffffffffffffffffffffffffffffffffffff169060200190929190505050610e90565b6040518080602001828103825283818151815260200191508051906020019060200280838360005b8381101561051f578082015181840152602081019050610504565b505050509050019250505060405180910390f35b34801561053f57600080fd5b50610548610ea2565b604051808273ffffffffffffffffffffffffffffffffffffffff1673ffffffffffffffffffffffffffffffffffffffff16815260200191505060405180910390f35b34801561059657600080fd5b5061059f610ec8565b6040518080602001828103825283818151815260200191508051906020019080838360005b838110156105df5780820151818401526020810190506105c4565b50505050905090810190601f16801561060c5780820380516001836020036101000a031916815260200191505b509250505060405180910390f35b34801561062657600080fd5b5061064560048036038101908080359060200190929190505050610f6a565b604051808273ffffffffffffffffffffffffffffffffffffffff1673ffffffffffffffffffffffffffffffffffffffff16815260200191505060405180910390f35b34801561069357600080fd5b506106d2600480360381019080803573ffffffffffffffffffffffffffffffffffffffff16906020019092919080359060200190929190505050610f9d565b005b3480156106e057600080fd5b506106ff60048036038101908080359060200190929190505050611038565b6040518082815260200191505060405180910390f35b34801561072157600080fd5b50610776600480360381019080803573ffffffffffffffffffffffffffffffffffffffff169060200190929190803573ffffffffffffffffffffffffffffffffffffffff169060200190929190505050611062565b6040518082815260200191505060405180910390f35b600060405180807f737570706f727473496e74657266616365286279746573342900000000000000815250601901905060405180910390207bffffffffffffffffffffffffffffffffffffffffffffffffffffffff1916827bffffffffffffffffffffffffffffffffffffffffffffffffffffffff19161480610a96575060405180807f746f6b656e4d657461646174612875696e743235362c737472696e6729000000815250601d019050604051809103902060405180807f746f6b656e734f664f776e6572286164647265737329000000000000000000008152506016019050604051809103902060405180807f7472616e7366657246726f6d28616464726573732c616464726573732c75696e81526020017f74323536290000000000000000000000000000000000000000000000000000008152506025019050604051809103902060405180807f7472616e7366657228616464726573732c75696e7432353629000000000000008152506019019050604051809103902060405180807f617070726f766528616464726573732c75696e743235362900000000000000008152506018019050604051809103902060405180807f6f776e65724f662875696e7432353629000000000000000000000000000000008152506010019050604051809103902060405180807f62616c616e63654f6628616464726573732900000000000000000000000000008152506012019050604051809103902060405180807f746f74616c537570706c79282900000000000000000000000000000000000000815250600d019050604051809103902060405180807f73796d626f6c28290000000000000000000000000000000000000000000000008152506008019050604051809103902060405180807f6e616d6528290000000000000000000000000000000000000000000000000000815250600601905060405180910390201818181818181818187bffffffffffffffffffffffffffffffffffffffffffffffffffffffff1916827bffffffffffffffffffffffffffffffffffffffffffffffffffffffff1916145b9050919050565b606060008054600181600116156101000203166002900480601f016020809104026020016040519081016040528092919081815260200182805460018160011615610100020316600290048015610b355780601f10610b0a57610100808354040283529160200191610b35565b820191906000526020600020905b815481529060010190602001808311610b1857829003601f168201915b5050505050905090565b610b493382611087565b1515610b5457600080fd5b610b5e81836110f3565b7f8c5be1e5ebec7d5bd14f71427d1e84f3dd0314c0f7b2291e5b200ac8c7c3b925338383604051808473ffffffffffffffffffffffffffffffffffffffff1673ffffffffffffffffffffffffffffffffffffffff1681526020018373ffffffffffffffffffffffffffffffffffffffff1673ffffffffffffffffffffffffffffffffffffffff168152602001828152602001935050505060405180910390a15050565b60008060038054905090506000811115610c1c576001810390505b8091505090565b60046020528060005260406000206000915054906101000a900473ffffffffffffffffffffffffffffffffffffffff1681565b600073ffffffffffffffffffffffffffffffffffffffff168273ffffffffffffffffffffffffffffffffffffffff1614151515610c9257600080fd5b3073ffffffffffffffffffffffffffffffffffffffff168273ffffffffffffffffffffffffffffffffffffffff1614151515610ccd57600080fd5b610cd73382611149565b1515610ce257600080fd5b610cec8382611087565b1515610cf757600080fd5b610d028383836111b5565b505050565b6000806004600084815260200190815260200160002060009054906101000a900473ffffffffffffffffffffffffffffffffffffffff169050600073ffffffffffffffffffffffffffffffffffffffff168173ffffffffffffffffffffffffffffffffffffffff1614151515610d7c57600080fd5b80915050919050565b6060600382815481101515610d9657fe5b90600052602060002090600502016001018054600181600116156101000203166002900480601f016020809104026020016040519081016040528092919081815260200182805460018160011615610100020316600290048015610e3b5780601f10610e1057610100808354040283529160200191610e3b565b820191906000526020600020905b815481529060010190602001808311610e1e57829003601f168201915b50505050509050919050565b6000600560008373ffffffffffffffffffffffffffffffffffffffff1673ffffffffffffffffffffffffffffffffffffffff168152602001908152602001600020549050919050565b6060610e9b826113e5565b9050919050565b600260009054906101000a900473ffffffffffffffffffffffffffffffffffffffff1681565b606060018054600181600116156101000203166002900480601f016020809104026020016040519081016040528092919081815260200182805460018160011615610100020316600290048015610f605780601f10610f3557610100808354040283529160200191610f60565b820191906000526020600020905b815481529060010190602001808311610f4357829003601f168201915b5050505050905090565b60066020528060005260406000206000915054906101000a900473ffffffffffffffffffffffffffffffffffffffff1681565b600073ffffffffffffffffffffffffffffffffffffffff168273ffffffffffffffffffffffffffffffffffffffff1614151515610fd957600080fd5b3073ffffffffffffffffffffffffffffffffffffffff168273ffffffffffffffffffffffffffffffffffffffff161415151561101457600080fd5b61101e3382611087565b151561102957600080fd5b6110343383836111b5565b5050565b600060038281548110151561104957fe5b9060005260206000209060050201600001549050919050565b6007602052816000526040600020602052806000526040600020600091509150505481565b60008273ffffffffffffffffffffffffffffffffffffffff166004600084815260200190815260200160002060009054906101000a900473ffffffffffffffffffffffffffffffffffffffff1673ffffffffffffffffffffffffffffffffffffffff1614905092915050565b806006600084815260200190815260200160002060006101000a81548173ffffffffffffffffffffffffffffffffffffffff021916908373ffffffffffffffffffffffffffffffffffffffff1602179055505050565b60008273ffffffffffffffffffffffffffffffffffffffff166006600084815260200190815260200160002060009054906101000a900473ffffffffffffffffffffffffffffffffffffffff1673ffffffffffffffffffffffffffffffffffffffff1614905092915050565b6104006003828154811015156111c757fe5b906000526020600020906005020160040154141515156111e357fe5b600560008373ffffffffffffffffffffffffffffffffffffffff1673ffffffffffffffffffffffffffffffffffffffff16815260200190815260200160002060008154809291906001019190505550816004600083815260200190815260200160002060006101000a81548173ffffffffffffffffffffffffffffffffffffffff021916908373ffffffffffffffffffffffffffffffffffffffff160217905550600073ffffffffffffffffffffffffffffffffffffffff168373ffffffffffffffffffffffffffffffffffffffff1614151561134157600560008473ffffffffffffffffffffffffffffffffffffffff1673ffffffffffffffffffffffffffffffffffffffff16815260200190815260200160002060008154809291906001900391905055506006600082815260200190815260200160002060006101000a81549073ffffffffffffffffffffffffffffffffffffffff02191690555b7fddf252ad1be2c89b69c2b068fc378daa952ba7f163c4a11628f55a4df523b3ef838383604051808473ffffffffffffffffffffffffffffffffffffffff1673ffffffffffffffffffffffffffffffffffffffff1681526020018373ffffffffffffffffffffffffffffffffffffffff1673ffffffffffffffffffffffffffffffffffffffff168152602001828152602001935050505060405180910390a1505050565b60606000606060008060008073ffffffffffffffffffffffffffffffffffffffff168773ffffffffffffffffffffffffffffffffffffffff161415151561142b57600080fd5b61143487610e47565b9450600085141561147757600060405190808252806020026020018201604052801561146f5781602001602082028038833980820191505090505b509550611561565b846040519080825280602002602001820160405280156114a65781602001602082028038833980820191505090505b5093506114b1610c01565b925060009150600190505b828111151561155d578673ffffffffffffffffffffffffffffffffffffffff166004600083815260200190815260200160002060009054906101000a900473ffffffffffffffffffffffffffffffffffffffff1673ffffffffffffffffffffffffffffffffffffffff1614156115505780848380600101945081518110151561154157fe5b90602001906020020181815250505b80806001019150506114bc565b8395505b50505050509190505600a165627a7a72305820f1028caa2be948faf6a24880a2fc3fe866b2a5710ed75652e199fd28a27afc580029",
  "source": "// \n// MIT License\n// \n// Copyright (c) 2018 REGA Risk Sharing\n//   \n// Permission is hereby granted, free of charge, to any person obtaining a copy\n// of this software and associated documentation files (the \"Software\"), to deal\n// in the Software without restriction, including without limitation the rights\n// to use, copy, modify, merge, publish, distribute, sublicense, and/or sell\n// copies of the Software, and to permit persons to whom the Software is\n// furnished to do so, subject to the following conditions:\n// \n// The above copyright notice and this permission notice shall be included in all\n// copies or substantial portions of the Software.\n// \n// THE SOFTWARE IS PROVIDED \"AS IS\", WITHOUT WARRANTY OF ANY KIND, EXPRESS OR\n// IMPLIED, INCLUDING BUT NOT LIMITED TO THE WARRANTIES OF MERCHANTABILITY,\n// FITNESS FOR A PARTICULAR PURPOSE AND NONINFRINGEMENT. IN NO EVENT SHALL THE\n// AUTHORS OR COPYRIGHT HOLDERS BE LIABLE FOR ANY CLAIM, DAMAGES OR OTHER\n// LIABILITY, WHETHER IN AN ACTION OF CONTRACT, TORT OR OTHERWISE, ARISING FROM,\n// OUT OF OR IN CONNECTION WITH THE SOFTWARE OR THE USE OR OTHER DEALINGS IN THE\n// SOFTWARE.\n// \n// Author: Sergei Sevriugin\n// Version: 0.0.1\n//\n\npragma solidity ^0.4.17;\n\nimport \"./interfaces/IERC721.sol\";\n\n/// ERC721 non-fungible token\ncontract ERC721 is IERC721 {\n    /// @dev token name and symbol\n    string _name; \n    /// @dev token symbol\n    string _symbol;\n    /// @dev stateBlocked\n    uint256 constant StateBlocked = uint256(1024);\n    /// @dev interface signature ERC165\n    bytes4 constant InterfaceSignature_ERC165 = bytes4(keccak256(\"supportsInterface(bytes4)\"));\n    /// @dev interface signature ERC721\n    bytes4 constant InterfaceSignature_ERC721 = bytes4(keccak256(\"name()\")) ^ bytes4(keccak256(\"symbol()\")) ^ bytes4(keccak256(\"totalSupply()\")) ^ \n    bytes4(keccak256(\"balanceOf(address)\")) ^ bytes4(keccak256(\"ownerOf(uint256)\")) ^ bytes4(keccak256(\"approve(address,uint256)\")) ^ bytes4(keccak256(\"transfer(address,uint256)\")) ^ \n    bytes4(keccak256(\"transferFrom(address,address,uint256)\")) ^ bytes4(keccak256(\"tokensOfOwner(address)\")) ^  bytes4(keccak256(\"tokenMetadata(uint256,string)\"));\n    /// @dev NFT token data : value, metadata, kind, level and state\n    /// @param value ERC20 token value\n    /// @param metadata NFT metadata\n    /// @param kind NFT token type / kind\n    /// @param level NFT token level\n    /// @param state token state\n    struct NFT {\n        uint256 value;          // NFT value \n        string  metadata;       // ... metadata: IPFS path\n        uint256 kind;           // ... type\n        uint256 level;          // ... activities level\n        uint256 state;          // ... state\n    }\n    /// @dev contract owner\n    address public owner;       // Smart contract owner\n    /// @dev NFT token array\n    NFT[] nfts;                 // tokens\n    /// owner address\n    mapping (uint256 => address) public tokenIndexToOwner;              // NFT ID --> owner address\n    /// NFT token owner\n    mapping (address => uint256) ownershipTokenCount;                   // owner address --> NFT index\n    /// new owner address\n    mapping (uint256 => address) public tokenIndexToApproved;           // case ID --> new owner approved address\n    /// allowance amount\n    mapping (address => mapping (address => uint256)) public allowance; // transfer allowance\n    /// ERC721 events\n    /// @dev transfer event\n    /// @param from address transfer from\n    /// @param to address transfer to\n    /// @param tokenId NFT token ID to transfer\n    event Transfer(address from, address to, uint256 tokenId);\n    /// ERC721 events\n    /// @dev approval event\n    /// @param owner NFT token owner address\n    /// @param approved address to approve\n    /// @param tokenId NFT token ID to approve\n    event Approval(address owner, address approved, uint256 tokenId);\n    /// ERC721 events\n    /// @dev birth event\n    /// @param value NFT token value\n    /// @param metadata NFT token metadata\n    /// @param kind NFT token kind\n    /// @param owner NFT token owner\n    event Birth(uint256 value, string  metadata, uint256 kind, address owner);\n    /// ERC721 Helpers\n    /// @dev transfer NFT token from one address to another\n    /// @param _from address to transfer from\n    /// @param _to address to transfer to\n    /// @param _tokenId NFT token ID to transfer\n    function _transfer(address _from, address _to, uint256 _tokenId) internal {\n\n        assert(nfts[_tokenId].state != StateBlocked);\n        \n        ownershipTokenCount[_to]++;\n        tokenIndexToOwner[_tokenId] = _to;\n\n        // _from == 0 for new NFT there is not any current owner\n        if (_from != address(0)) {\n            ownershipTokenCount[_from]--;\n            \n            delete tokenIndexToApproved[_tokenId];\n        }\n        // Fire event\n        emit Transfer(_from, _to, _tokenId);\n    }\n    /// ERC721 Helpers\n    /// @dev create new NFT token\n    /// @param _value NFT token value\n    /// @param _metadata NFT token metadata\n    /// @param _kind NFT token kind\n    /// @param _owner NFT token owner\n    function _createNFT(uint256 _value, string  _metadata, uint256 _kind, address _owner) internal returns (uint) {   \n        // allocate new NFT\n        NFT memory _nft = NFT({\n            value: _value,\n            metadata: _metadata,\n            kind: _kind,\n            level: uint256(0),\n            state: uint256(0)\n        });\n        // save new NFT in array and get token Id\n        uint256 newId = nfts.push(_nft) - 1; // push returns new array length, so caseId starts from 0\n        if (newId == uint32(0)) {\n            // we need to reserve index 0 as null, so let's push another copy and make it 1\n            newId = nfts.push(_nft) - 1;\n        }\n        require(newId == uint256(uint32(newId)));\n        // emit the birth event\n        emit Birth(_value, _metadata, _kind, _owner);\n        // transfer to the Owner\n        _transfer(0, _owner, newId);\n        // return new token Id > 0\n        return newId;\n    }\n    /// @dev if address is owner for the specific NFT token\n    /// @param _claimant address to check\n    /// @param _tokenId NFT token ID to check\n    /// @return TRUE is _claimant is _tokenId owner\n    function _owns(address _claimant, uint256 _tokenId) internal view returns (bool) {\n        return tokenIndexToOwner[_tokenId] == _claimant;\n    }\n    /// @dev check if NFT token is approved to specific address\n    /// @param _claimant address to check\n    /// @param _tokenId NFT address to check\n    /// @return TRUE is _claimant is approved for _tokenId\n    function _approvedFor(address _claimant, uint256 _tokenId) internal view returns (bool) {\n        return tokenIndexToApproved[_tokenId] == _claimant;\n    }\n    /// @dev approve address to the specific token\n    /// @param _tokenId NFT token ID to approve\n    /// @param _approved address to approve\n    function _approve(uint256 _tokenId, address _approved) internal {\n        tokenIndexToApproved[_tokenId] = _approved;\n    }\n    /// @dev NFT tokens for specific address\n    /// @param _owner owner address\n    /// @return array of NFT tokens belonging to the _owner\n    function _tokensOfOwner(address _owner) view internal returns(uint256[] ownerTokens) {\n        require(_owner != address(0));\n        uint256 tokenCount = balanceOf(_owner);\n        \n        if (tokenCount == 0) {\n            return new uint256[](0);    // Return an empty array\n        } else {\n            uint256[] memory result = new uint256[](tokenCount);\n            uint256 totalCases = totalSupply(); // totalSupply is cases.lenght -1, 0 index is reserved\n            uint256 resultIndex = 0;\n\n            for (uint256 id = 1; id <= totalCases; id++) {\n                if (tokenIndexToOwner[id] == _owner) {\n                    result[resultIndex++] = id;\n                }\n            }\n            return result;\n        }\n    }\n    /// ERC721 Public\n    /// @dev return token name\n    /// @return token name\n    function name() public view returns (string) {\n        return _name;\n    }\n    /// ERC721 Public\n    /// @dev return token symbol\n    /// @return token symbol\n    function symbol() public view returns (string) {\n        return _symbol;\n    }\n    /// ERC721 Public\n    /// @dev Check if interface is supported by smart contract\n    /// @param _interfaceID interface signature to check\n    /// @return TRUE is _interfaceID is supported \n    function supportsInterface(bytes4 _interfaceID) external view returns (bool) {\n        return ((_interfaceID == InterfaceSignature_ERC165) || (_interfaceID == InterfaceSignature_ERC721));\n    }\n    /// ERC721 Public\n    /// @dev Get number of NFT tokens for given owner address\n    /// @param _owner owner address \n    /// @return number of NFT for _owner\n    function balanceOf(address _owner) public view returns (uint256 count) {\n        return ownershipTokenCount[_owner];\n    }\n    /// ERC721 Public\n    /// @dev Get value of NFT token \n    /// @param _tokenId NFT token ID\n    /// @return value for _tokenId\n    function valueOf(uint256 _tokenId) public view returns (uint256 value) {\n        return nfts[_tokenId].value;\n    }\n    /// ERC721 Public\n    /// @dev transfer NFT token to new owner\n    /// @param _to new owner address\n    /// @param _tokenId NFT token ID to transfer\n    function transfer(address _to, uint256 _tokenId) external {\n        require(_to != address(0));\n        require(_to != address(this));\n\n        require(_owns(msg.sender, _tokenId));\n        _transfer(msg.sender, _to, _tokenId);\n    }\n    /// ERC721 Public\n    /// @dev approve transfer of NFT token to a new owner\n    /// @param _to new owner address to be approved \n    /// @param _tokenId NFT token ID to be approved\n    function approve(address _to, uint256 _tokenId) external {\n        require(_owns(msg.sender, _tokenId));\n\n        _approve(_tokenId, _to);\n        emit Approval(msg.sender, _to, _tokenId);\n    }\n    /// ERC721 Public\n    /// @dev transfer token from current owner to new one. The transfer must be approved before\n    /// @param _from curren owner address \n    /// @param _to new owner address to transfer\n    /// @param _tokenId NFT token ID to transfer\n    function transferFrom(address _from, address _to, uint256 _tokenId) external {\n        require(_to != address(0));\n        require(_to != address(this));\n        require(_approvedFor(msg.sender, _tokenId));\n        require(_owns(_from, _tokenId));\n\n        _transfer(_from, _to, _tokenId);\n    }\n    /// ERC721 Public\n    /// @dev Get total supply for NFT token \n    /// @return number of NFT issued\n    function totalSupply() public view returns (uint) {\n        uint result = nfts.length;\n        if (result > 0) {\n            result = result - 1;\n        }\n        return result;\n    }\n    /// ERC721 Public\n    /// @dev Get current NFT token owner address \n    /// @param _tokenId NFT token ID to get owner\n    /// @return address _tokenId owner \n    function ownerOf(uint256 _tokenId) external view returns (address) {\n        address _owner = tokenIndexToOwner[_tokenId];\n\n        require(_owner != address(0));\n        return _owner;\n    }\n    /// ERC721 Public\n    /// @dev Get all NFT tokens for owner address \n    /// @param _owner NFT owner address\n    /// @return array of NFT token IDs\n    function tokensOfOwner(address _owner) external view returns(uint256[] ownerTokens) {\n        return _tokensOfOwner(_owner);\n    }\n    /// ERC721 Public\n    /// @dev Get  NFT token metadate\n    /// @param _tokenId NFT ID to get metadata\n    /// @return metadata for _tokenId\n    function tokenMetadata(uint256 _tokenId) public view returns (string infoUrl) {\n        return nfts[_tokenId].metadata;\n    }\n    /// ERC721 Public\n    /// @dev Constructor\n    /// @param _n NFT token name\n    /// @param _s NFT token symbol\n    constructor(string _n, string _s) public {\n        owner = msg.sender; \n        _name = _n;\n        _symbol = _s;\n    }\n}\n",
  "sourcePath": "/Users/sergei/LuggageCrowdsurance/contracts/ERC721.sol",
  "compiler": {
    "name": "solc",
    "version": "0.4.24+commit.e67f0147.Emscripten.clang"
  },
  "schemaVersion": "2.0.0",
  "updatedAt": "2018-07-02T09:42:58.768Z"
}