{
  "contractName": "ERC721SmartToken",
  "abi": [
    {
      "constant": true,
      "inputs": [
        {
          "name": "_interfaceID",
          "type": "bytes4"
        }
      ],
      "name": "supportsInterface",
      "outputs": [
        {
          "name": "",
          "type": "bool"
        }
      ],
      "payable": false,
      "stateMutability": "view",
      "type": "function"
    },
    {
      "constant": true,
      "inputs": [],
      "name": "name",
      "outputs": [
        {
          "name": "",
          "type": "string"
        }
      ],
      "payable": false,
      "stateMutability": "view",
      "type": "function"
    },
    {
      "constant": false,
      "inputs": [
        {
          "name": "_to",
          "type": "address"
        },
        {
          "name": "_tokenId",
          "type": "uint256"
        }
      ],
      "name": "approve",
      "outputs": [],
      "payable": false,
      "stateMutability": "nonpayable",
      "type": "function"
    },
    {
      "constant": true,
      "inputs": [],
      "name": "totalSupply",
      "outputs": [
        {
          "name": "",
          "type": "uint256"
        }
      ],
      "payable": false,
      "stateMutability": "view",
      "type": "function"
    },
    {
      "constant": true,
      "inputs": [
        {
          "name": "",
          "type": "uint256"
        }
      ],
      "name": "tokenIndexToOwner",
      "outputs": [
        {
          "name": "",
          "type": "address"
        }
      ],
      "payable": false,
      "stateMutability": "view",
      "type": "function"
    },
    {
      "constant": false,
      "inputs": [
        {
          "name": "_from",
          "type": "address"
        },
        {
          "name": "_to",
          "type": "address"
        },
        {
          "name": "_tokenId",
          "type": "uint256"
        }
      ],
      "name": "transferFrom",
      "outputs": [],
      "payable": false,
      "stateMutability": "nonpayable",
      "type": "function"
    },
    {
      "constant": false,
      "inputs": [
        {
          "name": "_to",
          "type": "address"
        },
        {
          "name": "_toId",
          "type": "uint256"
        },
        {
          "name": "_level",
          "type": "uint256"
        }
      ],
      "name": "setLevel",
      "outputs": [],
      "payable": false,
      "stateMutability": "nonpayable",
      "type": "function"
    },
    {
      "constant": false,
      "inputs": [
        {
          "name": "_spender",
          "type": "address"
        },
        {
          "name": "_value",
          "type": "uint256"
        }
      ],
      "name": "cApprove",
      "outputs": [
        {
          "name": "success",
          "type": "bool"
        }
      ],
      "payable": false,
      "stateMutability": "nonpayable",
      "type": "function"
    },
    {
      "constant": false,
      "inputs": [
        {
          "name": "_to",
          "type": "address"
        },
        {
          "name": "_toId",
          "type": "uint256"
        }
      ],
      "name": "increaseLevel",
      "outputs": [],
      "payable": false,
      "stateMutability": "nonpayable",
      "type": "function"
    },
    {
      "constant": false,
      "inputs": [
        {
          "name": "_from",
          "type": "address"
        },
        {
          "name": "_fromId",
          "type": "uint256"
        },
        {
          "name": "_amount",
          "type": "uint256"
        }
      ],
      "name": "cDestroy",
      "outputs": [],
      "payable": false,
      "stateMutability": "nonpayable",
      "type": "function"
    },
    {
      "constant": false,
      "inputs": [
        {
          "name": "_to",
          "type": "address"
        },
        {
          "name": "_toId",
          "type": "uint256"
        },
        {
          "name": "_amount",
          "type": "uint256"
        }
      ],
      "name": "cIssue",
      "outputs": [],
      "payable": false,
      "stateMutability": "nonpayable",
      "type": "function"
    },
    {
      "constant": true,
      "inputs": [
        {
          "name": "_tokenId",
          "type": "uint256"
        }
      ],
      "name": "ownerOf",
      "outputs": [
        {
          "name": "",
          "type": "address"
        }
      ],
      "payable": false,
      "stateMutability": "view",
      "type": "function"
    },
    {
      "constant": false,
      "inputs": [
        {
          "name": "_to",
          "type": "address"
        },
        {
          "name": "_value",
          "type": "uint256"
        }
      ],
      "name": "cTransfer",
      "outputs": [
        {
          "name": "success",
          "type": "bool"
        }
      ],
      "payable": false,
      "stateMutability": "nonpayable",
      "type": "function"
    },
    {
      "constant": true,
      "inputs": [
        {
          "name": "_tokenId",
          "type": "uint256"
        }
      ],
      "name": "tokenMetadata",
      "outputs": [
        {
          "name": "infoUrl",
          "type": "string"
        }
      ],
      "payable": false,
      "stateMutability": "view",
      "type": "function"
    },
    {
      "constant": true,
      "inputs": [
        {
          "name": "_owner",
          "type": "address"
        }
      ],
      "name": "balanceOf",
      "outputs": [
        {
          "name": "count",
          "type": "uint256"
        }
      ],
      "payable": false,
      "stateMutability": "view",
      "type": "function"
    },
    {
      "constant": false,
      "inputs": [],
      "name": "acceptOwnership",
      "outputs": [],
      "payable": false,
      "stateMutability": "nonpayable",
      "type": "function"
    },
    {
      "constant": true,
      "inputs": [
        {
          "name": "_owner",
          "type": "address"
        }
      ],
      "name": "tokensOfOwner",
      "outputs": [
        {
          "name": "ownerTokens",
          "type": "uint256[]"
        }
      ],
      "payable": false,
      "stateMutability": "view",
      "type": "function"
    },
    {
      "constant": true,
      "inputs": [],
      "name": "owner",
      "outputs": [
        {
          "name": "",
          "type": "address"
        }
      ],
      "payable": false,
      "stateMutability": "view",
      "type": "function"
    },
    {
      "constant": true,
      "inputs": [],
      "name": "cTotalSupply",
      "outputs": [
        {
          "name": "",
          "type": "uint256"
        }
      ],
      "payable": false,
      "stateMutability": "view",
      "type": "function"
    },
    {
      "constant": true,
      "inputs": [],
      "name": "symbol",
      "outputs": [
        {
          "name": "",
          "type": "string"
        }
      ],
      "payable": false,
      "stateMutability": "view",
      "type": "function"
    },
    {
      "constant": false,
      "inputs": [
        {
          "name": "_fromId",
          "type": "uint256"
        },
        {
          "name": "_spender",
          "type": "address"
        },
        {
          "name": "_toId",
          "type": "uint256"
        },
        {
          "name": "_value",
          "type": "uint256"
        }
      ],
      "name": "cApproveFrom",
      "outputs": [
        {
          "name": "success",
          "type": "bool"
        }
      ],
      "payable": false,
      "stateMutability": "nonpayable",
      "type": "function"
    },
    {
      "constant": true,
      "inputs": [
        {
          "name": "",
          "type": "uint256"
        }
      ],
      "name": "tokenIndexToApproved",
      "outputs": [
        {
          "name": "",
          "type": "address"
        }
      ],
      "payable": false,
      "stateMutability": "view",
      "type": "function"
    },
    {
      "constant": false,
      "inputs": [
        {
          "name": "_to",
          "type": "address"
        },
        {
          "name": "_tokenId",
          "type": "uint256"
        }
      ],
      "name": "transfer",
      "outputs": [],
      "payable": false,
      "stateMutability": "nonpayable",
      "type": "function"
    },
    {
      "constant": true,
      "inputs": [
        {
          "name": "_to",
          "type": "address"
        },
        {
          "name": "_toId",
          "type": "uint256"
        }
      ],
      "name": "getLevel",
      "outputs": [
        {
          "name": "",
          "type": "uint256"
        }
      ],
      "payable": false,
      "stateMutability": "view",
      "type": "function"
    },
    {
      "constant": true,
      "inputs": [
        {
          "name": "_owner",
          "type": "address"
        }
      ],
      "name": "cBalanceOf",
      "outputs": [
        {
          "name": "",
          "type": "uint256"
        }
      ],
      "payable": false,
      "stateMutability": "view",
      "type": "function"
    },
    {
      "constant": false,
      "inputs": [
        {
          "name": "_from",
          "type": "address"
        },
        {
          "name": "_to",
          "type": "address"
        },
        {
          "name": "_value",
          "type": "uint256"
        }
      ],
      "name": "cTransferFrom",
      "outputs": [
        {
          "name": "success",
          "type": "bool"
        }
      ],
      "payable": false,
      "stateMutability": "nonpayable",
      "type": "function"
    },
    {
      "constant": true,
      "inputs": [
        {
          "name": "_tokenId",
          "type": "uint256"
        }
      ],
      "name": "valueOf",
      "outputs": [
        {
          "name": "value",
          "type": "uint256"
        }
      ],
      "payable": false,
      "stateMutability": "view",
      "type": "function"
    },
    {
      "constant": true,
      "inputs": [
        {
          "name": "",
          "type": "address"
        },
        {
          "name": "",
          "type": "address"
        }
      ],
      "name": "allowanceAmt",
      "outputs": [
        {
          "name": "",
          "type": "uint256"
        }
      ],
      "payable": false,
      "stateMutability": "view",
      "type": "function"
    },
    {
      "constant": true,
      "inputs": [],
      "name": "newOwner",
      "outputs": [
        {
          "name": "",
          "type": "address"
        }
      ],
      "payable": false,
      "stateMutability": "view",
      "type": "function"
    },
    {
      "constant": true,
      "inputs": [
        {
          "name": "",
          "type": "address"
        },
        {
          "name": "",
          "type": "address"
        }
      ],
      "name": "allowance",
      "outputs": [
        {
          "name": "",
          "type": "uint256"
        }
      ],
      "payable": false,
      "stateMutability": "view",
      "type": "function"
    },
    {
      "constant": true,
      "inputs": [
        {
          "name": "",
          "type": "address"
        },
        {
          "name": "",
          "type": "address"
        }
      ],
      "name": "allowanceIds",
      "outputs": [
        {
          "name": "",
          "type": "uint256"
        }
      ],
      "payable": false,
      "stateMutability": "view",
      "type": "function"
    },
    {
      "constant": false,
      "inputs": [
        {
          "name": "_newOwner",
          "type": "address"
        }
      ],
      "name": "transferOwnership",
      "outputs": [],
      "payable": false,
      "stateMutability": "nonpayable",
      "type": "function"
    },
    {
      "constant": true,
      "inputs": [
        {
          "name": "_owner",
          "type": "address"
        },
        {
          "name": "_spender",
          "type": "address"
        }
      ],
      "name": "cAllowance",
      "outputs": [
        {
          "name": "",
          "type": "uint256"
        }
      ],
      "payable": false,
      "stateMutability": "view",
      "type": "function"
    },
    {
      "inputs": [
        {
          "name": "_name",
          "type": "string"
        },
        {
          "name": "_symbol",
          "type": "string"
        }
      ],
      "payable": false,
      "stateMutability": "nonpayable",
      "type": "constructor"
    },
    {
      "anonymous": false,
      "inputs": [
        {
          "indexed": false,
          "name": "from",
          "type": "address"
        },
        {
          "indexed": false,
          "name": "fromId",
          "type": "uint256"
        },
        {
          "indexed": false,
          "name": "to",
          "type": "address"
        },
        {
          "indexed": false,
          "name": "toId",
          "type": "uint256"
        },
        {
          "indexed": false,
          "name": "value",
          "type": "uint256"
        }
      ],
      "name": "Transfer",
      "type": "event"
    },
    {
      "anonymous": false,
      "inputs": [
        {
          "indexed": false,
          "name": "to",
          "type": "address"
        },
        {
          "indexed": false,
          "name": "toId",
          "type": "uint256"
        },
        {
          "indexed": false,
          "name": "value",
          "type": "uint256"
        }
      ],
      "name": "AddValue",
      "type": "event"
    },
    {
      "anonymous": false,
      "inputs": [
        {
          "indexed": false,
          "name": "from",
          "type": "address"
        },
        {
          "indexed": false,
          "name": "fromId",
          "type": "uint256"
        },
        {
          "indexed": false,
          "name": "value",
          "type": "uint256"
        }
      ],
      "name": "RemoveValue",
      "type": "event"
    },
    {
      "anonymous": false,
      "inputs": [
        {
          "indexed": false,
          "name": "to",
          "type": "address"
        },
        {
          "indexed": false,
          "name": "toId",
          "type": "uint256"
        },
        {
          "indexed": false,
          "name": "level",
          "type": "uint256"
        }
      ],
      "name": "SetLevel",
      "type": "event"
    },
    {
      "anonymous": false,
      "inputs": [
        {
          "indexed": false,
          "name": "to",
          "type": "address"
        },
        {
          "indexed": false,
          "name": "toId",
          "type": "uint256"
        }
      ],
      "name": "IncreaseLevel",
      "type": "event"
    },
    {
      "anonymous": false,
      "inputs": [
        {
          "indexed": true,
          "name": "_prevOwner",
          "type": "address"
        },
        {
          "indexed": true,
          "name": "_newOwner",
          "type": "address"
        }
      ],
      "name": "OwnerUpdate",
      "type": "event"
    },
    {
      "anonymous": false,
      "inputs": [
        {
          "indexed": false,
          "name": "fromId",
          "type": "uint256"
        },
        {
          "indexed": false,
          "name": "spender",
          "type": "address"
        },
        {
          "indexed": false,
          "name": "toId",
          "type": "uint256"
        },
        {
          "indexed": false,
          "name": "value",
          "type": "uint256"
        }
      ],
      "name": "CApproveFrom",
      "type": "event"
    },
    {
      "anonymous": false,
      "inputs": [
        {
          "indexed": false,
          "name": "spender",
          "type": "address"
        },
        {
          "indexed": false,
          "name": "value",
          "type": "uint256"
        }
      ],
      "name": "CApprove",
      "type": "event"
    },
    {
      "anonymous": false,
      "inputs": [
        {
          "indexed": false,
          "name": "from",
          "type": "address"
        },
        {
          "indexed": false,
          "name": "fromId",
          "type": "uint256"
        },
        {
          "indexed": false,
          "name": "to",
          "type": "address"
        },
        {
          "indexed": false,
          "name": "toId",
          "type": "uint256"
        },
        {
          "indexed": false,
          "name": "value",
          "type": "uint256"
        },
        {
          "indexed": false,
          "name": "allowance",
          "type": "uint256"
        }
      ],
      "name": "CTransferFrom",
      "type": "event"
    },
    {
      "anonymous": false,
      "inputs": [
        {
          "indexed": false,
          "name": "to",
          "type": "address"
        },
        {
          "indexed": false,
          "name": "toId",
          "type": "uint256"
        },
        {
          "indexed": false,
          "name": "amount",
          "type": "uint256"
        }
      ],
      "name": "CIssue",
      "type": "event"
    },
    {
      "anonymous": false,
      "inputs": [
        {
          "indexed": false,
          "name": "from",
          "type": "address"
        },
        {
          "indexed": false,
          "name": "fromId",
          "type": "uint256"
        },
        {
          "indexed": false,
          "name": "amount",
          "type": "uint256"
        }
      ],
      "name": "CDestroy",
      "type": "event"
    },
    {
      "anonymous": false,
      "inputs": [
        {
          "indexed": false,
          "name": "from",
          "type": "address"
        },
        {
          "indexed": false,
          "name": "to",
          "type": "address"
        },
        {
          "indexed": false,
          "name": "tokenId",
          "type": "uint256"
        }
      ],
      "name": "Transfer",
      "type": "event"
    },
    {
      "anonymous": false,
      "inputs": [
        {
          "indexed": false,
          "name": "owner",
          "type": "address"
        },
        {
          "indexed": false,
          "name": "approved",
          "type": "address"
        },
        {
          "indexed": false,
          "name": "tokenId",
          "type": "uint256"
        }
      ],
      "name": "Approval",
      "type": "event"
    },
    {
      "anonymous": false,
      "inputs": [
        {
          "indexed": false,
          "name": "value",
          "type": "uint256"
        },
        {
          "indexed": false,
          "name": "metadata",
          "type": "string"
        },
        {
          "indexed": false,
          "name": "kind",
          "type": "uint256"
        },
        {
          "indexed": false,
          "name": "owner",
          "type": "address"
        }
      ],
      "name": "Birth",
      "type": "event"
    }
  ],
  "bytecode": "0x606060405234156200001057600080fd5b60405162001ea138038062001ea18339810160405280805182019190602001805160028054600160a060020a03191633600160a060020a03161790559190910190508181600082805162000069929160200190620000a6565b5060018180516200007f929160200190620000a6565b5050600a8054600160a060020a03191633600160a060020a0316179055506200014b915050565b828054600181600116156101000203166002900490600052602060002090601f016020900481019282601f10620000e957805160ff191683800117855562000119565b8280016001018555821562000119579182015b8281111562000119578251825591602001919060010190620000fc565b50620001279291506200012b565b5090565b6200014891905b8082111562000127576000815560010162000132565b90565b611d46806200015b6000396000f3006060604052600436106101a05763ffffffff7c010000000000000000000000000000000000000000000000000000000060003504166301ffc9a781146101a557806306fdde03146101f1578063095ea7b31461027b57806318160ddd1461029f5780631d36e06c146102c457806323b872dd146102f6578063296250051461031e57806332c4ee831461034357806339e6cdb1146103655780634cabcfac14610387578063545c3d55146103ac5780636352211e146103d157806366d80ba5146103e75780636914db601461040957806370a082311461041f57806379ba50971461043e5780638462151c146104515780638da5cb5b146104c35780638f1fc77c146104d657806395d89b41146104e957806398dc5c95146104fc578063a8bd9c3214610524578063a9059cbb1461053a578063b121f2ac1461055c578063b13570791461057e578063bf6226651461059d578063cadf338f146105c5578063cbbc9f89146105db578063d4ee1d9014610600578063dd62ed3e14610613578063e527cc9d14610638578063f2fde38b1461065d578063f81fd7ea1461067c575b600080fd5b34156101b057600080fd5b6101dd7fffffffff00000000000000000000000000000000000000000000000000000000600435166106a1565b604051901515815260200160405180910390f35b34156101fc57600080fd5b61020461097a565b60405160208082528190810183818151815260200191508051906020019080838360005b83811015610240578082015183820152602001610228565b50505050905090810190601f16801561026d5780820380516001836020036101000a031916815260200191505b509250505060405180910390f35b341561028657600080fd5b61029d600160a060020a0360043516602435610a22565b005b34156102aa57600080fd5b6102b2610a95565b60405190815260200160405180910390f35b34156102cf57600080fd5b6102da600435610aad565b604051600160a060020a03909116815260200160405180910390f35b341561030157600080fd5b61029d600160a060020a0360043581169060243516604435610ac8565b341561032957600080fd5b61029d600160a060020a0360043516602435604435610b38565b341561034e57600080fd5b6101dd600160a060020a0360043516602435610be8565b341561037057600080fd5b61029d600160a060020a0360043516602435610ce6565b341561039257600080fd5b61029d600160a060020a0360043516602435604435610da2565b34156103b757600080fd5b61029d600160a060020a0360043516602435604435610e50565b34156103dc57600080fd5b6102da600435610efe565b34156103f257600080fd5b6101dd600160a060020a0360043516602435610f22565b341561041457600080fd5b610204600435610f5b565b341561042a57600080fd5b6102b2600160a060020a0360043516611022565b341561044957600080fd5b61029d61103d565b341561045c57600080fd5b610470600160a060020a03600435166110cb565b60405160208082528190810183818151815260200191508051906020019060200280838360005b838110156104af578082015183820152602001610497565b505050509050019250505060405180910390f35b34156104ce57600080fd5b6102da6110dc565b34156104e157600080fd5b6102b26110eb565b34156104f457600080fd5b610204611132565b341561050757600080fd5b6101dd600435600160a060020a03602435166044356064356111a5565b341561052f57600080fd5b6102da6004356112a0565b341561054557600080fd5b61029d600160a060020a03600435166024356112bb565b341561056757600080fd5b6102b2600160a060020a0360043516602435611315565b341561058957600080fd5b6102b2600160a060020a0360043516611354565b34156105a857600080fd5b6101dd600160a060020a03600435811690602435166044356113cd565b34156105d057600080fd5b6102b26004356115a4565b34156105e657600080fd5b6102b2600160a060020a03600435811690602435166115ce565b341561060b57600080fd5b6102da6115eb565b341561061e57600080fd5b6102b2600160a060020a03600435811690602435166115fa565b341561064357600080fd5b6102b2600160a060020a0360043581169060243516611617565b341561066857600080fd5b61029d600160a060020a0360043516611634565b341561068757600080fd5b6102b2600160a060020a0360043581169060243516611696565b60006040517f737570706f727473496e74657266616365286279746573342900000000000000815260190160405180910390207bffffffffffffffffffffffffffffffffffffffffffffffffffffffff1916827bffffffffffffffffffffffffffffffffffffffffffffffffffffffff1916148061097457506040517f746f6b656e4d657461646174612875696e743235362c737472696e67290000008152601d0160405180910390206040517f746f6b656e734f664f776e657228616464726573732900000000000000000000815260160160405180910390206040517f7472616e7366657246726f6d28616464726573732c616464726573732c75696e81527f7432353629000000000000000000000000000000000000000000000000000000602082015260250160405180910390206040517f7472616e7366657228616464726573732c75696e743235362900000000000000815260190160405180910390206040517f617070726f766528616464726573732c75696e74323536290000000000000000815260180160405180910390206040517f6f776e65724f662875696e743235362900000000000000000000000000000000815260100160405180910390206040517f62616c616e63654f662861646472657373290000000000000000000000000000815260120160405180910390206040517f746f74616c537570706c792829000000000000000000000000000000000000008152600d0160405180910390206040517f73796d626f6c2829000000000000000000000000000000000000000000000000815260080160405180910390206040517f6e616d6528290000000000000000000000000000000000000000000000000000815260060160405180910390201818181818181818187bffffffffffffffffffffffffffffffffffffffffffffffffffffffff1916827bffffffffffffffffffffffffffffffffffffffffffffffffffffffff1916145b92915050565b610982611d08565b60008054600181600116156101000203166002900480601f016020809104026020016040519081016040528092919081815260200182805460018160011615610100020316600290048015610a185780601f106109ed57610100808354040283529160200191610a18565b820191906000526020600020905b8154815290600101906020018083116109fb57829003601f168201915b5050505050905090565b610a2c33826116ee565b1515610a3757600080fd5b610a41818361170e565b7f8c5be1e5ebec7d5bd14f71427d1e84f3dd0314c0f7b2291e5b200ac8c7c3b925338383604051600160a060020a039384168152919092166020820152604080820192909252606001905180910390a15050565b60035460009081811115610aa857600019015b919050565b600460205260009081526040902054600160a060020a031681565b600160a060020a0382161515610add57600080fd5b30600160a060020a031682600160a060020a031614151515610afe57600080fd5b610b083382611749565b1515610b1357600080fd5b610b1d83826116ee565b1515610b2857600080fd5b610b33838383611769565b505050565b600a5433600160a060020a03908116911614610b5057fe5b610b5a83836116ee565b1515610b6557600080fd5b80600383815481101515610b7557fe5b9060005260206000209060050201600301819055507f48ed1b5769aee6cf16cda3da1db2a0acf83c194c9d2a98ebeff4904567af58f68383836040518084600160a060020a0316600160a060020a03168152602001838152602001828152602001935050505060405180910390a1505050565b6000808080600160a060020a0386161515610c0257600080fd5b841515610c0e57600080fd5b339250610c1a83611887565b9150610c2586611887565b905081811415610c3457600080fd5b811515610c4057600080fd5b801515610c4c57600080fd5b600160a060020a038381166000818152600860209081526040808320948b168084529482528083208690559282528282208690556009815282822093825292909252908190208690557fe051949e9a44e2e9c21ee7d1c7b03ef0bf501aa3b7c4616a8543f229c0bede7a908790879051600160a060020a03909216825260208201526040908101905180910390a150600195945050505050565b600a5433600160a060020a03908116911614610cfe57fe5b610d0882826116ee565b1515610d1357600080fd5b6003805482908110610d2157fe5b906000526020600020906005020160030154600101600382815481101515610d4557fe5b9060005260206000209060050201600301819055507fb6ffa2bc58069f160ac94855c396bc8a7c591ae4b9e69d78cc004ad2e4d70d858282604051600160a060020a03909216825260208201526040908101905180910390a15050565b6000600160a060020a0384161515610db957600080fd5b811515610dc557600080fd5b5081801515610dda57610dd784611887565b90505b801515610de657600080fd5b610df18482846118d3565b7f8ee078ba6dd38678f9ffdc8f1df2d512559df0cae2db32c829459127e10031978484846040518084600160a060020a0316600160a060020a03168152602001838152602001828152602001935050505060405180910390a150505050565b6000600160a060020a0384161515610e6757600080fd5b811515610e7357600080fd5b5081801515610e8857610e8584611887565b90505b801515610e9457600080fd5b610e9f8482846119c1565b7ff3d0e22890d929d2a1cd5ca9e5f6498c4271ce2f0223ab4092297c2d11c9ef758484846040518084600160a060020a0316600160a060020a03168152602001838152602001828152602001935050505060405180910390a150505050565b600081815260046020526040812054600160a060020a031680151561097457600080fd5b600080600160a060020a0384161515610f3a57600080fd5b821515610f4657600080fd5b5033610f538185856113cd565b949350505050565b610f63611d08565b6003805483908110610f7157fe5b90600052602060002090600502016001018054600181600116156101000203166002900480601f0160208091040260200160405190810160405280929190818152602001828054600181600116156101000203166002900480156110165780601f10610feb57610100808354040283529160200191611016565b820191906000526020600020905b815481529060010190602001808311610ff957829003601f168201915b50505050509050919050565b600160a060020a031660009081526005602052604090205490565b600b5433600160a060020a0390811691161461105857600080fd5b600b54600a54600160a060020a0391821691167f343765429aea5a34b3ff6a3785a98a5abb2597aca87bfbb58632c173d585373a60405160405180910390a3600b8054600a805473ffffffffffffffffffffffffffffffffffffffff19908116600160a060020a03841617909155169055565b6110d3611d08565b61097482611a83565b600a54600160a060020a031681565b600354600090819060015b8181101561112a57600380548290811061110c57fe5b600091825260209091206005909102015492909201916001016110f6565b509092915050565b61113a611d08565b60018054600181600116156101000203166002900480601f016020809104026020016040519081016040528092919081815260200182805460018160011615610100020316600290048015610a185780601f106109ed57610100808354040283529160200191610a18565b600080600160a060020a03851615156111bd57600080fd5b858414156111ca57600080fd5b8515156111d657600080fd5b8315156111e257600080fd5b8215156111ee57600080fd5b5033600160a060020a038181166000818152600860209081526040808320948a168084529482528083208990559282528282208a90556009815282822093825292909252908190208490557fef4beaa380feab20776f162f92bbf15b04c59f8fd4e8ab2508b8d29fed7dfd6190879087908790879051938452600160a060020a03909216602084015260408084019190915260608301919091526080909101905180910390a150600195945050505050565b600660205260009081526040902054600160a060020a031681565b600160a060020a03821615156112d057600080fd5b30600160a060020a031682600160a060020a0316141515156112f157600080fd5b6112fb33826116ee565b151561130657600080fd5b611311338383611769565b5050565b600061132183836116ee565b151561132c57600080fd5b600380548390811061133a57fe5b906000526020600020906005020160030154905092915050565b600061135e611d08565b600080600061136c86611a83565b93506000925083519150600090505b818110156113c357600384828151811061139157fe5b90602001906020020151815481106113a557fe5b6000918252602090912060059091020154929092019160010161137b565b5090949350505050565b600080808080600160a060020a03871615156113e857600080fd5b8515156113f457600080fd5b50505050600160a060020a038481166000818152600860209081526040808320948816808452948252808320549383528083205460098352818420958452949091529020548692908183141561144957600080fd5b82151561145557600080fd5b81151561146157600080fd5b80151561146d57600080fd5b8581101561147a57600080fd5b611487848389868a611b78565b600160a060020a038481166000908152600960209081526040808320938b1683529290522080548790039081905515156114ff57600160a060020a038481166000818152600960209081526040808320948c168084529482528083208390559282526008815282822090528181208190559182528120555b600160a060020a038085166000908152600960209081526040808320938b168352929052819020547fa085ba1c72fda1f13ecb6e0347284ac7d016a73b7a47c0ba151368bbe5ce2db9918a9185918b9188918c919051600160a060020a0396871681526020810195909552929094166040808501919091526060840191909152608083019390935260a082015260c001905180910390a1506001979650505050505050565b60006003828154811015156115b557fe5b9060005260206000209060050201600001549050919050565b600960209081526000928352604080842090915290825290205481565b600b54600160a060020a031681565b600760209081526000928352604080842090915290825290205481565b600860209081526000928352604080842090915290825290205481565b600a5433600160a060020a0390811691161461164c57fe5b600a54600160a060020a038281169116141561166757600080fd5b600b805473ffffffffffffffffffffffffffffffffffffffff1916600160a060020a0392909216919091179055565b6000600160a060020a03821615156116ad57600080fd5b600160a060020a03831615156116c257600080fd5b50600160a060020a03918216600090815260096020908152604080832093909416825291909152205490565b600090815260046020526040902054600160a060020a0391821691161490565b600091825260066020526040909120805473ffffffffffffffffffffffffffffffffffffffff1916600160a060020a03909216919091179055565b600090815260066020526040902054600160a060020a0391821691161490565b61040060038281548110151561177b57fe5b9060005260206000209060050201600401541415151561179757fe5b600160a060020a0380831660008181526005602090815260408083208054600101905585835260049091529020805473ffffffffffffffffffffffffffffffffffffffff1916909117905583161561183257600160a060020a0383166000908152600560209081526040808320805460001901905583835260069091529020805473ffffffffffffffffffffffffffffffffffffffff191690555b7fddf252ad1be2c89b69c2b068fc378daa952ba7f163c4a11628f55a4df523b3ef838383604051600160a060020a039384168152919092166020820152604080820192909252606001905180910390a1505050565b6000611891611d08565b600061189c84611a83565b9150815190508015156118b257600092506118cc565b816000815181106118bf57fe5b9060200190602002015192505b5050919050565b6118dd83836116ee565b15156118e857600080fd5b8015156118f457600080fd5b8060038381548110151561190457fe5b6000918252602090912060059091020154101561192057600080fd5b8060038381548110151561193057fe5b9060005260206000209060050201600001540360038381548110151561195257fe5b60009182526020909120600590910201557f45dacd427fd388bf162986dbc958cdcf160c31b40efe076907cff377b9857c798383836040518084600160a060020a0316600160a060020a03168152602001838152602001828152602001935050505060405180910390a1505050565b6119cb83836116ee565b15156119d657600080fd5b8015156119e257600080fd5b806003838154811015156119f257fe5b90600052602060002090600502016000015401600383815481101515611a1457fe5b60009182526020909120600590910201557f20f4934a3b4928cca0e51f3f1eaac12dee9af151a8a8ba5a424a89d93f6bf53d8383836040518084600160a060020a0316600160a060020a03168152602001838152602001828152602001935050505060405180910390a1505050565b611a8b611d08565b6000611a95611d08565b60008080600160a060020a0387161515611aae57600080fd5b611ab787611022565b9450841515611ae7576000604051805910611acf5750595b90808252806020026020018201604052509550611b6e565b84604051805910611af55750595b90808252806020026020018201604052509350611b10610a95565b925060009150600190505b828111611b6a57600081815260046020526040902054600160a060020a0388811691161415611b625780848380600101945081518110611b5757fe5b602090810290910101525b600101611b1b565b8395505b5050505050919050565b611b8285856116ee565b1515611b8d57600080fd5b611b9783836116ee565b1515611ba257600080fd5b801515611bae57600080fd5b83821415611bbb57600080fd5b80600385815481101515611bcb57fe5b60009182526020909120600590910201541015611be757600080fd5b610400600385815481101515611bf957fe5b90600052602060002090600502016004015414151515611c1857600080fd5b80600385815481101515611c2857fe5b90600052602060002090600502016000015403600385815481101515611c4a57fe5b60009182526020909120600590910201556003805482919084908110611c6c57fe5b90600052602060002090600502016000015401600383815481101515611c8e57fe5b60009182526020909120600590910201557f6d401b913d27047ecd2042f0331e2354d30e664920b31480dc71955edb996c388585858585604051600160a060020a0395861681526020810194909452919093166040808401919091526060830193909352608082015260a001905180910390a15050505050565b602060405190810160405260008152905600a165627a7a72305820d92a24435dc82394b0a156b86976cebe77e2a77d77e190d249aa2c6dee430f8b0029",
  "source": "// \n// MIT License\n// \n// Copyright (c) 2018 REGA Risk Sharing\n//   \n// Permission is hereby granted, free of charge, to any person obtaining a copy\n// of this software and associated documentation files (the \"Software\"), to deal\n// in the Software without restriction, including without limitation the rights\n// to use, copy, modify, merge, publish, distribute, sublicense, and/or sell\n// copies of the Software, and to permit persons to whom the Software is\n// furnished to do so, subject to the following conditions:\n// \n// The above copyright notice and this permission notice shall be included in all\n// copies or substantial portions of the Software.\n// \n// THE SOFTWARE IS PROVIDED \"AS IS\", WITHOUT WARRANTY OF ANY KIND, EXPRESS OR\n// IMPLIED, INCLUDING BUT NOT LIMITED TO THE WARRANTIES OF MERCHANTABILITY,\n// FITNESS FOR A PARTICULAR PURPOSE AND NONINFRINGEMENT. IN NO EVENT SHALL THE\n// AUTHORS OR COPYRIGHT HOLDERS BE LIABLE FOR ANY CLAIM, DAMAGES OR OTHER\n// LIABILITY, WHETHER IN AN ACTION OF CONTRACT, TORT OR OTHERWISE, ARISING FROM,\n// OUT OF OR IN CONNECTION WITH THE SOFTWARE OR THE USE OR OTHER DEALINGS IN THE\n// SOFTWARE.\n// \n// Author: Sergei Sevriugin\n// Version: 0.0.1\n//  \n\npragma solidity ^0.4.17;\n\nimport './ERC721.sol';\nimport './interfaces/IERC20.sol';\nimport './ERC20Controller.sol';\nimport './Owned.sol';\n\n/// ERC721SmartToken contract implements non-fungible tokens based on ERC721 standard that also supports ERC20 interface. \n/// The contract is subclass of ERC721, ERC20Controller and Owned contracts\n\n/// @dev All function calls are currently implement without side effects\ncontract ERC721SmartToken is ERC721, ERC20Controller, Owned() {\n    /// ERC721SmartToken Transfer event\n    /// @param from NFT token owner address \n    /// @param fromId NFT token ID for transfer\n    /// @param to token owner to recieve the value\n    /// @param toId NFT token ID to recieve the value\n    /// @param value transfered value\n    event Transfer(address from, uint256 fromId, address to, uint256 toId, uint256 value);\n    /// ERC721SmartToken AddValue event\n    /// @param to token owner to recieve the value\n    /// @param toId NFT token ID to recieve the value\n    /// @param value transfered value\n    event AddValue(address to, uint256 toId, uint256 value);\n    /// ERC721SmartToken RemoveValue event\n    /// @param from NFT token owner address\n    /// @param fromId NFT token ID to decrease the value\n    /// @param value value to decrease\n    event RemoveValue(address from, uint256 fromId, uint256 value);\n    /// ERC721SmartToken SetLevel event\n    /// @param to NFT token owner address\n    /// @param toId NFT token ID to set level\n    /// @param level new token level\n    event SetLevel(address to, uint256 toId, uint256 level);\n    /// ERC721SmartToken IncreaseLevel event\n    /// @param to NFT token owner address\n    /// @param toId NFT token ID to increase level\n    event IncreaseLevel(address to, uint256 toId);\n    /// ERC20Controller method\n    /// @dev return total supply of issued tokens\n    /// @return total supply\n    function cTotalSupply() public view returns (uint256) {\n        uint256 balance = uint256(0);\n        uint256 count = nfts.length;\n\n        for (uint256 id = 1; id < count; id++) {\n            balance = balance + nfts[id].value;\n        }\n        return balance;\n    }\n    /// ERC20Controller method\n    /// @dev return balance for specific address. Note that for each address there are numner of NFT tokens.\n    /// @param _owner owner address\n    /// @return total balance\n    function cBalanceOf(address _owner) public view returns (uint256) {\n        uint256[] memory tokenIds = _tokensOfOwner(_owner);\n        uint256 balance = uint256(0);\n        uint256 count = tokenIds.length;\n\n        for (uint256 i = 0; i < count; i++) {\n            balance = balance + nfts[tokenIds[i]].value;\n        }\n        return balance;\n    }\n    /// ERC20Controller helper\n    /// @dev transfer NFS token value from one (address, id) pair to another one \n    /// @param _from address to transfer value from\n    /// @param _fromId non-fungible token ID to transfer value from, must belong to address _from\n    /// @param _to address to transfer value to\n    /// @param _toId non-fungible token ID to transfer value to, must belong to address _to\n    /// @param _value value to transfer\n    function transfer(address _from, uint256 _fromId, address _to, uint256 _toId, uint256 _value) internal {\n        require(_owns(_from, _fromId));\n        require(_owns(_to, _toId));\n        require(_value != uint256(0));\n        require(_fromId != _toId);\n        require(nfts[_fromId].value >= _value);\n        require(nfts[_fromId].state != StateBlocked);\n\n        nfts[_fromId].value = nfts[_fromId].value - _value;\n        nfts[_toId].value = nfts[_toId].value + _value;\n\n        Transfer(_from, _fromId, _to, _toId, _value);\n    }\n    /// ERC20Controller helper\n    /// @dev return default NFT token ID for specific address\n    /// @param _owner owner address\n    /// @return default NFT token ID\n    function defaultId(address _owner) internal returns (uint256 id) {\n        uint256[] memory tokenIds = _tokensOfOwner(_owner);\n        uint256 count = tokenIds.length;\n        if (count == uint256(0)) {\n            return uint256(0);\n        }\n        return tokenIds[0];\n    }\n    /// ERC20Controller helper\n    /// @dev increase NFT token value\n    /// @param _to NFT token owner address\n    /// @param _toId NFT token ID that\n    /// @param _value value to add\n    function addValue(address _to, uint256 _toId, uint256 _value) internal {\n        require(_owns(_to, _toId));\n        require(_value != uint256(0));\n        nfts[_toId].value = nfts[_toId].value + _value;\n\n        AddValue(_to, _toId, _value);\n    }\n    /// ERC20Controller helper\n    /// @dev decrease NFT token value\n    /// @param _from NFT token owner address\n    /// @param _fromId NFT token ID that\n    /// @param _value value to decrease\n    function removeValue(address _from, uint256 _fromId, uint256 _value) internal {\n        require(_owns(_from, _fromId));\n        require(_value != uint256(0));\n        require(nfts[_fromId].value >= _value);\n        nfts[_fromId].value = nfts[_fromId].value - _value;\n\n        RemoveValue(_from, _fromId, _value);\n    }\n    /// ERC20Controller helper\n    /// @dev set level for NFT token\n    /// @param _to NFT token owner address\n    /// @param _toId NFT token ID that\n    /// @param _level level to set\n    function setLevel(address _to, uint256 _toId, uint256 _level) ownerOnly public {\n        require(_owns(_to, _toId));\n        nfts[_toId].level = _level;\n\n        SetLevel(_to, _toId, _level);\n    }\n    /// ERC20Controller helper\n    /// @dev increase level for NFT token for one \n    /// @param _to NFT token owner address\n    /// @param _toId NFT token ID that\n    function increaseLevel(address _to, uint256 _toId) ownerOnly public {\n        require(_owns(_to, _toId));\n        nfts[_toId].level = nfts[_toId].level + 1;\n\n        IncreaseLevel(_to, _toId);\n    }\n    /// ERC20Controller helper\n    /// @dev return current level for NFT token\n    /// @param _to NFT token owner address\n    /// @param _toId NFT token ID that\n    /// @return NFT level\n    function getLevel(address _to, uint256 _toId) public view returns (uint256) {\n        require(_owns(_to, _toId));\n        return nfts[_toId].level;\n    }\n    /// Constructor\n    /// @dev calls ERC721 constructor \n    /// @param _name NFT token name\n    /// @param _symbol NFT token symbol\n    function ERC721SmartToken(string _name, string _symbol) ERC721(_name, _symbol) public {}\n}\n",
  "sourcePath": "/Users/sergei/LuggageCrowdsurance/contracts/ERC721SmartToken.sol",
  "compiler": {
    "name": "solc",
    "version": "0.4.18+commit.9cf6e910.Emscripten.clang"
  },
  "schemaVersion": "1.0.1",
  "updatedAt": "2018-05-17T07:17:23.882Z"
}