{
  "contractName": "ERC721",
  "abi": [
    {
      "constant": true,
      "inputs": [
        {
          "name": "_interfaceID",
          "type": "bytes4"
        }
      ],
      "name": "supportsInterface",
      "outputs": [
        {
          "name": "",
          "type": "bool"
        }
      ],
      "payable": false,
      "stateMutability": "view",
      "type": "function"
    },
    {
      "constant": true,
      "inputs": [],
      "name": "name",
      "outputs": [
        {
          "name": "",
          "type": "string"
        }
      ],
      "payable": false,
      "stateMutability": "view",
      "type": "function"
    },
    {
      "constant": false,
      "inputs": [
        {
          "name": "_to",
          "type": "address"
        },
        {
          "name": "_tokenId",
          "type": "uint256"
        }
      ],
      "name": "approve",
      "outputs": [],
      "payable": false,
      "stateMutability": "nonpayable",
      "type": "function"
    },
    {
      "constant": true,
      "inputs": [],
      "name": "totalSupply",
      "outputs": [
        {
          "name": "",
          "type": "uint256"
        }
      ],
      "payable": false,
      "stateMutability": "view",
      "type": "function"
    },
    {
      "constant": true,
      "inputs": [
        {
          "name": "",
          "type": "uint256"
        }
      ],
      "name": "tokenIndexToOwner",
      "outputs": [
        {
          "name": "",
          "type": "address"
        }
      ],
      "payable": false,
      "stateMutability": "view",
      "type": "function"
    },
    {
      "constant": false,
      "inputs": [
        {
          "name": "_from",
          "type": "address"
        },
        {
          "name": "_to",
          "type": "address"
        },
        {
          "name": "_tokenId",
          "type": "uint256"
        }
      ],
      "name": "transferFrom",
      "outputs": [],
      "payable": false,
      "stateMutability": "nonpayable",
      "type": "function"
    },
    {
      "constant": true,
      "inputs": [
        {
          "name": "_tokenId",
          "type": "uint256"
        }
      ],
      "name": "ownerOf",
      "outputs": [
        {
          "name": "",
          "type": "address"
        }
      ],
      "payable": false,
      "stateMutability": "view",
      "type": "function"
    },
    {
      "constant": true,
      "inputs": [
        {
          "name": "_tokenId",
          "type": "uint256"
        }
      ],
      "name": "tokenMetadata",
      "outputs": [
        {
          "name": "infoUrl",
          "type": "string"
        }
      ],
      "payable": false,
      "stateMutability": "view",
      "type": "function"
    },
    {
      "constant": true,
      "inputs": [
        {
          "name": "_owner",
          "type": "address"
        }
      ],
      "name": "balanceOf",
      "outputs": [
        {
          "name": "count",
          "type": "uint256"
        }
      ],
      "payable": false,
      "stateMutability": "view",
      "type": "function"
    },
    {
      "constant": true,
      "inputs": [
        {
          "name": "_owner",
          "type": "address"
        }
      ],
      "name": "tokensOfOwner",
      "outputs": [
        {
          "name": "ownerTokens",
          "type": "uint256[]"
        }
      ],
      "payable": false,
      "stateMutability": "view",
      "type": "function"
    },
    {
      "constant": true,
      "inputs": [],
      "name": "owner",
      "outputs": [
        {
          "name": "",
          "type": "address"
        }
      ],
      "payable": false,
      "stateMutability": "view",
      "type": "function"
    },
    {
      "constant": true,
      "inputs": [],
      "name": "symbol",
      "outputs": [
        {
          "name": "",
          "type": "string"
        }
      ],
      "payable": false,
      "stateMutability": "view",
      "type": "function"
    },
    {
      "constant": true,
      "inputs": [
        {
          "name": "",
          "type": "uint256"
        }
      ],
      "name": "tokenIndexToApproved",
      "outputs": [
        {
          "name": "",
          "type": "address"
        }
      ],
      "payable": false,
      "stateMutability": "view",
      "type": "function"
    },
    {
      "constant": false,
      "inputs": [
        {
          "name": "_to",
          "type": "address"
        },
        {
          "name": "_tokenId",
          "type": "uint256"
        }
      ],
      "name": "transfer",
      "outputs": [],
      "payable": false,
      "stateMutability": "nonpayable",
      "type": "function"
    },
    {
      "constant": true,
      "inputs": [
        {
          "name": "_tokenId",
          "type": "uint256"
        }
      ],
      "name": "valueOf",
      "outputs": [
        {
          "name": "value",
          "type": "uint256"
        }
      ],
      "payable": false,
      "stateMutability": "view",
      "type": "function"
    },
    {
      "constant": true,
      "inputs": [
        {
          "name": "",
          "type": "address"
        },
        {
          "name": "",
          "type": "address"
        }
      ],
      "name": "allowance",
      "outputs": [
        {
          "name": "",
          "type": "uint256"
        }
      ],
      "payable": false,
      "stateMutability": "view",
      "type": "function"
    },
    {
      "inputs": [
        {
          "name": "_n",
          "type": "string"
        },
        {
          "name": "_s",
          "type": "string"
        }
      ],
      "payable": false,
      "stateMutability": "nonpayable",
      "type": "constructor"
    },
    {
      "anonymous": false,
      "inputs": [
        {
          "indexed": false,
          "name": "from",
          "type": "address"
        },
        {
          "indexed": false,
          "name": "to",
          "type": "address"
        },
        {
          "indexed": false,
          "name": "tokenId",
          "type": "uint256"
        }
      ],
      "name": "Transfer",
      "type": "event"
    },
    {
      "anonymous": false,
      "inputs": [
        {
          "indexed": false,
          "name": "owner",
          "type": "address"
        },
        {
          "indexed": false,
          "name": "approved",
          "type": "address"
        },
        {
          "indexed": false,
          "name": "tokenId",
          "type": "uint256"
        }
      ],
      "name": "Approval",
      "type": "event"
    },
    {
      "anonymous": false,
      "inputs": [
        {
          "indexed": false,
          "name": "value",
          "type": "uint256"
        },
        {
          "indexed": false,
          "name": "metadata",
          "type": "string"
        },
        {
          "indexed": false,
          "name": "kind",
          "type": "uint256"
        },
        {
          "indexed": false,
          "name": "owner",
          "type": "address"
        }
      ],
      "name": "Birth",
      "type": "event"
    }
  ],
  "bytecode": "0x6060604052341561000f57600080fd5b604051610e99380380610e998339810160405280805182019190602001805160028054600160a060020a03191633600160a060020a0316179055919091019050600082805161006292916020019061007e565b50600181805161007692916020019061007e565b505050610119565b828054600181600116156101000203166002900490600052602060002090601f016020900481019282601f106100bf57805160ff19168380011785556100ec565b828001600101855582156100ec579182015b828111156100ec5782518255916020019190600101906100d1565b506100f89291506100fc565b5090565b61011691905b808211156100f85760008155600101610102565b90565b610d71806101286000396000f3006060604052600436106100e55763ffffffff7c010000000000000000000000000000000000000000000000000000000060003504166301ffc9a781146100ea57806306fdde0314610136578063095ea7b3146101c057806318160ddd146101e45780631d36e06c1461020957806323b872dd1461023b5780636352211e146102635780636914db601461027957806370a082311461028f5780638462151c146102ae5780638da5cb5b1461032057806395d89b4114610333578063a8bd9c3214610346578063a9059cbb1461035c578063cadf338f1461037e578063dd62ed3e14610394575b600080fd5b34156100f557600080fd5b6101227fffffffff00000000000000000000000000000000000000000000000000000000600435166103b9565b604051901515815260200160405180910390f35b341561014157600080fd5b610149610692565b60405160208082528190810183818151815260200191508051906020019080838360005b8381101561018557808201518382015260200161016d565b50505050905090810190601f1680156101b25780820380516001836020036101000a031916815260200191505b509250505060405180910390f35b34156101cb57600080fd5b6101e2600160a060020a036004351660243561073a565b005b34156101ef57600080fd5b6101f76107ad565b60405190815260200160405180910390f35b341561021457600080fd5b61021f6004356107c5565b604051600160a060020a03909116815260200160405180910390f35b341561024657600080fd5b6101e2600160a060020a03600435811690602435166044356107e0565b341561026e57600080fd5b61021f600435610850565b341561028457600080fd5b610149600435610874565b341561029a57600080fd5b6101f7600160a060020a036004351661093b565b34156102b957600080fd5b6102cd600160a060020a0360043516610956565b60405160208082528190810183818151815260200191508051906020019060200280838360005b8381101561030c5780820151838201526020016102f4565b505050509050019250505060405180910390f35b341561032b57600080fd5b61021f610967565b341561033e57600080fd5b610149610976565b341561035157600080fd5b61021f6004356109e9565b341561036757600080fd5b6101e2600160a060020a0360043516602435610a04565b341561038957600080fd5b6101f7600435610a5e565b341561039f57600080fd5b6101f7600160a060020a0360043581169060243516610a88565b60006040517f737570706f727473496e74657266616365286279746573342900000000000000815260190160405180910390207bffffffffffffffffffffffffffffffffffffffffffffffffffffffff1916827bffffffffffffffffffffffffffffffffffffffffffffffffffffffff1916148061068c57506040517f746f6b656e4d657461646174612875696e743235362c737472696e67290000008152601d0160405180910390206040517f746f6b656e734f664f776e657228616464726573732900000000000000000000815260160160405180910390206040517f7472616e7366657246726f6d28616464726573732c616464726573732c75696e81527f7432353629000000000000000000000000000000000000000000000000000000602082015260250160405180910390206040517f7472616e7366657228616464726573732c75696e743235362900000000000000815260190160405180910390206040517f617070726f766528616464726573732c75696e74323536290000000000000000815260180160405180910390206040517f6f776e65724f662875696e743235362900000000000000000000000000000000815260100160405180910390206040517f62616c616e63654f662861646472657373290000000000000000000000000000815260120160405180910390206040517f746f74616c537570706c792829000000000000000000000000000000000000008152600d0160405180910390206040517f73796d626f6c2829000000000000000000000000000000000000000000000000815260080160405180910390206040517f6e616d6528290000000000000000000000000000000000000000000000000000815260060160405180910390201818181818181818187bffffffffffffffffffffffffffffffffffffffffffffffffffffffff1916827bffffffffffffffffffffffffffffffffffffffffffffffffffffffff1916145b92915050565b61069a610d33565b60008054600181600116156101000203166002900480601f0160208091040260200160405190810160405280929190818152602001828054600181600116156101000203166002900480156107305780601f1061070557610100808354040283529160200191610730565b820191906000526020600020905b81548152906001019060200180831161071357829003601f168201915b5050505050905090565b6107443382610aa5565b151561074f57600080fd5b6107598183610ac5565b7f8c5be1e5ebec7d5bd14f71427d1e84f3dd0314c0f7b2291e5b200ac8c7c3b925338383604051600160a060020a039384168152919092166020820152604080820192909252606001905180910390a15050565b600354600090818111156107c057600019015b919050565b600460205260009081526040902054600160a060020a031681565b600160a060020a03821615156107f557600080fd5b30600160a060020a031682600160a060020a03161415151561081657600080fd5b6108203382610b00565b151561082b57600080fd5b6108358382610aa5565b151561084057600080fd5b61084b838383610b20565b505050565b600081815260046020526040812054600160a060020a031680151561068c57600080fd5b61087c610d33565b600380548390811061088a57fe5b90600052602060002090600502016001018054600181600116156101000203166002900480601f01602080910402602001604051908101604052809291908181526020018280546001816001161561010002031660029004801561092f5780601f106109045761010080835404028352916020019161092f565b820191906000526020600020905b81548152906001019060200180831161091257829003601f168201915b50505050509050919050565b600160a060020a031660009081526005602052604090205490565b61095e610d33565b61068c82610c3e565b600254600160a060020a031681565b61097e610d33565b60018054600181600116156101000203166002900480601f0160208091040260200160405190810160405280929190818152602001828054600181600116156101000203166002900480156107305780601f1061070557610100808354040283529160200191610730565b600660205260009081526040902054600160a060020a031681565b600160a060020a0382161515610a1957600080fd5b30600160a060020a031682600160a060020a031614151515610a3a57600080fd5b610a443382610aa5565b1515610a4f57600080fd5b610a5a338383610b20565b5050565b6000600382815481101515610a6f57fe5b9060005260206000209060050201600001549050919050565b600760209081526000928352604080842090915290825290205481565b600090815260046020526040902054600160a060020a0391821691161490565b600091825260066020526040909120805473ffffffffffffffffffffffffffffffffffffffff1916600160a060020a03909216919091179055565b600090815260066020526040902054600160a060020a0391821691161490565b610400600382815481101515610b3257fe5b90600052602060002090600502016004015414151515610b4e57fe5b600160a060020a0380831660008181526005602090815260408083208054600101905585835260049091529020805473ffffffffffffffffffffffffffffffffffffffff19169091179055831615610be957600160a060020a0383166000908152600560209081526040808320805460001901905583835260069091529020805473ffffffffffffffffffffffffffffffffffffffff191690555b7fddf252ad1be2c89b69c2b068fc378daa952ba7f163c4a11628f55a4df523b3ef838383604051600160a060020a039384168152919092166020820152604080820192909252606001905180910390a1505050565b610c46610d33565b6000610c50610d33565b60008080600160a060020a0387161515610c6957600080fd5b610c728761093b565b9450841515610ca2576000604051805910610c8a5750595b90808252806020026020018201604052509550610d29565b84604051805910610cb05750595b90808252806020026020018201604052509350610ccb6107ad565b925060009150600190505b828111610d2557600081815260046020526040902054600160a060020a0388811691161415610d1d5780848380600101945081518110610d1257fe5b602090810290910101525b600101610cd6565b8395505b5050505050919050565b602060405190810160405260008152905600a165627a7a72305820f3dcbbfcf2eeda711a793dcf4e35cf36c387d55d7272fc024ee738ff28eb578b0029",
  "source": "// \n// MIT License\n// \n// Copyright (c) 2018 REGA Risk Sharing\n//   \n// Permission is hereby granted, free of charge, to any person obtaining a copy\n// of this software and associated documentation files (the \"Software\"), to deal\n// in the Software without restriction, including without limitation the rights\n// to use, copy, modify, merge, publish, distribute, sublicense, and/or sell\n// copies of the Software, and to permit persons to whom the Software is\n// furnished to do so, subject to the following conditions:\n// \n// The above copyright notice and this permission notice shall be included in all\n// copies or substantial portions of the Software.\n// \n// THE SOFTWARE IS PROVIDED \"AS IS\", WITHOUT WARRANTY OF ANY KIND, EXPRESS OR\n// IMPLIED, INCLUDING BUT NOT LIMITED TO THE WARRANTIES OF MERCHANTABILITY,\n// FITNESS FOR A PARTICULAR PURPOSE AND NONINFRINGEMENT. IN NO EVENT SHALL THE\n// AUTHORS OR COPYRIGHT HOLDERS BE LIABLE FOR ANY CLAIM, DAMAGES OR OTHER\n// LIABILITY, WHETHER IN AN ACTION OF CONTRACT, TORT OR OTHERWISE, ARISING FROM,\n// OUT OF OR IN CONNECTION WITH THE SOFTWARE OR THE USE OR OTHER DEALINGS IN THE\n// SOFTWARE.\n// \n// Author: Sergei Sevriugin\n// Version: 0.0.1\n//\n\npragma solidity ^0.4.17;\n\nimport './interfaces/IERC721.sol';\n\n/// ERC721 non-fungible token\ncontract ERC721 is IERC721 {\n    /// @dev token name and symbol\n    string _name; \n    /// @dev token symbol\n    string _symbol;\n    /// @dev stateBlocked\n    uint256 constant StateBlocked = uint256(1024);\n    /// @dev interface signature ERC165\n    bytes4 constant InterfaceSignature_ERC165 =\n        bytes4(keccak256(\"supportsInterface(bytes4)\"));\n    /// @dev interface signature ERC721\n    bytes4 constant InterfaceSignature_ERC721 =\n        bytes4(keccak256(\"name()\")) ^\n        bytes4(keccak256(\"symbol()\")) ^\n        bytes4(keccak256(\"totalSupply()\")) ^\n        bytes4(keccak256(\"balanceOf(address)\")) ^\n        bytes4(keccak256(\"ownerOf(uint256)\")) ^\n        bytes4(keccak256(\"approve(address,uint256)\")) ^\n        bytes4(keccak256(\"transfer(address,uint256)\")) ^\n        bytes4(keccak256(\"transferFrom(address,address,uint256)\")) ^\n        bytes4(keccak256(\"tokensOfOwner(address)\")) ^\n        bytes4(keccak256(\"tokenMetadata(uint256,string)\"));\n    /// @dev NFT token data : value, metadata, kind, level and state\n    /// @param value ERC20 token value\n    /// @param metadata NFT metadata\n    /// @param kind NFT token type / kind\n    /// @param level NFT token level\n    /// @param state token state\n    struct NFT {\n        uint256 value;          // NFT value \n        string  metadata;       // ... metadata: IPFS path\n        uint256 kind;           // ... type\n        uint256 level;          // ... activities level\n        uint256 state;          // ... state\n    }\n    /// @dev contract owner\n    address public owner;       // Smart contract owner\n    /// @dev NFT token array\n    NFT[] nfts;                 // tokens\n    /// owner address\n    mapping (uint256 => address) public tokenIndexToOwner;              // NFT ID --> owner address\n    /// NFT token owner\n    mapping (address => uint256) ownershipTokenCount;                   // owner address --> NFT index\n    /// new owner address\n    mapping (uint256 => address) public tokenIndexToApproved;           // case ID --> new owner approved address\n    /// allowance amount\n    mapping (address => mapping (address => uint256)) public allowance; // transfer allowance\n    /// ERC721 events\n    /// @dev transfer event\n    /// @param from address transfer from\n    /// @param to address transfer to\n    /// @param tokenId NFT token ID to transfer\n    event Transfer(address from, address to, uint256 tokenId);\n    /// ERC721 events\n    /// @dev approval event\n    /// @param owner NFT token owner address\n    /// @param approved address to approve\n    /// @param tokenId NFT token ID to approve\n    event Approval(address owner, address approved, uint256 tokenId);\n    /// ERC721 events\n    /// @dev birth event\n    /// @param value NFT token value\n    /// @param metadata NFT token metadata\n    /// @param kind NFT token kind\n    /// @param owner NFT token owner\n    event Birth(uint256 value, string  metadata, uint256 kind, address owner);\n    /// ERC721 Helpers\n    /// @dev transfer NFT token from one address to another\n    /// @param _from address to transfer from\n    /// @param _to address to transfer to\n    /// @param _tokenId NFT token ID to transfer\n    function _transfer(address _from, address _to, uint256 _tokenId) internal {\n\n        assert(nfts[_tokenId].state != StateBlocked);\n        \n        ownershipTokenCount[_to]++;\n        tokenIndexToOwner[_tokenId] = _to;\n\n        // _from == 0 for new NFT there is not any current owner\n        if (_from != address(0)) {\n            ownershipTokenCount[_from]--;\n            \n            delete tokenIndexToApproved[_tokenId];\n        }\n        // Fire event\n        Transfer(_from, _to, _tokenId);\n    }\n    /// ERC721 Helpers\n    /// @dev create new NFT token\n    /// @param _value NFT token value\n    /// @param _metadata NFT token metadata\n    /// @param _kind NFT token kind\n    /// @param _owner NFT token owner\n    function _createNFT(uint256 _value, string  _metadata, uint256 _kind, address _owner) internal returns (uint) {   \n        // allocate new NFT\n        NFT memory _nft = NFT({\n            value: _value,\n            metadata: _metadata,\n            kind: _kind,\n            level: uint256(0),\n            state: uint256(0)\n        });\n        // save new NFT in array and get token Id\n        uint256 newId = nfts.push(_nft) - 1; // push returns new array length, so caseId starts from 0\n        if (newId == uint32(0)) {\n            // we need to reserve index 0 as null, so let's push another copy and make it 1\n            newId = nfts.push(_nft) - 1;\n        }\n        require(newId == uint256(uint32(newId)));\n        // emit the birth event\n        Birth(_value, _metadata, _kind, _owner);\n        // transfer to the Owner\n        _transfer(0, _owner, newId);\n        // return new token Id > 0\n        return newId;\n    }\n    /// @dev if address is owner for the specific NFT token\n    /// @param _claimant address to check\n    /// @param _tokenId NFT token ID to check\n    /// @return TRUE is _claimant is _tokenId owner\n    function _owns(address _claimant, uint256 _tokenId) internal view returns (bool) {\n        return tokenIndexToOwner[_tokenId] == _claimant;\n    }\n    /// @dev check if NFT token is approved to specific address\n    /// @param _claimant address to check\n    /// @param _tokenId NFT address to check\n    /// @return TRUE is _claimant is approved for _tokenId\n    function _approvedFor(address _claimant, uint256 _tokenId) internal view returns (bool) {\n        return tokenIndexToApproved[_tokenId] == _claimant;\n    }\n    /// @dev approve address to the specific token\n    /// @param _tokenId NFT token ID to approve\n    /// @param _approved address to approve\n    function _approve(uint256 _tokenId, address _approved) internal {\n        tokenIndexToApproved[_tokenId] = _approved;\n    }\n    /// @dev NFT tokens for specific address\n    /// @param _owner owner address\n    /// @return array of NFT tokens belonging to the _owner\n    function _tokensOfOwner(address _owner) view internal returns(uint256[] ownerTokens) {\n        require(_owner != address(0));\n        uint256 tokenCount = balanceOf(_owner);\n        \n        if (tokenCount == 0) {\n            return new uint256[](0);    // Return an empty array\n        } else {\n            uint256[] memory result = new uint256[](tokenCount);\n            uint256 totalCases = totalSupply(); // totalSupply is cases.lenght -1, 0 index is reserved\n            uint256 resultIndex = 0;\n\n            for (uint256 id = 1; id <= totalCases; id++) {\n                if (tokenIndexToOwner[id] == _owner) {\n                    result[resultIndex++] = id;\n                }\n            }\n            return result;\n        }\n    }\n    /// ERC721 Public\n    /// @dev return token name\n    /// @return token name\n    function name() public view returns (string) {\n        return _name;\n    }\n    /// ERC721 Public\n    /// @dev return token symbol\n    /// @return token symbol\n    function symbol() public view returns (string) {\n        return _symbol;\n    }\n    /// ERC721 Public\n    /// @dev Check if interface is supported by smart contract\n    /// @param _interfaceID interface signature to check\n    /// @return TRUE is _interfaceID is supported \n    function supportsInterface(bytes4 _interfaceID) external view returns (bool) {\n        return ((_interfaceID == InterfaceSignature_ERC165) || (_interfaceID == InterfaceSignature_ERC721));\n    }\n    /// ERC721 Public\n    /// @dev Get number of NFT tokens for given owner address\n    /// @param _owner owner address \n    /// @return number of NFT for _owner\n    function balanceOf(address _owner) public view returns (uint256 count) {\n        return ownershipTokenCount[_owner];\n    }\n    /// ERC721 Public\n    /// @dev Get value of NFT token \n    /// @param _tokenId NFT token ID\n    /// @return value for _tokenId\n    function valueOf(uint256 _tokenId) public view returns (uint256 value) {\n        return nfts[_tokenId].value;\n    }\n    /// ERC721 Public\n    /// @dev transfer NFT token to new owner\n    /// @param _to new owner address\n    /// @param _tokenId NFT token ID to transfer\n    function transfer(address _to, uint256 _tokenId) external {\n        require(_to != address(0));\n        require(_to != address(this));\n\n        require(_owns(msg.sender, _tokenId));\n        _transfer(msg.sender, _to, _tokenId);\n    }\n    /// ERC721 Public\n    /// @dev approve transfer of NFT token to a new owner\n    /// @param _to new owner address to be approved \n    /// @param _tokenId NFT token ID to be approved\n    function approve(address _to, uint256 _tokenId) external {\n        require(_owns(msg.sender, _tokenId));\n\n        _approve(_tokenId, _to);\n        Approval(msg.sender, _to, _tokenId);\n    }\n    /// ERC721 Public\n    /// @dev transfer token from current owner to new one. The transfer must be approved before\n    /// @param _from curren owner address \n    /// @param _to new owner address to transfer\n    /// @param _tokenId NFT token ID to transfer\n    function transferFrom(address _from, address _to, uint256 _tokenId) external {\n        require(_to != address(0));\n        require(_to != address(this));\n        require(_approvedFor(msg.sender, _tokenId));\n        require(_owns(_from, _tokenId));\n\n        _transfer(_from, _to, _tokenId);\n    }\n    /// ERC721 Public\n    /// @dev Get total supply for NFT token \n    /// @return number of NFT issued\n    function totalSupply() public view returns (uint) {\n        uint result = nfts.length;\n        if (result > 0) {\n            result = result - 1;\n        }\n        return result;\n    }\n    /// ERC721 Public\n    /// @dev Get current NFT token owner address \n    /// @param _tokenId NFT token ID to get owner\n    /// @return address _tokenId owner \n    function ownerOf(uint256 _tokenId) external view returns (address) {\n        address _owner = tokenIndexToOwner[_tokenId];\n\n        require(_owner != address(0));\n        return _owner;\n    }\n    /// ERC721 Public\n    /// @dev Get all NFT tokens for owner address \n    /// @param _owner NFT owner address\n    /// @return array of NFT token IDs\n    function tokensOfOwner(address _owner) external view returns(uint256[] ownerTokens) {\n        return _tokensOfOwner(_owner);\n    }\n    /// ERC721 Public\n    /// @dev Get  NFT token metadate\n    /// @param _tokenId NFT ID to get metadata\n    /// @return metadata for _tokenId\n    function tokenMetadata(uint256 _tokenId) public constant returns (string infoUrl) {\n        return nfts[_tokenId].metadata;\n    }\n    /// ERC721 Public\n    /// @dev Constructor\n    /// @param _n NFT token name\n    /// @param _s NFT token symbol\n    function ERC721(string _n, string _s) public {\n        owner = msg.sender; _name = _n; _symbol = _s;\n    }\n}\n",
  "sourcePath": "/Users/sergei/LuggageCrowdsurance/contracts/ERC721.sol",
  "compiler": {
    "name": "solc",
    "version": "0.4.18+commit.9cf6e910.Emscripten.clang"
  },
  "schemaVersion": "1.0.1",
  "updatedAt": "2018-05-24T17:22:44.723Z"
}