{
  "contractName": "LCSToken",
  "abi": [
    {
      "constant": false,
      "inputs": [
        {
          "name": "_id",
          "type": "uint256"
        }
      ],
      "name": "insertPool",
      "outputs": [
        {
          "name": "",
          "type": "bool"
        }
      ],
      "payable": false,
      "stateMutability": "nonpayable",
      "type": "function"
    },
    {
      "constant": true,
      "inputs": [
        {
          "name": "_interfaceID",
          "type": "bytes4"
        }
      ],
      "name": "supportsInterface",
      "outputs": [
        {
          "name": "",
          "type": "bool"
        }
      ],
      "payable": false,
      "stateMutability": "view",
      "type": "function"
    },
    {
      "constant": true,
      "inputs": [],
      "name": "name",
      "outputs": [
        {
          "name": "",
          "type": "string"
        }
      ],
      "payable": false,
      "stateMutability": "view",
      "type": "function"
    },
    {
      "constant": false,
      "inputs": [
        {
          "name": "_to",
          "type": "address"
        },
        {
          "name": "_tokenId",
          "type": "uint256"
        }
      ],
      "name": "approve",
      "outputs": [],
      "payable": false,
      "stateMutability": "nonpayable",
      "type": "function"
    },
    {
      "constant": false,
      "inputs": [
        {
          "name": "_id",
          "type": "uint256"
        }
      ],
      "name": "castNegative",
      "outputs": [],
      "payable": false,
      "stateMutability": "nonpayable",
      "type": "function"
    },
    {
      "constant": true,
      "inputs": [
        {
          "name": "_id",
          "type": "uint256"
        }
      ],
      "name": "votingStatus",
      "outputs": [
        {
          "name": "votingEnded",
          "type": "bool"
        },
        {
          "name": "positive",
          "type": "uint8"
        },
        {
          "name": "negative",
          "type": "uint8"
        }
      ],
      "payable": false,
      "stateMutability": "view",
      "type": "function"
    },
    {
      "constant": false,
      "inputs": [
        {
          "name": "_nodeId",
          "type": "uint256"
        },
        {
          "name": "_parentId",
          "type": "uint256"
        }
      ],
      "name": "addToken",
      "outputs": [],
      "payable": false,
      "stateMutability": "nonpayable",
      "type": "function"
    },
    {
      "constant": true,
      "inputs": [],
      "name": "totalSupply",
      "outputs": [
        {
          "name": "",
          "type": "uint256"
        }
      ],
      "payable": false,
      "stateMutability": "view",
      "type": "function"
    },
    {
      "constant": true,
      "inputs": [],
      "name": "getAppID",
      "outputs": [
        {
          "name": "appId",
          "type": "uint256"
        }
      ],
      "payable": false,
      "stateMutability": "view",
      "type": "function"
    },
    {
      "constant": true,
      "inputs": [],
      "name": "getDistribution",
      "outputs": [
        {
          "name": "distribution",
          "type": "uint256[4]"
        }
      ],
      "payable": false,
      "stateMutability": "view",
      "type": "function"
    },
    {
      "constant": true,
      "inputs": [
        {
          "name": "",
          "type": "uint256"
        }
      ],
      "name": "tokenIndexToOwner",
      "outputs": [
        {
          "name": "",
          "type": "address"
        }
      ],
      "payable": false,
      "stateMutability": "view",
      "type": "function"
    },
    {
      "constant": true,
      "inputs": [],
      "name": "RST",
      "outputs": [
        {
          "name": "",
          "type": "address"
        }
      ],
      "payable": false,
      "stateMutability": "view",
      "type": "function"
    },
    {
      "constant": false,
      "inputs": [
        {
          "name": "_from",
          "type": "address"
        },
        {
          "name": "_to",
          "type": "address"
        },
        {
          "name": "_tokenId",
          "type": "uint256"
        }
      ],
      "name": "transferFrom",
      "outputs": [],
      "payable": false,
      "stateMutability": "nonpayable",
      "type": "function"
    },
    {
      "constant": false,
      "inputs": [
        {
          "name": "_to",
          "type": "address"
        },
        {
          "name": "_toId",
          "type": "uint256"
        },
        {
          "name": "_level",
          "type": "uint256"
        }
      ],
      "name": "setLevel",
      "outputs": [],
      "payable": false,
      "stateMutability": "nonpayable",
      "type": "function"
    },
    {
      "constant": false,
      "inputs": [
        {
          "name": "_spender",
          "type": "address"
        },
        {
          "name": "_value",
          "type": "uint256"
        }
      ],
      "name": "cApprove",
      "outputs": [
        {
          "name": "success",
          "type": "bool"
        }
      ],
      "payable": false,
      "stateMutability": "nonpayable",
      "type": "function"
    },
    {
      "constant": false,
      "inputs": [
        {
          "name": "_nodeId",
          "type": "uint256"
        }
      ],
      "name": "removeToken",
      "outputs": [],
      "payable": false,
      "stateMutability": "nonpayable",
      "type": "function"
    },
    {
      "constant": false,
      "inputs": [
        {
          "name": "_to",
          "type": "address"
        },
        {
          "name": "_toId",
          "type": "uint256"
        }
      ],
      "name": "increaseLevel",
      "outputs": [],
      "payable": false,
      "stateMutability": "nonpayable",
      "type": "function"
    },
    {
      "constant": true,
      "inputs": [
        {
          "name": "",
          "type": "address"
        }
      ],
      "name": "addressToAmount",
      "outputs": [
        {
          "name": "",
          "type": "uint256"
        }
      ],
      "payable": false,
      "stateMutability": "view",
      "type": "function"
    },
    {
      "constant": false,
      "inputs": [
        {
          "name": "_from",
          "type": "address"
        },
        {
          "name": "_fromId",
          "type": "uint256"
        },
        {
          "name": "_amount",
          "type": "uint256"
        }
      ],
      "name": "cDestroy",
      "outputs": [],
      "payable": false,
      "stateMutability": "nonpayable",
      "type": "function"
    },
    {
      "constant": true,
      "inputs": [],
      "name": "paybackRatio",
      "outputs": [
        {
          "name": "",
          "type": "uint8"
        }
      ],
      "payable": false,
      "stateMutability": "view",
      "type": "function"
    },
    {
      "constant": true,
      "inputs": [],
      "name": "getApplication",
      "outputs": [
        {
          "name": "member",
          "type": "address"
        },
        {
          "name": "appId",
          "type": "uint256"
        }
      ],
      "payable": false,
      "stateMutability": "view",
      "type": "function"
    },
    {
      "constant": true,
      "inputs": [],
      "name": "ETHOnly",
      "outputs": [
        {
          "name": "",
          "type": "bool"
        }
      ],
      "payable": false,
      "stateMutability": "view",
      "type": "function"
    },
    {
      "constant": false,
      "inputs": [
        {
          "name": "_to",
          "type": "address"
        },
        {
          "name": "_toId",
          "type": "uint256"
        },
        {
          "name": "_amount",
          "type": "uint256"
        }
      ],
      "name": "cIssue",
      "outputs": [],
      "payable": false,
      "stateMutability": "nonpayable",
      "type": "function"
    },
    {
      "constant": true,
      "inputs": [
        {
          "name": "_tokenId",
          "type": "uint256"
        }
      ],
      "name": "ownerOf",
      "outputs": [
        {
          "name": "",
          "type": "address"
        }
      ],
      "payable": false,
      "stateMutability": "view",
      "type": "function"
    },
    {
      "constant": false,
      "inputs": [
        {
          "name": "_to",
          "type": "address"
        },
        {
          "name": "_value",
          "type": "uint256"
        }
      ],
      "name": "cTransfer",
      "outputs": [
        {
          "name": "success",
          "type": "bool"
        }
      ],
      "payable": false,
      "stateMutability": "nonpayable",
      "type": "function"
    },
    {
      "constant": true,
      "inputs": [
        {
          "name": "_tokenId",
          "type": "uint256"
        }
      ],
      "name": "tokenMetadata",
      "outputs": [
        {
          "name": "infoUrl",
          "type": "string"
        }
      ],
      "payable": false,
      "stateMutability": "view",
      "type": "function"
    },
    {
      "constant": true,
      "inputs": [
        {
          "name": "_owner",
          "type": "address"
        }
      ],
      "name": "balanceOf",
      "outputs": [
        {
          "name": "count",
          "type": "uint256"
        }
      ],
      "payable": false,
      "stateMutability": "view",
      "type": "function"
    },
    {
      "constant": false,
      "inputs": [],
      "name": "acceptOwnership",
      "outputs": [],
      "payable": false,
      "stateMutability": "nonpayable",
      "type": "function"
    },
    {
      "constant": true,
      "inputs": [
        {
          "name": "",
          "type": "uint256"
        }
      ],
      "name": "requests",
      "outputs": [
        {
          "name": "amount",
          "type": "uint256"
        },
        {
          "name": "timeStamp",
          "type": "uint256"
        },
        {
          "name": "duration",
          "type": "uint256"
        },
        {
          "name": "positive",
          "type": "uint8"
        },
        {
          "name": "negative",
          "type": "uint8"
        },
        {
          "name": "number",
          "type": "uint8"
        }
      ],
      "payable": false,
      "stateMutability": "view",
      "type": "function"
    },
    {
      "constant": true,
      "inputs": [
        {
          "name": "_owner",
          "type": "address"
        }
      ],
      "name": "tokensOfOwner",
      "outputs": [
        {
          "name": "ownerTokens",
          "type": "uint256[]"
        }
      ],
      "payable": false,
      "stateMutability": "view",
      "type": "function"
    },
    {
      "constant": true,
      "inputs": [],
      "name": "parameters",
      "outputs": [
        {
          "name": "joinAmount",
          "type": "uint256"
        },
        {
          "name": "coverageDuration",
          "type": "uint256"
        },
        {
          "name": "maxClaimAmount",
          "type": "uint256"
        },
        {
          "name": "maxClaimNumber",
          "type": "uint8"
        },
        {
          "name": "paymentRatio",
          "type": "uint8"
        },
        {
          "name": "maxPaymentAmount",
          "type": "uint256"
        },
        {
          "name": "minJuriesNumber",
          "type": "uint8"
        },
        {
          "name": "votingDuration",
          "type": "uint256"
        },
        {
          "name": "juriesNumber",
          "type": "uint8"
        },
        {
          "name": "maxApplications",
          "type": "uint256"
        },
        {
          "name": "averageScore",
          "type": "uint256"
        }
      ],
      "payable": false,
      "stateMutability": "view",
      "type": "function"
    },
    {
      "constant": false,
      "inputs": [],
      "name": "transferCommission",
      "outputs": [],
      "payable": false,
      "stateMutability": "nonpayable",
      "type": "function"
    },
    {
      "constant": false,
      "inputs": [
        {
          "name": "_id",
          "type": "uint256"
        }
      ],
      "name": "payment",
      "outputs": [],
      "payable": false,
      "stateMutability": "nonpayable",
      "type": "function"
    },
    {
      "constant": true,
      "inputs": [],
      "name": "owner",
      "outputs": [
        {
          "name": "",
          "type": "address"
        }
      ],
      "payable": false,
      "stateMutability": "view",
      "type": "function"
    },
    {
      "constant": true,
      "inputs": [],
      "name": "cTotalSupply",
      "outputs": [
        {
          "name": "",
          "type": "uint256"
        }
      ],
      "payable": false,
      "stateMutability": "view",
      "type": "function"
    },
    {
      "constant": false,
      "inputs": [
        {
          "name": "_id",
          "type": "uint256"
        }
      ],
      "name": "getPayback",
      "outputs": [],
      "payable": false,
      "stateMutability": "nonpayable",
      "type": "function"
    },
    {
      "constant": true,
      "inputs": [],
      "name": "symbol",
      "outputs": [
        {
          "name": "",
          "type": "string"
        }
      ],
      "payable": false,
      "stateMutability": "view",
      "type": "function"
    },
    {
      "constant": false,
      "inputs": [
        {
          "name": "_fromId",
          "type": "uint256"
        },
        {
          "name": "_spender",
          "type": "address"
        },
        {
          "name": "_toId",
          "type": "uint256"
        },
        {
          "name": "_value",
          "type": "uint256"
        }
      ],
      "name": "cApproveFrom",
      "outputs": [
        {
          "name": "success",
          "type": "bool"
        }
      ],
      "payable": false,
      "stateMutability": "nonpayable",
      "type": "function"
    },
    {
      "constant": true,
      "inputs": [],
      "name": "maxHold",
      "outputs": [
        {
          "name": "",
          "type": "uint8"
        }
      ],
      "payable": false,
      "stateMutability": "view",
      "type": "function"
    },
    {
      "constant": true,
      "inputs": [
        {
          "name": "",
          "type": "uint256"
        }
      ],
      "name": "tokenIndexToPoolToken",
      "outputs": [
        {
          "name": "",
          "type": "uint256"
        }
      ],
      "payable": false,
      "stateMutability": "view",
      "type": "function"
    },
    {
      "constant": true,
      "inputs": [],
      "name": "getJoinAmount",
      "outputs": [
        {
          "name": "amount",
          "type": "uint256"
        }
      ],
      "payable": false,
      "stateMutability": "view",
      "type": "function"
    },
    {
      "constant": false,
      "inputs": [],
      "name": "fssf",
      "outputs": [],
      "payable": false,
      "stateMutability": "nonpayable",
      "type": "function"
    },
    {
      "constant": true,
      "inputs": [
        {
          "name": "",
          "type": "address"
        }
      ],
      "name": "voters",
      "outputs": [
        {
          "name": "",
          "type": "uint256"
        }
      ],
      "payable": false,
      "stateMutability": "view",
      "type": "function"
    },
    {
      "constant": true,
      "inputs": [
        {
          "name": "",
          "type": "uint256"
        }
      ],
      "name": "payback",
      "outputs": [
        {
          "name": "",
          "type": "uint256"
        }
      ],
      "payable": false,
      "stateMutability": "view",
      "type": "function"
    },
    {
      "constant": true,
      "inputs": [
        {
          "name": "",
          "type": "uint256"
        }
      ],
      "name": "tokenIndexToApproved",
      "outputs": [
        {
          "name": "",
          "type": "address"
        }
      ],
      "payable": false,
      "stateMutability": "view",
      "type": "function"
    },
    {
      "constant": false,
      "inputs": [
        {
          "name": "_to",
          "type": "address"
        },
        {
          "name": "_tokenId",
          "type": "uint256"
        }
      ],
      "name": "transfer",
      "outputs": [],
      "payable": false,
      "stateMutability": "nonpayable",
      "type": "function"
    },
    {
      "constant": true,
      "inputs": [],
      "name": "getScore",
      "outputs": [
        {
          "name": "score",
          "type": "uint256"
        }
      ],
      "payable": false,
      "stateMutability": "view",
      "type": "function"
    },
    {
      "constant": true,
      "inputs": [
        {
          "name": "_to",
          "type": "address"
        },
        {
          "name": "_toId",
          "type": "uint256"
        }
      ],
      "name": "getLevel",
      "outputs": [
        {
          "name": "",
          "type": "uint256"
        }
      ],
      "payable": false,
      "stateMutability": "view",
      "type": "function"
    },
    {
      "constant": false,
      "inputs": [
        {
          "name": "_id",
          "type": "uint256"
        },
        {
          "name": "_amount",
          "type": "uint256"
        }
      ],
      "name": "setPayback",
      "outputs": [
        {
          "name": "",
          "type": "bool"
        }
      ],
      "payable": false,
      "stateMutability": "nonpayable",
      "type": "function"
    },
    {
      "constant": true,
      "inputs": [
        {
          "name": "_owner",
          "type": "address"
        }
      ],
      "name": "cBalanceOf",
      "outputs": [
        {
          "name": "",
          "type": "uint256"
        }
      ],
      "payable": false,
      "stateMutability": "view",
      "type": "function"
    },
    {
      "constant": false,
      "inputs": [
        {
          "name": "_id",
          "type": "uint256"
        }
      ],
      "name": "activate",
      "outputs": [],
      "payable": false,
      "stateMutability": "nonpayable",
      "type": "function"
    },
    {
      "constant": false,
      "inputs": [],
      "name": "join",
      "outputs": [
        {
          "name": "cowdsuranceId",
          "type": "uint256"
        }
      ],
      "payable": true,
      "stateMutability": "payable",
      "type": "function"
    },
    {
      "constant": false,
      "inputs": [
        {
          "name": "_jury",
          "type": "address"
        },
        {
          "name": "_id",
          "type": "uint256"
        }
      ],
      "name": "addVoter",
      "outputs": [],
      "payable": false,
      "stateMutability": "nonpayable",
      "type": "function"
    },
    {
      "constant": true,
      "inputs": [],
      "name": "rstETHRate",
      "outputs": [
        {
          "name": "",
          "type": "uint256"
        }
      ],
      "payable": false,
      "stateMutability": "view",
      "type": "function"
    },
    {
      "constant": true,
      "inputs": [
        {
          "name": "",
          "type": "address"
        }
      ],
      "name": "addressToApplication",
      "outputs": [
        {
          "name": "",
          "type": "uint256"
        }
      ],
      "payable": false,
      "stateMutability": "view",
      "type": "function"
    },
    {
      "constant": false,
      "inputs": [
        {
          "name": "_from",
          "type": "address"
        },
        {
          "name": "_to",
          "type": "address"
        },
        {
          "name": "_value",
          "type": "uint256"
        }
      ],
      "name": "cTransferFrom",
      "outputs": [
        {
          "name": "success",
          "type": "bool"
        }
      ],
      "payable": false,
      "stateMutability": "nonpayable",
      "type": "function"
    },
    {
      "constant": true,
      "inputs": [
        {
          "name": "_member",
          "type": "address"
        },
        {
          "name": "_status",
          "type": "uint8"
        }
      ],
      "name": "statusCount",
      "outputs": [
        {
          "name": "count",
          "type": "uint256"
        }
      ],
      "payable": false,
      "stateMutability": "view",
      "type": "function"
    },
    {
      "constant": false,
      "inputs": [
        {
          "name": "_id",
          "type": "uint256"
        },
        {
          "name": "_claim",
          "type": "uint256"
        }
      ],
      "name": "claim",
      "outputs": [
        {
          "name": "",
          "type": "bool"
        }
      ],
      "payable": false,
      "stateMutability": "nonpayable",
      "type": "function"
    },
    {
      "constant": true,
      "inputs": [
        {
          "name": "",
          "type": "address"
        }
      ],
      "name": "addressToScore",
      "outputs": [
        {
          "name": "",
          "type": "uint256"
        }
      ],
      "payable": false,
      "stateMutability": "view",
      "type": "function"
    },
    {
      "constant": false,
      "inputs": [
        {
          "name": "_id",
          "type": "uint256"
        },
        {
          "name": "_positive",
          "type": "bool"
        }
      ],
      "name": "vote",
      "outputs": [],
      "payable": false,
      "stateMutability": "nonpayable",
      "type": "function"
    },
    {
      "constant": true,
      "inputs": [
        {
          "name": "_tokenId",
          "type": "uint256"
        }
      ],
      "name": "valueOf",
      "outputs": [
        {
          "name": "value",
          "type": "uint256"
        }
      ],
      "payable": false,
      "stateMutability": "view",
      "type": "function"
    },
    {
      "constant": true,
      "inputs": [
        {
          "name": "",
          "type": "address"
        },
        {
          "name": "",
          "type": "address"
        }
      ],
      "name": "allowanceAmt",
      "outputs": [
        {
          "name": "",
          "type": "uint256"
        }
      ],
      "payable": false,
      "stateMutability": "view",
      "type": "function"
    },
    {
      "constant": true,
      "inputs": [],
      "name": "maxLevel",
      "outputs": [
        {
          "name": "",
          "type": "uint256"
        }
      ],
      "payable": false,
      "stateMutability": "view",
      "type": "function"
    },
    {
      "constant": false,
      "inputs": [
        {
          "name": "_member",
          "type": "address"
        },
        {
          "name": "_score",
          "type": "uint256"
        },
        {
          "name": "_amount",
          "type": "uint256"
        }
      ],
      "name": "scoring",
      "outputs": [],
      "payable": false,
      "stateMutability": "nonpayable",
      "type": "function"
    },
    {
      "constant": true,
      "inputs": [],
      "name": "joinAmountRST",
      "outputs": [
        {
          "name": "",
          "type": "uint256"
        }
      ],
      "payable": false,
      "stateMutability": "view",
      "type": "function"
    },
    {
      "constant": true,
      "inputs": [],
      "name": "newOwner",
      "outputs": [
        {
          "name": "",
          "type": "address"
        }
      ],
      "payable": false,
      "stateMutability": "view",
      "type": "function"
    },
    {
      "constant": false,
      "inputs": [],
      "name": "apply",
      "outputs": [
        {
          "name": "addId",
          "type": "uint256"
        }
      ],
      "payable": false,
      "stateMutability": "nonpayable",
      "type": "function"
    },
    {
      "constant": true,
      "inputs": [
        {
          "name": "",
          "type": "uint256"
        }
      ],
      "name": "extensions",
      "outputs": [
        {
          "name": "timeStamp",
          "type": "uint256"
        },
        {
          "name": "activated",
          "type": "uint256"
        },
        {
          "name": "duration",
          "type": "uint256"
        },
        {
          "name": "amount",
          "type": "uint256"
        },
        {
          "name": "paid",
          "type": "uint256"
        },
        {
          "name": "score",
          "type": "uint256"
        },
        {
          "name": "claimNumber",
          "type": "uint8"
        },
        {
          "name": "status",
          "type": "uint8"
        }
      ],
      "payable": false,
      "stateMutability": "view",
      "type": "function"
    },
    {
      "constant": true,
      "inputs": [
        {
          "name": "",
          "type": "address"
        },
        {
          "name": "",
          "type": "address"
        }
      ],
      "name": "allowance",
      "outputs": [
        {
          "name": "",
          "type": "uint256"
        }
      ],
      "payable": false,
      "stateMutability": "view",
      "type": "function"
    },
    {
      "constant": true,
      "inputs": [],
      "name": "getComission",
      "outputs": [
        {
          "name": "commission",
          "type": "uint256"
        }
      ],
      "payable": false,
      "stateMutability": "view",
      "type": "function"
    },
    {
      "constant": false,
      "inputs": [
        {
          "name": "_id",
          "type": "uint256"
        }
      ],
      "name": "castPositive",
      "outputs": [],
      "payable": false,
      "stateMutability": "nonpayable",
      "type": "function"
    },
    {
      "constant": true,
      "inputs": [],
      "name": "appNumber",
      "outputs": [
        {
          "name": "",
          "type": "uint256"
        }
      ],
      "payable": false,
      "stateMutability": "view",
      "type": "function"
    },
    {
      "constant": true,
      "inputs": [
        {
          "name": "",
          "type": "uint256"
        }
      ],
      "name": "applications",
      "outputs": [
        {
          "name": "timeStamp",
          "type": "uint256"
        },
        {
          "name": "member",
          "type": "address"
        },
        {
          "name": "tokensToBuy",
          "type": "uint8"
        },
        {
          "name": "paymetMethod",
          "type": "uint8"
        },
        {
          "name": "processed",
          "type": "bool"
        }
      ],
      "payable": false,
      "stateMutability": "view",
      "type": "function"
    },
    {
      "constant": true,
      "inputs": [
        {
          "name": "_nodeId",
          "type": "uint256"
        }
      ],
      "name": "getPath",
      "outputs": [
        {
          "name": "path",
          "type": "uint256[]"
        }
      ],
      "payable": false,
      "stateMutability": "view",
      "type": "function"
    },
    {
      "constant": true,
      "inputs": [
        {
          "name": "",
          "type": "address"
        },
        {
          "name": "",
          "type": "address"
        }
      ],
      "name": "allowanceIds",
      "outputs": [
        {
          "name": "",
          "type": "uint256"
        }
      ],
      "payable": false,
      "stateMutability": "view",
      "type": "function"
    },
    {
      "constant": false,
      "inputs": [
        {
          "name": "_newOwner",
          "type": "address"
        }
      ],
      "name": "transferOwnership",
      "outputs": [],
      "payable": false,
      "stateMutability": "nonpayable",
      "type": "function"
    },
    {
      "constant": true,
      "inputs": [
        {
          "name": "_owner",
          "type": "address"
        },
        {
          "name": "_spender",
          "type": "address"
        }
      ],
      "name": "cAllowance",
      "outputs": [
        {
          "name": "",
          "type": "uint256"
        }
      ],
      "payable": false,
      "stateMutability": "view",
      "type": "function"
    },
    {
      "inputs": [
        {
          "name": "_rst",
          "type": "address"
        }
      ],
      "payable": false,
      "stateMutability": "nonpayable",
      "type": "constructor"
    },
    {
      "payable": true,
      "stateMutability": "payable",
      "type": "fallback"
    },
    {
      "anonymous": false,
      "inputs": [
        {
          "indexed": false,
          "name": "member",
          "type": "address"
        },
        {
          "indexed": false,
          "name": "appId",
          "type": "uint256"
        }
      ],
      "name": "Apply",
      "type": "event"
    },
    {
      "anonymous": false,
      "inputs": [
        {
          "indexed": false,
          "name": "member",
          "type": "address"
        },
        {
          "indexed": false,
          "name": "id",
          "type": "uint256"
        },
        {
          "indexed": false,
          "name": "amount",
          "type": "uint256"
        }
      ],
      "name": "Join",
      "type": "event"
    },
    {
      "anonymous": false,
      "inputs": [
        {
          "indexed": false,
          "name": "member",
          "type": "address"
        },
        {
          "indexed": false,
          "name": "score",
          "type": "uint256"
        },
        {
          "indexed": false,
          "name": "amount",
          "type": "uint256"
        }
      ],
      "name": "Scoring",
      "type": "event"
    },
    {
      "anonymous": false,
      "inputs": [
        {
          "indexed": false,
          "name": "id",
          "type": "uint256"
        },
        {
          "indexed": false,
          "name": "amount",
          "type": "uint256"
        },
        {
          "indexed": false,
          "name": "score",
          "type": "uint256"
        }
      ],
      "name": "Activate",
      "type": "event"
    },
    {
      "anonymous": false,
      "inputs": [
        {
          "indexed": false,
          "name": "id",
          "type": "uint256"
        },
        {
          "indexed": false,
          "name": "claim",
          "type": "uint256"
        },
        {
          "indexed": false,
          "name": "number",
          "type": "uint8"
        }
      ],
      "name": "Claim",
      "type": "event"
    },
    {
      "anonymous": false,
      "inputs": [
        {
          "indexed": false,
          "name": "jury",
          "type": "address"
        },
        {
          "indexed": false,
          "name": "id",
          "type": "uint256"
        },
        {
          "indexed": false,
          "name": "positive",
          "type": "bool"
        }
      ],
      "name": "Vote",
      "type": "event"
    },
    {
      "anonymous": false,
      "inputs": [
        {
          "indexed": false,
          "name": "reciever",
          "type": "address"
        },
        {
          "indexed": false,
          "name": "id",
          "type": "uint256"
        },
        {
          "indexed": false,
          "name": "amount",
          "type": "uint256"
        },
        {
          "indexed": false,
          "name": "status",
          "type": "uint8"
        }
      ],
      "name": "Payment",
      "type": "event"
    },
    {
      "anonymous": false,
      "inputs": [
        {
          "indexed": false,
          "name": "member",
          "type": "address"
        },
        {
          "indexed": false,
          "name": "appId",
          "type": "uint256"
        }
      ],
      "name": "FSSF",
      "type": "event"
    },
    {
      "anonymous": false,
      "inputs": [
        {
          "indexed": false,
          "name": "id",
          "type": "uint256"
        },
        {
          "indexed": false,
          "name": "poolId",
          "type": "uint256"
        },
        {
          "indexed": false,
          "name": "level",
          "type": "uint8"
        }
      ],
      "name": "InsertPool",
      "type": "event"
    },
    {
      "anonymous": false,
      "inputs": [
        {
          "indexed": false,
          "name": "id",
          "type": "uint256"
        },
        {
          "indexed": false,
          "name": "superPoolValue",
          "type": "uint256"
        },
        {
          "indexed": false,
          "name": "poolValue",
          "type": "uint256"
        },
        {
          "indexed": false,
          "name": "subPoolValue",
          "type": "uint256"
        },
        {
          "indexed": false,
          "name": "comission",
          "type": "uint256"
        }
      ],
      "name": "DistributeValue",
      "type": "event"
    },
    {
      "anonymous": false,
      "inputs": [
        {
          "indexed": false,
          "name": "id",
          "type": "uint256"
        },
        {
          "indexed": false,
          "name": "value",
          "type": "uint256"
        }
      ],
      "name": "SecondTierCall",
      "type": "event"
    },
    {
      "anonymous": false,
      "inputs": [
        {
          "indexed": false,
          "name": "id",
          "type": "uint256"
        },
        {
          "indexed": false,
          "name": "poolId",
          "type": "uint256"
        },
        {
          "indexed": false,
          "name": "value",
          "type": "uint256"
        },
        {
          "indexed": false,
          "name": "level",
          "type": "uint8"
        }
      ],
      "name": "ShortOfFunds",
      "type": "event"
    },
    {
      "anonymous": false,
      "inputs": [
        {
          "indexed": false,
          "name": "id",
          "type": "uint256"
        },
        {
          "indexed": false,
          "name": "value",
          "type": "uint256"
        },
        {
          "indexed": false,
          "name": "level",
          "type": "uint8"
        }
      ],
      "name": "PaymentValue",
      "type": "event"
    },
    {
      "anonymous": false,
      "inputs": [
        {
          "indexed": false,
          "name": "nodeId",
          "type": "uint256"
        },
        {
          "indexed": false,
          "name": "parentId",
          "type": "uint256"
        },
        {
          "indexed": false,
          "name": "level",
          "type": "uint256"
        }
      ],
      "name": "AddToken",
      "type": "event"
    },
    {
      "anonymous": false,
      "inputs": [
        {
          "indexed": false,
          "name": "nodeId",
          "type": "uint256"
        },
        {
          "indexed": false,
          "name": "level",
          "type": "uint256"
        }
      ],
      "name": "RemoveToken",
      "type": "event"
    },
    {
      "anonymous": false,
      "inputs": [
        {
          "indexed": false,
          "name": "from",
          "type": "address"
        },
        {
          "indexed": false,
          "name": "fromId",
          "type": "uint256"
        },
        {
          "indexed": false,
          "name": "to",
          "type": "address"
        },
        {
          "indexed": false,
          "name": "toId",
          "type": "uint256"
        },
        {
          "indexed": false,
          "name": "value",
          "type": "uint256"
        }
      ],
      "name": "Transfer",
      "type": "event"
    },
    {
      "anonymous": false,
      "inputs": [
        {
          "indexed": false,
          "name": "to",
          "type": "address"
        },
        {
          "indexed": false,
          "name": "toId",
          "type": "uint256"
        },
        {
          "indexed": false,
          "name": "value",
          "type": "uint256"
        }
      ],
      "name": "AddValue",
      "type": "event"
    },
    {
      "anonymous": false,
      "inputs": [
        {
          "indexed": false,
          "name": "from",
          "type": "address"
        },
        {
          "indexed": false,
          "name": "fromId",
          "type": "uint256"
        },
        {
          "indexed": false,
          "name": "value",
          "type": "uint256"
        }
      ],
      "name": "RemoveValue",
      "type": "event"
    },
    {
      "anonymous": false,
      "inputs": [
        {
          "indexed": false,
          "name": "to",
          "type": "address"
        },
        {
          "indexed": false,
          "name": "toId",
          "type": "uint256"
        },
        {
          "indexed": false,
          "name": "level",
          "type": "uint256"
        }
      ],
      "name": "SetLevel",
      "type": "event"
    },
    {
      "anonymous": false,
      "inputs": [
        {
          "indexed": false,
          "name": "to",
          "type": "address"
        },
        {
          "indexed": false,
          "name": "toId",
          "type": "uint256"
        }
      ],
      "name": "IncreaseLevel",
      "type": "event"
    },
    {
      "anonymous": false,
      "inputs": [
        {
          "indexed": true,
          "name": "_prevOwner",
          "type": "address"
        },
        {
          "indexed": true,
          "name": "_newOwner",
          "type": "address"
        }
      ],
      "name": "OwnerUpdate",
      "type": "event"
    },
    {
      "anonymous": false,
      "inputs": [
        {
          "indexed": false,
          "name": "fromId",
          "type": "uint256"
        },
        {
          "indexed": false,
          "name": "spender",
          "type": "address"
        },
        {
          "indexed": false,
          "name": "toId",
          "type": "uint256"
        },
        {
          "indexed": false,
          "name": "value",
          "type": "uint256"
        }
      ],
      "name": "CApproveFrom",
      "type": "event"
    },
    {
      "anonymous": false,
      "inputs": [
        {
          "indexed": false,
          "name": "spender",
          "type": "address"
        },
        {
          "indexed": false,
          "name": "value",
          "type": "uint256"
        }
      ],
      "name": "CApprove",
      "type": "event"
    },
    {
      "anonymous": false,
      "inputs": [
        {
          "indexed": false,
          "name": "from",
          "type": "address"
        },
        {
          "indexed": false,
          "name": "fromId",
          "type": "uint256"
        },
        {
          "indexed": false,
          "name": "to",
          "type": "address"
        },
        {
          "indexed": false,
          "name": "toId",
          "type": "uint256"
        },
        {
          "indexed": false,
          "name": "value",
          "type": "uint256"
        },
        {
          "indexed": false,
          "name": "allowance",
          "type": "uint256"
        }
      ],
      "name": "CTransferFrom",
      "type": "event"
    },
    {
      "anonymous": false,
      "inputs": [
        {
          "indexed": false,
          "name": "to",
          "type": "address"
        },
        {
          "indexed": false,
          "name": "toId",
          "type": "uint256"
        },
        {
          "indexed": false,
          "name": "amount",
          "type": "uint256"
        }
      ],
      "name": "CIssue",
      "type": "event"
    },
    {
      "anonymous": false,
      "inputs": [
        {
          "indexed": false,
          "name": "from",
          "type": "address"
        },
        {
          "indexed": false,
          "name": "fromId",
          "type": "uint256"
        },
        {
          "indexed": false,
          "name": "amount",
          "type": "uint256"
        }
      ],
      "name": "CDestroy",
      "type": "event"
    },
    {
      "anonymous": false,
      "inputs": [
        {
          "indexed": false,
          "name": "from",
          "type": "address"
        },
        {
          "indexed": false,
          "name": "to",
          "type": "address"
        },
        {
          "indexed": false,
          "name": "tokenId",
          "type": "uint256"
        }
      ],
      "name": "Transfer",
      "type": "event"
    },
    {
      "anonymous": false,
      "inputs": [
        {
          "indexed": false,
          "name": "owner",
          "type": "address"
        },
        {
          "indexed": false,
          "name": "approved",
          "type": "address"
        },
        {
          "indexed": false,
          "name": "tokenId",
          "type": "uint256"
        }
      ],
      "name": "Approval",
      "type": "event"
    },
    {
      "anonymous": false,
      "inputs": [
        {
          "indexed": false,
          "name": "value",
          "type": "uint256"
        },
        {
          "indexed": false,
          "name": "metadata",
          "type": "string"
        },
        {
          "indexed": false,
          "name": "kind",
          "type": "uint256"
        },
        {
          "indexed": false,
          "name": "owner",
          "type": "address"
        }
      ],
      "name": "Birth",
      "type": "event"
    }
  ],
  "bytecode": "0x606060405234156200001057600080fd5b6040516020806200616983398101604052808051915081905060008080604080519081016040908152601882527f4c7567676167652043726f7764737572616e6365204e4654000000000000000060208301528051908101604052600381527f4c435300000000000000000000000000000000000000000000000000000000006020820152818160008080620000a562000a00565b620000af62000a00565b620000b962000a00565b60028054600160a060020a03191633600160a060020a03161790558787818181816000828051620000ef92916020019062000a3a565b5060018180516200010592916020019062000a3a565b5050600a8054600160a060020a03191633600160a060020a031617905550506004600c5550620001929150678ac7230489e80000905060408051908101604052600981527f5375706572506f6f6c00000000000000000000000000000000000000000000006020820152600a54600190600160a060020a031664010000000062004fbe620005b382021704565b9550620001f1600060408051908101604052600481527f506f6f6c000000000000000000000000000000000000000000000000000000006020820152600a54600190600160a060020a031664010000000062004fbe620005b382021704565b945062000250600060408051908101604052600781527f537562506f6f6c000000000000000000000000000000000000000000000000006020820152600a54600290600160a060020a031664010000000062004fbe620005b382021704565b93506200026c8587640100000000620012ff620007c482021704565b620002868486640100000000620012ff620007c482021704565b60c060405190810160405280600060ff16815260200160018152602001600a815260200160018152602001878152602001600a8152509250600e8054806001018281620002d4919062000abf565b600092835260209092208591600602018151815460ff191660ff919091161781556020820151816001015560408201518160020155606082015181600301556080820151816004015560a0820151816005015550505060c060405190810160405280600160ff168152602001600a8152602001606481526020016001815260200186815260200160148152509150600e805480600101828162000378919062000abf565b600092835260209092208491600602018151815460ff191660ff919091161781556020820151816001015560408201518160020155606082015181600301556080820151816004015560a0820151816005015550505060c060405190810160405280600260ff1681526020016103e88152602001606481526020016001815260200185815260200160328152509050600e80548060010182816200041d919062000abf565b600092835260209092208391600602018151815460ff191660ff919091161781556020820151816001015560408201518160020155606082015181600301556080820151816004015560a082015181600501555050506000600360008154811015156200048657fe5b600091825260208083206005928302019390935562f099c060105560128054600160ff199182161761ff00191661500017909155678ac7230489e800006013556014805460039083161790556202a300601555601680549091169091179055600a60175560646018559055505060218054600160a060020a031916600160a060020a038e161790555050664380663abb8000600f555050673782dace9d9000006011555050508315159050620005455764012a05f2006022556200054b565b60228390555b60ff811615156200056b576023805461ff00191661050017905562000580565b6023805461ff00191661010060ff8416021790555b506023805491151560ff199283161790556701aa535d3d0c00006024556025805490911660501790555062000c5e915050565b6000620005bf62000af3565b600060a060405190810160405280888152602001878152602001868152602001600081526020016000815250915060016003805480600101828162000605919062000b2b565b60009283526020909220859160050201815181556020820151816001019080516200063592916020019062000a3a565b506040820151816002015560608201518160030155608082015160049091015550039050801515620006ce5760016003805480600101828162000679919062000b2b565b6000928352602090922085916005020181518155602082015181600101908051620006a992916020019062000a3a565b5060408201518160020155606082015181600301556080820151816004015550500390505b63ffffffff81168114620006e157600080fd5b7fdea8e87d69047e1b3cd43ad599d34e3eacfe4408b4dfc5d0f6ac6a15a468de5c8787878760405184815260408101839052600160a060020a038216606082015260806020820181815290820185818151815260200191508051906020019080838360005b838110156200076057808201518382015260200162000746565b50505050905090810190601f1680156200078e5780820380516001836020036101000a031916815260200191505b509550505050505060405180910390a1620007ba6000858364010000000062003fa2620008f982021704565b9695505050505050565b8115801590620007d5575060035482105b1515620007e157600080fd5b8015801590620007f2575060035481105b1515620007fe57600080fd5b6001600c54036003828154811015156200081457fe5b9060005260206000209060050201600301541015156200083357600080fd5b6000828152600d6020526040902081905560038054829081106200085357fe5b9060005260206000209060050201600301546001016003838154811015156200087857fe5b9060005260206000209060050201600301819055507f0900f87897aa374bb21fa36753905fa2944dd2301242246101a9047a0ed227a08282600385815481101515620008c057fe5b90600052602060002090600502016003015460405180848152602001838152602001828152602001935050505060405180910390a15050565b6104006003828154811015156200090c57fe5b906000526020600020906005020160040154141515156200092957fe5b600160a060020a03808316600081815260056020908152604080832080546001019055858352600490915290208054600160a060020a0319169091179055831615620009ab57600160a060020a03831660009081526005602090815260408083208054600019019055838352600690915290208054600160a060020a03191690555b7fddf252ad1be2c89b69c2b068fc378daa952ba7f163c4a11628f55a4df523b3ef838383604051600160a060020a039384168152919092166020820152604080820192909252606001905180910390a1505050565b60c060405190810160405280600060ff16815260200160008152602001600081526020016000815260200160008152602001600081525090565b828054600181600116156101000203166002900490600052602060002090601f016020900481019282601f1062000a7d57805160ff191683800117855562000aad565b8280016001018555821562000aad579182015b8281111562000aad57825182559160200191906001019062000a90565b5062000abb92915062000b5a565b5090565b81548183558181151162000aee5760060281600602836000526020600020918201910162000aee919062000b7a565b505050565b60a0604051908101604052806000815260200162000b1062000bbe565b81526020016000815260200160008152602001600081525090565b81548183558181151162000aee5760050281600502836000526020600020918201910162000aee919062000bd0565b62000b7791905b8082111562000abb576000815560010162000b61565b90565b62000b7791905b8082111562000abb57805460ff19168155600060018201819055600282018190556003820181905560048201819055600582015560060162000b81565b60206040519081016040526000815290565b62000b7791905b8082111562000abb57600080825562000bf4600183018262000c13565b5060006002820181905560038201819055600482015560050162000bd7565b50805460018160011615610100020316600290046000825580601f1062000c3b575062000c5b565b601f01602090049060005260206000209081019062000c5b919062000b5a565b50565b6154fb8062000c6e6000396000f3006060604052600436106103835763ffffffff7c0100000000000000000000000000000000000000000000000000000000600035041662607b7f811461038557806301ffc9a7146103af57806306fdde03146103e7578063095ea7b3146104715780630c04ad11146104935780630e13dd74146104a957806317b9ebec146104e857806318160ddd146105015780631aff0596146105265780631cced51b146105395780631d36e06c146105845780631de565d6146105b657806323b872dd146105c957806329625005146105f157806332c4ee831461061657806336c5d7241461063857806339e6cdb11461064e5780633c7e7d28146106705780634cabcfac1461068f5780634dc621fa146106b45780634fe89efe146106dd5780635237277714610712578063545c3d55146107255780636352211e1461074a57806366d80ba5146107605780636914db601461078257806370a082311461079857806379ba5097146107b757806381d12c58146107ca5780638462151c1461081d578063890357301461088f57806389d0cd06146109065780638b3c99e3146109195780638da5cb5b1461092f5780638f1fc77c14610942578063930f34fd1461095557806395d89b411461096b57806398dc5c951461097e5780639a6c614e146109a65780639ca08831146109b95780639d26d1ca146109cf578063a01177cd146109e2578063a3ec138d146109f5578063a846c2fd14610a14578063a8bd9c3214610a2a578063a9059cbb14610a40578063afd8206714610a62578063b121f2ac14610a75578063b129273f14610a97578063b135707914610ab0578063b260c42a14610acf578063b688a36314610ae5578063b9f05f2f14610aed578063bc89b1cf14610b0f578063be1d68ad14610b22578063bf62266514610b41578063c0521d7614610b69578063c349026314610b8e578063c52380e914610ba7578063c9d27afe14610bc6578063cadf338f14610be1578063cbbc9f8914610bf7578063cc06c35914610c1c578063cf7c436714610c2f578063d0d8074a14610c54578063d4ee1d9014610c67578063db595b3b14610c7a578063db85d59c14610c8d578063dd62ed3e14610cef578063dd6d3ca714610d14578063ddf3ecc714610d27578063deb8386a14610d3d578063dfefadff14610d50578063e176507314610da6578063e527cc9d14610dbc578063f2fde38b14610de1578063f81fd7ea14610e00575b005b341561039057600080fd5b61039b600435610e25565b604051901515815260200160405180910390f35b34156103ba57600080fd5b61039b7fffffffff0000000000000000000000000000000000000000000000000000000060043516610e87565b34156103f257600080fd5b6103fa611160565b60405160208082528190810183818151815260200191508051906020019080838360005b8381101561043657808201518382015260200161041e565b50505050905090810190601f1680156104635780820380516001836020036101000a031916815260200191505b509250505060405180910390f35b341561047c57600080fd5b610383600160a060020a0360043516602435611209565b341561049e57600080fd5b61038360043561127c565b34156104b457600080fd5b6104bf60043561128a565b604051921515835260ff9182166020840152166040808301919091526060909101905180910390f35b34156104f357600080fd5b6103836004356024356112ff565b341561050c57600080fd5b61051461142b565b60405190815260200160405180910390f35b341561053157600080fd5b610514611446565b341561054457600080fd5b61054c611462565b6040518082608080838360005b83811015610571578082015183820152602001610559565b5050505090500191505060405180910390f35b341561058f57600080fd5b61059a600435611545565b604051600160a060020a03909116815260200160405180910390f35b34156105c157600080fd5b61059a611560565b34156105d457600080fd5b610383600160a060020a036004358116906024351660443561156f565b34156105fc57600080fd5b610383600160a060020a03600435166024356044356115df565b341561062157600080fd5b61039b600160a060020a036004351660243561168f565b341561064357600080fd5b61038360043561178f565b341561065957600080fd5b610383600160a060020a0360043516602435611830565b341561067b57600080fd5b610514600160a060020a03600435166118ec565b341561069a57600080fd5b610383600160a060020a03600435166024356044356118fe565b34156106bf57600080fd5b6106c76119ac565b60405160ff909116815260200160405180910390f35b34156106e857600080fd5b6106f06119b5565b604051600160a060020a03909216825260208201526040908101905180910390f35b341561071d57600080fd5b61039b611a4d565b341561073057600080fd5b610383600160a060020a0360043516602435604435611a56565b341561075557600080fd5b61059a600435611b04565b341561076b57600080fd5b61039b600160a060020a0360043516602435611b28565b341561078d57600080fd5b6103fa600435611b61565b34156107a357600080fd5b610514600160a060020a0360043516611c28565b34156107c257600080fd5b610383611c43565b34156107d557600080fd5b6107e0600435611cd1565b604051958652602086019490945260408086019390935260ff91821660608601528116608085015290911660a083015260c0909101905180910390f35b341561082857600080fd5b61083c600160a060020a0360043516611d0e565b60405160208082528190810183818151815260200191508051906020019060200280838360005b8381101561087b578082015183820152602001610863565b505050509050019250505060405180910390f35b341561089a57600080fd5b6108a2611d1f565b6040519a8b5260208b01999099526040808b019890985260ff96871660608b015294861660808a015260a089019390935290841660c088015260e0870152909116610100850152610120840152610140830191909152610160909101905180910390f35b341561091157600080fd5b610383611d56565b341561092457600080fd5b610383600435611df3565b341561093a57600080fd5b61059a6121c6565b341561094d57600080fd5b6105146121d5565b341561096057600080fd5b61038360043561221c565b341561097657600080fd5b6103fa6122c3565b341561098957600080fd5b61039b600435600160a060020a0360243516604435606435612336565b34156109b157600080fd5b6106c7612431565b34156109c457600080fd5b61051460043561243f565b34156109da57600080fd5b610514612451565b34156109ed57600080fd5b61038361246d565b3415610a0057600080fd5b610514600160a060020a036004351661250c565b3415610a1f57600080fd5b61051460043561251e565b3415610a3557600080fd5b61059a600435612530565b3415610a4b57600080fd5b610383600160a060020a036004351660243561254b565b3415610a6d57600080fd5b6105146125a1565b3415610a8057600080fd5b610514600160a060020a03600435166024356125bd565b3415610aa257600080fd5b61039b6004356024356125fc565b3415610abb57600080fd5b610514600160a060020a03600435166126a5565b3415610ada57600080fd5b61038360043561271e565b610514612749565b3415610af857600080fd5b610383600160a060020a0360043516602435612a4e565b3415610b1a57600080fd5b610514612b85565b3415610b2d57600080fd5b610514600160a060020a0360043516612b8b565b3415610b4c57600080fd5b61039b600160a060020a0360043581169060243516604435612b9d565b3415610b7457600080fd5b610514600160a060020a036004351660ff60243516612d74565b3415610b9957600080fd5b61039b600435602435612df4565b3415610bb257600080fd5b610514600160a060020a036004351661305b565b3415610bd157600080fd5b610383600435602435151561306d565b3415610bec57600080fd5b6105146004356131b6565b3415610c0257600080fd5b610514600160a060020a03600435811690602435166131e0565b3415610c2757600080fd5b6105146131fd565b3415610c3a57600080fd5b610383600160a060020a0360043516602435604435613203565b3415610c5f57600080fd5b610514613399565b3415610c7257600080fd5b61059a61339f565b3415610c8557600080fd5b6105146133ae565b3415610c9857600080fd5b610ca3600435613683565b60405197885260208801969096526040808801959095526060870193909352608086019190915260a085015260ff90811660c085015290911660e0830152610100909101905180910390f35b3415610cfa57600080fd5b610514600160a060020a03600435811690602435166136cc565b3415610d1f57600080fd5b6105146136e9565b3415610d3257600080fd5b610383600435613712565b3415610d4857600080fd5b61051461371d565b3415610d5b57600080fd5b610d66600435613723565b604051948552600160a060020a03909316602085015260ff91821660408086019190915291166060840152901515608083015260a0909101905180910390f35b3415610db157600080fd5b61083c6004356137af565b3415610dc757600080fd5b610514600160a060020a036004358116906024351661380c565b3415610dec57600080fd5b610383600160a060020a0360043516613829565b3415610e0b57600080fd5b610514600160a060020a036004358116906024351661388b565b600a5460009033600160a060020a03908116911614610e4057fe5b8115801590610e50575060035482105b1515610e5b57600080fd5b610e668260026138e3565b1515610e6e57fe5b610e7782613b94565b1515610e7f57fe5b506001919050565b60006040517f737570706f727473496e74657266616365286279746573342900000000000000815260190160405180910390207bffffffffffffffffffffffffffffffffffffffffffffffffffffffff1916827bffffffffffffffffffffffffffffffffffffffffffffffffffffffff1916148061115a57506040517f746f6b656e4d657461646174612875696e743235362c737472696e67290000008152601d0160405180910390206040517f746f6b656e734f664f776e657228616464726573732900000000000000000000815260160160405180910390206040517f7472616e7366657246726f6d28616464726573732c616464726573732c75696e81527f7432353629000000000000000000000000000000000000000000000000000000602082015260250160405180910390206040517f7472616e7366657228616464726573732c75696e743235362900000000000000815260190160405180910390206040517f617070726f766528616464726573732c75696e74323536290000000000000000815260180160405180910390206040517f6f776e65724f662875696e743235362900000000000000000000000000000000815260100160405180910390206040517f62616c616e63654f662861646472657373290000000000000000000000000000815260120160405180910390206040517f746f74616c537570706c792829000000000000000000000000000000000000008152600d0160405180910390206040517f73796d626f6c2829000000000000000000000000000000000000000000000000815260080160405180910390206040517f6e616d6528290000000000000000000000000000000000000000000000000000815260060160405180910390201818181818181818187bffffffffffffffffffffffffffffffffffffffffffffffffffffffff1916827bffffffffffffffffffffffffffffffffffffffffffffffffffffffff1916145b92915050565b6111686151b0565b60008054600181600116156101000203166002900480601f0160208091040260200160405190810160405280929190818152602001828054600181600116156101000203166002900480156111fe5780601f106111d3576101008083540402835291602001916111fe565b820191906000526020600020905b8154815290600101906020018083116111e157829003601f168201915b505050505090505b90565b6112133382613f27565b151561121e57600080fd5b6112288183613f47565b7f8c5be1e5ebec7d5bd14f71427d1e84f3dd0314c0f7b2291e5b200ac8c7c3b925338383604051600160a060020a039384168152919092166020820152604080820192909252606001905180910390a15050565b61128781600061306d565b50565b60008080808085151561129c57600080fd5b60026000878152601b6020526040902060060154610100900460ff16146112c257600080fd5b50505060009283525050601d6020526040902060028101546001820154600390920154429290910191909111159160ff8083169261010090041690565b811580159061130f575060035482105b151561131a57600080fd5b801580159061132a575060035481105b151561133557600080fd5b6001600c540360038281548110151561134a57fe5b90600052602060002090600502016003015410151561136857600080fd5b6000828152600d60205260409020819055600380548290811061138757fe5b9060005260206000209060050201600301546001016003838154811015156113ab57fe5b9060005260206000209060050201600301819055507f0900f87897aa374bb21fa36753905fa2944dd2301242246101a9047a0ed227a082826003858154811015156113f257fe5b90600052602060002090600502016003015460405180848152602001838152602001828152602001935050505060405180910390a15050565b6003546000908181111561143e57600019015b8091505b5090565b600160a060020a0333166000908152601e602052604090205490565b61146a6151c2565b600080825260208201819052604082018190526060820181905260015b60035481101561154057600380548290811061149f57fe5b9060005260206000209060050201600301549150600c548260ff16101561150d5760038054829081106114ce57fe5b60009182526020909120600590910201548360ff8416600481106114ee57fe5b6020020151018360ff84166004811061150357fe5b6020020152611538565b600380548290811061151b57fe5b600091825260209091206005909102015460608401510160608401525b600101611487565b505090565b600460205260009081526040902054600160a060020a031681565b602154600160a060020a031681565b600160a060020a038216151561158457600080fd5b30600160a060020a031682600160a060020a0316141515156115a557600080fd5b6115af3382613f82565b15156115ba57600080fd5b6115c48382613f27565b15156115cf57600080fd5b6115da838383613fa2565b505050565b600a5433600160a060020a039081169116146115f757fe5b6116018383613f27565b151561160c57600080fd5b8060038381548110151561161c57fe5b9060005260206000209060050201600301819055507f48ed1b5769aee6cf16cda3da1db2a0acf83c194c9d2a98ebeff4904567af58f68383836040518084600160a060020a0316600160a060020a03168152602001838152602001828152602001935050505060405180910390a1505050565b6000808080600160a060020a03861615156116a957600080fd5b8415156116b557600080fd5b3392506116c1836140c0565b91506116cc866140c0565b9050818114156116db57600080fd5b8115156116e757600080fd5b8015156116f357600080fd5b600160a060020a038381166000818152600860209081526040808320948b168084529482528083208690559282528282208690556009815282822093825292909252908190208690557fe051949e9a44e2e9c21ee7d1c7b03ef0bf501aa3b7c4616a8543f229c0bede7a908790879051600160a060020a03909216825260208201526040908101905180910390a1600193505b50505092915050565b600081158015906117a1575060035482105b15156117ac57600080fd5b6117b58261410a565b905080156117c257600080fd5b6000828152600d6020526040812055600380547f399c331be71add502e95a2402ba7370605a945c1c6c1dc01c5e30f7e896cfa569184918290811061180357fe5b90600052602060002090600502016003015460405191825260208201526040908101905180910390a15050565b600a5433600160a060020a0390811691161461184857fe5b6118528282613f27565b151561185d57600080fd5b600380548290811061186b57fe5b90600052602060002090600502016003015460010160038281548110151561188f57fe5b9060005260206000209060050201600301819055507fb6ffa2bc58069f160ac94855c396bc8a7c591ae4b9e69d78cc004ad2e4d70d858282604051600160a060020a03909216825260208201526040908101905180910390a15050565b60196020526000908152604090205481565b6000600160a060020a038416151561191557600080fd5b81151561192157600080fd5b508180151561193657611933846140c0565b90505b80151561194257600080fd5b61194d848284614168565b7f8ee078ba6dd38678f9ffdc8f1df2d512559df0cae2db32c829459127e10031978484846040518084600160a060020a0316600160a060020a03168152602001838152602001828152602001935050505060405180910390a150505050565b60255460ff1681565b6020546000908190819015156119ca57611a48565b5060015b601f54811015611a4857601f8054829081106119e657fe5b906000526020600020906002020160010160169054906101000a900460ff161515611a4057601f805482908110611a1957fe5b6000918252602090912060016002909202010154600160a060020a03169250905080611a48565b6001016119ce565b509091565b60235460ff1681565b6000600160a060020a0384161515611a6d57600080fd5b811515611a7957600080fd5b5081801515611a8e57611a8b846140c0565b90505b801515611a9a57600080fd5b611aa5848284614256565b7ff3d0e22890d929d2a1cd5ca9e5f6498c4271ce2f0223ab4092297c2d11c9ef758484846040518084600160a060020a0316600160a060020a03168152602001838152602001828152602001935050505060405180910390a150505050565b600081815260046020526040812054600160a060020a031680151561115a57600080fd5b600080600160a060020a0384161515611b4057600080fd5b821515611b4c57600080fd5b5033611b59818585612b9d565b949350505050565b611b696151b0565b6003805483908110611b7757fe5b90600052602060002090600502016001018054600181600116156101000203166002900480601f016020809104026020016040519081016040528092919081815260200182805460018160011615610100020316600290048015611c1c5780601f10611bf157610100808354040283529160200191611c1c565b820191906000526020600020905b815481529060010190602001808311611bff57829003601f168201915b50505050509050919050565b600160a060020a031660009081526005602052604090205490565b600b5433600160a060020a03908116911614611c5e57600080fd5b600b54600a54600160a060020a0391821691167f343765429aea5a34b3ff6a3785a98a5abb2597aca87bfbb58632c173d585373a60405160405180910390a3600b8054600a805473ffffffffffffffffffffffffffffffffffffffff19908116600160a060020a03841617909155169055565b601d6020526000908152604090208054600182015460028301546003909301549192909160ff808216916101008104821691620100009091041686565b611d166151b0565b61115a82614318565b600f5460105460115460125460135460145460155460165460175460185460ff80881697610100900481169695811694931691908b565b600a5460009033600160a060020a03908116911614611d7157fe5b600380546000908110611d8057fe5b60009182526020909120600590910201549050801515611d9f57600080fd5b600060036000815481101515611db157fe5b6000918252602090912060059091020155600160a060020a03331681156108fc0282604051600060405180830381858888f19350505050151561128757600080fd5b6000808080841515611e0457600080fd5b611e0e3386613f27565b1515611e1957600080fd5b60026000868152601b6020526040902060060154610100900460ff1614611e3f57600080fd5b6000858152601d60205260409020600281015460018201549195500192504283111580611e865750601654600385015460ff81811661010090920481169190910181169116145b1515611e9157600080fd5b6012548454606491610100900460ff16026003860154919004925060ff610100820481169116118015611ec95750611ec9858361440d565b15611f9557600160a060020a03331682156108fc0283604051600060405180830381858888f193505050501515611eff57600080fd5b6000858152601b6020526040902060068101805461ff001916610300179055600401805483019055611f318583614556565b507f261826fbdc11ee0da48a5356542bcb46786deaed4c215b871d3df7a03652262d33868460035b604051600160a060020a039094168452602084019290925260408084019190915260ff90911660608301526080909101905180910390a1612134565b600384015460ff808216610100909204161480611fcd5750601454600385015460ff9182166101008204831691831691909101909116105b8015611ff157506000858152601b6020526040902060030154611ff190869061440d565b156120b5576000858152601b60205260409081902060030154600160a060020a0333169181156108fc02919051600060405180830381858888f19350505050151561203b57600080fd5b6000858152601b6020526040902060068101805461ff00191661050017905560038101546004909101805482019055612075908690614556565b506000858152601b60205260409020600301547f261826fbdc11ee0da48a5356542bcb46786deaed4c215b871d3df7a03652262d90339087906005611f59565b6000858152601b6020526040808220600601805461ff0019166104001790557f261826fbdc11ee0da48a5356542bcb46786deaed4c215b871d3df7a03652262d91339188919060049051600160a060020a039094168452602084019290925260408084019190915260ff90911660608301526080909101905180910390a15b600384015462010000900460ff1681101561218257601c600060048601836005811061215c57fe5b0154600160a060020a031681526020810191909152604001600090812055600101612134565b6000858152601d60205260408120818155600181018290556002810182905560038101805462ffffff19169055906121bd60048301826151e9565b50505050505050565b600a54600160a060020a031681565b600354600090819060015b818110156122145760038054829081106121f657fe5b600091825260209091206005909102015492909201916001016121e0565b509092915050565b60006122283383613f27565b151561223357600080fd5b81151561223f57600080fd5b5060008181526026602052604090205480151561225b57600080fd5b6000828152601b60205260409020600401541561227757600080fd5b6000828152601b602052604090819020600401829055600160a060020a0333169082156108fc0290839051600060405180830381858888f1935050505015156122bf57600080fd5b5050565b6122cb6151b0565b60018054600181600116156101000203166002900480601f0160208091040260200160405190810160405280929190818152602001828054600181600116156101000203166002900480156111fe5780601f106111d3576101008083540402835291602001916111fe565b600080600160a060020a038516151561234e57600080fd5b8584141561235b57600080fd5b85151561236757600080fd5b83151561237357600080fd5b82151561237f57600080fd5b5033600160a060020a038181166000818152600860209081526040808320948a168084529482528083208990559282528282208a90556009815282822093825292909252908190208490557fef4beaa380feab20776f162f92bbf15b04c59f8fd4e8ab2508b8d29fed7dfd6190879087908790879051938452600160a060020a03909216602084015260408084019190915260608301919091526080909101905180910390a150600195945050505050565b602354610100900460ff1681565b600d6020526000908152604090205481565b600160a060020a03331660009081526019602052604090205490565b600a54600090819033600160a060020a0390811691161461248a57fe5b6124926119b5565b9092509050600160a060020a038216158015906124ae57508015155b156122bf57601854600f546124c4918491613203565b7fa2b47dc564bd9b8719fa8435590eb01665bade49e1fa4890022587a074d9e4268282604051600160a060020a03909216825260208201526040908101905180910390a15050565b601c6020526000908152604090205481565b60266020526000908152604090205481565b600660205260009081526040902054600160a060020a031681565b600160a060020a038216151561256057600080fd5b30600160a060020a031682600160a060020a03161415151561258157600080fd5b61258b3382613f27565b151561259657600080fd5b6122bf338383613fa2565b600160a060020a0333166000908152601a602052604090205490565b60006125c98383613f27565b15156125d457600080fd5b60038054839081106125e257fe5b906000526020600020906005020160030154905092915050565b600a54600090819033600160a060020a0390811691161461261957fe5b83151561262557600080fd5b82151561263157600080fd5b602554600f5460649160ff16020483111561264b57600080fd5b6000848152601b60205260409020600401541561266757600080fd5b506000838152601b6020526040902060028101546001909101540142811061268e57600080fd5b505060009182526026602052604090912055600190565b60006126af6151b0565b60008060006126bd86614318565b93506000925083519150600090505b818110156127145760038482815181106126e257fe5b90602001906020020151815481106126f657fe5b600091825260209091206005909102015492909201916001016126cc565b5090949350505050565b6023543390610100900460ff16612736826001612d74565b1061274057600080fd5b6122bf82614b1a565b33600160a060020a0381166000908152601a60205260408120549091349183808083151561277657600080fd5b60235460ff16158015612787575034155b156129f857602154600160a060020a031615156127a357600080fd5b60225415156127b157600080fd5b602154600160a060020a031663dd62ed3e86306000604051602001526040517c010000000000000000000000000000000000000000000000000000000063ffffffff8516028152600160a060020a03928316600482015291166024820152604401602060405180830381600087803b151561282b57600080fd5b6102c65a03f1151561283c57600080fd5b5050506040518051602154909450600160a060020a0316905063313ce5676000604051602001526040518163ffffffff167c0100000000000000000000000000000000000000000000000000000000028152600401602060405180830381600087803b15156128aa57600080fd5b6102c65a03f115156128bb57600080fd5b5050506040518051905060ff16915060225483101515156128db57600080fd5b50600160a060020a03841660009081526019602052604090205460245490955082026001821061291f5760001990910190600a82900a8181151561291b57fe5b0490505b8581101580156129315750600f548610155b151561293c57600080fd5b602154600a54602254600160a060020a03928316926323b872dd9289929116906000604051602001526040517c010000000000000000000000000000000000000000000000000000000063ffffffff8616028152600160a060020a0393841660048201529190921660248201526044810191909152606401602060405180830381600087803b15156129cd57600080fd5b6102c65a03f115156129de57600080fd5b5050506040518051905015156129f357600080fd5b612a38565b8515801590612a095750600f548610155b1515612a1457600080fd5b600160a060020a0385166000908152601960205260409020548614612a3857600080fd5b612a43858588614c21565b965050505050505090565b600a546000908190819033600160a060020a03908116911614612a6d57fe5b600160a060020a0385161515612a8257600080fd5b831515612a8e57600080fd5b60026000858152601b6020526040902060060154610100900460ff1614612ab457600080fd5b6000848152601d6020526040902080549093501515612ad257600080fd5b6002830154600184015401915042821015612aec57600080fd5b50600382015460165460ff62010000909204821691168110612b0d57600080fd5b846004840160ff831660058110612b2057fe5b018054600160a060020a0392831673ffffffffffffffffffffffffffffffffffffffff199091161790556003909301805460ff6201000080830482166001019091160262ff0000199091161790555050919091166000908152601c6020526040902055565b60245481565b601e6020526000908152604090205481565b600080808080600160a060020a0387161515612bb857600080fd5b851515612bc457600080fd5b50505050600160a060020a0384811660008181526008602090815260408083209488168084529482528083205493835280832054600983528184209584529490915290205486929081831415612c1957600080fd5b821515612c2557600080fd5b811515612c3157600080fd5b801515612c3d57600080fd5b85811015612c4a57600080fd5b612c57848389868a614dcf565b600160a060020a038481166000908152600960209081526040808320938b168352929052208054879003908190551515612ccf57600160a060020a038481166000818152600960209081526040808320948c168084529482528083208390559282526008815282822090528181208190559182528120555b600160a060020a038085166000908152600960209081526040808320938b168352929052819020547fa085ba1c72fda1f13ecb6e0347284ac7d016a73b7a47c0ba151368bbe5ce2db9918a9185918b9188918c919051600160a060020a0396871681526020810195909552929094166040808501919091526060840191909152608083019390935260a082015260c001905180910390a1506001979650505050505050565b6000612d7e6151b0565b6000612d8985614318565b915060009250600090505b8151811015612dec578360ff16601b6000848481518110612db157fe5b906020019060200201518152602081019190915260400160002060060154610100900460ff161415612de4576001909201915b600101612d94565b505092915050565b60008080841515612e0457600080fd5b612e0e3386613f27565b1515612e1957600080fd5b831515612e2557600080fd5b60016000868152601b6020526040902060060154610100900460ff1614612e4b57600080fd5b6012546000868152601b602052604090206006015460ff918216911610612e7157600080fd5b601254606490610100900460ff1685026013546000888152601b60205260409020600401549290910493509083011115612eaa57600080fd5b506000848152601b6020526040902060028101546001909101540142811015612ed257600080fd5b60e06040519081016040908152858252426020830152601554818301526000606083018190526080830181905260a08084019190915260c083019151908101604090815260008083526020808401829052828401829052606084018290526080840182905292909352888352601d9091529020815181556020820151816001015560408201518160020155606082015160038201805460ff191660ff9290921691909117905560808201518160030160016101000a81548160ff021916908360ff16021790555060a08201518160030160026101000a81548160ff021916908360ff16021790555060c0820151612fcf906004830190600561520c565b5050506000858152601b602052604090819020600601805461020061ff001960ff198316600160ff948516018416171617918290557fb3ef0c14cd9ed6533151b9a921ddb33f8716dd3593254ffc741ae770313e3bea9288928892169051928352602083019190915260ff166040808301919091526060909101905180910390a1506001949350505050565b601a6020526000908152604090205481565b60008083151561307c57600080fd5b600160a060020a0333166000908152601c602052604090205484146130a057600080fd5b6000848152601b602052604090206006015460ff610100909104166002146130c757600080fd5b50506000828152601d602052604090206002810154600182015401428110156130ef57600080fd5b82156131125760038201805460ff8082166001011660ff19909116179055613134565b60038201805460ff61010080830482166001019091160261ff00199091161790555b601c600033600160a060020a0316600160a060020a03168152602001908152602001600020600090557f8d85a70fd2c5d140a4a01143492d27ff82cfad4cead313e66c53f39b0feb5e0f338585604051600160a060020a039093168352602083019190915215156040808301919091526060909101905180910390a150505050565b60006003828154811015156131c757fe5b9060005260206000209060050201600001549050919050565b600960209081526000928352604080842090915290825290205481565b600c5481565b600a5460009033600160a060020a0390811691161461321e57fe5b600160a060020a038416151561323357600080fd5b82151561323f57600080fd5b81158015906132505750600f548210155b151561325b57600080fd5b50600160a060020a0383166000908152601960209081526040808320849055601a8252808320859055601e909152902054801580159061329c5750601f5481105b1561333a576001601f828154811015156132b257fe5b6000918252602080832060016002909302019190910180549315157601000000000000000000000000000000000000000000000276ff000000000000000000000000000000000000000000001990941693909317909255600160a060020a0386168152601e8252604081205580546000190190819055151561333a5761333a601f600061526f565b7f21619a95128e7e5c5367774b6479b6edbc059210239e39bbd50dbae00cfe09728484846040518084600160a060020a0316600160a060020a03168152602001838152602001828152602001935050505060405180910390a150505050565b60225481565b600b54600160a060020a031681565b60006133b8615290565b600160a060020a0333166000908152601e60205260409020549150811580156133e45750601754602054105b156114425760a06040519081016040908152428252600160a060020a033316602083015260019082018190526000606083018190526080830152601f8054929350909180830161343483826152be565b6000928352602090922084916002020181518155602082015160018201805473ffffffffffffffffffffffffffffffffffffffff1916600160a060020a039290921691909117905560408201518160010160146101000a81548160ff021916908360ff16021790555060608201518160010160156101000a81548160ff021916908360ff1602179055506080820151600190910180549115157601000000000000000000000000000000000000000000000276ff000000000000000000000000000000000000000000001990921691909117905550039150811515613602576001601f805480600101828161352991906152be565b6000928352602090922084916002020181518155602082015160018201805473ffffffffffffffffffffffffffffffffffffffff1916600160a060020a039290921691909117905560408201518160010160146101000a81548160ff021916908360ff16021790555060608201518160010160156101000a81548160ff021916908360ff1602179055506080820151600190910180549115157601000000000000000000000000000000000000000000000276ff0000000000000000000000000000000000000000000019909216919091179055500391505b63ffffffff8216821461361457600080fd5b33600160a060020a0381166000908152601e6020908152604091829020859055805460010190557f59470163a7d3423114f115af31707633dd4930abac0f3662fc3c4ef323f39a869190849051600160a060020a03909216825260208201526040908101905180910390a15090565b601b602052600090815260409020805460018201546002830154600384015460048501546005860154600690960154949593949293919290919060ff8082169161010090041688565b600760209081526000928352604080842090915290825290205481565b6000600360008154811015156136fb57fe5b906000526020600020906005020160000154905090565b61128781600161306d565b60205481565b601f80548290811061373157fe5b600091825260209091206002909102018054600190910154909150600160a060020a0381169060ff740100000000000000000000000000000000000000008204811691750100000000000000000000000000000000000000000081048216917601000000000000000000000000000000000000000000009091041685565b6137b76151b0565b6000828152600d6020526040812054905b600c5481101561380557818382815181106137df57fe5b60209081029091018101919091526000928352600d9052604090912054906001016137c8565b5050919050565b600860209081526000928352604080842090915290825290205481565b600a5433600160a060020a0390811691161461384157fe5b600a54600160a060020a038281169116141561385c57600080fd5b600b805473ffffffffffffffffffffffffffffffffffffffff1916600160a060020a0392909216919091179055565b6000600160a060020a03821615156138a257600080fd5b600160a060020a03831615156138b757600080fd5b50600160a060020a03918216600090815260096020908152604080832093909416825291909152205490565b60008060008060006138f58787614f5f565b93506139008461410a565b925061390c8787614f8d565b9150818310156139735761392087856112ff565b7f69186e91a26c2cd1f67397df408ddeb0db9249dbd6e2a428ad8ae0d59ba3bc88878588604051928352602083019190915260ff166040808301919091526060909101905180910390a160019450613b8a565b600e805460ff881690811061398457fe5b906000526020600020906006020160010154600e8760ff168154811015156139a857fe5b90600052602060002090600602016003015414156139c95760009450613b8a565b613abb60006003868154811015156139dd57fe5b90600052602060002090600502016001018054600181600116156101000203166002900480601f016020809104026020016040519081016040528092919081815260200182805460018160011615610100020316600290048015613a825780601f10613a5757610100808354040283529160200191613a82565b820191906000526020600020905b815481529060010190602001808311613a6557829003601f168201915b5050505050600387815481101515613a9657fe5b6000918252602090912060026005909202010154600a54600160a060020a0316614fbe565b90508015613b8557613ad081600188036138e3565b15613b8557613adf87826112ff565b7f69186e91a26c2cd1f67397df408ddeb0db9249dbd6e2a428ad8ae0d59ba3bc88878288604051928352602083019190915260ff166040808301919091526060909101905180910390a180600e8760ff16815481101515613b3c57fe5b6000918252602090912060046006909202010155600e805460ff8816908110613b6157fe5b60009182526020909120600360069092020101805460019081019091559450613b8a565b600094505b5050505092915050565b6000808080808080808815801590613bad575060035489105b1515613bb857600080fd5b6001600c540360038a815481101515613bcd57fe5b906000526020600020906005020160030154141515613beb57600080fd5b6000898152600d60205260409020549650861515613c0857600080fd5b6000878152600d60205260409020549550851515613c2557600080fd5b6000868152600d60205260409020549450841515613c4257600080fd5b6064600e6002815481101515613c5457fe5b90600052602060002090600602016005015460038b815481101515613c7557fe5b90600052602060002090600502016000015402811515613c9157fe5b049350831515613ca057600080fd5b6064600e6001815481101515613cb257fe5b90600052602060002090600602016005015460038b815481101515613cd357fe5b90600052602060002090600502016000015402811515613cef57fe5b049250821515613cfe57600080fd5b6064600e6000815481101515613d1057fe5b90600052602060002090600602016005015460038b815481101515613d3157fe5b90600052602060002090600502016000015402811515613d4d57fe5b049150811515613d5c57600080fd5b81838560038c815481101515613d6e57fe5b60009182526020909120600590910201540303039050801515613d9057600080fd5b83600388815481101515613da057fe5b90600052602060002090600502016000015401600388815481101515613dc257fe5b60009182526020909120600590910201556003805484919088908110613de457fe5b90600052602060002090600502016000015401600387815481101515613e0657fe5b60009182526020909120600590910201556003805483919087908110613e2857fe5b90600052602060002090600502016000015401600386815481101515613e4a57fe5b60009182526020822060059091020191909155600380548392908110613e6c57fe5b9060005260206000209060050201600001540160036000815481101515613e8f57fe5b60009182526020822060059091020191909155600380548b908110613eb057fe5b60009182526020909120600590910201557fcfd3c3fcdcb63bcee48ff9a9ec28351afef5ba4fc9b5a8f46d5aa65565a3b1a38983858785604051808681526020018581526020018481526020018381526020018281526020019550505050505060405180910390a150600198975050505050505050565b600090815260046020526040902054600160a060020a0391821691161490565b600091825260066020526040909120805473ffffffffffffffffffffffffffffffffffffffff1916600160a060020a03909216919091179055565b600090815260066020526040902054600160a060020a0391821691161490565b610400600382815481101515613fb457fe5b90600052602060002090600502016004015414151515613fd057fe5b600160a060020a0380831660008181526005602090815260408083208054600101905585835260049091529020805473ffffffffffffffffffffffffffffffffffffffff1916909117905583161561406b57600160a060020a0383166000908152600560209081526040808320805460001901905583835260069091529020805473ffffffffffffffffffffffffffffffffffffffff191690555b7fddf252ad1be2c89b69c2b068fc378daa952ba7f163c4a11628f55a4df523b3ef838383604051600160a060020a039384168152919092166020820152604080820192909252606001905180910390a1505050565b60006140ca6151b0565b60006140d584614318565b9150815190508015156140eb5760009250613805565b816000815181106140f857fe5b90602001906020020151949350505050565b60008080831580159061411e575060035484105b151561412957600080fd5b61413161142b565b915060009250600190505b818111613805576000818152600d6020526040902054841415614160576001909201915b60010161413c565b6141728383613f27565b151561417d57600080fd5b80151561418957600080fd5b8060038381548110151561419957fe5b600091825260209091206005909102015410156141b557600080fd5b806003838154811015156141c557fe5b906000526020600020906005020160000154036003838154811015156141e757fe5b60009182526020909120600590910201557f45dacd427fd388bf162986dbc958cdcf160c31b40efe076907cff377b9857c798383836040518084600160a060020a0316600160a060020a03168152602001838152602001828152602001935050505060405180910390a1505050565b6142608383613f27565b151561426b57600080fd5b80151561427757600080fd5b8060038381548110151561428757fe5b906000526020600020906005020160000154016003838154811015156142a957fe5b60009182526020909120600590910201557f20f4934a3b4928cca0e51f3f1eaac12dee9af151a8a8ba5a424a89d93f6bf53d8383836040518084600160a060020a0316600160a060020a03168152602001838152602001828152602001935050505060405180910390a1505050565b6143206151b0565b600061432a6151b0565b60008080600160a060020a038716151561434357600080fd5b61434c87611c28565b945084151561437c5760006040518059106143645750595b90808252806020026020018201604052509550614403565b8460405180591061438a5750595b908082528060200260200182016040525093506143a561142b565b925060009150600190505b8281116143ff57600081815260046020526040902054600160a060020a03888116911614156143f757808483806001019450815181106143ec57fe5b602090810290910101525b6001016143b0565b8395505b5050505050919050565b6000828152600d6020526040812054818082151561442a57600080fd5b6000838152600d6020526040902054915081151561444757600080fd5b506000818152600d602052604090205480151561446357600080fd5b600380548490811061447157fe5b600091825260209091206005909102015485116144915760019350611786565b600380548490811061449f57fe5b9060005260206000209060050201600001546003838154811015156144c057fe5b60009182526020909120600590910201540185116144e15760019350611786565b60038054849081106144ef57fe5b90600052602060002090600502016000015460038381548110151561451057fe5b90600052602060002090600502016000015460038381548110151561453157fe5b6000918252602090912060059091020154010185116117865750600195945050505050565b61455e6151c2565b600080808515801590614572575060035486105b151561457d57600080fd5b84151561458957600080fd5b60008085526020808601829052604080870183905260608701839052888352600d90915290205492508215156145be57600080fd5b6000838152600d602052604090205491508115156145db57600080fd5b506000818152600d60205260409020548015156145f757600080fd5b600380548490811061460557fe5b600091825260209091206005909102015485116146b5576040840185815251600380548590811061463257fe5b9060005260206000209060050201600001540360038481548110151561465457fe5b60009182526020909120600590910201557f7c6ae15e271230e8f8b92de835be76e504f4bb32c5c02872b19e167d6d100fbf86866002604051928352602083019190915260ff166040808301919091526060909101905180910390a1611786565b60038054849081106146c357fe5b9060005260206000209060050201600001546003838154811015156146e457fe5b6000918252602090912060059091020154018511614857577ff5e9c26d6f4f4192de6ab81062e5f90501d77f924b508e44728a2b78d3c12c6d8684876002604051938452602084019290925260408084019190915260ff90911660608301526080909101905180910390a1600380548490811061475d57fe5b6000918252602091829020600590910201546040860190815290850186905251600380548590811061478b57fe5b906000526020600020906005020160000154036003848154811015156147ad57fe5b6000918252602090912060059091020155836001602002015160038054849081106147d457fe5b906000526020600020906005020160000154036003838154811015156147f657fe5b60009182526020909120600590910201557f7c6ae15e271230e8f8b92de835be76e504f4bb32c5c02872b19e167d6d100fbf86866001604051928352602083019190915260ff166040808301919091526060909101905180910390a1611786565b600380548490811061486557fe5b90600052602060002090600502016000015460038381548110151561488657fe5b9060005260206000209060050201600001546003838154811015156148a757fe5b600091825260209091206005909102015401018511614a84577ff5e9c26d6f4f4192de6ab81062e5f90501d77f924b508e44728a2b78d3c12c6d8683876001604051938452602084019290925260408084019190915260ff90911660608301526080909101905180910390a1600380548490811061492157fe5b60009182526020909120600590910201546040850152600380548390811061494557fe5b600091825260209182902060059091020154908501528484526040840151600380548590811061497157fe5b9060005260206000209060050201600001540360038481548110151561499357fe5b6000918252602090912060059091020155836001602002015160038054849081106149ba57fe5b906000526020600020906005020160000154036003838154811015156149dc57fe5b6000918252602090912060059091020155835160038054839081106149fd57fe5b90600052602060002090600502016000015403600382815481101515614a1f57fe5b9060005260206000209060050201600001819055507f7c6ae15e271230e8f8b92de835be76e504f4bb32c5c02872b19e167d6d100fbf86866000604051928352602083019190915260ff166040808301919091526060909101905180910390a1611786565b7ff5e9c26d6f4f4192de6ab81062e5f90501d77f924b508e44728a2b78d3c12c6d8682876000604051938452602084019290925260408084019190915260ff90911660608301526080909101905180910390a17f95f5c188d1321fe8984cadebc18c8fcaddc6cedbf14ee92f03f318c0e2038485868660405191825260208201526040908101905180910390a150505092915050565b801515614b2657600080fd5b614b303382613f27565b1515614b3b57600080fd5b6000818152601b60205260409020600301541515614b5857600080fd5b6000818152601b602052604090206006015460ff6101009091041660011415614b8057600080fd5b610400600382815481101515614b9257fe5b6000918252602080832060059283020160040193909355838252601b90925260409081902060068101805461ff00191661010017905542600182015560038101549201547ff5d2d36fd2c60192fd8f874c962737f1858ff797bf9865d071ade33eeee007019284929091905180848152602001838152602001828152602001935050505060405180910390a150565b600080614c648360408051908101604052600c81527f43726f7764737572616e636500000000000000000000000000000000000000006020820152600088614fbe565b90506101006040519081016040528042815260200160008152602001600f60010154815260200184815260200160008152602001858152602001600060ff16815260200160006005811115614cb557fe5b60ff1690526000828152601b60205260409020815181556020820151816001015560408201518160020155606082015181600301556080820151816004015560a0820151816005015560c082015160068201805460ff191660ff9290921691909117905560e08201516006909101805460ff929092166101000261ff001990921691909117905550614d4681610e25565b507fbca387acb0ba7d06e329c4372885bb664f19a98153ccf3e74e56c136bf0e88c48582856040518084600160a060020a0316600160a060020a03168152602001838152602001828152602001935050505060405180910390a1600160a060020a0385166000908152601960209081526040808320839055601a90915281205590509392505050565b614dd98585613f27565b1515614de457600080fd5b614dee8383613f27565b1515614df957600080fd5b801515614e0557600080fd5b83821415614e1257600080fd5b80600385815481101515614e2257fe5b60009182526020909120600590910201541015614e3e57600080fd5b610400600385815481101515614e5057fe5b90600052602060002090600502016004015414151515614e6f57600080fd5b80600385815481101515614e7f57fe5b90600052602060002090600502016000015403600385815481101515614ea157fe5b60009182526020909120600590910201556003805482919084908110614ec357fe5b90600052602060002090600502016000015401600383815481101515614ee557fe5b60009182526020909120600590910201557f6d401b913d27047ecd2042f0331e2354d30e664920b31480dc71955edb996c388585858585604051600160a060020a0395861681526020810194909452919093166040808401919091526060830193909352608082015260a001905180910390a15050505050565b6000600e8260ff16815481101515614f7357fe5b906000526020600020906006020160040154905092915050565b60006001600e8360ff16815481101515614fa357fe5b90600052602060002090600602016002015403905092915050565b6000614fc86152ea565b600060a060405190810160405280888152602001878152602001868152602001600081526020016000815250915060016003805480600101828161500c9190615320565b600092835260209092208591600502018151815560208201518160010190805161503a92916020019061534c565b5060408201518160020155606082015181600301556080820151600490910155500390508015156150ce5760016003805480600101828161507b9190615320565b60009283526020909220859160050201815181556020820151816001019080516150a992916020019061534c565b5060408201518160020155606082015181600301556080820151816004015550500390505b63ffffffff811681146150e057600080fd5b7fdea8e87d69047e1b3cd43ad599d34e3eacfe4408b4dfc5d0f6ac6a15a468de5c8787878760405184815260408101839052600160a060020a038216606082015260806020820181815290820185818151815260200191508051906020019080838360005b8381101561515d578082015183820152602001615145565b50505050905090810190601f16801561518a5780820380516001836020036101000a031916815260200191505b509550505050505060405180910390a16151a660008583613fa2565b9695505050505050565b60206040519081016040526000815290565b60806040519081016040526004815b60008152602001906001900390816151d15790505090565b506000815560010160008155600101600081556001016000815560010160009055565b8260058101928215615263579160200282015b82811115615263578251825473ffffffffffffffffffffffffffffffffffffffff1916600160a060020a03919091161782556020929092019160019091019061521f565b506114429291506153c6565b508054600082556002029060005260206000209081019061128791906153f7565b60a0604051908101604090815260008083526020830181905290820181905260608201819052608082015290565b8154818355818115116115da576002028160020283600052602060002091820191016115da91906153f7565b60a060405190810160405280600081526020016153056151b0565b81526020016000815260200160008152602001600081525090565b8154818355818115116115da576005028160050283600052602060002091820191016115da9190615433565b828054600181600116156101000203166002900490600052602060002090601f016020900481019282601f1061538d57805160ff19168380011785556153ba565b828001600101855582156153ba579182015b828111156153ba57825182559160200191906001019061539f565b50611442929150615471565b61120691905b8082111561144257805473ffffffffffffffffffffffffffffffffffffffff191681556001016153cc565b61120691905b80821115611442576000815560018101805476ffffffffffffffffffffffffffffffffffffffffffffff191690556002016153fd565b61120691905b80821115611442576000808255615453600183018261548b565b50600060028201819055600382018190556004820155600501615439565b61120691905b808211156114425760008155600101615477565b50805460018160011615610100020316600290046000825580601f106154b15750611287565b601f01602090049060005260206000209081019061128791906154715600a165627a7a72305820019e6ea6c45a81fc779d57ee74a3c78410f1505478b79266e9414b5b15e4c2dd0029",
  "source": "pragma solidity ^0.4.17;\n\nimport \"./LuggageCrowdsurance.sol\";\n\ncontract LCSToken is LuggageCrowdsurance {\n  \n  function LCSToken(address _rst) LuggageCrowdsurance(_rst, uint256(0), false, uint8(0)) public {\n    _rst;\n  }\n}",
  "sourcePath": "/Users/sergei/LuggageCrowdsurance/contracts/LCSToken.sol",
  "compiler": {
    "name": "solc",
    "version": "0.4.18+commit.9cf6e910.Emscripten.clang"
  },
  "schemaVersion": "1.0.1",
  "updatedAt": "2018-05-17T07:19:34.411Z"
}