{
  "contractName": "LCSToken",
  "abi": [
    {
      "constant": false,
      "inputs": [
        {
          "name": "_id",
          "type": "uint256"
        }
      ],
      "name": "insertPool",
      "outputs": [
        {
          "name": "",
          "type": "bool"
        }
      ],
      "payable": false,
      "stateMutability": "nonpayable",
      "type": "function"
    },
    {
      "constant": true,
      "inputs": [
        {
          "name": "_interfaceID",
          "type": "bytes4"
        }
      ],
      "name": "supportsInterface",
      "outputs": [
        {
          "name": "",
          "type": "bool"
        }
      ],
      "payable": false,
      "stateMutability": "view",
      "type": "function"
    },
    {
      "constant": true,
      "inputs": [],
      "name": "name",
      "outputs": [
        {
          "name": "",
          "type": "string"
        }
      ],
      "payable": false,
      "stateMutability": "view",
      "type": "function"
    },
    {
      "constant": false,
      "inputs": [
        {
          "name": "_to",
          "type": "address"
        },
        {
          "name": "_tokenId",
          "type": "uint256"
        }
      ],
      "name": "approve",
      "outputs": [],
      "payable": false,
      "stateMutability": "nonpayable",
      "type": "function"
    },
    {
      "constant": false,
      "inputs": [
        {
          "name": "_id",
          "type": "uint256"
        }
      ],
      "name": "castNegative",
      "outputs": [],
      "payable": false,
      "stateMutability": "nonpayable",
      "type": "function"
    },
    {
      "constant": true,
      "inputs": [
        {
          "name": "_id",
          "type": "uint256"
        }
      ],
      "name": "votingStatus",
      "outputs": [
        {
          "name": "state",
          "type": "uint8"
        },
        {
          "name": "positive",
          "type": "uint8"
        },
        {
          "name": "negative",
          "type": "uint8"
        },
        {
          "name": "payment",
          "type": "uint256"
        },
        {
          "name": "balance",
          "type": "uint256"
        }
      ],
      "payable": false,
      "stateMutability": "view",
      "type": "function"
    },
    {
      "constant": false,
      "inputs": [
        {
          "name": "_nodeId",
          "type": "uint256"
        },
        {
          "name": "_parentId",
          "type": "uint256"
        }
      ],
      "name": "addToken",
      "outputs": [],
      "payable": false,
      "stateMutability": "nonpayable",
      "type": "function"
    },
    {
      "constant": true,
      "inputs": [],
      "name": "totalSupply",
      "outputs": [
        {
          "name": "",
          "type": "uint256"
        }
      ],
      "payable": false,
      "stateMutability": "view",
      "type": "function"
    },
    {
      "constant": true,
      "inputs": [],
      "name": "getAppID",
      "outputs": [
        {
          "name": "appId",
          "type": "uint256"
        }
      ],
      "payable": false,
      "stateMutability": "view",
      "type": "function"
    },
    {
      "constant": true,
      "inputs": [
        {
          "name": "_id",
          "type": "uint256"
        },
        {
          "name": "_value",
          "type": "uint256"
        }
      ],
      "name": "checkPaymentAmount",
      "outputs": [
        {
          "name": "level",
          "type": "uint8"
        },
        {
          "name": "amtSubPool",
          "type": "uint256"
        },
        {
          "name": "amtPool",
          "type": "uint256"
        },
        {
          "name": "amtSuperPool",
          "type": "uint256"
        },
        {
          "name": "balance",
          "type": "uint256"
        }
      ],
      "payable": false,
      "stateMutability": "view",
      "type": "function"
    },
    {
      "constant": true,
      "inputs": [],
      "name": "getDistribution",
      "outputs": [
        {
          "name": "distribution",
          "type": "uint256[4]"
        }
      ],
      "payable": false,
      "stateMutability": "view",
      "type": "function"
    },
    {
      "constant": true,
      "inputs": [
        {
          "name": "",
          "type": "uint256"
        }
      ],
      "name": "tokenIndexToOwner",
      "outputs": [
        {
          "name": "",
          "type": "address"
        }
      ],
      "payable": false,
      "stateMutability": "view",
      "type": "function"
    },
    {
      "constant": true,
      "inputs": [],
      "name": "RST",
      "outputs": [
        {
          "name": "",
          "type": "address"
        }
      ],
      "payable": false,
      "stateMutability": "view",
      "type": "function"
    },
    {
      "constant": false,
      "inputs": [
        {
          "name": "_from",
          "type": "address"
        },
        {
          "name": "_to",
          "type": "address"
        },
        {
          "name": "_tokenId",
          "type": "uint256"
        }
      ],
      "name": "transferFrom",
      "outputs": [],
      "payable": false,
      "stateMutability": "nonpayable",
      "type": "function"
    },
    {
      "constant": false,
      "inputs": [
        {
          "name": "_to",
          "type": "address"
        },
        {
          "name": "_toId",
          "type": "uint256"
        },
        {
          "name": "_level",
          "type": "uint256"
        }
      ],
      "name": "setLevel",
      "outputs": [],
      "payable": false,
      "stateMutability": "nonpayable",
      "type": "function"
    },
    {
      "constant": false,
      "inputs": [
        {
          "name": "_spender",
          "type": "address"
        },
        {
          "name": "_value",
          "type": "uint256"
        }
      ],
      "name": "cApprove",
      "outputs": [
        {
          "name": "success",
          "type": "bool"
        }
      ],
      "payable": false,
      "stateMutability": "nonpayable",
      "type": "function"
    },
    {
      "constant": false,
      "inputs": [
        {
          "name": "_nodeId",
          "type": "uint256"
        }
      ],
      "name": "removeToken",
      "outputs": [],
      "payable": false,
      "stateMutability": "nonpayable",
      "type": "function"
    },
    {
      "constant": false,
      "inputs": [
        {
          "name": "_to",
          "type": "address"
        },
        {
          "name": "_toId",
          "type": "uint256"
        }
      ],
      "name": "increaseLevel",
      "outputs": [],
      "payable": false,
      "stateMutability": "nonpayable",
      "type": "function"
    },
    {
      "constant": true,
      "inputs": [
        {
          "name": "",
          "type": "address"
        }
      ],
      "name": "addressToAmount",
      "outputs": [
        {
          "name": "",
          "type": "uint256"
        }
      ],
      "payable": false,
      "stateMutability": "view",
      "type": "function"
    },
    {
      "constant": false,
      "inputs": [
        {
          "name": "_from",
          "type": "address"
        },
        {
          "name": "_fromId",
          "type": "uint256"
        },
        {
          "name": "_amount",
          "type": "uint256"
        }
      ],
      "name": "cDestroy",
      "outputs": [],
      "payable": false,
      "stateMutability": "nonpayable",
      "type": "function"
    },
    {
      "constant": true,
      "inputs": [],
      "name": "paybackRatio",
      "outputs": [
        {
          "name": "",
          "type": "uint8"
        }
      ],
      "payable": false,
      "stateMutability": "view",
      "type": "function"
    },
    {
      "constant": true,
      "inputs": [],
      "name": "getApplication",
      "outputs": [
        {
          "name": "member",
          "type": "address"
        },
        {
          "name": "appId",
          "type": "uint256"
        }
      ],
      "payable": false,
      "stateMutability": "view",
      "type": "function"
    },
    {
      "constant": true,
      "inputs": [],
      "name": "ETHOnly",
      "outputs": [
        {
          "name": "",
          "type": "bool"
        }
      ],
      "payable": false,
      "stateMutability": "view",
      "type": "function"
    },
    {
      "constant": false,
      "inputs": [
        {
          "name": "_to",
          "type": "address"
        },
        {
          "name": "_toId",
          "type": "uint256"
        },
        {
          "name": "_amount",
          "type": "uint256"
        }
      ],
      "name": "cIssue",
      "outputs": [],
      "payable": false,
      "stateMutability": "nonpayable",
      "type": "function"
    },
    {
      "constant": true,
      "inputs": [
        {
          "name": "_tokenId",
          "type": "uint256"
        }
      ],
      "name": "ownerOf",
      "outputs": [
        {
          "name": "",
          "type": "address"
        }
      ],
      "payable": false,
      "stateMutability": "view",
      "type": "function"
    },
    {
      "constant": false,
      "inputs": [
        {
          "name": "_to",
          "type": "address"
        },
        {
          "name": "_value",
          "type": "uint256"
        }
      ],
      "name": "cTransfer",
      "outputs": [
        {
          "name": "success",
          "type": "bool"
        }
      ],
      "payable": false,
      "stateMutability": "nonpayable",
      "type": "function"
    },
    {
      "constant": true,
      "inputs": [
        {
          "name": "_tokenId",
          "type": "uint256"
        }
      ],
      "name": "tokenMetadata",
      "outputs": [
        {
          "name": "infoUrl",
          "type": "string"
        }
      ],
      "payable": false,
      "stateMutability": "view",
      "type": "function"
    },
    {
      "constant": true,
      "inputs": [
        {
          "name": "_owner",
          "type": "address"
        }
      ],
      "name": "balanceOf",
      "outputs": [
        {
          "name": "count",
          "type": "uint256"
        }
      ],
      "payable": false,
      "stateMutability": "view",
      "type": "function"
    },
    {
      "constant": false,
      "inputs": [],
      "name": "acceptOwnership",
      "outputs": [],
      "payable": false,
      "stateMutability": "nonpayable",
      "type": "function"
    },
    {
      "constant": true,
      "inputs": [
        {
          "name": "",
          "type": "uint256"
        }
      ],
      "name": "requests",
      "outputs": [
        {
          "name": "amount",
          "type": "uint256"
        },
        {
          "name": "timeStamp",
          "type": "uint256"
        },
        {
          "name": "duration",
          "type": "uint256"
        },
        {
          "name": "positive",
          "type": "uint8"
        },
        {
          "name": "negative",
          "type": "uint8"
        },
        {
          "name": "number",
          "type": "uint8"
        }
      ],
      "payable": false,
      "stateMutability": "view",
      "type": "function"
    },
    {
      "constant": true,
      "inputs": [
        {
          "name": "_owner",
          "type": "address"
        }
      ],
      "name": "tokensOfOwner",
      "outputs": [
        {
          "name": "ownerTokens",
          "type": "uint256[]"
        }
      ],
      "payable": false,
      "stateMutability": "view",
      "type": "function"
    },
    {
      "constant": true,
      "inputs": [],
      "name": "parameters",
      "outputs": [
        {
          "name": "joinAmount",
          "type": "uint256"
        },
        {
          "name": "coverageDuration",
          "type": "uint256"
        },
        {
          "name": "maxClaimAmount",
          "type": "uint256"
        },
        {
          "name": "maxClaimNumber",
          "type": "uint8"
        },
        {
          "name": "paymentRatio",
          "type": "uint8"
        },
        {
          "name": "maxPaymentAmount",
          "type": "uint256"
        },
        {
          "name": "minJuriesNumber",
          "type": "uint8"
        },
        {
          "name": "votingDuration",
          "type": "uint256"
        },
        {
          "name": "juriesNumber",
          "type": "uint8"
        },
        {
          "name": "maxApplications",
          "type": "uint256"
        },
        {
          "name": "averageScore",
          "type": "uint256"
        }
      ],
      "payable": false,
      "stateMutability": "view",
      "type": "function"
    },
    {
      "constant": false,
      "inputs": [],
      "name": "transferCommission",
      "outputs": [],
      "payable": false,
      "stateMutability": "nonpayable",
      "type": "function"
    },
    {
      "constant": false,
      "inputs": [
        {
          "name": "_id",
          "type": "uint256"
        }
      ],
      "name": "payment",
      "outputs": [],
      "payable": false,
      "stateMutability": "nonpayable",
      "type": "function"
    },
    {
      "constant": true,
      "inputs": [],
      "name": "owner",
      "outputs": [
        {
          "name": "",
          "type": "address"
        }
      ],
      "payable": false,
      "stateMutability": "view",
      "type": "function"
    },
    {
      "constant": true,
      "inputs": [],
      "name": "cTotalSupply",
      "outputs": [
        {
          "name": "",
          "type": "uint256"
        }
      ],
      "payable": false,
      "stateMutability": "view",
      "type": "function"
    },
    {
      "constant": false,
      "inputs": [
        {
          "name": "_id",
          "type": "uint256"
        }
      ],
      "name": "getPayback",
      "outputs": [],
      "payable": false,
      "stateMutability": "nonpayable",
      "type": "function"
    },
    {
      "constant": true,
      "inputs": [],
      "name": "symbol",
      "outputs": [
        {
          "name": "",
          "type": "string"
        }
      ],
      "payable": false,
      "stateMutability": "view",
      "type": "function"
    },
    {
      "constant": false,
      "inputs": [
        {
          "name": "_fromId",
          "type": "uint256"
        },
        {
          "name": "_spender",
          "type": "address"
        },
        {
          "name": "_toId",
          "type": "uint256"
        },
        {
          "name": "_value",
          "type": "uint256"
        }
      ],
      "name": "cApproveFrom",
      "outputs": [
        {
          "name": "success",
          "type": "bool"
        }
      ],
      "payable": false,
      "stateMutability": "nonpayable",
      "type": "function"
    },
    {
      "constant": true,
      "inputs": [],
      "name": "maxHold",
      "outputs": [
        {
          "name": "",
          "type": "uint8"
        }
      ],
      "payable": false,
      "stateMutability": "view",
      "type": "function"
    },
    {
      "constant": true,
      "inputs": [
        {
          "name": "",
          "type": "uint256"
        }
      ],
      "name": "tokenIndexToPoolToken",
      "outputs": [
        {
          "name": "",
          "type": "uint256"
        }
      ],
      "payable": false,
      "stateMutability": "view",
      "type": "function"
    },
    {
      "constant": true,
      "inputs": [],
      "name": "getJoinAmount",
      "outputs": [
        {
          "name": "amount",
          "type": "uint256"
        }
      ],
      "payable": false,
      "stateMutability": "view",
      "type": "function"
    },
    {
      "constant": false,
      "inputs": [],
      "name": "fssf",
      "outputs": [],
      "payable": false,
      "stateMutability": "nonpayable",
      "type": "function"
    },
    {
      "constant": true,
      "inputs": [
        {
          "name": "",
          "type": "address"
        }
      ],
      "name": "voters",
      "outputs": [
        {
          "name": "",
          "type": "uint256"
        }
      ],
      "payable": false,
      "stateMutability": "view",
      "type": "function"
    },
    {
      "constant": true,
      "inputs": [
        {
          "name": "",
          "type": "uint256"
        }
      ],
      "name": "payback",
      "outputs": [
        {
          "name": "",
          "type": "uint256"
        }
      ],
      "payable": false,
      "stateMutability": "view",
      "type": "function"
    },
    {
      "constant": true,
      "inputs": [
        {
          "name": "",
          "type": "uint256"
        }
      ],
      "name": "tokenIndexToApproved",
      "outputs": [
        {
          "name": "",
          "type": "address"
        }
      ],
      "payable": false,
      "stateMutability": "view",
      "type": "function"
    },
    {
      "constant": false,
      "inputs": [
        {
          "name": "_to",
          "type": "address"
        },
        {
          "name": "_tokenId",
          "type": "uint256"
        }
      ],
      "name": "transfer",
      "outputs": [],
      "payable": false,
      "stateMutability": "nonpayable",
      "type": "function"
    },
    {
      "constant": true,
      "inputs": [],
      "name": "getScore",
      "outputs": [
        {
          "name": "score",
          "type": "uint256"
        }
      ],
      "payable": false,
      "stateMutability": "view",
      "type": "function"
    },
    {
      "constant": true,
      "inputs": [
        {
          "name": "_to",
          "type": "address"
        },
        {
          "name": "_toId",
          "type": "uint256"
        }
      ],
      "name": "getLevel",
      "outputs": [
        {
          "name": "",
          "type": "uint256"
        }
      ],
      "payable": false,
      "stateMutability": "view",
      "type": "function"
    },
    {
      "constant": false,
      "inputs": [
        {
          "name": "_id",
          "type": "uint256"
        },
        {
          "name": "_amount",
          "type": "uint256"
        }
      ],
      "name": "setPayback",
      "outputs": [
        {
          "name": "",
          "type": "bool"
        }
      ],
      "payable": false,
      "stateMutability": "nonpayable",
      "type": "function"
    },
    {
      "constant": true,
      "inputs": [
        {
          "name": "_owner",
          "type": "address"
        }
      ],
      "name": "cBalanceOf",
      "outputs": [
        {
          "name": "",
          "type": "uint256"
        }
      ],
      "payable": false,
      "stateMutability": "view",
      "type": "function"
    },
    {
      "constant": false,
      "inputs": [
        {
          "name": "_id",
          "type": "uint256"
        }
      ],
      "name": "activate",
      "outputs": [],
      "payable": false,
      "stateMutability": "nonpayable",
      "type": "function"
    },
    {
      "constant": false,
      "inputs": [],
      "name": "join",
      "outputs": [
        {
          "name": "cowdsuranceId",
          "type": "uint256"
        }
      ],
      "payable": true,
      "stateMutability": "payable",
      "type": "function"
    },
    {
      "constant": false,
      "inputs": [
        {
          "name": "_jury",
          "type": "address"
        },
        {
          "name": "_id",
          "type": "uint256"
        }
      ],
      "name": "addVoter",
      "outputs": [],
      "payable": false,
      "stateMutability": "nonpayable",
      "type": "function"
    },
    {
      "constant": true,
      "inputs": [],
      "name": "rstETHRate",
      "outputs": [
        {
          "name": "",
          "type": "uint256"
        }
      ],
      "payable": false,
      "stateMutability": "view",
      "type": "function"
    },
    {
      "constant": true,
      "inputs": [
        {
          "name": "",
          "type": "address"
        }
      ],
      "name": "addressToApplication",
      "outputs": [
        {
          "name": "",
          "type": "uint256"
        }
      ],
      "payable": false,
      "stateMutability": "view",
      "type": "function"
    },
    {
      "constant": false,
      "inputs": [
        {
          "name": "_from",
          "type": "address"
        },
        {
          "name": "_to",
          "type": "address"
        },
        {
          "name": "_value",
          "type": "uint256"
        }
      ],
      "name": "cTransferFrom",
      "outputs": [
        {
          "name": "success",
          "type": "bool"
        }
      ],
      "payable": false,
      "stateMutability": "nonpayable",
      "type": "function"
    },
    {
      "constant": true,
      "inputs": [
        {
          "name": "_member",
          "type": "address"
        },
        {
          "name": "_status",
          "type": "uint8"
        }
      ],
      "name": "statusCount",
      "outputs": [
        {
          "name": "count",
          "type": "uint256"
        }
      ],
      "payable": false,
      "stateMutability": "view",
      "type": "function"
    },
    {
      "constant": false,
      "inputs": [
        {
          "name": "_id",
          "type": "uint256"
        },
        {
          "name": "_claim",
          "type": "uint256"
        }
      ],
      "name": "claim",
      "outputs": [
        {
          "name": "",
          "type": "bool"
        }
      ],
      "payable": false,
      "stateMutability": "nonpayable",
      "type": "function"
    },
    {
      "constant": true,
      "inputs": [
        {
          "name": "",
          "type": "address"
        }
      ],
      "name": "addressToScore",
      "outputs": [
        {
          "name": "",
          "type": "uint256"
        }
      ],
      "payable": false,
      "stateMutability": "view",
      "type": "function"
    },
    {
      "constant": false,
      "inputs": [
        {
          "name": "_id",
          "type": "uint256"
        },
        {
          "name": "_positive",
          "type": "bool"
        }
      ],
      "name": "vote",
      "outputs": [],
      "payable": false,
      "stateMutability": "nonpayable",
      "type": "function"
    },
    {
      "constant": true,
      "inputs": [
        {
          "name": "_tokenId",
          "type": "uint256"
        }
      ],
      "name": "valueOf",
      "outputs": [
        {
          "name": "value",
          "type": "uint256"
        }
      ],
      "payable": false,
      "stateMutability": "view",
      "type": "function"
    },
    {
      "constant": true,
      "inputs": [
        {
          "name": "",
          "type": "address"
        },
        {
          "name": "",
          "type": "address"
        }
      ],
      "name": "allowanceAmt",
      "outputs": [
        {
          "name": "",
          "type": "uint256"
        }
      ],
      "payable": false,
      "stateMutability": "view",
      "type": "function"
    },
    {
      "constant": true,
      "inputs": [],
      "name": "maxLevel",
      "outputs": [
        {
          "name": "",
          "type": "uint256"
        }
      ],
      "payable": false,
      "stateMutability": "view",
      "type": "function"
    },
    {
      "constant": false,
      "inputs": [
        {
          "name": "_member",
          "type": "address"
        },
        {
          "name": "_score",
          "type": "uint256"
        },
        {
          "name": "_amount",
          "type": "uint256"
        }
      ],
      "name": "scoring",
      "outputs": [],
      "payable": false,
      "stateMutability": "nonpayable",
      "type": "function"
    },
    {
      "constant": true,
      "inputs": [],
      "name": "joinAmountRST",
      "outputs": [
        {
          "name": "",
          "type": "uint256"
        }
      ],
      "payable": false,
      "stateMutability": "view",
      "type": "function"
    },
    {
      "constant": true,
      "inputs": [],
      "name": "newOwner",
      "outputs": [
        {
          "name": "",
          "type": "address"
        }
      ],
      "payable": false,
      "stateMutability": "view",
      "type": "function"
    },
    {
      "constant": false,
      "inputs": [],
      "name": "apply",
      "outputs": [
        {
          "name": "addId",
          "type": "uint256"
        }
      ],
      "payable": false,
      "stateMutability": "nonpayable",
      "type": "function"
    },
    {
      "constant": true,
      "inputs": [
        {
          "name": "",
          "type": "uint256"
        }
      ],
      "name": "extensions",
      "outputs": [
        {
          "name": "timeStamp",
          "type": "uint256"
        },
        {
          "name": "activated",
          "type": "uint256"
        },
        {
          "name": "duration",
          "type": "uint256"
        },
        {
          "name": "amount",
          "type": "uint256"
        },
        {
          "name": "paid",
          "type": "uint256"
        },
        {
          "name": "score",
          "type": "uint256"
        },
        {
          "name": "claimNumber",
          "type": "uint8"
        },
        {
          "name": "status",
          "type": "uint8"
        }
      ],
      "payable": false,
      "stateMutability": "view",
      "type": "function"
    },
    {
      "constant": true,
      "inputs": [
        {
          "name": "",
          "type": "address"
        },
        {
          "name": "",
          "type": "address"
        }
      ],
      "name": "allowance",
      "outputs": [
        {
          "name": "",
          "type": "uint256"
        }
      ],
      "payable": false,
      "stateMutability": "view",
      "type": "function"
    },
    {
      "constant": true,
      "inputs": [],
      "name": "getComission",
      "outputs": [
        {
          "name": "commission",
          "type": "uint256"
        }
      ],
      "payable": false,
      "stateMutability": "view",
      "type": "function"
    },
    {
      "constant": false,
      "inputs": [
        {
          "name": "_id",
          "type": "uint256"
        }
      ],
      "name": "castPositive",
      "outputs": [],
      "payable": false,
      "stateMutability": "nonpayable",
      "type": "function"
    },
    {
      "constant": true,
      "inputs": [],
      "name": "appNumber",
      "outputs": [
        {
          "name": "",
          "type": "uint256"
        }
      ],
      "payable": false,
      "stateMutability": "view",
      "type": "function"
    },
    {
      "constant": true,
      "inputs": [
        {
          "name": "",
          "type": "uint256"
        }
      ],
      "name": "applications",
      "outputs": [
        {
          "name": "timeStamp",
          "type": "uint256"
        },
        {
          "name": "member",
          "type": "address"
        },
        {
          "name": "tokensToBuy",
          "type": "uint8"
        },
        {
          "name": "paymetMethod",
          "type": "uint8"
        },
        {
          "name": "processed",
          "type": "bool"
        }
      ],
      "payable": false,
      "stateMutability": "view",
      "type": "function"
    },
    {
      "constant": true,
      "inputs": [
        {
          "name": "_nodeId",
          "type": "uint256"
        }
      ],
      "name": "getPath",
      "outputs": [
        {
          "name": "path",
          "type": "uint256[]"
        }
      ],
      "payable": false,
      "stateMutability": "view",
      "type": "function"
    },
    {
      "constant": true,
      "inputs": [
        {
          "name": "",
          "type": "address"
        },
        {
          "name": "",
          "type": "address"
        }
      ],
      "name": "allowanceIds",
      "outputs": [
        {
          "name": "",
          "type": "uint256"
        }
      ],
      "payable": false,
      "stateMutability": "view",
      "type": "function"
    },
    {
      "constant": false,
      "inputs": [
        {
          "name": "_newOwner",
          "type": "address"
        }
      ],
      "name": "transferOwnership",
      "outputs": [],
      "payable": false,
      "stateMutability": "nonpayable",
      "type": "function"
    },
    {
      "constant": true,
      "inputs": [
        {
          "name": "_owner",
          "type": "address"
        },
        {
          "name": "_spender",
          "type": "address"
        }
      ],
      "name": "cAllowance",
      "outputs": [
        {
          "name": "",
          "type": "uint256"
        }
      ],
      "payable": false,
      "stateMutability": "view",
      "type": "function"
    },
    {
      "inputs": [
        {
          "name": "_rst",
          "type": "address"
        }
      ],
      "payable": false,
      "stateMutability": "nonpayable",
      "type": "constructor"
    },
    {
      "payable": true,
      "stateMutability": "payable",
      "type": "fallback"
    },
    {
      "anonymous": false,
      "inputs": [
        {
          "indexed": false,
          "name": "member",
          "type": "address"
        },
        {
          "indexed": false,
          "name": "appId",
          "type": "uint256"
        }
      ],
      "name": "Apply",
      "type": "event"
    },
    {
      "anonymous": false,
      "inputs": [
        {
          "indexed": false,
          "name": "member",
          "type": "address"
        },
        {
          "indexed": false,
          "name": "id",
          "type": "uint256"
        },
        {
          "indexed": false,
          "name": "amount",
          "type": "uint256"
        }
      ],
      "name": "Join",
      "type": "event"
    },
    {
      "anonymous": false,
      "inputs": [
        {
          "indexed": false,
          "name": "member",
          "type": "address"
        },
        {
          "indexed": false,
          "name": "score",
          "type": "uint256"
        },
        {
          "indexed": false,
          "name": "amount",
          "type": "uint256"
        }
      ],
      "name": "Scoring",
      "type": "event"
    },
    {
      "anonymous": false,
      "inputs": [
        {
          "indexed": false,
          "name": "id",
          "type": "uint256"
        },
        {
          "indexed": false,
          "name": "amount",
          "type": "uint256"
        },
        {
          "indexed": false,
          "name": "score",
          "type": "uint256"
        }
      ],
      "name": "Activate",
      "type": "event"
    },
    {
      "anonymous": false,
      "inputs": [
        {
          "indexed": false,
          "name": "id",
          "type": "uint256"
        },
        {
          "indexed": false,
          "name": "claim",
          "type": "uint256"
        },
        {
          "indexed": false,
          "name": "number",
          "type": "uint8"
        }
      ],
      "name": "Claim",
      "type": "event"
    },
    {
      "anonymous": false,
      "inputs": [
        {
          "indexed": false,
          "name": "jury",
          "type": "address"
        },
        {
          "indexed": false,
          "name": "id",
          "type": "uint256"
        },
        {
          "indexed": false,
          "name": "positive",
          "type": "bool"
        }
      ],
      "name": "Vote",
      "type": "event"
    },
    {
      "anonymous": false,
      "inputs": [
        {
          "indexed": false,
          "name": "reciever",
          "type": "address"
        },
        {
          "indexed": false,
          "name": "id",
          "type": "uint256"
        },
        {
          "indexed": false,
          "name": "amount",
          "type": "uint256"
        },
        {
          "indexed": false,
          "name": "status",
          "type": "uint8"
        }
      ],
      "name": "Payment",
      "type": "event"
    },
    {
      "anonymous": false,
      "inputs": [
        {
          "indexed": false,
          "name": "member",
          "type": "address"
        },
        {
          "indexed": false,
          "name": "appId",
          "type": "uint256"
        }
      ],
      "name": "FSSF",
      "type": "event"
    },
    {
      "anonymous": false,
      "inputs": [
        {
          "indexed": false,
          "name": "id",
          "type": "uint256"
        },
        {
          "indexed": false,
          "name": "poolId",
          "type": "uint256"
        },
        {
          "indexed": false,
          "name": "level",
          "type": "uint8"
        }
      ],
      "name": "InsertPool",
      "type": "event"
    },
    {
      "anonymous": false,
      "inputs": [
        {
          "indexed": false,
          "name": "id",
          "type": "uint256"
        },
        {
          "indexed": false,
          "name": "superPoolValue",
          "type": "uint256"
        },
        {
          "indexed": false,
          "name": "poolValue",
          "type": "uint256"
        },
        {
          "indexed": false,
          "name": "subPoolValue",
          "type": "uint256"
        },
        {
          "indexed": false,
          "name": "comission",
          "type": "uint256"
        }
      ],
      "name": "DistributeValue",
      "type": "event"
    },
    {
      "anonymous": false,
      "inputs": [
        {
          "indexed": false,
          "name": "id",
          "type": "uint256"
        },
        {
          "indexed": false,
          "name": "value",
          "type": "uint256"
        }
      ],
      "name": "SecondTierCall",
      "type": "event"
    },
    {
      "anonymous": false,
      "inputs": [
        {
          "indexed": false,
          "name": "id",
          "type": "uint256"
        },
        {
          "indexed": false,
          "name": "poolId",
          "type": "uint256"
        },
        {
          "indexed": false,
          "name": "value",
          "type": "uint256"
        },
        {
          "indexed": false,
          "name": "level",
          "type": "uint8"
        }
      ],
      "name": "ShortOfFunds",
      "type": "event"
    },
    {
      "anonymous": false,
      "inputs": [
        {
          "indexed": false,
          "name": "id",
          "type": "uint256"
        },
        {
          "indexed": false,
          "name": "value",
          "type": "uint256"
        },
        {
          "indexed": false,
          "name": "level",
          "type": "uint8"
        }
      ],
      "name": "PaymentValue",
      "type": "event"
    },
    {
      "anonymous": false,
      "inputs": [
        {
          "indexed": false,
          "name": "nodeId",
          "type": "uint256"
        },
        {
          "indexed": false,
          "name": "parentId",
          "type": "uint256"
        },
        {
          "indexed": false,
          "name": "level",
          "type": "uint256"
        }
      ],
      "name": "AddToken",
      "type": "event"
    },
    {
      "anonymous": false,
      "inputs": [
        {
          "indexed": false,
          "name": "nodeId",
          "type": "uint256"
        },
        {
          "indexed": false,
          "name": "level",
          "type": "uint256"
        }
      ],
      "name": "RemoveToken",
      "type": "event"
    },
    {
      "anonymous": false,
      "inputs": [
        {
          "indexed": false,
          "name": "from",
          "type": "address"
        },
        {
          "indexed": false,
          "name": "fromId",
          "type": "uint256"
        },
        {
          "indexed": false,
          "name": "to",
          "type": "address"
        },
        {
          "indexed": false,
          "name": "toId",
          "type": "uint256"
        },
        {
          "indexed": false,
          "name": "value",
          "type": "uint256"
        }
      ],
      "name": "Transfer",
      "type": "event"
    },
    {
      "anonymous": false,
      "inputs": [
        {
          "indexed": false,
          "name": "to",
          "type": "address"
        },
        {
          "indexed": false,
          "name": "toId",
          "type": "uint256"
        },
        {
          "indexed": false,
          "name": "value",
          "type": "uint256"
        }
      ],
      "name": "AddValue",
      "type": "event"
    },
    {
      "anonymous": false,
      "inputs": [
        {
          "indexed": false,
          "name": "from",
          "type": "address"
        },
        {
          "indexed": false,
          "name": "fromId",
          "type": "uint256"
        },
        {
          "indexed": false,
          "name": "value",
          "type": "uint256"
        }
      ],
      "name": "RemoveValue",
      "type": "event"
    },
    {
      "anonymous": false,
      "inputs": [
        {
          "indexed": false,
          "name": "to",
          "type": "address"
        },
        {
          "indexed": false,
          "name": "toId",
          "type": "uint256"
        },
        {
          "indexed": false,
          "name": "level",
          "type": "uint256"
        }
      ],
      "name": "SetLevel",
      "type": "event"
    },
    {
      "anonymous": false,
      "inputs": [
        {
          "indexed": false,
          "name": "to",
          "type": "address"
        },
        {
          "indexed": false,
          "name": "toId",
          "type": "uint256"
        }
      ],
      "name": "IncreaseLevel",
      "type": "event"
    },
    {
      "anonymous": false,
      "inputs": [
        {
          "indexed": true,
          "name": "_prevOwner",
          "type": "address"
        },
        {
          "indexed": true,
          "name": "_newOwner",
          "type": "address"
        }
      ],
      "name": "OwnerUpdate",
      "type": "event"
    },
    {
      "anonymous": false,
      "inputs": [
        {
          "indexed": false,
          "name": "fromId",
          "type": "uint256"
        },
        {
          "indexed": false,
          "name": "spender",
          "type": "address"
        },
        {
          "indexed": false,
          "name": "toId",
          "type": "uint256"
        },
        {
          "indexed": false,
          "name": "value",
          "type": "uint256"
        }
      ],
      "name": "CApproveFrom",
      "type": "event"
    },
    {
      "anonymous": false,
      "inputs": [
        {
          "indexed": false,
          "name": "spender",
          "type": "address"
        },
        {
          "indexed": false,
          "name": "value",
          "type": "uint256"
        }
      ],
      "name": "CApprove",
      "type": "event"
    },
    {
      "anonymous": false,
      "inputs": [
        {
          "indexed": false,
          "name": "from",
          "type": "address"
        },
        {
          "indexed": false,
          "name": "fromId",
          "type": "uint256"
        },
        {
          "indexed": false,
          "name": "to",
          "type": "address"
        },
        {
          "indexed": false,
          "name": "toId",
          "type": "uint256"
        },
        {
          "indexed": false,
          "name": "value",
          "type": "uint256"
        },
        {
          "indexed": false,
          "name": "allowance",
          "type": "uint256"
        }
      ],
      "name": "CTransferFrom",
      "type": "event"
    },
    {
      "anonymous": false,
      "inputs": [
        {
          "indexed": false,
          "name": "to",
          "type": "address"
        },
        {
          "indexed": false,
          "name": "toId",
          "type": "uint256"
        },
        {
          "indexed": false,
          "name": "amount",
          "type": "uint256"
        }
      ],
      "name": "CIssue",
      "type": "event"
    },
    {
      "anonymous": false,
      "inputs": [
        {
          "indexed": false,
          "name": "from",
          "type": "address"
        },
        {
          "indexed": false,
          "name": "fromId",
          "type": "uint256"
        },
        {
          "indexed": false,
          "name": "amount",
          "type": "uint256"
        }
      ],
      "name": "CDestroy",
      "type": "event"
    },
    {
      "anonymous": false,
      "inputs": [
        {
          "indexed": false,
          "name": "from",
          "type": "address"
        },
        {
          "indexed": false,
          "name": "to",
          "type": "address"
        },
        {
          "indexed": false,
          "name": "tokenId",
          "type": "uint256"
        }
      ],
      "name": "Transfer",
      "type": "event"
    },
    {
      "anonymous": false,
      "inputs": [
        {
          "indexed": false,
          "name": "owner",
          "type": "address"
        },
        {
          "indexed": false,
          "name": "approved",
          "type": "address"
        },
        {
          "indexed": false,
          "name": "tokenId",
          "type": "uint256"
        }
      ],
      "name": "Approval",
      "type": "event"
    },
    {
      "anonymous": false,
      "inputs": [
        {
          "indexed": false,
          "name": "value",
          "type": "uint256"
        },
        {
          "indexed": false,
          "name": "metadata",
          "type": "string"
        },
        {
          "indexed": false,
          "name": "kind",
          "type": "uint256"
        },
        {
          "indexed": false,
          "name": "owner",
          "type": "address"
        }
      ],
      "name": "Birth",
      "type": "event"
    }
  ],
  "bytecode": "0x606060405234156200001057600080fd5b604051602080620065ad83398101604052808051915081905060008080604080519081016040908152601882527f4c7567676167652043726f7764737572616e6365204e4654000000000000000060208301528051908101604052600381527f4c435300000000000000000000000000000000000000000000000000000000006020820152818160008080620000a562000a00565b620000af62000a00565b620000b962000a00565b60028054600160a060020a03191633600160a060020a03161790558787818181816000828051620000ef92916020019062000a3a565b5060018180516200010592916020019062000a3a565b5050600a8054600160a060020a03191633600160a060020a031617905550506004600c5550620001929150678ac7230489e80000905060408051908101604052600981527f5375706572506f6f6c00000000000000000000000000000000000000000000006020820152600a54600190600160a060020a0316640100000000620053e8620005b382021704565b9550620001f1600060408051908101604052600481527f506f6f6c000000000000000000000000000000000000000000000000000000006020820152600a54600190600160a060020a0316640100000000620053e8620005b382021704565b945062000250600060408051908101604052600781527f537562506f6f6c000000000000000000000000000000000000000000000000006020820152600a54600290600160a060020a0316640100000000620053e8620005b382021704565b93506200026c8587640100000000620013eb620007c482021704565b620002868486640100000000620013eb620007c482021704565b60c060405190810160405280600060ff16815260200160018152602001600a815260200160018152602001878152602001600a8152509250600e8054806001018281620002d4919062000abf565b600092835260209092208591600602018151815460ff191660ff919091161781556020820151816001015560408201518160020155606082015181600301556080820151816004015560a0820151816005015550505060c060405190810160405280600160ff168152602001600a8152602001606481526020016001815260200186815260200160148152509150600e805480600101828162000378919062000abf565b600092835260209092208491600602018151815460ff191660ff919091161781556020820151816001015560408201518160020155606082015181600301556080820151816004015560a0820151816005015550505060c060405190810160405280600260ff1681526020016103e88152602001606481526020016001815260200185815260200160328152509050600e80548060010182816200041d919062000abf565b600092835260209092208391600602018151815460ff191660ff919091161781556020820151816001015560408201518160020155606082015181600301556080820151816004015560a082015181600501555050506000600360008154811015156200048657fe5b600091825260208083206005928302019390935562f099c060105560128054600160ff199182161761ff00191661500017909155678ac7230489e800006013556014805460039083161790556202a300601555601680549091169091179055600a60175560646018559055505060218054600160a060020a031916600160a060020a038e161790555050664380663abb8000600f555050673782dace9d9000006011555050508315159050620005455764012a05f2006022556200054b565b60228390555b60ff811615156200056b576023805461ff00191661050017905562000580565b6023805461ff00191661010060ff8416021790555b506023805491151560ff199283161790556701aa535d3d0c00006024556025805490911660501790555062000c5e915050565b6000620005bf62000af3565b600060a060405190810160405280888152602001878152602001868152602001600081526020016000815250915060016003805480600101828162000605919062000b2b565b60009283526020909220859160050201815181556020820151816001019080516200063592916020019062000a3a565b506040820151816002015560608201518160030155608082015160049091015550039050801515620006ce5760016003805480600101828162000679919062000b2b565b6000928352602090922085916005020181518155602082015181600101908051620006a992916020019062000a3a565b5060408201518160020155606082015181600301556080820151816004015550500390505b63ffffffff81168114620006e157600080fd5b7fdea8e87d69047e1b3cd43ad599d34e3eacfe4408b4dfc5d0f6ac6a15a468de5c8787878760405184815260408101839052600160a060020a038216606082015260806020820181815290820185818151815260200191508051906020019080838360005b838110156200076057808201518382015260200162000746565b50505050905090810190601f1680156200078e5780820380516001836020036101000a031916815260200191505b509550505050505060405180910390a1620007ba6000858364010000000062004369620008f982021704565b9695505050505050565b8115801590620007d5575060035482105b1515620007e157600080fd5b8015801590620007f2575060035481105b1515620007fe57600080fd5b6001600c54036003828154811015156200081457fe5b9060005260206000209060050201600301541015156200083357600080fd5b6000828152600d6020526040902081905560038054829081106200085357fe5b9060005260206000209060050201600301546001016003838154811015156200087857fe5b9060005260206000209060050201600301819055507f0900f87897aa374bb21fa36753905fa2944dd2301242246101a9047a0ed227a08282600385815481101515620008c057fe5b90600052602060002090600502016003015460405180848152602001838152602001828152602001935050505060405180910390a15050565b6104006003828154811015156200090c57fe5b906000526020600020906005020160040154141515156200092957fe5b600160a060020a03808316600081815260056020908152604080832080546001019055858352600490915290208054600160a060020a0319169091179055831615620009ab57600160a060020a03831660009081526005602090815260408083208054600019019055838352600690915290208054600160a060020a03191690555b7fddf252ad1be2c89b69c2b068fc378daa952ba7f163c4a11628f55a4df523b3ef838383604051600160a060020a039384168152919092166020820152604080820192909252606001905180910390a1505050565b60c060405190810160405280600060ff16815260200160008152602001600081526020016000815260200160008152602001600081525090565b828054600181600116156101000203166002900490600052602060002090601f016020900481019282601f1062000a7d57805160ff191683800117855562000aad565b8280016001018555821562000aad579182015b8281111562000aad57825182559160200191906001019062000a90565b5062000abb92915062000b5a565b5090565b81548183558181151162000aee5760060281600602836000526020600020918201910162000aee919062000b7a565b505050565b60a0604051908101604052806000815260200162000b1062000bbe565b81526020016000815260200160008152602001600081525090565b81548183558181151162000aee5760050281600502836000526020600020918201910162000aee919062000bd0565b62000b7791905b8082111562000abb576000815560010162000b61565b90565b62000b7791905b8082111562000abb57805460ff19168155600060018201819055600282018190556003820181905560048201819055600582015560060162000b81565b60206040519081016040526000815290565b62000b7791905b8082111562000abb57600080825562000bf4600183018262000c13565b5060006002820181905560038201819055600482015560050162000bd7565b50805460018160011615610100020316600290046000825580601f1062000c3b575062000c5b565b601f01602090049060005260206000209081019062000c5b919062000b5a565b50565b61593f8062000c6e6000396000f30060606040526004361061038e5763ffffffff7c0100000000000000000000000000000000000000000000000000000000600035041662607b7f811461039057806301ffc9a7146103ba57806306fdde03146103f2578063095ea7b31461047c5780630c04ad111461049e5780630e13dd74146104b457806317b9ebec1461051657806318160ddd1461052f5780631aff0596146105545780631c41931c146105675780631cced51b146105b55780631d36e06c146106005780631de565d61461063257806323b872dd14610645578063296250051461066d57806332c4ee831461069257806336c5d724146106b457806339e6cdb1146106ca5780633c7e7d28146106ec5780634cabcfac1461070b5780634dc621fa146107305780634fe89efe14610759578063523727771461078e578063545c3d55146107a15780636352211e146107c657806366d80ba5146107dc5780636914db60146107fe57806370a082311461081457806379ba50971461083357806381d12c58146108465780638462151c14610899578063890357301461090b57806389d0cd06146109825780638b3c99e3146109955780638da5cb5b146109ab5780638f1fc77c146109be578063930f34fd146109d157806395d89b41146109e757806398dc5c95146109fa5780639a6c614e14610a225780639ca0883114610a355780639d26d1ca14610a4b578063a01177cd14610a5e578063a3ec138d14610a71578063a846c2fd14610a90578063a8bd9c3214610aa6578063a9059cbb14610abc578063afd8206714610ade578063b121f2ac14610af1578063b129273f14610b13578063b135707914610b2c578063b260c42a14610b4b578063b688a36314610b61578063b9f05f2f14610b69578063bc89b1cf14610b8b578063be1d68ad14610b9e578063bf62266514610bbd578063c0521d7614610be5578063c349026314610c0a578063c52380e914610c23578063c9d27afe14610c42578063cadf338f14610c5d578063cbbc9f8914610c73578063cc06c35914610c98578063cf7c436714610cab578063d0d8074a14610cd0578063d4ee1d9014610ce3578063db595b3b14610cf6578063db85d59c14610d09578063dd62ed3e14610d6b578063dd6d3ca714610d90578063ddf3ecc714610da3578063deb8386a14610db9578063dfefadff14610dcc578063e176507314610e22578063e527cc9d14610e38578063f2fde38b14610e5d578063f81fd7ea14610e7c575b005b341561039b57600080fd5b6103a6600435610ea1565b604051901515815260200160405180910390f35b34156103c557600080fd5b6103a67fffffffff0000000000000000000000000000000000000000000000000000000060043516610f03565b34156103fd57600080fd5b6104056111dc565b60405160208082528190810183818151815260200191508051906020019080838360005b83811015610441578082015183820152602001610429565b50505050905090810190601f16801561046e5780820380516001836020036101000a031916815260200191505b509250505060405180910390f35b341561048757600080fd5b61038e600160a060020a0360043516602435611285565b34156104a957600080fd5b61038e6004356112f8565b34156104bf57600080fd5b6104ca600435611306565b604051808660028111156104da57fe5b60ff1681526020018560ff1660ff1681526020018460ff1660ff1681526020018381526020018281526020019550505050505060405180910390f35b341561052157600080fd5b61038e6004356024356113eb565b341561053a57600080fd5b610542611517565b60405190815260200160405180910390f35b341561055f57600080fd5b610542611532565b341561057257600080fd5b61058060043560243561154e565b60405160ff909516855260208501939093526040808501929092526060840152608083019190915260a0909101905180910390f35b34156105c057600080fd5b6105c861180c565b6040518082608080838360005b838110156105ed5780820151838201526020016105d5565b5050505090500191505060405180910390f35b341561060b57600080fd5b6106166004356118ef565b604051600160a060020a03909116815260200160405180910390f35b341561063d57600080fd5b61061661190a565b341561065057600080fd5b61038e600160a060020a0360043581169060243516604435611919565b341561067857600080fd5b61038e600160a060020a0360043516602435604435611989565b341561069d57600080fd5b6103a6600160a060020a0360043516602435611a39565b34156106bf57600080fd5b61038e600435611b39565b34156106d557600080fd5b61038e600160a060020a0360043516602435611bda565b34156106f757600080fd5b610542600160a060020a0360043516611c96565b341561071657600080fd5b61038e600160a060020a0360043516602435604435611ca8565b341561073b57600080fd5b610743611d56565b60405160ff909116815260200160405180910390f35b341561076457600080fd5b61076c611d5f565b604051600160a060020a03909216825260208201526040908101905180910390f35b341561079957600080fd5b6103a6611df7565b34156107ac57600080fd5b61038e600160a060020a0360043516602435604435611e00565b34156107d157600080fd5b610616600435611eae565b34156107e757600080fd5b6103a6600160a060020a0360043516602435611ed2565b341561080957600080fd5b610405600435611f0b565b341561081f57600080fd5b610542600160a060020a0360043516611fd2565b341561083e57600080fd5b61038e611fed565b341561085157600080fd5b61085c60043561207b565b604051958652602086019490945260408086019390935260ff91821660608601528116608085015290911660a083015260c0909101905180910390f35b34156108a457600080fd5b6108b8600160a060020a03600435166120b8565b60405160208082528190810183818151815260200191508051906020019060200280838360005b838110156108f75780820151838201526020016108df565b505050509050019250505060405180910390f35b341561091657600080fd5b61091e6120c9565b6040519a8b5260208b01999099526040808b019890985260ff96871660608b015294861660808a015260a089019390935290841660c088015260e0870152909116610100850152610120840152610140830191909152610160909101905180910390f35b341561098d57600080fd5b61038e612100565b34156109a057600080fd5b61038e60043561219d565b34156109b657600080fd5b61061661258d565b34156109c957600080fd5b61054261259c565b34156109dc57600080fd5b61038e6004356125e3565b34156109f257600080fd5b61040561268a565b3415610a0557600080fd5b6103a6600435600160a060020a03602435166044356064356126fd565b3415610a2d57600080fd5b6107436127f8565b3415610a4057600080fd5b610542600435612806565b3415610a5657600080fd5b610542612818565b3415610a6957600080fd5b61038e612834565b3415610a7c57600080fd5b610542600160a060020a03600435166128d3565b3415610a9b57600080fd5b6105426004356128e5565b3415610ab157600080fd5b6106166004356128f7565b3415610ac757600080fd5b61038e600160a060020a0360043516602435612912565b3415610ae957600080fd5b610542612968565b3415610afc57600080fd5b610542600160a060020a0360043516602435612984565b3415610b1e57600080fd5b6103a66004356024356129c3565b3415610b3757600080fd5b610542600160a060020a0360043516612a6c565b3415610b5657600080fd5b61038e600435612ae5565b610542612b10565b3415610b7457600080fd5b61038e600160a060020a0360043516602435612e15565b3415610b9657600080fd5b610542612f4c565b3415610ba957600080fd5b610542600160a060020a0360043516612f52565b3415610bc857600080fd5b6103a6600160a060020a0360043581169060243516604435612f64565b3415610bf057600080fd5b610542600160a060020a036004351660ff6024351661313b565b3415610c1557600080fd5b6103a66004356024356131bb565b3415610c2e57600080fd5b610542600160a060020a0360043516613422565b3415610c4d57600080fd5b61038e6004356024351515613434565b3415610c6857600080fd5b61054260043561357d565b3415610c7e57600080fd5b610542600160a060020a03600435811690602435166135a7565b3415610ca357600080fd5b6105426135c4565b3415610cb657600080fd5b61038e600160a060020a03600435166024356044356135ca565b3415610cdb57600080fd5b610542613760565b3415610cee57600080fd5b610616613766565b3415610d0157600080fd5b610542613775565b3415610d1457600080fd5b610d1f600435613a4a565b60405197885260208801969096526040808801959095526060870193909352608086019190915260a085015260ff90811660c085015290911660e0830152610100909101905180910390f35b3415610d7657600080fd5b610542600160a060020a0360043581169060243516613a93565b3415610d9b57600080fd5b610542613ab0565b3415610dae57600080fd5b61038e600435613ad9565b3415610dc457600080fd5b610542613ae4565b3415610dd757600080fd5b610de2600435613aea565b604051948552600160a060020a03909316602085015260ff91821660408086019190915291166060840152901515608083015260a0909101905180910390f35b3415610e2d57600080fd5b6108b8600435613b76565b3415610e4357600080fd5b610542600160a060020a0360043581169060243516613bd3565b3415610e6857600080fd5b61038e600160a060020a0360043516613bf0565b3415610e8757600080fd5b610542600160a060020a0360043581169060243516613c52565b600a5460009033600160a060020a03908116911614610ebc57fe5b8115801590610ecc575060035482105b1515610ed757600080fd5b610ee2826002613caa565b1515610eea57fe5b610ef382613f5b565b1515610efb57fe5b506001919050565b60006040517f737570706f727473496e74657266616365286279746573342900000000000000815260190160405180910390207bffffffffffffffffffffffffffffffffffffffffffffffffffffffff1916827bffffffffffffffffffffffffffffffffffffffffffffffffffffffff191614806111d657506040517f746f6b656e4d657461646174612875696e743235362c737472696e67290000008152601d0160405180910390206040517f746f6b656e734f664f776e657228616464726573732900000000000000000000815260160160405180910390206040517f7472616e7366657246726f6d28616464726573732c616464726573732c75696e81527f7432353629000000000000000000000000000000000000000000000000000000602082015260250160405180910390206040517f7472616e7366657228616464726573732c75696e743235362900000000000000815260190160405180910390206040517f617070726f766528616464726573732c75696e74323536290000000000000000815260180160405180910390206040517f6f776e65724f662875696e743235362900000000000000000000000000000000815260100160405180910390206040517f62616c616e63654f662861646472657373290000000000000000000000000000815260120160405180910390206040517f746f74616c537570706c792829000000000000000000000000000000000000008152600d0160405180910390206040517f73796d626f6c2829000000000000000000000000000000000000000000000000815260080160405180910390206040517f6e616d6528290000000000000000000000000000000000000000000000000000815260060160405180910390201818181818181818187bffffffffffffffffffffffffffffffffffffffffffffffffffffffff1916827bffffffffffffffffffffffffffffffffffffffffffffffffffffffff1916145b92915050565b6111e46155f4565b60008054600181600116156101000203166002900480601f01602080910402602001604051908101604052809291908181526020018280546001816001161561010002031660029004801561127a5780601f1061124f5761010080835404028352916020019161127a565b820191906000526020600020905b81548152906001019060200180831161125d57829003601f168201915b505050505090505b90565b61128f33826142ee565b151561129a57600080fd5b6112a4818361430e565b7f8c5be1e5ebec7d5bd14f71427d1e84f3dd0314c0f7b2291e5b200ac8c7c3b925338383604051600160a060020a039384168152919092166020820152604080820192909252606001905180910390a15050565b611303816000613434565b50565b60008080808080808088151561131b57600080fd5b611325338a6142ee565b151561133057600080fd5b600260008a8152601b6020526040902060060154610100900460ff161461135657600080fd5b5050506000868152601d602052604081206003810154601254825460028401546001850154601654969b5060ff8086169b506101009586900481169a506064959094048416909202939093049650600160a060020a033016319550929342939092019290921091868801811691161481156113d457600297506113df565b80156113df57600197505b50505091939590929450565b81158015906113fb575060035482105b151561140657600080fd5b8015801590611416575060035481105b151561142157600080fd5b6001600c540360038281548110151561143657fe5b90600052602060002090600502016003015410151561145457600080fd5b6000828152600d60205260409020819055600380548290811061147357fe5b90600052602060002090600502016003015460010160038381548110151561149757fe5b9060005260206000209060050201600301819055507f0900f87897aa374bb21fa36753905fa2944dd2301242246101a9047a0ed227a082826003858154811015156114de57fe5b90600052602060002090600502016003015460405180848152602001838152602001828152602001935050505060405180910390a15050565b6003546000908181111561152a57600019015b8091505b5090565b600160a060020a0333166000908152601e602052604090205490565b600080600080600061155e615606565b60008082526020820181905260408201819052606082018190526004965080808a1580159061158e57506003548b105b151561159957600080fd5b8915156115a557600080fd5b6115af338c6142ee565b15156115ba57600080fd5b60008b8152600d602052604090205492508215156115d757600080fd5b6000838152600d602052604090205491508115156115f457600080fd5b506000818152600d602052604090205480151561161057600080fd5b6003985060038381548110151561162357fe5b60009182526020909120600590910201548a1161164c576002985089848a5b60200201526117df565b600380548490811061165a57fe5b90600052602060002090600502016000015460038381548110151561167b57fe5b6000918252602090912060059091020154018a116116e4576003805460019a50849081106116a557fe5b6000918252602090912060059091020154604085015260038054849081106116c957fe5b60009182526020909120600590910201548a03846001611642565b60038054849081106116f257fe5b90600052602060002090600502016000015460038381548110151561171357fe5b90600052602060002090600502016000015460038381548110151561173457fe5b600091825260209091206005909102015401018a116117df576003805460009a508490811061175f57fe5b60009182526020909120600590910201546040850152600380548390811061178357fe5b6000918252602091829020600590910201549085015260038054839081106117a757fe5b9060005260206000209060050201600001546003848154811015156117c857fe5b60009182526020909120600590910201548b030384525b60408401519750602084015196508351955030600160a060020a0316319450505050509295509295909350565b611814615606565b600080825260208201819052604082018190526060820181905260015b6003548110156118ea57600380548290811061184957fe5b9060005260206000209060050201600301549150600c548260ff1610156118b757600380548290811061187857fe5b60009182526020909120600590910201548360ff84166004811061189857fe5b6020020151018360ff8416600481106118ad57fe5b60200201526118e2565b60038054829081106118c557fe5b600091825260209091206005909102015460608401510160608401525b600101611831565b505090565b600460205260009081526040902054600160a060020a031681565b602154600160a060020a031681565b600160a060020a038216151561192e57600080fd5b30600160a060020a031682600160a060020a03161415151561194f57600080fd5b6119593382614349565b151561196457600080fd5b61196e83826142ee565b151561197957600080fd5b611984838383614369565b505050565b600a5433600160a060020a039081169116146119a157fe5b6119ab83836142ee565b15156119b657600080fd5b806003838154811015156119c657fe5b9060005260206000209060050201600301819055507f48ed1b5769aee6cf16cda3da1db2a0acf83c194c9d2a98ebeff4904567af58f68383836040518084600160a060020a0316600160a060020a03168152602001838152602001828152602001935050505060405180910390a1505050565b6000808080600160a060020a0386161515611a5357600080fd5b841515611a5f57600080fd5b339250611a6b83614487565b9150611a7686614487565b905081811415611a8557600080fd5b811515611a9157600080fd5b801515611a9d57600080fd5b600160a060020a038381166000818152600860209081526040808320948b168084529482528083208690559282528282208690556009815282822093825292909252908190208690557fe051949e9a44e2e9c21ee7d1c7b03ef0bf501aa3b7c4616a8543f229c0bede7a908790879051600160a060020a03909216825260208201526040908101905180910390a1600193505b50505092915050565b60008115801590611b4b575060035482105b1515611b5657600080fd5b611b5f826144d1565b90508015611b6c57600080fd5b6000828152600d6020526040812055600380547f399c331be71add502e95a2402ba7370605a945c1c6c1dc01c5e30f7e896cfa5691849182908110611bad57fe5b90600052602060002090600502016003015460405191825260208201526040908101905180910390a15050565b600a5433600160a060020a03908116911614611bf257fe5b611bfc82826142ee565b1515611c0757600080fd5b6003805482908110611c1557fe5b906000526020600020906005020160030154600101600382815481101515611c3957fe5b9060005260206000209060050201600301819055507fb6ffa2bc58069f160ac94855c396bc8a7c591ae4b9e69d78cc004ad2e4d70d858282604051600160a060020a03909216825260208201526040908101905180910390a15050565b60196020526000908152604090205481565b6000600160a060020a0384161515611cbf57600080fd5b811515611ccb57600080fd5b5081801515611ce057611cdd84614487565b90505b801515611cec57600080fd5b611cf784828461452f565b7f8ee078ba6dd38678f9ffdc8f1df2d512559df0cae2db32c829459127e10031978484846040518084600160a060020a0316600160a060020a03168152602001838152602001828152602001935050505060405180910390a150505050565b60255460ff1681565b602054600090819081901515611d7457611df2565b5060015b601f54811015611df257601f805482908110611d9057fe5b906000526020600020906002020160010160169054906101000a900460ff161515611dea57601f805482908110611dc357fe5b6000918252602090912060016002909202010154600160a060020a03169250905080611df2565b600101611d78565b509091565b60235460ff1681565b6000600160a060020a0384161515611e1757600080fd5b811515611e2357600080fd5b5081801515611e3857611e3584614487565b90505b801515611e4457600080fd5b611e4f84828461461d565b7ff3d0e22890d929d2a1cd5ca9e5f6498c4271ce2f0223ab4092297c2d11c9ef758484846040518084600160a060020a0316600160a060020a03168152602001838152602001828152602001935050505060405180910390a150505050565b600081815260046020526040812054600160a060020a03168015156111d657600080fd5b600080600160a060020a0384161515611eea57600080fd5b821515611ef657600080fd5b5033611f03818585612f64565b949350505050565b611f136155f4565b6003805483908110611f2157fe5b90600052602060002090600502016001018054600181600116156101000203166002900480601f016020809104026020016040519081016040528092919081815260200182805460018160011615610100020316600290048015611fc65780601f10611f9b57610100808354040283529160200191611fc6565b820191906000526020600020905b815481529060010190602001808311611fa957829003601f168201915b50505050509050919050565b600160a060020a031660009081526005602052604090205490565b600b5433600160a060020a0390811691161461200857600080fd5b600b54600a54600160a060020a0391821691167f343765429aea5a34b3ff6a3785a98a5abb2597aca87bfbb58632c173d585373a60405160405180910390a3600b8054600a805473ffffffffffffffffffffffffffffffffffffffff19908116600160a060020a03841617909155169055565b601d6020526000908152604090208054600182015460028301546003909301549192909160ff808216916101008104821691620100009091041686565b6120c06155f4565b6111d6826146df565b600f5460105460115460125460135460145460155460165460175460185460ff80881697610100900481169695811694931691908b565b600a5460009033600160a060020a0390811691161461211b57fe5b60038054600090811061212a57fe5b6000918252602090912060059091020154905080151561214957600080fd5b60006003600081548110151561215b57fe5b6000918252602090912060059091020155600160a060020a03331681156108fc0282604051600060405180830381858888f19350505050151561130357600080fd5b6000806000806121ab615606565b60008615156121b957600080fd5b6121c333886142ee565b15156121ce57600080fd5b60026000888152601b6020526040902060060154610100900460ff16146121f457600080fd5b6000878152601d60205260409020600281015460018201546016546003840154939950429190920110965060ff908116610100830482169282169290920116149350848061223f5750835b151561224a57600080fd5b6012548654606491610100900460ff16026003880154919004935060ff610100820481169116118015612282575061228287846147d4565b1561234f57600160a060020a03331683156108fc0284604051600060405180830381858888f1935050505015156122b857600080fd5b6000878152601b6020526040902060068101805461ff0019166103001790556004018054840190556122ea878461491d565b91507f261826fbdc11ee0da48a5356542bcb46786deaed4c215b871d3df7a03652262d33888560035b604051600160a060020a039094168452602084019290925260408084019190915260ff90911660608301526080909101905180910390a16124f0565b600386015460ff8082166101009092041614806123875750601454600387015460ff9182166101008204831691831691909101909116105b80156123ab57506000878152601b60205260409020600301546123ab9088906147d4565b15612471576000878152601b60205260409081902060030154600160a060020a0333169181156108fc02919051600060405180830381858888f1935050505015156123f557600080fd5b6000878152601b6020526040902060068101805461ff0019166105001790556003810154600490910180548201905561242f90889061491d565b6000888152601b60205260409020600301549092507f261826fbdc11ee0da48a5356542bcb46786deaed4c215b871d3df7a03652262d90339089906005612313565b6000878152601b6020526040808220600601805461ff0019166104001790557f261826fbdc11ee0da48a5356542bcb46786deaed4c215b871d3df7a03652262d9133918a919060049051600160a060020a039094168452602084019290925260408084019190915260ff90911660608301526080909101905180910390a15b600386015462010000900460ff1681101561253e57601c600060048801836005811061251857fe5b0154600160a060020a0316815260208101919091526040016000908120556001016124f0565b6000878152601d60205260408120818155600181018290556002810182905560038101805462ffffff1916905590612579600483018261562d565b5050612583615606565b5050505050505050565b600a54600160a060020a031681565b600354600090819060015b818110156125db5760038054829081106125bd57fe5b600091825260209091206005909102015492909201916001016125a7565b509092915050565b60006125ef33836142ee565b15156125fa57600080fd5b81151561260657600080fd5b5060008181526026602052604090205480151561262257600080fd5b6000828152601b60205260409020600401541561263e57600080fd5b6000828152601b602052604090819020600401829055600160a060020a0333169082156108fc0290839051600060405180830381858888f19350505050151561268657600080fd5b5050565b6126926155f4565b60018054600181600116156101000203166002900480601f01602080910402602001604051908101604052809291908181526020018280546001816001161561010002031660029004801561127a5780601f1061124f5761010080835404028352916020019161127a565b600080600160a060020a038516151561271557600080fd5b8584141561272257600080fd5b85151561272e57600080fd5b83151561273a57600080fd5b82151561274657600080fd5b5033600160a060020a038181166000818152600860209081526040808320948a168084529482528083208990559282528282208a90556009815282822093825292909252908190208490557fef4beaa380feab20776f162f92bbf15b04c59f8fd4e8ab2508b8d29fed7dfd6190879087908790879051938452600160a060020a03909216602084015260408084019190915260608301919091526080909101905180910390a150600195945050505050565b602354610100900460ff1681565b600d6020526000908152604090205481565b600160a060020a03331660009081526019602052604090205490565b600a54600090819033600160a060020a0390811691161461285157fe5b612859611d5f565b9092509050600160a060020a0382161580159061287557508015155b1561268657601854600f5461288b9184916135ca565b7fa2b47dc564bd9b8719fa8435590eb01665bade49e1fa4890022587a074d9e4268282604051600160a060020a03909216825260208201526040908101905180910390a15050565b601c6020526000908152604090205481565b60266020526000908152604090205481565b600660205260009081526040902054600160a060020a031681565b600160a060020a038216151561292757600080fd5b30600160a060020a031682600160a060020a03161415151561294857600080fd5b61295233826142ee565b151561295d57600080fd5b612686338383614369565b600160a060020a0333166000908152601a602052604090205490565b600061299083836142ee565b151561299b57600080fd5b60038054839081106129a957fe5b906000526020600020906005020160030154905092915050565b600a54600090819033600160a060020a039081169116146129e057fe5b8315156129ec57600080fd5b8215156129f857600080fd5b602554600f5460649160ff160204831115612a1257600080fd5b6000848152601b602052604090206004015415612a2e57600080fd5b506000838152601b60205260409020600281015460019091015401428110612a5557600080fd5b505060009182526026602052604090912055600190565b6000612a766155f4565b6000806000612a84866146df565b93506000925083519150600090505b81811015612adb576003848281518110612aa957fe5b9060200190602002015181548110612abd57fe5b60009182526020909120600590910201549290920191600101612a93565b5090949350505050565b6023543390610100900460ff16612afd82600161313b565b10612b0757600080fd5b61268682614f44565b33600160a060020a0381166000908152601a602052604081205490913491838080831515612b3d57600080fd5b60235460ff16158015612b4e575034155b15612dbf57602154600160a060020a03161515612b6a57600080fd5b6022541515612b7857600080fd5b602154600160a060020a031663dd62ed3e86306000604051602001526040517c010000000000000000000000000000000000000000000000000000000063ffffffff8516028152600160a060020a03928316600482015291166024820152604401602060405180830381600087803b1515612bf257600080fd5b6102c65a03f11515612c0357600080fd5b5050506040518051602154909450600160a060020a0316905063313ce5676000604051602001526040518163ffffffff167c0100000000000000000000000000000000000000000000000000000000028152600401602060405180830381600087803b1515612c7157600080fd5b6102c65a03f11515612c8257600080fd5b5050506040518051905060ff1691506022548310151515612ca257600080fd5b50600160a060020a038416600090815260196020526040902054602454909550820260018210612ce65760001990910190600a82900a81811515612ce257fe5b0490505b858110158015612cf85750600f548610155b1515612d0357600080fd5b602154600a54602254600160a060020a03928316926323b872dd9289929116906000604051602001526040517c010000000000000000000000000000000000000000000000000000000063ffffffff8616028152600160a060020a0393841660048201529190921660248201526044810191909152606401602060405180830381600087803b1515612d9457600080fd5b6102c65a03f11515612da557600080fd5b505050604051805190501515612dba57600080fd5b612dff565b8515801590612dd05750600f548610155b1515612ddb57600080fd5b600160a060020a0385166000908152601960205260409020548614612dff57600080fd5b612e0a85858861504b565b965050505050505090565b600a546000908190819033600160a060020a03908116911614612e3457fe5b600160a060020a0385161515612e4957600080fd5b831515612e5557600080fd5b60026000858152601b6020526040902060060154610100900460ff1614612e7b57600080fd5b6000848152601d6020526040902080549093501515612e9957600080fd5b6002830154600184015401915042821015612eb357600080fd5b50600382015460165460ff62010000909204821691168110612ed457600080fd5b846004840160ff831660058110612ee757fe5b018054600160a060020a0392831673ffffffffffffffffffffffffffffffffffffffff199091161790556003909301805460ff6201000080830482166001019091160262ff0000199091161790555050919091166000908152601c6020526040902055565b60245481565b601e6020526000908152604090205481565b600080808080600160a060020a0387161515612f7f57600080fd5b851515612f8b57600080fd5b50505050600160a060020a0384811660008181526008602090815260408083209488168084529482528083205493835280832054600983528184209584529490915290205486929081831415612fe057600080fd5b821515612fec57600080fd5b811515612ff857600080fd5b80151561300457600080fd5b8581101561301157600080fd5b61301e848389868a6151f9565b600160a060020a038481166000908152600960209081526040808320938b16835292905220805487900390819055151561309657600160a060020a038481166000818152600960209081526040808320948c168084529482528083208390559282526008815282822090528181208190559182528120555b600160a060020a038085166000908152600960209081526040808320938b168352929052819020547fa085ba1c72fda1f13ecb6e0347284ac7d016a73b7a47c0ba151368bbe5ce2db9918a9185918b9188918c919051600160a060020a0396871681526020810195909552929094166040808501919091526060840191909152608083019390935260a082015260c001905180910390a1506001979650505050505050565b60006131456155f4565b6000613150856146df565b915060009250600090505b81518110156131b3578360ff16601b600084848151811061317857fe5b906020019060200201518152602081019190915260400160002060060154610100900460ff1614156131ab576001909201915b60010161315b565b505092915050565b600080808415156131cb57600080fd5b6131d533866142ee565b15156131e057600080fd5b8315156131ec57600080fd5b60016000868152601b6020526040902060060154610100900460ff161461321257600080fd5b6012546000868152601b602052604090206006015460ff91821691161061323857600080fd5b601254606490610100900460ff1685026013546000888152601b6020526040902060040154929091049350908301111561327157600080fd5b506000848152601b602052604090206002810154600190910154014281101561329957600080fd5b60e06040519081016040908152858252426020830152601554818301526000606083018190526080830181905260a08084019190915260c083019151908101604090815260008083526020808401829052828401829052606084018290526080840182905292909352888352601d9091529020815181556020820151816001015560408201518160020155606082015160038201805460ff191660ff9290921691909117905560808201518160030160016101000a81548160ff021916908360ff16021790555060a08201518160030160026101000a81548160ff021916908360ff16021790555060c08201516133969060048301906005615650565b5050506000858152601b602052604090819020600601805461020061ff001960ff198316600160ff948516018416171617918290557fb3ef0c14cd9ed6533151b9a921ddb33f8716dd3593254ffc741ae770313e3bea9288928892169051928352602083019190915260ff166040808301919091526060909101905180910390a1506001949350505050565b601a6020526000908152604090205481565b60008083151561344357600080fd5b600160a060020a0333166000908152601c6020526040902054841461346757600080fd5b6000848152601b602052604090206006015460ff6101009091041660021461348e57600080fd5b50506000828152601d602052604090206002810154600182015401428110156134b657600080fd5b82156134d95760038201805460ff8082166001011660ff199091161790556134fb565b60038201805460ff61010080830482166001019091160261ff00199091161790555b601c600033600160a060020a0316600160a060020a03168152602001908152602001600020600090557f8d85a70fd2c5d140a4a01143492d27ff82cfad4cead313e66c53f39b0feb5e0f338585604051600160a060020a039093168352602083019190915215156040808301919091526060909101905180910390a150505050565b600060038281548110151561358e57fe5b9060005260206000209060050201600001549050919050565b600960209081526000928352604080842090915290825290205481565b600c5481565b600a5460009033600160a060020a039081169116146135e557fe5b600160a060020a03841615156135fa57600080fd5b82151561360657600080fd5b81158015906136175750600f548210155b151561362257600080fd5b50600160a060020a0383166000908152601960209081526040808320849055601a8252808320859055601e90915290205480158015906136635750601f5481105b15613701576001601f8281548110151561367957fe5b6000918252602080832060016002909302019190910180549315157601000000000000000000000000000000000000000000000276ff000000000000000000000000000000000000000000001990941693909317909255600160a060020a0386168152601e8252604081205580546000190190819055151561370157613701601f60006156b3565b7f21619a95128e7e5c5367774b6479b6edbc059210239e39bbd50dbae00cfe09728484846040518084600160a060020a0316600160a060020a03168152602001838152602001828152602001935050505060405180910390a150505050565b60225481565b600b54600160a060020a031681565b600061377f6156d4565b600160a060020a0333166000908152601e60205260409020549150811580156137ab5750601754602054105b1561152e5760a06040519081016040908152428252600160a060020a033316602083015260019082018190526000606083018190526080830152601f805492935090918083016137fb8382615702565b6000928352602090922084916002020181518155602082015160018201805473ffffffffffffffffffffffffffffffffffffffff1916600160a060020a039290921691909117905560408201518160010160146101000a81548160ff021916908360ff16021790555060608201518160010160156101000a81548160ff021916908360ff1602179055506080820151600190910180549115157601000000000000000000000000000000000000000000000276ff0000000000000000000000000000000000000000000019909216919091179055500391508115156139c9576001601f80548060010182816138f09190615702565b6000928352602090922084916002020181518155602082015160018201805473ffffffffffffffffffffffffffffffffffffffff1916600160a060020a039290921691909117905560408201518160010160146101000a81548160ff021916908360ff16021790555060608201518160010160156101000a81548160ff021916908360ff1602179055506080820151600190910180549115157601000000000000000000000000000000000000000000000276ff0000000000000000000000000000000000000000000019909216919091179055500391505b63ffffffff821682146139db57600080fd5b33600160a060020a0381166000908152601e6020908152604091829020859055805460010190557f59470163a7d3423114f115af31707633dd4930abac0f3662fc3c4ef323f39a869190849051600160a060020a03909216825260208201526040908101905180910390a15090565b601b602052600090815260409020805460018201546002830154600384015460048501546005860154600690960154949593949293919290919060ff8082169161010090041688565b600760209081526000928352604080842090915290825290205481565b600060036000815481101515613ac257fe5b906000526020600020906005020160000154905090565b611303816001613434565b60205481565b601f805482908110613af857fe5b600091825260209091206002909102018054600190910154909150600160a060020a0381169060ff740100000000000000000000000000000000000000008204811691750100000000000000000000000000000000000000000081048216917601000000000000000000000000000000000000000000009091041685565b613b7e6155f4565b6000828152600d6020526040812054905b600c54811015613bcc5781838281518110613ba657fe5b60209081029091018101919091526000928352600d905260409091205490600101613b8f565b5050919050565b600860209081526000928352604080842090915290825290205481565b600a5433600160a060020a03908116911614613c0857fe5b600a54600160a060020a0382811691161415613c2357600080fd5b600b805473ffffffffffffffffffffffffffffffffffffffff1916600160a060020a0392909216919091179055565b6000600160a060020a0382161515613c6957600080fd5b600160a060020a0383161515613c7e57600080fd5b50600160a060020a03918216600090815260096020908152604080832093909416825291909152205490565b6000806000806000613cbc8787615389565b9350613cc7846144d1565b9250613cd387876153b7565b915081831015613d3a57613ce787856113eb565b7f69186e91a26c2cd1f67397df408ddeb0db9249dbd6e2a428ad8ae0d59ba3bc88878588604051928352602083019190915260ff166040808301919091526060909101905180910390a160019450613f51565b600e805460ff8816908110613d4b57fe5b906000526020600020906006020160010154600e8760ff16815481101515613d6f57fe5b9060005260206000209060060201600301541415613d905760009450613f51565b613e826000600386815481101515613da457fe5b90600052602060002090600502016001018054600181600116156101000203166002900480601f016020809104026020016040519081016040528092919081815260200182805460018160011615610100020316600290048015613e495780601f10613e1e57610100808354040283529160200191613e49565b820191906000526020600020905b815481529060010190602001808311613e2c57829003601f168201915b5050505050600387815481101515613e5d57fe5b6000918252602090912060026005909202010154600a54600160a060020a03166153e8565b90508015613f4c57613e978160018803613caa565b15613f4c57613ea687826113eb565b7f69186e91a26c2cd1f67397df408ddeb0db9249dbd6e2a428ad8ae0d59ba3bc88878288604051928352602083019190915260ff166040808301919091526060909101905180910390a180600e8760ff16815481101515613f0357fe5b6000918252602090912060046006909202010155600e805460ff8816908110613f2857fe5b60009182526020909120600360069092020101805460019081019091559450613f51565b600094505b5050505092915050565b6000808080808080808815801590613f74575060035489105b1515613f7f57600080fd5b6001600c540360038a815481101515613f9457fe5b906000526020600020906005020160030154141515613fb257600080fd5b6000898152600d60205260409020549650861515613fcf57600080fd5b6000878152600d60205260409020549550851515613fec57600080fd5b6000868152600d6020526040902054945084151561400957600080fd5b6064600e600281548110151561401b57fe5b90600052602060002090600602016005015460038b81548110151561403c57fe5b9060005260206000209060050201600001540281151561405857fe5b04935083151561406757600080fd5b6064600e600181548110151561407957fe5b90600052602060002090600602016005015460038b81548110151561409a57fe5b906000526020600020906005020160000154028115156140b657fe5b0492508215156140c557600080fd5b6064600e60008154811015156140d757fe5b90600052602060002090600602016005015460038b8154811015156140f857fe5b9060005260206000209060050201600001540281151561411457fe5b04915081151561412357600080fd5b81838560038c81548110151561413557fe5b6000918252602090912060059091020154030303905080151561415757600080fd5b8360038881548110151561416757fe5b9060005260206000209060050201600001540160038881548110151561418957fe5b600091825260209091206005909102015560038054849190889081106141ab57fe5b906000526020600020906005020160000154016003878154811015156141cd57fe5b600091825260209091206005909102015560038054839190879081106141ef57fe5b9060005260206000209060050201600001540160038681548110151561421157fe5b6000918252602082206005909102019190915560038054839290811061423357fe5b906000526020600020906005020160000154016003600081548110151561425657fe5b60009182526020822060059091020191909155600380548b90811061427757fe5b60009182526020909120600590910201557fcfd3c3fcdcb63bcee48ff9a9ec28351afef5ba4fc9b5a8f46d5aa65565a3b1a38983858785604051808681526020018581526020018481526020018381526020018281526020019550505050505060405180910390a150600198975050505050505050565b600090815260046020526040902054600160a060020a0391821691161490565b600091825260066020526040909120805473ffffffffffffffffffffffffffffffffffffffff1916600160a060020a03909216919091179055565b600090815260066020526040902054600160a060020a0391821691161490565b61040060038281548110151561437b57fe5b9060005260206000209060050201600401541415151561439757fe5b600160a060020a0380831660008181526005602090815260408083208054600101905585835260049091529020805473ffffffffffffffffffffffffffffffffffffffff1916909117905583161561443257600160a060020a0383166000908152600560209081526040808320805460001901905583835260069091529020805473ffffffffffffffffffffffffffffffffffffffff191690555b7fddf252ad1be2c89b69c2b068fc378daa952ba7f163c4a11628f55a4df523b3ef838383604051600160a060020a039384168152919092166020820152604080820192909252606001905180910390a1505050565b60006144916155f4565b600061449c846146df565b9150815190508015156144b25760009250613bcc565b816000815181106144bf57fe5b90602001906020020151949350505050565b6000808083158015906144e5575060035484105b15156144f057600080fd5b6144f8611517565b915060009250600190505b818111613bcc576000818152600d6020526040902054841415614527576001909201915b600101614503565b61453983836142ee565b151561454457600080fd5b80151561455057600080fd5b8060038381548110151561456057fe5b6000918252602090912060059091020154101561457c57600080fd5b8060038381548110151561458c57fe5b906000526020600020906005020160000154036003838154811015156145ae57fe5b60009182526020909120600590910201557f45dacd427fd388bf162986dbc958cdcf160c31b40efe076907cff377b9857c798383836040518084600160a060020a0316600160a060020a03168152602001838152602001828152602001935050505060405180910390a1505050565b61462783836142ee565b151561463257600080fd5b80151561463e57600080fd5b8060038381548110151561464e57fe5b9060005260206000209060050201600001540160038381548110151561467057fe5b60009182526020909120600590910201557f20f4934a3b4928cca0e51f3f1eaac12dee9af151a8a8ba5a424a89d93f6bf53d8383836040518084600160a060020a0316600160a060020a03168152602001838152602001828152602001935050505060405180910390a1505050565b6146e76155f4565b60006146f16155f4565b60008080600160a060020a038716151561470a57600080fd5b61471387611fd2565b945084151561474357600060405180591061472b5750595b908082528060200260200182016040525095506147ca565b846040518059106147515750595b9080825280602002602001820160405250935061476c611517565b925060009150600190505b8281116147c657600081815260046020526040902054600160a060020a03888116911614156147be57808483806001019450815181106147b357fe5b602090810290910101525b600101614777565b8395505b5050505050919050565b6000828152600d602052604081205481808215156147f157600080fd5b6000838152600d6020526040902054915081151561480e57600080fd5b506000818152600d602052604090205480151561482a57600080fd5b600380548490811061483857fe5b600091825260209091206005909102015485116148585760019350611b30565b600380548490811061486657fe5b90600052602060002090600502016000015460038381548110151561488757fe5b60009182526020909120600590910201540185116148a85760019350611b30565b60038054849081106148b657fe5b9060005260206000209060050201600001546003838154811015156148d757fe5b9060005260206000209060050201600001546003838154811015156148f857fe5b600091825260209091206005909102015401018511611b305750600195945050505050565b614925615606565b600080808515801590614939575060035486105b151561494457600080fd5b84151561495057600080fd5b60008085526020808601829052604080870183905260608701839052888352600d909152902054925082151561498557600080fd5b6000838152600d602052604090205491508115156149a257600080fd5b506000818152600d60205260409020548015156149be57600080fd5b60038054849081106149cc57fe5b60009182526020909120600590910201548511614a7c57604084018581525160038054859081106149f957fe5b90600052602060002090600502016000015403600384815481101515614a1b57fe5b60009182526020909120600590910201557f7c6ae15e271230e8f8b92de835be76e504f4bb32c5c02872b19e167d6d100fbf86866002604051928352602083019190915260ff166040808301919091526060909101905180910390a1611b30565b6003805484908110614a8a57fe5b906000526020600020906005020160000154600383815481101515614aab57fe5b6000918252602090912060059091020154018511614c3f577ff5e9c26d6f4f4192de6ab81062e5f90501d77f924b508e44728a2b78d3c12c6d8684876002604051938452602084019290925260408084019190915260ff90911660608301526080909101905180910390a16003805484908110614b2457fe5b600091825260209091206005909102015460408501526003805484908110614b4857fe5b60009182526020918290206005909102015486039085015260408401516003805485908110614b7357fe5b90600052602060002090600502016000015403600384815481101515614b9557fe5b600091825260209091206005909102015583600160200201516003805484908110614bbc57fe5b90600052602060002090600502016000015403600383815481101515614bde57fe5b60009182526020909120600590910201557f7c6ae15e271230e8f8b92de835be76e504f4bb32c5c02872b19e167d6d100fbf86866001604051928352602083019190915260ff166040808301919091526060909101905180910390a1611b30565b6003805484908110614c4d57fe5b906000526020600020906005020160000154600383815481101515614c6e57fe5b906000526020600020906005020160000154600383815481101515614c8f57fe5b600091825260209091206005909102015401018511614eae577ff5e9c26d6f4f4192de6ab81062e5f90501d77f924b508e44728a2b78d3c12c6d8683876001604051938452602084019290925260408084019190915260ff90911660608301526080909101905180910390a16003805484908110614d0957fe5b600091825260209091206005909102015460408501526003805483908110614d2d57fe5b600091825260209182902060059091020154908501526003805483908110614d5157fe5b906000526020600020906005020160000154600384815481101515614d7257fe5b6000918252602090912060059091020154860303845260408401516003805485908110614d9b57fe5b90600052602060002090600502016000015403600384815481101515614dbd57fe5b600091825260209091206005909102015583600160200201516003805484908110614de457fe5b90600052602060002090600502016000015403600383815481101515614e0657fe5b600091825260209091206005909102015583516003805483908110614e2757fe5b90600052602060002090600502016000015403600382815481101515614e4957fe5b9060005260206000209060050201600001819055507f7c6ae15e271230e8f8b92de835be76e504f4bb32c5c02872b19e167d6d100fbf86866000604051928352602083019190915260ff166040808301919091526060909101905180910390a1611b30565b7ff5e9c26d6f4f4192de6ab81062e5f90501d77f924b508e44728a2b78d3c12c6d8682876000604051938452602084019290925260408084019190915260ff90911660608301526080909101905180910390a17f95f5c188d1321fe8984cadebc18c8fcaddc6cedbf14ee92f03f318c0e2038485868660405191825260208201526040908101905180910390a150505092915050565b801515614f5057600080fd5b614f5a33826142ee565b1515614f6557600080fd5b6000818152601b60205260409020600301541515614f8257600080fd5b6000818152601b602052604090206006015460ff6101009091041660011415614faa57600080fd5b610400600382815481101515614fbc57fe5b6000918252602080832060059283020160040193909355838252601b90925260409081902060068101805461ff00191661010017905542600182015560038101549201547ff5d2d36fd2c60192fd8f874c962737f1858ff797bf9865d071ade33eeee007019284929091905180848152602001838152602001828152602001935050505060405180910390a150565b60008061508e8360408051908101604052600c81527f43726f7764737572616e6365000000000000000000000000000000000000000060208201526000886153e8565b90506101006040519081016040528042815260200160008152602001600f60010154815260200184815260200160008152602001858152602001600060ff168152602001600060058111156150df57fe5b60ff1690526000828152601b60205260409020815181556020820151816001015560408201518160020155606082015181600301556080820151816004015560a0820151816005015560c082015160068201805460ff191660ff9290921691909117905560e08201516006909101805460ff929092166101000261ff001990921691909117905550615170816155da565b507fbca387acb0ba7d06e329c4372885bb664f19a98153ccf3e74e56c136bf0e88c48582856040518084600160a060020a0316600160a060020a03168152602001838152602001828152602001935050505060405180910390a1600160a060020a0385166000908152601960209081526040808320839055601a90915281205590509392505050565b61520385856142ee565b151561520e57600080fd5b61521883836142ee565b151561522357600080fd5b80151561522f57600080fd5b8382141561523c57600080fd5b8060038581548110151561524c57fe5b6000918252602090912060059091020154101561526857600080fd5b61040060038581548110151561527a57fe5b9060005260206000209060050201600401541415151561529957600080fd5b806003858154811015156152a957fe5b906000526020600020906005020160000154036003858154811015156152cb57fe5b600091825260209091206005909102015560038054829190849081106152ed57fe5b9060005260206000209060050201600001540160038381548110151561530f57fe5b60009182526020909120600590910201557f6d401b913d27047ecd2042f0331e2354d30e664920b31480dc71955edb996c388585858585604051600160a060020a0395861681526020810194909452919093166040808401919091526060830193909352608082015260a001905180910390a15050505050565b6000600e8260ff1681548110151561539d57fe5b906000526020600020906006020160040154905092915050565b60006001600e8360ff168154811015156153cd57fe5b90600052602060002090600602016002015403905092915050565b60006153f261572e565b600060a06040519081016040528088815260200187815260200186815260200160008152602001600081525091506001600380548060010182816154369190615764565b6000928352602090922085916005020181518155602082015181600101908051615464929160200190615790565b5060408201518160020155606082015181600301556080820151600490910155500390508015156154f8576001600380548060010182816154a59190615764565b60009283526020909220859160050201815181556020820151816001019080516154d3929160200190615790565b5060408201518160020155606082015181600301556080820151816004015550500390505b63ffffffff8116811461550a57600080fd5b7fdea8e87d69047e1b3cd43ad599d34e3eacfe4408b4dfc5d0f6ac6a15a468de5c8787878760405184815260408101839052600160a060020a038216606082015260806020820181815290820185818151815260200191508051906020019080838360005b8381101561558757808201518382015260200161556f565b50505050905090810190601f1680156155b45780820380516001836020036101000a031916815260200191505b509550505050505060405180910390a16155d060008583614369565b9695505050505050565b60008115801590610ecc57506003548210610ed757600080fd5b60206040519081016040526000815290565b60806040519081016040526004815b60008152602001906001900390816156155790505090565b506000815560010160008155600101600081556001016000815560010160009055565b82600581019282156156a7579160200282015b828111156156a7578251825473ffffffffffffffffffffffffffffffffffffffff1916600160a060020a039190911617825560209290920191600190910190615663565b5061152e92915061580a565b5080546000825560020290600052602060002090810190611303919061583b565b60a0604051908101604090815260008083526020830181905290820181905260608201819052608082015290565b81548183558181151161198457600202816002028360005260206000209182019101611984919061583b565b60a060405190810160405280600081526020016157496155f4565b81526020016000815260200160008152602001600081525090565b815481835581811511611984576005028160050283600052602060002091820191016119849190615877565b828054600181600116156101000203166002900490600052602060002090601f016020900481019282601f106157d157805160ff19168380011785556157fe565b828001600101855582156157fe579182015b828111156157fe5782518255916020019190600101906157e3565b5061152e9291506158b5565b61128291905b8082111561152e57805473ffffffffffffffffffffffffffffffffffffffff19168155600101615810565b61128291905b8082111561152e576000815560018101805476ffffffffffffffffffffffffffffffffffffffffffffff19169055600201615841565b61128291905b8082111561152e57600080825561589760018301826158cf565b5060006002820181905560038201819055600482015560050161587d565b61128291905b8082111561152e57600081556001016158bb565b50805460018160011615610100020316600290046000825580601f106158f55750611303565b601f01602090049060005260206000209081019061130391906158b55600a165627a7a723058205684f1c0457924f3ece70908e8d01164a2da752b0d8940c2f4e76f70a35065440029",
  "source": "pragma solidity ^0.4.17;\n\nimport \"./LuggageCrowdsurance.sol\";\n\ncontract LCSToken is LuggageCrowdsurance {\n  \n  function LCSToken(address _rst) LuggageCrowdsurance(_rst, uint256(0), false, uint8(0)) public {\n    _rst;\n  }\n}",
  "sourcePath": "/Users/sergei/LuggageCrowdsurance/contracts/LCSToken.sol",
  "compiler": {
    "name": "solc",
    "version": "0.4.18+commit.9cf6e910.Emscripten.clang"
  },
  "schemaVersion": "1.0.1",
  "updatedAt": "2018-05-18T08:54:11.376Z"
}