{
  "contractName": "LuggageCrowdsurance",
  "abi": [
    {
      "constant": true,
      "inputs": [],
      "name": "getCurrentVotingStatus",
      "outputs": [
        {
          "name": "status",
          "type": "uint8"
        }
      ],
      "payable": false,
      "stateMutability": "view",
      "type": "function"
    },
    {
      "constant": false,
      "inputs": [
        {
          "name": "_id",
          "type": "uint256"
        }
      ],
      "name": "insertPool",
      "outputs": [
        {
          "name": "",
          "type": "bool"
        }
      ],
      "payable": false,
      "stateMutability": "nonpayable",
      "type": "function"
    },
    {
      "constant": true,
      "inputs": [
        {
          "name": "_interfaceID",
          "type": "bytes4"
        }
      ],
      "name": "supportsInterface",
      "outputs": [
        {
          "name": "",
          "type": "bool"
        }
      ],
      "payable": false,
      "stateMutability": "view",
      "type": "function"
    },
    {
      "constant": true,
      "inputs": [],
      "name": "name",
      "outputs": [
        {
          "name": "",
          "type": "string"
        }
      ],
      "payable": false,
      "stateMutability": "view",
      "type": "function"
    },
    {
      "constant": false,
      "inputs": [
        {
          "name": "_to",
          "type": "address"
        },
        {
          "name": "_tokenId",
          "type": "uint256"
        }
      ],
      "name": "approve",
      "outputs": [],
      "payable": false,
      "stateMutability": "nonpayable",
      "type": "function"
    },
    {
      "constant": false,
      "inputs": [
        {
          "name": "_nodeId",
          "type": "uint256"
        },
        {
          "name": "_parentId",
          "type": "uint256"
        }
      ],
      "name": "addToken",
      "outputs": [],
      "payable": false,
      "stateMutability": "nonpayable",
      "type": "function"
    },
    {
      "constant": true,
      "inputs": [],
      "name": "totalSupply",
      "outputs": [
        {
          "name": "",
          "type": "uint256"
        }
      ],
      "payable": false,
      "stateMutability": "view",
      "type": "function"
    },
    {
      "constant": false,
      "inputs": [],
      "name": "paymentCurrent",
      "outputs": [],
      "payable": false,
      "stateMutability": "nonpayable",
      "type": "function"
    },
    {
      "constant": true,
      "inputs": [],
      "name": "getAppID",
      "outputs": [
        {
          "name": "appId",
          "type": "uint256"
        }
      ],
      "payable": false,
      "stateMutability": "view",
      "type": "function"
    },
    {
      "constant": true,
      "inputs": [
        {
          "name": "_id",
          "type": "uint256"
        },
        {
          "name": "_value",
          "type": "uint256"
        }
      ],
      "name": "checkPaymentAmount",
      "outputs": [
        {
          "name": "level",
          "type": "uint8"
        },
        {
          "name": "amtSubPool",
          "type": "uint256"
        },
        {
          "name": "amtPool",
          "type": "uint256"
        },
        {
          "name": "amtSuperPool",
          "type": "uint256"
        },
        {
          "name": "balance",
          "type": "uint256"
        }
      ],
      "payable": false,
      "stateMutability": "view",
      "type": "function"
    },
    {
      "constant": true,
      "inputs": [],
      "name": "getDistribution",
      "outputs": [
        {
          "name": "distribution",
          "type": "uint256[4]"
        }
      ],
      "payable": false,
      "stateMutability": "view",
      "type": "function"
    },
    {
      "constant": true,
      "inputs": [
        {
          "name": "",
          "type": "uint256"
        }
      ],
      "name": "tokenIndexToOwner",
      "outputs": [
        {
          "name": "",
          "type": "address"
        }
      ],
      "payable": false,
      "stateMutability": "view",
      "type": "function"
    },
    {
      "constant": true,
      "inputs": [],
      "name": "RST",
      "outputs": [
        {
          "name": "",
          "type": "address"
        }
      ],
      "payable": false,
      "stateMutability": "view",
      "type": "function"
    },
    {
      "constant": false,
      "inputs": [
        {
          "name": "_from",
          "type": "address"
        },
        {
          "name": "_to",
          "type": "address"
        },
        {
          "name": "_tokenId",
          "type": "uint256"
        }
      ],
      "name": "transferFrom",
      "outputs": [],
      "payable": false,
      "stateMutability": "nonpayable",
      "type": "function"
    },
    {
      "constant": false,
      "inputs": [
        {
          "name": "_to",
          "type": "address"
        },
        {
          "name": "_toId",
          "type": "uint256"
        },
        {
          "name": "_level",
          "type": "uint256"
        }
      ],
      "name": "setLevel",
      "outputs": [],
      "payable": false,
      "stateMutability": "nonpayable",
      "type": "function"
    },
    {
      "constant": false,
      "inputs": [],
      "name": "castNegativeSelected",
      "outputs": [],
      "payable": false,
      "stateMutability": "nonpayable",
      "type": "function"
    },
    {
      "constant": false,
      "inputs": [
        {
          "name": "_spender",
          "type": "address"
        },
        {
          "name": "_value",
          "type": "uint256"
        }
      ],
      "name": "cApprove",
      "outputs": [
        {
          "name": "success",
          "type": "bool"
        }
      ],
      "payable": false,
      "stateMutability": "nonpayable",
      "type": "function"
    },
    {
      "constant": false,
      "inputs": [
        {
          "name": "_nodeId",
          "type": "uint256"
        }
      ],
      "name": "removeToken",
      "outputs": [],
      "payable": false,
      "stateMutability": "nonpayable",
      "type": "function"
    },
    {
      "constant": false,
      "inputs": [
        {
          "name": "_to",
          "type": "address"
        },
        {
          "name": "_toId",
          "type": "uint256"
        }
      ],
      "name": "increaseLevel",
      "outputs": [],
      "payable": false,
      "stateMutability": "nonpayable",
      "type": "function"
    },
    {
      "constant": true,
      "inputs": [
        {
          "name": "",
          "type": "address"
        }
      ],
      "name": "addressToAmount",
      "outputs": [
        {
          "name": "",
          "type": "uint256"
        }
      ],
      "payable": false,
      "stateMutability": "view",
      "type": "function"
    },
    {
      "constant": false,
      "inputs": [],
      "name": "castPositiveSelected",
      "outputs": [],
      "payable": false,
      "stateMutability": "nonpayable",
      "type": "function"
    },
    {
      "constant": false,
      "inputs": [
        {
          "name": "_from",
          "type": "address"
        },
        {
          "name": "_fromId",
          "type": "uint256"
        },
        {
          "name": "_amount",
          "type": "uint256"
        }
      ],
      "name": "cDestroy",
      "outputs": [],
      "payable": false,
      "stateMutability": "nonpayable",
      "type": "function"
    },
    {
      "constant": true,
      "inputs": [],
      "name": "paybackRatio",
      "outputs": [
        {
          "name": "",
          "type": "uint8"
        }
      ],
      "payable": false,
      "stateMutability": "view",
      "type": "function"
    },
    {
      "constant": true,
      "inputs": [],
      "name": "getApplication",
      "outputs": [
        {
          "name": "member",
          "type": "address"
        },
        {
          "name": "appId",
          "type": "uint256"
        }
      ],
      "payable": false,
      "stateMutability": "view",
      "type": "function"
    },
    {
      "constant": true,
      "inputs": [],
      "name": "ETHOnly",
      "outputs": [
        {
          "name": "",
          "type": "bool"
        }
      ],
      "payable": false,
      "stateMutability": "view",
      "type": "function"
    },
    {
      "constant": false,
      "inputs": [
        {
          "name": "_to",
          "type": "address"
        },
        {
          "name": "_toId",
          "type": "uint256"
        },
        {
          "name": "_amount",
          "type": "uint256"
        }
      ],
      "name": "cIssue",
      "outputs": [],
      "payable": false,
      "stateMutability": "nonpayable",
      "type": "function"
    },
    {
      "constant": true,
      "inputs": [],
      "name": "getCurrentTokenId",
      "outputs": [
        {
          "name": "currentId",
          "type": "uint256"
        }
      ],
      "payable": false,
      "stateMutability": "view",
      "type": "function"
    },
    {
      "constant": false,
      "inputs": [],
      "name": "claimCurrent",
      "outputs": [
        {
          "name": "",
          "type": "bool"
        }
      ],
      "payable": false,
      "stateMutability": "nonpayable",
      "type": "function"
    },
    {
      "constant": true,
      "inputs": [
        {
          "name": "_tokenId",
          "type": "uint256"
        }
      ],
      "name": "ownerOf",
      "outputs": [
        {
          "name": "",
          "type": "address"
        }
      ],
      "payable": false,
      "stateMutability": "view",
      "type": "function"
    },
    {
      "constant": false,
      "inputs": [
        {
          "name": "_to",
          "type": "address"
        },
        {
          "name": "_value",
          "type": "uint256"
        }
      ],
      "name": "cTransfer",
      "outputs": [
        {
          "name": "success",
          "type": "bool"
        }
      ],
      "payable": false,
      "stateMutability": "nonpayable",
      "type": "function"
    },
    {
      "constant": true,
      "inputs": [
        {
          "name": "_tokenId",
          "type": "uint256"
        }
      ],
      "name": "tokenMetadata",
      "outputs": [
        {
          "name": "infoUrl",
          "type": "string"
        }
      ],
      "payable": false,
      "stateMutability": "view",
      "type": "function"
    },
    {
      "constant": true,
      "inputs": [
        {
          "name": "_owner",
          "type": "address"
        }
      ],
      "name": "balanceOf",
      "outputs": [
        {
          "name": "count",
          "type": "uint256"
        }
      ],
      "payable": false,
      "stateMutability": "view",
      "type": "function"
    },
    {
      "constant": false,
      "inputs": [],
      "name": "acceptOwnership",
      "outputs": [],
      "payable": false,
      "stateMutability": "nonpayable",
      "type": "function"
    },
    {
      "constant": true,
      "inputs": [
        {
          "name": "",
          "type": "uint256"
        }
      ],
      "name": "requests",
      "outputs": [
        {
          "name": "amount",
          "type": "uint256"
        },
        {
          "name": "timeStamp",
          "type": "uint256"
        },
        {
          "name": "duration",
          "type": "uint256"
        },
        {
          "name": "positive",
          "type": "uint8"
        },
        {
          "name": "negative",
          "type": "uint8"
        },
        {
          "name": "number",
          "type": "uint8"
        }
      ],
      "payable": false,
      "stateMutability": "view",
      "type": "function"
    },
    {
      "constant": true,
      "inputs": [
        {
          "name": "_owner",
          "type": "address"
        }
      ],
      "name": "tokensOfOwner",
      "outputs": [
        {
          "name": "ownerTokens",
          "type": "uint256[]"
        }
      ],
      "payable": false,
      "stateMutability": "view",
      "type": "function"
    },
    {
      "constant": true,
      "inputs": [],
      "name": "parameters",
      "outputs": [
        {
          "name": "joinAmount",
          "type": "uint256"
        },
        {
          "name": "coverageDuration",
          "type": "uint256"
        },
        {
          "name": "maxClaimAmount",
          "type": "uint256"
        },
        {
          "name": "maxClaimNumber",
          "type": "uint8"
        },
        {
          "name": "paymentRatio",
          "type": "uint8"
        },
        {
          "name": "maxPaymentAmount",
          "type": "uint256"
        },
        {
          "name": "minJuriesNumber",
          "type": "uint8"
        },
        {
          "name": "votingDuration",
          "type": "uint256"
        },
        {
          "name": "juriesNumber",
          "type": "uint8"
        },
        {
          "name": "maxApplications",
          "type": "uint256"
        },
        {
          "name": "averageScore",
          "type": "uint256"
        },
        {
          "name": "defaultClaimAmount",
          "type": "uint256"
        }
      ],
      "payable": false,
      "stateMutability": "view",
      "type": "function"
    },
    {
      "constant": false,
      "inputs": [
        {
          "name": "_id",
          "type": "uint256"
        }
      ],
      "name": "payment",
      "outputs": [],
      "payable": false,
      "stateMutability": "nonpayable",
      "type": "function"
    },
    {
      "constant": true,
      "inputs": [],
      "name": "owner",
      "outputs": [
        {
          "name": "",
          "type": "address"
        }
      ],
      "payable": false,
      "stateMutability": "view",
      "type": "function"
    },
    {
      "constant": true,
      "inputs": [],
      "name": "cTotalSupply",
      "outputs": [
        {
          "name": "",
          "type": "uint256"
        }
      ],
      "payable": false,
      "stateMutability": "view",
      "type": "function"
    },
    {
      "constant": true,
      "inputs": [],
      "name": "symbol",
      "outputs": [
        {
          "name": "",
          "type": "string"
        }
      ],
      "payable": false,
      "stateMutability": "view",
      "type": "function"
    },
    {
      "constant": false,
      "inputs": [
        {
          "name": "_fromId",
          "type": "uint256"
        },
        {
          "name": "_spender",
          "type": "address"
        },
        {
          "name": "_toId",
          "type": "uint256"
        },
        {
          "name": "_value",
          "type": "uint256"
        }
      ],
      "name": "cApproveFrom",
      "outputs": [
        {
          "name": "success",
          "type": "bool"
        }
      ],
      "payable": false,
      "stateMutability": "nonpayable",
      "type": "function"
    },
    {
      "constant": true,
      "inputs": [],
      "name": "maxHold",
      "outputs": [
        {
          "name": "",
          "type": "uint8"
        }
      ],
      "payable": false,
      "stateMutability": "view",
      "type": "function"
    },
    {
      "constant": true,
      "inputs": [
        {
          "name": "",
          "type": "uint256"
        }
      ],
      "name": "tokenIndexToPoolToken",
      "outputs": [
        {
          "name": "",
          "type": "uint256"
        }
      ],
      "payable": false,
      "stateMutability": "view",
      "type": "function"
    },
    {
      "constant": true,
      "inputs": [],
      "name": "getJoinAmount",
      "outputs": [
        {
          "name": "amount",
          "type": "uint256"
        }
      ],
      "payable": false,
      "stateMutability": "view",
      "type": "function"
    },
    {
      "constant": false,
      "inputs": [],
      "name": "fssf",
      "outputs": [],
      "payable": false,
      "stateMutability": "nonpayable",
      "type": "function"
    },
    {
      "constant": true,
      "inputs": [
        {
          "name": "",
          "type": "address"
        }
      ],
      "name": "voters",
      "outputs": [
        {
          "name": "",
          "type": "uint256"
        }
      ],
      "payable": false,
      "stateMutability": "view",
      "type": "function"
    },
    {
      "constant": true,
      "inputs": [
        {
          "name": "",
          "type": "uint256"
        }
      ],
      "name": "payback",
      "outputs": [
        {
          "name": "",
          "type": "uint256"
        }
      ],
      "payable": false,
      "stateMutability": "view",
      "type": "function"
    },
    {
      "constant": true,
      "inputs": [
        {
          "name": "",
          "type": "uint256"
        }
      ],
      "name": "claims",
      "outputs": [
        {
          "name": "",
          "type": "uint256"
        }
      ],
      "payable": false,
      "stateMutability": "view",
      "type": "function"
    },
    {
      "constant": true,
      "inputs": [
        {
          "name": "",
          "type": "uint256"
        }
      ],
      "name": "tokenIndexToApproved",
      "outputs": [
        {
          "name": "",
          "type": "address"
        }
      ],
      "payable": false,
      "stateMutability": "view",
      "type": "function"
    },
    {
      "constant": false,
      "inputs": [
        {
          "name": "_to",
          "type": "address"
        },
        {
          "name": "_tokenId",
          "type": "uint256"
        }
      ],
      "name": "transfer",
      "outputs": [],
      "payable": false,
      "stateMutability": "nonpayable",
      "type": "function"
    },
    {
      "constant": true,
      "inputs": [
        {
          "name": "_to",
          "type": "address"
        },
        {
          "name": "_toId",
          "type": "uint256"
        }
      ],
      "name": "getLevel",
      "outputs": [
        {
          "name": "",
          "type": "uint256"
        }
      ],
      "payable": false,
      "stateMutability": "view",
      "type": "function"
    },
    {
      "constant": true,
      "inputs": [
        {
          "name": "_owner",
          "type": "address"
        }
      ],
      "name": "cBalanceOf",
      "outputs": [
        {
          "name": "",
          "type": "uint256"
        }
      ],
      "payable": false,
      "stateMutability": "view",
      "type": "function"
    },
    {
      "constant": true,
      "inputs": [],
      "name": "rstETHRate",
      "outputs": [
        {
          "name": "",
          "type": "uint256"
        }
      ],
      "payable": false,
      "stateMutability": "view",
      "type": "function"
    },
    {
      "constant": true,
      "inputs": [
        {
          "name": "",
          "type": "address"
        }
      ],
      "name": "addressToApplication",
      "outputs": [
        {
          "name": "",
          "type": "uint256"
        }
      ],
      "payable": false,
      "stateMutability": "view",
      "type": "function"
    },
    {
      "constant": false,
      "inputs": [
        {
          "name": "_from",
          "type": "address"
        },
        {
          "name": "_to",
          "type": "address"
        },
        {
          "name": "_value",
          "type": "uint256"
        }
      ],
      "name": "cTransferFrom",
      "outputs": [
        {
          "name": "success",
          "type": "bool"
        }
      ],
      "payable": false,
      "stateMutability": "nonpayable",
      "type": "function"
    },
    {
      "constant": true,
      "inputs": [
        {
          "name": "_member",
          "type": "address"
        },
        {
          "name": "_status",
          "type": "uint8"
        }
      ],
      "name": "statusCount",
      "outputs": [
        {
          "name": "count",
          "type": "uint256"
        }
      ],
      "payable": false,
      "stateMutability": "view",
      "type": "function"
    },
    {
      "constant": false,
      "inputs": [
        {
          "name": "_id",
          "type": "uint256"
        },
        {
          "name": "_claim",
          "type": "uint256"
        }
      ],
      "name": "claim",
      "outputs": [
        {
          "name": "",
          "type": "bool"
        }
      ],
      "payable": false,
      "stateMutability": "nonpayable",
      "type": "function"
    },
    {
      "constant": true,
      "inputs": [
        {
          "name": "",
          "type": "address"
        }
      ],
      "name": "addressToScore",
      "outputs": [
        {
          "name": "",
          "type": "uint256"
        }
      ],
      "payable": false,
      "stateMutability": "view",
      "type": "function"
    },
    {
      "constant": false,
      "inputs": [
        {
          "name": "_id",
          "type": "uint256"
        },
        {
          "name": "_positive",
          "type": "bool"
        }
      ],
      "name": "vote",
      "outputs": [],
      "payable": false,
      "stateMutability": "nonpayable",
      "type": "function"
    },
    {
      "constant": true,
      "inputs": [
        {
          "name": "",
          "type": "address"
        },
        {
          "name": "",
          "type": "address"
        }
      ],
      "name": "allowanceAmt",
      "outputs": [
        {
          "name": "",
          "type": "uint256"
        }
      ],
      "payable": false,
      "stateMutability": "view",
      "type": "function"
    },
    {
      "constant": true,
      "inputs": [],
      "name": "maxLevel",
      "outputs": [
        {
          "name": "",
          "type": "uint256"
        }
      ],
      "payable": false,
      "stateMutability": "view",
      "type": "function"
    },
    {
      "constant": false,
      "inputs": [
        {
          "name": "_member",
          "type": "address"
        },
        {
          "name": "_score",
          "type": "uint256"
        },
        {
          "name": "_amount",
          "type": "uint256"
        }
      ],
      "name": "scoring",
      "outputs": [],
      "payable": false,
      "stateMutability": "nonpayable",
      "type": "function"
    },
    {
      "constant": true,
      "inputs": [],
      "name": "joinAmountRST",
      "outputs": [
        {
          "name": "",
          "type": "uint256"
        }
      ],
      "payable": false,
      "stateMutability": "view",
      "type": "function"
    },
    {
      "constant": true,
      "inputs": [],
      "name": "getHash",
      "outputs": [
        {
          "name": "",
          "type": "string"
        }
      ],
      "payable": false,
      "stateMutability": "view",
      "type": "function"
    },
    {
      "constant": true,
      "inputs": [],
      "name": "newOwner",
      "outputs": [
        {
          "name": "",
          "type": "address"
        }
      ],
      "payable": false,
      "stateMutability": "view",
      "type": "function"
    },
    {
      "constant": false,
      "inputs": [],
      "name": "apply",
      "outputs": [
        {
          "name": "addId",
          "type": "uint256"
        }
      ],
      "payable": false,
      "stateMutability": "nonpayable",
      "type": "function"
    },
    {
      "constant": true,
      "inputs": [
        {
          "name": "",
          "type": "uint256"
        }
      ],
      "name": "extensions",
      "outputs": [
        {
          "name": "timeStamp",
          "type": "uint256"
        },
        {
          "name": "activated",
          "type": "uint256"
        },
        {
          "name": "duration",
          "type": "uint256"
        },
        {
          "name": "amount",
          "type": "uint256"
        },
        {
          "name": "paid",
          "type": "uint256"
        },
        {
          "name": "score",
          "type": "uint256"
        },
        {
          "name": "claimNumber",
          "type": "uint8"
        },
        {
          "name": "status",
          "type": "uint8"
        }
      ],
      "payable": false,
      "stateMutability": "view",
      "type": "function"
    },
    {
      "constant": true,
      "inputs": [],
      "name": "getNumberOfClaims",
      "outputs": [
        {
          "name": "",
          "type": "uint256"
        }
      ],
      "payable": false,
      "stateMutability": "view",
      "type": "function"
    },
    {
      "constant": true,
      "inputs": [
        {
          "name": "",
          "type": "address"
        },
        {
          "name": "",
          "type": "address"
        }
      ],
      "name": "allowance",
      "outputs": [
        {
          "name": "",
          "type": "uint256"
        }
      ],
      "payable": false,
      "stateMutability": "view",
      "type": "function"
    },
    {
      "constant": true,
      "inputs": [],
      "name": "getComission",
      "outputs": [
        {
          "name": "commission",
          "type": "uint256"
        }
      ],
      "payable": false,
      "stateMutability": "view",
      "type": "function"
    },
    {
      "constant": true,
      "inputs": [],
      "name": "appNumber",
      "outputs": [
        {
          "name": "",
          "type": "uint256"
        }
      ],
      "payable": false,
      "stateMutability": "view",
      "type": "function"
    },
    {
      "constant": true,
      "inputs": [
        {
          "name": "",
          "type": "uint256"
        }
      ],
      "name": "applications",
      "outputs": [
        {
          "name": "timeStamp",
          "type": "uint256"
        },
        {
          "name": "member",
          "type": "address"
        },
        {
          "name": "tokensToBuy",
          "type": "uint8"
        },
        {
          "name": "paymetMethod",
          "type": "uint8"
        },
        {
          "name": "processed",
          "type": "bool"
        }
      ],
      "payable": false,
      "stateMutability": "view",
      "type": "function"
    },
    {
      "constant": true,
      "inputs": [
        {
          "name": "_nodeId",
          "type": "uint256"
        }
      ],
      "name": "getPath",
      "outputs": [
        {
          "name": "path",
          "type": "uint256[]"
        }
      ],
      "payable": false,
      "stateMutability": "view",
      "type": "function"
    },
    {
      "constant": true,
      "inputs": [
        {
          "name": "",
          "type": "address"
        },
        {
          "name": "",
          "type": "address"
        }
      ],
      "name": "allowanceIds",
      "outputs": [
        {
          "name": "",
          "type": "uint256"
        }
      ],
      "payable": false,
      "stateMutability": "view",
      "type": "function"
    },
    {
      "constant": false,
      "inputs": [
        {
          "name": "_newOwner",
          "type": "address"
        }
      ],
      "name": "transferOwnership",
      "outputs": [],
      "payable": false,
      "stateMutability": "nonpayable",
      "type": "function"
    },
    {
      "constant": false,
      "inputs": [
        {
          "name": "_jury",
          "type": "address"
        }
      ],
      "name": "addVoter",
      "outputs": [],
      "payable": false,
      "stateMutability": "nonpayable",
      "type": "function"
    },
    {
      "constant": true,
      "inputs": [
        {
          "name": "_owner",
          "type": "address"
        },
        {
          "name": "_spender",
          "type": "address"
        }
      ],
      "name": "cAllowance",
      "outputs": [
        {
          "name": "",
          "type": "uint256"
        }
      ],
      "payable": false,
      "stateMutability": "view",
      "type": "function"
    },
    {
      "inputs": [
        {
          "name": "_rst",
          "type": "address"
        },
        {
          "name": "_amount",
          "type": "uint256"
        },
        {
          "name": "_only",
          "type": "bool"
        },
        {
          "name": "_max",
          "type": "uint8"
        }
      ],
      "payable": false,
      "stateMutability": "nonpayable",
      "type": "constructor"
    },
    {
      "payable": true,
      "stateMutability": "payable",
      "type": "fallback"
    },
    {
      "anonymous": false,
      "inputs": [
        {
          "indexed": false,
          "name": "member",
          "type": "address"
        },
        {
          "indexed": false,
          "name": "appId",
          "type": "uint256"
        }
      ],
      "name": "Apply",
      "type": "event"
    },
    {
      "anonymous": false,
      "inputs": [
        {
          "indexed": false,
          "name": "member",
          "type": "address"
        },
        {
          "indexed": false,
          "name": "id",
          "type": "uint256"
        },
        {
          "indexed": false,
          "name": "amount",
          "type": "uint256"
        }
      ],
      "name": "Join",
      "type": "event"
    },
    {
      "anonymous": false,
      "inputs": [
        {
          "indexed": false,
          "name": "member",
          "type": "address"
        },
        {
          "indexed": false,
          "name": "score",
          "type": "uint256"
        },
        {
          "indexed": false,
          "name": "amount",
          "type": "uint256"
        }
      ],
      "name": "Scoring",
      "type": "event"
    },
    {
      "anonymous": false,
      "inputs": [
        {
          "indexed": false,
          "name": "id",
          "type": "uint256"
        },
        {
          "indexed": false,
          "name": "amount",
          "type": "uint256"
        },
        {
          "indexed": false,
          "name": "score",
          "type": "uint256"
        }
      ],
      "name": "Activate",
      "type": "event"
    },
    {
      "anonymous": false,
      "inputs": [
        {
          "indexed": false,
          "name": "id",
          "type": "uint256"
        },
        {
          "indexed": false,
          "name": "claim",
          "type": "uint256"
        },
        {
          "indexed": false,
          "name": "number",
          "type": "uint8"
        }
      ],
      "name": "Claim",
      "type": "event"
    },
    {
      "anonymous": false,
      "inputs": [
        {
          "indexed": false,
          "name": "jury",
          "type": "address"
        },
        {
          "indexed": false,
          "name": "id",
          "type": "uint256"
        },
        {
          "indexed": false,
          "name": "positive",
          "type": "bool"
        }
      ],
      "name": "Vote",
      "type": "event"
    },
    {
      "anonymous": false,
      "inputs": [
        {
          "indexed": false,
          "name": "reciever",
          "type": "address"
        },
        {
          "indexed": false,
          "name": "id",
          "type": "uint256"
        },
        {
          "indexed": false,
          "name": "amount",
          "type": "uint256"
        },
        {
          "indexed": false,
          "name": "status",
          "type": "uint8"
        }
      ],
      "name": "Payment",
      "type": "event"
    },
    {
      "anonymous": false,
      "inputs": [
        {
          "indexed": false,
          "name": "member",
          "type": "address"
        },
        {
          "indexed": false,
          "name": "appId",
          "type": "uint256"
        }
      ],
      "name": "FSSF",
      "type": "event"
    },
    {
      "anonymous": false,
      "inputs": [
        {
          "indexed": false,
          "name": "id",
          "type": "uint256"
        },
        {
          "indexed": false,
          "name": "poolId",
          "type": "uint256"
        },
        {
          "indexed": false,
          "name": "level",
          "type": "uint8"
        }
      ],
      "name": "InsertPool",
      "type": "event"
    },
    {
      "anonymous": false,
      "inputs": [
        {
          "indexed": false,
          "name": "id",
          "type": "uint256"
        },
        {
          "indexed": false,
          "name": "superPoolValue",
          "type": "uint256"
        },
        {
          "indexed": false,
          "name": "poolValue",
          "type": "uint256"
        },
        {
          "indexed": false,
          "name": "subPoolValue",
          "type": "uint256"
        },
        {
          "indexed": false,
          "name": "comission",
          "type": "uint256"
        }
      ],
      "name": "DistributeValue",
      "type": "event"
    },
    {
      "anonymous": false,
      "inputs": [
        {
          "indexed": false,
          "name": "id",
          "type": "uint256"
        },
        {
          "indexed": false,
          "name": "value",
          "type": "uint256"
        }
      ],
      "name": "SecondTierCall",
      "type": "event"
    },
    {
      "anonymous": false,
      "inputs": [
        {
          "indexed": false,
          "name": "id",
          "type": "uint256"
        },
        {
          "indexed": false,
          "name": "poolId",
          "type": "uint256"
        },
        {
          "indexed": false,
          "name": "value",
          "type": "uint256"
        },
        {
          "indexed": false,
          "name": "level",
          "type": "uint8"
        }
      ],
      "name": "ShortOfFunds",
      "type": "event"
    },
    {
      "anonymous": false,
      "inputs": [
        {
          "indexed": false,
          "name": "id",
          "type": "uint256"
        },
        {
          "indexed": false,
          "name": "value",
          "type": "uint256"
        },
        {
          "indexed": false,
          "name": "level",
          "type": "uint8"
        }
      ],
      "name": "PaymentValue",
      "type": "event"
    },
    {
      "anonymous": false,
      "inputs": [
        {
          "indexed": false,
          "name": "nodeId",
          "type": "uint256"
        },
        {
          "indexed": false,
          "name": "parentId",
          "type": "uint256"
        },
        {
          "indexed": false,
          "name": "level",
          "type": "uint256"
        }
      ],
      "name": "AddToken",
      "type": "event"
    },
    {
      "anonymous": false,
      "inputs": [
        {
          "indexed": false,
          "name": "nodeId",
          "type": "uint256"
        },
        {
          "indexed": false,
          "name": "level",
          "type": "uint256"
        }
      ],
      "name": "RemoveToken",
      "type": "event"
    },
    {
      "anonymous": false,
      "inputs": [
        {
          "indexed": false,
          "name": "from",
          "type": "address"
        },
        {
          "indexed": false,
          "name": "fromId",
          "type": "uint256"
        },
        {
          "indexed": false,
          "name": "to",
          "type": "address"
        },
        {
          "indexed": false,
          "name": "toId",
          "type": "uint256"
        },
        {
          "indexed": false,
          "name": "value",
          "type": "uint256"
        }
      ],
      "name": "Transfer",
      "type": "event"
    },
    {
      "anonymous": false,
      "inputs": [
        {
          "indexed": false,
          "name": "to",
          "type": "address"
        },
        {
          "indexed": false,
          "name": "toId",
          "type": "uint256"
        },
        {
          "indexed": false,
          "name": "value",
          "type": "uint256"
        }
      ],
      "name": "AddValue",
      "type": "event"
    },
    {
      "anonymous": false,
      "inputs": [
        {
          "indexed": false,
          "name": "from",
          "type": "address"
        },
        {
          "indexed": false,
          "name": "fromId",
          "type": "uint256"
        },
        {
          "indexed": false,
          "name": "value",
          "type": "uint256"
        }
      ],
      "name": "RemoveValue",
      "type": "event"
    },
    {
      "anonymous": false,
      "inputs": [
        {
          "indexed": false,
          "name": "to",
          "type": "address"
        },
        {
          "indexed": false,
          "name": "toId",
          "type": "uint256"
        },
        {
          "indexed": false,
          "name": "level",
          "type": "uint256"
        }
      ],
      "name": "SetLevel",
      "type": "event"
    },
    {
      "anonymous": false,
      "inputs": [
        {
          "indexed": false,
          "name": "to",
          "type": "address"
        },
        {
          "indexed": false,
          "name": "toId",
          "type": "uint256"
        }
      ],
      "name": "IncreaseLevel",
      "type": "event"
    },
    {
      "anonymous": false,
      "inputs": [
        {
          "indexed": true,
          "name": "_prevOwner",
          "type": "address"
        },
        {
          "indexed": true,
          "name": "_newOwner",
          "type": "address"
        }
      ],
      "name": "OwnerUpdate",
      "type": "event"
    },
    {
      "anonymous": false,
      "inputs": [
        {
          "indexed": false,
          "name": "fromId",
          "type": "uint256"
        },
        {
          "indexed": false,
          "name": "spender",
          "type": "address"
        },
        {
          "indexed": false,
          "name": "toId",
          "type": "uint256"
        },
        {
          "indexed": false,
          "name": "value",
          "type": "uint256"
        }
      ],
      "name": "CApproveFrom",
      "type": "event"
    },
    {
      "anonymous": false,
      "inputs": [
        {
          "indexed": false,
          "name": "spender",
          "type": "address"
        },
        {
          "indexed": false,
          "name": "value",
          "type": "uint256"
        }
      ],
      "name": "CApprove",
      "type": "event"
    },
    {
      "anonymous": false,
      "inputs": [
        {
          "indexed": false,
          "name": "from",
          "type": "address"
        },
        {
          "indexed": false,
          "name": "fromId",
          "type": "uint256"
        },
        {
          "indexed": false,
          "name": "to",
          "type": "address"
        },
        {
          "indexed": false,
          "name": "toId",
          "type": "uint256"
        },
        {
          "indexed": false,
          "name": "value",
          "type": "uint256"
        },
        {
          "indexed": false,
          "name": "allowance",
          "type": "uint256"
        }
      ],
      "name": "CTransferFrom",
      "type": "event"
    },
    {
      "anonymous": false,
      "inputs": [
        {
          "indexed": false,
          "name": "to",
          "type": "address"
        },
        {
          "indexed": false,
          "name": "toId",
          "type": "uint256"
        },
        {
          "indexed": false,
          "name": "amount",
          "type": "uint256"
        }
      ],
      "name": "CIssue",
      "type": "event"
    },
    {
      "anonymous": false,
      "inputs": [
        {
          "indexed": false,
          "name": "from",
          "type": "address"
        },
        {
          "indexed": false,
          "name": "fromId",
          "type": "uint256"
        },
        {
          "indexed": false,
          "name": "amount",
          "type": "uint256"
        }
      ],
      "name": "CDestroy",
      "type": "event"
    },
    {
      "anonymous": false,
      "inputs": [
        {
          "indexed": false,
          "name": "from",
          "type": "address"
        },
        {
          "indexed": false,
          "name": "to",
          "type": "address"
        },
        {
          "indexed": false,
          "name": "tokenId",
          "type": "uint256"
        }
      ],
      "name": "Transfer",
      "type": "event"
    },
    {
      "anonymous": false,
      "inputs": [
        {
          "indexed": false,
          "name": "owner",
          "type": "address"
        },
        {
          "indexed": false,
          "name": "approved",
          "type": "address"
        },
        {
          "indexed": false,
          "name": "tokenId",
          "type": "uint256"
        }
      ],
      "name": "Approval",
      "type": "event"
    },
    {
      "anonymous": false,
      "inputs": [
        {
          "indexed": false,
          "name": "value",
          "type": "uint256"
        },
        {
          "indexed": false,
          "name": "metadata",
          "type": "string"
        },
        {
          "indexed": false,
          "name": "kind",
          "type": "uint256"
        },
        {
          "indexed": false,
          "name": "owner",
          "type": "address"
        }
      ],
      "name": "Birth",
      "type": "event"
    },
    {
      "constant": false,
      "inputs": [],
      "name": "join",
      "outputs": [
        {
          "name": "cowdsuranceId",
          "type": "uint256"
        }
      ],
      "payable": true,
      "stateMutability": "payable",
      "type": "function"
    },
    {
      "constant": false,
      "inputs": [
        {
          "name": "_id",
          "type": "uint256"
        },
        {
          "name": "_amount",
          "type": "uint256"
        }
      ],
      "name": "setPayback",
      "outputs": [
        {
          "name": "",
          "type": "bool"
        }
      ],
      "payable": false,
      "stateMutability": "nonpayable",
      "type": "function"
    },
    {
      "constant": false,
      "inputs": [
        {
          "name": "_id",
          "type": "uint256"
        }
      ],
      "name": "getPayback",
      "outputs": [],
      "payable": false,
      "stateMutability": "nonpayable",
      "type": "function"
    },
    {
      "constant": false,
      "inputs": [
        {
          "name": "_id",
          "type": "uint256"
        },
        {
          "name": "_hash",
          "type": "string"
        }
      ],
      "name": "activate",
      "outputs": [],
      "payable": false,
      "stateMutability": "nonpayable",
      "type": "function"
    },
    {
      "constant": false,
      "inputs": [
        {
          "name": "_hash",
          "type": "string"
        }
      ],
      "name": "activateCurrent",
      "outputs": [],
      "payable": false,
      "stateMutability": "nonpayable",
      "type": "function"
    },
    {
      "constant": true,
      "inputs": [],
      "name": "getAllowance",
      "outputs": [
        {
          "name": "allowance",
          "type": "uint256"
        }
      ],
      "payable": false,
      "stateMutability": "view",
      "type": "function"
    },
    {
      "constant": false,
      "inputs": [],
      "name": "transferCommission",
      "outputs": [],
      "payable": false,
      "stateMutability": "nonpayable",
      "type": "function"
    },
    {
      "constant": true,
      "inputs": [],
      "name": "getBizProcessId",
      "outputs": [
        {
          "name": "contractOwner",
          "type": "address"
        },
        {
          "name": "bizProcessId",
          "type": "uint8"
        }
      ],
      "payable": false,
      "stateMutability": "view",
      "type": "function"
    },
    {
      "constant": true,
      "inputs": [
        {
          "name": "_tokenId",
          "type": "uint256"
        }
      ],
      "name": "valueOf",
      "outputs": [
        {
          "name": "value",
          "type": "uint256"
        }
      ],
      "payable": false,
      "stateMutability": "view",
      "type": "function"
    }
  ],
  "bytecode": "0x60806040523480156200001157600080fd5b506040516080806200a6cf833981018060405281019080805190602001909291908051906020019092919080519060200190929190805190602001909291905050506040805190810160405280602081526020017f4c7567676167652043726f7764737572616e636520536d61727420546f6b656e8152506040805190810160405280600481526020017f4c4353540000000000000000000000000000000000000000000000000000000081525081816000806000620000d062000dc6565b620000da62000dc6565b620000e462000dc6565b87878181818133600260006101000a81548173ffffffffffffffffffffffffffffffffffffffff021916908373ffffffffffffffffffffffffffffffffffffffff16021790555081600090805190602001906200014392919062000e00565b5080600190805190602001906200015c92919062000e00565b50505033600a60006101000a81548173ffffffffffffffffffffffffffffffffffffffff021916908373ffffffffffffffffffffffffffffffffffffffff16021790555050506004600c8190555050506004600c8190555062000231678ac7230489e800006040805190810160405280600981526020017f5375706572506f6f6c00000000000000000000000000000000000000000000008152506001600a60009054906101000a900473ffffffffffffffffffffffffffffffffffffffff16620007e7640100000000026401000000009004565b9550620002a960006040805190810160405280600481526020017f506f6f6c000000000000000000000000000000000000000000000000000000008152506001600a60009054906101000a900473ffffffffffffffffffffffffffffffffffffffff16620007e7640100000000026401000000009004565b94506200032160006040805190810160405280600781526020017f537562506f6f6c000000000000000000000000000000000000000000000000008152506002600a60009054906101000a900473ffffffffffffffffffffffffffffffffffffffff16620007e7640100000000026401000000009004565b93506200033e858762000a4c640100000000026401000000009004565b62000359848662000a4c640100000000026401000000009004565b60c060405190810160405280600060ff16815260200160018152602001600a815260200160018152602001878152602001600a8152509250600e839080600181540180825580915050906001820390600052602060002090600602016000909192909190915060008201518160000160006101000a81548160ff021916908360ff1602179055506020820151816001015560408201518160020155606082015181600301556080820151816004015560a0820151816005015550505060c060405190810160405280600160ff168152602001600a8152602001606481526020016001815260200186815260200160148152509150600e829080600181540180825580915050906001820390600052602060002090600602016000909192909190915060008201518160000160006101000a81548160ff021916908360ff1602179055506020820151816001015560408201518160020155606082015181600301556080820151816004015560a0820151816005015550505060c060405190810160405280600260ff1681526020016103e88152602001606481526020016001815260200185815260200160328152509050600e819080600181540180825580915050906001820390600052602060002090600602016000909192909190915060008201518160000160006101000a81548160ff021916908360ff1602179055506020820151816001015560408201518160020155606082015181600301556080820151816004015560a08201518160050155505050600060036000815481101515620005a157fe5b9060005260206000209060050201600001819055505050505050505050668700cc75770000600f6000018190555062f099c0600f60010181905550673782dace9d900000600f600201819055506003600f60030160006101000a81548160ff021916908360ff1602179055506064600f60030160016101000a81548160ff021916908360ff160217905550678ac7230489e80000600f600401819055506003600f60050160006101000a81548160ff021916908360ff1602179055506202a300600f600601819055506005600f60070160006101000a81548160ff021916908360ff160217905550600a600f600801819055506064600f60090181905550673782dace9d900000600f600a018190555060006021819055506000602381905550505083602460006101000a81548173ffffffffffffffffffffffffffffffffffffffff021916908373ffffffffffffffffffffffffffffffffffffffff160217905550668700cc75770000600f60000181905550673782dace9d900000600f60020181905550600083141562000743576401c4fecc006025819055506200074b565b826025819055505b600060ff168160ff1614156200077d576005602660016101000a81548160ff021916908360ff16021790555062000799565b80602660016101000a81548160ff021916908360ff1602179055505b81602660006101000a81548160ff02191690831515021790555066b1a2bc2ec500006027819055506064602860006101000a81548160ff021916908360ff1602179055505050505062000f66565b6000620007f362000e87565b600060a06040519081016040528088815260200187815260200186815260200160008152602001600081525091506001600383908060018154018082558091505090600182039060005260206000209060050201600090919290919091506000820151816000015560208201518160010190805190602001906200087992919062000eb7565b506040820151816002015560608201518160030155608082015181600401555050039050600063ffffffff168114156200092a576001600383908060018154018082558091505090600182039060005260206000209060050201600090919290919091506000820151816000015560208201518160010190805190602001906200090592919062000eb7565b5060408201518160020155606082015181600301556080820151816004015550500390505b8063ffffffff16811415156200093f57600080fd5b7fdea8e87d69047e1b3cd43ad599d34e3eacfe4408b4dfc5d0f6ac6a15a468de5c8787878760405180858152602001806020018481526020018373ffffffffffffffffffffffffffffffffffffffff1673ffffffffffffffffffffffffffffffffffffffff168152602001828103825285818151815260200191508051906020019080838360005b83811015620009e4578082015181840152602081019050620009c7565b50505050905090810190601f16801562000a125780820380516001836020036101000a031916815260200191505b509550505050505060405180910390a162000a3f6000858362000b93640100000000026401000000009004565b8092505050949350505050565b6000821415801562000a62575060038054905082105b151562000a6e57600080fd5b6000811415801562000a84575060038054905081105b151562000a9057600080fd5b6001600c540360038281548110151562000aa657fe5b90600052602060002090600502016003015410151562000ac557600080fd5b80600d600084815260200190815260200160002081905550600160038281548110151562000aef57fe5b9060005260206000209060050201600301540160038381548110151562000b1257fe5b9060005260206000209060050201600301819055507f0900f87897aa374bb21fa36753905fa2944dd2301242246101a9047a0ed227a0828260038581548110151562000b5a57fe5b90600052602060002090600502016003015460405180848152602001838152602001828152602001935050505060405180910390a15050565b61040060038281548110151562000ba657fe5b9060005260206000209060050201600401541415151562000bc357fe5b600560008373ffffffffffffffffffffffffffffffffffffffff1673ffffffffffffffffffffffffffffffffffffffff16815260200190815260200160002060008154809291906001019190505550816004600083815260200190815260200160002060006101000a81548173ffffffffffffffffffffffffffffffffffffffff021916908373ffffffffffffffffffffffffffffffffffffffff160217905550600073ffffffffffffffffffffffffffffffffffffffff168373ffffffffffffffffffffffffffffffffffffffff1614151562000d2257600560008473ffffffffffffffffffffffffffffffffffffffff1673ffffffffffffffffffffffffffffffffffffffff16815260200190815260200160002060008154809291906001900391905055506006600082815260200190815260200160002060006101000a81549073ffffffffffffffffffffffffffffffffffffffff02191690555b7fddf252ad1be2c89b69c2b068fc378daa952ba7f163c4a11628f55a4df523b3ef838383604051808473ffffffffffffffffffffffffffffffffffffffff1673ffffffffffffffffffffffffffffffffffffffff1681526020018373ffffffffffffffffffffffffffffffffffffffff1673ffffffffffffffffffffffffffffffffffffffff168152602001828152602001935050505060405180910390a1505050565b60c060405190810160405280600060ff16815260200160008152602001600081526020016000815260200160008152602001600081525090565b828054600181600116156101000203166002900490600052602060002090601f016020900481019282601f1062000e4357805160ff191683800117855562000e74565b8280016001018555821562000e74579182015b8281111562000e7357825182559160200191906001019062000e56565b5b50905062000e83919062000f3e565b5090565b60a06040519081016040528060008152602001606081526020016000815260200160008152602001600081525090565b828054600181600116156101000203166002900490600052602060002090601f016020900481019282601f1062000efa57805160ff191683800117855562000f2b565b8280016001018555821562000f2b579182015b8281111562000f2a57825182559160200191906001019062000f0d565b5b50905062000f3a919062000f3e565b5090565b62000f6391905b8082111562000f5f57600081600090555060010162000f45565b5090565b90565b6197598062000f766000396000f3006080604052600436106103e6576000357c0100000000000000000000000000000000000000000000000000000000900463ffffffff1680620f987f146103e8578062607b7f1461041957806301ffc9a71461045e57806306fdde03146104c2578063095ea7b3146105525780630dbf00211461059f57806317b9ebec1461060357806318160ddd1461063a57806319aa7625146106655780631aff05961461067c5780631c41931c146106a75780631cced51b146107145780631d36e06c146107675780631de565d6146107d457806323b872dd1461082b57806329625005146108985780632b47f5ce146108ef5780632dcfcd5f1461095857806332c4ee831461096f57806336c5d724146109d457806339e6cdb114610a015780633c7e7d2814610a4e5780633c8deaca14610aa55780634cabcfac14610abc5780634dc621fa14610b135780634fe89efe14610b445780635237277714610ba2578063545c3d5514610bd15780635618923614610c285780635690d0d914610c53578063604919ea14610cc65780636352211e14610cf557806366d80ba514610d625780636914db6014610dc757806370a0823114610e6d57806379ba509714610ec457806381d12c5814610edb5780638462151c14610f515780638903573014610fe957806389d0cd06146110795780638b3c99e3146110905780638da5cb5b146110bd5780638f1fc77c14611114578063930f34fd1461113f57806395d89b411461116c578063973e9b8b146111fc57806398dc5c95146112275780639a6c614e146112a05780639ca08831146112d15780639d26d1ca14611312578063a01177cd1461133d578063a3ec138d14611354578063a846c2fd146113ab578063a888c2cd146113ec578063a8bd9c321461142d578063a9059cbb1461149a578063b121f2ac146114e7578063b129273f14611548578063b135707914611597578063b688a363146115ee578063bc89b1cf1461160c578063be1d68ad14611637578063bf6226651461168e578063c0521d7614611713578063c349026314611777578063c52380e9146117c6578063c9d27afe1461181d578063cadf338f14611856578063cbbc9f8914611897578063cc06c3591461190e578063cf7c436714611939578063d0d8074a14611990578063d13319c4146119bb578063d4ee1d9014611a4b578063db595b3b14611aa2578063db85d59c14611acd578063dd52c33814611b4b578063dd62ed3e14611b76578063dd6d3ca714611bed578063deb8386a14611c18578063dfefadff14611c43578063e176507314611cdc578063e527cc9d14611d5e578063f2fde38b14611dd5578063f4ab9adf14611e18578063f81fd7ea14611e5b575b005b3480156103f457600080fd5b506103fd611ed2565b604051808260ff1660ff16815260200191505060405180910390f35b34801561042557600080fd5b50610444600480360381019080803590602001909291905050506120f8565b604051808215151515815260200191505060405180910390f35b34801561046a57600080fd5b506104a860048036038101908080357bffffffffffffffffffffffffffffffffffffffffffffffffffffffff191690602001909291905050506121a0565b604051808215151515815260200191505060405180910390f35b3480156104ce57600080fd5b506104d76124b1565b6040518080602001828103825283818151815260200191508051906020019080838360005b838110156105175780820151818401526020810190506104fc565b50505050905090810190601f1680156105445780820380516001836020036101000a031916815260200191505b509250505060405180910390f35b34801561055e57600080fd5b5061059d600480360381019080803573ffffffffffffffffffffffffffffffffffffffff16906020019092919080359060200190929190505050612553565b005b3480156105ab57600080fd5b506105b4612615565b604051808373ffffffffffffffffffffffffffffffffffffffff1673ffffffffffffffffffffffffffffffffffffffff1681526020018260ff1660ff1681526020019250505060405180910390f35b34801561060f57600080fd5b506106386004803603810190808035906020019092919080359060200190929190505050612874565b005b34801561064657600080fd5b5061064f6129b2565b6040518082815260200191505060405180910390f35b34801561067157600080fd5b5061067a6129d4565b005b34801561068857600080fd5b506106916129e6565b6040518082815260200191505060405180910390f35b3480156106b357600080fd5b506106dc6004803603810190808035906020019092919080359060200190929190505050612a2d565b604051808660ff1660ff1681526020018581526020018481526020018381526020018281526020019550505050505060405180910390f35b34801561072057600080fd5b50610729612e29565b6040518082600460200280838360005b83811015610754578082015181840152602081019050610739565b5050505090500191505060405180910390f35b34801561077357600080fd5b5061079260048036038101908080359060200190929190505050612f96565b604051808273ffffffffffffffffffffffffffffffffffffffff1673ffffffffffffffffffffffffffffffffffffffff16815260200191505060405180910390f35b3480156107e057600080fd5b506107e9612fc9565b604051808273ffffffffffffffffffffffffffffffffffffffff1673ffffffffffffffffffffffffffffffffffffffff16815260200191505060405180910390f35b34801561083757600080fd5b50610896600480360381019080803573ffffffffffffffffffffffffffffffffffffffff169060200190929190803573ffffffffffffffffffffffffffffffffffffffff16906020019092919080359060200190929190505050612fef565b005b3480156108a457600080fd5b506108ed600480360381019080803573ffffffffffffffffffffffffffffffffffffffff16906020019092919080359060200190929190803590602001909291905050506130a0565b005b3480156108fb57600080fd5b50610956600480360381019080803590602001908201803590602001908080601f01602080910402602001604051908101604052809392919081815260200183838082843782019150505050505091929192905050506131ab565b005b34801561096457600080fd5b5061096d6131bf565b005b34801561097b57600080fd5b506109ba600480360381019080803573ffffffffffffffffffffffffffffffffffffffff1690602001909291908035906020019092919050505061320b565b604051808215151515815260200191505060405180910390f35b3480156109e057600080fd5b506109ff600480360381019080803590602001909291905050506134a0565b005b348015610a0d57600080fd5b50610a4c600480360381019080803573ffffffffffffffffffffffffffffffffffffffff16906020019092919080359060200190929190505050613555565b005b348015610a5a57600080fd5b50610a8f600480360381019080803573ffffffffffffffffffffffffffffffffffffffff16906020019092919050505061367a565b6040518082815260200191505060405180910390f35b348015610ab157600080fd5b50610aba613692565b005b348015610ac857600080fd5b50610b11600480360381019080803573ffffffffffffffffffffffffffffffffffffffff16906020019092919080359060200190929190803590602001909291905050506136de565b005b348015610b1f57600080fd5b50610b286137d7565b604051808260ff1660ff16815260200191505060405180910390f35b348015610b5057600080fd5b50610b596137ea565b604051808373ffffffffffffffffffffffffffffffffffffffff1673ffffffffffffffffffffffffffffffffffffffff1681526020018281526020019250505060405180910390f35b348015610bae57600080fd5b50610bb76138aa565b604051808215151515815260200191505060405180910390f35b348015610bdd57600080fd5b50610c26600480360381019080803573ffffffffffffffffffffffffffffffffffffffff16906020019092919080359060200190929190803590602001909291905050506138bd565b005b348015610c3457600080fd5b50610c3d6139b6565b6040518082815260200191505060405180910390f35b348015610c5f57600080fd5b50610cc460048036038101908080359060200190929190803590602001908201803590602001908080601f0160208091040260200160405190810160405280939291908181526020018383808284378201915050505050509192919290505050613a58565b005b348015610cd257600080fd5b50610cdb613aa1565b604051808215151515815260200191505060405180910390f35b348015610d0157600080fd5b50610d2060048036038101908080359060200190929190505050613abe565b604051808273ffffffffffffffffffffffffffffffffffffffff1673ffffffffffffffffffffffffffffffffffffffff16815260200191505060405180910390f35b348015610d6e57600080fd5b50610dad600480360381019080803573ffffffffffffffffffffffffffffffffffffffff16906020019092919080359060200190929190505050613b3c565b604051808215151515815260200191505060405180910390f35b348015610dd357600080fd5b50610df260048036038101908080359060200190929190505050613ba2565b6040518080602001828103825283818151815260200191508051906020019080838360005b83811015610e32578082015181840152602081019050610e17565b50505050905090810190601f168015610e5f5780820380516001836020036101000a031916815260200191505b509250505060405180910390f35b348015610e7957600080fd5b50610eae600480360381019080803573ffffffffffffffffffffffffffffffffffffffff169060200190929190505050613c64565b6040518082815260200191505060405180910390f35b348015610ed057600080fd5b50610ed9613cad565b005b348015610ee757600080fd5b50610f0660048036038101908080359060200190929190505050613e4e565b604051808781526020018681526020018581526020018460ff1660ff1681526020018360ff1660ff1681526020018260ff1660ff168152602001965050505050505060405180910390f35b348015610f5d57600080fd5b50610f92600480360381019080803573ffffffffffffffffffffffffffffffffffffffff169060200190929190505050613eb1565b6040518080602001828103825283818151815260200191508051906020019060200280838360005b83811015610fd5578082015181840152602081019050610fba565b505050509050019250505060405180910390f35b348015610ff557600080fd5b50610ffe613ec3565b604051808d81526020018c81526020018b81526020018a60ff1660ff1681526020018960ff1660ff1681526020018881526020018760ff1660ff1681526020018681526020018560ff1660ff1681526020018481526020018381526020018281526020019c5050505050505050505050505060405180910390f35b34801561108557600080fd5b5061108e613f45565b005b34801561109c57600080fd5b506110bb60048036038101908080359060200190929190505050614045565b005b3480156110c957600080fd5b506110d261472f565b604051808273ffffffffffffffffffffffffffffffffffffffff1673ffffffffffffffffffffffffffffffffffffffff16815260200191505060405180910390f35b34801561112057600080fd5b50611129614755565b6040518082815260200191505060405180910390f35b34801561114b57600080fd5b5061116a600480360381019080803590602001909291905050506147af565b005b34801561117857600080fd5b50611181614887565b6040518080602001828103825283818151815260200191508051906020019080838360005b838110156111c15780820151818401526020810190506111a6565b50505050905090810190601f1680156111ee5780820380516001836020036101000a031916815260200191505b509250505060405180910390f35b34801561120857600080fd5b50611211614929565b6040518082815260200191505060405180910390f35b34801561123357600080fd5b5061128660048036038101908080359060200190929190803573ffffffffffffffffffffffffffffffffffffffff1690602001909291908035906020019092919080359060200190929190505050614a5c565b604051808215151515815260200191505060405180910390f35b3480156112ac57600080fd5b506112b5614ce8565b604051808260ff1660ff16815260200191505060405180910390f35b3480156112dd57600080fd5b506112fc60048036038101908080359060200190929190505050614cfb565b6040518082815260200191505060405180910390f35b34801561131e57600080fd5b50611327614d13565b6040518082815260200191505060405180910390f35b34801561134957600080fd5b50611352614d5a565b005b34801561136057600080fd5b50611395600480360381019080803573ffffffffffffffffffffffffffffffffffffffff169060200190929190505050614e8e565b6040518082815260200191505060405180910390f35b3480156113b757600080fd5b506113d660048036038101908080359060200190929190505050614ea6565b6040518082815260200191505060405180910390f35b3480156113f857600080fd5b5061141760048036038101908080359060200190929190505050614ebe565b6040518082815260200191505060405180910390f35b34801561143957600080fd5b5061145860048036038101908080359060200190929190505050614ee1565b604051808273ffffffffffffffffffffffffffffffffffffffff1673ffffffffffffffffffffffffffffffffffffffff16815260200191505060405180910390f35b3480156114a657600080fd5b506114e5600480360381019080803573ffffffffffffffffffffffffffffffffffffffff16906020019092919080359060200190929190505050614f14565b005b3480156114f357600080fd5b50611532600480360381019080803573ffffffffffffffffffffffffffffffffffffffff16906020019092919080359060200190929190505050614faf565b6040518082815260200191505060405180910390f35b34801561155457600080fd5b5061157d6004803603810190808035906020019092919080359060200190929190505050614fef565b604051808215151515815260200191505060405180910390f35b3480156115a357600080fd5b506115d8600480360381019080803573ffffffffffffffffffffffffffffffffffffffff169060200190929190505050615126565b6040518082815260200191505060405180910390f35b6115f66151a4565b6040518082815260200191505060405180910390f35b34801561161857600080fd5b5061162161571c565b6040518082815260200191505060405180910390f35b34801561164357600080fd5b50611678600480360381019080803573ffffffffffffffffffffffffffffffffffffffff169060200190929190505050615722565b6040518082815260200191505060405180910390f35b34801561169a57600080fd5b506116f9600480360381019080803573ffffffffffffffffffffffffffffffffffffffff169060200190929190803573ffffffffffffffffffffffffffffffffffffffff1690602001909291908035906020019092919050505061573a565b604051808215151515815260200191505060405180910390f35b34801561171f57600080fd5b50611761600480360381019080803573ffffffffffffffffffffffffffffffffffffffff169060200190929190803560ff169060200190929190505050615daf565b6040518082815260200191505060405180910390f35b34801561178357600080fd5b506117ac6004803603810190808035906020019092919080359060200190929190505050615e38565b604051808215151515815260200191505060405180910390f35b3480156117d257600080fd5b50611807600480360381019080803573ffffffffffffffffffffffffffffffffffffffff1690602001909291905050506162b1565b6040518082815260200191505060405180910390f35b34801561182957600080fd5b50611854600480360381019080803590602001909291908035151590602001909291905050506162c9565b005b34801561186257600080fd5b50611881600480360381019080803590602001909291905050506164d1565b6040518082815260200191505060405180910390f35b3480156118a357600080fd5b506118f8600480360381019080803573ffffffffffffffffffffffffffffffffffffffff169060200190929190803573ffffffffffffffffffffffffffffffffffffffff1690602001909291905050506164fb565b6040518082815260200191505060405180910390f35b34801561191a57600080fd5b50611923616520565b6040518082815260200191505060405180910390f35b34801561194557600080fd5b5061198e600480360381019080803573ffffffffffffffffffffffffffffffffffffffff1690602001909291908035906020019092919080359060200190929190505050616526565b005b34801561199c57600080fd5b506119a56167f5565b6040518082815260200191505060405180910390f35b3480156119c757600080fd5b506119d06167fb565b6040518080602001828103825283818151815260200191508051906020019080838360005b83811015611a105780820151818401526020810190506119f5565b50505050905090810190601f168015611a3d5780820380516001836020036101000a031916815260200191505b509250505060405180910390f35b348015611a5757600080fd5b50611a606168fa565b604051808273ffffffffffffffffffffffffffffffffffffffff1673ffffffffffffffffffffffffffffffffffffffff16815260200191505060405180910390f35b348015611aae57600080fd5b50611ab7616920565b6040518082815260200191505060405180910390f35b348015611ad957600080fd5b50611af860048036038101908080359060200190929190505050616c86565b604051808981526020018881526020018781526020018681526020018581526020018481526020018360ff1660ff1681526020018260ff1660ff1681526020019850505050505050505060405180910390f35b348015611b5757600080fd5b50611b60616ce8565b6040518082815260200191505060405180910390f35b348015611b8257600080fd5b50611bd7600480360381019080803573ffffffffffffffffffffffffffffffffffffffff169060200190929190803573ffffffffffffffffffffffffffffffffffffffff169060200190929190505050616cf9565b6040518082815260200191505060405180910390f35b348015611bf957600080fd5b50611c02616d1e565b6040518082815260200191505060405180910390f35b348015611c2457600080fd5b50611c2d616d47565b6040518082815260200191505060405180910390f35b348015611c4f57600080fd5b50611c6e60048036038101908080359060200190929190505050616d4d565b604051808681526020018573ffffffffffffffffffffffffffffffffffffffff1673ffffffffffffffffffffffffffffffffffffffff1681526020018460ff1660ff1681526020018360ff1660ff168152602001821515151581526020019550505050505060405180910390f35b348015611ce857600080fd5b50611d0760048036038101908080359060200190929190505050616dd9565b6040518080602001828103825283818151815260200191508051906020019060200280838360005b83811015611d4a578082015181840152602081019050611d2f565b505050509050019250505060405180910390f35b348015611d6a57600080fd5b50611dbf600480360381019080803573ffffffffffffffffffffffffffffffffffffffff169060200190929190803573ffffffffffffffffffffffffffffffffffffffff169060200190929190505050616e4a565b6040518082815260200191505060405180910390f35b348015611de157600080fd5b50611e16600480360381019080803573ffffffffffffffffffffffffffffffffffffffff169060200190929190505050616e6f565b005b348015611e2457600080fd5b50611e59600480360381019080803573ffffffffffffffffffffffffffffffffffffffff169060200190929190505050616f69565b005b348015611e6757600080fd5b50611ebc600480360381019080803573ffffffffffffffffffffffffffffffffffffffff169060200190929190803573ffffffffffffffffffffffffffffffffffffffff169060200190929190505050617245565b6040518082815260200191505060405180910390f35b6000806000806000806000806000806000611eeb6139b6565b995060008a14151515611efd57600080fd5b611f07338b617343565b1515611f1257600080fd5b60026005811115611f1f57fe5b601c60008c815260200190815260200160002060060160019054906101000a900460ff1660ff16141515611f5257600080fd5b601e60008b81526020019081526020016000209850601c60008b81526020019081526020016000206003015497508860030160009054906101000a900460ff1696508860030160019054906101000a900460ff169550600094506064600f60030160019054906101000a900460ff1660ff168a6000015402811515611fd357fe5b0493503073ffffffffffffffffffffffffffffffffffffffff163192504289600201548a6001015401109150600f60070160009054906101000a900460ff1660ff168960030160019054906101000a900460ff168a60030160009054906101000a900460ff160160ff16149050811561204f576002945061205b565b801561205a57600194505b5b60009a5060028081111561206b57fe5b85600281111561207757fe5b148061209957506001600281111561208b57fe5b85600281111561209757fe5b145b156120eb578560ff168760ff161180156120b35750828411155b156120c15760019a506120ea565b8560ff168760ff161480156120d65750828811155b156120e45760029a506120e9565b60039a505b5b5b5050505050505050505090565b6000600a60009054906101000a900473ffffffffffffffffffffffffffffffffffffffff1673ffffffffffffffffffffffffffffffffffffffff163373ffffffffffffffffffffffffffffffffffffffff1614151561215357fe5b60008214158015612168575060038054905082105b151561217357600080fd5b61217e8260026173af565b151561218657fe5b61218f82617691565b151561219757fe5b60019050919050565b600060405180807f737570706f727473496e74657266616365286279746573342900000000000000815250601901905060405180910390207bffffffffffffffffffffffffffffffffffffffffffffffffffffffff1916827bffffffffffffffffffffffffffffffffffffffffffffffffffffffff191614806124aa575060405180807f746f6b656e4d657461646174612875696e743235362c737472696e6729000000815250601d019050604051809103902060405180807f746f6b656e734f664f776e6572286164647265737329000000000000000000008152506016019050604051809103902060405180807f7472616e7366657246726f6d28616464726573732c616464726573732c75696e81526020017f74323536290000000000000000000000000000000000000000000000000000008152506025019050604051809103902060405180807f7472616e7366657228616464726573732c75696e7432353629000000000000008152506019019050604051809103902060405180807f617070726f766528616464726573732c75696e743235362900000000000000008152506018019050604051809103902060405180807f6f776e65724f662875696e7432353629000000000000000000000000000000008152506010019050604051809103902060405180807f62616c616e63654f6628616464726573732900000000000000000000000000008152506012019050604051809103902060405180807f746f74616c537570706c79282900000000000000000000000000000000000000815250600d019050604051809103902060405180807f73796d626f6c28290000000000000000000000000000000000000000000000008152506008019050604051809103902060405180807f6e616d6528290000000000000000000000000000000000000000000000000000815250600601905060405180910390201818181818181818187bffffffffffffffffffffffffffffffffffffffffffffffffffffffff1916827bffffffffffffffffffffffffffffffffffffffffffffffffffffffff1916145b9050919050565b606060008054600181600116156101000203166002900480601f0160208091040260200160405190810160405280929190818152602001828054600181600116156101000203166002900480156125495780601f1061251e57610100808354040283529160200191612549565b820191906000526020600020905b81548152906001019060200180831161252c57829003601f168201915b5050505050905090565b61255d3382617343565b151561256857600080fd5b6125728183617a6c565b7f8c5be1e5ebec7d5bd14f71427d1e84f3dd0314c0f7b2291e5b200ac8c7c3b925338383604051808473ffffffffffffffffffffffffffffffffffffffff1673ffffffffffffffffffffffffffffffffffffffff1681526020018373ffffffffffffffffffffffffffffffffffffffff1673ffffffffffffffffffffffffffffffffffffffff168152602001828152602001935050505060405180910390a15050565b600080600080600080600a60009054906101000a900473ffffffffffffffffffffffffffffffffffffffff169550600094506000601d60003373ffffffffffffffffffffffffffffffffffffffff1673ffffffffffffffffffffffffffffffffffffffff16815260200190815260200160002054141515612699576005945061286c565b6126a16139b6565b9350600084141561279a576126b46129e6565b9250601a60003373ffffffffffffffffffffffffffffffffffffffff1673ffffffffffffffffffffffffffffffffffffffff168152602001908152602001600020549150612700614929565b90506000831480156127125750600082145b156127205760019450612795565b600083141580156127315750600082145b1561273f5760029450612794565b600083148015612750575060008214155b801561275c5750600081145b1561276a5760039450612793565b60008314801561277b575060008214155b8015612788575060008114155b1561279257600494505b5b5b5b61286b565b600060058111156127a757fe5b601c600086815260200190815260200160002060060160019054906101000a900460ff1660ff1614156127dd57600a945061286a565b600160058111156127ea57fe5b601c600086815260200190815260200160002060060160019054906101000a900460ff1660ff16141561282057600b9450612869565b6002600581111561282d57fe5b601c600086815260200190815260200160002060060160019054906101000a900460ff1660ff16141561286857612862611ed2565b60140194505b5b5b5b5b505050509091565b60008214158015612889575060038054905082105b151561289457600080fd5b600081141580156128a9575060038054905081105b15156128b457600080fd5b6001600c54036003828154811015156128c957fe5b9060005260206000209060050201600301541015156128e757600080fd5b80600d600084815260200190815260200160002081905550600160038281548110151561291057fe5b9060005260206000209060050201600301540160038381548110151561293257fe5b9060005260206000209060050201600301819055507f0900f87897aa374bb21fa36753905fa2944dd2301242246101a9047a0ed227a0828260038581548110151561297957fe5b90600052602060002090600502016003015460405180848152602001838152602001828152602001935050505060405180910390a15050565b600080600380549050905060008111156129cd576001810390505b8091505090565b6129e46129df6139b6565b614045565b565b6000601f60003373ffffffffffffffffffffffffffffffffffffffff1673ffffffffffffffffffffffffffffffffffffffff16815260200190815260200160002054905090565b6000806000806000612a3d6193aa565b6000806000600498506000846000600481101515612a5757fe5b6020020181815250506000846001600481101515612a7157fe5b6020020181815250506000846002600481101515612a8b57fe5b6020020181815250506000846003600481101515612aa557fe5b60200201818152505060008b14158015612ac357506003805490508b105b1515612ace57600080fd5b60008a14151515612ade57600080fd5b612ae8338c617343565b1515612af357600080fd5b600d60008c815260200190815260200160002054925060008314151515612b1957600080fd5b600d600084815260200190815260200160002054915060008214151515612b3f57600080fd5b600d600083815260200190815260200160002054905060008114151515612b6557600080fd5b60039850600383815481101515612b7857fe5b9060005260206000209060050201600001548a111515612bb4576002985089846002600481101515612ba657fe5b602002018181525050612dbf565b600383815481101515612bc357fe5b906000526020600020906005020160000154600383815481101515612be457fe5b906000526020600020906005020160000154018a111515612c7c5760019850600383815481101515612c1257fe5b906000526020600020906005020160000154846002600481101515612c3357fe5b602002018181525050600383815481101515612c4b57fe5b9060005260206000209060050201600001548a03846001600481101515612c6e57fe5b602002018181525050612dbe565b600383815481101515612c8b57fe5b906000526020600020906005020160000154600383815481101515612cac57fe5b906000526020600020906005020160000154600383815481101515612ccd57fe5b90600052602060002090600502016000015401018a111515612dbd5760009850600383815481101515612cfc57fe5b906000526020600020906005020160000154846002600481101515612d1d57fe5b602002018181525050600382815481101515612d3557fe5b906000526020600020906005020160000154846001600481101515612d5657fe5b602002018181525050600382815481101515612d6e57fe5b906000526020600020906005020160000154600384815481101515612d8f57fe5b9060005260206000209060050201600001548b0303846000600481101515612db357fe5b6020020181815250505b5b5b836002600481101515612dce57fe5b60200201519750836001600481101515612de457fe5b60200201519650836000600481101515612dfa57fe5b602002015195503073ffffffffffffffffffffffffffffffffffffffff16319450505050509295509295909350565b612e316193aa565b6000806000836000600481101515612e4557fe5b6020020181815250506000836001600481101515612e5f57fe5b6020020181815250506000836002600481101515612e7957fe5b6020020181815250506000836003600481101515612e9357fe5b602002018181525050600190505b600380549050811015612f9157600381815481101515612ebd57fe5b9060005260206000209060050201600301549150600c548260ff161015612f3557600381815481101515612eed57fe5b906000526020600020906005020160000154838360ff16600481101515612f1057fe5b602002015101838360ff16600481101515612f2757fe5b602002018181525050612f84565b600381815481101515612f4457fe5b906000526020600020906005020160000154836003600481101515612f6557fe5b602002015101836003600481101515612f7a57fe5b6020020181815250505b8080600101915050612ea1565b505090565b60046020528060005260406000206000915054906101000a900473ffffffffffffffffffffffffffffffffffffffff1681565b602460009054906101000a900473ffffffffffffffffffffffffffffffffffffffff1681565b600073ffffffffffffffffffffffffffffffffffffffff168273ffffffffffffffffffffffffffffffffffffffff161415151561302b57600080fd5b3073ffffffffffffffffffffffffffffffffffffffff168273ffffffffffffffffffffffffffffffffffffffff161415151561306657600080fd5b6130703382617ac2565b151561307b57600080fd5b6130858382617343565b151561309057600080fd5b61309b838383617b2e565b505050565b600a60009054906101000a900473ffffffffffffffffffffffffffffffffffffffff1673ffffffffffffffffffffffffffffffffffffffff163373ffffffffffffffffffffffffffffffffffffffff161415156130f957fe5b6131038383617343565b151561310e57600080fd5b8060038381548110151561311e57fe5b9060005260206000209060050201600301819055507f48ed1b5769aee6cf16cda3da1db2a0acf83c194c9d2a98ebeff4904567af58f6838383604051808473ffffffffffffffffffffffffffffffffffffffff1673ffffffffffffffffffffffffffffffffffffffff168152602001838152602001828152602001935050505060405180910390a1505050565b6131bc6131b66139b6565b82613a58565b50565b613209601d60003373ffffffffffffffffffffffffffffffffffffffff1673ffffffffffffffffffffffffffffffffffffffff1681526020019081526020016000205460006162c9565b565b600080600080600073ffffffffffffffffffffffffffffffffffffffff168673ffffffffffffffffffffffffffffffffffffffff161415151561324d57600080fd5b6000851415151561325d57600080fd5b33925061326983617d5e565b915061327486617d5e565b905080821415151561328557600080fd5b6000821415151561329557600080fd5b600081141515156132a557600080fd5b80600860008573ffffffffffffffffffffffffffffffffffffffff1673ffffffffffffffffffffffffffffffffffffffff16815260200190815260200160002060008873ffffffffffffffffffffffffffffffffffffffff1673ffffffffffffffffffffffffffffffffffffffff1681526020019081526020016000208190555081600860008573ffffffffffffffffffffffffffffffffffffffff1673ffffffffffffffffffffffffffffffffffffffff16815260200190815260200160002060008573ffffffffffffffffffffffffffffffffffffffff1673ffffffffffffffffffffffffffffffffffffffff1681526020019081526020016000208190555084600960008573ffffffffffffffffffffffffffffffffffffffff1673ffffffffffffffffffffffffffffffffffffffff16815260200190815260200160002060008873ffffffffffffffffffffffffffffffffffffffff1673ffffffffffffffffffffffffffffffffffffffff168152602001908152602001600020819055507fe051949e9a44e2e9c21ee7d1c7b03ef0bf501aa3b7c4616a8543f229c0bede7a8686604051808373ffffffffffffffffffffffffffffffffffffffff1673ffffffffffffffffffffffffffffffffffffffff1681526020018281526020019250505060405180910390a16001935050505092915050565b60008082141580156134b6575060038054905082105b15156134c157600080fd5b6134ca82617da8565b90506000811415156134db57600080fd5b600d6000838152602001908152602001600020600090557f399c331be71add502e95a2402ba7370605a945c1c6c1dc01c5e30f7e896cfa568260038481548110151561352357fe5b906000526020600020906005020160030154604051808381526020018281526020019250505060405180910390a15050565b600a60009054906101000a900473ffffffffffffffffffffffffffffffffffffffff1673ffffffffffffffffffffffffffffffffffffffff163373ffffffffffffffffffffffffffffffffffffffff161415156135ae57fe5b6135b88282617343565b15156135c357600080fd5b60016003828154811015156135d457fe5b906000526020600020906005020160030154016003828154811015156135f657fe5b9060005260206000209060050201600301819055507fb6ffa2bc58069f160ac94855c396bc8a7c591ae4b9e69d78cc004ad2e4d70d858282604051808373ffffffffffffffffffffffffffffffffffffffff1673ffffffffffffffffffffffffffffffffffffffff1681526020018281526020019250505060405180910390a15050565b601a6020528060005260406000206000915090505481565b6136dc601d60003373ffffffffffffffffffffffffffffffffffffffff1673ffffffffffffffffffffffffffffffffffffffff1681526020019081526020016000205460016162c9565b565b60008073ffffffffffffffffffffffffffffffffffffffff168473ffffffffffffffffffffffffffffffffffffffff161415151561371b57600080fd5b6000821415151561372b57600080fd5b82905060008114156137435761374084617d5e565b90505b6000811415151561375357600080fd5b61375e848284617e20565b7f8ee078ba6dd38678f9ffdc8f1df2d512559df0cae2db32c829459127e1003197848484604051808473ffffffffffffffffffffffffffffffffffffffff1673ffffffffffffffffffffffffffffffffffffffff168152602001838152602001828152602001935050505060405180910390a150505050565b602860009054906101000a900460ff1681565b60008060008092506000915060006021541415613806576138a5565b600190505b6020805490508110156138a45760208181548110151561382757fe5b906000526020600020906002020160010160169054906101000a900460ff1615156138975760208181548110151561385b57fe5b906000526020600020906002020160010160009054906101000a900473ffffffffffffffffffffffffffffffffffffffff1692508091506138a5565b808060010191505061380b565b5b509091565b602660009054906101000a900460ff1681565b60008073ffffffffffffffffffffffffffffffffffffffff168473ffffffffffffffffffffffffffffffffffffffff16141515156138fa57600080fd5b6000821415151561390a57600080fd5b82905060008114156139225761391f84617d5e565b90505b6000811415151561393257600080fd5b61393d848284617f33565b7ff3d0e22890d929d2a1cd5ca9e5f6498c4271ce2f0223ab4092297c2d11c9ef75848484604051808473ffffffffffffffffffffffffffffffffffffffff1673ffffffffffffffffffffffffffffffffffffffff168152602001838152602001828152602001935050505060405180910390a150505050565b60006060600a60009054906101000a900473ffffffffffffffffffffffffffffffffffffffff1673ffffffffffffffffffffffffffffffffffffffff163373ffffffffffffffffffffffffffffffffffffffff161415613a195760009150613a54565b613a2233618017565b90506000815111613a34576000613a51565b806001825103815181101515613a4657fe5b906020019060200201515b91505b5090565b6000339050602660019054906101000a900460ff1660ff16613a868260016005811115613a8157fe5b615daf565b101515613a9257600080fd5b613a9c838361819d565b505050565b6000613ab9613aae6139b6565b600f600a0154615e38565b905090565b6000806004600084815260200190815260200160002060009054906101000a900473ffffffffffffffffffffffffffffffffffffffff169050600073ffffffffffffffffffffffffffffffffffffffff168173ffffffffffffffffffffffffffffffffffffffff1614151515613b3357600080fd5b80915050919050565b600080600073ffffffffffffffffffffffffffffffffffffffff168473ffffffffffffffffffffffffffffffffffffffff1614151515613b7b57600080fd5b60008314151515613b8b57600080fd5b339050613b9981858561573a565b91505092915050565b6060600382815481101515613bb357fe5b90600052602060002090600502016001018054600181600116156101000203166002900480601f016020809104026020016040519081016040528092919081815260200182805460018160011615610100020316600290048015613c585780601f10613c2d57610100808354040283529160200191613c58565b820191906000526020600020905b815481529060010190602001808311613c3b57829003601f168201915b50505050509050919050565b6000600560008373ffffffffffffffffffffffffffffffffffffffff1673ffffffffffffffffffffffffffffffffffffffff168152602001908152602001600020549050919050565b600b60009054906101000a900473ffffffffffffffffffffffffffffffffffffffff1673ffffffffffffffffffffffffffffffffffffffff163373ffffffffffffffffffffffffffffffffffffffff16141515613d0957600080fd5b600b60009054906101000a900473ffffffffffffffffffffffffffffffffffffffff1673ffffffffffffffffffffffffffffffffffffffff16600a60009054906101000a900473ffffffffffffffffffffffffffffffffffffffff1673ffffffffffffffffffffffffffffffffffffffff167f343765429aea5a34b3ff6a3785a98a5abb2597aca87bfbb58632c173d585373a60405160405180910390a3600b60009054906101000a900473ffffffffffffffffffffffffffffffffffffffff16600a60006101000a81548173ffffffffffffffffffffffffffffffffffffffff021916908373ffffffffffffffffffffffffffffffffffffffff1602179055506000600b60006101000a81548173ffffffffffffffffffffffffffffffffffffffff021916908373ffffffffffffffffffffffffffffffffffffffff160217905550565b601e6020528060005260406000206000915090508060000154908060010154908060020154908060030160009054906101000a900460ff16908060030160019054906101000a900460ff16908060030160029054906101000a900460ff16905086565b6060613ebc82618017565b9050919050565b600f8060000154908060010154908060020154908060030160009054906101000a900460ff16908060030160019054906101000a900460ff16908060040154908060050160009054906101000a900460ff16908060060154908060070160009054906101000a900460ff169080600801549080600901549080600a015490508c565b6000600a60009054906101000a900473ffffffffffffffffffffffffffffffffffffffff1673ffffffffffffffffffffffffffffffffffffffff163373ffffffffffffffffffffffffffffffffffffffff16141515613fa057fe5b60036000815481101515613fb057fe5b906000526020600020906005020160000154905060008114151515613fd457600080fd5b600060036000815481101515613fe657fe5b9060005260206000209060050201600001819055503373ffffffffffffffffffffffffffffffffffffffff166108fc829081150290604051600060405180830381858888f19350505050158015614041573d6000803e3d6000fd5b5050565b6000806000806140536193aa565b600080871415151561406457600080fd5b61406e3388617343565b151561407957600080fd5b6002600581111561408657fe5b601c600089815260200190815260200160002060060160019054906101000a900460ff1660ff161415156140b957600080fd5b601e60008881526020019081526020016000209550428660020154876001015401109450600f60070160009054906101000a900460ff1660ff168660030160019054906101000a900460ff168760030160009054906101000a900460ff160160ff1614935084806141275750835b151561413257600080fd5b6064600f60030160019054906101000a900460ff1660ff1687600001540281151561415957fe5b0492508560030160019054906101000a900460ff1660ff168660030160009054906101000a900460ff1660ff1611801561419957506141988784618355565b5b156142f1573373ffffffffffffffffffffffffffffffffffffffff166108fc849081150290604051600060405180830381858888f193505050501580156141e4573d6000803e3d6000fd5b50600360058111156141f257fe5b601c600089815260200190815260200160002060060160016101000a81548160ff021916908360ff16021790555082601c60008981526020019081526020016000206004015401601c60008981526020019081526020016000206004018190555061425d87846184d4565b91507f261826fbdc11ee0da48a5356542bcb46786deaed4c215b871d3df7a03652262d3388856003600581111561429057fe5b604051808573ffffffffffffffffffffffffffffffffffffffff1673ffffffffffffffffffffffffffffffffffffffff1681526020018481526020018381526020018260ff1660ff16815260200194505050505060405180910390a1614603565b8560030160019054906101000a900460ff1660ff168660030160009054906101000a900460ff1660ff1614806143625750600f60050160009054906101000a900460ff1660ff168660030160019054906101000a900460ff168760030160009054906101000a900460ff160160ff16105b801561438a575061438987601c60008a815260200190815260200160002060030154618355565b5b15614538573373ffffffffffffffffffffffffffffffffffffffff166108fc601c60008a8152602001908152602001600020600301549081150290604051600060405180830381858888f193505050501580156143eb573d6000803e3d6000fd5b506005808111156143f857fe5b601c600089815260200190815260200160002060060160016101000a81548160ff021916908360ff160217905550601c600088815260200190815260200160002060030154601c60008981526020019081526020016000206004015401601c60008981526020019081526020016000206004018190555061448f87601c60008a8152602001908152602001600020600301546184d4565b91507f261826fbdc11ee0da48a5356542bcb46786deaed4c215b871d3df7a03652262d3388601c60008b8152602001908152602001600020600301546005808111156144d757fe5b604051808573ffffffffffffffffffffffffffffffffffffffff1673ffffffffffffffffffffffffffffffffffffffff1681526020018481526020018381526020018260ff1660ff16815260200194505050505060405180910390a1614602565b6004600581111561454557fe5b601c600089815260200190815260200160002060060160016101000a81548160ff021916908360ff1602179055507f261826fbdc11ee0da48a5356542bcb46786deaed4c215b871d3df7a03652262d33886000600460058111156145a557fe5b604051808573ffffffffffffffffffffffffffffffffffffffff1673ffffffffffffffffffffffffffffffffffffffff1681526020018481526020018381526020018260ff1660ff16815260200194505050505060405180910390a15b5b5b8560030160029054906101000a900460ff1660ff168110156146a257601d6000876004018360058110151561463557fe5b0160009054906101000a900473ffffffffffffffffffffffffffffffffffffffff1673ffffffffffffffffffffffffffffffffffffffff1673ffffffffffffffffffffffffffffffffffffffff168152602001908152602001600020600090558080600101915050614604565b601e6000888152602001908152602001600020600080820160009055600182016000905560028201600090556003820160006101000a81549060ff02191690556003820160016101000a81549060ff02191690556003820160026101000a81549060ff021916905560048201600061471a91906193cd565b50506147246193aa565b915050505050505050565b600a60009054906101000a900473ffffffffffffffffffffffffffffffffffffffff1681565b600080600080600092506003805490509150600190505b818110156147a65760038181548110151561478357fe5b90600052602060002090600502016000015483019250808060010191505061476c565b82935050505090565b60006147bb3383617343565b15156147c657600080fd5b600082141515156147d657600080fd5b60296000838152602001908152602001600020549050600081141515156147fc57600080fd5b6000601c60008481526020019081526020016000206004015414151561482157600080fd5b80601c6000848152602001908152602001600020600401819055503373ffffffffffffffffffffffffffffffffffffffff166108fc829081150290604051600060405180830381858888f19350505050158015614882573d6000803e3d6000fd5b505050565b606060018054600181600116156101000203166002900480601f01602080910402602001604051908101604052809291908181526020018280546001816001161561010002031660029004801561491f5780601f106148f45761010080835404028352916020019161491f565b820191906000526020600020905b81548152906001019060200180831161490257829003601f168201915b5050505050905090565b6000602460009054906101000a900473ffffffffffffffffffffffffffffffffffffffff1673ffffffffffffffffffffffffffffffffffffffff1663dd62ed3e33306040518363ffffffff167c0100000000000000000000000000000000000000000000000000000000028152600401808373ffffffffffffffffffffffffffffffffffffffff1673ffffffffffffffffffffffffffffffffffffffff1681526020018273ffffffffffffffffffffffffffffffffffffffff1673ffffffffffffffffffffffffffffffffffffffff16815260200192505050602060405180830381600087803b158015614a1c57600080fd5b505af1158015614a30573d6000803e3d6000fd5b505050506040513d6020811015614a4657600080fd5b8101908080519060200190929190505050905090565b600080600073ffffffffffffffffffffffffffffffffffffffff168573ffffffffffffffffffffffffffffffffffffffff1614151515614a9b57600080fd5b838614151515614aaa57600080fd5b60008614151515614aba57600080fd5b60008414151515614aca57600080fd5b60008314151515614ada57600080fd5b33905083600860008373ffffffffffffffffffffffffffffffffffffffff1673ffffffffffffffffffffffffffffffffffffffff16815260200190815260200160002060008773ffffffffffffffffffffffffffffffffffffffff1673ffffffffffffffffffffffffffffffffffffffff1681526020019081526020016000208190555085600860008373ffffffffffffffffffffffffffffffffffffffff1673ffffffffffffffffffffffffffffffffffffffff16815260200190815260200160002060008373ffffffffffffffffffffffffffffffffffffffff1673ffffffffffffffffffffffffffffffffffffffff1681526020019081526020016000208190555082600960008373ffffffffffffffffffffffffffffffffffffffff1673ffffffffffffffffffffffffffffffffffffffff16815260200190815260200160002060008773ffffffffffffffffffffffffffffffffffffffff1673ffffffffffffffffffffffffffffffffffffffff168152602001908152602001600020819055507fef4beaa380feab20776f162f92bbf15b04c59f8fd4e8ab2508b8d29fed7dfd6186868686604051808581526020018473ffffffffffffffffffffffffffffffffffffffff1673ffffffffffffffffffffffffffffffffffffffff16815260200183815260200182815260200194505050505060405180910390a16001915050949350505050565b602660019054906101000a900460ff1681565b600d6020528060005260406000206000915090505481565b6000601a60003373ffffffffffffffffffffffffffffffffffffffff1673ffffffffffffffffffffffffffffffffffffffff16815260200190815260200160002054905090565b600080600a60009054906101000a900473ffffffffffffffffffffffffffffffffffffffff1673ffffffffffffffffffffffffffffffffffffffff163373ffffffffffffffffffffffffffffffffffffffff16141515614db657fe5b614dbe6137ea565b8092508193505050600073ffffffffffffffffffffffffffffffffffffffff168273ffffffffffffffffffffffffffffffffffffffff1614158015614e04575060008114155b15614e8a57614e1e82600f60090154600f60000154616526565b7fa2b47dc564bd9b8719fa8435590eb01665bade49e1fa4890022587a074d9e4268282604051808373ffffffffffffffffffffffffffffffffffffffff1673ffffffffffffffffffffffffffffffffffffffff1681526020018281526020019250505060405180910390a15b5050565b601d6020528060005260406000206000915090505481565b60296020528060005260406000206000915090505481565b602281815481101515614ecd57fe5b906000526020600020016000915090505481565b60066020528060005260406000206000915054906101000a900473ffffffffffffffffffffffffffffffffffffffff1681565b600073ffffffffffffffffffffffffffffffffffffffff168273ffffffffffffffffffffffffffffffffffffffff1614151515614f5057600080fd5b3073ffffffffffffffffffffffffffffffffffffffff168273ffffffffffffffffffffffffffffffffffffffff1614151515614f8b57600080fd5b614f953382617343565b1515614fa057600080fd5b614fab338383617b2e565b5050565b6000614fbb8383617343565b1515614fc657600080fd5b600382815481101515614fd557fe5b906000526020600020906005020160030154905092915050565b600080600a60009054906101000a900473ffffffffffffffffffffffffffffffffffffffff1673ffffffffffffffffffffffffffffffffffffffff163373ffffffffffffffffffffffffffffffffffffffff1614151561504b57fe5b6000841415151561505b57600080fd5b6000831415151561506b57600080fd5b6064602860009054906101000a900460ff1660ff16600f600001540281151561509057fe5b04831115151561509f57600080fd5b6000601c6000868152602001908152602001600020600401541415156150c457600080fd5b601c600085815260200190815260200160002060020154601c600086815260200190815260200160002060010154019050428110151561510357600080fd5b826029600086815260200190815260200160002081905550600191505092915050565b60006060600080600061513886618017565b93506000925083519150600090505b81811015615198576003848281518110151561515f57fe5b9060200190602002015181548110151561517557fe5b906000526020600020906005020160000154830192508080600101915050615147565b82945050505050919050565b6000806000806000806000349550339450601b60008673ffffffffffffffffffffffffffffffffffffffff1673ffffffffffffffffffffffffffffffffffffffff1681526020019081526020016000205493506000841415151561520757600080fd5b602660009054906101000a900460ff161580156152245750600034145b1561569757600073ffffffffffffffffffffffffffffffffffffffff16602460009054906101000a900473ffffffffffffffffffffffffffffffffffffffff1673ffffffffffffffffffffffffffffffffffffffff161415151561528757600080fd5b60006025541415151561529957600080fd5b602460009054906101000a900473ffffffffffffffffffffffffffffffffffffffff1673ffffffffffffffffffffffffffffffffffffffff1663dd62ed3e86306040518363ffffffff167c0100000000000000000000000000000000000000000000000000000000028152600401808373ffffffffffffffffffffffffffffffffffffffff1673ffffffffffffffffffffffffffffffffffffffff1681526020018273ffffffffffffffffffffffffffffffffffffffff1673ffffffffffffffffffffffffffffffffffffffff16815260200192505050602060405180830381600087803b15801561538a57600080fd5b505af115801561539e573d6000803e3d6000fd5b505050506040513d60208110156153b457600080fd5b81019080805190602001909291905050509250602460009054906101000a900473ffffffffffffffffffffffffffffffffffffffff1673ffffffffffffffffffffffffffffffffffffffff1663313ce5676040518163ffffffff167c0100000000000000000000000000000000000000000000000000000000028152600401602060405180830381600087803b15801561544d57600080fd5b505af1158015615461573d6000803e3d6000fd5b505050506040513d602081101561547757600080fd5b810190808051906020019092919050505060ff169150602554831015151561549e57600080fd5b601a60008673ffffffffffffffffffffffffffffffffffffffff1673ffffffffffffffffffffffffffffffffffffffff16815260200190815260200160002054955060275483029050600160ff168210151561550f5781806001900392505081600a0a8181151561550b57fe5b0490505b8581101580156155245750600f600001548610155b151561552f57600080fd5b602460009054906101000a900473ffffffffffffffffffffffffffffffffffffffff1673ffffffffffffffffffffffffffffffffffffffff166323b872dd86600a60009054906101000a900473ffffffffffffffffffffffffffffffffffffffff166025546040518463ffffffff167c0100000000000000000000000000000000000000000000000000000000028152600401808473ffffffffffffffffffffffffffffffffffffffff1673ffffffffffffffffffffffffffffffffffffffff1681526020018373ffffffffffffffffffffffffffffffffffffffff1673ffffffffffffffffffffffffffffffffffffffff1681526020018281526020019350505050602060405180830381600087803b15801561564c57600080fd5b505af1158015615660573d6000803e3d6000fd5b505050506040513d602081101561567657600080fd5b8101908080519060200190929190505050151561569257600080fd5b615706565b600086141580156156ad5750600f600001548610155b15156156b857600080fd5b601a60008673ffffffffffffffffffffffffffffffffffffffff1673ffffffffffffffffffffffffffffffffffffffff168152602001908152602001600020548614151561570557600080fd5b5b615711858588618c89565b965050505050505090565b60275481565b601f6020528060005260406000206000915090505481565b60008060008060008073ffffffffffffffffffffffffffffffffffffffff168773ffffffffffffffffffffffffffffffffffffffff161415151561577d57600080fd5b6000861415151561578d57600080fd5b879350600860008573ffffffffffffffffffffffffffffffffffffffff1673ffffffffffffffffffffffffffffffffffffffff16815260200190815260200160002060008873ffffffffffffffffffffffffffffffffffffffff1673ffffffffffffffffffffffffffffffffffffffff168152602001908152602001600020549250600860008573ffffffffffffffffffffffffffffffffffffffff1673ffffffffffffffffffffffffffffffffffffffff16815260200190815260200160002060008573ffffffffffffffffffffffffffffffffffffffff1673ffffffffffffffffffffffffffffffffffffffff168152602001908152602001600020549150600960008573ffffffffffffffffffffffffffffffffffffffff1673ffffffffffffffffffffffffffffffffffffffff16815260200190815260200160002060008873ffffffffffffffffffffffffffffffffffffffff1673ffffffffffffffffffffffffffffffffffffffff16815260200190815260200160002054905081831415151561591c57600080fd5b6000831415151561592c57600080fd5b6000821415151561593c57600080fd5b6000811415151561594c57600080fd5b85811015151561595b57600080fd5b615968848389868a618ec7565b85600960008673ffffffffffffffffffffffffffffffffffffffff1673ffffffffffffffffffffffffffffffffffffffff16815260200190815260200160002060008973ffffffffffffffffffffffffffffffffffffffff1673ffffffffffffffffffffffffffffffffffffffff1681526020019081526020016000205403600960008673ffffffffffffffffffffffffffffffffffffffff1673ffffffffffffffffffffffffffffffffffffffff16815260200190815260200160002060008973ffffffffffffffffffffffffffffffffffffffff1673ffffffffffffffffffffffffffffffffffffffff168152602001908152602001600020819055506000600960008673ffffffffffffffffffffffffffffffffffffffff1673ffffffffffffffffffffffffffffffffffffffff16815260200190815260200160002060008973ffffffffffffffffffffffffffffffffffffffff1673ffffffffffffffffffffffffffffffffffffffff168152602001908152602001600020541415615c6d57600960008573ffffffffffffffffffffffffffffffffffffffff1673ffffffffffffffffffffffffffffffffffffffff16815260200190815260200160002060008873ffffffffffffffffffffffffffffffffffffffff1673ffffffffffffffffffffffffffffffffffffffff16815260200190815260200160002060009055600860008573ffffffffffffffffffffffffffffffffffffffff1673ffffffffffffffffffffffffffffffffffffffff16815260200190815260200160002060008573ffffffffffffffffffffffffffffffffffffffff1673ffffffffffffffffffffffffffffffffffffffff16815260200190815260200160002060009055600860008573ffffffffffffffffffffffffffffffffffffffff1673ffffffffffffffffffffffffffffffffffffffff16815260200190815260200160002060008873ffffffffffffffffffffffffffffffffffffffff1673ffffffffffffffffffffffffffffffffffffffff168152602001908152602001600020600090555b7fa085ba1c72fda1f13ecb6e0347284ac7d016a73b7a47c0ba151368bbe5ce2db9888389868a600960008b73ffffffffffffffffffffffffffffffffffffffff1673ffffffffffffffffffffffffffffffffffffffff16815260200190815260200160002060008e73ffffffffffffffffffffffffffffffffffffffff1673ffffffffffffffffffffffffffffffffffffffff16815260200190815260200160002054604051808773ffffffffffffffffffffffffffffffffffffffff1673ffffffffffffffffffffffffffffffffffffffff1681526020018681526020018573ffffffffffffffffffffffffffffffffffffffff1673ffffffffffffffffffffffffffffffffffffffff168152602001848152602001838152602001828152602001965050505050505060405180910390a160019450505050509392505050565b600060606000615dbe85618017565b915060009250600090505b8151811015615e30578360ff16601c60008484815181101515615de857fe5b90602001906020020151815260200190815260200160002060060160019054906101000a900460ff1660ff161415615e235782806001019350505b8080600101915050615dc9565b505092915050565b6000806000808514151515615e4c57600080fd5b615e563386617343565b1515615e6157600080fd5b60008414151515615e7157600080fd5b60016005811115615e7e57fe5b601c600087815260200190815260200160002060060160019054906101000a900460ff1660ff16141515615eb157600080fd5b600f60030160009054906101000a900460ff1660ff16601c600087815260200190815260200160002060060160009054906101000a900460ff1660ff16101515615efa57600080fd5b6064600f60030160019054906101000a900460ff1660ff168502811515615f1d57fe5b049150600f6004015482601c6000888152602001908152602001600020600401540111151515615f4c57600080fd5b601c600086815260200190815260200160002060020154601c600087815260200190815260200160002060010154019050428110151515615f8c57600080fd5b60e060405190810160405280858152602001428152602001600f600601548152602001600060ff168152602001600060ff168152602001600060ff16815260200160a060405190810160405280600073ffffffffffffffffffffffffffffffffffffffff1673ffffffffffffffffffffffffffffffffffffffff168152602001600073ffffffffffffffffffffffffffffffffffffffff1673ffffffffffffffffffffffffffffffffffffffff168152602001600073ffffffffffffffffffffffffffffffffffffffff1673ffffffffffffffffffffffffffffffffffffffff168152602001600073ffffffffffffffffffffffffffffffffffffffff1673ffffffffffffffffffffffffffffffffffffffff168152602001600073ffffffffffffffffffffffffffffffffffffffff1673ffffffffffffffffffffffffffffffffffffffff16815250815250601e600087815260200190815260200160002060008201518160000155602082015181600101556040820151816002015560608201518160030160006101000a81548160ff021916908360ff16021790555060808201518160030160016101000a81548160ff021916908360ff16021790555060a08201518160030160026101000a81548160ff021916908360ff16021790555060c0820151816004019060056161849291906193f0565b50905050601c6000868152602001908152602001600020600601600081819054906101000a900460ff168092919060010191906101000a81548160ff021916908360ff16021790555050600260058111156161db57fe5b601c600087815260200190815260200160002060060160016101000a81548160ff021916908360ff16021790555060228590806001815401808255809150509060018203906000526020600020016000909192909190915055507fb3ef0c14cd9ed6533151b9a921ddb33f8716dd3593254ffc741ae770313e3bea8585601c600089815260200190815260200160002060060160009054906101000a900460ff16604051808481526020018381526020018260ff1660ff168152602001935050505060405180910390a160019250505092915050565b601b6020528060005260406000206000915090505481565b600080600084141515156162dc57600080fd5b601d60003373ffffffffffffffffffffffffffffffffffffffff1673ffffffffffffffffffffffffffffffffffffffff168152602001908152602001600020548414151561632957600080fd5b6002600581111561633657fe5b60ff16601c600086815260200190815260200160002060060160019054906101000a900460ff1660ff1614151561636c57600080fd5b601e600085815260200190815260200160002091508160020154826001015401905042811015151561639d57600080fd5b82156163dc5781600301600081819054906101000a900460ff168092919060010191906101000a81548160ff021916908360ff16021790555050616411565b81600301600181819054906101000a900460ff168092919060010191906101000a81548160ff021916908360ff160217905550505b601d60003373ffffffffffffffffffffffffffffffffffffffff1673ffffffffffffffffffffffffffffffffffffffff168152602001908152602001600020600090557f8d85a70fd2c5d140a4a01143492d27ff82cfad4cead313e66c53f39b0feb5e0f338585604051808473ffffffffffffffffffffffffffffffffffffffff1673ffffffffffffffffffffffffffffffffffffffff16815260200183815260200182151515158152602001935050505060405180910390a150505050565b60006003828154811015156164e257fe5b9060005260206000209060050201600001549050919050565b6009602052816000526040600020602052806000526040600020600091509150505481565b600c5481565b6000600a60009054906101000a900473ffffffffffffffffffffffffffffffffffffffff1673ffffffffffffffffffffffffffffffffffffffff163373ffffffffffffffffffffffffffffffffffffffff1614151561658157fe5b600073ffffffffffffffffffffffffffffffffffffffff168473ffffffffffffffffffffffffffffffffffffffff16141515156165bd57600080fd5b600083141515156165cd57600080fd5b600082141580156165e35750600f600001548210155b15156165ee57600080fd5b81601a60008673ffffffffffffffffffffffffffffffffffffffff1673ffffffffffffffffffffffffffffffffffffffff1681526020019081526020016000208190555082601b60008673ffffffffffffffffffffffffffffffffffffffff1673ffffffffffffffffffffffffffffffffffffffff16815260200190815260200160002081905550601f60008573ffffffffffffffffffffffffffffffffffffffff1673ffffffffffffffffffffffffffffffffffffffff168152602001908152602001600020549050600081141580156166cd575060208054905081105b1561677c5760016020828154811015156166e357fe5b906000526020600020906002020160010160166101000a81548160ff021916908315150217905550601f60008573ffffffffffffffffffffffffffffffffffffffff1673ffffffffffffffffffffffffffffffffffffffff16815260200190815260200160002060009055602160008154809291906001900391905055506000602154141561677b576020600061677a919061946d565b5b5b7f21619a95128e7e5c5367774b6479b6edbc059210239e39bbd50dbae00cfe0972848484604051808473ffffffffffffffffffffffffffffffffffffffff1673ffffffffffffffffffffffffffffffffffffffff168152602001838152602001828152602001935050505060405180910390a150505050565b60255481565b60606003601d60003373ffffffffffffffffffffffffffffffffffffffff1673ffffffffffffffffffffffffffffffffffffffff1681526020019081526020016000205481548110151561684b57fe5b90600052602060002090600502016001018054600181600116156101000203166002900480601f0160208091040260200160405190810160405280929190818152602001828054600181600116156101000203166002900480156168f05780601f106168c5576101008083540402835291602001916168f0565b820191906000526020600020905b8154815290600101906020018083116168d357829003601f168201915b5050505050905090565b600b60009054906101000a900473ffffffffffffffffffffffffffffffffffffffff1681565b600061692a619491565b601f60003373ffffffffffffffffffffffffffffffffffffffff1673ffffffffffffffffffffffffffffffffffffffff1681526020019081526020016000205491506000821480156169825750600f60080154602154105b15616c825760a0604051908101604052804281526020013373ffffffffffffffffffffffffffffffffffffffff168152602001600160ff168152602001600060ff1681526020016000151581525090506001602082908060018154018082558091505090600182039060005260206000209060020201600090919290919091506000820151816000015560208201518160010160006101000a81548173ffffffffffffffffffffffffffffffffffffffff021916908373ffffffffffffffffffffffffffffffffffffffff16021790555060408201518160010160146101000a81548160ff021916908360ff16021790555060608201518160010160156101000a81548160ff021916908360ff16021790555060808201518160010160166101000a81548160ff02191690831515021790555050500391506000821415616bac576001602082908060018154018082558091505090600182039060005260206000209060020201600090919290919091506000820151816000015560208201518160010160006101000a81548173ffffffffffffffffffffffffffffffffffffffff021916908373ffffffffffffffffffffffffffffffffffffffff16021790555060408201518160010160146101000a81548160ff021916908360ff16021790555060608201518160010160156101000a81548160ff021916908360ff16021790555060808201518160010160166101000a81548160ff02191690831515021790555050500391505b8163ffffffff1682141515616bc057600080fd5b81601f60003373ffffffffffffffffffffffffffffffffffffffff1673ffffffffffffffffffffffffffffffffffffffff168152602001908152602001600020819055506021600081548092919060010191905055507f59470163a7d3423114f115af31707633dd4930abac0f3662fc3c4ef323f39a863383604051808373ffffffffffffffffffffffffffffffffffffffff1673ffffffffffffffffffffffffffffffffffffffff1681526020018281526020019250505060405180910390a15b5090565b601c6020528060005260406000206000915090508060000154908060010154908060020154908060030154908060040154908060050154908060060160009054906101000a900460ff16908060060160019054906101000a900460ff16905088565b600060235460228054905003905090565b6007602052816000526040600020602052806000526040600020600091509150505481565b600060036000815481101515616d3057fe5b906000526020600020906005020160000154905090565b60215481565b602081815481101515616d5c57fe5b90600052602060002090600202016000915090508060000154908060010160009054906101000a900473ffffffffffffffffffffffffffffffffffffffff16908060010160149054906101000a900460ff16908060010160159054906101000a900460ff16908060010160169054906101000a900460ff16905085565b6060600080600d6000858152602001908152602001600020549150600090505b600c54811015616e4357818382815181101515616e1257fe5b9060200190602002018181525050600d60008381526020019081526020016000205491508080600101915050616df9565b5050919050565b6008602052816000526040600020602052806000526040600020600091509150505481565b600a60009054906101000a900473ffffffffffffffffffffffffffffffffffffffff1673ffffffffffffffffffffffffffffffffffffffff163373ffffffffffffffffffffffffffffffffffffffff16141515616ec857fe5b600a60009054906101000a900473ffffffffffffffffffffffffffffffffffffffff1673ffffffffffffffffffffffffffffffffffffffff168173ffffffffffffffffffffffffffffffffffffffff1614151515616f2557600080fd5b80600b60006101000a81548173ffffffffffffffffffffffffffffffffffffffff021916908373ffffffffffffffffffffffffffffffffffffffff16021790555050565b600080600080600a60009054906101000a900473ffffffffffffffffffffffffffffffffffffffff1673ffffffffffffffffffffffffffffffffffffffff163373ffffffffffffffffffffffffffffffffffffffff16141515616fc857fe5b602280549050602354101515616fdd57600080fd5b6022602354815481101515616fee57fe5b90600052602060002001549350600073ffffffffffffffffffffffffffffffffffffffff168573ffffffffffffffffffffffffffffffffffffffff161415151561703757600080fd5b6000841415151561704757600080fd5b6002600581111561705457fe5b601c600086815260200190815260200160002060060160019054906101000a900460ff1660ff1614151561708757600080fd5b601e6000858152602001908152602001600020925060008360000154141515156170b057600080fd5b826002015483600101540191504282101515156170cc57600080fd5b8260030160029054906101000a900460ff169050600f60070160009054906101000a900460ff1660ff168160ff1610151561710657600080fd5b84836004018260ff1660058110151561711b57fe5b0160006101000a81548173ffffffffffffffffffffffffffffffffffffffff021916908373ffffffffffffffffffffffffffffffffffffffff16021790555082600301600281819054906101000a900460ff168092919060010191906101000a81548160ff021916908360ff1602179055505083601d60008773ffffffffffffffffffffffffffffffffffffffff1673ffffffffffffffffffffffffffffffffffffffff16815260200190815260200160002081905550600f60070160009054906101000a900460ff1660ff168360030160029054906101000a900460ff1660ff16141561723e57602360008154809291906001019190505550602280549050602354141561723d576000602381905550600060228161723b91906194df565b505b5b5050505050565b60008073ffffffffffffffffffffffffffffffffffffffff168273ffffffffffffffffffffffffffffffffffffffff161415151561728257600080fd5b600073ffffffffffffffffffffffffffffffffffffffff168373ffffffffffffffffffffffffffffffffffffffff16141515156172be57600080fd5b600960008473ffffffffffffffffffffffffffffffffffffffff1673ffffffffffffffffffffffffffffffffffffffff16815260200190815260200160002060008373ffffffffffffffffffffffffffffffffffffffff1673ffffffffffffffffffffffffffffffffffffffff16815260200190815260200160002054905092915050565b60008273ffffffffffffffffffffffffffffffffffffffff166004600084815260200190815260200160002060009054906101000a900473ffffffffffffffffffffffffffffffffffffffff1673ffffffffffffffffffffffffffffffffffffffff1614905092915050565b60008060008060006173c187876190b4565b93506173cc84617da8565b92506173d887876190e2565b915081831015617442576173ec8785612874565b7f69186e91a26c2cd1f67397df408ddeb0db9249dbd6e2a428ad8ae0d59ba3bc88878588604051808481526020018381526020018260ff1660ff168152602001935050505060405180910390a160019450617687565b600e8660ff1681548110151561745457fe5b906000526020600020906006020160010154600e8760ff1681548110151561747857fe5b90600052602060002090600602016003015414156174995760009450617687565b6175a060006003868154811015156174ad57fe5b90600052602060002090600502016001018054600181600116156101000203166002900480601f0160208091040260200160405190810160405280929190818152602001828054600181600116156101000203166002900480156175525780601f1061752757610100808354040283529160200191617552565b820191906000526020600020905b81548152906001019060200180831161753557829003601f168201915b505050505060038781548110151561756657fe5b906000526020600020906005020160020154600a60009054906101000a900473ffffffffffffffffffffffffffffffffffffffff16619113565b9050600081141515617682576175b981600188036173af565b15617679576175c88782612874565b7f69186e91a26c2cd1f67397df408ddeb0db9249dbd6e2a428ad8ae0d59ba3bc88878288604051808481526020018381526020018260ff1660ff168152602001935050505060405180910390a180600e8760ff1681548110151561762857fe5b906000526020600020906006020160040181905550600e8660ff1681548110151561764f57fe5b90600052602060002090600602016003016000815480929190600101919050555060019450617687565b60009450617687565b600094505b5050505092915050565b600080600080600080600080600089141580156176b2575060038054905089105b15156176bd57600080fd5b6001600c540360038a8154811015156176d257fe5b9060005260206000209060050201600301541415156176f057600080fd5b600d60008a81526020019081526020016000205496506000871415151561771657600080fd5b600d60008881526020019081526020016000205495506000861415151561773c57600080fd5b600d60008781526020019081526020016000205494506000851415151561776257600080fd5b6064600e600281548110151561777457fe5b90600052602060002090600602016005015460038b81548110151561779557fe5b906000526020600020906005020160000154028115156177b157fe5b049350600084141515156177c457600080fd5b6064600e60018154811015156177d657fe5b90600052602060002090600602016005015460038b8154811015156177f757fe5b9060005260206000209060050201600001540281151561781357fe5b0492506000831415151561782657600080fd5b6064600e600081548110151561783857fe5b90600052602060002090600602016005015460038b81548110151561785957fe5b9060005260206000209060050201600001540281151561787557fe5b0491506000821415151561788857600080fd5b81838560038c81548110151561789a57fe5b9060005260206000209060050201600001540303039050600081141515156178c157600080fd5b836003888154811015156178d157fe5b906000526020600020906005020160000154016003888154811015156178f357fe5b9060005260206000209060050201600001819055508260038781548110151561791857fe5b9060005260206000209060050201600001540160038781548110151561793a57fe5b9060005260206000209060050201600001819055508160038681548110151561795f57fe5b9060005260206000209060050201600001540160038681548110151561798157fe5b90600052602060002090600502016000018190555080600360008154811015156179a757fe5b90600052602060002090600502016000015401600360008154811015156179ca57fe5b906000526020600020906005020160000181905550600060038a8154811015156179f057fe5b9060005260206000209060050201600001819055507fcfd3c3fcdcb63bcee48ff9a9ec28351afef5ba4fc9b5a8f46d5aa65565a3b1a38983858785604051808681526020018581526020018481526020018381526020018281526020019550505050505060405180910390a16001975050505050505050919050565b806006600084815260200190815260200160002060006101000a81548173ffffffffffffffffffffffffffffffffffffffff021916908373ffffffffffffffffffffffffffffffffffffffff1602179055505050565b60008273ffffffffffffffffffffffffffffffffffffffff166006600084815260200190815260200160002060009054906101000a900473ffffffffffffffffffffffffffffffffffffffff1673ffffffffffffffffffffffffffffffffffffffff1614905092915050565b610400600382815481101515617b4057fe5b90600052602060002090600502016004015414151515617b5c57fe5b600560008373ffffffffffffffffffffffffffffffffffffffff1673ffffffffffffffffffffffffffffffffffffffff16815260200190815260200160002060008154809291906001019190505550816004600083815260200190815260200160002060006101000a81548173ffffffffffffffffffffffffffffffffffffffff021916908373ffffffffffffffffffffffffffffffffffffffff160217905550600073ffffffffffffffffffffffffffffffffffffffff168373ffffffffffffffffffffffffffffffffffffffff16141515617cba57600560008473ffffffffffffffffffffffffffffffffffffffff1673ffffffffffffffffffffffffffffffffffffffff16815260200190815260200160002060008154809291906001900391905055506006600082815260200190815260200160002060006101000a81549073ffffffffffffffffffffffffffffffffffffffff02191690555b7fddf252ad1be2c89b69c2b068fc378daa952ba7f163c4a11628f55a4df523b3ef838383604051808473ffffffffffffffffffffffffffffffffffffffff1673ffffffffffffffffffffffffffffffffffffffff1681526020018373ffffffffffffffffffffffffffffffffffffffff1673ffffffffffffffffffffffffffffffffffffffff168152602001828152602001935050505060405180910390a1505050565b600060606000617d6d84618017565b9150815190506000811415617d855760009250617da1565b816000815181101515617d9457fe5b9060200190602002015192505b5050919050565b6000806000808414158015617dc1575060038054905084105b1515617dcc57600080fd5b617dd46129b2565b915060009250600190505b8181111515617e195783600d6000838152602001908152602001600020541415617e0c5782806001019350505b8080600101915050617ddf565b5050919050565b617e2a8383617343565b1515617e3557600080fd5b60008114151515617e4557600080fd5b80600383815481101515617e5557fe5b90600052602060002090600502016000015410151515617e7457600080fd5b80600383815481101515617e8457fe5b90600052602060002090600502016000015403600383815481101515617ea657fe5b9060005260206000209060050201600001819055507f45dacd427fd388bf162986dbc958cdcf160c31b40efe076907cff377b9857c79838383604051808473ffffffffffffffffffffffffffffffffffffffff1673ffffffffffffffffffffffffffffffffffffffff168152602001838152602001828152602001935050505060405180910390a1505050565b617f3d8383617343565b1515617f4857600080fd5b60008114151515617f5857600080fd5b80600383815481101515617f6857fe5b90600052602060002090600502016000015401600383815481101515617f8a57fe5b9060005260206000209060050201600001819055507f20f4934a3b4928cca0e51f3f1eaac12dee9af151a8a8ba5a424a89d93f6bf53d838383604051808473ffffffffffffffffffffffffffffffffffffffff1673ffffffffffffffffffffffffffffffffffffffff168152602001838152602001828152602001935050505060405180910390a1505050565b60606000606060008060008073ffffffffffffffffffffffffffffffffffffffff168773ffffffffffffffffffffffffffffffffffffffff161415151561805d57600080fd5b61806687613c64565b945060008514156180a95760006040519080825280602002602001820160405280156180a15781602001602082028038833980820191505090505b509550618193565b846040519080825280602002602001820160405280156180d85781602001602082028038833980820191505090505b5093506180e36129b2565b925060009150600190505b828111151561818f578673ffffffffffffffffffffffffffffffffffffffff166004600083815260200190815260200160002060009054906101000a900473ffffffffffffffffffffffffffffffffffffffff1673ffffffffffffffffffffffffffffffffffffffff1614156181825780848380600101945081518110151561817357fe5b90602001906020020181815250505b80806001019150506180ee565b8395505b5050505050919050565b600082141515156181ad57600080fd5b6181b73383617343565b15156181c257600080fd5b6000601c600084815260200190815260200160002060030154141515156181e857600080fd5b600160058111156181f557fe5b60ff16601c600084815260200190815260200160002060060160019054906101000a900460ff1660ff161415151561822c57600080fd5b61040060038381548110151561823e57fe5b9060005260206000209060050201600401819055506001600581111561826057fe5b601c600084815260200190815260200160002060060160016101000a81548160ff021916908360ff16021790555042601c600084815260200190815260200160002060010181905550806003838154811015156182b957fe5b906000526020600020906005020160010190805190602001906182dd92919061950b565b507ff5d2d36fd2c60192fd8f874c962737f1858ff797bf9865d071ade33eeee0070182601c600085815260200190815260200160002060030154601c60008681526020019081526020016000206005015460405180848152602001838152602001828152602001935050505060405180910390a15050565b60008060008060009350600d60008781526020019081526020016000205492506000831415151561838557600080fd5b600d6000848152602001908152602001600020549150600082141515156183ab57600080fd5b600d6000838152602001908152602001600020549050600081141515156183d157600080fd5b6003838154811015156183e057fe5b9060005260206000209060050201600001548511151561840357600193506184cb565b60038381548110151561841257fe5b90600052602060002090600502016000015460038381548110151561843357fe5b906000526020600020906005020160000154018511151561845757600193506184ca565b60038381548110151561846657fe5b90600052602060002090600502016000015460038381548110151561848757fe5b9060005260206000209060050201600001546003838154811015156184a857fe5b9060005260206000209060050201600001540101851115156184c957600193505b5b5b50505092915050565b6184dc6193aa565b60008060008086141580156184f5575060038054905086105b151561850057600080fd5b6000851415151561851057600080fd5b600084600060048110151561852157fe5b602002018181525050600084600160048110151561853b57fe5b602002018181525050600084600260048110151561855557fe5b602002018181525050600084600360048110151561856f57fe5b602002018181525050600d60008781526020019081526020016000205492506000831415151561859e57600080fd5b600d6000848152602001908152602001600020549150600082141515156185c457600080fd5b600d6000838152602001908152602001600020549050600081141515156185ea57600080fd5b6003838154811015156185f957fe5b906000526020600020906005020160000154851115156186d9578484600260048110151561862357fe5b60200201818152505083600260048110151561863b57fe5b602002015160038481548110151561864f57fe5b9060005260206000209060050201600001540360038481548110151561867157fe5b9060005260206000209060050201600001819055507f7c6ae15e271230e8f8b92de835be76e504f4bb32c5c02872b19e167d6d100fbf86866002604051808481526020018381526020018260ff1660ff168152602001935050505060405180910390a1618c80565b6003838154811015156186e857fe5b90600052602060002090600502016000015460038381548110151561870957fe5b90600052602060002090600502016000015401851115156188f5577ff5e9c26d6f4f4192de6ab81062e5f90501d77f924b508e44728a2b78d3c12c6d8684876002604051808581526020018481526020018381526020018260ff1660ff16815260200194505050505060405180910390a160038381548110151561878957fe5b9060005260206000209060050201600001548460026004811015156187aa57fe5b6020020181815250506003838154811015156187c257fe5b90600052602060002090600502016000015485038460016004811015156187e557fe5b6020020181815250508360026004811015156187fd57fe5b602002015160038481548110151561881157fe5b9060005260206000209060050201600001540360038481548110151561883357fe5b90600052602060002090600502016000018190555083600160048110151561885757fe5b602002015160038381548110151561886b57fe5b9060005260206000209060050201600001540360038381548110151561888d57fe5b9060005260206000209060050201600001819055507f7c6ae15e271230e8f8b92de835be76e504f4bb32c5c02872b19e167d6d100fbf86866001604051808481526020018381526020018260ff1660ff168152602001935050505060405180910390a1618c7f565b60038381548110151561890457fe5b90600052602060002090600502016000015460038381548110151561892557fe5b90600052602060002090600502016000015460038381548110151561894657fe5b906000526020600020906005020160000154010185111515618be8577ff5e9c26d6f4f4192de6ab81062e5f90501d77f924b508e44728a2b78d3c12c6d8683876001604051808581526020018481526020018381526020018260ff1660ff16815260200194505050505060405180910390a16003838154811015156189c757fe5b9060005260206000209060050201600001548460026004811015156189e857fe5b602002018181525050600382815481101515618a0057fe5b906000526020600020906005020160000154846001600481101515618a2157fe5b602002018181525050600382815481101515618a3957fe5b906000526020600020906005020160000154600384815481101515618a5a57fe5b906000526020600020906005020160000154860303846000600481101515618a7e57fe5b602002018181525050836002600481101515618a9657fe5b6020020151600384815481101515618aaa57fe5b90600052602060002090600502016000015403600384815481101515618acc57fe5b906000526020600020906005020160000181905550836001600481101515618af057fe5b6020020151600383815481101515618b0457fe5b90600052602060002090600502016000015403600383815481101515618b2657fe5b906000526020600020906005020160000181905550836000600481101515618b4a57fe5b6020020151600382815481101515618b5e57fe5b90600052602060002090600502016000015403600382815481101515618b8057fe5b9060005260206000209060050201600001819055507f7c6ae15e271230e8f8b92de835be76e504f4bb32c5c02872b19e167d6d100fbf86866000604051808481526020018381526020018260ff1660ff168152602001935050505060405180910390a1618c7e565b7ff5e9c26d6f4f4192de6ab81062e5f90501d77f924b508e44728a2b78d3c12c6d8682876000604051808581526020018481526020018381526020018260ff1660ff16815260200194505050505060405180910390a17f95f5c188d1321fe8984cadebc18c8fcaddc6cedbf14ee92f03f318c0e20384858686604051808381526020018281526020019250505060405180910390a15b5b5b50505092915050565b600080618cce836040805190810160405280600c81526020017f43726f7764737572616e63650000000000000000000000000000000000000000815250600088619113565b90506101006040519081016040528042815260200160008152602001600f60010154815260200184815260200160008152602001858152602001600060ff16815260200160006005811115618d1f57fe5b60ff16815250601c6000838152602001908152602001600020600082015181600001556020820151816001015560408201518160020155606082015181600301556080820151816004015560a0820151816005015560c08201518160060160006101000a81548160ff021916908360ff16021790555060e08201518160060160016101000a81548160ff021916908360ff160217905550905050618dc28161935c565b507fbca387acb0ba7d06e329c4372885bb664f19a98153ccf3e74e56c136bf0e88c4858285604051808473ffffffffffffffffffffffffffffffffffffffff1673ffffffffffffffffffffffffffffffffffffffff168152602001838152602001828152602001935050505060405180910390a1601a60008673ffffffffffffffffffffffffffffffffffffffff1673ffffffffffffffffffffffffffffffffffffffff16815260200190815260200160002060009055601b60008673ffffffffffffffffffffffffffffffffffffffff1673ffffffffffffffffffffffffffffffffffffffff16815260200190815260200160002060009055809150509392505050565b618ed18585617343565b1515618edc57600080fd5b618ee68383617343565b1515618ef157600080fd5b60008114151515618f0157600080fd5b818414151515618f1057600080fd5b80600385815481101515618f2057fe5b90600052602060002090600502016000015410151515618f3f57600080fd5b610400600385815481101515618f5157fe5b90600052602060002090600502016004015414151515618f7057600080fd5b80600385815481101515618f8057fe5b90600052602060002090600502016000015403600385815481101515618fa257fe5b90600052602060002090600502016000018190555080600383815481101515618fc757fe5b90600052602060002090600502016000015401600383815481101515618fe957fe5b9060005260206000209060050201600001819055507f6d401b913d27047ecd2042f0331e2354d30e664920b31480dc71955edb996c388585858585604051808673ffffffffffffffffffffffffffffffffffffffff1673ffffffffffffffffffffffffffffffffffffffff1681526020018581526020018473ffffffffffffffffffffffffffffffffffffffff1673ffffffffffffffffffffffffffffffffffffffff1681526020018381526020018281526020019550505050505060405180910390a15050505050565b6000600e8260ff168154811015156190c857fe5b906000526020600020906006020160040154905092915050565b60006001600e8360ff168154811015156190f857fe5b90600052602060002090600602016002015403905092915050565b600061911d61958b565b600060a06040519081016040528088815260200187815260200186815260200160008152602001600081525091506001600383908060018154018082558091505090600182039060005260206000209060050201600090919290919091506000820151816000015560208201518160010190805190602001906191a19291906195bb565b506040820151816002015560608201518160030155608082015181600401555050039050600063ffffffff1681141561924f5760016003839080600181540180825580915050906001820390600052602060002090600502016000909192909190915060008201518160000155602082015181600101908051906020019061922a9291906195bb565b5060408201518160020155606082015181600301556080820151816004015550500390505b8063ffffffff168114151561926357600080fd5b7fdea8e87d69047e1b3cd43ad599d34e3eacfe4408b4dfc5d0f6ac6a15a468de5c8787878760405180858152602001806020018481526020018373ffffffffffffffffffffffffffffffffffffffff1673ffffffffffffffffffffffffffffffffffffffff168152602001828103825285818151815260200191508051906020019080838360005b838110156193065780820151818401526020810190506192eb565b50505050905090810190601f1680156193335780820380516001836020036101000a031916815260200191505b509550505050505060405180910390a161934f60008583617b2e565b8092505050949350505050565b6000808214158015619372575060038054905082105b151561937d57600080fd5b6193888260026173af565b151561939057fe5b61939982617691565b15156193a157fe5b60019050919050565b608060405190810160405280600490602082028038833980820191505090505090565b506000815560010160008155600101600081556001016000815560010160009055565b826005810192821561945c579160200282015b8281111561945b5782518260006101000a81548173ffffffffffffffffffffffffffffffffffffffff021916908373ffffffffffffffffffffffffffffffffffffffff16021790555091602001919060010190619403565b5b509050619469919061963b565b5090565b508054600082556002029060005260206000209081019061948e919061967e565b50565b60a06040519081016040528060008152602001600073ffffffffffffffffffffffffffffffffffffffff168152602001600060ff168152602001600060ff1681526020016000151581525090565b815481835581811115619506578183600052602060002091820191016195059190619708565b5b505050565b828054600181600116156101000203166002900490600052602060002090601f016020900481019282601f1061954c57805160ff191683800117855561957a565b8280016001018555821561957a579182015b8281111561957957825182559160200191906001019061955e565b5b5090506195879190619708565b5090565b60a06040519081016040528060008152602001606081526020016000815260200160008152602001600081525090565b828054600181600116156101000203166002900490600052602060002090601f016020900481019282601f106195fc57805160ff191683800117855561962a565b8280016001018555821561962a579182015b8281111561962957825182559160200191906001019061960e565b5b5090506196379190619708565b5090565b61967b91905b8082111561967757600081816101000a81549073ffffffffffffffffffffffffffffffffffffffff021916905550600101619641565b5090565b90565b61970591905b80821115619701576000808201600090556001820160006101000a81549073ffffffffffffffffffffffffffffffffffffffff02191690556001820160146101000a81549060ff02191690556001820160156101000a81549060ff02191690556001820160166101000a81549060ff021916905550600201619684565b5090565b90565b61972a91905b8082111561972657600081600090555060010161970e565b5090565b905600a165627a7a723058207a2a5565153a359ee4afe1eb49db87022ad0b7fde6f97cf85c53879bb1a91c7d0029",
  "source": "// \n// MIT License\n// \n// Copyright (c) 2018 REGA Risk Sharing\n//   \n// Permission is hereby granted, free of charge, to any person obtaining a copy\n// of this software and associated documentation files (the \"Software\"), to deal\n// in the Software without restriction, including without limitation the rights\n// to use, copy, modify, merge, publish, distribute, sublicense, and/or sell\n// copies of the Software, and to permit persons to whom the Software is\n// furnished to do so, subject to the following conditions:\n// \n// The above copyright notice and this permission notice shall be included in all\n// copies or substantial portions of the Software.\n// \n// THE SOFTWARE IS PROVIDED \"AS IS\", WITHOUT WARRANTY OF ANY KIND, EXPRESS OR\n// IMPLIED, INCLUDING BUT NOT LIMITED TO THE WARRANTIES OF MERCHANTABILITY,\n// FITNESS FOR A PARTICULAR PURPOSE AND NONINFRINGEMENT. IN NO EVENT SHALL THE\n// AUTHORS OR COPYRIGHT HOLDERS BE LIABLE FOR ANY CLAIM, DAMAGES OR OTHER\n// LIABILITY, WHETHER IN AN ACTION OF CONTRACT, TORT OR OTHERWISE, ARISING FROM,\n// OUT OF OR IN CONNECTION WITH THE SOFTWARE OR THE USE OR OTHER DEALINGS IN THE\n// SOFTWARE.\n// \n// Author: Sergei Sevriugin\n// Version: 0.0.1\n//  \n\npragma solidity ^0.4.17;\n\nimport './TokenCrowdsurance.sol';\nimport './interfaces/IERC20Token.sol';\n\n/// Luggage crowdsurance protection product based on TokenCrowdsurance NFT token \ncontract LuggageCrowdsurance is TokenCrowdsurance {\n    /// REGA Risk Sharing Token smart contract address\n    IERC20Token public  RST;                // RST smart contract address\n    uint256     public  joinAmountRST;      // Join amount in RST\n    bool        public  ETHOnly;            // Join only for RST tokens\n    uint8       public  maxHold;            // Maximum number of toikens for one address\n    uint256     public  rstETHRate;         // RST/ETH rate\n    uint8       public  paybackRatio;       // Payback ratio\n\n    mapping (uint256 => uint256) public payback;    // payback mapping\n    /// join function\n    /// @return cowdsuranceId NFT token ID for created crowdsurance\n    function join() public payable returns(uint256 cowdsuranceId) {\n        uint256 amount = msg.value;\n        address member = msg.sender;\n        uint256 score = addressToScore[member];\n        require(score != uint256(0));\n\n        if (!ETHOnly && msg.value == uint256(0)) {\n            // now need to check that the member has approved the transfer joinAmountRST to join\n            require(RST != address(0));                             // check that we have valid contract address\n            require(joinAmountRST != uint256(0));                   // join RST amount must be > 0\n            uint256 rstAmt = RST.allowance(member, this);           // check if the member has gave permision to spend some amount\n            uint256 rstDecimals = uint256(RST.decimals());          // need RST decimals to convert RST to ETH based on the convertion rate\n            require(rstAmt >= joinAmountRST);                       // ... and check if allowance is more then joinAmount\n            amount = addressToAmount[member];                       // get join amount and check...\n            uint256 rstAmtInETH = rstAmt * rstETHRate;              // ... and now calculate join amount from RST to ETH\n            if (rstDecimals >= uint8(1)) {                          // ... check if RST decimals is not 0\n                rstDecimals--;\n                rstAmtInETH = rstAmtInETH / (10 ** rstDecimals);    // ... and use decimals to convert RST to ETH\n            }\n            require(rstAmtInETH >= amount && amount >= parameters.joinAmount);\n            // transfer join RST amount to the owner account\n            require(RST.transferFrom(member, owner, joinAmountRST));\n        }\n        else {\n            require(amount != uint256(0) && amount >= parameters.joinAmount);\n            require(amount == addressToAmount[member]);\n        }\n        // call internal _join after all checkups \n        cowdsuranceId = _join(member, score, amount);\n    }\n    /// set payback amount function\n    /// @param _id crowdsurance token ID\n    /// @param _amount payback amount to set\n    /// @return true if successful \n    function setPayback(uint256 _id, uint256 _amount) ownerOnly public returns (bool) {\n        require(_id != uint256(0));\n        require(_amount != uint256(0));\n        require(_amount <= parameters.joinAmount * paybackRatio / 100);\n        require(extensions[_id].paid == uint256(0));\n        uint coverageEnd = extensions[_id].activated + extensions[_id].duration;\n        require(coverageEnd < now);\n        payback[_id] = _amount;\n        return true;\n    }\n    /// get payback function\n    /// @param _id luggage protection token to get payback\n    function getPayback(uint256 _id) public {\n        require(_owns(msg.sender, _id));\n        require(_id != uint256(0));\n        uint256 _amount = payback[_id];\n        require(_amount != uint256(0));\n        require(extensions[_id].paid == uint256(0));\n        extensions[_id].paid = _amount;\n        msg.sender.transfer(_amount);\n    }\n    /// activate function \n    /// @param _id NFT token ID to activate\n    /// @param _hash activation hash\n    function activate(uint256 _id, string _hash) public {\n        address member = msg.sender;\n        // check if number of tokens is not more then maxHold\n        require(statusCount(member, uint8(Status.Active)) < maxHold);   \n        super.activate(_id, _hash);\n    }\n    function activateCurrent(string _hash) public {\n        activate(getCurrentTokenId(),_hash);\n    }\n    function getAllowance() public view returns (uint256 allowance) {\n        allowance = RST.allowance(msg.sender,address(this));\n    }\n    /// get commission function\n    function transferCommission() ownerOnly public {\n        uint256 commission = nfts[0].value;\n        require(commission != uint256(0)); \n        nfts[0].value = 0;\n        msg.sender.transfer(commission);\n    }\n    function getBizProcessId() view public returns(address contractOwner, uint8 bizProcessId) {\n        contractOwner = owner;\n        bizProcessId = 0;\n        // check voting first\n        if (voters[msg.sender] != uint256(0)) {\n            // voter\n            bizProcessId = 5;\n            return;\n        }\n        // check if sender has Crowdsurance token\n        uint256 id = getCurrentTokenId();\n        if(id == uint256(0)) {\n            // sender don't have any token check application \n            uint256 appId = getAppID();\n            uint256 amount = addressToAmount[msg.sender];\n            uint256 allowance = getAllowance();\n            if(appId == uint256(0) && amount == uint256(0)) {\n                // the first step - need to make application\n                bizProcessId = 1;\n            }\n            else if(appId != uint256(0) && amount == uint256(0)) {\n                // waiting for scoring\n                bizProcessId = 2; \n            }\n            else if (appId == uint256(0) && amount != uint256(0) && allowance == uint256(0)) {\n                // need to approve token transfer\n                bizProcessId = 3;\n            }\n            else if (appId == uint256(0) && amount != uint256(0) && allowance != uint256(0)) {\n                // join \n                bizProcessId = 4;\n            }\n        }\n        else {\n            // we have current token id\n            if (extensions[id].status == uint(Status.Init)) {\n                bizProcessId = 10;  // activate\n            }\n            else if (extensions[id].status == uint(Status.Active)) {\n                bizProcessId = 11;  // claim\n            }\n            else if (extensions[id].status == uint(Status.Claim)) {\n                bizProcessId = 20 + getCurrentVotingStatus();\n\n            }\n        }\n    }\n    function LuggageCrowdsurance(address _rst, uint256 _amount, bool _only, uint8 _max) \n                TokenCrowdsurance(\"Luggage Crowdsurance Smart Token\", \"LCST\") public {\n        // setting up contract parameters \n        RST = IERC20Token(_rst);\n        parameters.joinAmount = 0.038 ether;\n        parameters.maxClaimAmount = 4 ether; \n        if (_amount == uint256(0)) {\n            joinAmountRST = 7600000000; \n        }\n        else {\n            joinAmountRST = _amount; \n        }\n        if (_max == uint8(0)) {\n            maxHold = 5;\n        }\n        else {\n            maxHold = _max;\n        }\n        ETHOnly = _only;\n        rstETHRate = 0.05 ether;\n        paybackRatio = 100;\n    }\n}",
  "sourcePath": "/Users/sergei/LuggageCrowdsurance/contracts/LuggageCrowdsurance.sol",
  "compiler": {
    "name": "solc",
    "version": "0.4.24+commit.e67f0147.Emscripten.clang"
  },
  "schemaVersion": "2.0.0",
  "updatedAt": "2018-07-01T19:30:12.665Z"
}