{
  "contractName": "LuggageCrowdsurance",
  "abi": [
    {
      "constant": true,
      "inputs": [],
      "name": "getCurrentVotingStatus",
      "outputs": [
        {
          "name": "status",
          "type": "uint8"
        }
      ],
      "payable": false,
      "stateMutability": "view",
      "type": "function"
    },
    {
      "constant": false,
      "inputs": [
        {
          "name": "_id",
          "type": "uint256"
        }
      ],
      "name": "insertPool",
      "outputs": [
        {
          "name": "",
          "type": "bool"
        }
      ],
      "payable": false,
      "stateMutability": "nonpayable",
      "type": "function"
    },
    {
      "constant": true,
      "inputs": [
        {
          "name": "_interfaceID",
          "type": "bytes4"
        }
      ],
      "name": "supportsInterface",
      "outputs": [
        {
          "name": "",
          "type": "bool"
        }
      ],
      "payable": false,
      "stateMutability": "view",
      "type": "function"
    },
    {
      "constant": true,
      "inputs": [],
      "name": "name",
      "outputs": [
        {
          "name": "",
          "type": "string"
        }
      ],
      "payable": false,
      "stateMutability": "view",
      "type": "function"
    },
    {
      "constant": false,
      "inputs": [
        {
          "name": "_to",
          "type": "address"
        },
        {
          "name": "_tokenId",
          "type": "uint256"
        }
      ],
      "name": "approve",
      "outputs": [],
      "payable": false,
      "stateMutability": "nonpayable",
      "type": "function"
    },
    {
      "constant": false,
      "inputs": [
        {
          "name": "_id",
          "type": "uint256"
        }
      ],
      "name": "castNegative",
      "outputs": [],
      "payable": false,
      "stateMutability": "nonpayable",
      "type": "function"
    },
    {
      "constant": true,
      "inputs": [],
      "name": "getBizProcessId",
      "outputs": [
        {
          "name": "contractOwner",
          "type": "address"
        },
        {
          "name": "bizProcessId",
          "type": "uint8"
        }
      ],
      "payable": false,
      "stateMutability": "view",
      "type": "function"
    },
    {
      "constant": true,
      "inputs": [
        {
          "name": "_id",
          "type": "uint256"
        }
      ],
      "name": "votingStatus",
      "outputs": [
        {
          "name": "state",
          "type": "uint8"
        },
        {
          "name": "positive",
          "type": "uint8"
        },
        {
          "name": "negative",
          "type": "uint8"
        },
        {
          "name": "payment",
          "type": "uint256"
        },
        {
          "name": "balance",
          "type": "uint256"
        }
      ],
      "payable": false,
      "stateMutability": "view",
      "type": "function"
    },
    {
      "constant": false,
      "inputs": [
        {
          "name": "_nodeId",
          "type": "uint256"
        },
        {
          "name": "_parentId",
          "type": "uint256"
        }
      ],
      "name": "addToken",
      "outputs": [],
      "payable": false,
      "stateMutability": "nonpayable",
      "type": "function"
    },
    {
      "constant": true,
      "inputs": [],
      "name": "totalSupply",
      "outputs": [
        {
          "name": "",
          "type": "uint256"
        }
      ],
      "payable": false,
      "stateMutability": "view",
      "type": "function"
    },
    {
      "constant": false,
      "inputs": [],
      "name": "paymentCurrent",
      "outputs": [],
      "payable": false,
      "stateMutability": "nonpayable",
      "type": "function"
    },
    {
      "constant": true,
      "inputs": [],
      "name": "getAppID",
      "outputs": [
        {
          "name": "appId",
          "type": "uint256"
        }
      ],
      "payable": false,
      "stateMutability": "view",
      "type": "function"
    },
    {
      "constant": true,
      "inputs": [
        {
          "name": "_id",
          "type": "uint256"
        },
        {
          "name": "_value",
          "type": "uint256"
        }
      ],
      "name": "checkPaymentAmount",
      "outputs": [
        {
          "name": "level",
          "type": "uint8"
        },
        {
          "name": "amtSubPool",
          "type": "uint256"
        },
        {
          "name": "amtPool",
          "type": "uint256"
        },
        {
          "name": "amtSuperPool",
          "type": "uint256"
        },
        {
          "name": "balance",
          "type": "uint256"
        }
      ],
      "payable": false,
      "stateMutability": "view",
      "type": "function"
    },
    {
      "constant": true,
      "inputs": [],
      "name": "getDistribution",
      "outputs": [
        {
          "name": "distribution",
          "type": "uint256[4]"
        }
      ],
      "payable": false,
      "stateMutability": "view",
      "type": "function"
    },
    {
      "constant": true,
      "inputs": [
        {
          "name": "",
          "type": "uint256"
        }
      ],
      "name": "tokenIndexToOwner",
      "outputs": [
        {
          "name": "",
          "type": "address"
        }
      ],
      "payable": false,
      "stateMutability": "view",
      "type": "function"
    },
    {
      "constant": true,
      "inputs": [],
      "name": "RST",
      "outputs": [
        {
          "name": "",
          "type": "address"
        }
      ],
      "payable": false,
      "stateMutability": "view",
      "type": "function"
    },
    {
      "constant": false,
      "inputs": [
        {
          "name": "_from",
          "type": "address"
        },
        {
          "name": "_to",
          "type": "address"
        },
        {
          "name": "_tokenId",
          "type": "uint256"
        }
      ],
      "name": "transferFrom",
      "outputs": [],
      "payable": false,
      "stateMutability": "nonpayable",
      "type": "function"
    },
    {
      "constant": false,
      "inputs": [
        {
          "name": "_to",
          "type": "address"
        },
        {
          "name": "_toId",
          "type": "uint256"
        },
        {
          "name": "_level",
          "type": "uint256"
        }
      ],
      "name": "setLevel",
      "outputs": [],
      "payable": false,
      "stateMutability": "nonpayable",
      "type": "function"
    },
    {
      "constant": false,
      "inputs": [],
      "name": "castNegativeSelected",
      "outputs": [],
      "payable": false,
      "stateMutability": "nonpayable",
      "type": "function"
    },
    {
      "constant": false,
      "inputs": [
        {
          "name": "_spender",
          "type": "address"
        },
        {
          "name": "_value",
          "type": "uint256"
        }
      ],
      "name": "cApprove",
      "outputs": [
        {
          "name": "success",
          "type": "bool"
        }
      ],
      "payable": false,
      "stateMutability": "nonpayable",
      "type": "function"
    },
    {
      "constant": false,
      "inputs": [
        {
          "name": "_nodeId",
          "type": "uint256"
        }
      ],
      "name": "removeToken",
      "outputs": [],
      "payable": false,
      "stateMutability": "nonpayable",
      "type": "function"
    },
    {
      "constant": false,
      "inputs": [
        {
          "name": "_to",
          "type": "address"
        },
        {
          "name": "_toId",
          "type": "uint256"
        }
      ],
      "name": "increaseLevel",
      "outputs": [],
      "payable": false,
      "stateMutability": "nonpayable",
      "type": "function"
    },
    {
      "constant": true,
      "inputs": [
        {
          "name": "",
          "type": "address"
        }
      ],
      "name": "addressToAmount",
      "outputs": [
        {
          "name": "",
          "type": "uint256"
        }
      ],
      "payable": false,
      "stateMutability": "view",
      "type": "function"
    },
    {
      "constant": false,
      "inputs": [],
      "name": "castPositiveSelected",
      "outputs": [],
      "payable": false,
      "stateMutability": "nonpayable",
      "type": "function"
    },
    {
      "constant": false,
      "inputs": [
        {
          "name": "_from",
          "type": "address"
        },
        {
          "name": "_fromId",
          "type": "uint256"
        },
        {
          "name": "_amount",
          "type": "uint256"
        }
      ],
      "name": "cDestroy",
      "outputs": [],
      "payable": false,
      "stateMutability": "nonpayable",
      "type": "function"
    },
    {
      "constant": true,
      "inputs": [],
      "name": "paybackRatio",
      "outputs": [
        {
          "name": "",
          "type": "uint8"
        }
      ],
      "payable": false,
      "stateMutability": "view",
      "type": "function"
    },
    {
      "constant": false,
      "inputs": [],
      "name": "activateCurrent",
      "outputs": [],
      "payable": false,
      "stateMutability": "nonpayable",
      "type": "function"
    },
    {
      "constant": true,
      "inputs": [],
      "name": "getApplication",
      "outputs": [
        {
          "name": "member",
          "type": "address"
        },
        {
          "name": "appId",
          "type": "uint256"
        }
      ],
      "payable": false,
      "stateMutability": "view",
      "type": "function"
    },
    {
      "constant": true,
      "inputs": [],
      "name": "ETHOnly",
      "outputs": [
        {
          "name": "",
          "type": "bool"
        }
      ],
      "payable": false,
      "stateMutability": "view",
      "type": "function"
    },
    {
      "constant": false,
      "inputs": [
        {
          "name": "_to",
          "type": "address"
        },
        {
          "name": "_toId",
          "type": "uint256"
        },
        {
          "name": "_amount",
          "type": "uint256"
        }
      ],
      "name": "cIssue",
      "outputs": [],
      "payable": false,
      "stateMutability": "nonpayable",
      "type": "function"
    },
    {
      "constant": true,
      "inputs": [],
      "name": "getCurrentTokenId",
      "outputs": [
        {
          "name": "currentId",
          "type": "uint256"
        }
      ],
      "payable": false,
      "stateMutability": "view",
      "type": "function"
    },
    {
      "constant": false,
      "inputs": [],
      "name": "claimCurrent",
      "outputs": [
        {
          "name": "",
          "type": "bool"
        }
      ],
      "payable": false,
      "stateMutability": "nonpayable",
      "type": "function"
    },
    {
      "constant": true,
      "inputs": [
        {
          "name": "_tokenId",
          "type": "uint256"
        }
      ],
      "name": "ownerOf",
      "outputs": [
        {
          "name": "",
          "type": "address"
        }
      ],
      "payable": false,
      "stateMutability": "view",
      "type": "function"
    },
    {
      "constant": false,
      "inputs": [
        {
          "name": "_to",
          "type": "address"
        },
        {
          "name": "_value",
          "type": "uint256"
        }
      ],
      "name": "cTransfer",
      "outputs": [
        {
          "name": "success",
          "type": "bool"
        }
      ],
      "payable": false,
      "stateMutability": "nonpayable",
      "type": "function"
    },
    {
      "constant": true,
      "inputs": [
        {
          "name": "_tokenId",
          "type": "uint256"
        }
      ],
      "name": "tokenMetadata",
      "outputs": [
        {
          "name": "infoUrl",
          "type": "string"
        }
      ],
      "payable": false,
      "stateMutability": "view",
      "type": "function"
    },
    {
      "constant": true,
      "inputs": [
        {
          "name": "_owner",
          "type": "address"
        }
      ],
      "name": "balanceOf",
      "outputs": [
        {
          "name": "count",
          "type": "uint256"
        }
      ],
      "payable": false,
      "stateMutability": "view",
      "type": "function"
    },
    {
      "constant": false,
      "inputs": [],
      "name": "acceptOwnership",
      "outputs": [],
      "payable": false,
      "stateMutability": "nonpayable",
      "type": "function"
    },
    {
      "constant": true,
      "inputs": [
        {
          "name": "",
          "type": "uint256"
        }
      ],
      "name": "requests",
      "outputs": [
        {
          "name": "amount",
          "type": "uint256"
        },
        {
          "name": "timeStamp",
          "type": "uint256"
        },
        {
          "name": "duration",
          "type": "uint256"
        },
        {
          "name": "positive",
          "type": "uint8"
        },
        {
          "name": "negative",
          "type": "uint8"
        },
        {
          "name": "number",
          "type": "uint8"
        }
      ],
      "payable": false,
      "stateMutability": "view",
      "type": "function"
    },
    {
      "constant": true,
      "inputs": [
        {
          "name": "_owner",
          "type": "address"
        }
      ],
      "name": "tokensOfOwner",
      "outputs": [
        {
          "name": "ownerTokens",
          "type": "uint256[]"
        }
      ],
      "payable": false,
      "stateMutability": "view",
      "type": "function"
    },
    {
      "constant": true,
      "inputs": [],
      "name": "parameters",
      "outputs": [
        {
          "name": "joinAmount",
          "type": "uint256"
        },
        {
          "name": "coverageDuration",
          "type": "uint256"
        },
        {
          "name": "maxClaimAmount",
          "type": "uint256"
        },
        {
          "name": "maxClaimNumber",
          "type": "uint8"
        },
        {
          "name": "paymentRatio",
          "type": "uint8"
        },
        {
          "name": "maxPaymentAmount",
          "type": "uint256"
        },
        {
          "name": "minJuriesNumber",
          "type": "uint8"
        },
        {
          "name": "votingDuration",
          "type": "uint256"
        },
        {
          "name": "juriesNumber",
          "type": "uint8"
        },
        {
          "name": "maxApplications",
          "type": "uint256"
        },
        {
          "name": "averageScore",
          "type": "uint256"
        },
        {
          "name": "defaultClaimAmount",
          "type": "uint256"
        }
      ],
      "payable": false,
      "stateMutability": "view",
      "type": "function"
    },
    {
      "constant": false,
      "inputs": [],
      "name": "transferCommission",
      "outputs": [],
      "payable": false,
      "stateMutability": "nonpayable",
      "type": "function"
    },
    {
      "constant": false,
      "inputs": [
        {
          "name": "_id",
          "type": "uint256"
        }
      ],
      "name": "payment",
      "outputs": [],
      "payable": false,
      "stateMutability": "nonpayable",
      "type": "function"
    },
    {
      "constant": true,
      "inputs": [],
      "name": "owner",
      "outputs": [
        {
          "name": "",
          "type": "address"
        }
      ],
      "payable": false,
      "stateMutability": "view",
      "type": "function"
    },
    {
      "constant": true,
      "inputs": [],
      "name": "cTotalSupply",
      "outputs": [
        {
          "name": "",
          "type": "uint256"
        }
      ],
      "payable": false,
      "stateMutability": "view",
      "type": "function"
    },
    {
      "constant": false,
      "inputs": [
        {
          "name": "_id",
          "type": "uint256"
        }
      ],
      "name": "getPayback",
      "outputs": [],
      "payable": false,
      "stateMutability": "nonpayable",
      "type": "function"
    },
    {
      "constant": true,
      "inputs": [],
      "name": "symbol",
      "outputs": [
        {
          "name": "",
          "type": "string"
        }
      ],
      "payable": false,
      "stateMutability": "view",
      "type": "function"
    },
    {
      "constant": true,
      "inputs": [],
      "name": "getAllowance",
      "outputs": [
        {
          "name": "allowance",
          "type": "uint256"
        }
      ],
      "payable": false,
      "stateMutability": "view",
      "type": "function"
    },
    {
      "constant": false,
      "inputs": [
        {
          "name": "_fromId",
          "type": "uint256"
        },
        {
          "name": "_spender",
          "type": "address"
        },
        {
          "name": "_toId",
          "type": "uint256"
        },
        {
          "name": "_value",
          "type": "uint256"
        }
      ],
      "name": "cApproveFrom",
      "outputs": [
        {
          "name": "success",
          "type": "bool"
        }
      ],
      "payable": false,
      "stateMutability": "nonpayable",
      "type": "function"
    },
    {
      "constant": true,
      "inputs": [],
      "name": "maxHold",
      "outputs": [
        {
          "name": "",
          "type": "uint8"
        }
      ],
      "payable": false,
      "stateMutability": "view",
      "type": "function"
    },
    {
      "constant": true,
      "inputs": [
        {
          "name": "",
          "type": "uint256"
        }
      ],
      "name": "tokenIndexToPoolToken",
      "outputs": [
        {
          "name": "",
          "type": "uint256"
        }
      ],
      "payable": false,
      "stateMutability": "view",
      "type": "function"
    },
    {
      "constant": true,
      "inputs": [],
      "name": "getJoinAmount",
      "outputs": [
        {
          "name": "amount",
          "type": "uint256"
        }
      ],
      "payable": false,
      "stateMutability": "view",
      "type": "function"
    },
    {
      "constant": false,
      "inputs": [],
      "name": "fssf",
      "outputs": [],
      "payable": false,
      "stateMutability": "nonpayable",
      "type": "function"
    },
    {
      "constant": true,
      "inputs": [],
      "name": "getCurrentStatus",
      "outputs": [
        {
          "name": "status",
          "type": "uint8"
        }
      ],
      "payable": false,
      "stateMutability": "view",
      "type": "function"
    },
    {
      "constant": true,
      "inputs": [
        {
          "name": "",
          "type": "address"
        }
      ],
      "name": "voters",
      "outputs": [
        {
          "name": "",
          "type": "uint256"
        }
      ],
      "payable": false,
      "stateMutability": "view",
      "type": "function"
    },
    {
      "constant": true,
      "inputs": [
        {
          "name": "",
          "type": "uint256"
        }
      ],
      "name": "payback",
      "outputs": [
        {
          "name": "",
          "type": "uint256"
        }
      ],
      "payable": false,
      "stateMutability": "view",
      "type": "function"
    },
    {
      "constant": true,
      "inputs": [
        {
          "name": "",
          "type": "uint256"
        }
      ],
      "name": "claims",
      "outputs": [
        {
          "name": "",
          "type": "uint256"
        }
      ],
      "payable": false,
      "stateMutability": "view",
      "type": "function"
    },
    {
      "constant": true,
      "inputs": [
        {
          "name": "",
          "type": "uint256"
        }
      ],
      "name": "tokenIndexToApproved",
      "outputs": [
        {
          "name": "",
          "type": "address"
        }
      ],
      "payable": false,
      "stateMutability": "view",
      "type": "function"
    },
    {
      "constant": false,
      "inputs": [
        {
          "name": "_to",
          "type": "address"
        },
        {
          "name": "_tokenId",
          "type": "uint256"
        }
      ],
      "name": "transfer",
      "outputs": [],
      "payable": false,
      "stateMutability": "nonpayable",
      "type": "function"
    },
    {
      "constant": true,
      "inputs": [],
      "name": "getScore",
      "outputs": [
        {
          "name": "score",
          "type": "uint256"
        }
      ],
      "payable": false,
      "stateMutability": "view",
      "type": "function"
    },
    {
      "constant": true,
      "inputs": [
        {
          "name": "_to",
          "type": "address"
        },
        {
          "name": "_toId",
          "type": "uint256"
        }
      ],
      "name": "getLevel",
      "outputs": [
        {
          "name": "",
          "type": "uint256"
        }
      ],
      "payable": false,
      "stateMutability": "view",
      "type": "function"
    },
    {
      "constant": false,
      "inputs": [
        {
          "name": "_id",
          "type": "uint256"
        },
        {
          "name": "_amount",
          "type": "uint256"
        }
      ],
      "name": "setPayback",
      "outputs": [
        {
          "name": "",
          "type": "bool"
        }
      ],
      "payable": false,
      "stateMutability": "nonpayable",
      "type": "function"
    },
    {
      "constant": true,
      "inputs": [
        {
          "name": "_owner",
          "type": "address"
        }
      ],
      "name": "cBalanceOf",
      "outputs": [
        {
          "name": "",
          "type": "uint256"
        }
      ],
      "payable": false,
      "stateMutability": "view",
      "type": "function"
    },
    {
      "constant": false,
      "inputs": [
        {
          "name": "_id",
          "type": "uint256"
        }
      ],
      "name": "activate",
      "outputs": [],
      "payable": false,
      "stateMutability": "nonpayable",
      "type": "function"
    },
    {
      "constant": false,
      "inputs": [],
      "name": "join",
      "outputs": [
        {
          "name": "cowdsuranceId",
          "type": "uint256"
        }
      ],
      "payable": true,
      "stateMutability": "payable",
      "type": "function"
    },
    {
      "constant": true,
      "inputs": [],
      "name": "rstETHRate",
      "outputs": [
        {
          "name": "",
          "type": "uint256"
        }
      ],
      "payable": false,
      "stateMutability": "view",
      "type": "function"
    },
    {
      "constant": true,
      "inputs": [
        {
          "name": "",
          "type": "address"
        }
      ],
      "name": "addressToApplication",
      "outputs": [
        {
          "name": "",
          "type": "uint256"
        }
      ],
      "payable": false,
      "stateMutability": "view",
      "type": "function"
    },
    {
      "constant": false,
      "inputs": [
        {
          "name": "_from",
          "type": "address"
        },
        {
          "name": "_to",
          "type": "address"
        },
        {
          "name": "_value",
          "type": "uint256"
        }
      ],
      "name": "cTransferFrom",
      "outputs": [
        {
          "name": "success",
          "type": "bool"
        }
      ],
      "payable": false,
      "stateMutability": "nonpayable",
      "type": "function"
    },
    {
      "constant": true,
      "inputs": [
        {
          "name": "_member",
          "type": "address"
        },
        {
          "name": "_status",
          "type": "uint8"
        }
      ],
      "name": "statusCount",
      "outputs": [
        {
          "name": "count",
          "type": "uint256"
        }
      ],
      "payable": false,
      "stateMutability": "view",
      "type": "function"
    },
    {
      "constant": false,
      "inputs": [
        {
          "name": "_id",
          "type": "uint256"
        },
        {
          "name": "_claim",
          "type": "uint256"
        }
      ],
      "name": "claim",
      "outputs": [
        {
          "name": "",
          "type": "bool"
        }
      ],
      "payable": false,
      "stateMutability": "nonpayable",
      "type": "function"
    },
    {
      "constant": true,
      "inputs": [
        {
          "name": "",
          "type": "address"
        }
      ],
      "name": "addressToScore",
      "outputs": [
        {
          "name": "",
          "type": "uint256"
        }
      ],
      "payable": false,
      "stateMutability": "view",
      "type": "function"
    },
    {
      "constant": false,
      "inputs": [
        {
          "name": "_id",
          "type": "uint256"
        },
        {
          "name": "_positive",
          "type": "bool"
        }
      ],
      "name": "vote",
      "outputs": [],
      "payable": false,
      "stateMutability": "nonpayable",
      "type": "function"
    },
    {
      "constant": true,
      "inputs": [
        {
          "name": "_tokenId",
          "type": "uint256"
        }
      ],
      "name": "valueOf",
      "outputs": [
        {
          "name": "value",
          "type": "uint256"
        }
      ],
      "payable": false,
      "stateMutability": "view",
      "type": "function"
    },
    {
      "constant": true,
      "inputs": [
        {
          "name": "",
          "type": "address"
        },
        {
          "name": "",
          "type": "address"
        }
      ],
      "name": "allowanceAmt",
      "outputs": [
        {
          "name": "",
          "type": "uint256"
        }
      ],
      "payable": false,
      "stateMutability": "view",
      "type": "function"
    },
    {
      "constant": true,
      "inputs": [],
      "name": "maxLevel",
      "outputs": [
        {
          "name": "",
          "type": "uint256"
        }
      ],
      "payable": false,
      "stateMutability": "view",
      "type": "function"
    },
    {
      "constant": false,
      "inputs": [
        {
          "name": "_member",
          "type": "address"
        },
        {
          "name": "_score",
          "type": "uint256"
        },
        {
          "name": "_amount",
          "type": "uint256"
        }
      ],
      "name": "scoring",
      "outputs": [],
      "payable": false,
      "stateMutability": "nonpayable",
      "type": "function"
    },
    {
      "constant": true,
      "inputs": [],
      "name": "joinAmountRST",
      "outputs": [
        {
          "name": "",
          "type": "uint256"
        }
      ],
      "payable": false,
      "stateMutability": "view",
      "type": "function"
    },
    {
      "constant": true,
      "inputs": [],
      "name": "newOwner",
      "outputs": [
        {
          "name": "",
          "type": "address"
        }
      ],
      "payable": false,
      "stateMutability": "view",
      "type": "function"
    },
    {
      "constant": false,
      "inputs": [],
      "name": "apply",
      "outputs": [
        {
          "name": "addId",
          "type": "uint256"
        }
      ],
      "payable": false,
      "stateMutability": "nonpayable",
      "type": "function"
    },
    {
      "constant": true,
      "inputs": [
        {
          "name": "",
          "type": "uint256"
        }
      ],
      "name": "extensions",
      "outputs": [
        {
          "name": "timeStamp",
          "type": "uint256"
        },
        {
          "name": "activated",
          "type": "uint256"
        },
        {
          "name": "duration",
          "type": "uint256"
        },
        {
          "name": "amount",
          "type": "uint256"
        },
        {
          "name": "paid",
          "type": "uint256"
        },
        {
          "name": "score",
          "type": "uint256"
        },
        {
          "name": "claimNumber",
          "type": "uint8"
        },
        {
          "name": "status",
          "type": "uint8"
        }
      ],
      "payable": false,
      "stateMutability": "view",
      "type": "function"
    },
    {
      "constant": true,
      "inputs": [],
      "name": "getNumberOfClaims",
      "outputs": [
        {
          "name": "",
          "type": "uint256"
        }
      ],
      "payable": false,
      "stateMutability": "view",
      "type": "function"
    },
    {
      "constant": true,
      "inputs": [
        {
          "name": "",
          "type": "address"
        },
        {
          "name": "",
          "type": "address"
        }
      ],
      "name": "allowance",
      "outputs": [
        {
          "name": "",
          "type": "uint256"
        }
      ],
      "payable": false,
      "stateMutability": "view",
      "type": "function"
    },
    {
      "constant": true,
      "inputs": [],
      "name": "getComission",
      "outputs": [
        {
          "name": "commission",
          "type": "uint256"
        }
      ],
      "payable": false,
      "stateMutability": "view",
      "type": "function"
    },
    {
      "constant": false,
      "inputs": [
        {
          "name": "_id",
          "type": "uint256"
        }
      ],
      "name": "castPositive",
      "outputs": [],
      "payable": false,
      "stateMutability": "nonpayable",
      "type": "function"
    },
    {
      "constant": true,
      "inputs": [],
      "name": "appNumber",
      "outputs": [
        {
          "name": "",
          "type": "uint256"
        }
      ],
      "payable": false,
      "stateMutability": "view",
      "type": "function"
    },
    {
      "constant": true,
      "inputs": [
        {
          "name": "",
          "type": "uint256"
        }
      ],
      "name": "applications",
      "outputs": [
        {
          "name": "timeStamp",
          "type": "uint256"
        },
        {
          "name": "member",
          "type": "address"
        },
        {
          "name": "tokensToBuy",
          "type": "uint8"
        },
        {
          "name": "paymetMethod",
          "type": "uint8"
        },
        {
          "name": "processed",
          "type": "bool"
        }
      ],
      "payable": false,
      "stateMutability": "view",
      "type": "function"
    },
    {
      "constant": true,
      "inputs": [
        {
          "name": "_nodeId",
          "type": "uint256"
        }
      ],
      "name": "getPath",
      "outputs": [
        {
          "name": "path",
          "type": "uint256[]"
        }
      ],
      "payable": false,
      "stateMutability": "view",
      "type": "function"
    },
    {
      "constant": true,
      "inputs": [
        {
          "name": "",
          "type": "address"
        },
        {
          "name": "",
          "type": "address"
        }
      ],
      "name": "allowanceIds",
      "outputs": [
        {
          "name": "",
          "type": "uint256"
        }
      ],
      "payable": false,
      "stateMutability": "view",
      "type": "function"
    },
    {
      "constant": false,
      "inputs": [
        {
          "name": "_newOwner",
          "type": "address"
        }
      ],
      "name": "transferOwnership",
      "outputs": [],
      "payable": false,
      "stateMutability": "nonpayable",
      "type": "function"
    },
    {
      "constant": false,
      "inputs": [
        {
          "name": "_jury",
          "type": "address"
        }
      ],
      "name": "addVoter",
      "outputs": [],
      "payable": false,
      "stateMutability": "nonpayable",
      "type": "function"
    },
    {
      "constant": true,
      "inputs": [
        {
          "name": "_owner",
          "type": "address"
        },
        {
          "name": "_spender",
          "type": "address"
        }
      ],
      "name": "cAllowance",
      "outputs": [
        {
          "name": "",
          "type": "uint256"
        }
      ],
      "payable": false,
      "stateMutability": "view",
      "type": "function"
    },
    {
      "inputs": [
        {
          "name": "_rst",
          "type": "address"
        },
        {
          "name": "_amount",
          "type": "uint256"
        },
        {
          "name": "_only",
          "type": "bool"
        },
        {
          "name": "_max",
          "type": "uint8"
        }
      ],
      "payable": false,
      "stateMutability": "nonpayable",
      "type": "constructor"
    },
    {
      "payable": true,
      "stateMutability": "payable",
      "type": "fallback"
    },
    {
      "anonymous": false,
      "inputs": [
        {
          "indexed": false,
          "name": "member",
          "type": "address"
        },
        {
          "indexed": false,
          "name": "appId",
          "type": "uint256"
        }
      ],
      "name": "Apply",
      "type": "event"
    },
    {
      "anonymous": false,
      "inputs": [
        {
          "indexed": false,
          "name": "member",
          "type": "address"
        },
        {
          "indexed": false,
          "name": "id",
          "type": "uint256"
        },
        {
          "indexed": false,
          "name": "amount",
          "type": "uint256"
        }
      ],
      "name": "Join",
      "type": "event"
    },
    {
      "anonymous": false,
      "inputs": [
        {
          "indexed": false,
          "name": "member",
          "type": "address"
        },
        {
          "indexed": false,
          "name": "score",
          "type": "uint256"
        },
        {
          "indexed": false,
          "name": "amount",
          "type": "uint256"
        }
      ],
      "name": "Scoring",
      "type": "event"
    },
    {
      "anonymous": false,
      "inputs": [
        {
          "indexed": false,
          "name": "id",
          "type": "uint256"
        },
        {
          "indexed": false,
          "name": "amount",
          "type": "uint256"
        },
        {
          "indexed": false,
          "name": "score",
          "type": "uint256"
        }
      ],
      "name": "Activate",
      "type": "event"
    },
    {
      "anonymous": false,
      "inputs": [
        {
          "indexed": false,
          "name": "id",
          "type": "uint256"
        },
        {
          "indexed": false,
          "name": "claim",
          "type": "uint256"
        },
        {
          "indexed": false,
          "name": "number",
          "type": "uint8"
        }
      ],
      "name": "Claim",
      "type": "event"
    },
    {
      "anonymous": false,
      "inputs": [
        {
          "indexed": false,
          "name": "jury",
          "type": "address"
        },
        {
          "indexed": false,
          "name": "id",
          "type": "uint256"
        },
        {
          "indexed": false,
          "name": "positive",
          "type": "bool"
        }
      ],
      "name": "Vote",
      "type": "event"
    },
    {
      "anonymous": false,
      "inputs": [
        {
          "indexed": false,
          "name": "reciever",
          "type": "address"
        },
        {
          "indexed": false,
          "name": "id",
          "type": "uint256"
        },
        {
          "indexed": false,
          "name": "amount",
          "type": "uint256"
        },
        {
          "indexed": false,
          "name": "status",
          "type": "uint8"
        }
      ],
      "name": "Payment",
      "type": "event"
    },
    {
      "anonymous": false,
      "inputs": [
        {
          "indexed": false,
          "name": "member",
          "type": "address"
        },
        {
          "indexed": false,
          "name": "appId",
          "type": "uint256"
        }
      ],
      "name": "FSSF",
      "type": "event"
    },
    {
      "anonymous": false,
      "inputs": [
        {
          "indexed": false,
          "name": "id",
          "type": "uint256"
        },
        {
          "indexed": false,
          "name": "poolId",
          "type": "uint256"
        },
        {
          "indexed": false,
          "name": "level",
          "type": "uint8"
        }
      ],
      "name": "InsertPool",
      "type": "event"
    },
    {
      "anonymous": false,
      "inputs": [
        {
          "indexed": false,
          "name": "id",
          "type": "uint256"
        },
        {
          "indexed": false,
          "name": "superPoolValue",
          "type": "uint256"
        },
        {
          "indexed": false,
          "name": "poolValue",
          "type": "uint256"
        },
        {
          "indexed": false,
          "name": "subPoolValue",
          "type": "uint256"
        },
        {
          "indexed": false,
          "name": "comission",
          "type": "uint256"
        }
      ],
      "name": "DistributeValue",
      "type": "event"
    },
    {
      "anonymous": false,
      "inputs": [
        {
          "indexed": false,
          "name": "id",
          "type": "uint256"
        },
        {
          "indexed": false,
          "name": "value",
          "type": "uint256"
        }
      ],
      "name": "SecondTierCall",
      "type": "event"
    },
    {
      "anonymous": false,
      "inputs": [
        {
          "indexed": false,
          "name": "id",
          "type": "uint256"
        },
        {
          "indexed": false,
          "name": "poolId",
          "type": "uint256"
        },
        {
          "indexed": false,
          "name": "value",
          "type": "uint256"
        },
        {
          "indexed": false,
          "name": "level",
          "type": "uint8"
        }
      ],
      "name": "ShortOfFunds",
      "type": "event"
    },
    {
      "anonymous": false,
      "inputs": [
        {
          "indexed": false,
          "name": "id",
          "type": "uint256"
        },
        {
          "indexed": false,
          "name": "value",
          "type": "uint256"
        },
        {
          "indexed": false,
          "name": "level",
          "type": "uint8"
        }
      ],
      "name": "PaymentValue",
      "type": "event"
    },
    {
      "anonymous": false,
      "inputs": [
        {
          "indexed": false,
          "name": "nodeId",
          "type": "uint256"
        },
        {
          "indexed": false,
          "name": "parentId",
          "type": "uint256"
        },
        {
          "indexed": false,
          "name": "level",
          "type": "uint256"
        }
      ],
      "name": "AddToken",
      "type": "event"
    },
    {
      "anonymous": false,
      "inputs": [
        {
          "indexed": false,
          "name": "nodeId",
          "type": "uint256"
        },
        {
          "indexed": false,
          "name": "level",
          "type": "uint256"
        }
      ],
      "name": "RemoveToken",
      "type": "event"
    },
    {
      "anonymous": false,
      "inputs": [
        {
          "indexed": false,
          "name": "from",
          "type": "address"
        },
        {
          "indexed": false,
          "name": "fromId",
          "type": "uint256"
        },
        {
          "indexed": false,
          "name": "to",
          "type": "address"
        },
        {
          "indexed": false,
          "name": "toId",
          "type": "uint256"
        },
        {
          "indexed": false,
          "name": "value",
          "type": "uint256"
        }
      ],
      "name": "Transfer",
      "type": "event"
    },
    {
      "anonymous": false,
      "inputs": [
        {
          "indexed": false,
          "name": "to",
          "type": "address"
        },
        {
          "indexed": false,
          "name": "toId",
          "type": "uint256"
        },
        {
          "indexed": false,
          "name": "value",
          "type": "uint256"
        }
      ],
      "name": "AddValue",
      "type": "event"
    },
    {
      "anonymous": false,
      "inputs": [
        {
          "indexed": false,
          "name": "from",
          "type": "address"
        },
        {
          "indexed": false,
          "name": "fromId",
          "type": "uint256"
        },
        {
          "indexed": false,
          "name": "value",
          "type": "uint256"
        }
      ],
      "name": "RemoveValue",
      "type": "event"
    },
    {
      "anonymous": false,
      "inputs": [
        {
          "indexed": false,
          "name": "to",
          "type": "address"
        },
        {
          "indexed": false,
          "name": "toId",
          "type": "uint256"
        },
        {
          "indexed": false,
          "name": "level",
          "type": "uint256"
        }
      ],
      "name": "SetLevel",
      "type": "event"
    },
    {
      "anonymous": false,
      "inputs": [
        {
          "indexed": false,
          "name": "to",
          "type": "address"
        },
        {
          "indexed": false,
          "name": "toId",
          "type": "uint256"
        }
      ],
      "name": "IncreaseLevel",
      "type": "event"
    },
    {
      "anonymous": false,
      "inputs": [
        {
          "indexed": true,
          "name": "_prevOwner",
          "type": "address"
        },
        {
          "indexed": true,
          "name": "_newOwner",
          "type": "address"
        }
      ],
      "name": "OwnerUpdate",
      "type": "event"
    },
    {
      "anonymous": false,
      "inputs": [
        {
          "indexed": false,
          "name": "fromId",
          "type": "uint256"
        },
        {
          "indexed": false,
          "name": "spender",
          "type": "address"
        },
        {
          "indexed": false,
          "name": "toId",
          "type": "uint256"
        },
        {
          "indexed": false,
          "name": "value",
          "type": "uint256"
        }
      ],
      "name": "CApproveFrom",
      "type": "event"
    },
    {
      "anonymous": false,
      "inputs": [
        {
          "indexed": false,
          "name": "spender",
          "type": "address"
        },
        {
          "indexed": false,
          "name": "value",
          "type": "uint256"
        }
      ],
      "name": "CApprove",
      "type": "event"
    },
    {
      "anonymous": false,
      "inputs": [
        {
          "indexed": false,
          "name": "from",
          "type": "address"
        },
        {
          "indexed": false,
          "name": "fromId",
          "type": "uint256"
        },
        {
          "indexed": false,
          "name": "to",
          "type": "address"
        },
        {
          "indexed": false,
          "name": "toId",
          "type": "uint256"
        },
        {
          "indexed": false,
          "name": "value",
          "type": "uint256"
        },
        {
          "indexed": false,
          "name": "allowance",
          "type": "uint256"
        }
      ],
      "name": "CTransferFrom",
      "type": "event"
    },
    {
      "anonymous": false,
      "inputs": [
        {
          "indexed": false,
          "name": "to",
          "type": "address"
        },
        {
          "indexed": false,
          "name": "toId",
          "type": "uint256"
        },
        {
          "indexed": false,
          "name": "amount",
          "type": "uint256"
        }
      ],
      "name": "CIssue",
      "type": "event"
    },
    {
      "anonymous": false,
      "inputs": [
        {
          "indexed": false,
          "name": "from",
          "type": "address"
        },
        {
          "indexed": false,
          "name": "fromId",
          "type": "uint256"
        },
        {
          "indexed": false,
          "name": "amount",
          "type": "uint256"
        }
      ],
      "name": "CDestroy",
      "type": "event"
    },
    {
      "anonymous": false,
      "inputs": [
        {
          "indexed": false,
          "name": "from",
          "type": "address"
        },
        {
          "indexed": false,
          "name": "to",
          "type": "address"
        },
        {
          "indexed": false,
          "name": "tokenId",
          "type": "uint256"
        }
      ],
      "name": "Transfer",
      "type": "event"
    },
    {
      "anonymous": false,
      "inputs": [
        {
          "indexed": false,
          "name": "owner",
          "type": "address"
        },
        {
          "indexed": false,
          "name": "approved",
          "type": "address"
        },
        {
          "indexed": false,
          "name": "tokenId",
          "type": "uint256"
        }
      ],
      "name": "Approval",
      "type": "event"
    },
    {
      "anonymous": false,
      "inputs": [
        {
          "indexed": false,
          "name": "value",
          "type": "uint256"
        },
        {
          "indexed": false,
          "name": "metadata",
          "type": "string"
        },
        {
          "indexed": false,
          "name": "kind",
          "type": "uint256"
        },
        {
          "indexed": false,
          "name": "owner",
          "type": "address"
        }
      ],
      "name": "Birth",
      "type": "event"
    }
  ],
  "bytecode": "0x606060405234156200001057600080fd5b60405160808062006c728339810160405280805191906020018051919060200180519190602001805191506040905080519081016040908152601882527f4c7567676167652043726f7764737572616e6365204e4654000000000000000060208301528051908101604052600381527f4c435300000000000000000000000000000000000000000000000000000000006020820152818160008080620000b562000a21565b620000bf62000a21565b620000c962000a21565b60028054600160a060020a03191633600160a060020a03161790558787818181816000828051620000ff92916020019062000a5b565b5060018180516200011592916020019062000a5b565b5050600a8054600160a060020a03191633600160a060020a031617905550506004600c5550620001a29150678ac7230489e80000905060408051908101604052600981527f5375706572506f6f6c00000000000000000000000000000000000000000000006020820152600a54600190600160a060020a031664010000000062005a68620005d482021704565b955062000201600060408051908101604052600481527f506f6f6c000000000000000000000000000000000000000000000000000000006020820152600a54600190600160a060020a031664010000000062005a68620005d482021704565b945062000260600060408051908101604052600781527f537562506f6f6c000000000000000000000000000000000000000000000000006020820152600a54600290600160a060020a031664010000000062005a68620005d482021704565b93506200027c8587640100000000620017d1620007e582021704565b620002968486640100000000620017d1620007e582021704565b60c060405190810160405280600060ff16815260200160018152602001600a815260200160018152602001878152602001600a8152509250600e8054806001018281620002e4919062000ae0565b600092835260209092208591600602018151815460ff191660ff919091161781556020820151816001015560408201518160020155606082015181600301556080820151816004015560a0820151816005015550505060c060405190810160405280600160ff168152602001600a8152602001606481526020016001815260200186815260200160148152509150600e805480600101828162000388919062000ae0565b600092835260209092208491600602018151815460ff191660ff919091161781556020820151816001015560408201518160020155606082015181600301556080820151816004015560a0820151816005015550505060c060405190810160405280600260ff1681526020016103e88152602001606481526020016001815260200185815260200160328152509050600e80548060010182816200042d919062000ae0565b600092835260209092208391600602018151815460ff191660ff919091161781556020820151816001015560408201518160020155606082015181600301556080820151816004015560a082015181600501555050506000600360008154811015156200049657fe5b6000918252602082206005918202019290925562f099c060105560128054600160ff199182161761ff00191661500017909155678ac7230489e800006013556014805460039083161790556202a30060155560168054909116909217909155600a6017556064601855670de0b6b3a76400006019556021819055602355505060248054600160a060020a031916600160a060020a038e161790555050664380663abb8000600f555050673782dace9d9000006011555050508315159050620005675764012a05f2006025556200056d565b60258390555b60ff811615156200058d576026805461ff001916610500179055620005a2565b6026805461ff00191661010060ff8416021790555b506026805491151560ff199283161790556701aa535d3d0c00006027556028805490911660501790555062000c7f9050565b6000620005e062000b14565b600060a060405190810160405280888152602001878152602001868152602001600081526020016000815250915060016003805480600101828162000626919062000b4c565b60009283526020909220859160050201815181556020820151816001019080516200065692916020019062000a5b565b506040820151816002015560608201518160030155608082015160049091015550039050801515620006ef576001600380548060010182816200069a919062000b4c565b6000928352602090922085916005020181518155602082015181600101908051620006ca92916020019062000a5b565b5060408201518160020155606082015181600301556080820151816004015550500390505b63ffffffff811681146200070257600080fd5b7fdea8e87d69047e1b3cd43ad599d34e3eacfe4408b4dfc5d0f6ac6a15a468de5c8787878760405184815260408101839052600160a060020a038216606082015260806020820181815290820185818151815260200191508051906020019080838360005b838110156200078157808201518382015260200162000767565b50505050905090810190601f168015620007af5780820380516001836020036101000a031916815260200191505b509550505050505060405180910390a1620007db60008583640100000000620049a26200091a82021704565b9695505050505050565b8115801590620007f6575060035482105b15156200080257600080fd5b801580159062000813575060035481105b15156200081f57600080fd5b6001600c54036003828154811015156200083557fe5b9060005260206000209060050201600301541015156200085457600080fd5b6000828152600d6020526040902081905560038054829081106200087457fe5b9060005260206000209060050201600301546001016003838154811015156200089957fe5b9060005260206000209060050201600301819055507f0900f87897aa374bb21fa36753905fa2944dd2301242246101a9047a0ed227a08282600385815481101515620008e157fe5b90600052602060002090600502016003015460405180848152602001838152602001828152602001935050505060405180910390a15050565b6104006003828154811015156200092d57fe5b906000526020600020906005020160040154141515156200094a57fe5b600160a060020a03808316600081815260056020908152604080832080546001019055858352600490915290208054600160a060020a0319169091179055831615620009cc57600160a060020a03831660009081526005602090815260408083208054600019019055838352600690915290208054600160a060020a03191690555b7fddf252ad1be2c89b69c2b068fc378daa952ba7f163c4a11628f55a4df523b3ef838383604051600160a060020a039384168152919092166020820152604080820192909252606001905180910390a1505050565b60c060405190810160405280600060ff16815260200160008152602001600081526020016000815260200160008152602001600081525090565b828054600181600116156101000203166002900490600052602060002090601f016020900481019282601f1062000a9e57805160ff191683800117855562000ace565b8280016001018555821562000ace579182015b8281111562000ace57825182559160200191906001019062000ab1565b5062000adc92915062000b7b565b5090565b81548183558181151162000b0f5760060281600602836000526020600020918201910162000b0f919062000b9b565b505050565b60a0604051908101604052806000815260200162000b3162000bdf565b81526020016000815260200160008152602001600081525090565b81548183558181151162000b0f5760050281600502836000526020600020918201910162000b0f919062000bf1565b62000b9891905b8082111562000adc576000815560010162000b82565b90565b62000b9891905b8082111562000adc57805460ff19168155600060018201819055600282018190556003820181905560048201819055600582015560060162000ba2565b60206040519081016040526000815290565b62000b9891905b8082111562000adc57600080825562000c15600183018262000c34565b5060006002820181905560038201819055600482015560050162000bf8565b50805460018160011615610100020316600290046000825580601f1062000c5c575062000c7c565b601f01602090049060005260206000209081019062000c7c919062000b7b565b50565b615fe38062000c8f6000396000f3006060604052600436106104115763ffffffff7c01000000000000000000000000000000000000000000000000000000006000350416620f987f8114610413578062607b7f1461043c57806301ffc9a71461046657806306fdde031461049e578063095ea7b3146105285780630c04ad111461054a5780630dbf0021146105605780630e13dd741461059857806317b9ebec146105fa57806318160ddd1461061357806319aa7625146106385780631aff05961461064b5780631c41931c1461065e5780631cced51b146106ac5780631d36e06c146106f75780631de565d61461072957806323b872dd1461073c57806329625005146107645780632dcfcd5f1461078957806332c4ee831461079c57806336c5d724146107be57806339e6cdb1146107d45780633c7e7d28146107f65780633c8deaca146108155780634cabcfac146108285780634dc621fa1461084d5780634fa4bd01146108605780634fe89efe1461087357806352372777146108a8578063545c3d55146108bb57806356189236146108e0578063604919ea146108f35780636352211e1461090657806366d80ba51461091c5780636914db601461093e57806370a082311461095457806379ba50971461097357806381d12c58146109865780638462151c146109d95780638903573014610a4b57806389d0cd0614610acb5780638b3c99e314610ade5780638da5cb5b14610af45780638f1fc77c14610b07578063930f34fd14610b1a57806395d89b4114610b30578063973e9b8b14610b4357806398dc5c9514610b565780639a6c614e14610b7e5780639ca0883114610b915780639d26d1ca14610ba7578063a01177cd14610bba578063a3dd261914610bcd578063a3ec138d14610be0578063a846c2fd14610bff578063a888c2cd14610c15578063a8bd9c3214610c2b578063a9059cbb14610c41578063afd8206714610c63578063b121f2ac14610c76578063b129273f14610c98578063b135707914610cb1578063b260c42a14610cd0578063b688a36314610ce6578063bc89b1cf14610cee578063be1d68ad14610d01578063bf62266514610d20578063c0521d7614610d48578063c349026314610d6d578063c52380e914610d86578063c9d27afe14610da5578063cadf338f14610dc0578063cbbc9f8914610dd6578063cc06c35914610dfb578063cf7c436714610e0e578063d0d8074a14610e33578063d4ee1d9014610e46578063db595b3b14610e59578063db85d59c14610e6c578063dd52c33814610ece578063dd62ed3e14610ee1578063dd6d3ca714610f06578063ddf3ecc714610f19578063deb8386a14610f2f578063dfefadff14610f42578063e176507314610f98578063e527cc9d14610fae578063f2fde38b14610fd3578063f4ab9adf14610ff2578063f81fd7ea14611011575b005b341561041e57600080fd5b610426611036565b60405160ff909116815260200160405180910390f35b341561044757600080fd5b6104526004356110ff565b604051901515815260200160405180910390f35b341561047157600080fd5b6104527fffffffff0000000000000000000000000000000000000000000000000000000060043516611161565b34156104a957600080fd5b6104b161143a565b60405160208082528190810183818151815260200191508051906020019080838360005b838110156104ed5780820151838201526020016104d5565b50505050905090810190601f16801561051a5780820380516001836020036101000a031916815260200191505b509250505060405180910390f35b341561053357600080fd5b610411600160a060020a03600435166024356114e3565b341561055557600080fd5b610411600435611556565b341561056b57600080fd5b610573611564565b604051600160a060020a03909216825260ff1660208201526040908101905180910390f35b34156105a357600080fd5b6105ae6004356116ec565b604051808660028111156105be57fe5b60ff1681526020018560ff1660ff1681526020018460ff1660ff1681526020018381526020018281526020019550505050505060405180910390f35b341561060557600080fd5b6104116004356024356117d1565b341561061e57600080fd5b6106266118fd565b60405190815260200160405180910390f35b341561064357600080fd5b610411611918565b341561065657600080fd5b61062661192a565b341561066957600080fd5b610677600435602435611946565b60405160ff909516855260208501939093526040808501929092526060840152608083019190915260a0909101905180910390f35b34156106b757600080fd5b6106bf611c04565b6040518082608080838360005b838110156106e45780820151838201526020016106cc565b5050505090500191505060405180910390f35b341561070257600080fd5b61070d600435611ce7565b604051600160a060020a03909116815260200160405180910390f35b341561073457600080fd5b61070d611d02565b341561074757600080fd5b610411600160a060020a0360043581169060243516604435611d11565b341561076f57600080fd5b610411600160a060020a0360043516602435604435611d81565b341561079457600080fd5b610411611e31565b34156107a757600080fd5b610452600160a060020a0360043516602435611e53565b34156107c957600080fd5b610411600435611f53565b34156107df57600080fd5b610411600160a060020a0360043516602435611ff4565b341561080157600080fd5b610626600160a060020a03600435166120b0565b341561082057600080fd5b6104116120c2565b341561083357600080fd5b610411600160a060020a03600435166024356044356120e6565b341561085857600080fd5b610426612194565b341561086b57600080fd5b61041161219d565b341561087e57600080fd5b6108866121ad565b604051600160a060020a03909216825260208201526040908101905180910390f35b34156108b357600080fd5b610452612245565b34156108c657600080fd5b610411600160a060020a036004351660243560443561224e565b34156108eb57600080fd5b6106266122fc565b34156108fe57600080fd5b61045261232c565b341561091157600080fd5b61070d600435612341565b341561092757600080fd5b610452600160a060020a0360043516602435612365565b341561094957600080fd5b6104b160043561239e565b341561095f57600080fd5b610626600160a060020a0360043516612465565b341561097e57600080fd5b610411612480565b341561099157600080fd5b61099c60043561250e565b604051958652602086019490945260408086019390935260ff91821660608601528116608085015290911660a083015260c0909101905180910390f35b34156109e457600080fd5b6109f8600160a060020a036004351661254b565b60405160208082528190810183818151815260200191508051906020019060200280838360005b83811015610a37578082015183820152602001610a1f565b505050509050019250505060405180910390f35b3415610a5657600080fd5b610a5e61255c565b6040519b8c5260208c019a909a526040808c019990995260ff97881660608c015295871660808b015260a08a019490945291851660c089015260e0880152909216610100860152610120850191909152610140840152610160830191909152610180909101905180910390f35b3415610ad657600080fd5b610411612597565b3415610ae957600080fd5b610411600435612634565b3415610aff57600080fd5b61070d612a24565b3415610b1257600080fd5b610626612a33565b3415610b2557600080fd5b610411600435612a7a565b3415610b3b57600080fd5b6104b1612b21565b3415610b4e57600080fd5b610626612b94565b3415610b6157600080fd5b610452600435600160a060020a0360243516604435606435612c2f565b3415610b8957600080fd5b610426612d2a565b3415610b9c57600080fd5b610626600435612d38565b3415610bb257600080fd5b610626612d4a565b3415610bc557600080fd5b610411612d66565b3415610bd857600080fd5b610426612e05565b3415610beb57600080fd5b610626600160a060020a0360043516612e34565b3415610c0a57600080fd5b610626600435612e46565b3415610c2057600080fd5b610626600435612e58565b3415610c3657600080fd5b61070d600435612e77565b3415610c4c57600080fd5b610411600160a060020a0360043516602435612e92565b3415610c6e57600080fd5b610626612ee8565b3415610c8157600080fd5b610626600160a060020a0360043516602435612f04565b3415610ca357600080fd5b610452600435602435612f43565b3415610cbc57600080fd5b610626600160a060020a0360043516612fec565b3415610cdb57600080fd5b610411600435613065565b610626613090565b3415610cf957600080fd5b610626613395565b3415610d0c57600080fd5b610626600160a060020a036004351661339b565b3415610d2b57600080fd5b610452600160a060020a03600435811690602435166044356133ad565b3415610d5357600080fd5b610626600160a060020a036004351660ff60243516613584565b3415610d7857600080fd5b610452600435602435613604565b3415610d9157600080fd5b610626600160a060020a03600435166138a3565b3415610db057600080fd5b61041160043560243515156138b5565b3415610dcb57600080fd5b6106266004356139fe565b3415610de157600080fd5b610626600160a060020a0360043581169060243516613a28565b3415610e0657600080fd5b610626613a45565b3415610e1957600080fd5b610411600160a060020a0360043516602435604435613a4b565b3415610e3e57600080fd5b610626613be4565b3415610e5157600080fd5b61070d613bea565b3415610e6457600080fd5b610626613bf9565b3415610e7757600080fd5b610e82600435613ed7565b60405197885260208801969096526040808801959095526060870193909352608086019190915260a085015260ff90811660c085015290911660e0830152610100909101905180910390f35b3415610ed957600080fd5b610626613f20565b3415610eec57600080fd5b610626600160a060020a0360043581169060243516613f2a565b3415610f1157600080fd5b610626613f47565b3415610f2457600080fd5b610411600435613f70565b3415610f3a57600080fd5b610626613f7b565b3415610f4d57600080fd5b610f58600435613f81565b604051948552600160a060020a03909316602085015260ff91821660408086019190915291166060840152901515608083015260a0909101905180910390f35b3415610fa357600080fd5b6109f860043561400d565b3415610fb957600080fd5b610626600160a060020a036004358116906024351661406a565b3415610fde57600080fd5b610411600160a060020a0360043516614087565b3415610ffd57600080fd5b610411600160a060020a03600435166140e9565b341561101c57600080fd5b610626600160a060020a036004358116906024351661428b565b6000806000806000806000601c600061104d6122fc565b815260200190815260200160002060030154905061107161106c6122fc565b6116ec565b60009b50939950919750955093509150600286600281111561108f57fe5b14806110a6575060018660028111156110a457fe5b145b156110f6578360ff168560ff161180156110c05750818311155b156110ce57600196506110f6565b8360ff168560ff161480156110e35750818111155b156110f157600296506110f6565b600396505b50505050505090565b600a5460009033600160a060020a0390811691161461111a57fe5b811580159061112a575060035482105b151561113557600080fd5b6111408260026142e3565b151561114857fe5b61115182614594565b151561115957fe5b506001919050565b60006040517f737570706f727473496e74657266616365286279746573342900000000000000815260190160405180910390207bffffffffffffffffffffffffffffffffffffffffffffffffffffffff1916827bffffffffffffffffffffffffffffffffffffffffffffffffffffffff1916148061143457506040517f746f6b656e4d657461646174612875696e743235362c737472696e67290000008152601d0160405180910390206040517f746f6b656e734f664f776e657228616464726573732900000000000000000000815260160160405180910390206040517f7472616e7366657246726f6d28616464726573732c616464726573732c75696e81527f7432353629000000000000000000000000000000000000000000000000000000602082015260250160405180910390206040517f7472616e7366657228616464726573732c75696e743235362900000000000000815260190160405180910390206040517f617070726f766528616464726573732c75696e74323536290000000000000000815260180160405180910390206040517f6f776e65724f662875696e743235362900000000000000000000000000000000815260100160405180910390206040517f62616c616e63654f662861646472657373290000000000000000000000000000815260120160405180910390206040517f746f74616c537570706c792829000000000000000000000000000000000000008152600d0160405180910390206040517f73796d626f6c2829000000000000000000000000000000000000000000000000815260080160405180910390206040517f6e616d6528290000000000000000000000000000000000000000000000000000815260060160405180910390201818181818181818187bffffffffffffffffffffffffffffffffffffffffffffffffffffffff1916827bffffffffffffffffffffffffffffffffffffffffffffffffffffffff1916145b92915050565b611442615c74565b60008054600181600116156101000203166002900480601f0160208091040260200160405190810160405280929190818152602001828054600181600116156101000203166002900480156114d85780601f106114ad576101008083540402835291602001916114d8565b820191906000526020600020905b8154815290600101906020018083116114bb57829003601f168201915b505050505090505b90565b6114ed3382614927565b15156114f857600080fd5b6115028183614947565b7f8c5be1e5ebec7d5bd14f71427d1e84f3dd0314c0f7b2291e5b200ac8c7c3b925338383604051600160a060020a039384168152919092166020820152604080820192909252606001905180910390a15050565b6115618160006138b5565b50565b600a54600160a060020a033381166000908152601d602052604081205491909216919081908190819081901561159d57600594506116e4565b6115a56122fc565b935083151561165f576115b661192a565b600160a060020a0333166000908152601a602052604090205490935091506115dc612b94565b9050821580156115ea575081155b156115f8576001945061165a565b8215801590611605575081155b15611613576002945061165a565b8215801561162057508115155b801561162a575080155b15611638576003945061165a565b8215801561164557508115155b801561165057508015155b1561165a57600494505b6116e4565b600080858152601c6020526040902060060154610100900460ff16141561168957600a94506116e4565b60016000858152601c6020526040902060060154610100900460ff1614156116b457600b94506116e4565b60026000858152601c6020526040902060060154610100900460ff1614156116e4576116de611036565b60140194505b505050509091565b60008080808080808088151561170157600080fd5b61170b338a614927565b151561171657600080fd5b600260008a8152601c6020526040902060060154610100900460ff161461173c57600080fd5b5050506000868152601e602052604081206003810154601254825460028401546001850154601654969b5060ff8086169b506101009586900481169a506064959094048416909202939093049650600160a060020a033016319550929342939092019290921091868801811691161481156117ba57600297506117c5565b80156117c557600197505b50505091939590929450565b81158015906117e1575060035482105b15156117ec57600080fd5b80158015906117fc575060035481105b151561180757600080fd5b6001600c540360038281548110151561181c57fe5b90600052602060002090600502016003015410151561183a57600080fd5b6000828152600d60205260409020819055600380548290811061185957fe5b90600052602060002090600502016003015460010160038381548110151561187d57fe5b9060005260206000209060050201600301819055507f0900f87897aa374bb21fa36753905fa2944dd2301242246101a9047a0ed227a082826003858154811015156118c457fe5b90600052602060002090600502016003015460405180848152602001838152602001828152602001935050505060405180910390a15050565b6003546000908181111561191057600019015b8091505b5090565b6119286119236122fc565b612634565b565b600160a060020a0333166000908152601f602052604090205490565b6000806000806000611956615c86565b60008082526020820181905260408201819052606082018190526004965080808a1580159061198657506003548b105b151561199157600080fd5b89151561199d57600080fd5b6119a7338c614927565b15156119b257600080fd5b60008b8152600d602052604090205492508215156119cf57600080fd5b6000838152600d602052604090205491508115156119ec57600080fd5b506000818152600d6020526040902054801515611a0857600080fd5b60039850600383815481101515611a1b57fe5b60009182526020909120600590910201548a11611a44576002985089848a5b6020020152611bd7565b6003805484908110611a5257fe5b906000526020600020906005020160000154600383815481101515611a7357fe5b6000918252602090912060059091020154018a11611adc576003805460019a5084908110611a9d57fe5b600091825260209091206005909102015460408501526003805484908110611ac157fe5b60009182526020909120600590910201548a03846001611a3a565b6003805484908110611aea57fe5b906000526020600020906005020160000154600383815481101515611b0b57fe5b906000526020600020906005020160000154600383815481101515611b2c57fe5b600091825260209091206005909102015401018a11611bd7576003805460009a5084908110611b5757fe5b600091825260209091206005909102015460408501526003805483908110611b7b57fe5b600091825260209182902060059091020154908501526003805483908110611b9f57fe5b906000526020600020906005020160000154600384815481101515611bc057fe5b60009182526020909120600590910201548b030384525b60408401519750602084015196508351955030600160a060020a0316319450505050509295509295909350565b611c0c615c86565b600080825260208201819052604082018190526060820181905260015b600354811015611ce2576003805482908110611c4157fe5b9060005260206000209060050201600301549150600c548260ff161015611caf576003805482908110611c7057fe5b60009182526020909120600590910201548360ff841660048110611c9057fe5b6020020151018360ff841660048110611ca557fe5b6020020152611cda565b6003805482908110611cbd57fe5b600091825260209091206005909102015460608401510160608401525b600101611c29565b505090565b600460205260009081526040902054600160a060020a031681565b602454600160a060020a031681565b600160a060020a0382161515611d2657600080fd5b30600160a060020a031682600160a060020a031614151515611d4757600080fd5b611d513382614982565b1515611d5c57600080fd5b611d668382614927565b1515611d7157600080fd5b611d7c8383836149a2565b505050565b600a5433600160a060020a03908116911614611d9957fe5b611da38383614927565b1515611dae57600080fd5b80600383815481101515611dbe57fe5b9060005260206000209060050201600301819055507f48ed1b5769aee6cf16cda3da1db2a0acf83c194c9d2a98ebeff4904567af58f68383836040518084600160a060020a0316600160a060020a03168152602001838152602001828152602001935050505060405180910390a1505050565b600160a060020a0333166000908152601d6020526040812054611928916138b5565b6000808080600160a060020a0386161515611e6d57600080fd5b841515611e7957600080fd5b339250611e8583614ac0565b9150611e9086614ac0565b905081811415611e9f57600080fd5b811515611eab57600080fd5b801515611eb757600080fd5b600160a060020a038381166000818152600860209081526040808320948b168084529482528083208690559282528282208690556009815282822093825292909252908190208690557fe051949e9a44e2e9c21ee7d1c7b03ef0bf501aa3b7c4616a8543f229c0bede7a908790879051600160a060020a03909216825260208201526040908101905180910390a1600193505b50505092915050565b60008115801590611f65575060035482105b1515611f7057600080fd5b611f7982614b0a565b90508015611f8657600080fd5b6000828152600d6020526040812055600380547f399c331be71add502e95a2402ba7370605a945c1c6c1dc01c5e30f7e896cfa5691849182908110611fc757fe5b90600052602060002090600502016003015460405191825260208201526040908101905180910390a15050565b600a5433600160a060020a0390811691161461200c57fe5b6120168282614927565b151561202157600080fd5b600380548290811061202f57fe5b90600052602060002090600502016003015460010160038281548110151561205357fe5b9060005260206000209060050201600301819055507fb6ffa2bc58069f160ac94855c396bc8a7c591ae4b9e69d78cc004ad2e4d70d858282604051600160a060020a03909216825260208201526040908101905180910390a15050565b601a6020526000908152604090205481565b600160a060020a0333166000908152601d60205260409020546119289060016138b5565b6000600160a060020a03841615156120fd57600080fd5b81151561210957600080fd5b508180151561211e5761211b84614ac0565b90505b80151561212a57600080fd5b612135848284614b68565b7f8ee078ba6dd38678f9ffdc8f1df2d512559df0cae2db32c829459127e10031978484846040518084600160a060020a0316600160a060020a03168152602001838152602001828152602001935050505060405180910390a150505050565b60285460ff1681565b6119286121a86122fc565b613065565b6021546000908190819015156121c257612240565b5060015b6020548110156122405760208054829081106121de57fe5b906000526020600020906002020160010160169054906101000a900460ff16151561223857602080548290811061221157fe5b6000918252602090912060016002909202010154600160a060020a03169250905080612240565b6001016121c6565b509091565b60265460ff1681565b6000600160a060020a038416151561226557600080fd5b81151561227157600080fd5b50818015156122865761228384614ac0565b90505b80151561229257600080fd5b61229d848284614c56565b7ff3d0e22890d929d2a1cd5ca9e5f6498c4271ce2f0223ab4092297c2d11c9ef758484846040518084600160a060020a0316600160a060020a03168152602001838152602001828152602001935050505060405180910390a150505050565b600a5460009033600160a060020a039081169116141561231e575060006114e0565b61232733614d18565b905090565b60006123276123396122fc565b601954613604565b600081815260046020526040812054600160a060020a031680151561143457600080fd5b600080600160a060020a038416151561237d57600080fd5b82151561238957600080fd5b50336123968185856133ad565b949350505050565b6123a6615c74565b60038054839081106123b457fe5b90600052602060002090600502016001018054600181600116156101000203166002900480601f0160208091040260200160405190810160405280929190818152602001828054600181600116156101000203166002900480156124595780601f1061242e57610100808354040283529160200191612459565b820191906000526020600020905b81548152906001019060200180831161243c57829003601f168201915b50505050509050919050565b600160a060020a031660009081526005602052604090205490565b600b5433600160a060020a0390811691161461249b57600080fd5b600b54600a54600160a060020a0391821691167f343765429aea5a34b3ff6a3785a98a5abb2597aca87bfbb58632c173d585373a60405160405180910390a3600b8054600a805473ffffffffffffffffffffffffffffffffffffffff19908116600160a060020a03841617909155169055565b601e6020526000908152604090208054600182015460028301546003909301549192909160ff808216916101008104821691620100009091041686565b612553615c74565b61143482614d5f565b600f5460105460115460125460135460145460155460165460175460185460195460ff8089169861010090048116979681169594169291908c565b600a5460009033600160a060020a039081169116146125b257fe5b6003805460009081106125c157fe5b600091825260209091206005909102015490508015156125e057600080fd5b6000600360008154811015156125f257fe5b6000918252602090912060059091020155600160a060020a03331681156108fc0282604051600060405180830381858888f19350505050151561156157600080fd5b600080600080612642615c86565b600086151561265057600080fd5b61265a3388614927565b151561266557600080fd5b60026000888152601c6020526040902060060154610100900460ff161461268b57600080fd5b6000878152601e60205260409020600281015460018201546016546003840154939950429190920110965060ff90811661010083048216928216929092011614935084806126d65750835b15156126e157600080fd5b6012548654606491610100900460ff16026003880154919004935060ff61010082048116911611801561271957506127198784614e54565b156127e657600160a060020a03331683156108fc0284604051600060405180830381858888f19350505050151561274f57600080fd5b6000878152601c6020526040902060068101805461ff0019166103001790556004018054840190556127818784614f9d565b91507f261826fbdc11ee0da48a5356542bcb46786deaed4c215b871d3df7a03652262d33888560035b604051600160a060020a039094168452602084019290925260408084019190915260ff90911660608301526080909101905180910390a1612987565b600386015460ff80821661010090920416148061281e5750601454600387015460ff9182166101008204831691831691909101909116105b801561284257506000878152601c6020526040902060030154612842908890614e54565b15612908576000878152601c60205260409081902060030154600160a060020a0333169181156108fc02919051600060405180830381858888f19350505050151561288c57600080fd5b6000878152601c6020526040902060068101805461ff001916610500179055600381015460049091018054820190556128c6908890614f9d565b6000888152601c60205260409020600301549092507f261826fbdc11ee0da48a5356542bcb46786deaed4c215b871d3df7a03652262d903390899060056127aa565b6000878152601c6020526040808220600601805461ff0019166104001790557f261826fbdc11ee0da48a5356542bcb46786deaed4c215b871d3df7a03652262d9133918a919060049051600160a060020a039094168452602084019290925260408084019190915260ff90911660608301526080909101905180910390a15b600386015462010000900460ff168110156129d557601d60006004880183600581106129af57fe5b0154600160a060020a031681526020810191909152604001600090812055600101612987565b6000878152601e60205260408120818155600181018290556002810182905560038101805462ffffff1916905590612a106004830182615cad565b5050612a1a615c86565b5050505050505050565b600a54600160a060020a031681565b600354600090819060015b81811015612a72576003805482908110612a5457fe5b60009182526020909120600590910201549290920191600101612a3e565b509092915050565b6000612a863383614927565b1515612a9157600080fd5b811515612a9d57600080fd5b50600081815260296020526040902054801515612ab957600080fd5b6000828152601c602052604090206004015415612ad557600080fd5b6000828152601c602052604090819020600401829055600160a060020a0333169082156108fc0290839051600060405180830381858888f193505050501515612b1d57600080fd5b5050565b612b29615c74565b60018054600181600116156101000203166002900480601f0160208091040260200160405190810160405280929190818152602001828054600181600116156101000203166002900480156114d85780601f106114ad576101008083540402835291602001916114d8565b602454600090600160a060020a031663dd62ed3e333084604051602001526040517c010000000000000000000000000000000000000000000000000000000063ffffffff8516028152600160a060020a03928316600482015291166024820152604401602060405180830381600087803b1515612c1057600080fd5b6102c65a03f11515612c2157600080fd5b505050604051805192915050565b600080600160a060020a0385161515612c4757600080fd5b85841415612c5457600080fd5b851515612c6057600080fd5b831515612c6c57600080fd5b821515612c7857600080fd5b5033600160a060020a038181166000818152600860209081526040808320948a168084529482528083208990559282528282208a90556009815282822093825292909252908190208490557fef4beaa380feab20776f162f92bbf15b04c59f8fd4e8ab2508b8d29fed7dfd6190879087908790879051938452600160a060020a03909216602084015260408084019190915260608301919091526080909101905180910390a150600195945050505050565b602654610100900460ff1681565b600d6020526000908152604090205481565b600160a060020a0333166000908152601a602052604090205490565b600a54600090819033600160a060020a03908116911614612d8357fe5b612d8b6121ad565b9092509050600160a060020a03821615801590612da757508015155b15612b1d57601854600f54612dbd918491613a4b565b7fa2b47dc564bd9b8719fa8435590eb01665bade49e1fa4890022587a074d9e4268282604051600160a060020a03909216825260208201526040908101905180910390a15050565b6000601c6000612e136122fc565b8152602081019190915260400160002060060154610100900460ff16919050565b601d6020526000908152604090205481565b60296020526000908152604090205481565b6022805482908110612e6657fe5b600091825260209091200154905081565b600660205260009081526040902054600160a060020a031681565b600160a060020a0382161515612ea757600080fd5b30600160a060020a031682600160a060020a031614151515612ec857600080fd5b612ed23382614927565b1515612edd57600080fd5b612b1d3383836149a2565b600160a060020a0333166000908152601b602052604090205490565b6000612f108383614927565b1515612f1b57600080fd5b6003805483908110612f2957fe5b906000526020600020906005020160030154905092915050565b600a54600090819033600160a060020a03908116911614612f6057fe5b831515612f6c57600080fd5b821515612f7857600080fd5b602854600f5460649160ff160204831115612f9257600080fd5b6000848152601c602052604090206004015415612fae57600080fd5b506000838152601c60205260409020600281015460019091015401428110612fd557600080fd5b505060009182526029602052604090912055600190565b6000612ff6615c74565b600080600061300486614d5f565b93506000925083519150600090505b8181101561305b57600384828151811061302957fe5b906020019060200201518154811061303d57fe5b60009182526020909120600590910201549290920191600101613013565b5090949350505050565b6026543390610100900460ff1661307d826001613584565b1061308757600080fd5b612b1d826155c4565b33600160a060020a0381166000908152601b6020526040812054909134918380808315156130bd57600080fd5b60265460ff161580156130ce575034155b1561333f57602454600160a060020a031615156130ea57600080fd5b60255415156130f857600080fd5b602454600160a060020a031663dd62ed3e86306000604051602001526040517c010000000000000000000000000000000000000000000000000000000063ffffffff8516028152600160a060020a03928316600482015291166024820152604401602060405180830381600087803b151561317257600080fd5b6102c65a03f1151561318357600080fd5b5050506040518051602454909450600160a060020a0316905063313ce5676000604051602001526040518163ffffffff167c0100000000000000000000000000000000000000000000000000000000028152600401602060405180830381600087803b15156131f157600080fd5b6102c65a03f1151561320257600080fd5b5050506040518051905060ff169150602554831015151561322257600080fd5b50600160a060020a0384166000908152601a60205260409020546027549095508202600182106132665760001990910190600a82900a8181151561326257fe5b0490505b8581101580156132785750600f548610155b151561328357600080fd5b602454600a54602554600160a060020a03928316926323b872dd9289929116906000604051602001526040517c010000000000000000000000000000000000000000000000000000000063ffffffff8616028152600160a060020a0393841660048201529190921660248201526044810191909152606401602060405180830381600087803b151561331457600080fd5b6102c65a03f1151561332557600080fd5b50505060405180519050151561333a57600080fd5b61337f565b85158015906133505750600f548610155b151561335b57600080fd5b600160a060020a0385166000908152601a6020526040902054861461337f57600080fd5b61338a8585886156cb565b965050505050505090565b60275481565b601f6020526000908152604090205481565b600080808080600160a060020a03871615156133c857600080fd5b8515156133d457600080fd5b50505050600160a060020a038481166000818152600860209081526040808320948816808452948252808320549383528083205460098352818420958452949091529020548692908183141561342957600080fd5b82151561343557600080fd5b81151561344157600080fd5b80151561344d57600080fd5b8581101561345a57600080fd5b613467848389868a615879565b600160a060020a038481166000908152600960209081526040808320938b1683529290522080548790039081905515156134df57600160a060020a038481166000818152600960209081526040808320948c168084529482528083208390559282526008815282822090528181208190559182528120555b600160a060020a038085166000908152600960209081526040808320938b168352929052819020547fa085ba1c72fda1f13ecb6e0347284ac7d016a73b7a47c0ba151368bbe5ce2db9918a9185918b9188918c919051600160a060020a0396871681526020810195909552929094166040808501919091526060840191909152608083019390935260a082015260c001905180910390a1506001979650505050505050565b600061358e615c74565b600061359985614d5f565b915060009250600090505b81518110156135fc578360ff16601c60008484815181106135c157fe5b906020019060200201518152602081019190915260400160002060060154610100900460ff1614156135f4576001909201915b6001016135a4565b505092915050565b6000808084151561361457600080fd5b61361e3386614927565b151561362957600080fd5b83151561363557600080fd5b60016000868152601c6020526040902060060154610100900460ff161461365b57600080fd5b6012546000868152601c602052604090206006015460ff91821691161061368157600080fd5b601254606490610100900460ff1685026013546000888152601c602052604090206004015492909104935090830111156136ba57600080fd5b506000848152601c60205260409020600281015460019091015401428110156136e257600080fd5b60e06040519081016040908152858252426020830152601554818301526000606083018190526080830181905260a08084019190915260c083019151908101604090815260008083526020808401829052828401829052606084018290526080840182905292909352888352601e9091529020815181556020820151816001015560408201518160020155606082015160038201805460ff191660ff9290921691909117905560808201518160030160016101000a81548160ff021916908360ff16021790555060a08201518160030160026101000a81548160ff021916908360ff16021790555060c08201516137df9060048301906005615cd0565b5050506000858152601c60205260409020600601805461ff001960ff198216600160ff938416810190931617166102001790915560228054909181016138258382615d33565b506000918252602080832091909101879055868252601c9052604090819020600601547fb3ef0c14cd9ed6533151b9a921ddb33f8716dd3593254ffc741ae770313e3bea918791879160ff9091169051928352602083019190915260ff166040808301919091526060909101905180910390a1506001949350505050565b601b6020526000908152604090205481565b6000808315156138c457600080fd5b600160a060020a0333166000908152601d602052604090205484146138e857600080fd5b6000848152601c602052604090206006015460ff6101009091041660021461390f57600080fd5b50506000828152601e6020526040902060028101546001820154014281101561393757600080fd5b821561395a5760038201805460ff8082166001011660ff1990911617905561397c565b60038201805460ff61010080830482166001019091160261ff00199091161790555b601d600033600160a060020a0316600160a060020a03168152602001908152602001600020600090557f8d85a70fd2c5d140a4a01143492d27ff82cfad4cead313e66c53f39b0feb5e0f338585604051600160a060020a039093168352602083019190915215156040808301919091526060909101905180910390a150505050565b6000600382815481101515613a0f57fe5b9060005260206000209060050201600001549050919050565b600960209081526000928352604080842090915290825290205481565b600c5481565b600a5460009033600160a060020a03908116911614613a6657fe5b600160a060020a0384161515613a7b57600080fd5b821515613a8757600080fd5b8115801590613a985750600f548210155b1515613aa357600080fd5b50600160a060020a0383166000908152601a60209081526040808320849055601b8252808320859055601f9091529020548015801590613ae4575060205481105b15613b85576001602082815481101515613afa57fe5b6000918252602080832060016002909302019190910180549315157601000000000000000000000000000000000000000000000276ff000000000000000000000000000000000000000000001990941693909317909255600160a060020a0386168152601f90915260408120556021805460001901908190551515613b8557613b8560206000615d57565b7f21619a95128e7e5c5367774b6479b6edbc059210239e39bbd50dbae00cfe09728484846040518084600160a060020a0316600160a060020a03168152602001838152602001828152602001935050505060405180910390a150505050565b60255481565b600b54600160a060020a031681565b6000613c03615d78565b600160a060020a0333166000908152601f6020526040902054915081158015613c2f5750601754602154105b156119145760a06040519081016040528042815260200133600160a060020a03168152602001600160ff168152602001600060ff168152602001600015158152509050600160208054806001018281613c889190615da6565b6000928352602090922084916002020181518155602082015160018201805473ffffffffffffffffffffffffffffffffffffffff1916600160a060020a039290921691909117905560408201518160010160146101000a81548160ff021916908360ff16021790555060608201518160010160156101000a81548160ff021916908360ff1602179055506080820151600190910180549115157601000000000000000000000000000000000000000000000276ff000000000000000000000000000000000000000000001990921691909117905550039150811515613e5657600160208054806001018281613d7d9190615da6565b6000928352602090922084916002020181518155602082015160018201805473ffffffffffffffffffffffffffffffffffffffff1916600160a060020a039290921691909117905560408201518160010160146101000a81548160ff021916908360ff16021790555060608201518160010160156101000a81548160ff021916908360ff1602179055506080820151600190910180549115157601000000000000000000000000000000000000000000000276ff0000000000000000000000000000000000000000000019909216919091179055500391505b63ffffffff82168214613e6857600080fd5b33600160a060020a0381166000908152601f6020526040908190208490556021805460010190557f59470163a7d3423114f115af31707633dd4930abac0f3662fc3c4ef323f39a869190849051600160a060020a03909216825260208201526040908101905180910390a15090565b601c602052600090815260409020805460018201546002830154600384015460048501546005860154600690960154949593949293919290919060ff8082169161010090041688565b6023546022540390565b600760209081526000928352604080842090915290825290205481565b600060036000815481101515613f5957fe5b906000526020600020906005020160000154905090565b6115618160016138b5565b60215481565b6020805482908110613f8f57fe5b600091825260209091206002909102018054600190910154909150600160a060020a0381169060ff740100000000000000000000000000000000000000008204811691750100000000000000000000000000000000000000000081048216917601000000000000000000000000000000000000000000009091041685565b614015615c74565b6000828152600d6020526040812054905b600c54811015614063578183828151811061403d57fe5b60209081029091018101919091526000928352600d905260409091205490600101614026565b5050919050565b600860209081526000928352604080842090915290825290205481565b600a5433600160a060020a0390811691161461409f57fe5b600a54600160a060020a03828116911614156140ba57600080fd5b600b805473ffffffffffffffffffffffffffffffffffffffff1916600160a060020a0392909216919091179055565b600a5460009081908190819033600160a060020a0390811691161461410a57fe5b6022546023541061411a57600080fd5b602260235481548110151561412b57fe5b6000918252602090912001549350600160a060020a038516151561414e57600080fd5b83151561415a57600080fd5b60026000858152601c6020526040902060060154610100900460ff161461418057600080fd5b6000848152601e602052604090208054909350151561419e57600080fd5b60028301546001840154019150428210156141b857600080fd5b50600382015460165460ff620100009092048216911681106141d957600080fd5b846004840160ff8316600581106141ec57fe5b01805473ffffffffffffffffffffffffffffffffffffffff1916600160a060020a0392831617905560038401805462ff0000198116620100009182900460ff9081166001018116909202179091559086166000908152601d602052604090208590556016548116908216141561428457602380546001019081905560225414156142845760006023819055614282602282615d33565b505b5050505050565b6000600160a060020a03821615156142a257600080fd5b600160a060020a03831615156142b757600080fd5b50600160a060020a03918216600090815260096020908152604080832093909416825291909152205490565b60008060008060006142f58787615a09565b935061430084614b0a565b925061430c8787615a37565b9150818310156143735761432087856117d1565b7f69186e91a26c2cd1f67397df408ddeb0db9249dbd6e2a428ad8ae0d59ba3bc88878588604051928352602083019190915260ff166040808301919091526060909101905180910390a16001945061458a565b600e805460ff881690811061438457fe5b906000526020600020906006020160010154600e8760ff168154811015156143a857fe5b90600052602060002090600602016003015414156143c9576000945061458a565b6144bb60006003868154811015156143dd57fe5b90600052602060002090600502016001018054600181600116156101000203166002900480601f0160208091040260200160405190810160405280929190818152602001828054600181600116156101000203166002900480156144825780601f1061445757610100808354040283529160200191614482565b820191906000526020600020905b81548152906001019060200180831161446557829003601f168201915b505050505060038781548110151561449657fe5b6000918252602090912060026005909202010154600a54600160a060020a0316615a68565b90508015614585576144d081600188036142e3565b15614585576144df87826117d1565b7f69186e91a26c2cd1f67397df408ddeb0db9249dbd6e2a428ad8ae0d59ba3bc88878288604051928352602083019190915260ff166040808301919091526060909101905180910390a180600e8760ff1681548110151561453c57fe5b6000918252602090912060046006909202010155600e805460ff881690811061456157fe5b6000918252602090912060036006909202010180546001908101909155945061458a565b600094505b5050505092915050565b60008080808080808088158015906145ad575060035489105b15156145b857600080fd5b6001600c540360038a8154811015156145cd57fe5b9060005260206000209060050201600301541415156145eb57600080fd5b6000898152600d6020526040902054965086151561460857600080fd5b6000878152600d6020526040902054955085151561462557600080fd5b6000868152600d6020526040902054945084151561464257600080fd5b6064600e600281548110151561465457fe5b90600052602060002090600602016005015460038b81548110151561467557fe5b9060005260206000209060050201600001540281151561469157fe5b0493508315156146a057600080fd5b6064600e60018154811015156146b257fe5b90600052602060002090600602016005015460038b8154811015156146d357fe5b906000526020600020906005020160000154028115156146ef57fe5b0492508215156146fe57600080fd5b6064600e600081548110151561471057fe5b90600052602060002090600602016005015460038b81548110151561473157fe5b9060005260206000209060050201600001540281151561474d57fe5b04915081151561475c57600080fd5b81838560038c81548110151561476e57fe5b6000918252602090912060059091020154030303905080151561479057600080fd5b836003888154811015156147a057fe5b906000526020600020906005020160000154016003888154811015156147c257fe5b600091825260209091206005909102015560038054849190889081106147e457fe5b9060005260206000209060050201600001540160038781548110151561480657fe5b6000918252602090912060059091020155600380548391908790811061482857fe5b9060005260206000209060050201600001540160038681548110151561484a57fe5b6000918252602082206005909102019190915560038054839290811061486c57fe5b906000526020600020906005020160000154016003600081548110151561488f57fe5b60009182526020822060059091020191909155600380548b9081106148b057fe5b60009182526020909120600590910201557fcfd3c3fcdcb63bcee48ff9a9ec28351afef5ba4fc9b5a8f46d5aa65565a3b1a38983858785604051808681526020018581526020018481526020018381526020018281526020019550505050505060405180910390a150600198975050505050505050565b600090815260046020526040902054600160a060020a0391821691161490565b600091825260066020526040909120805473ffffffffffffffffffffffffffffffffffffffff1916600160a060020a03909216919091179055565b600090815260066020526040902054600160a060020a0391821691161490565b6104006003828154811015156149b457fe5b906000526020600020906005020160040154141515156149d057fe5b600160a060020a0380831660008181526005602090815260408083208054600101905585835260049091529020805473ffffffffffffffffffffffffffffffffffffffff19169091179055831615614a6b57600160a060020a0383166000908152600560209081526040808320805460001901905583835260069091529020805473ffffffffffffffffffffffffffffffffffffffff191690555b7fddf252ad1be2c89b69c2b068fc378daa952ba7f163c4a11628f55a4df523b3ef838383604051600160a060020a039384168152919092166020820152604080820192909252606001905180910390a1505050565b6000614aca615c74565b6000614ad584614d5f565b915081519050801515614aeb5760009250614063565b81600081518110614af857fe5b90602001906020020151949350505050565b600080808315801590614b1e575060035484105b1515614b2957600080fd5b614b316118fd565b915060009250600190505b818111614063576000818152600d6020526040902054841415614b60576001909201915b600101614b3c565b614b728383614927565b1515614b7d57600080fd5b801515614b8957600080fd5b80600383815481101515614b9957fe5b60009182526020909120600590910201541015614bb557600080fd5b80600383815481101515614bc557fe5b90600052602060002090600502016000015403600383815481101515614be757fe5b60009182526020909120600590910201557f45dacd427fd388bf162986dbc958cdcf160c31b40efe076907cff377b9857c798383836040518084600160a060020a0316600160a060020a03168152602001838152602001828152602001935050505060405180910390a1505050565b614c608383614927565b1515614c6b57600080fd5b801515614c7757600080fd5b80600383815481101515614c8757fe5b90600052602060002090600502016000015401600383815481101515614ca957fe5b60009182526020909120600590910201557f20f4934a3b4928cca0e51f3f1eaac12dee9af151a8a8ba5a424a89d93f6bf53d8383836040518084600160a060020a0316600160a060020a03168152602001838152602001828152602001935050505060405180910390a1505050565b6000614d22615c74565b614d2b83614d5f565b90506000815111614d3d576000614d58565b80600182510381518110614d4d57fe5b906020019060200201515b9392505050565b614d67615c74565b6000614d71615c74565b60008080600160a060020a0387161515614d8a57600080fd5b614d9387612465565b9450841515614dc3576000604051805910614dab5750595b90808252806020026020018201604052509550614e4a565b84604051805910614dd15750595b90808252806020026020018201604052509350614dec6118fd565b925060009150600190505b828111614e4657600081815260046020526040902054600160a060020a0388811691161415614e3e5780848380600101945081518110614e3357fe5b602090810290910101525b600101614df7565b8395505b5050505050919050565b6000828152600d60205260408120548180821515614e7157600080fd5b6000838152600d60205260409020549150811515614e8e57600080fd5b506000818152600d6020526040902054801515614eaa57600080fd5b6003805484908110614eb857fe5b60009182526020909120600590910201548511614ed85760019350611f4a565b6003805484908110614ee657fe5b906000526020600020906005020160000154600383815481101515614f0757fe5b6000918252602090912060059091020154018511614f285760019350611f4a565b6003805484908110614f3657fe5b906000526020600020906005020160000154600383815481101515614f5757fe5b906000526020600020906005020160000154600383815481101515614f7857fe5b600091825260209091206005909102015401018511611f4a5750600195945050505050565b614fa5615c86565b600080808515801590614fb9575060035486105b1515614fc457600080fd5b841515614fd057600080fd5b60008085526020808601829052604080870183905260608701839052888352600d909152902054925082151561500557600080fd5b6000838152600d6020526040902054915081151561502257600080fd5b506000818152600d602052604090205480151561503e57600080fd5b600380548490811061504c57fe5b600091825260209091206005909102015485116150fc576040840185815251600380548590811061507957fe5b9060005260206000209060050201600001540360038481548110151561509b57fe5b60009182526020909120600590910201557f7c6ae15e271230e8f8b92de835be76e504f4bb32c5c02872b19e167d6d100fbf86866002604051928352602083019190915260ff166040808301919091526060909101905180910390a1611f4a565b600380548490811061510a57fe5b90600052602060002090600502016000015460038381548110151561512b57fe5b60009182526020909120600590910201540185116152bf577ff5e9c26d6f4f4192de6ab81062e5f90501d77f924b508e44728a2b78d3c12c6d8684876002604051938452602084019290925260408084019190915260ff90911660608301526080909101905180910390a160038054849081106151a457fe5b6000918252602090912060059091020154604085015260038054849081106151c857fe5b600091825260209182902060059091020154860390850152604084015160038054859081106151f357fe5b9060005260206000209060050201600001540360038481548110151561521557fe5b60009182526020909120600590910201558360016020020151600380548490811061523c57fe5b9060005260206000209060050201600001540360038381548110151561525e57fe5b60009182526020909120600590910201557f7c6ae15e271230e8f8b92de835be76e504f4bb32c5c02872b19e167d6d100fbf86866001604051928352602083019190915260ff166040808301919091526060909101905180910390a1611f4a565b60038054849081106152cd57fe5b9060005260206000209060050201600001546003838154811015156152ee57fe5b90600052602060002090600502016000015460038381548110151561530f57fe5b60009182526020909120600590910201540101851161552e577ff5e9c26d6f4f4192de6ab81062e5f90501d77f924b508e44728a2b78d3c12c6d8683876001604051938452602084019290925260408084019190915260ff90911660608301526080909101905180910390a1600380548490811061538957fe5b6000918252602090912060059091020154604085015260038054839081106153ad57fe5b6000918252602091829020600590910201549085015260038054839081106153d157fe5b9060005260206000209060050201600001546003848154811015156153f257fe5b600091825260209091206005909102015486030384526040840151600380548590811061541b57fe5b9060005260206000209060050201600001540360038481548110151561543d57fe5b60009182526020909120600590910201558360016020020151600380548490811061546457fe5b9060005260206000209060050201600001540360038381548110151561548657fe5b6000918252602090912060059091020155835160038054839081106154a757fe5b906000526020600020906005020160000154036003828154811015156154c957fe5b9060005260206000209060050201600001819055507f7c6ae15e271230e8f8b92de835be76e504f4bb32c5c02872b19e167d6d100fbf86866000604051928352602083019190915260ff166040808301919091526060909101905180910390a1611f4a565b7ff5e9c26d6f4f4192de6ab81062e5f90501d77f924b508e44728a2b78d3c12c6d8682876000604051938452602084019290925260408084019190915260ff90911660608301526080909101905180910390a17f95f5c188d1321fe8984cadebc18c8fcaddc6cedbf14ee92f03f318c0e2038485868660405191825260208201526040908101905180910390a150505092915050565b8015156155d057600080fd5b6155da3382614927565b15156155e557600080fd5b6000818152601c6020526040902060030154151561560257600080fd5b6000818152601c602052604090206006015460ff610100909104166001141561562a57600080fd5b61040060038281548110151561563c57fe5b6000918252602080832060059283020160040193909355838252601c90925260409081902060068101805461ff00191661010017905542600182015560038101549201547ff5d2d36fd2c60192fd8f874c962737f1858ff797bf9865d071ade33eeee007019284929091905180848152602001838152602001828152602001935050505060405180910390a150565b60008061570e8360408051908101604052600c81527f43726f7764737572616e636500000000000000000000000000000000000000006020820152600088615a68565b90506101006040519081016040528042815260200160008152602001600f60010154815260200184815260200160008152602001858152602001600060ff1681526020016000600581111561575f57fe5b60ff1690526000828152601c60205260409020815181556020820151816001015560408201518160020155606082015181600301556080820151816004015560a0820151816005015560c082015160068201805460ff191660ff9290921691909117905560e08201516006909101805460ff929092166101000261ff0019909216919091179055506157f081615c5a565b507fbca387acb0ba7d06e329c4372885bb664f19a98153ccf3e74e56c136bf0e88c48582856040518084600160a060020a0316600160a060020a03168152602001838152602001828152602001935050505060405180910390a1600160a060020a0385166000908152601a60209081526040808320839055601b90915281205590509392505050565b6158838585614927565b151561588e57600080fd5b6158988383614927565b15156158a357600080fd5b8015156158af57600080fd5b838214156158bc57600080fd5b806003858154811015156158cc57fe5b600091825260209091206005909102015410156158e857600080fd5b6104006003858154811015156158fa57fe5b9060005260206000209060050201600401541415151561591957600080fd5b8060038581548110151561592957fe5b9060005260206000209060050201600001540360038581548110151561594b57fe5b6000918252602090912060059091020155600380548291908490811061596d57fe5b9060005260206000209060050201600001540160038381548110151561598f57fe5b60009182526020909120600590910201557f6d401b913d27047ecd2042f0331e2354d30e664920b31480dc71955edb996c388585858585604051600160a060020a0395861681526020810194909452919093166040808401919091526060830193909352608082015260a001905180910390a15050505050565b6000600e8260ff16815481101515615a1d57fe5b906000526020600020906006020160040154905092915050565b60006001600e8360ff16815481101515615a4d57fe5b90600052602060002090600602016002015403905092915050565b6000615a72615dd2565b600060a0604051908101604052808881526020018781526020018681526020016000815260200160008152509150600160038054806001018281615ab69190615e08565b6000928352602090922085916005020181518155602082015181600101908051615ae4929160200190615e34565b506040820151816002015560608201518160030155608082015160049091015550039050801515615b7857600160038054806001018281615b259190615e08565b6000928352602090922085916005020181518155602082015181600101908051615b53929160200190615e34565b5060408201518160020155606082015181600301556080820151816004015550500390505b63ffffffff81168114615b8a57600080fd5b7fdea8e87d69047e1b3cd43ad599d34e3eacfe4408b4dfc5d0f6ac6a15a468de5c8787878760405184815260408101839052600160a060020a038216606082015260806020820181815290820185818151815260200191508051906020019080838360005b83811015615c07578082015183820152602001615bef565b50505050905090810190601f168015615c345780820380516001836020036101000a031916815260200191505b509550505050505060405180910390a1615c50600085836149a2565b9695505050505050565b6000811580159061112a5750600354821061113557600080fd5b60206040519081016040526000815290565b60806040519081016040526004815b6000815260200190600190039081615c955790505090565b506000815560010160008155600101600081556001016000815560010160009055565b8260058101928215615d27579160200282015b82811115615d27578251825473ffffffffffffffffffffffffffffffffffffffff1916600160a060020a039190911617825560209290920191600190910190615ce3565b50611914929150615eae565b815481835581811511611d7c57600083815260209020611d7c918101908301615edf565b50805460008255600202906000526020600020908101906115619190615ef9565b60a0604051908101604090815260008083526020830181905290820181905260608201819052608082015290565b815481835581811511611d7c57600202816002028360005260206000209182019101611d7c9190615ef9565b60a06040519081016040528060008152602001615ded615c74565b81526020016000815260200160008152602001600081525090565b815481835581811511611d7c57600502816005028360005260206000209182019101611d7c9190615f35565b828054600181600116156101000203166002900490600052602060002090601f016020900481019282601f10615e7557805160ff1916838001178555615ea2565b82800160010185558215615ea2579182015b82811115615ea2578251825591602001919060010190615e87565b50611914929150615edf565b6114e091905b8082111561191457805473ffffffffffffffffffffffffffffffffffffffff19168155600101615eb4565b6114e091905b808211156119145760008155600101615ee5565b6114e091905b80821115611914576000815560018101805476ffffffffffffffffffffffffffffffffffffffffffffff19169055600201615eff565b6114e091905b80821115611914576000808255615f556001830182615f73565b50600060028201819055600382018190556004820155600501615f3b565b50805460018160011615610100020316600290046000825580601f10615f995750611561565b601f0160209004906000526020600020908101906115619190615edf5600a165627a7a7230582099ec20ed353275598d1e75f20658b24f9028cc47618507accd573e49b1aeae880029",
  "source": "// \n// MIT License\n// \n// Copyright (c) 2018 REGA Risk Sharing\n//   \n// Permission is hereby granted, free of charge, to any person obtaining a copy\n// of this software and associated documentation files (the \"Software\"), to deal\n// in the Software without restriction, including without limitation the rights\n// to use, copy, modify, merge, publish, distribute, sublicense, and/or sell\n// copies of the Software, and to permit persons to whom the Software is\n// furnished to do so, subject to the following conditions:\n// \n// The above copyright notice and this permission notice shall be included in all\n// copies or substantial portions of the Software.\n// \n// THE SOFTWARE IS PROVIDED \"AS IS\", WITHOUT WARRANTY OF ANY KIND, EXPRESS OR\n// IMPLIED, INCLUDING BUT NOT LIMITED TO THE WARRANTIES OF MERCHANTABILITY,\n// FITNESS FOR A PARTICULAR PURPOSE AND NONINFRINGEMENT. IN NO EVENT SHALL THE\n// AUTHORS OR COPYRIGHT HOLDERS BE LIABLE FOR ANY CLAIM, DAMAGES OR OTHER\n// LIABILITY, WHETHER IN AN ACTION OF CONTRACT, TORT OR OTHERWISE, ARISING FROM,\n// OUT OF OR IN CONNECTION WITH THE SOFTWARE OR THE USE OR OTHER DEALINGS IN THE\n// SOFTWARE.\n// \n// Author: Sergei Sevriugin\n// Version: 0.0.1\n//  \n\npragma solidity ^0.4.17;\n\nimport './TokenCrowdsurance.sol';\nimport './interfaces/IERC20Token.sol';\n\n/// Luggage crowdsurance protection product based on TokenCrowdsurance NFT token \ncontract LuggageCrowdsurance is TokenCrowdsurance {\n    /// REGA Risk Sharing Token smart contract address\n    IERC20Token public  RST;                // RST smart contract address\n    uint256     public  joinAmountRST;      // Join amount in RST\n    bool        public  ETHOnly;            // Join only for RST tokens\n    uint8       public  maxHold;            // Maximum number of toikens for one address\n    uint256     public  rstETHRate;         // RST/ETH rate\n    uint8       public  paybackRatio;       // Payback ratio\n\n    mapping (uint256 => uint256) public payback;    // payback mapping\n    /// join function\n    /// @return cowdsuranceId NFT token ID for created crowdsurance\n    function join() public payable returns(uint256 cowdsuranceId) {\n        uint256 amount = msg.value;\n        address member = msg.sender;\n        uint256 score = addressToScore[member];\n        require(score != uint256(0));\n\n        if (!ETHOnly && msg.value == uint256(0)) {\n            // now need to check that the member has approved the transfer joinAmountRST to join\n            require(RST != address(0));                             // check that we have valid contract address\n            require(joinAmountRST != uint256(0));                   // join RST amount must be > 0\n            uint256 rstAmt = RST.allowance(member, this);           // check if the member has gave permision to spend some amount\n            uint256 rstDecimals = uint256(RST.decimals());          // need RST decimals to convert RST to ETH based on the convertion rate\n            require(rstAmt >= joinAmountRST);                       // ... and check if allowance is more then joinAmount\n            amount = addressToAmount[member];                       // get join amount and check...\n            uint256 rstAmtInETH = rstAmt * rstETHRate;              // ... and now calculate join amount from RST to ETH\n            if (rstDecimals >= uint8(1)) {                          // ... check if RST decimals is not 0\n                rstDecimals--;\n                rstAmtInETH = rstAmtInETH / (10 ** rstDecimals);    // ... and use decimals to convert RST to ETH\n            }\n            require(rstAmtInETH >= amount && amount >= parameters.joinAmount);\n            // transfer join RST amount to the owner account\n            require(RST.transferFrom(member, owner, joinAmountRST));\n        }\n        else {\n            require(amount != uint256(0) && amount >= parameters.joinAmount);\n            require(amount == addressToAmount[member]);\n        }\n        // call internal _join after all checkups \n        cowdsuranceId = _join(member, score, amount);\n    }\n    /// set payback amount function\n    /// @param _id crowdsurance token ID\n    /// @param _amount payback amount to set\n    /// @return true if successful \n    function setPayback(uint256 _id, uint256 _amount) ownerOnly public returns (bool) {\n        require(_id != uint256(0));\n        require(_amount != uint256(0));\n        require(_amount <= parameters.joinAmount * paybackRatio / 100);\n        require(extensions[_id].paid == uint256(0));\n        uint coverageEnd = extensions[_id].activated + extensions[_id].duration;\n        require(coverageEnd < now);\n        payback[_id] = _amount;\n        return true;\n    }\n    /// get payback function\n    /// @param _id luggage protection token to get payback\n    function getPayback(uint256 _id) public {\n        require(_owns(msg.sender, _id));\n        require(_id != uint256(0));\n        uint256 _amount = payback[_id];\n        require(_amount != uint256(0));\n        require(extensions[_id].paid == uint256(0));\n        extensions[_id].paid = _amount;\n        msg.sender.transfer(_amount);\n    }\n    /// activate function \n    /// @param _id NFT token ID to activate\n    function activate(uint256 _id) public {\n        address member = msg.sender;\n        // check if number of tokens is not more then maxHold\n        require(statusCount(member, uint8(Status.Active)) < maxHold);   \n        super.activate(_id);\n    }\n    function activateCurrent() public {\n        activate(getCurrentTokenId());\n    }\n    function getAllowance() public view returns (uint256 allowance) {\n        allowance = RST.allowance(msg.sender,address(this));\n    }\n    /// get commission function\n    function transferCommission() ownerOnly public {\n        uint256 commission = nfts[0].value;\n        require(commission != uint256(0)); \n        nfts[0].value = 0;\n        msg.sender.transfer(commission);\n    }\n    function getBizProcessId() view public returns(address contractOwner, uint8 bizProcessId) {\n        contractOwner = owner;\n        bizProcessId = 0;\n        // check voting first\n        if (voters[msg.sender] != uint256(0)) {\n            // voter\n            bizProcessId = 5;\n            return;\n        }\n        // check if sender has Crowdsurance token\n        uint256 id = getCurrentTokenId();\n        if(id == uint256(0)) {\n            // sender don't have any token check application \n            uint256 appId = getAppID();\n            uint256 amount = addressToAmount[msg.sender];\n            uint256 allowance = getAllowance();\n            if(appId == uint256(0) && amount == uint256(0)) {\n                // the first step - need to make application\n                bizProcessId = 1;\n            }\n            else if(appId != uint256(0) && amount == uint256(0)) {\n                // waiting for scoring\n                bizProcessId = 2; \n            }\n            else if (appId == uint256(0) && amount != uint256(0) && allowance == uint256(0)) {\n                // need to approve token transfer\n                bizProcessId = 3;\n            }\n            else if (appId == uint256(0) && amount != uint256(0) && allowance != uint256(0)) {\n                // join \n                bizProcessId = 4;\n            }\n        }\n        else {\n            // we have current token id\n            if (extensions[id].status == uint(Status.Init)) {\n                bizProcessId = 10;  // activate\n            }\n            else if (extensions[id].status == uint(Status.Active)) {\n                bizProcessId = 11;  // claim\n            }\n            else if (extensions[id].status == uint(Status.Claim)) {\n                bizProcessId = 20 + getCurrentVotingStatus();\n\n            }\n        }\n    }\n    function LuggageCrowdsurance(address _rst, uint256 _amount, bool _only, uint8 _max) \n                TokenCrowdsurance(\"Luggage Crowdsurance NFT\", \"LCS\") public {\n        // setting up contract parameters \n        RST = IERC20Token(_rst);\n        parameters.joinAmount = 0.019 ether;\n        parameters.maxClaimAmount = 4 ether; \n        if (_amount == uint256(0)) {\n            joinAmountRST = 5000000000; \n        }\n        else {\n            joinAmountRST = _amount; \n        }\n        if (_max == uint8(0)) {\n            maxHold = 5;\n        }\n        else {\n            maxHold = _max;\n        }\n        ETHOnly = _only;\n        rstETHRate = 0.12 ether;\n        paybackRatio = 80;\n    }\n}",
  "sourcePath": "/Users/sergei/LuggageCrowdsurance/contracts/LuggageCrowdsurance.sol",
  "compiler": {
    "name": "solc",
    "version": "0.4.18+commit.9cf6e910.Emscripten.clang"
  },
  "schemaVersion": "1.0.1",
  "updatedAt": "2018-05-22T10:22:11.975Z"
}