{
  "contractName": "LuggageCrowdsurance",
  "abi": [
    {
      "constant": false,
      "inputs": [
        {
          "name": "_id",
          "type": "uint256"
        }
      ],
      "name": "insertPool",
      "outputs": [
        {
          "name": "",
          "type": "bool"
        }
      ],
      "payable": false,
      "stateMutability": "nonpayable",
      "type": "function"
    },
    {
      "constant": true,
      "inputs": [
        {
          "name": "_interfaceID",
          "type": "bytes4"
        }
      ],
      "name": "supportsInterface",
      "outputs": [
        {
          "name": "",
          "type": "bool"
        }
      ],
      "payable": false,
      "stateMutability": "view",
      "type": "function"
    },
    {
      "constant": true,
      "inputs": [],
      "name": "name",
      "outputs": [
        {
          "name": "",
          "type": "string"
        }
      ],
      "payable": false,
      "stateMutability": "view",
      "type": "function"
    },
    {
      "constant": false,
      "inputs": [
        {
          "name": "_to",
          "type": "address"
        },
        {
          "name": "_tokenId",
          "type": "uint256"
        }
      ],
      "name": "approve",
      "outputs": [],
      "payable": false,
      "stateMutability": "nonpayable",
      "type": "function"
    },
    {
      "constant": true,
      "inputs": [
        {
          "name": "_id",
          "type": "uint256"
        }
      ],
      "name": "votingStatus",
      "outputs": [
        {
          "name": "votingEnded",
          "type": "bool"
        },
        {
          "name": "positive",
          "type": "uint8"
        },
        {
          "name": "negative",
          "type": "uint8"
        }
      ],
      "payable": false,
      "stateMutability": "view",
      "type": "function"
    },
    {
      "constant": false,
      "inputs": [
        {
          "name": "_nodeId",
          "type": "uint256"
        },
        {
          "name": "_parentId",
          "type": "uint256"
        }
      ],
      "name": "addToken",
      "outputs": [],
      "payable": false,
      "stateMutability": "nonpayable",
      "type": "function"
    },
    {
      "constant": true,
      "inputs": [],
      "name": "totalSupply",
      "outputs": [
        {
          "name": "",
          "type": "uint256"
        }
      ],
      "payable": false,
      "stateMutability": "view",
      "type": "function"
    },
    {
      "constant": true,
      "inputs": [],
      "name": "getDistribution",
      "outputs": [
        {
          "name": "distribution",
          "type": "uint256[4]"
        }
      ],
      "payable": false,
      "stateMutability": "view",
      "type": "function"
    },
    {
      "constant": true,
      "inputs": [
        {
          "name": "",
          "type": "uint256"
        }
      ],
      "name": "tokenIndexToOwner",
      "outputs": [
        {
          "name": "",
          "type": "address"
        }
      ],
      "payable": false,
      "stateMutability": "view",
      "type": "function"
    },
    {
      "constant": true,
      "inputs": [],
      "name": "RST",
      "outputs": [
        {
          "name": "",
          "type": "address"
        }
      ],
      "payable": false,
      "stateMutability": "view",
      "type": "function"
    },
    {
      "constant": false,
      "inputs": [
        {
          "name": "_from",
          "type": "address"
        },
        {
          "name": "_to",
          "type": "address"
        },
        {
          "name": "_tokenId",
          "type": "uint256"
        }
      ],
      "name": "transferFrom",
      "outputs": [],
      "payable": false,
      "stateMutability": "nonpayable",
      "type": "function"
    },
    {
      "constant": false,
      "inputs": [
        {
          "name": "_to",
          "type": "address"
        },
        {
          "name": "_toId",
          "type": "uint256"
        },
        {
          "name": "_level",
          "type": "uint256"
        }
      ],
      "name": "setLevel",
      "outputs": [],
      "payable": false,
      "stateMutability": "nonpayable",
      "type": "function"
    },
    {
      "constant": false,
      "inputs": [
        {
          "name": "_spender",
          "type": "address"
        },
        {
          "name": "_value",
          "type": "uint256"
        }
      ],
      "name": "cApprove",
      "outputs": [
        {
          "name": "success",
          "type": "bool"
        }
      ],
      "payable": false,
      "stateMutability": "nonpayable",
      "type": "function"
    },
    {
      "constant": false,
      "inputs": [
        {
          "name": "_nodeId",
          "type": "uint256"
        }
      ],
      "name": "removeToken",
      "outputs": [],
      "payable": false,
      "stateMutability": "nonpayable",
      "type": "function"
    },
    {
      "constant": false,
      "inputs": [
        {
          "name": "_to",
          "type": "address"
        },
        {
          "name": "_toId",
          "type": "uint256"
        }
      ],
      "name": "increaseLevel",
      "outputs": [],
      "payable": false,
      "stateMutability": "nonpayable",
      "type": "function"
    },
    {
      "constant": true,
      "inputs": [
        {
          "name": "",
          "type": "address"
        }
      ],
      "name": "addressToAmount",
      "outputs": [
        {
          "name": "",
          "type": "uint256"
        }
      ],
      "payable": false,
      "stateMutability": "view",
      "type": "function"
    },
    {
      "constant": false,
      "inputs": [
        {
          "name": "_from",
          "type": "address"
        },
        {
          "name": "_fromId",
          "type": "uint256"
        },
        {
          "name": "_amount",
          "type": "uint256"
        }
      ],
      "name": "cDestroy",
      "outputs": [],
      "payable": false,
      "stateMutability": "nonpayable",
      "type": "function"
    },
    {
      "constant": true,
      "inputs": [],
      "name": "paybackRatio",
      "outputs": [
        {
          "name": "",
          "type": "uint8"
        }
      ],
      "payable": false,
      "stateMutability": "view",
      "type": "function"
    },
    {
      "constant": true,
      "inputs": [],
      "name": "ETHOnly",
      "outputs": [
        {
          "name": "",
          "type": "bool"
        }
      ],
      "payable": false,
      "stateMutability": "view",
      "type": "function"
    },
    {
      "constant": false,
      "inputs": [
        {
          "name": "_to",
          "type": "address"
        },
        {
          "name": "_toId",
          "type": "uint256"
        },
        {
          "name": "_amount",
          "type": "uint256"
        }
      ],
      "name": "cIssue",
      "outputs": [],
      "payable": false,
      "stateMutability": "nonpayable",
      "type": "function"
    },
    {
      "constant": true,
      "inputs": [
        {
          "name": "_tokenId",
          "type": "uint256"
        }
      ],
      "name": "ownerOf",
      "outputs": [
        {
          "name": "",
          "type": "address"
        }
      ],
      "payable": false,
      "stateMutability": "view",
      "type": "function"
    },
    {
      "constant": false,
      "inputs": [
        {
          "name": "_to",
          "type": "address"
        },
        {
          "name": "_value",
          "type": "uint256"
        }
      ],
      "name": "cTransfer",
      "outputs": [
        {
          "name": "success",
          "type": "bool"
        }
      ],
      "payable": false,
      "stateMutability": "nonpayable",
      "type": "function"
    },
    {
      "constant": true,
      "inputs": [
        {
          "name": "_tokenId",
          "type": "uint256"
        }
      ],
      "name": "tokenMetadata",
      "outputs": [
        {
          "name": "infoUrl",
          "type": "string"
        }
      ],
      "payable": false,
      "stateMutability": "view",
      "type": "function"
    },
    {
      "constant": true,
      "inputs": [
        {
          "name": "_owner",
          "type": "address"
        }
      ],
      "name": "balanceOf",
      "outputs": [
        {
          "name": "count",
          "type": "uint256"
        }
      ],
      "payable": false,
      "stateMutability": "view",
      "type": "function"
    },
    {
      "constant": false,
      "inputs": [],
      "name": "acceptOwnership",
      "outputs": [],
      "payable": false,
      "stateMutability": "nonpayable",
      "type": "function"
    },
    {
      "constant": true,
      "inputs": [
        {
          "name": "",
          "type": "uint256"
        }
      ],
      "name": "requests",
      "outputs": [
        {
          "name": "amount",
          "type": "uint256"
        },
        {
          "name": "timeStamp",
          "type": "uint256"
        },
        {
          "name": "duration",
          "type": "uint256"
        },
        {
          "name": "positive",
          "type": "uint8"
        },
        {
          "name": "negative",
          "type": "uint8"
        },
        {
          "name": "number",
          "type": "uint8"
        }
      ],
      "payable": false,
      "stateMutability": "view",
      "type": "function"
    },
    {
      "constant": true,
      "inputs": [
        {
          "name": "_owner",
          "type": "address"
        }
      ],
      "name": "tokensOfOwner",
      "outputs": [
        {
          "name": "ownerTokens",
          "type": "uint256[]"
        }
      ],
      "payable": false,
      "stateMutability": "view",
      "type": "function"
    },
    {
      "constant": true,
      "inputs": [],
      "name": "parameters",
      "outputs": [
        {
          "name": "joinAmount",
          "type": "uint256"
        },
        {
          "name": "coverageDuration",
          "type": "uint256"
        },
        {
          "name": "maxClaimAmount",
          "type": "uint256"
        },
        {
          "name": "maxClaimNumber",
          "type": "uint8"
        },
        {
          "name": "paymentRatio",
          "type": "uint8"
        },
        {
          "name": "maxPaymentAmount",
          "type": "uint256"
        },
        {
          "name": "minJuriesNumber",
          "type": "uint8"
        },
        {
          "name": "votingDuration",
          "type": "uint256"
        },
        {
          "name": "juriesNumber",
          "type": "uint8"
        }
      ],
      "payable": false,
      "stateMutability": "view",
      "type": "function"
    },
    {
      "constant": false,
      "inputs": [
        {
          "name": "_id",
          "type": "uint256"
        }
      ],
      "name": "payment",
      "outputs": [],
      "payable": false,
      "stateMutability": "nonpayable",
      "type": "function"
    },
    {
      "constant": true,
      "inputs": [],
      "name": "owner",
      "outputs": [
        {
          "name": "",
          "type": "address"
        }
      ],
      "payable": false,
      "stateMutability": "view",
      "type": "function"
    },
    {
      "constant": true,
      "inputs": [],
      "name": "cTotalSupply",
      "outputs": [
        {
          "name": "",
          "type": "uint256"
        }
      ],
      "payable": false,
      "stateMutability": "view",
      "type": "function"
    },
    {
      "constant": false,
      "inputs": [
        {
          "name": "_id",
          "type": "uint256"
        }
      ],
      "name": "getPayback",
      "outputs": [],
      "payable": false,
      "stateMutability": "nonpayable",
      "type": "function"
    },
    {
      "constant": true,
      "inputs": [],
      "name": "symbol",
      "outputs": [
        {
          "name": "",
          "type": "string"
        }
      ],
      "payable": false,
      "stateMutability": "view",
      "type": "function"
    },
    {
      "constant": false,
      "inputs": [
        {
          "name": "_fromId",
          "type": "uint256"
        },
        {
          "name": "_spender",
          "type": "address"
        },
        {
          "name": "_toId",
          "type": "uint256"
        },
        {
          "name": "_value",
          "type": "uint256"
        }
      ],
      "name": "cApproveFrom",
      "outputs": [
        {
          "name": "success",
          "type": "bool"
        }
      ],
      "payable": false,
      "stateMutability": "nonpayable",
      "type": "function"
    },
    {
      "constant": true,
      "inputs": [],
      "name": "maxHold",
      "outputs": [
        {
          "name": "",
          "type": "uint8"
        }
      ],
      "payable": false,
      "stateMutability": "view",
      "type": "function"
    },
    {
      "constant": true,
      "inputs": [
        {
          "name": "",
          "type": "uint256"
        }
      ],
      "name": "tokenIndexToPoolToken",
      "outputs": [
        {
          "name": "",
          "type": "uint256"
        }
      ],
      "payable": false,
      "stateMutability": "view",
      "type": "function"
    },
    {
      "constant": true,
      "inputs": [
        {
          "name": "",
          "type": "address"
        }
      ],
      "name": "voters",
      "outputs": [
        {
          "name": "",
          "type": "uint256"
        }
      ],
      "payable": false,
      "stateMutability": "view",
      "type": "function"
    },
    {
      "constant": true,
      "inputs": [
        {
          "name": "",
          "type": "uint256"
        }
      ],
      "name": "payback",
      "outputs": [
        {
          "name": "",
          "type": "uint256"
        }
      ],
      "payable": false,
      "stateMutability": "view",
      "type": "function"
    },
    {
      "constant": true,
      "inputs": [
        {
          "name": "",
          "type": "uint256"
        }
      ],
      "name": "tokenIndexToApproved",
      "outputs": [
        {
          "name": "",
          "type": "address"
        }
      ],
      "payable": false,
      "stateMutability": "view",
      "type": "function"
    },
    {
      "constant": false,
      "inputs": [
        {
          "name": "_to",
          "type": "address"
        },
        {
          "name": "_tokenId",
          "type": "uint256"
        }
      ],
      "name": "transfer",
      "outputs": [],
      "payable": false,
      "stateMutability": "nonpayable",
      "type": "function"
    },
    {
      "constant": true,
      "inputs": [
        {
          "name": "_to",
          "type": "address"
        },
        {
          "name": "_toId",
          "type": "uint256"
        }
      ],
      "name": "getLevel",
      "outputs": [
        {
          "name": "",
          "type": "uint256"
        }
      ],
      "payable": false,
      "stateMutability": "view",
      "type": "function"
    },
    {
      "constant": false,
      "inputs": [
        {
          "name": "_id",
          "type": "uint256"
        },
        {
          "name": "_amount",
          "type": "uint256"
        }
      ],
      "name": "setPayback",
      "outputs": [
        {
          "name": "",
          "type": "bool"
        }
      ],
      "payable": false,
      "stateMutability": "nonpayable",
      "type": "function"
    },
    {
      "constant": true,
      "inputs": [
        {
          "name": "_owner",
          "type": "address"
        }
      ],
      "name": "cBalanceOf",
      "outputs": [
        {
          "name": "",
          "type": "uint256"
        }
      ],
      "payable": false,
      "stateMutability": "view",
      "type": "function"
    },
    {
      "constant": false,
      "inputs": [
        {
          "name": "_id",
          "type": "uint256"
        }
      ],
      "name": "activate",
      "outputs": [],
      "payable": false,
      "stateMutability": "nonpayable",
      "type": "function"
    },
    {
      "constant": false,
      "inputs": [],
      "name": "join",
      "outputs": [
        {
          "name": "cowdsuranceId",
          "type": "uint256"
        }
      ],
      "payable": true,
      "stateMutability": "payable",
      "type": "function"
    },
    {
      "constant": false,
      "inputs": [
        {
          "name": "_jury",
          "type": "address"
        },
        {
          "name": "_id",
          "type": "uint256"
        }
      ],
      "name": "addVoter",
      "outputs": [],
      "payable": false,
      "stateMutability": "nonpayable",
      "type": "function"
    },
    {
      "constant": true,
      "inputs": [],
      "name": "rstETHRate",
      "outputs": [
        {
          "name": "",
          "type": "uint256"
        }
      ],
      "payable": false,
      "stateMutability": "view",
      "type": "function"
    },
    {
      "constant": false,
      "inputs": [
        {
          "name": "_from",
          "type": "address"
        },
        {
          "name": "_to",
          "type": "address"
        },
        {
          "name": "_value",
          "type": "uint256"
        }
      ],
      "name": "cTransferFrom",
      "outputs": [
        {
          "name": "success",
          "type": "bool"
        }
      ],
      "payable": false,
      "stateMutability": "nonpayable",
      "type": "function"
    },
    {
      "constant": true,
      "inputs": [
        {
          "name": "_member",
          "type": "address"
        },
        {
          "name": "_status",
          "type": "uint8"
        }
      ],
      "name": "statusCount",
      "outputs": [
        {
          "name": "count",
          "type": "uint256"
        }
      ],
      "payable": false,
      "stateMutability": "view",
      "type": "function"
    },
    {
      "constant": false,
      "inputs": [
        {
          "name": "_id",
          "type": "uint256"
        },
        {
          "name": "_claim",
          "type": "uint256"
        }
      ],
      "name": "claim",
      "outputs": [
        {
          "name": "",
          "type": "bool"
        }
      ],
      "payable": false,
      "stateMutability": "nonpayable",
      "type": "function"
    },
    {
      "constant": true,
      "inputs": [
        {
          "name": "",
          "type": "address"
        }
      ],
      "name": "addressToScore",
      "outputs": [
        {
          "name": "",
          "type": "uint256"
        }
      ],
      "payable": false,
      "stateMutability": "view",
      "type": "function"
    },
    {
      "constant": false,
      "inputs": [
        {
          "name": "_id",
          "type": "uint256"
        },
        {
          "name": "_positive",
          "type": "bool"
        }
      ],
      "name": "vote",
      "outputs": [],
      "payable": false,
      "stateMutability": "nonpayable",
      "type": "function"
    },
    {
      "constant": true,
      "inputs": [
        {
          "name": "_tokenId",
          "type": "uint256"
        }
      ],
      "name": "valueOf",
      "outputs": [
        {
          "name": "value",
          "type": "uint256"
        }
      ],
      "payable": false,
      "stateMutability": "view",
      "type": "function"
    },
    {
      "constant": true,
      "inputs": [
        {
          "name": "",
          "type": "address"
        },
        {
          "name": "",
          "type": "address"
        }
      ],
      "name": "allowanceAmt",
      "outputs": [
        {
          "name": "",
          "type": "uint256"
        }
      ],
      "payable": false,
      "stateMutability": "view",
      "type": "function"
    },
    {
      "constant": true,
      "inputs": [],
      "name": "maxLevel",
      "outputs": [
        {
          "name": "",
          "type": "uint256"
        }
      ],
      "payable": false,
      "stateMutability": "view",
      "type": "function"
    },
    {
      "constant": false,
      "inputs": [
        {
          "name": "_member",
          "type": "address"
        },
        {
          "name": "_score",
          "type": "uint256"
        },
        {
          "name": "_amount",
          "type": "uint256"
        }
      ],
      "name": "scoring",
      "outputs": [],
      "payable": false,
      "stateMutability": "nonpayable",
      "type": "function"
    },
    {
      "constant": true,
      "inputs": [],
      "name": "joinAmountRST",
      "outputs": [
        {
          "name": "",
          "type": "uint256"
        }
      ],
      "payable": false,
      "stateMutability": "view",
      "type": "function"
    },
    {
      "constant": true,
      "inputs": [],
      "name": "newOwner",
      "outputs": [
        {
          "name": "",
          "type": "address"
        }
      ],
      "payable": false,
      "stateMutability": "view",
      "type": "function"
    },
    {
      "constant": true,
      "inputs": [],
      "name": "apply",
      "outputs": [
        {
          "name": "amount",
          "type": "uint256"
        }
      ],
      "payable": false,
      "stateMutability": "view",
      "type": "function"
    },
    {
      "constant": true,
      "inputs": [
        {
          "name": "",
          "type": "uint256"
        }
      ],
      "name": "extensions",
      "outputs": [
        {
          "name": "timeStamp",
          "type": "uint256"
        },
        {
          "name": "activated",
          "type": "uint256"
        },
        {
          "name": "duration",
          "type": "uint256"
        },
        {
          "name": "amount",
          "type": "uint256"
        },
        {
          "name": "paid",
          "type": "uint256"
        },
        {
          "name": "score",
          "type": "uint256"
        },
        {
          "name": "claimNumber",
          "type": "uint8"
        },
        {
          "name": "status",
          "type": "uint8"
        }
      ],
      "payable": false,
      "stateMutability": "view",
      "type": "function"
    },
    {
      "constant": true,
      "inputs": [
        {
          "name": "",
          "type": "address"
        },
        {
          "name": "",
          "type": "address"
        }
      ],
      "name": "allowance",
      "outputs": [
        {
          "name": "",
          "type": "uint256"
        }
      ],
      "payable": false,
      "stateMutability": "view",
      "type": "function"
    },
    {
      "constant": true,
      "inputs": [],
      "name": "getComission",
      "outputs": [
        {
          "name": "commission",
          "type": "uint256"
        }
      ],
      "payable": false,
      "stateMutability": "view",
      "type": "function"
    },
    {
      "constant": true,
      "inputs": [
        {
          "name": "_nodeId",
          "type": "uint256"
        }
      ],
      "name": "getPath",
      "outputs": [
        {
          "name": "path",
          "type": "uint256[]"
        }
      ],
      "payable": false,
      "stateMutability": "view",
      "type": "function"
    },
    {
      "constant": true,
      "inputs": [
        {
          "name": "",
          "type": "address"
        },
        {
          "name": "",
          "type": "address"
        }
      ],
      "name": "allowanceIds",
      "outputs": [
        {
          "name": "",
          "type": "uint256"
        }
      ],
      "payable": false,
      "stateMutability": "view",
      "type": "function"
    },
    {
      "constant": false,
      "inputs": [],
      "name": "getCommission",
      "outputs": [],
      "payable": false,
      "stateMutability": "nonpayable",
      "type": "function"
    },
    {
      "constant": false,
      "inputs": [
        {
          "name": "_newOwner",
          "type": "address"
        }
      ],
      "name": "transferOwnership",
      "outputs": [],
      "payable": false,
      "stateMutability": "nonpayable",
      "type": "function"
    },
    {
      "constant": true,
      "inputs": [
        {
          "name": "_owner",
          "type": "address"
        },
        {
          "name": "_spender",
          "type": "address"
        }
      ],
      "name": "cAllowance",
      "outputs": [
        {
          "name": "",
          "type": "uint256"
        }
      ],
      "payable": false,
      "stateMutability": "view",
      "type": "function"
    },
    {
      "inputs": [
        {
          "name": "_rst",
          "type": "address"
        },
        {
          "name": "_amount",
          "type": "uint256"
        },
        {
          "name": "_only",
          "type": "bool"
        },
        {
          "name": "_max",
          "type": "uint8"
        }
      ],
      "payable": false,
      "stateMutability": "nonpayable",
      "type": "constructor"
    },
    {
      "anonymous": false,
      "inputs": [
        {
          "indexed": false,
          "name": "member",
          "type": "address"
        },
        {
          "indexed": false,
          "name": "score",
          "type": "uint256"
        },
        {
          "indexed": false,
          "name": "amount",
          "type": "uint256"
        }
      ],
      "name": "Apply",
      "type": "event"
    },
    {
      "anonymous": false,
      "inputs": [
        {
          "indexed": false,
          "name": "member",
          "type": "address"
        },
        {
          "indexed": false,
          "name": "id",
          "type": "uint256"
        },
        {
          "indexed": false,
          "name": "amount",
          "type": "uint256"
        }
      ],
      "name": "Join",
      "type": "event"
    },
    {
      "anonymous": false,
      "inputs": [
        {
          "indexed": false,
          "name": "member",
          "type": "address"
        },
        {
          "indexed": false,
          "name": "score",
          "type": "uint256"
        },
        {
          "indexed": false,
          "name": "amount",
          "type": "uint256"
        }
      ],
      "name": "Scoring",
      "type": "event"
    },
    {
      "anonymous": false,
      "inputs": [
        {
          "indexed": false,
          "name": "id",
          "type": "uint256"
        },
        {
          "indexed": false,
          "name": "amount",
          "type": "uint256"
        },
        {
          "indexed": false,
          "name": "score",
          "type": "uint256"
        }
      ],
      "name": "Activate",
      "type": "event"
    },
    {
      "anonymous": false,
      "inputs": [
        {
          "indexed": false,
          "name": "id",
          "type": "uint256"
        },
        {
          "indexed": false,
          "name": "claim",
          "type": "uint256"
        },
        {
          "indexed": false,
          "name": "number",
          "type": "uint8"
        }
      ],
      "name": "Claim",
      "type": "event"
    },
    {
      "anonymous": false,
      "inputs": [
        {
          "indexed": false,
          "name": "jury",
          "type": "address"
        },
        {
          "indexed": false,
          "name": "id",
          "type": "uint256"
        },
        {
          "indexed": false,
          "name": "positive",
          "type": "bool"
        }
      ],
      "name": "Vote",
      "type": "event"
    },
    {
      "anonymous": false,
      "inputs": [
        {
          "indexed": false,
          "name": "reciever",
          "type": "address"
        },
        {
          "indexed": false,
          "name": "id",
          "type": "uint256"
        },
        {
          "indexed": false,
          "name": "amount",
          "type": "uint256"
        },
        {
          "indexed": false,
          "name": "status",
          "type": "uint8"
        }
      ],
      "name": "Payment",
      "type": "event"
    },
    {
      "anonymous": false,
      "inputs": [
        {
          "indexed": false,
          "name": "id",
          "type": "uint256"
        },
        {
          "indexed": false,
          "name": "poolId",
          "type": "uint256"
        },
        {
          "indexed": false,
          "name": "level",
          "type": "uint8"
        }
      ],
      "name": "InsertPool",
      "type": "event"
    },
    {
      "anonymous": false,
      "inputs": [
        {
          "indexed": false,
          "name": "id",
          "type": "uint256"
        },
        {
          "indexed": false,
          "name": "superPoolValue",
          "type": "uint256"
        },
        {
          "indexed": false,
          "name": "poolValue",
          "type": "uint256"
        },
        {
          "indexed": false,
          "name": "subPoolValue",
          "type": "uint256"
        },
        {
          "indexed": false,
          "name": "comission",
          "type": "uint256"
        }
      ],
      "name": "DistributeValue",
      "type": "event"
    },
    {
      "anonymous": false,
      "inputs": [
        {
          "indexed": false,
          "name": "id",
          "type": "uint256"
        },
        {
          "indexed": false,
          "name": "value",
          "type": "uint256"
        }
      ],
      "name": "SecondTierCall",
      "type": "event"
    },
    {
      "anonymous": false,
      "inputs": [
        {
          "indexed": false,
          "name": "id",
          "type": "uint256"
        },
        {
          "indexed": false,
          "name": "poolId",
          "type": "uint256"
        },
        {
          "indexed": false,
          "name": "value",
          "type": "uint256"
        },
        {
          "indexed": false,
          "name": "level",
          "type": "uint8"
        }
      ],
      "name": "ShortOfFunds",
      "type": "event"
    },
    {
      "anonymous": false,
      "inputs": [
        {
          "indexed": false,
          "name": "id",
          "type": "uint256"
        },
        {
          "indexed": false,
          "name": "value",
          "type": "uint256"
        },
        {
          "indexed": false,
          "name": "level",
          "type": "uint8"
        }
      ],
      "name": "PaymentValue",
      "type": "event"
    },
    {
      "anonymous": false,
      "inputs": [
        {
          "indexed": false,
          "name": "nodeId",
          "type": "uint256"
        },
        {
          "indexed": false,
          "name": "parentId",
          "type": "uint256"
        },
        {
          "indexed": false,
          "name": "level",
          "type": "uint256"
        }
      ],
      "name": "AddToken",
      "type": "event"
    },
    {
      "anonymous": false,
      "inputs": [
        {
          "indexed": false,
          "name": "nodeId",
          "type": "uint256"
        },
        {
          "indexed": false,
          "name": "level",
          "type": "uint256"
        }
      ],
      "name": "RemoveToken",
      "type": "event"
    },
    {
      "anonymous": false,
      "inputs": [
        {
          "indexed": false,
          "name": "from",
          "type": "address"
        },
        {
          "indexed": false,
          "name": "fromId",
          "type": "uint256"
        },
        {
          "indexed": false,
          "name": "to",
          "type": "address"
        },
        {
          "indexed": false,
          "name": "toId",
          "type": "uint256"
        },
        {
          "indexed": false,
          "name": "value",
          "type": "uint256"
        }
      ],
      "name": "Transfer",
      "type": "event"
    },
    {
      "anonymous": false,
      "inputs": [
        {
          "indexed": false,
          "name": "to",
          "type": "address"
        },
        {
          "indexed": false,
          "name": "toId",
          "type": "uint256"
        },
        {
          "indexed": false,
          "name": "value",
          "type": "uint256"
        }
      ],
      "name": "AddValue",
      "type": "event"
    },
    {
      "anonymous": false,
      "inputs": [
        {
          "indexed": false,
          "name": "from",
          "type": "address"
        },
        {
          "indexed": false,
          "name": "fromId",
          "type": "uint256"
        },
        {
          "indexed": false,
          "name": "value",
          "type": "uint256"
        }
      ],
      "name": "RemoveValue",
      "type": "event"
    },
    {
      "anonymous": false,
      "inputs": [
        {
          "indexed": false,
          "name": "to",
          "type": "address"
        },
        {
          "indexed": false,
          "name": "toId",
          "type": "uint256"
        },
        {
          "indexed": false,
          "name": "level",
          "type": "uint256"
        }
      ],
      "name": "SetLevel",
      "type": "event"
    },
    {
      "anonymous": false,
      "inputs": [
        {
          "indexed": false,
          "name": "to",
          "type": "address"
        },
        {
          "indexed": false,
          "name": "toId",
          "type": "uint256"
        }
      ],
      "name": "IncreaseLevel",
      "type": "event"
    },
    {
      "anonymous": false,
      "inputs": [
        {
          "indexed": true,
          "name": "_prevOwner",
          "type": "address"
        },
        {
          "indexed": true,
          "name": "_newOwner",
          "type": "address"
        }
      ],
      "name": "OwnerUpdate",
      "type": "event"
    },
    {
      "anonymous": false,
      "inputs": [
        {
          "indexed": false,
          "name": "fromId",
          "type": "uint256"
        },
        {
          "indexed": false,
          "name": "spender",
          "type": "address"
        },
        {
          "indexed": false,
          "name": "toId",
          "type": "uint256"
        },
        {
          "indexed": false,
          "name": "value",
          "type": "uint256"
        }
      ],
      "name": "CApproveFrom",
      "type": "event"
    },
    {
      "anonymous": false,
      "inputs": [
        {
          "indexed": false,
          "name": "spender",
          "type": "address"
        },
        {
          "indexed": false,
          "name": "value",
          "type": "uint256"
        }
      ],
      "name": "CApprove",
      "type": "event"
    },
    {
      "anonymous": false,
      "inputs": [
        {
          "indexed": false,
          "name": "from",
          "type": "address"
        },
        {
          "indexed": false,
          "name": "fromId",
          "type": "uint256"
        },
        {
          "indexed": false,
          "name": "to",
          "type": "address"
        },
        {
          "indexed": false,
          "name": "toId",
          "type": "uint256"
        },
        {
          "indexed": false,
          "name": "value",
          "type": "uint256"
        },
        {
          "indexed": false,
          "name": "allowance",
          "type": "uint256"
        }
      ],
      "name": "CTransferFrom",
      "type": "event"
    },
    {
      "anonymous": false,
      "inputs": [
        {
          "indexed": false,
          "name": "to",
          "type": "address"
        },
        {
          "indexed": false,
          "name": "toId",
          "type": "uint256"
        },
        {
          "indexed": false,
          "name": "amount",
          "type": "uint256"
        }
      ],
      "name": "CIssue",
      "type": "event"
    },
    {
      "anonymous": false,
      "inputs": [
        {
          "indexed": false,
          "name": "from",
          "type": "address"
        },
        {
          "indexed": false,
          "name": "fromId",
          "type": "uint256"
        },
        {
          "indexed": false,
          "name": "amount",
          "type": "uint256"
        }
      ],
      "name": "CDestroy",
      "type": "event"
    },
    {
      "anonymous": false,
      "inputs": [
        {
          "indexed": false,
          "name": "from",
          "type": "address"
        },
        {
          "indexed": false,
          "name": "to",
          "type": "address"
        },
        {
          "indexed": false,
          "name": "tokenId",
          "type": "uint256"
        }
      ],
      "name": "Transfer",
      "type": "event"
    },
    {
      "anonymous": false,
      "inputs": [
        {
          "indexed": false,
          "name": "owner",
          "type": "address"
        },
        {
          "indexed": false,
          "name": "approved",
          "type": "address"
        },
        {
          "indexed": false,
          "name": "tokenId",
          "type": "uint256"
        }
      ],
      "name": "Approval",
      "type": "event"
    },
    {
      "anonymous": false,
      "inputs": [
        {
          "indexed": false,
          "name": "value",
          "type": "uint256"
        },
        {
          "indexed": false,
          "name": "metadata",
          "type": "string"
        },
        {
          "indexed": false,
          "name": "kind",
          "type": "uint256"
        },
        {
          "indexed": false,
          "name": "owner",
          "type": "address"
        }
      ],
      "name": "Birth",
      "type": "event"
    }
  ],
  "bytecode": "0x606060405234156200001057600080fd5b6040516080806200526b8339810160405280805191906020018051919060200180519190602001805191506040905080519081016040908152601882527f4c7567676167652043726f7764737572616e6365204e4654000000000000000060208301528051908101604052600381527f4c435300000000000000000000000000000000000000000000000000000000006020820152818160008080620000b562000a72565b620000bf62000a72565b620000c962000a72565b60028054600160a060020a03191633600160a060020a03161790558787818181816000828051620000ff92916020019062000aac565b5060018180516200011592916020019062000aac565b5050600a8054600160a060020a03191633600160a060020a031617905550506004600c55506200019b91506000905060408051908101604052600981527f5375706572506f6f6c00000000000000000000000000000000000000000000006020820152600a54600190600160a060020a0316640100000000620040446200062582021704565b9550620001fa600060408051908101604052600481527f506f6f6c000000000000000000000000000000000000000000000000000000006020820152600a54600190600160a060020a0316640100000000620040446200062582021704565b945062000259600060408051908101604052600781527f537562506f6f6c000000000000000000000000000000000000000000000000006020820152600a54600290600160a060020a0316640100000000620040446200062582021704565b9350620002758587640100000000620011436200083682021704565b6200028f8486640100000000620011436200083682021704565b60c060405190810160405280600060ff16815260200160018152602001600a815260200160018152602001878152602001600a8152509250600e8054806001018281620002dd919062000b31565b600092835260209092208591600602018151815460ff191660ff919091161781556020820151816001015560408201518160020155606082015181600301556080820151816004015560a0820151816005015550505060c060405190810160405280600160ff168152602001600a8152602001606481526020016001815260200186815260200160148152509150600e805480600101828162000381919062000b31565b600092835260209092208491600602018151815460ff191660ff919091161781556020820151816001015560408201518160020155606082015181600301556080820151816004015560a0820151816005015550505060c060405190810160405280600260ff1681526020016103e88152602001606481526020016001815260200185815260200160328152509050600e805480600101828162000426919062000b31565b600092835260209092208391600602018151815460ff191660ff919091161781556020820151816001015560408201518160020155606082015181600301556080820151816004015560a08201518160050155505050505050505050505067016345785d8a0000600f6000018190555062ed4e00600f60010181905550678ac7230489e80000600f600201819055506001600f60030160006101000a81548160ff021916908360ff1602179055506050600f60030160016101000a81548160ff021916908360ff160217905550678ac7230489e80000600f600401819055506003600f60050160006101000a81548160ff021916908360ff1602179055506202a30060ff16600f600601819055506005600f60070160006101000a81548160ff021916908360ff160217905550505083601c60006101000a815481600160a060020a030219169083600160a060020a03160217905550664380663abb8000600f60000181905550673782dace9d900000600f600201819055506000831415620005b85764012a05f200601d55620005be565b601d8390555b60ff81161515620005de57601e805461ff001916610500179055620005f3565b601e805461ff00191661010060ff8416021790555b50601e805491151560ff199283161790556701aa535d3d0c0000601f556020805490911660501790555062000cd09050565b60006200063162000b65565b600060a060405190810160405280888152602001878152602001868152602001600081526020016000815250915060016003805480600101828162000677919062000b9d565b6000928352602090922085916005020181518155602082015181600101908051620006a792916020019062000aac565b5060408201518160020155606082015181600301556080820151600490910155500390508015156200074057600160038054806001018281620006eb919062000b9d565b60009283526020909220859160050201815181556020820151816001019080516200071b92916020019062000aac565b5060408201518160020155606082015181600301556080820151816004015550500390505b63ffffffff811681146200075357600080fd5b7fdea8e87d69047e1b3cd43ad599d34e3eacfe4408b4dfc5d0f6ac6a15a468de5c8787878760405184815260408101839052600160a060020a038216606082015260806020820181815290820185818151815260200191508051906020019080838360005b83811015620007d2578082015183820152602001620007b8565b50505050905090810190601f168015620008005780820380516001836020036101000a031916815260200191505b509550505050505060405180910390a16200082c600085836401000000006200374e6200096b82021704565b9695505050505050565b811580159062000847575060035482105b15156200085357600080fd5b801580159062000864575060035481105b15156200087057600080fd5b6001600c54036003828154811015156200088657fe5b906000526020600020906005020160030154101515620008a557600080fd5b6000828152600d602052604090208190556003805482908110620008c557fe5b906000526020600020906005020160030154600101600383815481101515620008ea57fe5b9060005260206000209060050201600301819055507f0900f87897aa374bb21fa36753905fa2944dd2301242246101a9047a0ed227a082826003858154811015156200093257fe5b90600052602060002090600502016003015460405180848152602001838152602001828152602001935050505060405180910390a15050565b6104006003828154811015156200097e57fe5b906000526020600020906005020160040154141515156200099b57fe5b600160a060020a03808316600081815260056020908152604080832080546001019055858352600490915290208054600160a060020a031916909117905583161562000a1d57600160a060020a03831660009081526005602090815260408083208054600019019055838352600690915290208054600160a060020a03191690555b7fddf252ad1be2c89b69c2b068fc378daa952ba7f163c4a11628f55a4df523b3ef838383604051600160a060020a039384168152919092166020820152604080820192909252606001905180910390a1505050565b60c060405190810160405280600060ff16815260200160008152602001600081526020016000815260200160008152602001600081525090565b828054600181600116156101000203166002900490600052602060002090601f016020900481019282601f1062000aef57805160ff191683800117855562000b1f565b8280016001018555821562000b1f579182015b8281111562000b1f57825182559160200191906001019062000b02565b5062000b2d92915062000bcc565b5090565b81548183558181151162000b605760060281600602836000526020600020918201910162000b60919062000bec565b505050565b60a0604051908101604052806000815260200162000b8262000c30565b81526020016000815260200160008152602001600081525090565b81548183558181151162000b605760050281600502836000526020600020918201910162000b60919062000c42565b62000be991905b8082111562000b2d576000815560010162000bd3565b90565b62000be991905b8082111562000b2d57805460ff19168155600060018201819055600282018190556003820181905560048201819055600582015560060162000bf3565b60206040519081016040526000815290565b62000be991905b8082111562000b2d57600080825562000c66600183018262000c85565b5060006002820181905560038201819055600482015560050162000c49565b50805460018160011615610100020316600290046000825580601f1062000cad575062000ccd565b601f01602090049060005260206000209081019062000ccd919062000bcc565b50565b61458b8062000ce06000396000f3006060604052600436106103155763ffffffff7c0100000000000000000000000000000000000000000000000000000000600035041662607b7f811461031a57806301ffc9a71461034457806306fdde031461037c578063095ea7b3146104065780630e13dd741461042a57806317b9ebec1461046957806318160ddd146104825780631cced51b146104a75780631d36e06c146104f25780631de565d61461052457806323b872dd14610537578063296250051461055f57806332c4ee831461058457806336c5d724146105a657806339e6cdb1146105bc5780633c7e7d28146105de5780634cabcfac146105fd5780634dc621fa14610622578063523727771461064b578063545c3d551461065e5780636352211e1461068357806366d80ba5146106995780636914db60146106bb57806370a08231146106d157806379ba5097146106f057806381d12c58146107035780638462151c1461075657806389035730146107c85780638b3c99e31461082f5780638da5cb5b146108455780638f1fc77c14610858578063930f34fd1461086b57806395d89b411461088157806398dc5c95146108945780639a6c614e146108bc5780639ca08831146108cf578063a3ec138d146108e5578063a846c2fd14610904578063a8bd9c321461091a578063a9059cbb14610930578063b121f2ac14610952578063b129273f14610974578063b13570791461098d578063b260c42a146109ac578063b688a363146109c2578063b9f05f2f146109ca578063bc89b1cf146109ec578063bf622665146109ff578063c0521d7614610a27578063c349026314610a4c578063c52380e914610a65578063c9d27afe14610a84578063cadf338f14610a9f578063cbbc9f8914610ab5578063cc06c35914610ada578063cf7c436714610aed578063d0d8074a14610b12578063d4ee1d9014610b25578063db595b3b14610b38578063db85d59c14610b4b578063dd62ed3e14610bad578063dd6d3ca714610bd2578063e176507314610be5578063e527cc9d14610bfb578063e65d6b4914610c20578063f2fde38b14610c33578063f81fd7ea14610c52575b600080fd5b341561032557600080fd5b610330600435610c77565b604051901515815260200160405180910390f35b341561034f57600080fd5b6103307fffffffff0000000000000000000000000000000000000000000000000000000060043516610cd9565b341561038757600080fd5b61038f610fb2565b60405160208082528190810183818151815260200191508051906020019080838360005b838110156103cb5780820151838201526020016103b3565b50505050905090810190601f1680156103f85780820380516001836020036101000a031916815260200191505b509250505060405180910390f35b341561041157600080fd5b610428600160a060020a036004351660243561105b565b005b341561043557600080fd5b6104406004356110ce565b604051921515835260ff9182166020840152166040808301919091526060909101905180910390f35b341561047457600080fd5b610428600435602435611143565b341561048d57600080fd5b61049561126f565b60405190815260200160405180910390f35b34156104b257600080fd5b6104ba61128a565b6040518082608080838360005b838110156104df5780820151838201526020016104c7565b5050505090500191505060405180910390f35b34156104fd57600080fd5b61050860043561136d565b604051600160a060020a03909116815260200160405180910390f35b341561052f57600080fd5b610508611388565b341561054257600080fd5b610428600160a060020a0360043581169060243516604435611397565b341561056a57600080fd5b610428600160a060020a0360043516602435604435611407565b341561058f57600080fd5b610330600160a060020a03600435166024356114b7565b34156105b157600080fd5b6104286004356115b5565b34156105c757600080fd5b610428600160a060020a0360043516602435611656565b34156105e957600080fd5b610495600160a060020a0360043516611712565b341561060857600080fd5b610428600160a060020a0360043516602435604435611724565b341561062d57600080fd5b6106356117d2565b60405160ff909116815260200160405180910390f35b341561065657600080fd5b6103306117db565b341561066957600080fd5b610428600160a060020a03600435166024356044356117e4565b341561068e57600080fd5b610508600435611892565b34156106a457600080fd5b610330600160a060020a03600435166024356118b6565b34156106c657600080fd5b61038f6004356118ef565b34156106dc57600080fd5b610495600160a060020a03600435166119b6565b34156106fb57600080fd5b6104286119d1565b341561070e57600080fd5b610719600435611a5f565b604051958652602086019490945260408086019390935260ff91821660608601528116608085015290911660a083015260c0909101905180910390f35b341561076157600080fd5b610775600160a060020a0360043516611a9c565b60405160208082528190810183818151815260200191508051906020019060200280838360005b838110156107b457808201518382015260200161079c565b505050509050019250505060405180910390f35b34156107d357600080fd5b6107db611aad565b604051988952602089019790975260408089019690965260ff9485166060890152928416608088015260a0870191909152821660c086015260e0850152909116610100830152610120909101905180910390f35b341561083a57600080fd5b610428600435611adc565b341561085057600080fd5b610508611e32565b341561086357600080fd5b610495611e41565b341561087657600080fd5b610428600435611e88565b341561088c57600080fd5b61038f611f2f565b341561089f57600080fd5b610330600435600160a060020a0360243516604435606435611fa2565b34156108c757600080fd5b61063561209d565b34156108da57600080fd5b6104956004356120ab565b34156108f057600080fd5b610495600160a060020a03600435166120bd565b341561090f57600080fd5b6104956004356120cf565b341561092557600080fd5b6105086004356120e1565b341561093b57600080fd5b610428600160a060020a03600435166024356120fc565b341561095d57600080fd5b610495600160a060020a0360043516602435612152565b341561097f57600080fd5b610330600435602435612191565b341561099857600080fd5b610495600160a060020a036004351661223a565b34156109b757600080fd5b6104286004356122b3565b6104956122de565b34156109d557600080fd5b610428600160a060020a0360043516602435612541565b34156109f757600080fd5b610495612678565b3415610a0a57600080fd5b610330600160a060020a036004358116906024351660443561267e565b3415610a3257600080fd5b610495600160a060020a036004351660ff60243516612855565b3415610a5757600080fd5b6103306004356024356128d5565b3415610a7057600080fd5b610495600160a060020a0360043516612b0a565b3415610a8f57600080fd5b6104286004356024351515612b1c565b3415610aaa57600080fd5b610495600435612c65565b3415610ac057600080fd5b610495600160a060020a0360043581169060243516612c8f565b3415610ae557600080fd5b610495612cac565b3415610af857600080fd5b610428600160a060020a0360043516602435604435612cb2565b3415610b1d57600080fd5b610495612d91565b3415610b3057600080fd5b610508612d97565b3415610b4357600080fd5b610495612da6565b3415610b5657600080fd5b610b61600435612e2f565b60405197885260208801969096526040808801959095526060870193909352608086019190915260a085015260ff90811660c085015290911660e0830152610100909101905180910390f35b3415610bb857600080fd5b610495600160a060020a0360043581169060243516612e78565b3415610bdd57600080fd5b610495612e95565b3415610bf057600080fd5b610775600435612ebe565b3415610c0657600080fd5b610495600160a060020a0360043581169060243516612f1b565b3415610c2b57600080fd5b610428612f38565b3415610c3e57600080fd5b610428600160a060020a0360043516612fd8565b3415610c5d57600080fd5b610495600160a060020a036004358116906024351661303a565b600a5460009033600160a060020a03908116911614610c9257fe5b8115801590610ca2575060035482105b1515610cad57600080fd5b610cb8826002613092565b1515610cc057fe5b610cc982613343565b1515610cd157fe5b506001919050565b60006040517f737570706f727473496e74657266616365286279746573342900000000000000815260190160405180910390207bffffffffffffffffffffffffffffffffffffffffffffffffffffffff1916827bffffffffffffffffffffffffffffffffffffffffffffffffffffffff19161480610fac57506040517f746f6b656e4d657461646174612875696e743235362c737472696e67290000008152601d0160405180910390206040517f746f6b656e734f664f776e657228616464726573732900000000000000000000815260160160405180910390206040517f7472616e7366657246726f6d28616464726573732c616464726573732c75696e81527f7432353629000000000000000000000000000000000000000000000000000000602082015260250160405180910390206040517f7472616e7366657228616464726573732c75696e743235362900000000000000815260190160405180910390206040517f617070726f766528616464726573732c75696e74323536290000000000000000815260180160405180910390206040517f6f776e65724f662875696e743235362900000000000000000000000000000000815260100160405180910390206040517f62616c616e63654f662861646472657373290000000000000000000000000000815260120160405180910390206040517f746f74616c537570706c792829000000000000000000000000000000000000008152600d0160405180910390206040517f73796d626f6c2829000000000000000000000000000000000000000000000000815260080160405180910390206040517f6e616d6528290000000000000000000000000000000000000000000000000000815260060160405180910390201818181818181818187bffffffffffffffffffffffffffffffffffffffffffffffffffffffff1916827bffffffffffffffffffffffffffffffffffffffffffffffffffffffff1916145b92915050565b610fba614236565b60008054600181600116156101000203166002900480601f0160208091040260200160405190810160405280929190818152602001828054600181600116156101000203166002900480156110505780601f1061102557610100808354040283529160200191611050565b820191906000526020600020905b81548152906001019060200180831161103357829003601f168201915b505050505090505b90565b61106533826136d3565b151561107057600080fd5b61107a81836136f3565b7f8c5be1e5ebec7d5bd14f71427d1e84f3dd0314c0f7b2291e5b200ac8c7c3b925338383604051600160a060020a039384168152919092166020820152604080820192909252606001905180910390a15050565b6000808080808515156110e057600080fd5b6002600087815260196020526040902060060154610100900460ff161461110657600080fd5b50505060009283525050601b6020526040902060028101546001820154600390920154429290910191909111159160ff8083169261010090041690565b8115801590611153575060035482105b151561115e57600080fd5b801580159061116e575060035481105b151561117957600080fd5b6001600c540360038281548110151561118e57fe5b9060005260206000209060050201600301541015156111ac57600080fd5b6000828152600d6020526040902081905560038054829081106111cb57fe5b9060005260206000209060050201600301546001016003838154811015156111ef57fe5b9060005260206000209060050201600301819055507f0900f87897aa374bb21fa36753905fa2944dd2301242246101a9047a0ed227a0828260038581548110151561123657fe5b90600052602060002090600502016003015460405180848152602001838152602001828152602001935050505060405180910390a15050565b6003546000908181111561128257600019015b8091505b5090565b611292614248565b600080825260208201819052604082018190526060820181905260015b6003548110156113685760038054829081106112c757fe5b9060005260206000209060050201600301549150600c548260ff1610156113355760038054829081106112f657fe5b60009182526020909120600590910201548360ff84166004811061131657fe5b6020020151018360ff84166004811061132b57fe5b6020020152611360565b600380548290811061134357fe5b600091825260209091206005909102015460608401510160608401525b6001016112af565b505090565b600460205260009081526040902054600160a060020a031681565b601c54600160a060020a031681565b600160a060020a03821615156113ac57600080fd5b30600160a060020a031682600160a060020a0316141515156113cd57600080fd5b6113d7338261372e565b15156113e257600080fd5b6113ec83826136d3565b15156113f757600080fd5b61140283838361374e565b505050565b600a5433600160a060020a0390811691161461141f57fe5b61142983836136d3565b151561143457600080fd5b8060038381548110151561144457fe5b9060005260206000209060050201600301819055507f48ed1b5769aee6cf16cda3da1db2a0acf83c194c9d2a98ebeff4904567af58f68383836040518084600160a060020a0316600160a060020a03168152602001838152602001828152602001935050505060405180910390a1505050565b6000808080600160a060020a03861615156114d157600080fd5b8415156114dd57600080fd5b3392506114e98361386c565b91506114f48661386c565b90508181141561150357600080fd5b81151561150f57600080fd5b80151561151b57600080fd5b600160a060020a038381166000818152600860209081526040808320948b168084529482528083208690559282528282208690556009815282822093825292909252908190208690557fe051949e9a44e2e9c21ee7d1c7b03ef0bf501aa3b7c4616a8543f229c0bede7a908790879051600160a060020a03909216825260208201526040908101905180910390a150600195945050505050565b600081158015906115c7575060035482105b15156115d257600080fd5b6115db826138b6565b905080156115e857600080fd5b6000828152600d6020526040812055600380547f399c331be71add502e95a2402ba7370605a945c1c6c1dc01c5e30f7e896cfa569184918290811061162957fe5b90600052602060002090600502016003015460405191825260208201526040908101905180910390a15050565b600a5433600160a060020a0390811691161461166e57fe5b61167882826136d3565b151561168357600080fd5b600380548290811061169157fe5b9060005260206000209060050201600301546001016003828154811015156116b557fe5b9060005260206000209060050201600301819055507fb6ffa2bc58069f160ac94855c396bc8a7c591ae4b9e69d78cc004ad2e4d70d858282604051600160a060020a03909216825260208201526040908101905180910390a15050565b60176020526000908152604090205481565b6000600160a060020a038416151561173b57600080fd5b81151561174757600080fd5b508180151561175c576117598461386c565b90505b80151561176857600080fd5b611773848284613914565b7f8ee078ba6dd38678f9ffdc8f1df2d512559df0cae2db32c829459127e10031978484846040518084600160a060020a0316600160a060020a03168152602001838152602001828152602001935050505060405180910390a150505050565b60205460ff1681565b601e5460ff1681565b6000600160a060020a03841615156117fb57600080fd5b81151561180757600080fd5b508180151561181c576118198461386c565b90505b80151561182857600080fd5b611833848284613a02565b7ff3d0e22890d929d2a1cd5ca9e5f6498c4271ce2f0223ab4092297c2d11c9ef758484846040518084600160a060020a0316600160a060020a03168152602001838152602001828152602001935050505060405180910390a150505050565b600081815260046020526040812054600160a060020a0316801515610fac57600080fd5b600080600160a060020a03841615156118ce57600080fd5b8215156118da57600080fd5b50336118e781858561267e565b949350505050565b6118f7614236565b600380548390811061190557fe5b90600052602060002090600502016001018054600181600116156101000203166002900480601f0160208091040260200160405190810160405280929190818152602001828054600181600116156101000203166002900480156119aa5780601f1061197f576101008083540402835291602001916119aa565b820191906000526020600020905b81548152906001019060200180831161198d57829003601f168201915b50505050509050919050565b600160a060020a031660009081526005602052604090205490565b600b5433600160a060020a039081169116146119ec57600080fd5b600b54600a54600160a060020a0391821691167f343765429aea5a34b3ff6a3785a98a5abb2597aca87bfbb58632c173d585373a60405160405180910390a3600b8054600a805473ffffffffffffffffffffffffffffffffffffffff19908116600160a060020a03841617909155169055565b601b6020526000908152604090208054600182015460028301546003909301549192909160ff808216916101008104821691620100009091041686565b611aa4614236565b610fac82613ac4565b600f5460105460115460125460135460145460155460165460ff80861695610100900481169493811692911689565b6000808080841515611aed57600080fd5b611af733866136d3565b1515611b0257600080fd5b6002600086815260196020526040902060060154610100900460ff1614611b2857600080fd5b6000858152601b602052604090206002810154600182015491955001925042831115611b5357600080fd5b600384015460ff6101008204811691161115611c4357601254845461010090910460ff1690606402811515611b8457fe5b049150600160a060020a03331682156108fc0283604051600060405180830381858888f193505050501515611bb857600080fd5b600085815260196020526040902060068101805461ff0019166103001790556004018054830190557f261826fbdc11ee0da48a5356542bcb46786deaed4c215b871d3df7a03652262d33868460035b604051600160a060020a039094168452602084019290925260408084019190915260ff90911660608301526080909101905180910390a1611da0565b600384015460ff808216610100909204161480611c7b5750601454600385015460ff9182166101008204831691831691909101909116105b15611d21576000858152601960205260409081902060030154600160a060020a0333169181156108fc02919051600060405180830381858888f193505050501515611cc557600080fd5b600085815260196020526040902060068101805461ff001916610500179055600381015460049091018054820190557f261826fbdc11ee0da48a5356542bcb46786deaed4c215b871d3df7a03652262d90339087906005611c07565b600085815260196020526040808220600601805461ff0019166104001790557f261826fbdc11ee0da48a5356542bcb46786deaed4c215b871d3df7a03652262d91339188919060049051600160a060020a039094168452602084019290925260408084019190915260ff90911660608301526080909101905180910390a15b600384015462010000900460ff16811015611dee57601a6000600486018360058110611dc857fe5b0154600160a060020a031681526020810191909152604001600090812055600101611da0565b6000858152601b60205260408120818155600181018290556002810182905560038101805462ffffff1916905590611e29600483018261426f565b50505050505050565b600a54600160a060020a031681565b600354600090819060015b81811015611e80576003805482908110611e6257fe5b60009182526020909120600590910201549290920191600101611e4c565b509092915050565b6000611e9433836136d3565b1515611e9f57600080fd5b811515611eab57600080fd5b50600081815260216020526040902054801515611ec757600080fd5b60008281526019602052604090206004015415611ee357600080fd5b60008281526019602052604090819020600401829055600160a060020a0333169082156108fc0290839051600060405180830381858888f193505050501515611f2b57600080fd5b5050565b611f37614236565b60018054600181600116156101000203166002900480601f0160208091040260200160405190810160405280929190818152602001828054600181600116156101000203166002900480156110505780601f1061102557610100808354040283529160200191611050565b600080600160a060020a0385161515611fba57600080fd5b85841415611fc757600080fd5b851515611fd357600080fd5b831515611fdf57600080fd5b821515611feb57600080fd5b5033600160a060020a038181166000818152600860209081526040808320948a168084529482528083208990559282528282208a90556009815282822093825292909252908190208490557fef4beaa380feab20776f162f92bbf15b04c59f8fd4e8ab2508b8d29fed7dfd6190879087908790879051938452600160a060020a03909216602084015260408084019190915260608301919091526080909101905180910390a150600195945050505050565b601e54610100900460ff1681565b600d6020526000908152604090205481565b601a6020526000908152604090205481565b60216020526000908152604090205481565b600660205260009081526040902054600160a060020a031681565b600160a060020a038216151561211157600080fd5b30600160a060020a031682600160a060020a03161415151561213257600080fd5b61213c33826136d3565b151561214757600080fd5b611f2b33838361374e565b600061215e83836136d3565b151561216957600080fd5b600380548390811061217757fe5b906000526020600020906005020160030154905092915050565b600a54600090819033600160a060020a039081169116146121ae57fe5b8315156121ba57600080fd5b8215156121c657600080fd5b602054600f5460649160ff1602048311156121e057600080fd5b600084815260196020526040902060040154156121fc57600080fd5b50600083815260196020526040902060028101546001909101540142811061222357600080fd5b505060009182526021602052604090912055600190565b6000612244614236565b600080600061225286613ac4565b93506000925083519150600090505b818110156122a957600384828151811061227757fe5b906020019060200201518154811061228b57fe5b60009182526020909120600590910201549290920191600101612261565b5090949350505050565b601e543390610100900460ff166122cb826001612855565b106122d557600080fd5b611f2b82613bb9565b33600160a060020a038116600090815260186020526040812054909134918381151561230957600080fd5b601e5460ff1615801561231a575034155b156124ed57601c54600160a060020a0316151561233657600080fd5b601d54151561234457600080fd5b601c54600a54600160a060020a039182169163dd62ed3e918691166000604051602001526040517c010000000000000000000000000000000000000000000000000000000063ffffffff8516028152600160a060020a03928316600482015291166024820152604401602060405180830381600087803b15156123c657600080fd5b6102c65a03f115156123d757600080fd5b5050506040518051601d5490925082101590506123f357600080fd5b600160a060020a038316600090815260176020526040902054601f5490945081028490108015906124265750600f548410155b151561243157600080fd5b601c54600a54601d54600160a060020a03928316926323b872dd9287929116906000604051602001526040517c010000000000000000000000000000000000000000000000000000000063ffffffff8616028152600160a060020a0393841660048201529190921660248201526044810191909152606401602060405180830381600087803b15156124c257600080fd5b6102c65a03f115156124d357600080fd5b5050506040518051905015156124e857600080fd5b61252d565b83158015906124fe5750600f548410155b151561250957600080fd5b600160a060020a038316600090815260176020526040902054841461252d57600080fd5b612538838386613c98565b94505050505090565b600a546000908190819033600160a060020a0390811691161461256057fe5b600160a060020a038516151561257557600080fd5b83151561258157600080fd5b6002600085815260196020526040902060060154610100900460ff16146125a757600080fd5b6000848152601b60205260409020805490935015156125c557600080fd5b60028301546001840154019150428210156125df57600080fd5b50600382015460165460ff6201000090920482169116811061260057600080fd5b846004840160ff83166005811061261357fe5b018054600160a060020a0392831673ffffffffffffffffffffffffffffffffffffffff199091161790556003909301805460ff6201000080830482166001019091160262ff0000199091161790555050919091166000908152601a6020526040902055565b601f5481565b600080808080600160a060020a038716151561269957600080fd5b8515156126a557600080fd5b50505050600160a060020a03848116600081815260086020908152604080832094881680845294825280832054938352808320546009835281842095845294909152902054869290818314156126fa57600080fd5b82151561270657600080fd5b81151561271257600080fd5b80151561271e57600080fd5b8581101561272b57600080fd5b612738848389868a613e55565b600160a060020a038481166000908152600960209081526040808320938b1683529290522080548790039081905515156127b057600160a060020a038481166000818152600960209081526040808320948c168084529482528083208390559282526008815282822090528181208190559182528120555b600160a060020a038085166000908152600960209081526040808320938b168352929052819020547fa085ba1c72fda1f13ecb6e0347284ac7d016a73b7a47c0ba151368bbe5ce2db9918a9185918b9188918c919051600160a060020a0396871681526020810195909552929094166040808501919091526060840191909152608083019390935260a082015260c001905180910390a1506001979650505050505050565b600061285f614236565b600061286a85613ac4565b915060009250600090505b81518110156128cd578360ff166019600084848151811061289257fe5b906020019060200201518152602081019190915260400160002060060154610100900460ff1614156128c5576001909201915b600101612875565b505092915050565b60008060006128e2614292565b8515156128ee57600080fd5b6128f833876136d3565b151561290357600080fd5b84151561290f57600080fd5b6001600087815260196020526040902060060154610100900460ff161461293557600080fd5b60125460008781526019602052604090206006015460ff91821691161061295b57600080fd5b601254610100900460ff166064860281151561297357fe5b601354600089815260196020526040902060040154929091049450908401111561299c57600080fd5b60008681526019602052604090206002810154600190910154019150428210156129c557600080fd5b84815242602080830191909152601554604080840191909152600060a08401819052888152601b90925290208190815181556020820151816001015560408201518160020155606082015160038201805460ff191660ff9290921691909117905560808201518160030160016101000a81548160ff021916908360ff16021790555060a08201518160030160026101000a81548160ff021916908360ff16021790555060c0820151612a7d90600483019060056142df565b50505060008681526019602052604090819020600601805461020061ff001960ff198316600160ff948516018416171617918290557fb3ef0c14cd9ed6533151b9a921ddb33f8716dd3593254ffc741ae770313e3bea9289928992169051928352602083019190915260ff166040808301919091526060909101905180910390a150600195945050505050565b60186020526000908152604090205481565b600080831515612b2b57600080fd5b600160a060020a0333166000908152601a60205260409020548414612b4f57600080fd5b60008481526019602052604090206006015460ff61010090910416600214612b7657600080fd5b50506000828152601b60205260409020600281015460018201540142811015612b9e57600080fd5b8215612bc15760038201805460ff8082166001011660ff19909116179055612be3565b60038201805460ff61010080830482166001019091160261ff00199091161790555b601a600033600160a060020a0316600160a060020a03168152602001908152602001600020600090557f8d85a70fd2c5d140a4a01143492d27ff82cfad4cead313e66c53f39b0feb5e0f338585604051600160a060020a039093168352602083019190915215156040808301919091526060909101905180910390a150505050565b6000600382815481101515612c7657fe5b9060005260206000209060050201600001549050919050565b600960209081526000928352604080842090915290825290205481565b600c5481565b600a5433600160a060020a03908116911614612cca57fe5b600160a060020a0383161515612cdf57600080fd5b811515612ceb57600080fd5b8015801590612cfc5750600f548110155b1515612d0757600080fd5b600160a060020a03831660009081526017602090815260408083208490556018909152908190208390557f21619a95128e7e5c5367774b6479b6edbc059210239e39bbd50dbae00cfe097290849084908490518084600160a060020a0316600160a060020a03168152602001838152602001828152602001935050505060405180910390a1505050565b601d5481565b600b54600160a060020a031681565b33600160a060020a03811660009081526017602090815260408083205460189092529182902054909290917fdafdd0f2a3af66f1d9ab59928d5fb2e9eb5428db4b63362502d21e2511624ff7919083908590518084600160a060020a0316600160a060020a03168152602001838152602001828152602001935050505060405180910390a15090565b6019602052600090815260409020805460018201546002830154600384015460048501546005860154600690960154949593949293919290919060ff8082169161010090041688565b600760209081526000928352604080842090915290825290205481565b600060036000815481101515612ea757fe5b906000526020600020906005020160000154905090565b612ec6614236565b6000828152600d6020526040812054905b600c54811015612f145781838281518110612eee57fe5b60209081029091018101919091526000928352600d905260409091205490600101612ed7565b5050919050565b600860209081526000928352604080842090915290825290205481565b600a5460009033600160a060020a03908116911614612f5357fe5b600380546000908110612f6257fe5b60009182526020909120600590910201549050801515612f8157600080fd5b600060036000815481101515612f9357fe5b6000918252602090912060059091020155600160a060020a03331681156108fc0282604051600060405180830381858888f193505050501515612fd557600080fd5b50565b600a5433600160a060020a03908116911614612ff057fe5b600a54600160a060020a038281169116141561300b57600080fd5b600b805473ffffffffffffffffffffffffffffffffffffffff1916600160a060020a0392909216919091179055565b6000600160a060020a038216151561305157600080fd5b600160a060020a038316151561306657600080fd5b50600160a060020a03918216600090815260096020908152604080832093909416825291909152205490565b60008060008060006130a48787613fe5565b93506130af846138b6565b92506130bb8787614013565b915081831015613122576130cf8785611143565b7f69186e91a26c2cd1f67397df408ddeb0db9249dbd6e2a428ad8ae0d59ba3bc88878588604051928352602083019190915260ff166040808301919091526060909101905180910390a160019450613339565b600e805460ff881690811061313357fe5b906000526020600020906006020160010154600e8760ff1681548110151561315757fe5b90600052602060002090600602016003015414156131785760009450613339565b61326a600060038681548110151561318c57fe5b90600052602060002090600502016001018054600181600116156101000203166002900480601f0160208091040260200160405190810160405280929190818152602001828054600181600116156101000203166002900480156132315780601f1061320657610100808354040283529160200191613231565b820191906000526020600020905b81548152906001019060200180831161321457829003601f168201915b505050505060038781548110151561324557fe5b6000918252602090912060026005909202010154600a54600160a060020a0316614044565b905080156133345761327f8160018803613092565b156133345761328e8782611143565b7f69186e91a26c2cd1f67397df408ddeb0db9249dbd6e2a428ad8ae0d59ba3bc88878288604051928352602083019190915260ff166040808301919091526060909101905180910390a180600e8760ff168154811015156132eb57fe5b6000918252602090912060046006909202010155600e805460ff881690811061331057fe5b60009182526020909120600360069092020101805460019081019091559450613339565b600094505b5050505092915050565b600080808080808080881580159061335c575060035489105b151561336757600080fd5b6001600c540360038a81548110151561337c57fe5b90600052602060002090600502016003015414151561339a57600080fd5b6000898152600d602052604090205496508615156133b757600080fd5b6000878152600d602052604090205495508515156133d457600080fd5b6000868152600d602052604090205494508415156133f157600080fd5b600e8054600290811061340057fe5b90600052602060002090600602016005015460038a81548110151561342157fe5b90600052602060002090600502016000015460640281151561343f57fe5b04935083151561344e57600080fd5b600e8054600190811061345d57fe5b90600052602060002090600602016005015460038a81548110151561347e57fe5b90600052602060002090600502016000015460640281151561349c57fe5b0492508215156134ab57600080fd5b600e805460009081106134ba57fe5b90600052602060002090600602016005015460038a8154811015156134db57fe5b9060005260206000209060050201600001546064028115156134f957fe5b04915081151561350857600080fd5b81838560038c81548110151561351a57fe5b6000918252602090912060059091020154030303905080151561353c57600080fd5b8360038881548110151561354c57fe5b9060005260206000209060050201600001540160038881548110151561356e57fe5b6000918252602090912060059091020155600380548491908890811061359057fe5b906000526020600020906005020160000154016003878154811015156135b257fe5b600091825260209091206005909102015560038054839190879081106135d457fe5b906000526020600020906005020160000154016003868154811015156135f657fe5b6000918252602082206005909102019190915560038054839290811061361857fe5b906000526020600020906005020160000154016003600081548110151561363b57fe5b60009182526020822060059091020191909155600380548b90811061365c57fe5b60009182526020909120600590910201557fcfd3c3fcdcb63bcee48ff9a9ec28351afef5ba4fc9b5a8f46d5aa65565a3b1a38983858785604051808681526020018581526020018481526020018381526020018281526020019550505050505060405180910390a150600198975050505050505050565b600090815260046020526040902054600160a060020a0391821691161490565b600091825260066020526040909120805473ffffffffffffffffffffffffffffffffffffffff1916600160a060020a03909216919091179055565b600090815260066020526040902054600160a060020a0391821691161490565b61040060038281548110151561376057fe5b9060005260206000209060050201600401541415151561377c57fe5b600160a060020a0380831660008181526005602090815260408083208054600101905585835260049091529020805473ffffffffffffffffffffffffffffffffffffffff1916909117905583161561381757600160a060020a0383166000908152600560209081526040808320805460001901905583835260069091529020805473ffffffffffffffffffffffffffffffffffffffff191690555b7fddf252ad1be2c89b69c2b068fc378daa952ba7f163c4a11628f55a4df523b3ef838383604051600160a060020a039384168152919092166020820152604080820192909252606001905180910390a1505050565b6000613876614236565b600061388184613ac4565b9150815190508015156138975760009250612f14565b816000815181106138a457fe5b90602001906020020151949350505050565b6000808083158015906138ca575060035484105b15156138d557600080fd5b6138dd61126f565b915060009250600190505b818111612f14576000818152600d602052604090205484141561390c576001909201915b6001016138e8565b61391e83836136d3565b151561392957600080fd5b80151561393557600080fd5b8060038381548110151561394557fe5b6000918252602090912060059091020154101561396157600080fd5b8060038381548110151561397157fe5b9060005260206000209060050201600001540360038381548110151561399357fe5b60009182526020909120600590910201557f45dacd427fd388bf162986dbc958cdcf160c31b40efe076907cff377b9857c798383836040518084600160a060020a0316600160a060020a03168152602001838152602001828152602001935050505060405180910390a1505050565b613a0c83836136d3565b1515613a1757600080fd5b801515613a2357600080fd5b80600383815481101515613a3357fe5b90600052602060002090600502016000015401600383815481101515613a5557fe5b60009182526020909120600590910201557f20f4934a3b4928cca0e51f3f1eaac12dee9af151a8a8ba5a424a89d93f6bf53d8383836040518084600160a060020a0316600160a060020a03168152602001838152602001828152602001935050505060405180910390a1505050565b613acc614236565b6000613ad6614236565b60008080600160a060020a0387161515613aef57600080fd5b613af8876119b6565b9450841515613b28576000604051805910613b105750595b90808252806020026020018201604052509550613baf565b84604051805910613b365750595b90808252806020026020018201604052509350613b5161126f565b925060009150600190505b828111613bab57600081815260046020526040902054600160a060020a0388811691161415613ba35780848380600101945081518110613b9857fe5b602090810290910101525b600101613b5c565b8395505b5050505050919050565b801515613bc557600080fd5b613bcf33826136d3565b1515613bda57600080fd5b6000818152601960205260409020600301541515613bf757600080fd5b610400600382815481101515613c0957fe5b6000918252602080832060059283020160040193909355838252601990925260409081902060068101805461ff00191661010017905542600182015560038101549201547ff5d2d36fd2c60192fd8f874c962737f1858ff797bf9865d071ade33eeee007019284929091905180848152602001838152602001828152602001935050505060405180910390a150565b600080613ca3614342565b613ce38460408051908101604052600c81527f43726f7764737572616e636500000000000000000000000000000000000000006020820152600089614044565b91506101006040519081016040528042815260200160008152602001600f60010154815260200185815260200160008152602001868152602001600060ff16815260200160006005811115613d3457fe5b60ff16905260008381526019602052604090209091508190815181556020820151816001015560408201518160020155606082015181600301556080820151816004015560a0820151816005015560c082015160068201805460ff191660ff9290921691909117905560e08201516006909101805460ff929092166101000261ff001990921691909117905550613dca82610c77565b507fbca387acb0ba7d06e329c4372885bb664f19a98153ccf3e74e56c136bf0e88c48683866040518084600160a060020a0316600160a060020a03168152602001838152602001828152602001935050505060405180910390a150600160a060020a039490941660009081526017602090815260408083208390556018909152812055509192915050565b613e5f85856136d3565b1515613e6a57600080fd5b613e7483836136d3565b1515613e7f57600080fd5b801515613e8b57600080fd5b83821415613e9857600080fd5b80600385815481101515613ea857fe5b60009182526020909120600590910201541015613ec457600080fd5b610400600385815481101515613ed657fe5b90600052602060002090600502016004015414151515613ef557600080fd5b80600385815481101515613f0557fe5b90600052602060002090600502016000015403600385815481101515613f2757fe5b60009182526020909120600590910201556003805482919084908110613f4957fe5b90600052602060002090600502016000015401600383815481101515613f6b57fe5b60009182526020909120600590910201557f6d401b913d27047ecd2042f0331e2354d30e664920b31480dc71955edb996c388585858585604051600160a060020a0395861681526020810194909452919093166040808401919091526060830193909352608082015260a001905180910390a15050505050565b6000600e8260ff16815481101515613ff957fe5b906000526020600020906006020160040154905092915050565b60006001600e8360ff1681548110151561402957fe5b90600052602060002090600602016002015403905092915050565b600061404e61438e565b600060a060405190810160405280888152602001878152602001868152602001600081526020016000815250915060016003805480600101828161409291906143c4565b60009283526020909220859160050201815181556020820151816001019080516140c09291602001906143f0565b5060408201518160020155606082015181600301556080820151600490910155500390508015156141545760016003805480600101828161410191906143c4565b600092835260209092208591600502018151815560208201518160010190805161412f9291602001906143f0565b5060408201518160020155606082015181600301556080820151816004015550500390505b63ffffffff8116811461416657600080fd5b7fdea8e87d69047e1b3cd43ad599d34e3eacfe4408b4dfc5d0f6ac6a15a468de5c8787878760405184815260408101839052600160a060020a038216606082015260806020820181815290820185818151815260200191508051906020019080838360005b838110156141e35780820151838201526020016141cb565b50505050905090810190601f1680156142105780820380516001836020036101000a031916815260200191505b509550505050505060405180910390a161422c6000858361374e565b9695505050505050565b60206040519081016040526000815290565b60806040519081016040526004815b60008152602001906001900390816142575790505090565b506000815560010160008155600101600081556001016000815560010160009055565b61016060405190810160405280600081526020016000815260200160008152602001600060ff168152602001600060ff168152602001600060ff1681526020016142da61446a565b905290565b8260058101928215614336579160200282015b82811115614336578251825473ffffffffffffffffffffffffffffffffffffffff1916600160a060020a0391909116178255602092909201916001909101906142f2565b50611286929150614492565b61010060405190810160405280600081526020016000815260200160008152602001600081526020016000815260200160008152602001600060ff168152602001600060ff1681525090565b60a060405190810160405280600081526020016143a9614236565b81526020016000815260200160008152602001600081525090565b8154818355818115116114025760050281600502836000526020600020918201910161140291906144c3565b828054600181600116156101000203166002900490600052602060002090601f016020900481019282601f1061443157805160ff191683800117855561445e565b8280016001018555821561445e579182015b8281111561445e578251825591602001919060010190614443565b50611286929150614501565b60a06040519081016040526005815b6000815260001990910190602001816144795790505090565b61105891905b8082111561128657805473ffffffffffffffffffffffffffffffffffffffff19168155600101614498565b61105891905b808211156112865760008082556144e3600183018261451b565b506000600282018190556003820181905560048201556005016144c9565b61105891905b808211156112865760008155600101614507565b50805460018160011615610100020316600290046000825580601f106145415750612fd5565b601f016020900490600052602060002090810190612fd591906145015600a165627a7a7230582016ec545cf6307fe76160dba03e36f9d43ae3d4d6be473acda752a084f27613ba0029",
  "source": "// \n// MIT License\n// \n// Copyright (c) 2018 REGA Risk Sharing\n//   \n// Permission is hereby granted, free of charge, to any person obtaining a copy\n// of this software and associated documentation files (the \"Software\"), to deal\n// in the Software without restriction, including without limitation the rights\n// to use, copy, modify, merge, publish, distribute, sublicense, and/or sell\n// copies of the Software, and to permit persons to whom the Software is\n// furnished to do so, subject to the following conditions:\n// \n// The above copyright notice and this permission notice shall be included in all\n// copies or substantial portions of the Software.\n// \n// THE SOFTWARE IS PROVIDED \"AS IS\", WITHOUT WARRANTY OF ANY KIND, EXPRESS OR\n// IMPLIED, INCLUDING BUT NOT LIMITED TO THE WARRANTIES OF MERCHANTABILITY,\n// FITNESS FOR A PARTICULAR PURPOSE AND NONINFRINGEMENT. IN NO EVENT SHALL THE\n// AUTHORS OR COPYRIGHT HOLDERS BE LIABLE FOR ANY CLAIM, DAMAGES OR OTHER\n// LIABILITY, WHETHER IN AN ACTION OF CONTRACT, TORT OR OTHERWISE, ARISING FROM,\n// OUT OF OR IN CONNECTION WITH THE SOFTWARE OR THE USE OR OTHER DEALINGS IN THE\n// SOFTWARE.\n// \n// Author: Sergei Sevriugin\n// Version: 0.0.1\n//  \n\npragma solidity ^0.4.17;\n\nimport './TokenCrowdsurance.sol';\nimport './interfaces/IERC20Token.sol';\n\n/// Luggage crowdsurance protection product based on TokenCrowdsurance NFT token \ncontract LuggageCrowdsurance is TokenCrowdsurance {\n    /// REGA Risk Sharing Token smart contract address\n    IERC20Token public  RST;                // RST smart contract address\n    uint256     public  joinAmountRST;      // Join amount in RST\n    bool        public  ETHOnly;            // Join only for RST tokens\n    uint8       public  maxHold;            // Maximum number of toikens for one address\n    uint256     public  rstETHRate;         // RST/ETH rate\n    uint8       public  paybackRatio;       // Payback ratio\n\n    mapping (uint256 => uint256) public payback;    // payback mapping\n    /// join function\n    /// @return cowdsuranceId NFT token ID for created crowdsurance\n    function join() public payable returns(uint256 cowdsuranceId) {\n        uint256 amount = msg.value;\n        address member = msg.sender;\n        uint256 score = addressToScore[member];\n        require(score != uint256(0));\n\n        if (!ETHOnly && msg.value == uint256(0)) {\n            // now need to check that the member has approved the transfer joinAmountRST to join\n            require(RST != address(0));                     // check that we have valid contract address\n            require(joinAmountRST != uint256(0));           // join RST amount must be > 0\n            uint256 rstAmt = RST.allowance(member, owner);  // check if the member has gave permision to spend some amount\n            require(rstAmt >= joinAmountRST);               // ... and check if allowance is more then joinAmount\n            amount = addressToAmount[member];               // get join amount and check...\n            require((rstAmt * rstETHRate) >= amount && amount >= parameters.joinAmount);\n            // transfer join RST amount to the owner account\n            require(RST.transferFrom(member, owner, joinAmountRST));\n        }\n        else {\n            require(amount != uint256(0) && amount >= parameters.joinAmount);\n            require(amount == addressToAmount[member]);\n        }\n        // call internal _join after all checkups \n        cowdsuranceId = _join(member, score, amount);\n    }\n    /// set payback amount function\n    /// @param _id crowdsurance token ID\n    /// @param _amount payback amount to set\n    /// @return true if successful \n    function setPayback(uint256 _id, uint256 _amount) ownerOnly public returns (bool) {\n        require(_id != uint256(0));\n        require(_amount != uint256(0));\n        require(_amount <= parameters.joinAmount * paybackRatio / 100);\n        require(extensions[_id].paid == uint256(0));\n        uint coverageEnd = extensions[_id].activated + extensions[_id].duration;\n        require(coverageEnd < now);\n        payback[_id] = _amount;\n        return true;\n    }\n    /// get payback function\n    /// @param _id luggage protection token to get payback\n    function getPayback(uint256 _id) public {\n        require(_owns(msg.sender, _id));\n        require(_id != uint256(0));\n        uint256 _amount = payback[_id];\n        require(_amount != uint256(0));\n        require(extensions[_id].paid == uint256(0));\n        extensions[_id].paid = _amount;\n        msg.sender.transfer(_amount);\n    }\n    /// activate function \n    /// @param _id NFT token ID to activate\n    function activate(uint256 _id) public {\n        address member = msg.sender;\n        // check if number of tokens is not more then maxHold\n        require(statusCount(member, uint8(Status.Active)) < maxHold);   \n        super.activate(_id);\n    }\n    /// get commission function\n    function getCommission() ownerOnly public {\n        uint256 commission = nfts[0].value;\n        require(commission != uint256(0)); \n        nfts[0].value = 0;\n        msg.sender.transfer(commission);\n    }\n    function LuggageCrowdsurance(address _rst, uint256 _amount, bool _only, uint8 _max) \n                TokenCrowdsurance(\"Luggage Crowdsurance NFT\", \"LCS\") public {\n        // setting up contract parameters \n        RST = IERC20Token(_rst);\n        parameters.joinAmount = 0.019 ether;\n        parameters.maxClaimAmount = 4 ether; \n        if (_amount == uint256(0)) {\n            joinAmountRST = 5000000000; \n        }\n        else {\n            joinAmountRST = _amount; \n        }\n        if (_max == uint8(0)) {\n            maxHold = 5;\n        }\n        else {\n            maxHold = _max;\n        }\n        ETHOnly = _only;\n        rstETHRate = 0.12 ether;\n        paybackRatio = 80;\n    }\n}",
  "sourcePath": "/Users/sergei/drizzle/contracts/LuggageCrowdsurance.sol",
  "compiler": {
    "name": "solc",
    "version": "0.4.18+commit.9cf6e910.Emscripten.clang"
  },
  "schemaVersion": "1.0.1",
  "updatedAt": "2018-04-28T20:24:36.747Z"
}