{
  "contractName": "LuggageCrowdsurance",
  "abi": [
    {
      "constant": false,
      "inputs": [
        {
          "name": "_id",
          "type": "uint256"
        }
      ],
      "name": "insertPool",
      "outputs": [
        {
          "name": "",
          "type": "bool"
        }
      ],
      "payable": false,
      "stateMutability": "nonpayable",
      "type": "function"
    },
    {
      "constant": true,
      "inputs": [
        {
          "name": "_interfaceID",
          "type": "bytes4"
        }
      ],
      "name": "supportsInterface",
      "outputs": [
        {
          "name": "",
          "type": "bool"
        }
      ],
      "payable": false,
      "stateMutability": "view",
      "type": "function"
    },
    {
      "constant": true,
      "inputs": [],
      "name": "name",
      "outputs": [
        {
          "name": "",
          "type": "string"
        }
      ],
      "payable": false,
      "stateMutability": "view",
      "type": "function"
    },
    {
      "constant": false,
      "inputs": [
        {
          "name": "_to",
          "type": "address"
        },
        {
          "name": "_tokenId",
          "type": "uint256"
        }
      ],
      "name": "approve",
      "outputs": [],
      "payable": false,
      "stateMutability": "nonpayable",
      "type": "function"
    },
    {
      "constant": false,
      "inputs": [
        {
          "name": "_id",
          "type": "uint256"
        }
      ],
      "name": "castNegative",
      "outputs": [],
      "payable": false,
      "stateMutability": "nonpayable",
      "type": "function"
    },
    {
      "constant": true,
      "inputs": [
        {
          "name": "_id",
          "type": "uint256"
        }
      ],
      "name": "votingStatus",
      "outputs": [
        {
          "name": "votingEnded",
          "type": "bool"
        },
        {
          "name": "positive",
          "type": "uint8"
        },
        {
          "name": "negative",
          "type": "uint8"
        }
      ],
      "payable": false,
      "stateMutability": "view",
      "type": "function"
    },
    {
      "constant": false,
      "inputs": [
        {
          "name": "_nodeId",
          "type": "uint256"
        },
        {
          "name": "_parentId",
          "type": "uint256"
        }
      ],
      "name": "addToken",
      "outputs": [],
      "payable": false,
      "stateMutability": "nonpayable",
      "type": "function"
    },
    {
      "constant": true,
      "inputs": [],
      "name": "totalSupply",
      "outputs": [
        {
          "name": "",
          "type": "uint256"
        }
      ],
      "payable": false,
      "stateMutability": "view",
      "type": "function"
    },
    {
      "constant": true,
      "inputs": [],
      "name": "getDistribution",
      "outputs": [
        {
          "name": "distribution",
          "type": "uint256[4]"
        }
      ],
      "payable": false,
      "stateMutability": "view",
      "type": "function"
    },
    {
      "constant": true,
      "inputs": [
        {
          "name": "",
          "type": "uint256"
        }
      ],
      "name": "tokenIndexToOwner",
      "outputs": [
        {
          "name": "",
          "type": "address"
        }
      ],
      "payable": false,
      "stateMutability": "view",
      "type": "function"
    },
    {
      "constant": true,
      "inputs": [],
      "name": "RST",
      "outputs": [
        {
          "name": "",
          "type": "address"
        }
      ],
      "payable": false,
      "stateMutability": "view",
      "type": "function"
    },
    {
      "constant": false,
      "inputs": [
        {
          "name": "_from",
          "type": "address"
        },
        {
          "name": "_to",
          "type": "address"
        },
        {
          "name": "_tokenId",
          "type": "uint256"
        }
      ],
      "name": "transferFrom",
      "outputs": [],
      "payable": false,
      "stateMutability": "nonpayable",
      "type": "function"
    },
    {
      "constant": false,
      "inputs": [
        {
          "name": "_to",
          "type": "address"
        },
        {
          "name": "_toId",
          "type": "uint256"
        },
        {
          "name": "_level",
          "type": "uint256"
        }
      ],
      "name": "setLevel",
      "outputs": [],
      "payable": false,
      "stateMutability": "nonpayable",
      "type": "function"
    },
    {
      "constant": false,
      "inputs": [
        {
          "name": "_spender",
          "type": "address"
        },
        {
          "name": "_value",
          "type": "uint256"
        }
      ],
      "name": "cApprove",
      "outputs": [
        {
          "name": "success",
          "type": "bool"
        }
      ],
      "payable": false,
      "stateMutability": "nonpayable",
      "type": "function"
    },
    {
      "constant": false,
      "inputs": [
        {
          "name": "_nodeId",
          "type": "uint256"
        }
      ],
      "name": "removeToken",
      "outputs": [],
      "payable": false,
      "stateMutability": "nonpayable",
      "type": "function"
    },
    {
      "constant": false,
      "inputs": [
        {
          "name": "_to",
          "type": "address"
        },
        {
          "name": "_toId",
          "type": "uint256"
        }
      ],
      "name": "increaseLevel",
      "outputs": [],
      "payable": false,
      "stateMutability": "nonpayable",
      "type": "function"
    },
    {
      "constant": true,
      "inputs": [
        {
          "name": "",
          "type": "address"
        }
      ],
      "name": "addressToAmount",
      "outputs": [
        {
          "name": "",
          "type": "uint256"
        }
      ],
      "payable": false,
      "stateMutability": "view",
      "type": "function"
    },
    {
      "constant": false,
      "inputs": [
        {
          "name": "_from",
          "type": "address"
        },
        {
          "name": "_fromId",
          "type": "uint256"
        },
        {
          "name": "_amount",
          "type": "uint256"
        }
      ],
      "name": "cDestroy",
      "outputs": [],
      "payable": false,
      "stateMutability": "nonpayable",
      "type": "function"
    },
    {
      "constant": true,
      "inputs": [],
      "name": "paybackRatio",
      "outputs": [
        {
          "name": "",
          "type": "uint8"
        }
      ],
      "payable": false,
      "stateMutability": "view",
      "type": "function"
    },
    {
      "constant": true,
      "inputs": [],
      "name": "ETHOnly",
      "outputs": [
        {
          "name": "",
          "type": "bool"
        }
      ],
      "payable": false,
      "stateMutability": "view",
      "type": "function"
    },
    {
      "constant": false,
      "inputs": [
        {
          "name": "_to",
          "type": "address"
        },
        {
          "name": "_toId",
          "type": "uint256"
        },
        {
          "name": "_amount",
          "type": "uint256"
        }
      ],
      "name": "cIssue",
      "outputs": [],
      "payable": false,
      "stateMutability": "nonpayable",
      "type": "function"
    },
    {
      "constant": true,
      "inputs": [
        {
          "name": "_tokenId",
          "type": "uint256"
        }
      ],
      "name": "ownerOf",
      "outputs": [
        {
          "name": "",
          "type": "address"
        }
      ],
      "payable": false,
      "stateMutability": "view",
      "type": "function"
    },
    {
      "constant": false,
      "inputs": [
        {
          "name": "_to",
          "type": "address"
        },
        {
          "name": "_value",
          "type": "uint256"
        }
      ],
      "name": "cTransfer",
      "outputs": [
        {
          "name": "success",
          "type": "bool"
        }
      ],
      "payable": false,
      "stateMutability": "nonpayable",
      "type": "function"
    },
    {
      "constant": true,
      "inputs": [
        {
          "name": "_tokenId",
          "type": "uint256"
        }
      ],
      "name": "tokenMetadata",
      "outputs": [
        {
          "name": "infoUrl",
          "type": "string"
        }
      ],
      "payable": false,
      "stateMutability": "view",
      "type": "function"
    },
    {
      "constant": true,
      "inputs": [
        {
          "name": "_owner",
          "type": "address"
        }
      ],
      "name": "balanceOf",
      "outputs": [
        {
          "name": "count",
          "type": "uint256"
        }
      ],
      "payable": false,
      "stateMutability": "view",
      "type": "function"
    },
    {
      "constant": false,
      "inputs": [],
      "name": "acceptOwnership",
      "outputs": [],
      "payable": false,
      "stateMutability": "nonpayable",
      "type": "function"
    },
    {
      "constant": true,
      "inputs": [
        {
          "name": "",
          "type": "uint256"
        }
      ],
      "name": "requests",
      "outputs": [
        {
          "name": "amount",
          "type": "uint256"
        },
        {
          "name": "timeStamp",
          "type": "uint256"
        },
        {
          "name": "duration",
          "type": "uint256"
        },
        {
          "name": "positive",
          "type": "uint8"
        },
        {
          "name": "negative",
          "type": "uint8"
        },
        {
          "name": "number",
          "type": "uint8"
        }
      ],
      "payable": false,
      "stateMutability": "view",
      "type": "function"
    },
    {
      "constant": true,
      "inputs": [
        {
          "name": "_owner",
          "type": "address"
        }
      ],
      "name": "tokensOfOwner",
      "outputs": [
        {
          "name": "ownerTokens",
          "type": "uint256[]"
        }
      ],
      "payable": false,
      "stateMutability": "view",
      "type": "function"
    },
    {
      "constant": true,
      "inputs": [],
      "name": "parameters",
      "outputs": [
        {
          "name": "joinAmount",
          "type": "uint256"
        },
        {
          "name": "coverageDuration",
          "type": "uint256"
        },
        {
          "name": "maxClaimAmount",
          "type": "uint256"
        },
        {
          "name": "maxClaimNumber",
          "type": "uint8"
        },
        {
          "name": "paymentRatio",
          "type": "uint8"
        },
        {
          "name": "maxPaymentAmount",
          "type": "uint256"
        },
        {
          "name": "minJuriesNumber",
          "type": "uint8"
        },
        {
          "name": "votingDuration",
          "type": "uint256"
        },
        {
          "name": "juriesNumber",
          "type": "uint8"
        }
      ],
      "payable": false,
      "stateMutability": "view",
      "type": "function"
    },
    {
      "constant": false,
      "inputs": [
        {
          "name": "_id",
          "type": "uint256"
        }
      ],
      "name": "payment",
      "outputs": [],
      "payable": false,
      "stateMutability": "nonpayable",
      "type": "function"
    },
    {
      "constant": true,
      "inputs": [],
      "name": "owner",
      "outputs": [
        {
          "name": "",
          "type": "address"
        }
      ],
      "payable": false,
      "stateMutability": "view",
      "type": "function"
    },
    {
      "constant": true,
      "inputs": [],
      "name": "cTotalSupply",
      "outputs": [
        {
          "name": "",
          "type": "uint256"
        }
      ],
      "payable": false,
      "stateMutability": "view",
      "type": "function"
    },
    {
      "constant": false,
      "inputs": [
        {
          "name": "_id",
          "type": "uint256"
        }
      ],
      "name": "getPayback",
      "outputs": [],
      "payable": false,
      "stateMutability": "nonpayable",
      "type": "function"
    },
    {
      "constant": true,
      "inputs": [],
      "name": "symbol",
      "outputs": [
        {
          "name": "",
          "type": "string"
        }
      ],
      "payable": false,
      "stateMutability": "view",
      "type": "function"
    },
    {
      "constant": false,
      "inputs": [
        {
          "name": "_fromId",
          "type": "uint256"
        },
        {
          "name": "_spender",
          "type": "address"
        },
        {
          "name": "_toId",
          "type": "uint256"
        },
        {
          "name": "_value",
          "type": "uint256"
        }
      ],
      "name": "cApproveFrom",
      "outputs": [
        {
          "name": "success",
          "type": "bool"
        }
      ],
      "payable": false,
      "stateMutability": "nonpayable",
      "type": "function"
    },
    {
      "constant": true,
      "inputs": [],
      "name": "maxHold",
      "outputs": [
        {
          "name": "",
          "type": "uint8"
        }
      ],
      "payable": false,
      "stateMutability": "view",
      "type": "function"
    },
    {
      "constant": true,
      "inputs": [
        {
          "name": "",
          "type": "uint256"
        }
      ],
      "name": "tokenIndexToPoolToken",
      "outputs": [
        {
          "name": "",
          "type": "uint256"
        }
      ],
      "payable": false,
      "stateMutability": "view",
      "type": "function"
    },
    {
      "constant": true,
      "inputs": [
        {
          "name": "",
          "type": "address"
        }
      ],
      "name": "voters",
      "outputs": [
        {
          "name": "",
          "type": "uint256"
        }
      ],
      "payable": false,
      "stateMutability": "view",
      "type": "function"
    },
    {
      "constant": true,
      "inputs": [
        {
          "name": "",
          "type": "uint256"
        }
      ],
      "name": "payback",
      "outputs": [
        {
          "name": "",
          "type": "uint256"
        }
      ],
      "payable": false,
      "stateMutability": "view",
      "type": "function"
    },
    {
      "constant": true,
      "inputs": [
        {
          "name": "",
          "type": "uint256"
        }
      ],
      "name": "tokenIndexToApproved",
      "outputs": [
        {
          "name": "",
          "type": "address"
        }
      ],
      "payable": false,
      "stateMutability": "view",
      "type": "function"
    },
    {
      "constant": false,
      "inputs": [
        {
          "name": "_to",
          "type": "address"
        },
        {
          "name": "_tokenId",
          "type": "uint256"
        }
      ],
      "name": "transfer",
      "outputs": [],
      "payable": false,
      "stateMutability": "nonpayable",
      "type": "function"
    },
    {
      "constant": true,
      "inputs": [
        {
          "name": "_to",
          "type": "address"
        },
        {
          "name": "_toId",
          "type": "uint256"
        }
      ],
      "name": "getLevel",
      "outputs": [
        {
          "name": "",
          "type": "uint256"
        }
      ],
      "payable": false,
      "stateMutability": "view",
      "type": "function"
    },
    {
      "constant": false,
      "inputs": [
        {
          "name": "_id",
          "type": "uint256"
        },
        {
          "name": "_amount",
          "type": "uint256"
        }
      ],
      "name": "setPayback",
      "outputs": [
        {
          "name": "",
          "type": "bool"
        }
      ],
      "payable": false,
      "stateMutability": "nonpayable",
      "type": "function"
    },
    {
      "constant": true,
      "inputs": [
        {
          "name": "_owner",
          "type": "address"
        }
      ],
      "name": "cBalanceOf",
      "outputs": [
        {
          "name": "",
          "type": "uint256"
        }
      ],
      "payable": false,
      "stateMutability": "view",
      "type": "function"
    },
    {
      "constant": false,
      "inputs": [
        {
          "name": "_id",
          "type": "uint256"
        }
      ],
      "name": "activate",
      "outputs": [],
      "payable": false,
      "stateMutability": "nonpayable",
      "type": "function"
    },
    {
      "constant": false,
      "inputs": [],
      "name": "join",
      "outputs": [
        {
          "name": "cowdsuranceId",
          "type": "uint256"
        }
      ],
      "payable": true,
      "stateMutability": "payable",
      "type": "function"
    },
    {
      "constant": false,
      "inputs": [
        {
          "name": "_jury",
          "type": "address"
        },
        {
          "name": "_id",
          "type": "uint256"
        }
      ],
      "name": "addVoter",
      "outputs": [],
      "payable": false,
      "stateMutability": "nonpayable",
      "type": "function"
    },
    {
      "constant": true,
      "inputs": [],
      "name": "rstETHRate",
      "outputs": [
        {
          "name": "",
          "type": "uint256"
        }
      ],
      "payable": false,
      "stateMutability": "view",
      "type": "function"
    },
    {
      "constant": false,
      "inputs": [
        {
          "name": "_from",
          "type": "address"
        },
        {
          "name": "_to",
          "type": "address"
        },
        {
          "name": "_value",
          "type": "uint256"
        }
      ],
      "name": "cTransferFrom",
      "outputs": [
        {
          "name": "success",
          "type": "bool"
        }
      ],
      "payable": false,
      "stateMutability": "nonpayable",
      "type": "function"
    },
    {
      "constant": true,
      "inputs": [
        {
          "name": "_member",
          "type": "address"
        },
        {
          "name": "_status",
          "type": "uint8"
        }
      ],
      "name": "statusCount",
      "outputs": [
        {
          "name": "count",
          "type": "uint256"
        }
      ],
      "payable": false,
      "stateMutability": "view",
      "type": "function"
    },
    {
      "constant": false,
      "inputs": [
        {
          "name": "_id",
          "type": "uint256"
        },
        {
          "name": "_claim",
          "type": "uint256"
        }
      ],
      "name": "claim",
      "outputs": [
        {
          "name": "",
          "type": "bool"
        }
      ],
      "payable": false,
      "stateMutability": "nonpayable",
      "type": "function"
    },
    {
      "constant": true,
      "inputs": [
        {
          "name": "",
          "type": "address"
        }
      ],
      "name": "addressToScore",
      "outputs": [
        {
          "name": "",
          "type": "uint256"
        }
      ],
      "payable": false,
      "stateMutability": "view",
      "type": "function"
    },
    {
      "constant": false,
      "inputs": [
        {
          "name": "_id",
          "type": "uint256"
        },
        {
          "name": "_positive",
          "type": "bool"
        }
      ],
      "name": "vote",
      "outputs": [],
      "payable": false,
      "stateMutability": "nonpayable",
      "type": "function"
    },
    {
      "constant": true,
      "inputs": [
        {
          "name": "_tokenId",
          "type": "uint256"
        }
      ],
      "name": "valueOf",
      "outputs": [
        {
          "name": "value",
          "type": "uint256"
        }
      ],
      "payable": false,
      "stateMutability": "view",
      "type": "function"
    },
    {
      "constant": true,
      "inputs": [
        {
          "name": "",
          "type": "address"
        },
        {
          "name": "",
          "type": "address"
        }
      ],
      "name": "allowanceAmt",
      "outputs": [
        {
          "name": "",
          "type": "uint256"
        }
      ],
      "payable": false,
      "stateMutability": "view",
      "type": "function"
    },
    {
      "constant": true,
      "inputs": [],
      "name": "maxLevel",
      "outputs": [
        {
          "name": "",
          "type": "uint256"
        }
      ],
      "payable": false,
      "stateMutability": "view",
      "type": "function"
    },
    {
      "constant": false,
      "inputs": [
        {
          "name": "_member",
          "type": "address"
        },
        {
          "name": "_score",
          "type": "uint256"
        },
        {
          "name": "_amount",
          "type": "uint256"
        }
      ],
      "name": "scoring",
      "outputs": [],
      "payable": false,
      "stateMutability": "nonpayable",
      "type": "function"
    },
    {
      "constant": true,
      "inputs": [],
      "name": "joinAmountRST",
      "outputs": [
        {
          "name": "",
          "type": "uint256"
        }
      ],
      "payable": false,
      "stateMutability": "view",
      "type": "function"
    },
    {
      "constant": true,
      "inputs": [],
      "name": "newOwner",
      "outputs": [
        {
          "name": "",
          "type": "address"
        }
      ],
      "payable": false,
      "stateMutability": "view",
      "type": "function"
    },
    {
      "constant": true,
      "inputs": [],
      "name": "apply",
      "outputs": [
        {
          "name": "amount",
          "type": "uint256"
        }
      ],
      "payable": false,
      "stateMutability": "view",
      "type": "function"
    },
    {
      "constant": true,
      "inputs": [
        {
          "name": "",
          "type": "uint256"
        }
      ],
      "name": "extensions",
      "outputs": [
        {
          "name": "timeStamp",
          "type": "uint256"
        },
        {
          "name": "activated",
          "type": "uint256"
        },
        {
          "name": "duration",
          "type": "uint256"
        },
        {
          "name": "amount",
          "type": "uint256"
        },
        {
          "name": "paid",
          "type": "uint256"
        },
        {
          "name": "score",
          "type": "uint256"
        },
        {
          "name": "claimNumber",
          "type": "uint8"
        },
        {
          "name": "status",
          "type": "uint8"
        }
      ],
      "payable": false,
      "stateMutability": "view",
      "type": "function"
    },
    {
      "constant": true,
      "inputs": [
        {
          "name": "",
          "type": "address"
        },
        {
          "name": "",
          "type": "address"
        }
      ],
      "name": "allowance",
      "outputs": [
        {
          "name": "",
          "type": "uint256"
        }
      ],
      "payable": false,
      "stateMutability": "view",
      "type": "function"
    },
    {
      "constant": true,
      "inputs": [],
      "name": "getComission",
      "outputs": [
        {
          "name": "commission",
          "type": "uint256"
        }
      ],
      "payable": false,
      "stateMutability": "view",
      "type": "function"
    },
    {
      "constant": false,
      "inputs": [
        {
          "name": "_id",
          "type": "uint256"
        }
      ],
      "name": "castPositive",
      "outputs": [],
      "payable": false,
      "stateMutability": "nonpayable",
      "type": "function"
    },
    {
      "constant": true,
      "inputs": [
        {
          "name": "_nodeId",
          "type": "uint256"
        }
      ],
      "name": "getPath",
      "outputs": [
        {
          "name": "path",
          "type": "uint256[]"
        }
      ],
      "payable": false,
      "stateMutability": "view",
      "type": "function"
    },
    {
      "constant": true,
      "inputs": [
        {
          "name": "",
          "type": "address"
        },
        {
          "name": "",
          "type": "address"
        }
      ],
      "name": "allowanceIds",
      "outputs": [
        {
          "name": "",
          "type": "uint256"
        }
      ],
      "payable": false,
      "stateMutability": "view",
      "type": "function"
    },
    {
      "constant": false,
      "inputs": [],
      "name": "getCommission",
      "outputs": [],
      "payable": false,
      "stateMutability": "nonpayable",
      "type": "function"
    },
    {
      "constant": false,
      "inputs": [
        {
          "name": "_newOwner",
          "type": "address"
        }
      ],
      "name": "transferOwnership",
      "outputs": [],
      "payable": false,
      "stateMutability": "nonpayable",
      "type": "function"
    },
    {
      "constant": true,
      "inputs": [
        {
          "name": "_owner",
          "type": "address"
        },
        {
          "name": "_spender",
          "type": "address"
        }
      ],
      "name": "cAllowance",
      "outputs": [
        {
          "name": "",
          "type": "uint256"
        }
      ],
      "payable": false,
      "stateMutability": "view",
      "type": "function"
    },
    {
      "inputs": [
        {
          "name": "_rst",
          "type": "address"
        },
        {
          "name": "_amount",
          "type": "uint256"
        },
        {
          "name": "_only",
          "type": "bool"
        },
        {
          "name": "_max",
          "type": "uint8"
        }
      ],
      "payable": false,
      "stateMutability": "nonpayable",
      "type": "constructor"
    },
    {
      "payable": true,
      "stateMutability": "payable",
      "type": "fallback"
    },
    {
      "anonymous": false,
      "inputs": [
        {
          "indexed": false,
          "name": "member",
          "type": "address"
        },
        {
          "indexed": false,
          "name": "score",
          "type": "uint256"
        },
        {
          "indexed": false,
          "name": "amount",
          "type": "uint256"
        }
      ],
      "name": "Apply",
      "type": "event"
    },
    {
      "anonymous": false,
      "inputs": [
        {
          "indexed": false,
          "name": "member",
          "type": "address"
        },
        {
          "indexed": false,
          "name": "id",
          "type": "uint256"
        },
        {
          "indexed": false,
          "name": "amount",
          "type": "uint256"
        }
      ],
      "name": "Join",
      "type": "event"
    },
    {
      "anonymous": false,
      "inputs": [
        {
          "indexed": false,
          "name": "member",
          "type": "address"
        },
        {
          "indexed": false,
          "name": "score",
          "type": "uint256"
        },
        {
          "indexed": false,
          "name": "amount",
          "type": "uint256"
        }
      ],
      "name": "Scoring",
      "type": "event"
    },
    {
      "anonymous": false,
      "inputs": [
        {
          "indexed": false,
          "name": "id",
          "type": "uint256"
        },
        {
          "indexed": false,
          "name": "amount",
          "type": "uint256"
        },
        {
          "indexed": false,
          "name": "score",
          "type": "uint256"
        }
      ],
      "name": "Activate",
      "type": "event"
    },
    {
      "anonymous": false,
      "inputs": [
        {
          "indexed": false,
          "name": "id",
          "type": "uint256"
        },
        {
          "indexed": false,
          "name": "claim",
          "type": "uint256"
        },
        {
          "indexed": false,
          "name": "number",
          "type": "uint8"
        }
      ],
      "name": "Claim",
      "type": "event"
    },
    {
      "anonymous": false,
      "inputs": [
        {
          "indexed": false,
          "name": "jury",
          "type": "address"
        },
        {
          "indexed": false,
          "name": "id",
          "type": "uint256"
        },
        {
          "indexed": false,
          "name": "positive",
          "type": "bool"
        }
      ],
      "name": "Vote",
      "type": "event"
    },
    {
      "anonymous": false,
      "inputs": [
        {
          "indexed": false,
          "name": "reciever",
          "type": "address"
        },
        {
          "indexed": false,
          "name": "id",
          "type": "uint256"
        },
        {
          "indexed": false,
          "name": "amount",
          "type": "uint256"
        },
        {
          "indexed": false,
          "name": "status",
          "type": "uint8"
        }
      ],
      "name": "Payment",
      "type": "event"
    },
    {
      "anonymous": false,
      "inputs": [
        {
          "indexed": false,
          "name": "id",
          "type": "uint256"
        },
        {
          "indexed": false,
          "name": "poolId",
          "type": "uint256"
        },
        {
          "indexed": false,
          "name": "level",
          "type": "uint8"
        }
      ],
      "name": "InsertPool",
      "type": "event"
    },
    {
      "anonymous": false,
      "inputs": [
        {
          "indexed": false,
          "name": "id",
          "type": "uint256"
        },
        {
          "indexed": false,
          "name": "superPoolValue",
          "type": "uint256"
        },
        {
          "indexed": false,
          "name": "poolValue",
          "type": "uint256"
        },
        {
          "indexed": false,
          "name": "subPoolValue",
          "type": "uint256"
        },
        {
          "indexed": false,
          "name": "comission",
          "type": "uint256"
        }
      ],
      "name": "DistributeValue",
      "type": "event"
    },
    {
      "anonymous": false,
      "inputs": [
        {
          "indexed": false,
          "name": "id",
          "type": "uint256"
        },
        {
          "indexed": false,
          "name": "value",
          "type": "uint256"
        }
      ],
      "name": "SecondTierCall",
      "type": "event"
    },
    {
      "anonymous": false,
      "inputs": [
        {
          "indexed": false,
          "name": "id",
          "type": "uint256"
        },
        {
          "indexed": false,
          "name": "poolId",
          "type": "uint256"
        },
        {
          "indexed": false,
          "name": "value",
          "type": "uint256"
        },
        {
          "indexed": false,
          "name": "level",
          "type": "uint8"
        }
      ],
      "name": "ShortOfFunds",
      "type": "event"
    },
    {
      "anonymous": false,
      "inputs": [
        {
          "indexed": false,
          "name": "id",
          "type": "uint256"
        },
        {
          "indexed": false,
          "name": "value",
          "type": "uint256"
        },
        {
          "indexed": false,
          "name": "level",
          "type": "uint8"
        }
      ],
      "name": "PaymentValue",
      "type": "event"
    },
    {
      "anonymous": false,
      "inputs": [
        {
          "indexed": false,
          "name": "nodeId",
          "type": "uint256"
        },
        {
          "indexed": false,
          "name": "parentId",
          "type": "uint256"
        },
        {
          "indexed": false,
          "name": "level",
          "type": "uint256"
        }
      ],
      "name": "AddToken",
      "type": "event"
    },
    {
      "anonymous": false,
      "inputs": [
        {
          "indexed": false,
          "name": "nodeId",
          "type": "uint256"
        },
        {
          "indexed": false,
          "name": "level",
          "type": "uint256"
        }
      ],
      "name": "RemoveToken",
      "type": "event"
    },
    {
      "anonymous": false,
      "inputs": [
        {
          "indexed": false,
          "name": "from",
          "type": "address"
        },
        {
          "indexed": false,
          "name": "fromId",
          "type": "uint256"
        },
        {
          "indexed": false,
          "name": "to",
          "type": "address"
        },
        {
          "indexed": false,
          "name": "toId",
          "type": "uint256"
        },
        {
          "indexed": false,
          "name": "value",
          "type": "uint256"
        }
      ],
      "name": "Transfer",
      "type": "event"
    },
    {
      "anonymous": false,
      "inputs": [
        {
          "indexed": false,
          "name": "to",
          "type": "address"
        },
        {
          "indexed": false,
          "name": "toId",
          "type": "uint256"
        },
        {
          "indexed": false,
          "name": "value",
          "type": "uint256"
        }
      ],
      "name": "AddValue",
      "type": "event"
    },
    {
      "anonymous": false,
      "inputs": [
        {
          "indexed": false,
          "name": "from",
          "type": "address"
        },
        {
          "indexed": false,
          "name": "fromId",
          "type": "uint256"
        },
        {
          "indexed": false,
          "name": "value",
          "type": "uint256"
        }
      ],
      "name": "RemoveValue",
      "type": "event"
    },
    {
      "anonymous": false,
      "inputs": [
        {
          "indexed": false,
          "name": "to",
          "type": "address"
        },
        {
          "indexed": false,
          "name": "toId",
          "type": "uint256"
        },
        {
          "indexed": false,
          "name": "level",
          "type": "uint256"
        }
      ],
      "name": "SetLevel",
      "type": "event"
    },
    {
      "anonymous": false,
      "inputs": [
        {
          "indexed": false,
          "name": "to",
          "type": "address"
        },
        {
          "indexed": false,
          "name": "toId",
          "type": "uint256"
        }
      ],
      "name": "IncreaseLevel",
      "type": "event"
    },
    {
      "anonymous": false,
      "inputs": [
        {
          "indexed": true,
          "name": "_prevOwner",
          "type": "address"
        },
        {
          "indexed": true,
          "name": "_newOwner",
          "type": "address"
        }
      ],
      "name": "OwnerUpdate",
      "type": "event"
    },
    {
      "anonymous": false,
      "inputs": [
        {
          "indexed": false,
          "name": "fromId",
          "type": "uint256"
        },
        {
          "indexed": false,
          "name": "spender",
          "type": "address"
        },
        {
          "indexed": false,
          "name": "toId",
          "type": "uint256"
        },
        {
          "indexed": false,
          "name": "value",
          "type": "uint256"
        }
      ],
      "name": "CApproveFrom",
      "type": "event"
    },
    {
      "anonymous": false,
      "inputs": [
        {
          "indexed": false,
          "name": "spender",
          "type": "address"
        },
        {
          "indexed": false,
          "name": "value",
          "type": "uint256"
        }
      ],
      "name": "CApprove",
      "type": "event"
    },
    {
      "anonymous": false,
      "inputs": [
        {
          "indexed": false,
          "name": "from",
          "type": "address"
        },
        {
          "indexed": false,
          "name": "fromId",
          "type": "uint256"
        },
        {
          "indexed": false,
          "name": "to",
          "type": "address"
        },
        {
          "indexed": false,
          "name": "toId",
          "type": "uint256"
        },
        {
          "indexed": false,
          "name": "value",
          "type": "uint256"
        },
        {
          "indexed": false,
          "name": "allowance",
          "type": "uint256"
        }
      ],
      "name": "CTransferFrom",
      "type": "event"
    },
    {
      "anonymous": false,
      "inputs": [
        {
          "indexed": false,
          "name": "to",
          "type": "address"
        },
        {
          "indexed": false,
          "name": "toId",
          "type": "uint256"
        },
        {
          "indexed": false,
          "name": "amount",
          "type": "uint256"
        }
      ],
      "name": "CIssue",
      "type": "event"
    },
    {
      "anonymous": false,
      "inputs": [
        {
          "indexed": false,
          "name": "from",
          "type": "address"
        },
        {
          "indexed": false,
          "name": "fromId",
          "type": "uint256"
        },
        {
          "indexed": false,
          "name": "amount",
          "type": "uint256"
        }
      ],
      "name": "CDestroy",
      "type": "event"
    },
    {
      "anonymous": false,
      "inputs": [
        {
          "indexed": false,
          "name": "from",
          "type": "address"
        },
        {
          "indexed": false,
          "name": "to",
          "type": "address"
        },
        {
          "indexed": false,
          "name": "tokenId",
          "type": "uint256"
        }
      ],
      "name": "Transfer",
      "type": "event"
    },
    {
      "anonymous": false,
      "inputs": [
        {
          "indexed": false,
          "name": "owner",
          "type": "address"
        },
        {
          "indexed": false,
          "name": "approved",
          "type": "address"
        },
        {
          "indexed": false,
          "name": "tokenId",
          "type": "uint256"
        }
      ],
      "name": "Approval",
      "type": "event"
    },
    {
      "anonymous": false,
      "inputs": [
        {
          "indexed": false,
          "name": "value",
          "type": "uint256"
        },
        {
          "indexed": false,
          "name": "metadata",
          "type": "string"
        },
        {
          "indexed": false,
          "name": "kind",
          "type": "uint256"
        },
        {
          "indexed": false,
          "name": "owner",
          "type": "address"
        }
      ],
      "name": "Birth",
      "type": "event"
    }
  ],
  "bytecode": "0x606060405234156200001057600080fd5b604051608080620052e98339810160405280805191906020018051919060200180519190602001805191506040905080519081016040908152601882527f4c7567676167652043726f7764737572616e6365204e4654000000000000000060208301528051908101604052600381527f4c435300000000000000000000000000000000000000000000000000000000006020820152818160008080620000b562000a76565b620000bf62000a76565b620000c962000a76565b60028054600160a060020a03191633600160a060020a03161790558787818181816000828051620000ff92916020019062000ab0565b5060018180516200011592916020019062000ab0565b5050600a8054600160a060020a03191633600160a060020a031617905550506004600c5550620001a29150678ac7230489e80000905060408051908101604052600981527f5375706572506f6f6c00000000000000000000000000000000000000000000006020820152600a54600190600160a060020a03166401000000006200417f6200062982021704565b955062000201600060408051908101604052600481527f506f6f6c000000000000000000000000000000000000000000000000000000006020820152600a54600190600160a060020a03166401000000006200417f6200062982021704565b945062000260600060408051908101604052600781527f537562506f6f6c000000000000000000000000000000000000000000000000006020820152600a54600290600160a060020a03166401000000006200417f6200062982021704565b93506200027c85876401000000006200118e6200083a82021704565b6200029684866401000000006200118e6200083a82021704565b60c060405190810160405280600060ff16815260200160018152602001600a815260200160018152602001878152602001600a8152509250600e8054806001018281620002e4919062000b35565b600092835260209092208591600602018151815460ff191660ff919091161781556020820151816001015560408201518160020155606082015181600301556080820151816004015560a0820151816005015550505060c060405190810160405280600160ff168152602001600a8152602001606481526020016001815260200186815260200160148152509150600e805480600101828162000388919062000b35565b600092835260209092208491600602018151815460ff191660ff919091161781556020820151816001015560408201518160020155606082015181600301556080820151816004015560a0820151816005015550505060c060405190810160405280600260ff1681526020016103e88152602001606481526020016001815260200185815260200160328152509050600e80548060010182816200042d919062000b35565b600092835260209092208391600602018151815460ff191660ff919091161781556020820151816001015560408201518160020155606082015181600301556080820151816004015560a08201518160050155505050505050505050505067016345785d8a0000600f6000018190555062f099c0600f60010181905550678ac7230489e80000600f600201819055506001600f60030160006101000a81548160ff021916908360ff1602179055506050600f60030160016101000a81548160ff021916908360ff160217905550678ac7230489e80000600f600401819055506003600f60050160006101000a81548160ff021916908360ff1602179055506202a300600f600601819055506005600f60070160006101000a81548160ff021916908360ff160217905550505083601c60006101000a815481600160a060020a030219169083600160a060020a03160217905550664380663abb8000600f60000181905550673782dace9d900000600f600201819055506000831415620005bc5764012a05f200601d55620005c2565b601d8390555b60ff81161515620005e257601e805461ff001916610500179055620005f7565b601e805461ff00191661010060ff8416021790555b50601e805491151560ff199283161790556701aa535d3d0c0000601f556020805490911660501790555062000cd49050565b60006200063562000b69565b600060a06040519081016040528088815260200187815260200186815260200160008152602001600081525091506001600380548060010182816200067b919062000ba1565b6000928352602090922085916005020181518155602082015181600101908051620006ab92916020019062000ab0565b5060408201518160020155606082015181600301556080820151600490910155500390508015156200074457600160038054806001018281620006ef919062000ba1565b60009283526020909220859160050201815181556020820151816001019080516200071f92916020019062000ab0565b5060408201518160020155606082015181600301556080820151816004015550500390505b63ffffffff811681146200075757600080fd5b7fdea8e87d69047e1b3cd43ad599d34e3eacfe4408b4dfc5d0f6ac6a15a468de5c8787878760405184815260408101839052600160a060020a038216606082015260806020820181815290820185818151815260200191508051906020019080838360005b83811015620007d6578082015183820152602001620007bc565b50505050905090810190601f168015620008045780820380516001836020036101000a031916815260200191505b509550505050505060405180910390a16200083060008583640100000000620038706200096f82021704565b9695505050505050565b81158015906200084b575060035482105b15156200085757600080fd5b801580159062000868575060035481105b15156200087457600080fd5b6001600c54036003828154811015156200088a57fe5b906000526020600020906005020160030154101515620008a957600080fd5b6000828152600d602052604090208190556003805482908110620008c957fe5b906000526020600020906005020160030154600101600383815481101515620008ee57fe5b9060005260206000209060050201600301819055507f0900f87897aa374bb21fa36753905fa2944dd2301242246101a9047a0ed227a082826003858154811015156200093657fe5b90600052602060002090600502016003015460405180848152602001838152602001828152602001935050505060405180910390a15050565b6104006003828154811015156200098257fe5b906000526020600020906005020160040154141515156200099f57fe5b600160a060020a03808316600081815260056020908152604080832080546001019055858352600490915290208054600160a060020a031916909117905583161562000a2157600160a060020a03831660009081526005602090815260408083208054600019019055838352600690915290208054600160a060020a03191690555b7fddf252ad1be2c89b69c2b068fc378daa952ba7f163c4a11628f55a4df523b3ef838383604051600160a060020a039384168152919092166020820152604080820192909252606001905180910390a1505050565b60c060405190810160405280600060ff16815260200160008152602001600081526020016000815260200160008152602001600081525090565b828054600181600116156101000203166002900490600052602060002090601f016020900481019282601f1062000af357805160ff191683800117855562000b23565b8280016001018555821562000b23579182015b8281111562000b2357825182559160200191906001019062000b06565b5062000b3192915062000bd0565b5090565b81548183558181151162000b645760060281600602836000526020600020918201910162000b64919062000bf0565b505050565b60a0604051908101604052806000815260200162000b8662000c34565b81526020016000815260200160008152602001600081525090565b81548183558181151162000b645760050281600502836000526020600020918201910162000b64919062000c46565b62000bed91905b8082111562000b31576000815560010162000bd7565b90565b62000bed91905b8082111562000b3157805460ff19168155600060018201819055600282018190556003820181905560048201819055600582015560060162000bf7565b60206040519081016040526000815290565b62000bed91905b8082111562000b3157600080825562000c6a600183018262000c89565b5060006002820181905560038201819055600482015560050162000c4d565b50805460018160011615610100020316600290046000825580601f1062000cb1575062000cd1565b601f01602090049060005260206000209081019062000cd1919062000bd0565b50565b6146058062000ce46000396000f30060606040526004361061032b5763ffffffff7c0100000000000000000000000000000000000000000000000000000000600035041662607b7f811461032d57806301ffc9a71461035757806306fdde031461038f578063095ea7b3146104195780630c04ad111461043b5780630e13dd741461045157806317b9ebec1461049057806318160ddd146104a95780631cced51b146104ce5780631d36e06c146105195780631de565d61461054b57806323b872dd1461055e578063296250051461058657806332c4ee83146105ab57806336c5d724146105cd57806339e6cdb1146105e35780633c7e7d28146106055780634cabcfac146106245780634dc621fa146106495780635237277714610672578063545c3d55146106855780636352211e146106aa57806366d80ba5146106c05780636914db60146106e257806370a08231146106f857806379ba50971461071757806381d12c581461072a5780638462151c1461077d57806389035730146107ef5780638b3c99e3146108565780638da5cb5b1461086c5780638f1fc77c1461087f578063930f34fd1461089257806395d89b41146108a857806398dc5c95146108bb5780639a6c614e146108e35780639ca08831146108f6578063a3ec138d1461090c578063a846c2fd1461092b578063a8bd9c3214610941578063a9059cbb14610957578063b121f2ac14610979578063b129273f1461099b578063b1357079146109b4578063b260c42a146109d3578063b688a363146109e9578063b9f05f2f146109f1578063bc89b1cf14610a13578063bf62266514610a26578063c0521d7614610a4e578063c349026314610a73578063c52380e914610a8c578063c9d27afe14610aab578063cadf338f14610ac6578063cbbc9f8914610adc578063cc06c35914610b01578063cf7c436714610b14578063d0d8074a14610b39578063d4ee1d9014610b4c578063db595b3b14610b5f578063db85d59c14610b72578063dd62ed3e14610bd4578063dd6d3ca714610bf9578063ddf3ecc714610c0c578063e176507314610c22578063e527cc9d14610c38578063e65d6b4914610c5d578063f2fde38b14610c70578063f81fd7ea14610c8f575b005b341561033857600080fd5b610343600435610cb4565b604051901515815260200160405180910390f35b341561036257600080fd5b6103437fffffffff0000000000000000000000000000000000000000000000000000000060043516610d16565b341561039a57600080fd5b6103a2610fef565b60405160208082528190810183818151815260200191508051906020019080838360005b838110156103de5780820151838201526020016103c6565b50505050905090810190601f16801561040b5780820380516001836020036101000a031916815260200191505b509250505060405180910390f35b341561042457600080fd5b61032b600160a060020a0360043516602435611098565b341561044657600080fd5b61032b60043561110b565b341561045c57600080fd5b610467600435611119565b604051921515835260ff9182166020840152166040808301919091526060909101905180910390f35b341561049b57600080fd5b61032b60043560243561118e565b34156104b457600080fd5b6104bc6112ba565b60405190815260200160405180910390f35b34156104d957600080fd5b6104e16112d5565b6040518082608080838360005b838110156105065780820151838201526020016104ee565b5050505090500191505060405180910390f35b341561052457600080fd5b61052f6004356113b8565b604051600160a060020a03909116815260200160405180910390f35b341561055657600080fd5b61052f6113d3565b341561056957600080fd5b61032b600160a060020a03600435811690602435166044356113e2565b341561059157600080fd5b61032b600160a060020a0360043516602435604435611452565b34156105b657600080fd5b610343600160a060020a0360043516602435611502565b34156105d857600080fd5b61032b600435611600565b34156105ee57600080fd5b61032b600160a060020a03600435166024356116a1565b341561061057600080fd5b6104bc600160a060020a036004351661175d565b341561062f57600080fd5b61032b600160a060020a036004351660243560443561176f565b341561065457600080fd5b61065c61181d565b60405160ff909116815260200160405180910390f35b341561067d57600080fd5b610343611826565b341561069057600080fd5b61032b600160a060020a036004351660243560443561182f565b34156106b557600080fd5b61052f6004356118dd565b34156106cb57600080fd5b610343600160a060020a0360043516602435611901565b34156106ed57600080fd5b6103a260043561193a565b341561070357600080fd5b6104bc600160a060020a0360043516611a01565b341561072257600080fd5b61032b611a1c565b341561073557600080fd5b610740600435611aaa565b604051958652602086019490945260408086019390935260ff91821660608601528116608085015290911660a083015260c0909101905180910390f35b341561078857600080fd5b61079c600160a060020a0360043516611ae7565b60405160208082528190810183818151815260200191508051906020019060200280838360005b838110156107db5780820151838201526020016107c3565b505050509050019250505060405180910390f35b34156107fa57600080fd5b610802611af8565b604051988952602089019790975260408089019690965260ff9485166060890152928416608088015260a0870191909152821660c086015260e0850152909116610100830152610120909101905180910390f35b341561086157600080fd5b61032b600435611b27565b341561087757600080fd5b61052f611e73565b341561088a57600080fd5b6104bc611e82565b341561089d57600080fd5b61032b600435611ec9565b34156108b357600080fd5b6103a2611f70565b34156108c657600080fd5b610343600435600160a060020a0360243516604435606435611fe3565b34156108ee57600080fd5b61065c6120de565b341561090157600080fd5b6104bc6004356120ec565b341561091757600080fd5b6104bc600160a060020a03600435166120fe565b341561093657600080fd5b6104bc600435612110565b341561094c57600080fd5b61052f600435612122565b341561096257600080fd5b61032b600160a060020a036004351660243561213d565b341561098457600080fd5b6104bc600160a060020a0360043516602435612193565b34156109a657600080fd5b6103436004356024356121d2565b34156109bf57600080fd5b6104bc600160a060020a036004351661227b565b34156109de57600080fd5b61032b6004356122f4565b6104bc61231f565b34156109fc57600080fd5b61032b600160a060020a0360043516602435612626565b3415610a1e57600080fd5b6104bc61275d565b3415610a3157600080fd5b610343600160a060020a0360043581169060243516604435612763565b3415610a5957600080fd5b6104bc600160a060020a036004351660ff6024351661293a565b3415610a7e57600080fd5b6103436004356024356129ba565b3415610a9757600080fd5b6104bc600160a060020a0360043516612c21565b3415610ab657600080fd5b61032b6004356024351515612c33565b3415610ad157600080fd5b6104bc600435612d7c565b3415610ae757600080fd5b6104bc600160a060020a0360043581169060243516612da6565b3415610b0c57600080fd5b6104bc612dc3565b3415610b1f57600080fd5b61032b600160a060020a0360043516602435604435612dc9565b3415610b4457600080fd5b6104bc612ea8565b3415610b5757600080fd5b61052f612eae565b3415610b6a57600080fd5b6104bc612ebd565b3415610b7d57600080fd5b610b88600435612f46565b60405197885260208801969096526040808801959095526060870193909352608086019190915260a085015260ff90811660c085015290911660e0830152610100909101905180910390f35b3415610bdf57600080fd5b6104bc600160a060020a0360043581169060243516612f8f565b3415610c0457600080fd5b6104bc612fac565b3415610c1757600080fd5b61032b600435612fd5565b3415610c2d57600080fd5b61079c600435612fe0565b3415610c4357600080fd5b6104bc600160a060020a036004358116906024351661303d565b3415610c6857600080fd5b61032b61305a565b3415610c7b57600080fd5b61032b600160a060020a03600435166130f7565b3415610c9a57600080fd5b6104bc600160a060020a0360043581169060243516613159565b600a5460009033600160a060020a03908116911614610ccf57fe5b8115801590610cdf575060035482105b1515610cea57600080fd5b610cf58260026131b1565b1515610cfd57fe5b610d0682613462565b1515610d0e57fe5b506001919050565b60006040517f737570706f727473496e74657266616365286279746573342900000000000000815260190160405180910390207bffffffffffffffffffffffffffffffffffffffffffffffffffffffff1916827bffffffffffffffffffffffffffffffffffffffffffffffffffffffff19161480610fe957506040517f746f6b656e4d657461646174612875696e743235362c737472696e67290000008152601d0160405180910390206040517f746f6b656e734f664f776e657228616464726573732900000000000000000000815260160160405180910390206040517f7472616e7366657246726f6d28616464726573732c616464726573732c75696e81527f7432353629000000000000000000000000000000000000000000000000000000602082015260250160405180910390206040517f7472616e7366657228616464726573732c75696e743235362900000000000000815260190160405180910390206040517f617070726f766528616464726573732c75696e74323536290000000000000000815260180160405180910390206040517f6f776e65724f662875696e743235362900000000000000000000000000000000815260100160405180910390206040517f62616c616e63654f662861646472657373290000000000000000000000000000815260120160405180910390206040517f746f74616c537570706c792829000000000000000000000000000000000000008152600d0160405180910390206040517f73796d626f6c2829000000000000000000000000000000000000000000000000815260080160405180910390206040517f6e616d6528290000000000000000000000000000000000000000000000000000815260060160405180910390201818181818181818187bffffffffffffffffffffffffffffffffffffffffffffffffffffffff1916827bffffffffffffffffffffffffffffffffffffffffffffffffffffffff1916145b92915050565b610ff7614371565b60008054600181600116156101000203166002900480601f01602080910402602001604051908101604052809291908181526020018280546001816001161561010002031660029004801561108d5780601f106110625761010080835404028352916020019161108d565b820191906000526020600020905b81548152906001019060200180831161107057829003601f168201915b505050505090505b90565b6110a233826137f5565b15156110ad57600080fd5b6110b78183613815565b7f8c5be1e5ebec7d5bd14f71427d1e84f3dd0314c0f7b2291e5b200ac8c7c3b925338383604051600160a060020a039384168152919092166020820152604080820192909252606001905180910390a15050565b611116816000612c33565b50565b60008080808085151561112b57600080fd5b6002600087815260196020526040902060060154610100900460ff161461115157600080fd5b50505060009283525050601b6020526040902060028101546001820154600390920154429290910191909111159160ff8083169261010090041690565b811580159061119e575060035482105b15156111a957600080fd5b80158015906111b9575060035481105b15156111c457600080fd5b6001600c54036003828154811015156111d957fe5b9060005260206000209060050201600301541015156111f757600080fd5b6000828152600d60205260409020819055600380548290811061121657fe5b90600052602060002090600502016003015460010160038381548110151561123a57fe5b9060005260206000209060050201600301819055507f0900f87897aa374bb21fa36753905fa2944dd2301242246101a9047a0ed227a0828260038581548110151561128157fe5b90600052602060002090600502016003015460405180848152602001838152602001828152602001935050505060405180910390a15050565b600354600090818111156112cd57600019015b8091505b5090565b6112dd614383565b600080825260208201819052604082018190526060820181905260015b6003548110156113b357600380548290811061131257fe5b9060005260206000209060050201600301549150600c548260ff16101561138057600380548290811061134157fe5b60009182526020909120600590910201548360ff84166004811061136157fe5b6020020151018360ff84166004811061137657fe5b60200201526113ab565b600380548290811061138e57fe5b600091825260209091206005909102015460608401510160608401525b6001016112fa565b505090565b600460205260009081526040902054600160a060020a031681565b601c54600160a060020a031681565b600160a060020a03821615156113f757600080fd5b30600160a060020a031682600160a060020a03161415151561141857600080fd5b6114223382613850565b151561142d57600080fd5b61143783826137f5565b151561144257600080fd5b61144d838383613870565b505050565b600a5433600160a060020a0390811691161461146a57fe5b61147483836137f5565b151561147f57600080fd5b8060038381548110151561148f57fe5b9060005260206000209060050201600301819055507f48ed1b5769aee6cf16cda3da1db2a0acf83c194c9d2a98ebeff4904567af58f68383836040518084600160a060020a0316600160a060020a03168152602001838152602001828152602001935050505060405180910390a1505050565b6000808080600160a060020a038616151561151c57600080fd5b84151561152857600080fd5b3392506115348361398e565b915061153f8661398e565b90508181141561154e57600080fd5b81151561155a57600080fd5b80151561156657600080fd5b600160a060020a038381166000818152600860209081526040808320948b168084529482528083208690559282528282208690556009815282822093825292909252908190208690557fe051949e9a44e2e9c21ee7d1c7b03ef0bf501aa3b7c4616a8543f229c0bede7a908790879051600160a060020a03909216825260208201526040908101905180910390a150600195945050505050565b60008115801590611612575060035482105b151561161d57600080fd5b611626826139d8565b9050801561163357600080fd5b6000828152600d6020526040812055600380547f399c331be71add502e95a2402ba7370605a945c1c6c1dc01c5e30f7e896cfa569184918290811061167457fe5b90600052602060002090600502016003015460405191825260208201526040908101905180910390a15050565b600a5433600160a060020a039081169116146116b957fe5b6116c382826137f5565b15156116ce57600080fd5b60038054829081106116dc57fe5b90600052602060002090600502016003015460010160038281548110151561170057fe5b9060005260206000209060050201600301819055507fb6ffa2bc58069f160ac94855c396bc8a7c591ae4b9e69d78cc004ad2e4d70d858282604051600160a060020a03909216825260208201526040908101905180910390a15050565b60176020526000908152604090205481565b6000600160a060020a038416151561178657600080fd5b81151561179257600080fd5b50818015156117a7576117a48461398e565b90505b8015156117b357600080fd5b6117be848284613a36565b7f8ee078ba6dd38678f9ffdc8f1df2d512559df0cae2db32c829459127e10031978484846040518084600160a060020a0316600160a060020a03168152602001838152602001828152602001935050505060405180910390a150505050565b60205460ff1681565b601e5460ff1681565b6000600160a060020a038416151561184657600080fd5b81151561185257600080fd5b5081801515611867576118648461398e565b90505b80151561187357600080fd5b61187e848284613b24565b7ff3d0e22890d929d2a1cd5ca9e5f6498c4271ce2f0223ab4092297c2d11c9ef758484846040518084600160a060020a0316600160a060020a03168152602001838152602001828152602001935050505060405180910390a150505050565b600081815260046020526040812054600160a060020a0316801515610fe957600080fd5b600080600160a060020a038416151561191957600080fd5b82151561192557600080fd5b5033611932818585612763565b949350505050565b611942614371565b600380548390811061195057fe5b90600052602060002090600502016001018054600181600116156101000203166002900480601f0160208091040260200160405190810160405280929190818152602001828054600181600116156101000203166002900480156119f55780601f106119ca576101008083540402835291602001916119f5565b820191906000526020600020905b8154815290600101906020018083116119d857829003601f168201915b50505050509050919050565b600160a060020a031660009081526005602052604090205490565b600b5433600160a060020a03908116911614611a3757600080fd5b600b54600a54600160a060020a0391821691167f343765429aea5a34b3ff6a3785a98a5abb2597aca87bfbb58632c173d585373a60405160405180910390a3600b8054600a805473ffffffffffffffffffffffffffffffffffffffff19908116600160a060020a03841617909155169055565b601b6020526000908152604090208054600182015460028301546003909301549192909160ff808216916101008104821691620100009091041686565b611aef614371565b610fe982613be6565b600f5460105460115460125460135460145460155460165460ff80861695610100900481169493811692911689565b6000808080841515611b3857600080fd5b611b4233866137f5565b1515611b4d57600080fd5b6002600086815260196020526040902060060154610100900460ff1614611b7357600080fd5b6000858152601b602052604090206002810154600182015491955001925042831115611b9e57600080fd5b600384015460ff6101008204811691161115611c84576012548454606491610100900460ff1602049150600160a060020a03331682156108fc0283604051600060405180830381858888f193505050501515611bf957600080fd5b600085815260196020526040902060068101805461ff0019166103001790556004018054830190557f261826fbdc11ee0da48a5356542bcb46786deaed4c215b871d3df7a03652262d33868460035b604051600160a060020a039094168452602084019290925260408084019190915260ff90911660608301526080909101905180910390a1611de1565b600384015460ff808216610100909204161480611cbc5750601454600385015460ff9182166101008204831691831691909101909116105b15611d62576000858152601960205260409081902060030154600160a060020a0333169181156108fc02919051600060405180830381858888f193505050501515611d0657600080fd5b600085815260196020526040902060068101805461ff001916610500179055600381015460049091018054820190557f261826fbdc11ee0da48a5356542bcb46786deaed4c215b871d3df7a03652262d90339087906005611c48565b600085815260196020526040808220600601805461ff0019166104001790557f261826fbdc11ee0da48a5356542bcb46786deaed4c215b871d3df7a03652262d91339188919060049051600160a060020a039094168452602084019290925260408084019190915260ff90911660608301526080909101905180910390a15b600384015462010000900460ff16811015611e2f57601a6000600486018360058110611e0957fe5b0154600160a060020a031681526020810191909152604001600090812055600101611de1565b6000858152601b60205260408120818155600181018290556002810182905560038101805462ffffff1916905590611e6a60048301826143aa565b50505050505050565b600a54600160a060020a031681565b600354600090819060015b81811015611ec1576003805482908110611ea357fe5b60009182526020909120600590910201549290920191600101611e8d565b509092915050565b6000611ed533836137f5565b1515611ee057600080fd5b811515611eec57600080fd5b50600081815260216020526040902054801515611f0857600080fd5b60008281526019602052604090206004015415611f2457600080fd5b60008281526019602052604090819020600401829055600160a060020a0333169082156108fc0290839051600060405180830381858888f193505050501515611f6c57600080fd5b5050565b611f78614371565b60018054600181600116156101000203166002900480601f01602080910402602001604051908101604052809291908181526020018280546001816001161561010002031660029004801561108d5780601f106110625761010080835404028352916020019161108d565b600080600160a060020a0385161515611ffb57600080fd5b8584141561200857600080fd5b85151561201457600080fd5b83151561202057600080fd5b82151561202c57600080fd5b5033600160a060020a038181166000818152600860209081526040808320948a168084529482528083208990559282528282208a90556009815282822093825292909252908190208490557fef4beaa380feab20776f162f92bbf15b04c59f8fd4e8ab2508b8d29fed7dfd6190879087908790879051938452600160a060020a03909216602084015260408084019190915260608301919091526080909101905180910390a150600195945050505050565b601e54610100900460ff1681565b600d6020526000908152604090205481565b601a6020526000908152604090205481565b60216020526000908152604090205481565b600660205260009081526040902054600160a060020a031681565b600160a060020a038216151561215257600080fd5b30600160a060020a031682600160a060020a03161415151561217357600080fd5b61217d33826137f5565b151561218857600080fd5b611f6c338383613870565b600061219f83836137f5565b15156121aa57600080fd5b60038054839081106121b857fe5b906000526020600020906005020160030154905092915050565b600a54600090819033600160a060020a039081169116146121ef57fe5b8315156121fb57600080fd5b82151561220757600080fd5b602054600f5460649160ff16020483111561222157600080fd5b6000848152601960205260409020600401541561223d57600080fd5b50600083815260196020526040902060028101546001909101540142811061226457600080fd5b505060009182526021602052604090912055600190565b6000612285614371565b600080600061229386613be6565b93506000925083519150600090505b818110156122ea5760038482815181106122b857fe5b90602001906020020151815481106122cc57fe5b600091825260209091206005909102015492909201916001016122a2565b5090949350505050565b601e543390610100900460ff1661230c82600161293a565b1061231657600080fd5b611f6c82613cdb565b33600160a060020a0381166000908152601860205260408120549091349183808083151561234c57600080fd5b601e5460ff1615801561235d575034155b156125d057601c54600160a060020a0316151561237957600080fd5b601d54151561238757600080fd5b601c54600160a060020a031663dd62ed3e86306000604051602001526040517c010000000000000000000000000000000000000000000000000000000063ffffffff8516028152600160a060020a03928316600482015291166024820152604401602060405180830381600087803b151561240157600080fd5b6102c65a03f1151561241257600080fd5b5050506040518051601c54909450600160a060020a0316905063313ce5676000604051602001526040518163ffffffff167c0100000000000000000000000000000000000000000000000000000000028152600401602060405180830381600087803b151561248057600080fd5b6102c65a03f1151561249157600080fd5b5050506040518051601d5490935084101590506124ad57600080fd5b50600160a060020a038416600090815260176020526040902054601f549095508202600160ff8316106124f7576000199091019060ff600a83900a16818115156124f357fe5b0490505b8581101580156125095750600f548610155b151561251457600080fd5b601c54600a54601d54600160a060020a03928316926323b872dd9289929116906000604051602001526040517c010000000000000000000000000000000000000000000000000000000063ffffffff8616028152600160a060020a0393841660048201529190921660248201526044810191909152606401602060405180830381600087803b15156125a557600080fd5b6102c65a03f115156125b657600080fd5b5050506040518051905015156125cb57600080fd5b612610565b85158015906125e15750600f548610155b15156125ec57600080fd5b600160a060020a038516600090815260176020526040902054861461261057600080fd5b61261b858588613de2565b965050505050505090565b600a546000908190819033600160a060020a0390811691161461264557fe5b600160a060020a038516151561265a57600080fd5b83151561266657600080fd5b6002600085815260196020526040902060060154610100900460ff161461268c57600080fd5b6000848152601b60205260409020805490935015156126aa57600080fd5b60028301546001840154019150428210156126c457600080fd5b50600382015460165460ff620100009092048216911681106126e557600080fd5b846004840160ff8316600581106126f857fe5b018054600160a060020a0392831673ffffffffffffffffffffffffffffffffffffffff199091161790556003909301805460ff6201000080830482166001019091160262ff0000199091161790555050919091166000908152601a6020526040902055565b601f5481565b600080808080600160a060020a038716151561277e57600080fd5b85151561278a57600080fd5b50505050600160a060020a03848116600081815260086020908152604080832094881680845294825280832054938352808320546009835281842095845294909152902054869290818314156127df57600080fd5b8215156127eb57600080fd5b8115156127f757600080fd5b80151561280357600080fd5b8581101561281057600080fd5b61281d848389868a613f90565b600160a060020a038481166000908152600960209081526040808320938b16835292905220805487900390819055151561289557600160a060020a038481166000818152600960209081526040808320948c168084529482528083208390559282526008815282822090528181208190559182528120555b600160a060020a038085166000908152600960209081526040808320938b168352929052819020547fa085ba1c72fda1f13ecb6e0347284ac7d016a73b7a47c0ba151368bbe5ce2db9918a9185918b9188918c919051600160a060020a0396871681526020810195909552929094166040808501919091526060840191909152608083019390935260a082015260c001905180910390a1506001979650505050505050565b6000612944614371565b600061294f85613be6565b915060009250600090505b81518110156129b2578360ff166019600084848151811061297757fe5b906020019060200201518152602081019190915260400160002060060154610100900460ff1614156129aa576001909201915b60010161295a565b505092915050565b600080808415156129ca57600080fd5b6129d433866137f5565b15156129df57600080fd5b8315156129eb57600080fd5b6001600086815260196020526040902060060154610100900460ff1614612a1157600080fd5b60125460008681526019602052604090206006015460ff918216911610612a3757600080fd5b601254606490610100900460ff1685026013546000888152601960205260409020600401549290910493509083011115612a7057600080fd5b50600084815260196020526040902060028101546001909101540142811015612a9857600080fd5b60e06040519081016040908152858252426020830152601554818301526000606083018190526080830181905260a08084019190915260c083019151908101604090815260008083526020808401829052828401829052606084018290526080840182905292909352888352601b9091529020815181556020820151816001015560408201518160020155606082015160038201805460ff191660ff9290921691909117905560808201518160030160016101000a81548160ff021916908360ff16021790555060a08201518160030160026101000a81548160ff021916908360ff16021790555060c0820151612b9590600483019060056143cd565b50505060008581526019602052604090819020600601805461020061ff001960ff198316600160ff948516018416171617918290557fb3ef0c14cd9ed6533151b9a921ddb33f8716dd3593254ffc741ae770313e3bea9288928892169051928352602083019190915260ff166040808301919091526060909101905180910390a1506001949350505050565b60186020526000908152604090205481565b600080831515612c4257600080fd5b600160a060020a0333166000908152601a60205260409020548414612c6657600080fd5b60008481526019602052604090206006015460ff61010090910416600214612c8d57600080fd5b50506000828152601b60205260409020600281015460018201540142811015612cb557600080fd5b8215612cd85760038201805460ff8082166001011660ff19909116179055612cfa565b60038201805460ff61010080830482166001019091160261ff00199091161790555b601a600033600160a060020a0316600160a060020a03168152602001908152602001600020600090557f8d85a70fd2c5d140a4a01143492d27ff82cfad4cead313e66c53f39b0feb5e0f338585604051600160a060020a039093168352602083019190915215156040808301919091526060909101905180910390a150505050565b6000600382815481101515612d8d57fe5b9060005260206000209060050201600001549050919050565b600960209081526000928352604080842090915290825290205481565b600c5481565b600a5433600160a060020a03908116911614612de157fe5b600160a060020a0383161515612df657600080fd5b811515612e0257600080fd5b8015801590612e135750600f548110155b1515612e1e57600080fd5b600160a060020a03831660009081526017602090815260408083208490556018909152908190208390557f21619a95128e7e5c5367774b6479b6edbc059210239e39bbd50dbae00cfe097290849084908490518084600160a060020a0316600160a060020a03168152602001838152602001828152602001935050505060405180910390a1505050565b601d5481565b600b54600160a060020a031681565b33600160a060020a03811660009081526017602090815260408083205460189092529182902054909290917fdafdd0f2a3af66f1d9ab59928d5fb2e9eb5428db4b63362502d21e2511624ff7919083908590518084600160a060020a0316600160a060020a03168152602001838152602001828152602001935050505060405180910390a15090565b6019602052600090815260409020805460018201546002830154600384015460048501546005860154600690960154949593949293919290919060ff8082169161010090041688565b600760209081526000928352604080842090915290825290205481565b600060036000815481101515612fbe57fe5b906000526020600020906005020160000154905090565b611116816001612c33565b612fe8614371565b6000828152600d6020526040812054905b600c54811015613036578183828151811061301057fe5b60209081029091018101919091526000928352600d905260409091205490600101612ff9565b5050919050565b600860209081526000928352604080842090915290825290205481565b600a5460009033600160a060020a0390811691161461307557fe5b60038054600090811061308457fe5b600091825260209091206005909102015490508015156130a357600080fd5b6000600360008154811015156130b557fe5b6000918252602090912060059091020155600160a060020a03331681156108fc0282604051600060405180830381858888f19350505050151561111657600080fd5b600a5433600160a060020a0390811691161461310f57fe5b600a54600160a060020a038281169116141561312a57600080fd5b600b805473ffffffffffffffffffffffffffffffffffffffff1916600160a060020a0392909216919091179055565b6000600160a060020a038216151561317057600080fd5b600160a060020a038316151561318557600080fd5b50600160a060020a03918216600090815260096020908152604080832093909416825291909152205490565b60008060008060006131c38787614120565b93506131ce846139d8565b92506131da878761414e565b915081831015613241576131ee878561118e565b7f69186e91a26c2cd1f67397df408ddeb0db9249dbd6e2a428ad8ae0d59ba3bc88878588604051928352602083019190915260ff166040808301919091526060909101905180910390a160019450613458565b600e805460ff881690811061325257fe5b906000526020600020906006020160010154600e8760ff1681548110151561327657fe5b90600052602060002090600602016003015414156132975760009450613458565b61338960006003868154811015156132ab57fe5b90600052602060002090600502016001018054600181600116156101000203166002900480601f0160208091040260200160405190810160405280929190818152602001828054600181600116156101000203166002900480156133505780601f1061332557610100808354040283529160200191613350565b820191906000526020600020905b81548152906001019060200180831161333357829003601f168201915b505050505060038781548110151561336457fe5b6000918252602090912060026005909202010154600a54600160a060020a031661417f565b905080156134535761339e81600188036131b1565b15613453576133ad878261118e565b7f69186e91a26c2cd1f67397df408ddeb0db9249dbd6e2a428ad8ae0d59ba3bc88878288604051928352602083019190915260ff166040808301919091526060909101905180910390a180600e8760ff1681548110151561340a57fe5b6000918252602090912060046006909202010155600e805460ff881690811061342f57fe5b60009182526020909120600360069092020101805460019081019091559450613458565b600094505b5050505092915050565b600080808080808080881580159061347b575060035489105b151561348657600080fd5b6001600c540360038a81548110151561349b57fe5b9060005260206000209060050201600301541415156134b957600080fd5b6000898152600d602052604090205496508615156134d657600080fd5b6000878152600d602052604090205495508515156134f357600080fd5b6000868152600d6020526040902054945084151561351057600080fd5b6064600e600281548110151561352257fe5b90600052602060002090600602016005015460038b81548110151561354357fe5b9060005260206000209060050201600001540281151561355f57fe5b04935083151561356e57600080fd5b6064600e600181548110151561358057fe5b90600052602060002090600602016005015460038b8154811015156135a157fe5b906000526020600020906005020160000154028115156135bd57fe5b0492508215156135cc57600080fd5b6064600e60008154811015156135de57fe5b90600052602060002090600602016005015460038b8154811015156135ff57fe5b9060005260206000209060050201600001540281151561361b57fe5b04915081151561362a57600080fd5b81838560038c81548110151561363c57fe5b6000918252602090912060059091020154030303905080151561365e57600080fd5b8360038881548110151561366e57fe5b9060005260206000209060050201600001540160038881548110151561369057fe5b600091825260209091206005909102015560038054849190889081106136b257fe5b906000526020600020906005020160000154016003878154811015156136d457fe5b600091825260209091206005909102015560038054839190879081106136f657fe5b9060005260206000209060050201600001540160038681548110151561371857fe5b6000918252602082206005909102019190915560038054839290811061373a57fe5b906000526020600020906005020160000154016003600081548110151561375d57fe5b60009182526020822060059091020191909155600380548b90811061377e57fe5b60009182526020909120600590910201557fcfd3c3fcdcb63bcee48ff9a9ec28351afef5ba4fc9b5a8f46d5aa65565a3b1a38983858785604051808681526020018581526020018481526020018381526020018281526020019550505050505060405180910390a150600198975050505050505050565b600090815260046020526040902054600160a060020a0391821691161490565b600091825260066020526040909120805473ffffffffffffffffffffffffffffffffffffffff1916600160a060020a03909216919091179055565b600090815260066020526040902054600160a060020a0391821691161490565b61040060038281548110151561388257fe5b9060005260206000209060050201600401541415151561389e57fe5b600160a060020a0380831660008181526005602090815260408083208054600101905585835260049091529020805473ffffffffffffffffffffffffffffffffffffffff1916909117905583161561393957600160a060020a0383166000908152600560209081526040808320805460001901905583835260069091529020805473ffffffffffffffffffffffffffffffffffffffff191690555b7fddf252ad1be2c89b69c2b068fc378daa952ba7f163c4a11628f55a4df523b3ef838383604051600160a060020a039384168152919092166020820152604080820192909252606001905180910390a1505050565b6000613998614371565b60006139a384613be6565b9150815190508015156139b95760009250613036565b816000815181106139c657fe5b90602001906020020151949350505050565b6000808083158015906139ec575060035484105b15156139f757600080fd5b6139ff6112ba565b915060009250600190505b818111613036576000818152600d6020526040902054841415613a2e576001909201915b600101613a0a565b613a4083836137f5565b1515613a4b57600080fd5b801515613a5757600080fd5b80600383815481101515613a6757fe5b60009182526020909120600590910201541015613a8357600080fd5b80600383815481101515613a9357fe5b90600052602060002090600502016000015403600383815481101515613ab557fe5b60009182526020909120600590910201557f45dacd427fd388bf162986dbc958cdcf160c31b40efe076907cff377b9857c798383836040518084600160a060020a0316600160a060020a03168152602001838152602001828152602001935050505060405180910390a1505050565b613b2e83836137f5565b1515613b3957600080fd5b801515613b4557600080fd5b80600383815481101515613b5557fe5b90600052602060002090600502016000015401600383815481101515613b7757fe5b60009182526020909120600590910201557f20f4934a3b4928cca0e51f3f1eaac12dee9af151a8a8ba5a424a89d93f6bf53d8383836040518084600160a060020a0316600160a060020a03168152602001838152602001828152602001935050505060405180910390a1505050565b613bee614371565b6000613bf8614371565b60008080600160a060020a0387161515613c1157600080fd5b613c1a87611a01565b9450841515613c4a576000604051805910613c325750595b90808252806020026020018201604052509550613cd1565b84604051805910613c585750595b90808252806020026020018201604052509350613c736112ba565b925060009150600190505b828111613ccd57600081815260046020526040902054600160a060020a0388811691161415613cc55780848380600101945081518110613cba57fe5b602090810290910101525b600101613c7e565b8395505b5050505050919050565b801515613ce757600080fd5b613cf133826137f5565b1515613cfc57600080fd5b6000818152601960205260409020600301541515613d1957600080fd5b60008181526019602052604090206006015460ff6101009091041660011415613d4157600080fd5b610400600382815481101515613d5357fe5b6000918252602080832060059283020160040193909355838252601990925260409081902060068101805461ff00191661010017905542600182015560038101549201547ff5d2d36fd2c60192fd8f874c962737f1858ff797bf9865d071ade33eeee007019284929091905180848152602001838152602001828152602001935050505060405180910390a150565b600080613e258360408051908101604052600c81527f43726f7764737572616e63650000000000000000000000000000000000000000602082015260008861417f565b90506101006040519081016040528042815260200160008152602001600f60010154815260200184815260200160008152602001858152602001600060ff16815260200160006005811115613e7657fe5b60ff1690526000828152601960205260409020815181556020820151816001015560408201518160020155606082015181600301556080820151816004015560a0820151816005015560c082015160068201805460ff191660ff9290921691909117905560e08201516006909101805460ff929092166101000261ff001990921691909117905550613f0781610cb4565b507fbca387acb0ba7d06e329c4372885bb664f19a98153ccf3e74e56c136bf0e88c48582856040518084600160a060020a0316600160a060020a03168152602001838152602001828152602001935050505060405180910390a1600160a060020a0385166000908152601760209081526040808320839055601890915281205590509392505050565b613f9a85856137f5565b1515613fa557600080fd5b613faf83836137f5565b1515613fba57600080fd5b801515613fc657600080fd5b83821415613fd357600080fd5b80600385815481101515613fe357fe5b60009182526020909120600590910201541015613fff57600080fd5b61040060038581548110151561401157fe5b9060005260206000209060050201600401541415151561403057600080fd5b8060038581548110151561404057fe5b9060005260206000209060050201600001540360038581548110151561406257fe5b6000918252602090912060059091020155600380548291908490811061408457fe5b906000526020600020906005020160000154016003838154811015156140a657fe5b60009182526020909120600590910201557f6d401b913d27047ecd2042f0331e2354d30e664920b31480dc71955edb996c388585858585604051600160a060020a0395861681526020810194909452919093166040808401919091526060830193909352608082015260a001905180910390a15050505050565b6000600e8260ff1681548110151561413457fe5b906000526020600020906006020160040154905092915050565b60006001600e8360ff1681548110151561416457fe5b90600052602060002090600602016002015403905092915050565b6000614189614430565b600060a06040519081016040528088815260200187815260200186815260200160008152602001600081525091506001600380548060010182816141cd9190614466565b60009283526020909220859160050201815181556020820151816001019080516141fb929160200190614492565b50604082015181600201556060820151816003015560808201516004909101555003905080151561428f5760016003805480600101828161423c9190614466565b600092835260209092208591600502018151815560208201518160010190805161426a929160200190614492565b5060408201518160020155606082015181600301556080820151816004015550500390505b63ffffffff811681146142a157600080fd5b7fdea8e87d69047e1b3cd43ad599d34e3eacfe4408b4dfc5d0f6ac6a15a468de5c8787878760405184815260408101839052600160a060020a038216606082015260806020820181815290820185818151815260200191508051906020019080838360005b8381101561431e578082015183820152602001614306565b50505050905090810190601f16801561434b5780820380516001836020036101000a031916815260200191505b509550505050505060405180910390a161436760008583613870565b9695505050505050565b60206040519081016040526000815290565b60806040519081016040526004815b60008152602001906001900390816143925790505090565b506000815560010160008155600101600081556001016000815560010160009055565b8260058101928215614424579160200282015b82811115614424578251825473ffffffffffffffffffffffffffffffffffffffff1916600160a060020a0391909116178255602092909201916001909101906143e0565b506112d192915061450c565b60a0604051908101604052806000815260200161444b614371565b81526020016000815260200160008152602001600081525090565b81548183558181151161144d5760050281600502836000526020600020918201910161144d919061453d565b828054600181600116156101000203166002900490600052602060002090601f016020900481019282601f106144d357805160ff1916838001178555614500565b82800160010185558215614500579182015b828111156145005782518255916020019190600101906144e5565b506112d192915061457b565b61109591905b808211156112d157805473ffffffffffffffffffffffffffffffffffffffff19168155600101614512565b61109591905b808211156112d157600080825561455d6001830182614595565b50600060028201819055600382018190556004820155600501614543565b61109591905b808211156112d15760008155600101614581565b50805460018160011615610100020316600290046000825580601f106145bb5750611116565b601f016020900490600052602060002090810190611116919061457b5600a165627a7a7230582014ef10e386cc3a4ff130c1b7cb0e4543acde9571ed2f6d7b75f0fa685fe13b090029",
  "source": "// \n// MIT License\n// \n// Copyright (c) 2018 REGA Risk Sharing\n//   \n// Permission is hereby granted, free of charge, to any person obtaining a copy\n// of this software and associated documentation files (the \"Software\"), to deal\n// in the Software without restriction, including without limitation the rights\n// to use, copy, modify, merge, publish, distribute, sublicense, and/or sell\n// copies of the Software, and to permit persons to whom the Software is\n// furnished to do so, subject to the following conditions:\n// \n// The above copyright notice and this permission notice shall be included in all\n// copies or substantial portions of the Software.\n// \n// THE SOFTWARE IS PROVIDED \"AS IS\", WITHOUT WARRANTY OF ANY KIND, EXPRESS OR\n// IMPLIED, INCLUDING BUT NOT LIMITED TO THE WARRANTIES OF MERCHANTABILITY,\n// FITNESS FOR A PARTICULAR PURPOSE AND NONINFRINGEMENT. IN NO EVENT SHALL THE\n// AUTHORS OR COPYRIGHT HOLDERS BE LIABLE FOR ANY CLAIM, DAMAGES OR OTHER\n// LIABILITY, WHETHER IN AN ACTION OF CONTRACT, TORT OR OTHERWISE, ARISING FROM,\n// OUT OF OR IN CONNECTION WITH THE SOFTWARE OR THE USE OR OTHER DEALINGS IN THE\n// SOFTWARE.\n// \n// Author: Sergei Sevriugin\n// Version: 0.0.1\n//  \n\npragma solidity ^0.4.17;\n\nimport './TokenCrowdsurance.sol';\nimport './interfaces/IERC20Token.sol';\n\n/// Luggage crowdsurance protection product based on TokenCrowdsurance NFT token \ncontract LuggageCrowdsurance is TokenCrowdsurance {\n    /// REGA Risk Sharing Token smart contract address\n    IERC20Token public  RST;                // RST smart contract address\n    uint256     public  joinAmountRST;      // Join amount in RST\n    bool        public  ETHOnly;            // Join only for RST tokens\n    uint8       public  maxHold;            // Maximum number of toikens for one address\n    uint256     public  rstETHRate;         // RST/ETH rate\n    uint8       public  paybackRatio;       // Payback ratio\n\n    mapping (uint256 => uint256) public payback;    // payback mapping\n    /// join function\n    /// @return cowdsuranceId NFT token ID for created crowdsurance\n    function join() public payable returns(uint256 cowdsuranceId) {\n        uint256 amount = msg.value;\n        address member = msg.sender;\n        uint256 score = addressToScore[member];\n        require(score != uint256(0));\n\n        if (!ETHOnly && msg.value == uint256(0)) {\n            // now need to check that the member has approved the transfer joinAmountRST to join\n            require(RST != address(0));                             // check that we have valid contract address\n            require(joinAmountRST != uint256(0));                   // join RST amount must be > 0\n            uint256 rstAmt = RST.allowance(member, this);           // check if the member has gave permision to spend some amount\n            uint8 rstDecimals = RST.decimals();                     // need RST decimals to convert RST to ETH based on the convertion rate\n            require(rstAmt >= joinAmountRST);                       // ... and check if allowance is more then joinAmount\n            amount = addressToAmount[member];                       // get join amount and check...\n            uint256 rstAmtInETH = rstAmt * rstETHRate;              // ... and now calculate join amount from RST to ETH\n            if (rstDecimals >= uint8(1)) {                          // ... check if RST decimals is not 0\n                rstDecimals--;\n                rstAmtInETH = rstAmtInETH / (10 ** rstDecimals);    // ... and use decimals to convert RST to ETH\n            }\n            require(rstAmtInETH >= amount && amount >= parameters.joinAmount);\n            // transfer join RST amount to the owner account\n            require(RST.transferFrom(member, owner, joinAmountRST));\n        }\n        else {\n            require(amount != uint256(0) && amount >= parameters.joinAmount);\n            require(amount == addressToAmount[member]);\n        }\n        // call internal _join after all checkups \n        cowdsuranceId = _join(member, score, amount);\n    }\n    /// set payback amount function\n    /// @param _id crowdsurance token ID\n    /// @param _amount payback amount to set\n    /// @return true if successful \n    function setPayback(uint256 _id, uint256 _amount) ownerOnly public returns (bool) {\n        require(_id != uint256(0));\n        require(_amount != uint256(0));\n        require(_amount <= parameters.joinAmount * paybackRatio / 100);\n        require(extensions[_id].paid == uint256(0));\n        uint coverageEnd = extensions[_id].activated + extensions[_id].duration;\n        require(coverageEnd < now);\n        payback[_id] = _amount;\n        return true;\n    }\n    /// get payback function\n    /// @param _id luggage protection token to get payback\n    function getPayback(uint256 _id) public {\n        require(_owns(msg.sender, _id));\n        require(_id != uint256(0));\n        uint256 _amount = payback[_id];\n        require(_amount != uint256(0));\n        require(extensions[_id].paid == uint256(0));\n        extensions[_id].paid = _amount;\n        msg.sender.transfer(_amount);\n    }\n    /// activate function \n    /// @param _id NFT token ID to activate\n    function activate(uint256 _id) public {\n        address member = msg.sender;\n        // check if number of tokens is not more then maxHold\n        require(statusCount(member, uint8(Status.Active)) < maxHold);   \n        super.activate(_id);\n    }\n    /// get commission function\n    function getCommission() ownerOnly public {\n        uint256 commission = nfts[0].value;\n        require(commission != uint256(0)); \n        nfts[0].value = 0;\n        msg.sender.transfer(commission);\n    }\n    function LuggageCrowdsurance(address _rst, uint256 _amount, bool _only, uint8 _max) \n                TokenCrowdsurance(\"Luggage Crowdsurance NFT\", \"LCS\") public {\n        // setting up contract parameters \n        RST = IERC20Token(_rst);\n        parameters.joinAmount = 0.019 ether;\n        parameters.maxClaimAmount = 4 ether; \n        if (_amount == uint256(0)) {\n            joinAmountRST = 5000000000; \n        }\n        else {\n            joinAmountRST = _amount; \n        }\n        if (_max == uint8(0)) {\n            maxHold = 5;\n        }\n        else {\n            maxHold = _max;\n        }\n        ETHOnly = _only;\n        rstETHRate = 0.12 ether;\n        paybackRatio = 80;\n    }\n}",
  "sourcePath": "/Users/sergei/LuggageCrowdsurance/contracts/LuggageCrowdsurance.sol",
  "compiler": {
    "name": "solc",
    "version": "0.4.18+commit.9cf6e910.Emscripten.clang"
  },
  "schemaVersion": "1.0.1",
  "updatedAt": "2018-05-10T16:34:12.288Z"
}