{
  "contractName": "LuggageCrowdsurance",
  "abi": [
    {
      "constant": true,
      "inputs": [],
      "name": "getCurrentVotingStatus",
      "outputs": [
        {
          "name": "status",
          "type": "uint8"
        }
      ],
      "payable": false,
      "stateMutability": "view",
      "type": "function"
    },
    {
      "constant": false,
      "inputs": [
        {
          "name": "_id",
          "type": "uint256"
        }
      ],
      "name": "insertPool",
      "outputs": [
        {
          "name": "",
          "type": "bool"
        }
      ],
      "payable": false,
      "stateMutability": "nonpayable",
      "type": "function"
    },
    {
      "constant": true,
      "inputs": [
        {
          "name": "_interfaceID",
          "type": "bytes4"
        }
      ],
      "name": "supportsInterface",
      "outputs": [
        {
          "name": "",
          "type": "bool"
        }
      ],
      "payable": false,
      "stateMutability": "view",
      "type": "function"
    },
    {
      "constant": true,
      "inputs": [],
      "name": "name",
      "outputs": [
        {
          "name": "",
          "type": "string"
        }
      ],
      "payable": false,
      "stateMutability": "view",
      "type": "function"
    },
    {
      "constant": false,
      "inputs": [
        {
          "name": "_to",
          "type": "address"
        },
        {
          "name": "_tokenId",
          "type": "uint256"
        }
      ],
      "name": "approve",
      "outputs": [],
      "payable": false,
      "stateMutability": "nonpayable",
      "type": "function"
    },
    {
      "constant": true,
      "inputs": [],
      "name": "getBizProcessId",
      "outputs": [
        {
          "name": "contractOwner",
          "type": "address"
        },
        {
          "name": "bizProcessId",
          "type": "uint8"
        }
      ],
      "payable": false,
      "stateMutability": "view",
      "type": "function"
    },
    {
      "constant": false,
      "inputs": [
        {
          "name": "_nodeId",
          "type": "uint256"
        },
        {
          "name": "_parentId",
          "type": "uint256"
        }
      ],
      "name": "addToken",
      "outputs": [],
      "payable": false,
      "stateMutability": "nonpayable",
      "type": "function"
    },
    {
      "constant": true,
      "inputs": [],
      "name": "totalSupply",
      "outputs": [
        {
          "name": "",
          "type": "uint256"
        }
      ],
      "payable": false,
      "stateMutability": "view",
      "type": "function"
    },
    {
      "constant": false,
      "inputs": [],
      "name": "paymentCurrent",
      "outputs": [],
      "payable": false,
      "stateMutability": "nonpayable",
      "type": "function"
    },
    {
      "constant": true,
      "inputs": [],
      "name": "getAppID",
      "outputs": [
        {
          "name": "appId",
          "type": "uint256"
        }
      ],
      "payable": false,
      "stateMutability": "view",
      "type": "function"
    },
    {
      "constant": true,
      "inputs": [
        {
          "name": "_id",
          "type": "uint256"
        },
        {
          "name": "_value",
          "type": "uint256"
        }
      ],
      "name": "checkPaymentAmount",
      "outputs": [
        {
          "name": "level",
          "type": "uint8"
        },
        {
          "name": "amtSubPool",
          "type": "uint256"
        },
        {
          "name": "amtPool",
          "type": "uint256"
        },
        {
          "name": "amtSuperPool",
          "type": "uint256"
        },
        {
          "name": "balance",
          "type": "uint256"
        }
      ],
      "payable": false,
      "stateMutability": "view",
      "type": "function"
    },
    {
      "constant": true,
      "inputs": [],
      "name": "getDistribution",
      "outputs": [
        {
          "name": "distribution",
          "type": "uint256[4]"
        }
      ],
      "payable": false,
      "stateMutability": "view",
      "type": "function"
    },
    {
      "constant": true,
      "inputs": [
        {
          "name": "",
          "type": "uint256"
        }
      ],
      "name": "tokenIndexToOwner",
      "outputs": [
        {
          "name": "",
          "type": "address"
        }
      ],
      "payable": false,
      "stateMutability": "view",
      "type": "function"
    },
    {
      "constant": true,
      "inputs": [],
      "name": "RST",
      "outputs": [
        {
          "name": "",
          "type": "address"
        }
      ],
      "payable": false,
      "stateMutability": "view",
      "type": "function"
    },
    {
      "constant": false,
      "inputs": [
        {
          "name": "_from",
          "type": "address"
        },
        {
          "name": "_to",
          "type": "address"
        },
        {
          "name": "_tokenId",
          "type": "uint256"
        }
      ],
      "name": "transferFrom",
      "outputs": [],
      "payable": false,
      "stateMutability": "nonpayable",
      "type": "function"
    },
    {
      "constant": false,
      "inputs": [
        {
          "name": "_to",
          "type": "address"
        },
        {
          "name": "_toId",
          "type": "uint256"
        },
        {
          "name": "_level",
          "type": "uint256"
        }
      ],
      "name": "setLevel",
      "outputs": [],
      "payable": false,
      "stateMutability": "nonpayable",
      "type": "function"
    },
    {
      "constant": false,
      "inputs": [
        {
          "name": "_hash",
          "type": "string"
        }
      ],
      "name": "activateCurrent",
      "outputs": [],
      "payable": false,
      "stateMutability": "nonpayable",
      "type": "function"
    },
    {
      "constant": false,
      "inputs": [],
      "name": "castNegativeSelected",
      "outputs": [],
      "payable": false,
      "stateMutability": "nonpayable",
      "type": "function"
    },
    {
      "constant": false,
      "inputs": [
        {
          "name": "_spender",
          "type": "address"
        },
        {
          "name": "_value",
          "type": "uint256"
        }
      ],
      "name": "cApprove",
      "outputs": [
        {
          "name": "success",
          "type": "bool"
        }
      ],
      "payable": false,
      "stateMutability": "nonpayable",
      "type": "function"
    },
    {
      "constant": false,
      "inputs": [
        {
          "name": "_nodeId",
          "type": "uint256"
        }
      ],
      "name": "removeToken",
      "outputs": [],
      "payable": false,
      "stateMutability": "nonpayable",
      "type": "function"
    },
    {
      "constant": false,
      "inputs": [
        {
          "name": "_to",
          "type": "address"
        },
        {
          "name": "_toId",
          "type": "uint256"
        }
      ],
      "name": "increaseLevel",
      "outputs": [],
      "payable": false,
      "stateMutability": "nonpayable",
      "type": "function"
    },
    {
      "constant": true,
      "inputs": [
        {
          "name": "",
          "type": "address"
        }
      ],
      "name": "addressToAmount",
      "outputs": [
        {
          "name": "",
          "type": "uint256"
        }
      ],
      "payable": false,
      "stateMutability": "view",
      "type": "function"
    },
    {
      "constant": false,
      "inputs": [],
      "name": "castPositiveSelected",
      "outputs": [],
      "payable": false,
      "stateMutability": "nonpayable",
      "type": "function"
    },
    {
      "constant": false,
      "inputs": [
        {
          "name": "_from",
          "type": "address"
        },
        {
          "name": "_fromId",
          "type": "uint256"
        },
        {
          "name": "_amount",
          "type": "uint256"
        }
      ],
      "name": "cDestroy",
      "outputs": [],
      "payable": false,
      "stateMutability": "nonpayable",
      "type": "function"
    },
    {
      "constant": true,
      "inputs": [],
      "name": "paybackRatio",
      "outputs": [
        {
          "name": "",
          "type": "uint8"
        }
      ],
      "payable": false,
      "stateMutability": "view",
      "type": "function"
    },
    {
      "constant": true,
      "inputs": [],
      "name": "getApplication",
      "outputs": [
        {
          "name": "member",
          "type": "address"
        },
        {
          "name": "appId",
          "type": "uint256"
        }
      ],
      "payable": false,
      "stateMutability": "view",
      "type": "function"
    },
    {
      "constant": true,
      "inputs": [],
      "name": "ETHOnly",
      "outputs": [
        {
          "name": "",
          "type": "bool"
        }
      ],
      "payable": false,
      "stateMutability": "view",
      "type": "function"
    },
    {
      "constant": false,
      "inputs": [
        {
          "name": "_to",
          "type": "address"
        },
        {
          "name": "_toId",
          "type": "uint256"
        },
        {
          "name": "_amount",
          "type": "uint256"
        }
      ],
      "name": "cIssue",
      "outputs": [],
      "payable": false,
      "stateMutability": "nonpayable",
      "type": "function"
    },
    {
      "constant": true,
      "inputs": [],
      "name": "getCurrentTokenId",
      "outputs": [
        {
          "name": "currentId",
          "type": "uint256"
        }
      ],
      "payable": false,
      "stateMutability": "view",
      "type": "function"
    },
    {
      "constant": false,
      "inputs": [
        {
          "name": "_id",
          "type": "uint256"
        },
        {
          "name": "_hash",
          "type": "string"
        }
      ],
      "name": "activate",
      "outputs": [],
      "payable": false,
      "stateMutability": "nonpayable",
      "type": "function"
    },
    {
      "constant": false,
      "inputs": [],
      "name": "claimCurrent",
      "outputs": [
        {
          "name": "",
          "type": "bool"
        }
      ],
      "payable": false,
      "stateMutability": "nonpayable",
      "type": "function"
    },
    {
      "constant": true,
      "inputs": [
        {
          "name": "_tokenId",
          "type": "uint256"
        }
      ],
      "name": "ownerOf",
      "outputs": [
        {
          "name": "",
          "type": "address"
        }
      ],
      "payable": false,
      "stateMutability": "view",
      "type": "function"
    },
    {
      "constant": false,
      "inputs": [
        {
          "name": "_to",
          "type": "address"
        },
        {
          "name": "_value",
          "type": "uint256"
        }
      ],
      "name": "cTransfer",
      "outputs": [
        {
          "name": "success",
          "type": "bool"
        }
      ],
      "payable": false,
      "stateMutability": "nonpayable",
      "type": "function"
    },
    {
      "constant": true,
      "inputs": [
        {
          "name": "_tokenId",
          "type": "uint256"
        }
      ],
      "name": "tokenMetadata",
      "outputs": [
        {
          "name": "infoUrl",
          "type": "string"
        }
      ],
      "payable": false,
      "stateMutability": "view",
      "type": "function"
    },
    {
      "constant": true,
      "inputs": [
        {
          "name": "_owner",
          "type": "address"
        }
      ],
      "name": "balanceOf",
      "outputs": [
        {
          "name": "count",
          "type": "uint256"
        }
      ],
      "payable": false,
      "stateMutability": "view",
      "type": "function"
    },
    {
      "constant": false,
      "inputs": [],
      "name": "acceptOwnership",
      "outputs": [],
      "payable": false,
      "stateMutability": "nonpayable",
      "type": "function"
    },
    {
      "constant": true,
      "inputs": [
        {
          "name": "",
          "type": "uint256"
        }
      ],
      "name": "requests",
      "outputs": [
        {
          "name": "amount",
          "type": "uint256"
        },
        {
          "name": "timeStamp",
          "type": "uint256"
        },
        {
          "name": "duration",
          "type": "uint256"
        },
        {
          "name": "positive",
          "type": "uint8"
        },
        {
          "name": "negative",
          "type": "uint8"
        },
        {
          "name": "number",
          "type": "uint8"
        }
      ],
      "payable": false,
      "stateMutability": "view",
      "type": "function"
    },
    {
      "constant": true,
      "inputs": [
        {
          "name": "_owner",
          "type": "address"
        }
      ],
      "name": "tokensOfOwner",
      "outputs": [
        {
          "name": "ownerTokens",
          "type": "uint256[]"
        }
      ],
      "payable": false,
      "stateMutability": "view",
      "type": "function"
    },
    {
      "constant": true,
      "inputs": [],
      "name": "parameters",
      "outputs": [
        {
          "name": "joinAmount",
          "type": "uint256"
        },
        {
          "name": "coverageDuration",
          "type": "uint256"
        },
        {
          "name": "maxClaimAmount",
          "type": "uint256"
        },
        {
          "name": "maxClaimNumber",
          "type": "uint8"
        },
        {
          "name": "paymentRatio",
          "type": "uint8"
        },
        {
          "name": "maxPaymentAmount",
          "type": "uint256"
        },
        {
          "name": "minJuriesNumber",
          "type": "uint8"
        },
        {
          "name": "votingDuration",
          "type": "uint256"
        },
        {
          "name": "juriesNumber",
          "type": "uint8"
        },
        {
          "name": "maxApplications",
          "type": "uint256"
        },
        {
          "name": "averageScore",
          "type": "uint256"
        },
        {
          "name": "defaultClaimAmount",
          "type": "uint256"
        }
      ],
      "payable": false,
      "stateMutability": "view",
      "type": "function"
    },
    {
      "constant": false,
      "inputs": [],
      "name": "transferCommission",
      "outputs": [],
      "payable": false,
      "stateMutability": "nonpayable",
      "type": "function"
    },
    {
      "constant": false,
      "inputs": [
        {
          "name": "_id",
          "type": "uint256"
        }
      ],
      "name": "payment",
      "outputs": [],
      "payable": false,
      "stateMutability": "nonpayable",
      "type": "function"
    },
    {
      "constant": true,
      "inputs": [],
      "name": "owner",
      "outputs": [
        {
          "name": "",
          "type": "address"
        }
      ],
      "payable": false,
      "stateMutability": "view",
      "type": "function"
    },
    {
      "constant": true,
      "inputs": [],
      "name": "cTotalSupply",
      "outputs": [
        {
          "name": "",
          "type": "uint256"
        }
      ],
      "payable": false,
      "stateMutability": "view",
      "type": "function"
    },
    {
      "constant": false,
      "inputs": [
        {
          "name": "_id",
          "type": "uint256"
        }
      ],
      "name": "getPayback",
      "outputs": [],
      "payable": false,
      "stateMutability": "nonpayable",
      "type": "function"
    },
    {
      "constant": true,
      "inputs": [],
      "name": "symbol",
      "outputs": [
        {
          "name": "",
          "type": "string"
        }
      ],
      "payable": false,
      "stateMutability": "view",
      "type": "function"
    },
    {
      "constant": true,
      "inputs": [],
      "name": "getAllowance",
      "outputs": [
        {
          "name": "allowance",
          "type": "uint256"
        }
      ],
      "payable": false,
      "stateMutability": "view",
      "type": "function"
    },
    {
      "constant": false,
      "inputs": [
        {
          "name": "_fromId",
          "type": "uint256"
        },
        {
          "name": "_spender",
          "type": "address"
        },
        {
          "name": "_toId",
          "type": "uint256"
        },
        {
          "name": "_value",
          "type": "uint256"
        }
      ],
      "name": "cApproveFrom",
      "outputs": [
        {
          "name": "success",
          "type": "bool"
        }
      ],
      "payable": false,
      "stateMutability": "nonpayable",
      "type": "function"
    },
    {
      "constant": true,
      "inputs": [],
      "name": "maxHold",
      "outputs": [
        {
          "name": "",
          "type": "uint8"
        }
      ],
      "payable": false,
      "stateMutability": "view",
      "type": "function"
    },
    {
      "constant": true,
      "inputs": [
        {
          "name": "",
          "type": "uint256"
        }
      ],
      "name": "tokenIndexToPoolToken",
      "outputs": [
        {
          "name": "",
          "type": "uint256"
        }
      ],
      "payable": false,
      "stateMutability": "view",
      "type": "function"
    },
    {
      "constant": true,
      "inputs": [],
      "name": "getJoinAmount",
      "outputs": [
        {
          "name": "amount",
          "type": "uint256"
        }
      ],
      "payable": false,
      "stateMutability": "view",
      "type": "function"
    },
    {
      "constant": false,
      "inputs": [],
      "name": "fssf",
      "outputs": [],
      "payable": false,
      "stateMutability": "nonpayable",
      "type": "function"
    },
    {
      "constant": true,
      "inputs": [
        {
          "name": "",
          "type": "address"
        }
      ],
      "name": "voters",
      "outputs": [
        {
          "name": "",
          "type": "uint256"
        }
      ],
      "payable": false,
      "stateMutability": "view",
      "type": "function"
    },
    {
      "constant": true,
      "inputs": [
        {
          "name": "",
          "type": "uint256"
        }
      ],
      "name": "payback",
      "outputs": [
        {
          "name": "",
          "type": "uint256"
        }
      ],
      "payable": false,
      "stateMutability": "view",
      "type": "function"
    },
    {
      "constant": true,
      "inputs": [
        {
          "name": "",
          "type": "uint256"
        }
      ],
      "name": "claims",
      "outputs": [
        {
          "name": "",
          "type": "uint256"
        }
      ],
      "payable": false,
      "stateMutability": "view",
      "type": "function"
    },
    {
      "constant": true,
      "inputs": [
        {
          "name": "",
          "type": "uint256"
        }
      ],
      "name": "tokenIndexToApproved",
      "outputs": [
        {
          "name": "",
          "type": "address"
        }
      ],
      "payable": false,
      "stateMutability": "view",
      "type": "function"
    },
    {
      "constant": false,
      "inputs": [
        {
          "name": "_to",
          "type": "address"
        },
        {
          "name": "_tokenId",
          "type": "uint256"
        }
      ],
      "name": "transfer",
      "outputs": [],
      "payable": false,
      "stateMutability": "nonpayable",
      "type": "function"
    },
    {
      "constant": true,
      "inputs": [
        {
          "name": "_to",
          "type": "address"
        },
        {
          "name": "_toId",
          "type": "uint256"
        }
      ],
      "name": "getLevel",
      "outputs": [
        {
          "name": "",
          "type": "uint256"
        }
      ],
      "payable": false,
      "stateMutability": "view",
      "type": "function"
    },
    {
      "constant": false,
      "inputs": [
        {
          "name": "_id",
          "type": "uint256"
        },
        {
          "name": "_amount",
          "type": "uint256"
        }
      ],
      "name": "setPayback",
      "outputs": [
        {
          "name": "",
          "type": "bool"
        }
      ],
      "payable": false,
      "stateMutability": "nonpayable",
      "type": "function"
    },
    {
      "constant": true,
      "inputs": [
        {
          "name": "_owner",
          "type": "address"
        }
      ],
      "name": "cBalanceOf",
      "outputs": [
        {
          "name": "",
          "type": "uint256"
        }
      ],
      "payable": false,
      "stateMutability": "view",
      "type": "function"
    },
    {
      "constant": false,
      "inputs": [],
      "name": "join",
      "outputs": [
        {
          "name": "cowdsuranceId",
          "type": "uint256"
        }
      ],
      "payable": true,
      "stateMutability": "payable",
      "type": "function"
    },
    {
      "constant": true,
      "inputs": [],
      "name": "rstETHRate",
      "outputs": [
        {
          "name": "",
          "type": "uint256"
        }
      ],
      "payable": false,
      "stateMutability": "view",
      "type": "function"
    },
    {
      "constant": true,
      "inputs": [
        {
          "name": "",
          "type": "address"
        }
      ],
      "name": "addressToApplication",
      "outputs": [
        {
          "name": "",
          "type": "uint256"
        }
      ],
      "payable": false,
      "stateMutability": "view",
      "type": "function"
    },
    {
      "constant": false,
      "inputs": [
        {
          "name": "_from",
          "type": "address"
        },
        {
          "name": "_to",
          "type": "address"
        },
        {
          "name": "_value",
          "type": "uint256"
        }
      ],
      "name": "cTransferFrom",
      "outputs": [
        {
          "name": "success",
          "type": "bool"
        }
      ],
      "payable": false,
      "stateMutability": "nonpayable",
      "type": "function"
    },
    {
      "constant": true,
      "inputs": [
        {
          "name": "_member",
          "type": "address"
        },
        {
          "name": "_status",
          "type": "uint8"
        }
      ],
      "name": "statusCount",
      "outputs": [
        {
          "name": "count",
          "type": "uint256"
        }
      ],
      "payable": false,
      "stateMutability": "view",
      "type": "function"
    },
    {
      "constant": false,
      "inputs": [
        {
          "name": "_id",
          "type": "uint256"
        },
        {
          "name": "_claim",
          "type": "uint256"
        }
      ],
      "name": "claim",
      "outputs": [
        {
          "name": "",
          "type": "bool"
        }
      ],
      "payable": false,
      "stateMutability": "nonpayable",
      "type": "function"
    },
    {
      "constant": true,
      "inputs": [
        {
          "name": "",
          "type": "address"
        }
      ],
      "name": "addressToScore",
      "outputs": [
        {
          "name": "",
          "type": "uint256"
        }
      ],
      "payable": false,
      "stateMutability": "view",
      "type": "function"
    },
    {
      "constant": false,
      "inputs": [
        {
          "name": "_id",
          "type": "uint256"
        },
        {
          "name": "_positive",
          "type": "bool"
        }
      ],
      "name": "vote",
      "outputs": [],
      "payable": false,
      "stateMutability": "nonpayable",
      "type": "function"
    },
    {
      "constant": true,
      "inputs": [
        {
          "name": "_tokenId",
          "type": "uint256"
        }
      ],
      "name": "valueOf",
      "outputs": [
        {
          "name": "value",
          "type": "uint256"
        }
      ],
      "payable": false,
      "stateMutability": "view",
      "type": "function"
    },
    {
      "constant": true,
      "inputs": [
        {
          "name": "",
          "type": "address"
        },
        {
          "name": "",
          "type": "address"
        }
      ],
      "name": "allowanceAmt",
      "outputs": [
        {
          "name": "",
          "type": "uint256"
        }
      ],
      "payable": false,
      "stateMutability": "view",
      "type": "function"
    },
    {
      "constant": true,
      "inputs": [],
      "name": "maxLevel",
      "outputs": [
        {
          "name": "",
          "type": "uint256"
        }
      ],
      "payable": false,
      "stateMutability": "view",
      "type": "function"
    },
    {
      "constant": false,
      "inputs": [
        {
          "name": "_member",
          "type": "address"
        },
        {
          "name": "_score",
          "type": "uint256"
        },
        {
          "name": "_amount",
          "type": "uint256"
        }
      ],
      "name": "scoring",
      "outputs": [],
      "payable": false,
      "stateMutability": "nonpayable",
      "type": "function"
    },
    {
      "constant": true,
      "inputs": [],
      "name": "joinAmountRST",
      "outputs": [
        {
          "name": "",
          "type": "uint256"
        }
      ],
      "payable": false,
      "stateMutability": "view",
      "type": "function"
    },
    {
      "constant": true,
      "inputs": [],
      "name": "getHash",
      "outputs": [
        {
          "name": "",
          "type": "string"
        }
      ],
      "payable": false,
      "stateMutability": "view",
      "type": "function"
    },
    {
      "constant": true,
      "inputs": [],
      "name": "newOwner",
      "outputs": [
        {
          "name": "",
          "type": "address"
        }
      ],
      "payable": false,
      "stateMutability": "view",
      "type": "function"
    },
    {
      "constant": false,
      "inputs": [],
      "name": "apply",
      "outputs": [
        {
          "name": "addId",
          "type": "uint256"
        }
      ],
      "payable": false,
      "stateMutability": "nonpayable",
      "type": "function"
    },
    {
      "constant": true,
      "inputs": [
        {
          "name": "",
          "type": "uint256"
        }
      ],
      "name": "extensions",
      "outputs": [
        {
          "name": "timeStamp",
          "type": "uint256"
        },
        {
          "name": "activated",
          "type": "uint256"
        },
        {
          "name": "duration",
          "type": "uint256"
        },
        {
          "name": "amount",
          "type": "uint256"
        },
        {
          "name": "paid",
          "type": "uint256"
        },
        {
          "name": "score",
          "type": "uint256"
        },
        {
          "name": "claimNumber",
          "type": "uint8"
        },
        {
          "name": "status",
          "type": "uint8"
        }
      ],
      "payable": false,
      "stateMutability": "view",
      "type": "function"
    },
    {
      "constant": true,
      "inputs": [],
      "name": "getNumberOfClaims",
      "outputs": [
        {
          "name": "",
          "type": "uint256"
        }
      ],
      "payable": false,
      "stateMutability": "view",
      "type": "function"
    },
    {
      "constant": true,
      "inputs": [
        {
          "name": "",
          "type": "address"
        },
        {
          "name": "",
          "type": "address"
        }
      ],
      "name": "allowance",
      "outputs": [
        {
          "name": "",
          "type": "uint256"
        }
      ],
      "payable": false,
      "stateMutability": "view",
      "type": "function"
    },
    {
      "constant": true,
      "inputs": [],
      "name": "getComission",
      "outputs": [
        {
          "name": "commission",
          "type": "uint256"
        }
      ],
      "payable": false,
      "stateMutability": "view",
      "type": "function"
    },
    {
      "constant": true,
      "inputs": [],
      "name": "appNumber",
      "outputs": [
        {
          "name": "",
          "type": "uint256"
        }
      ],
      "payable": false,
      "stateMutability": "view",
      "type": "function"
    },
    {
      "constant": true,
      "inputs": [
        {
          "name": "",
          "type": "uint256"
        }
      ],
      "name": "applications",
      "outputs": [
        {
          "name": "timeStamp",
          "type": "uint256"
        },
        {
          "name": "member",
          "type": "address"
        },
        {
          "name": "tokensToBuy",
          "type": "uint8"
        },
        {
          "name": "paymetMethod",
          "type": "uint8"
        },
        {
          "name": "processed",
          "type": "bool"
        }
      ],
      "payable": false,
      "stateMutability": "view",
      "type": "function"
    },
    {
      "constant": true,
      "inputs": [
        {
          "name": "_nodeId",
          "type": "uint256"
        }
      ],
      "name": "getPath",
      "outputs": [
        {
          "name": "path",
          "type": "uint256[]"
        }
      ],
      "payable": false,
      "stateMutability": "view",
      "type": "function"
    },
    {
      "constant": true,
      "inputs": [
        {
          "name": "",
          "type": "address"
        },
        {
          "name": "",
          "type": "address"
        }
      ],
      "name": "allowanceIds",
      "outputs": [
        {
          "name": "",
          "type": "uint256"
        }
      ],
      "payable": false,
      "stateMutability": "view",
      "type": "function"
    },
    {
      "constant": false,
      "inputs": [
        {
          "name": "_newOwner",
          "type": "address"
        }
      ],
      "name": "transferOwnership",
      "outputs": [],
      "payable": false,
      "stateMutability": "nonpayable",
      "type": "function"
    },
    {
      "constant": false,
      "inputs": [
        {
          "name": "_jury",
          "type": "address"
        }
      ],
      "name": "addVoter",
      "outputs": [],
      "payable": false,
      "stateMutability": "nonpayable",
      "type": "function"
    },
    {
      "constant": true,
      "inputs": [
        {
          "name": "_owner",
          "type": "address"
        },
        {
          "name": "_spender",
          "type": "address"
        }
      ],
      "name": "cAllowance",
      "outputs": [
        {
          "name": "",
          "type": "uint256"
        }
      ],
      "payable": false,
      "stateMutability": "view",
      "type": "function"
    },
    {
      "inputs": [
        {
          "name": "_rst",
          "type": "address"
        },
        {
          "name": "_amount",
          "type": "uint256"
        },
        {
          "name": "_only",
          "type": "bool"
        },
        {
          "name": "_max",
          "type": "uint8"
        }
      ],
      "payable": false,
      "stateMutability": "nonpayable",
      "type": "constructor"
    },
    {
      "payable": true,
      "stateMutability": "payable",
      "type": "fallback"
    },
    {
      "anonymous": false,
      "inputs": [
        {
          "indexed": false,
          "name": "member",
          "type": "address"
        },
        {
          "indexed": false,
          "name": "appId",
          "type": "uint256"
        }
      ],
      "name": "Apply",
      "type": "event"
    },
    {
      "anonymous": false,
      "inputs": [
        {
          "indexed": false,
          "name": "member",
          "type": "address"
        },
        {
          "indexed": false,
          "name": "id",
          "type": "uint256"
        },
        {
          "indexed": false,
          "name": "amount",
          "type": "uint256"
        }
      ],
      "name": "Join",
      "type": "event"
    },
    {
      "anonymous": false,
      "inputs": [
        {
          "indexed": false,
          "name": "member",
          "type": "address"
        },
        {
          "indexed": false,
          "name": "score",
          "type": "uint256"
        },
        {
          "indexed": false,
          "name": "amount",
          "type": "uint256"
        }
      ],
      "name": "Scoring",
      "type": "event"
    },
    {
      "anonymous": false,
      "inputs": [
        {
          "indexed": false,
          "name": "id",
          "type": "uint256"
        },
        {
          "indexed": false,
          "name": "amount",
          "type": "uint256"
        },
        {
          "indexed": false,
          "name": "score",
          "type": "uint256"
        }
      ],
      "name": "Activate",
      "type": "event"
    },
    {
      "anonymous": false,
      "inputs": [
        {
          "indexed": false,
          "name": "id",
          "type": "uint256"
        },
        {
          "indexed": false,
          "name": "claim",
          "type": "uint256"
        },
        {
          "indexed": false,
          "name": "number",
          "type": "uint8"
        }
      ],
      "name": "Claim",
      "type": "event"
    },
    {
      "anonymous": false,
      "inputs": [
        {
          "indexed": false,
          "name": "jury",
          "type": "address"
        },
        {
          "indexed": false,
          "name": "id",
          "type": "uint256"
        },
        {
          "indexed": false,
          "name": "positive",
          "type": "bool"
        }
      ],
      "name": "Vote",
      "type": "event"
    },
    {
      "anonymous": false,
      "inputs": [
        {
          "indexed": false,
          "name": "reciever",
          "type": "address"
        },
        {
          "indexed": false,
          "name": "id",
          "type": "uint256"
        },
        {
          "indexed": false,
          "name": "amount",
          "type": "uint256"
        },
        {
          "indexed": false,
          "name": "status",
          "type": "uint8"
        }
      ],
      "name": "Payment",
      "type": "event"
    },
    {
      "anonymous": false,
      "inputs": [
        {
          "indexed": false,
          "name": "member",
          "type": "address"
        },
        {
          "indexed": false,
          "name": "appId",
          "type": "uint256"
        }
      ],
      "name": "FSSF",
      "type": "event"
    },
    {
      "anonymous": false,
      "inputs": [
        {
          "indexed": false,
          "name": "id",
          "type": "uint256"
        },
        {
          "indexed": false,
          "name": "poolId",
          "type": "uint256"
        },
        {
          "indexed": false,
          "name": "level",
          "type": "uint8"
        }
      ],
      "name": "InsertPool",
      "type": "event"
    },
    {
      "anonymous": false,
      "inputs": [
        {
          "indexed": false,
          "name": "id",
          "type": "uint256"
        },
        {
          "indexed": false,
          "name": "superPoolValue",
          "type": "uint256"
        },
        {
          "indexed": false,
          "name": "poolValue",
          "type": "uint256"
        },
        {
          "indexed": false,
          "name": "subPoolValue",
          "type": "uint256"
        },
        {
          "indexed": false,
          "name": "comission",
          "type": "uint256"
        }
      ],
      "name": "DistributeValue",
      "type": "event"
    },
    {
      "anonymous": false,
      "inputs": [
        {
          "indexed": false,
          "name": "id",
          "type": "uint256"
        },
        {
          "indexed": false,
          "name": "value",
          "type": "uint256"
        }
      ],
      "name": "SecondTierCall",
      "type": "event"
    },
    {
      "anonymous": false,
      "inputs": [
        {
          "indexed": false,
          "name": "id",
          "type": "uint256"
        },
        {
          "indexed": false,
          "name": "poolId",
          "type": "uint256"
        },
        {
          "indexed": false,
          "name": "value",
          "type": "uint256"
        },
        {
          "indexed": false,
          "name": "level",
          "type": "uint8"
        }
      ],
      "name": "ShortOfFunds",
      "type": "event"
    },
    {
      "anonymous": false,
      "inputs": [
        {
          "indexed": false,
          "name": "id",
          "type": "uint256"
        },
        {
          "indexed": false,
          "name": "value",
          "type": "uint256"
        },
        {
          "indexed": false,
          "name": "level",
          "type": "uint8"
        }
      ],
      "name": "PaymentValue",
      "type": "event"
    },
    {
      "anonymous": false,
      "inputs": [
        {
          "indexed": false,
          "name": "nodeId",
          "type": "uint256"
        },
        {
          "indexed": false,
          "name": "parentId",
          "type": "uint256"
        },
        {
          "indexed": false,
          "name": "level",
          "type": "uint256"
        }
      ],
      "name": "AddToken",
      "type": "event"
    },
    {
      "anonymous": false,
      "inputs": [
        {
          "indexed": false,
          "name": "nodeId",
          "type": "uint256"
        },
        {
          "indexed": false,
          "name": "level",
          "type": "uint256"
        }
      ],
      "name": "RemoveToken",
      "type": "event"
    },
    {
      "anonymous": false,
      "inputs": [
        {
          "indexed": false,
          "name": "from",
          "type": "address"
        },
        {
          "indexed": false,
          "name": "fromId",
          "type": "uint256"
        },
        {
          "indexed": false,
          "name": "to",
          "type": "address"
        },
        {
          "indexed": false,
          "name": "toId",
          "type": "uint256"
        },
        {
          "indexed": false,
          "name": "value",
          "type": "uint256"
        }
      ],
      "name": "Transfer",
      "type": "event"
    },
    {
      "anonymous": false,
      "inputs": [
        {
          "indexed": false,
          "name": "to",
          "type": "address"
        },
        {
          "indexed": false,
          "name": "toId",
          "type": "uint256"
        },
        {
          "indexed": false,
          "name": "value",
          "type": "uint256"
        }
      ],
      "name": "AddValue",
      "type": "event"
    },
    {
      "anonymous": false,
      "inputs": [
        {
          "indexed": false,
          "name": "from",
          "type": "address"
        },
        {
          "indexed": false,
          "name": "fromId",
          "type": "uint256"
        },
        {
          "indexed": false,
          "name": "value",
          "type": "uint256"
        }
      ],
      "name": "RemoveValue",
      "type": "event"
    },
    {
      "anonymous": false,
      "inputs": [
        {
          "indexed": false,
          "name": "to",
          "type": "address"
        },
        {
          "indexed": false,
          "name": "toId",
          "type": "uint256"
        },
        {
          "indexed": false,
          "name": "level",
          "type": "uint256"
        }
      ],
      "name": "SetLevel",
      "type": "event"
    },
    {
      "anonymous": false,
      "inputs": [
        {
          "indexed": false,
          "name": "to",
          "type": "address"
        },
        {
          "indexed": false,
          "name": "toId",
          "type": "uint256"
        }
      ],
      "name": "IncreaseLevel",
      "type": "event"
    },
    {
      "anonymous": false,
      "inputs": [
        {
          "indexed": true,
          "name": "_prevOwner",
          "type": "address"
        },
        {
          "indexed": true,
          "name": "_newOwner",
          "type": "address"
        }
      ],
      "name": "OwnerUpdate",
      "type": "event"
    },
    {
      "anonymous": false,
      "inputs": [
        {
          "indexed": false,
          "name": "fromId",
          "type": "uint256"
        },
        {
          "indexed": false,
          "name": "spender",
          "type": "address"
        },
        {
          "indexed": false,
          "name": "toId",
          "type": "uint256"
        },
        {
          "indexed": false,
          "name": "value",
          "type": "uint256"
        }
      ],
      "name": "CApproveFrom",
      "type": "event"
    },
    {
      "anonymous": false,
      "inputs": [
        {
          "indexed": false,
          "name": "spender",
          "type": "address"
        },
        {
          "indexed": false,
          "name": "value",
          "type": "uint256"
        }
      ],
      "name": "CApprove",
      "type": "event"
    },
    {
      "anonymous": false,
      "inputs": [
        {
          "indexed": false,
          "name": "from",
          "type": "address"
        },
        {
          "indexed": false,
          "name": "fromId",
          "type": "uint256"
        },
        {
          "indexed": false,
          "name": "to",
          "type": "address"
        },
        {
          "indexed": false,
          "name": "toId",
          "type": "uint256"
        },
        {
          "indexed": false,
          "name": "value",
          "type": "uint256"
        },
        {
          "indexed": false,
          "name": "allowance",
          "type": "uint256"
        }
      ],
      "name": "CTransferFrom",
      "type": "event"
    },
    {
      "anonymous": false,
      "inputs": [
        {
          "indexed": false,
          "name": "to",
          "type": "address"
        },
        {
          "indexed": false,
          "name": "toId",
          "type": "uint256"
        },
        {
          "indexed": false,
          "name": "amount",
          "type": "uint256"
        }
      ],
      "name": "CIssue",
      "type": "event"
    },
    {
      "anonymous": false,
      "inputs": [
        {
          "indexed": false,
          "name": "from",
          "type": "address"
        },
        {
          "indexed": false,
          "name": "fromId",
          "type": "uint256"
        },
        {
          "indexed": false,
          "name": "amount",
          "type": "uint256"
        }
      ],
      "name": "CDestroy",
      "type": "event"
    },
    {
      "anonymous": false,
      "inputs": [
        {
          "indexed": false,
          "name": "from",
          "type": "address"
        },
        {
          "indexed": false,
          "name": "to",
          "type": "address"
        },
        {
          "indexed": false,
          "name": "tokenId",
          "type": "uint256"
        }
      ],
      "name": "Transfer",
      "type": "event"
    },
    {
      "anonymous": false,
      "inputs": [
        {
          "indexed": false,
          "name": "owner",
          "type": "address"
        },
        {
          "indexed": false,
          "name": "approved",
          "type": "address"
        },
        {
          "indexed": false,
          "name": "tokenId",
          "type": "uint256"
        }
      ],
      "name": "Approval",
      "type": "event"
    },
    {
      "anonymous": false,
      "inputs": [
        {
          "indexed": false,
          "name": "value",
          "type": "uint256"
        },
        {
          "indexed": false,
          "name": "metadata",
          "type": "string"
        },
        {
          "indexed": false,
          "name": "kind",
          "type": "uint256"
        },
        {
          "indexed": false,
          "name": "owner",
          "type": "address"
        }
      ],
      "name": "Birth",
      "type": "event"
    }
  ],
  "bytecode": "0x606060405234156200001057600080fd5b60405160808062006c828339810160405280805191906020018051919060200180519190602001805191506040905080519081016040908152601882527f4c7567676167652043726f7764737572616e6365204e4654000000000000000060208301528051908101604052600381527f4c435300000000000000000000000000000000000000000000000000000000006020820152818160008080620000b562000a21565b620000bf62000a21565b620000c962000a21565b60028054600160a060020a03191633600160a060020a03161790558787818181816000828051620000ff92916020019062000a5b565b5060018180516200011592916020019062000a5b565b5050600a8054600160a060020a03191633600160a060020a031617905550506004600c5550620001a29150678ac7230489e80000905060408051908101604052600981527f5375706572506f6f6c00000000000000000000000000000000000000000000006020820152600a54600190600160a060020a031664010000000062005a78620005d482021704565b955062000201600060408051908101604052600481527f506f6f6c000000000000000000000000000000000000000000000000000000006020820152600a54600190600160a060020a031664010000000062005a78620005d482021704565b945062000260600060408051908101604052600781527f537562506f6f6c000000000000000000000000000000000000000000000000006020820152600a54600290600160a060020a031664010000000062005a78620005d482021704565b93506200027c858764010000000062001747620007e582021704565b62000296848664010000000062001747620007e582021704565b60c060405190810160405280600060ff16815260200160018152602001600a815260200160018152602001878152602001600a8152509250600e8054806001018281620002e4919062000ae0565b600092835260209092208591600602018151815460ff191660ff919091161781556020820151816001015560408201518160020155606082015181600301556080820151816004015560a0820151816005015550505060c060405190810160405280600160ff168152602001600a8152602001606481526020016001815260200186815260200160148152509150600e805480600101828162000388919062000ae0565b600092835260209092208491600602018151815460ff191660ff919091161781556020820151816001015560408201518160020155606082015181600301556080820151816004015560a0820151816005015550505060c060405190810160405280600260ff1681526020016103e88152602001606481526020016001815260200185815260200160328152509050600e80548060010182816200042d919062000ae0565b600092835260209092208391600602018151815460ff191660ff919091161781556020820151816001015560408201518160020155606082015181600301556080820151816004015560a082015181600501555050506000600360008154811015156200049657fe5b6000918252602082206005918202019290925562f099c060105560128054600160ff199182161761ff00191661500017909155678ac7230489e800006013556014805460039083161790556202a30060155560168054909116909217909155600a6017556064601855670de0b6b3a76400006019556021819055602355505060248054600160a060020a031916600160a060020a038e161790555050664380663abb8000600f555050673782dace9d9000006011555050508315159050620005675764012a05f2006025556200056d565b60258390555b60ff811615156200058d576026805461ff001916610500179055620005a2565b6026805461ff00191661010060ff8416021790555b506026805491151560ff199283161790556701aa535d3d0c00006027556028805490911660501790555062000c7f9050565b6000620005e062000b14565b600060a060405190810160405280888152602001878152602001868152602001600081526020016000815250915060016003805480600101828162000626919062000b4c565b60009283526020909220859160050201815181556020820151816001019080516200065692916020019062000a5b565b506040820151816002015560608201518160030155608082015160049091015550039050801515620006ef576001600380548060010182816200069a919062000b4c565b6000928352602090922085916005020181518155602082015181600101908051620006ca92916020019062000a5b565b5060408201518160020155606082015181600301556080820151816004015550500390505b63ffffffff811681146200070257600080fd5b7fdea8e87d69047e1b3cd43ad599d34e3eacfe4408b4dfc5d0f6ac6a15a468de5c8787878760405184815260408101839052600160a060020a038216606082015260806020820181815290820185818151815260200191508051906020019080838360005b838110156200078157808201518382015260200162000767565b50505050905090810190601f168015620007af5780820380516001836020036101000a031916815260200191505b509550505050505060405180910390a1620007db60008583640100000000620049b06200091a82021704565b9695505050505050565b8115801590620007f6575060035482105b15156200080257600080fd5b801580159062000813575060035481105b15156200081f57600080fd5b6001600c54036003828154811015156200083557fe5b9060005260206000209060050201600301541015156200085457600080fd5b6000828152600d6020526040902081905560038054829081106200087457fe5b9060005260206000209060050201600301546001016003838154811015156200089957fe5b9060005260206000209060050201600301819055507f0900f87897aa374bb21fa36753905fa2944dd2301242246101a9047a0ed227a08282600385815481101515620008e157fe5b90600052602060002090600502016003015460405180848152602001838152602001828152602001935050505060405180910390a15050565b6104006003828154811015156200092d57fe5b906000526020600020906005020160040154141515156200094a57fe5b600160a060020a03808316600081815260056020908152604080832080546001019055858352600490915290208054600160a060020a0319169091179055831615620009cc57600160a060020a03831660009081526005602090815260408083208054600019019055838352600690915290208054600160a060020a03191690555b7fddf252ad1be2c89b69c2b068fc378daa952ba7f163c4a11628f55a4df523b3ef838383604051600160a060020a039384168152919092166020820152604080820192909252606001905180910390a1505050565b60c060405190810160405280600060ff16815260200160008152602001600081526020016000815260200160008152602001600081525090565b828054600181600116156101000203166002900490600052602060002090601f016020900481019282601f1062000a9e57805160ff191683800117855562000ace565b8280016001018555821562000ace579182015b8281111562000ace57825182559160200191906001019062000ab1565b5062000adc92915062000b7b565b5090565b81548183558181151162000b0f5760060281600602836000526020600020918201910162000b0f919062000b9b565b505050565b60a0604051908101604052806000815260200162000b3162000bdf565b81526020016000815260200160008152602001600081525090565b81548183558181151162000b0f5760050281600502836000526020600020918201910162000b0f919062000bf1565b62000b9891905b8082111562000adc576000815560010162000b82565b90565b62000b9891905b8082111562000adc57805460ff19168155600060018201819055600282018190556003820181905560048201819055600582015560060162000ba2565b60206040519081016040526000815290565b62000b9891905b8082111562000adc57600080825562000c15600183018262000c34565b5060006002820181905560038201819055600482015560050162000bf8565b50805460018160011615610100020316600290046000825580601f1062000c5c575062000c7c565b601f01602090049060005260206000209081019062000c7c919062000b7b565b50565b615ff38062000c8f6000396000f3006060604052600436106103e55763ffffffff7c01000000000000000000000000000000000000000000000000000000006000350416620f987f81146103e7578062607b7f1461041057806301ffc9a71461043a57806306fdde0314610472578063095ea7b3146104fc5780630dbf00211461051e57806317b9ebec1461055657806318160ddd1461056f57806319aa7625146105945780631aff0596146105a75780631c41931c146105ba5780631cced51b146106085780631d36e06c146106535780631de565d61461068557806323b872dd1461069857806329625005146106c05780632b47f5ce146106e55780632dcfcd5f1461073657806332c4ee831461074957806336c5d7241461076b57806339e6cdb1146107815780633c7e7d28146107a35780633c8deaca146107c25780634cabcfac146107d55780634dc621fa146107fa5780634fe89efe1461080d5780635237277714610842578063545c3d5514610855578063561892361461087a5780635690d0d91461088d578063604919ea146108e35780636352211e146108f657806366d80ba51461090c5780636914db601461092e57806370a082311461094457806379ba50971461096357806381d12c58146109765780638462151c146109c95780638903573014610a3b57806389d0cd0614610abb5780638b3c99e314610ace5780638da5cb5b14610ae45780638f1fc77c14610af7578063930f34fd14610b0a57806395d89b4114610b20578063973e9b8b14610b3357806398dc5c9514610b465780639a6c614e14610b6e5780639ca0883114610b815780639d26d1ca14610b97578063a01177cd14610baa578063a3ec138d14610bbd578063a846c2fd14610bdc578063a888c2cd14610bf2578063a8bd9c3214610c08578063a9059cbb14610c1e578063b121f2ac14610c40578063b129273f14610c62578063b135707914610c7b578063b688a36314610c9a578063bc89b1cf14610ca2578063be1d68ad14610cb5578063bf62266514610cd4578063c0521d7614610cfc578063c349026314610d21578063c52380e914610d3a578063c9d27afe14610d59578063cadf338f14610d74578063cbbc9f8914610d8a578063cc06c35914610daf578063cf7c436714610dc2578063d0d8074a14610de7578063d13319c414610dfa578063d4ee1d9014610e0d578063db595b3b14610e20578063db85d59c14610e33578063dd52c33814610e95578063dd62ed3e14610ea8578063dd6d3ca714610ecd578063deb8386a14610ee0578063dfefadff14610ef3578063e176507314610f49578063e527cc9d14610f5f578063f2fde38b14610f84578063f4ab9adf14610fa3578063f81fd7ea14610fc2575b005b34156103f257600080fd5b6103fa610fe7565b60405160ff909116815260200160405180910390f35b341561041b57600080fd5b610426600435611168565b604051901515815260200160405180910390f35b341561044557600080fd5b6104267fffffffff00000000000000000000000000000000000000000000000000000000600435166111ca565b341561047d57600080fd5b6104856114a3565b60405160208082528190810183818151815260200191508051906020019080838360005b838110156104c15780820151838201526020016104a9565b50505050905090810190601f1680156104ee5780820380516001836020036101000a031916815260200191505b509250505060405180910390f35b341561050757600080fd5b6103e5600160a060020a036004351660243561154c565b341561052957600080fd5b6105316115bf565b604051600160a060020a03909216825260ff1660208201526040908101905180910390f35b341561056157600080fd5b6103e5600435602435611747565b341561057a57600080fd5b610582611873565b60405190815260200160405180910390f35b341561059f57600080fd5b6103e561188e565b34156105b257600080fd5b6105826118a0565b34156105c557600080fd5b6105d36004356024356118bc565b60405160ff909516855260208501939093526040808501929092526060840152608083019190915260a0909101905180910390f35b341561061357600080fd5b61061b611b7a565b6040518082608080838360005b83811015610640578082015183820152602001610628565b5050505090500191505060405180910390f35b341561065e57600080fd5b610669600435611c5d565b604051600160a060020a03909116815260200160405180910390f35b341561069057600080fd5b610669611c78565b34156106a357600080fd5b6103e5600160a060020a0360043581169060243516604435611c87565b34156106cb57600080fd5b6103e5600160a060020a0360043516602435604435611cf7565b34156106f057600080fd5b6103e560046024813581810190830135806020601f82018190048102016040519081016040528181529291906020840183838082843750949650611da795505050505050565b341561074157600080fd5b6103e5611dbb565b341561075457600080fd5b610426600160a060020a0360043516602435611ddd565b341561077657600080fd5b6103e5600435611edd565b341561078c57600080fd5b6103e5600160a060020a0360043516602435611f7e565b34156107ae57600080fd5b610582600160a060020a036004351661203a565b34156107cd57600080fd5b6103e561204c565b34156107e057600080fd5b6103e5600160a060020a0360043516602435604435612070565b341561080557600080fd5b6103fa61211e565b341561081857600080fd5b610820612127565b604051600160a060020a03909216825260208201526040908101905180910390f35b341561084d57600080fd5b6104266121bf565b341561086057600080fd5b6103e5600160a060020a03600435166024356044356121c8565b341561088557600080fd5b610582612276565b341561089857600080fd5b6103e5600480359060446024803590810190830135806020601f820181900481020160405190810160405281815292919060208401838380828437509496506122dc95505050505050565b34156108ee57600080fd5b610426612308565b341561090157600080fd5b610669600435612322565b341561091757600080fd5b610426600160a060020a0360043516602435612346565b341561093957600080fd5b61048560043561237f565b341561094f57600080fd5b610582600160a060020a0360043516612446565b341561096e57600080fd5b6103e5612461565b341561098157600080fd5b61098c6004356124ef565b604051958652602086019490945260408086019390935260ff91821660608601528116608085015290911660a083015260c0909101905180910390f35b34156109d457600080fd5b6109e8600160a060020a036004351661252c565b60405160208082528190810183818151815260200191508051906020019060200280838360005b83811015610a27578082015183820152602001610a0f565b505050509050019250505060405180910390f35b3415610a4657600080fd5b610a4e61253d565b6040519b8c5260208c019a909a526040808c019990995260ff97881660608c015295871660808b015260a08a019490945291851660c089015260e0880152909216610100860152610120850191909152610140840152610160830191909152610180909101905180910390f35b3415610ac657600080fd5b6103e5612578565b3415610ad957600080fd5b6103e5600435612615565b3415610aef57600080fd5b610669612a05565b3415610b0257600080fd5b610582612a14565b3415610b1557600080fd5b6103e5600435612a5b565b3415610b2b57600080fd5b610485612b02565b3415610b3e57600080fd5b610582612b75565b3415610b5157600080fd5b610426600435600160a060020a0360243516604435606435612c10565b3415610b7957600080fd5b6103fa612d0b565b3415610b8c57600080fd5b610582600435612d19565b3415610ba257600080fd5b610582612d2b565b3415610bb557600080fd5b6103e5612d47565b3415610bc857600080fd5b610582600160a060020a0360043516612de6565b3415610be757600080fd5b610582600435612df8565b3415610bfd57600080fd5b610582600435612e0a565b3415610c1357600080fd5b610669600435612e29565b3415610c2957600080fd5b6103e5600160a060020a0360043516602435612e44565b3415610c4b57600080fd5b610582600160a060020a0360043516602435612e9a565b3415610c6d57600080fd5b610426600435602435612ed9565b3415610c8657600080fd5b610582600160a060020a0360043516612f82565b610582612ffb565b3415610cad57600080fd5b610582613300565b3415610cc057600080fd5b610582600160a060020a0360043516613306565b3415610cdf57600080fd5b610426600160a060020a0360043581169060243516604435613318565b3415610d0757600080fd5b610582600160a060020a036004351660ff602435166134ef565b3415610d2c57600080fd5b61042660043560243561356f565b3415610d4557600080fd5b610582600160a060020a036004351661380e565b3415610d6457600080fd5b6103e56004356024351515613820565b3415610d7f57600080fd5b610582600435613969565b3415610d9557600080fd5b610582600160a060020a0360043581169060243516613993565b3415610dba57600080fd5b6105826139b0565b3415610dcd57600080fd5b6103e5600160a060020a03600435166024356044356139b6565b3415610df257600080fd5b610582613b4f565b3415610e0557600080fd5b610485613b55565b3415610e1857600080fd5b610669613bff565b3415610e2b57600080fd5b610582613c0e565b3415610e3e57600080fd5b610e49600435613eec565b60405197885260208801969096526040808801959095526060870193909352608086019190915260a085015260ff90811660c085015290911660e0830152610100909101905180910390f35b3415610ea057600080fd5b610582613f35565b3415610eb357600080fd5b610582600160a060020a0360043581169060243516613f3f565b3415610ed857600080fd5b610582613f5c565b3415610eeb57600080fd5b610582613f85565b3415610efe57600080fd5b610f09600435613f8b565b604051948552600160a060020a03909316602085015260ff91821660408086019190915291166060840152901515608083015260a0909101905180910390f35b3415610f5457600080fd5b6109e8600435614017565b3415610f6a57600080fd5b610582600160a060020a0360043581169060243516614074565b3415610f8f57600080fd5b6103e5600160a060020a0360043516614091565b3415610fae57600080fd5b6103e5600160a060020a03600435166140f3565b3415610fcd57600080fd5b610582600160a060020a0360043581169060243516614299565b6000806000806000806000806000806000611000612276565b995089151561100e57600080fd5b611018338b6142f1565b151561102357600080fd5b600260008b8152601c6020526040902060060154610100900460ff161461104957600080fd5b5050506000878152601e60209081526040808320601c909252822060039081015490820154601254835460028501546001860154601654969d50949b5060ff8085169b506101009485900481169a50969850606493909204861602919091049450600160a060020a033016319342929091019190911091868801821691161481156110d757600294506110e2565b80156110e257600194505b60009a5060028560028111156110f457fe5b148061110b5750600185600281111561110957fe5b145b1561115b578560ff168760ff161180156111255750828411155b156111335760019a5061115b565b8560ff168760ff161480156111485750828811155b156111565760029a5061115b565b60039a505b5050505050505050505090565b600a5460009033600160a060020a0390811691161461118357fe5b8115801590611193575060035482105b151561119e57600080fd5b6111a9826002614311565b15156111b157fe5b6111ba826145c2565b15156111c257fe5b506001919050565b60006040517f737570706f727473496e74657266616365286279746573342900000000000000815260190160405180910390207bffffffffffffffffffffffffffffffffffffffffffffffffffffffff1916827bffffffffffffffffffffffffffffffffffffffffffffffffffffffff1916148061149d57506040517f746f6b656e4d657461646174612875696e743235362c737472696e67290000008152601d0160405180910390206040517f746f6b656e734f664f776e657228616464726573732900000000000000000000815260160160405180910390206040517f7472616e7366657246726f6d28616464726573732c616464726573732c75696e81527f7432353629000000000000000000000000000000000000000000000000000000602082015260250160405180910390206040517f7472616e7366657228616464726573732c75696e743235362900000000000000815260190160405180910390206040517f617070726f766528616464726573732c75696e74323536290000000000000000815260180160405180910390206040517f6f776e65724f662875696e743235362900000000000000000000000000000000815260100160405180910390206040517f62616c616e63654f662861646472657373290000000000000000000000000000815260120160405180910390206040517f746f74616c537570706c792829000000000000000000000000000000000000008152600d0160405180910390206040517f73796d626f6c2829000000000000000000000000000000000000000000000000815260080160405180910390206040517f6e616d6528290000000000000000000000000000000000000000000000000000815260060160405180910390201818181818181818187bffffffffffffffffffffffffffffffffffffffffffffffffffffffff1916827bffffffffffffffffffffffffffffffffffffffffffffffffffffffff1916145b92915050565b6114ab615c84565b60008054600181600116156101000203166002900480601f0160208091040260200160405190810160405280929190818152602001828054600181600116156101000203166002900480156115415780601f1061151657610100808354040283529160200191611541565b820191906000526020600020905b81548152906001019060200180831161152457829003601f168201915b505050505090505b90565b61155633826142f1565b151561156157600080fd5b61156b8183614955565b7f8c5be1e5ebec7d5bd14f71427d1e84f3dd0314c0f7b2291e5b200ac8c7c3b925338383604051600160a060020a039384168152919092166020820152604080820192909252606001905180910390a15050565b600a54600160a060020a033381166000908152601d60205260408120549190921691908190819081908190156115f8576005945061173f565b611600612276565b93508315156116ba576116116118a0565b600160a060020a0333166000908152601a60205260409020549093509150611637612b75565b905082158015611645575081155b1561165357600194506116b5565b8215801590611660575081155b1561166e57600294506116b5565b8215801561167b57508115155b8015611685575080155b1561169357600394506116b5565b821580156116a057508115155b80156116ab57508015155b156116b557600494505b61173f565b600080858152601c6020526040902060060154610100900460ff1614156116e457600a945061173f565b60016000858152601c6020526040902060060154610100900460ff16141561170f57600b945061173f565b60026000858152601c6020526040902060060154610100900460ff16141561173f57611739610fe7565b60140194505b505050509091565b8115801590611757575060035482105b151561176257600080fd5b8015801590611772575060035481105b151561177d57600080fd5b6001600c540360038281548110151561179257fe5b9060005260206000209060050201600301541015156117b057600080fd5b6000828152600d6020526040902081905560038054829081106117cf57fe5b9060005260206000209060050201600301546001016003838154811015156117f357fe5b9060005260206000209060050201600301819055507f0900f87897aa374bb21fa36753905fa2944dd2301242246101a9047a0ed227a0828260038581548110151561183a57fe5b90600052602060002090600502016003015460405180848152602001838152602001828152602001935050505060405180910390a15050565b6003546000908181111561188657600019015b8091505b5090565b61189e611899612276565b612615565b565b600160a060020a0333166000908152601f602052604090205490565b60008060008060006118cc615c96565b60008082526020820181905260408201819052606082018190526004965080808a158015906118fc57506003548b105b151561190757600080fd5b89151561191357600080fd5b61191d338c6142f1565b151561192857600080fd5b60008b8152600d6020526040902054925082151561194557600080fd5b6000838152600d6020526040902054915081151561196257600080fd5b506000818152600d602052604090205480151561197e57600080fd5b6003985060038381548110151561199157fe5b60009182526020909120600590910201548a116119ba576002985089848a5b6020020152611b4d565b60038054849081106119c857fe5b9060005260206000209060050201600001546003838154811015156119e957fe5b6000918252602090912060059091020154018a11611a52576003805460019a5084908110611a1357fe5b600091825260209091206005909102015460408501526003805484908110611a3757fe5b60009182526020909120600590910201548a038460016119b0565b6003805484908110611a6057fe5b906000526020600020906005020160000154600383815481101515611a8157fe5b906000526020600020906005020160000154600383815481101515611aa257fe5b600091825260209091206005909102015401018a11611b4d576003805460009a5084908110611acd57fe5b600091825260209091206005909102015460408501526003805483908110611af157fe5b600091825260209182902060059091020154908501526003805483908110611b1557fe5b906000526020600020906005020160000154600384815481101515611b3657fe5b60009182526020909120600590910201548b030384525b60408401519750602084015196508351955030600160a060020a0316319450505050509295509295909350565b611b82615c96565b600080825260208201819052604082018190526060820181905260015b600354811015611c58576003805482908110611bb757fe5b9060005260206000209060050201600301549150600c548260ff161015611c25576003805482908110611be657fe5b60009182526020909120600590910201548360ff841660048110611c0657fe5b6020020151018360ff841660048110611c1b57fe5b6020020152611c50565b6003805482908110611c3357fe5b600091825260209091206005909102015460608401510160608401525b600101611b9f565b505090565b600460205260009081526040902054600160a060020a031681565b602454600160a060020a031681565b600160a060020a0382161515611c9c57600080fd5b30600160a060020a031682600160a060020a031614151515611cbd57600080fd5b611cc73382614990565b1515611cd257600080fd5b611cdc83826142f1565b1515611ce757600080fd5b611cf28383836149b0565b505050565b600a5433600160a060020a03908116911614611d0f57fe5b611d1983836142f1565b1515611d2457600080fd5b80600383815481101515611d3457fe5b9060005260206000209060050201600301819055507f48ed1b5769aee6cf16cda3da1db2a0acf83c194c9d2a98ebeff4904567af58f68383836040518084600160a060020a0316600160a060020a03168152602001838152602001828152602001935050505060405180910390a1505050565b611db8611db2612276565b826122dc565b50565b600160a060020a0333166000908152601d602052604081205461189e91613820565b6000808080600160a060020a0386161515611df757600080fd5b841515611e0357600080fd5b339250611e0f83614ace565b9150611e1a86614ace565b905081811415611e2957600080fd5b811515611e3557600080fd5b801515611e4157600080fd5b600160a060020a038381166000818152600860209081526040808320948b168084529482528083208690559282528282208690556009815282822093825292909252908190208690557fe051949e9a44e2e9c21ee7d1c7b03ef0bf501aa3b7c4616a8543f229c0bede7a908790879051600160a060020a03909216825260208201526040908101905180910390a1600193505b50505092915050565b60008115801590611eef575060035482105b1515611efa57600080fd5b611f0382614b18565b90508015611f1057600080fd5b6000828152600d6020526040812055600380547f399c331be71add502e95a2402ba7370605a945c1c6c1dc01c5e30f7e896cfa5691849182908110611f5157fe5b90600052602060002090600502016003015460405191825260208201526040908101905180910390a15050565b600a5433600160a060020a03908116911614611f9657fe5b611fa082826142f1565b1515611fab57600080fd5b6003805482908110611fb957fe5b906000526020600020906005020160030154600101600382815481101515611fdd57fe5b9060005260206000209060050201600301819055507fb6ffa2bc58069f160ac94855c396bc8a7c591ae4b9e69d78cc004ad2e4d70d858282604051600160a060020a03909216825260208201526040908101905180910390a15050565b601a6020526000908152604090205481565b600160a060020a0333166000908152601d602052604090205461189e906001613820565b6000600160a060020a038416151561208757600080fd5b81151561209357600080fd5b50818015156120a8576120a584614ace565b90505b8015156120b457600080fd5b6120bf848284614b76565b7f8ee078ba6dd38678f9ffdc8f1df2d512559df0cae2db32c829459127e10031978484846040518084600160a060020a0316600160a060020a03168152602001838152602001828152602001935050505060405180910390a150505050565b60285460ff1681565b60215460009081908190151561213c576121ba565b5060015b6020548110156121ba57602080548290811061215857fe5b906000526020600020906002020160010160169054906101000a900460ff1615156121b257602080548290811061218b57fe5b6000918252602090912060016002909202010154600160a060020a031692509050806121ba565b600101612140565b509091565b60265460ff1681565b6000600160a060020a03841615156121df57600080fd5b8115156121eb57600080fd5b5081801515612200576121fd84614ace565b90505b80151561220c57600080fd5b612217848284614c64565b7ff3d0e22890d929d2a1cd5ca9e5f6498c4271ce2f0223ab4092297c2d11c9ef758484846040518084600160a060020a0316600160a060020a03168152602001838152602001828152602001935050505060405180910390a150505050565b6000612280615c84565b600a5433600160a060020a03908116911614156122a0576000915061188a565b6122a933614d26565b905060008151116122bb5760006122d6565b806001825103815181106122cb57fe5b906020019060200201515b91505090565b6026543390610100900460ff166122f48260016134ef565b106122fe57600080fd5b611cf28383614e1b565b600061231d612315612276565b60195461356f565b905090565b600081815260046020526040812054600160a060020a031680151561149d57600080fd5b600080600160a060020a038416151561235e57600080fd5b82151561236a57600080fd5b5033612377818585613318565b949350505050565b612387615c84565b600380548390811061239557fe5b90600052602060002090600502016001018054600181600116156101000203166002900480601f01602080910402602001604051908101604052809291908181526020018280546001816001161561010002031660029004801561243a5780601f1061240f5761010080835404028352916020019161243a565b820191906000526020600020905b81548152906001019060200180831161241d57829003601f168201915b50505050509050919050565b600160a060020a031660009081526005602052604090205490565b600b5433600160a060020a0390811691161461247c57600080fd5b600b54600a54600160a060020a0391821691167f343765429aea5a34b3ff6a3785a98a5abb2597aca87bfbb58632c173d585373a60405160405180910390a3600b8054600a805473ffffffffffffffffffffffffffffffffffffffff19908116600160a060020a03841617909155169055565b601e6020526000908152604090208054600182015460028301546003909301549192909160ff808216916101008104821691620100009091041686565b612534615c84565b61149d82614d26565b600f5460105460115460125460135460145460155460165460175460185460195460ff8089169861010090048116979681169594169291908c565b600a5460009033600160a060020a0390811691161461259357fe5b6003805460009081106125a257fe5b600091825260209091206005909102015490508015156125c157600080fd5b6000600360008154811015156125d357fe5b6000918252602090912060059091020155600160a060020a03331681156108fc0282604051600060405180830381858888f193505050501515611db857600080fd5b600080600080612623615c96565b600086151561263157600080fd5b61263b33886142f1565b151561264657600080fd5b60026000888152601c6020526040902060060154610100900460ff161461266c57600080fd5b6000878152601e60205260409020600281015460018201546016546003840154939950429190920110965060ff90811661010083048216928216929092011614935084806126b75750835b15156126c257600080fd5b6012548654606491610100900460ff16026003880154919004935060ff6101008204811691161180156126fa57506126fa8784614f6b565b156127c757600160a060020a03331683156108fc0284604051600060405180830381858888f19350505050151561273057600080fd5b6000878152601c6020526040902060068101805461ff00191661030017905560040180548401905561276287846150b4565b91507f261826fbdc11ee0da48a5356542bcb46786deaed4c215b871d3df7a03652262d33888560035b604051600160a060020a039094168452602084019290925260408084019190915260ff90911660608301526080909101905180910390a1612968565b600386015460ff8082166101009092041614806127ff5750601454600387015460ff9182166101008204831691831691909101909116105b801561282357506000878152601c6020526040902060030154612823908890614f6b565b156128e9576000878152601c60205260409081902060030154600160a060020a0333169181156108fc02919051600060405180830381858888f19350505050151561286d57600080fd5b6000878152601c6020526040902060068101805461ff001916610500179055600381015460049091018054820190556128a79088906150b4565b6000888152601c60205260409020600301549092507f261826fbdc11ee0da48a5356542bcb46786deaed4c215b871d3df7a03652262d9033908990600561278b565b6000878152601c6020526040808220600601805461ff0019166104001790557f261826fbdc11ee0da48a5356542bcb46786deaed4c215b871d3df7a03652262d9133918a919060049051600160a060020a039094168452602084019290925260408084019190915260ff90911660608301526080909101905180910390a15b600386015462010000900460ff168110156129b657601d600060048801836005811061299057fe5b0154600160a060020a031681526020810191909152604001600090812055600101612968565b6000878152601e60205260408120818155600181018290556002810182905560038101805462ffffff19169055906129f16004830182615cbd565b50506129fb615c96565b5050505050505050565b600a54600160a060020a031681565b600354600090819060015b81811015612a53576003805482908110612a3557fe5b60009182526020909120600590910201549290920191600101612a1f565b509092915050565b6000612a6733836142f1565b1515612a7257600080fd5b811515612a7e57600080fd5b50600081815260296020526040902054801515612a9a57600080fd5b6000828152601c602052604090206004015415612ab657600080fd5b6000828152601c602052604090819020600401829055600160a060020a0333169082156108fc0290839051600060405180830381858888f193505050501515612afe57600080fd5b5050565b612b0a615c84565b60018054600181600116156101000203166002900480601f0160208091040260200160405190810160405280929190818152602001828054600181600116156101000203166002900480156115415780601f1061151657610100808354040283529160200191611541565b602454600090600160a060020a031663dd62ed3e333084604051602001526040517c010000000000000000000000000000000000000000000000000000000063ffffffff8516028152600160a060020a03928316600482015291166024820152604401602060405180830381600087803b1515612bf157600080fd5b6102c65a03f11515612c0257600080fd5b505050604051805192915050565b600080600160a060020a0385161515612c2857600080fd5b85841415612c3557600080fd5b851515612c4157600080fd5b831515612c4d57600080fd5b821515612c5957600080fd5b5033600160a060020a038181166000818152600860209081526040808320948a168084529482528083208990559282528282208a90556009815282822093825292909252908190208490557fef4beaa380feab20776f162f92bbf15b04c59f8fd4e8ab2508b8d29fed7dfd6190879087908790879051938452600160a060020a03909216602084015260408084019190915260608301919091526080909101905180910390a150600195945050505050565b602654610100900460ff1681565b600d6020526000908152604090205481565b600160a060020a0333166000908152601a602052604090205490565b600a54600090819033600160a060020a03908116911614612d6457fe5b612d6c612127565b9092509050600160a060020a03821615801590612d8857508015155b15612afe57601854600f54612d9e9184916139b6565b7fa2b47dc564bd9b8719fa8435590eb01665bade49e1fa4890022587a074d9e4268282604051600160a060020a03909216825260208201526040908101905180910390a15050565b601d6020526000908152604090205481565b60296020526000908152604090205481565b6022805482908110612e1857fe5b600091825260209091200154905081565b600660205260009081526040902054600160a060020a031681565b600160a060020a0382161515612e5957600080fd5b30600160a060020a031682600160a060020a031614151515612e7a57600080fd5b612e8433826142f1565b1515612e8f57600080fd5b612afe3383836149b0565b6000612ea683836142f1565b1515612eb157600080fd5b6003805483908110612ebf57fe5b906000526020600020906005020160030154905092915050565b600a54600090819033600160a060020a03908116911614612ef657fe5b831515612f0257600080fd5b821515612f0e57600080fd5b602854600f5460649160ff160204831115612f2857600080fd5b6000848152601c602052604090206004015415612f4457600080fd5b506000838152601c60205260409020600281015460019091015401428110612f6b57600080fd5b505060009182526029602052604090912055600190565b6000612f8c615c84565b6000806000612f9a86614d26565b93506000925083519150600090505b81811015612ff1576003848281518110612fbf57fe5b9060200190602002015181548110612fd357fe5b60009182526020909120600590910201549290920191600101612fa9565b5090949350505050565b33600160a060020a0381166000908152601b60205260408120549091349183808083151561302857600080fd5b60265460ff16158015613039575034155b156132aa57602454600160a060020a0316151561305557600080fd5b602554151561306357600080fd5b602454600160a060020a031663dd62ed3e86306000604051602001526040517c010000000000000000000000000000000000000000000000000000000063ffffffff8516028152600160a060020a03928316600482015291166024820152604401602060405180830381600087803b15156130dd57600080fd5b6102c65a03f115156130ee57600080fd5b5050506040518051602454909450600160a060020a0316905063313ce5676000604051602001526040518163ffffffff167c0100000000000000000000000000000000000000000000000000000000028152600401602060405180830381600087803b151561315c57600080fd5b6102c65a03f1151561316d57600080fd5b5050506040518051905060ff169150602554831015151561318d57600080fd5b50600160a060020a0384166000908152601a60205260409020546027549095508202600182106131d15760001990910190600a82900a818115156131cd57fe5b0490505b8581101580156131e35750600f548610155b15156131ee57600080fd5b602454600a54602554600160a060020a03928316926323b872dd9289929116906000604051602001526040517c010000000000000000000000000000000000000000000000000000000063ffffffff8616028152600160a060020a0393841660048201529190921660248201526044810191909152606401602060405180830381600087803b151561327f57600080fd5b6102c65a03f1151561329057600080fd5b5050506040518051905015156132a557600080fd5b6132ea565b85158015906132bb5750600f548610155b15156132c657600080fd5b600160a060020a0385166000908152601a602052604090205486146132ea57600080fd5b6132f58585886156db565b965050505050505090565b60275481565b601f6020526000908152604090205481565b600080808080600160a060020a038716151561333357600080fd5b85151561333f57600080fd5b50505050600160a060020a038481166000818152600860209081526040808320948816808452948252808320549383528083205460098352818420958452949091529020548692908183141561339457600080fd5b8215156133a057600080fd5b8115156133ac57600080fd5b8015156133b857600080fd5b858110156133c557600080fd5b6133d2848389868a615889565b600160a060020a038481166000908152600960209081526040808320938b16835292905220805487900390819055151561344a57600160a060020a038481166000818152600960209081526040808320948c168084529482528083208390559282526008815282822090528181208190559182528120555b600160a060020a038085166000908152600960209081526040808320938b168352929052819020547fa085ba1c72fda1f13ecb6e0347284ac7d016a73b7a47c0ba151368bbe5ce2db9918a9185918b9188918c919051600160a060020a0396871681526020810195909552929094166040808501919091526060840191909152608083019390935260a082015260c001905180910390a1506001979650505050505050565b60006134f9615c84565b600061350485614d26565b915060009250600090505b8151811015613567578360ff16601c600084848151811061352c57fe5b906020019060200201518152602081019190915260400160002060060154610100900460ff16141561355f576001909201915b60010161350f565b505092915050565b6000808084151561357f57600080fd5b61358933866142f1565b151561359457600080fd5b8315156135a057600080fd5b60016000868152601c6020526040902060060154610100900460ff16146135c657600080fd5b6012546000868152601c602052604090206006015460ff9182169116106135ec57600080fd5b601254606490610100900460ff1685026013546000888152601c6020526040902060040154929091049350908301111561362557600080fd5b506000848152601c602052604090206002810154600190910154014281101561364d57600080fd5b60e06040519081016040908152858252426020830152601554818301526000606083018190526080830181905260a08084019190915260c083019151908101604090815260008083526020808401829052828401829052606084018290526080840182905292909352888352601e9091529020815181556020820151816001015560408201518160020155606082015160038201805460ff191660ff9290921691909117905560808201518160030160016101000a81548160ff021916908360ff16021790555060a08201518160030160026101000a81548160ff021916908360ff16021790555060c082015161374a9060048301906005615ce0565b5050506000858152601c60205260409020600601805461ff001960ff198216600160ff938416810190931617166102001790915560228054909181016137908382615d43565b506000918252602080832091909101879055868252601c9052604090819020600601547fb3ef0c14cd9ed6533151b9a921ddb33f8716dd3593254ffc741ae770313e3bea918791879160ff9091169051928352602083019190915260ff166040808301919091526060909101905180910390a1506001949350505050565b601b6020526000908152604090205481565b60008083151561382f57600080fd5b600160a060020a0333166000908152601d6020526040902054841461385357600080fd5b6000848152601c602052604090206006015460ff6101009091041660021461387a57600080fd5b50506000828152601e602052604090206002810154600182015401428110156138a257600080fd5b82156138c55760038201805460ff8082166001011660ff199091161790556138e7565b60038201805460ff61010080830482166001019091160261ff00199091161790555b601d600033600160a060020a0316600160a060020a03168152602001908152602001600020600090557f8d85a70fd2c5d140a4a01143492d27ff82cfad4cead313e66c53f39b0feb5e0f338585604051600160a060020a039093168352602083019190915215156040808301919091526060909101905180910390a150505050565b600060038281548110151561397a57fe5b9060005260206000209060050201600001549050919050565b600960209081526000928352604080842090915290825290205481565b600c5481565b600a5460009033600160a060020a039081169116146139d157fe5b600160a060020a03841615156139e657600080fd5b8215156139f257600080fd5b8115801590613a035750600f548210155b1515613a0e57600080fd5b50600160a060020a0383166000908152601a60209081526040808320849055601b8252808320859055601f9091529020548015801590613a4f575060205481105b15613af0576001602082815481101515613a6557fe5b6000918252602080832060016002909302019190910180549315157601000000000000000000000000000000000000000000000276ff000000000000000000000000000000000000000000001990941693909317909255600160a060020a0386168152601f90915260408120556021805460001901908190551515613af057613af060206000615d67565b7f21619a95128e7e5c5367774b6479b6edbc059210239e39bbd50dbae00cfe09728484846040518084600160a060020a0316600160a060020a03168152602001838152602001828152602001935050505060405180910390a150505050565b60255481565b613b5d615c84565b600160a060020a0333166000908152601d6020526040902054600380549091908110613b8557fe5b90600052602060002090600502016001018054600181600116156101000203166002900480601f0160208091040260200160405190810160405280929190818152602001828054600181600116156101000203166002900480156115415780601f1061151657610100808354040283529160200191611541565b600b54600160a060020a031681565b6000613c18615d88565b600160a060020a0333166000908152601f6020526040902054915081158015613c445750601754602154105b1561188a5760a06040519081016040528042815260200133600160a060020a03168152602001600160ff168152602001600060ff168152602001600015158152509050600160208054806001018281613c9d9190615db6565b6000928352602090922084916002020181518155602082015160018201805473ffffffffffffffffffffffffffffffffffffffff1916600160a060020a039290921691909117905560408201518160010160146101000a81548160ff021916908360ff16021790555060608201518160010160156101000a81548160ff021916908360ff1602179055506080820151600190910180549115157601000000000000000000000000000000000000000000000276ff000000000000000000000000000000000000000000001990921691909117905550039150811515613e6b57600160208054806001018281613d929190615db6565b6000928352602090922084916002020181518155602082015160018201805473ffffffffffffffffffffffffffffffffffffffff1916600160a060020a039290921691909117905560408201518160010160146101000a81548160ff021916908360ff16021790555060608201518160010160156101000a81548160ff021916908360ff1602179055506080820151600190910180549115157601000000000000000000000000000000000000000000000276ff0000000000000000000000000000000000000000000019909216919091179055500391505b63ffffffff82168214613e7d57600080fd5b33600160a060020a0381166000908152601f6020526040908190208490556021805460010190557f59470163a7d3423114f115af31707633dd4930abac0f3662fc3c4ef323f39a869190849051600160a060020a03909216825260208201526040908101905180910390a15090565b601c602052600090815260409020805460018201546002830154600384015460048501546005860154600690960154949593949293919290919060ff8082169161010090041688565b6023546022540390565b600760209081526000928352604080842090915290825290205481565b600060036000815481101515613f6e57fe5b906000526020600020906005020160000154905090565b60215481565b6020805482908110613f9957fe5b600091825260209091206002909102018054600190910154909150600160a060020a0381169060ff740100000000000000000000000000000000000000008204811691750100000000000000000000000000000000000000000081048216917601000000000000000000000000000000000000000000009091041685565b61401f615c84565b6000828152600d6020526040812054905b600c5481101561406d578183828151811061404757fe5b60209081029091018101919091526000928352600d905260409091205490600101614030565b5050919050565b600860209081526000928352604080842090915290825290205481565b600a5433600160a060020a039081169116146140a957fe5b600a54600160a060020a03828116911614156140c457600080fd5b600b805473ffffffffffffffffffffffffffffffffffffffff1916600160a060020a0392909216919091179055565b600a5460009081908190819033600160a060020a0390811691161461411457fe5b6022546023541061412457600080fd5b602260235481548110151561413557fe5b6000918252602090912001549350600160a060020a038516151561415857600080fd5b83151561416457600080fd5b60026000858152601c6020526040902060060154610100900460ff161461418a57600080fd5b6000848152601e60205260409020805490935015156141a857600080fd5b60028301546001840154019150428210156141c257600080fd5b50600382015460165460ff620100009092048216911681106141e357600080fd5b846004840160ff8316600581106141f657fe5b018054600160a060020a0392831673ffffffffffffffffffffffffffffffffffffffff1990911617905560038401805460ff6201000080830482166001018216810262ff0000199093169290921783559288166000908152601d6020526040902087905560165491540482169116141561429257602380546001019081905560225414156142925760006023819055614290602282615d43565b505b5050505050565b6000600160a060020a03821615156142b057600080fd5b600160a060020a03831615156142c557600080fd5b50600160a060020a03918216600090815260096020908152604080832093909416825291909152205490565b600090815260046020526040902054600160a060020a0391821691161490565b60008060008060006143238787615a19565b935061432e84614b18565b925061433a8787615a47565b9150818310156143a15761434e8785611747565b7f69186e91a26c2cd1f67397df408ddeb0db9249dbd6e2a428ad8ae0d59ba3bc88878588604051928352602083019190915260ff166040808301919091526060909101905180910390a1600194506145b8565b600e805460ff88169081106143b257fe5b906000526020600020906006020160010154600e8760ff168154811015156143d657fe5b90600052602060002090600602016003015414156143f757600094506145b8565b6144e9600060038681548110151561440b57fe5b90600052602060002090600502016001018054600181600116156101000203166002900480601f0160208091040260200160405190810160405280929190818152602001828054600181600116156101000203166002900480156144b05780601f10614485576101008083540402835291602001916144b0565b820191906000526020600020905b81548152906001019060200180831161449357829003601f168201915b50505050506003878154811015156144c457fe5b6000918252602090912060026005909202010154600a54600160a060020a0316615a78565b905080156145b3576144fe8160018803614311565b156145b35761450d8782611747565b7f69186e91a26c2cd1f67397df408ddeb0db9249dbd6e2a428ad8ae0d59ba3bc88878288604051928352602083019190915260ff166040808301919091526060909101905180910390a180600e8760ff1681548110151561456a57fe5b6000918252602090912060046006909202010155600e805460ff881690811061458f57fe5b600091825260209091206003600690920201018054600190810190915594506145b8565b600094505b5050505092915050565b60008080808080808088158015906145db575060035489105b15156145e657600080fd5b6001600c540360038a8154811015156145fb57fe5b90600052602060002090600502016003015414151561461957600080fd5b6000898152600d6020526040902054965086151561463657600080fd5b6000878152600d6020526040902054955085151561465357600080fd5b6000868152600d6020526040902054945084151561467057600080fd5b6064600e600281548110151561468257fe5b90600052602060002090600602016005015460038b8154811015156146a357fe5b906000526020600020906005020160000154028115156146bf57fe5b0493508315156146ce57600080fd5b6064600e60018154811015156146e057fe5b90600052602060002090600602016005015460038b81548110151561470157fe5b9060005260206000209060050201600001540281151561471d57fe5b04925082151561472c57600080fd5b6064600e600081548110151561473e57fe5b90600052602060002090600602016005015460038b81548110151561475f57fe5b9060005260206000209060050201600001540281151561477b57fe5b04915081151561478a57600080fd5b81838560038c81548110151561479c57fe5b600091825260209091206005909102015403030390508015156147be57600080fd5b836003888154811015156147ce57fe5b906000526020600020906005020160000154016003888154811015156147f057fe5b6000918252602090912060059091020155600380548491908890811061481257fe5b9060005260206000209060050201600001540160038781548110151561483457fe5b6000918252602090912060059091020155600380548391908790811061485657fe5b9060005260206000209060050201600001540160038681548110151561487857fe5b6000918252602082206005909102019190915560038054839290811061489a57fe5b90600052602060002090600502016000015401600360008154811015156148bd57fe5b60009182526020822060059091020191909155600380548b9081106148de57fe5b60009182526020909120600590910201557fcfd3c3fcdcb63bcee48ff9a9ec28351afef5ba4fc9b5a8f46d5aa65565a3b1a38983858785604051808681526020018581526020018481526020018381526020018281526020019550505050505060405180910390a150600198975050505050505050565b600091825260066020526040909120805473ffffffffffffffffffffffffffffffffffffffff1916600160a060020a03909216919091179055565b600090815260066020526040902054600160a060020a0391821691161490565b6104006003828154811015156149c257fe5b906000526020600020906005020160040154141515156149de57fe5b600160a060020a0380831660008181526005602090815260408083208054600101905585835260049091529020805473ffffffffffffffffffffffffffffffffffffffff19169091179055831615614a7957600160a060020a0383166000908152600560209081526040808320805460001901905583835260069091529020805473ffffffffffffffffffffffffffffffffffffffff191690555b7fddf252ad1be2c89b69c2b068fc378daa952ba7f163c4a11628f55a4df523b3ef838383604051600160a060020a039384168152919092166020820152604080820192909252606001905180910390a1505050565b6000614ad8615c84565b6000614ae384614d26565b915081519050801515614af9576000925061406d565b81600081518110614b0657fe5b90602001906020020151949350505050565b600080808315801590614b2c575060035484105b1515614b3757600080fd5b614b3f611873565b915060009250600190505b81811161406d576000818152600d6020526040902054841415614b6e576001909201915b600101614b4a565b614b8083836142f1565b1515614b8b57600080fd5b801515614b9757600080fd5b80600383815481101515614ba757fe5b60009182526020909120600590910201541015614bc357600080fd5b80600383815481101515614bd357fe5b90600052602060002090600502016000015403600383815481101515614bf557fe5b60009182526020909120600590910201557f45dacd427fd388bf162986dbc958cdcf160c31b40efe076907cff377b9857c798383836040518084600160a060020a0316600160a060020a03168152602001838152602001828152602001935050505060405180910390a1505050565b614c6e83836142f1565b1515614c7957600080fd5b801515614c8557600080fd5b80600383815481101515614c9557fe5b90600052602060002090600502016000015401600383815481101515614cb757fe5b60009182526020909120600590910201557f20f4934a3b4928cca0e51f3f1eaac12dee9af151a8a8ba5a424a89d93f6bf53d8383836040518084600160a060020a0316600160a060020a03168152602001838152602001828152602001935050505060405180910390a1505050565b614d2e615c84565b6000614d38615c84565b60008080600160a060020a0387161515614d5157600080fd5b614d5a87612446565b9450841515614d8a576000604051805910614d725750595b90808252806020026020018201604052509550614e11565b84604051805910614d985750595b90808252806020026020018201604052509350614db3611873565b925060009150600190505b828111614e0d57600081815260046020526040902054600160a060020a0388811691161415614e055780848380600101945081518110614dfa57fe5b602090810290910101525b600101614dbe565b8395505b5050505050919050565b811515614e2757600080fd5b614e3133836142f1565b1515614e3c57600080fd5b6000828152601c60205260409020600301541515614e5957600080fd5b6000828152601c602052604090206006015460ff6101009091041660011415614e8157600080fd5b610400600383815481101515614e9357fe5b60009182526020808320600590920290910160040192909255838152601c9091526040902060068101805461ff00191661010017905542600191909101556003805482919084908110614ee257fe5b9060005260206000209060050201600101908051614f04929160200190615de2565b506000828152601c60205260409081902060038101546005909101547ff5d2d36fd2c60192fd8f874c962737f1858ff797bf9865d071ade33eeee0070192859291905180848152602001838152602001828152602001935050505060405180910390a15050565b6000828152600d60205260408120548180821515614f8857600080fd5b6000838152600d60205260409020549150811515614fa557600080fd5b506000818152600d6020526040902054801515614fc157600080fd5b6003805484908110614fcf57fe5b60009182526020909120600590910201548511614fef5760019350611ed4565b6003805484908110614ffd57fe5b90600052602060002090600502016000015460038381548110151561501e57fe5b600091825260209091206005909102015401851161503f5760019350611ed4565b600380548490811061504d57fe5b90600052602060002090600502016000015460038381548110151561506e57fe5b90600052602060002090600502016000015460038381548110151561508f57fe5b600091825260209091206005909102015401018511611ed45750600195945050505050565b6150bc615c96565b6000808085158015906150d0575060035486105b15156150db57600080fd5b8415156150e757600080fd5b60008085526020808601829052604080870183905260608701839052888352600d909152902054925082151561511c57600080fd5b6000838152600d6020526040902054915081151561513957600080fd5b506000818152600d602052604090205480151561515557600080fd5b600380548490811061516357fe5b60009182526020909120600590910201548511615213576040840185815251600380548590811061519057fe5b906000526020600020906005020160000154036003848154811015156151b257fe5b60009182526020909120600590910201557f7c6ae15e271230e8f8b92de835be76e504f4bb32c5c02872b19e167d6d100fbf86866002604051928352602083019190915260ff166040808301919091526060909101905180910390a1611ed4565b600380548490811061522157fe5b90600052602060002090600502016000015460038381548110151561524257fe5b60009182526020909120600590910201540185116153d6577ff5e9c26d6f4f4192de6ab81062e5f90501d77f924b508e44728a2b78d3c12c6d8684876002604051938452602084019290925260408084019190915260ff90911660608301526080909101905180910390a160038054849081106152bb57fe5b6000918252602090912060059091020154604085015260038054849081106152df57fe5b6000918252602091829020600590910201548603908501526040840151600380548590811061530a57fe5b9060005260206000209060050201600001540360038481548110151561532c57fe5b60009182526020909120600590910201558360016020020151600380548490811061535357fe5b9060005260206000209060050201600001540360038381548110151561537557fe5b60009182526020909120600590910201557f7c6ae15e271230e8f8b92de835be76e504f4bb32c5c02872b19e167d6d100fbf86866001604051928352602083019190915260ff166040808301919091526060909101905180910390a1611ed4565b60038054849081106153e457fe5b90600052602060002090600502016000015460038381548110151561540557fe5b90600052602060002090600502016000015460038381548110151561542657fe5b600091825260209091206005909102015401018511615645577ff5e9c26d6f4f4192de6ab81062e5f90501d77f924b508e44728a2b78d3c12c6d8683876001604051938452602084019290925260408084019190915260ff90911660608301526080909101905180910390a160038054849081106154a057fe5b6000918252602090912060059091020154604085015260038054839081106154c457fe5b6000918252602091829020600590910201549085015260038054839081106154e857fe5b90600052602060002090600502016000015460038481548110151561550957fe5b600091825260209091206005909102015486030384526040840151600380548590811061553257fe5b9060005260206000209060050201600001540360038481548110151561555457fe5b60009182526020909120600590910201558360016020020151600380548490811061557b57fe5b9060005260206000209060050201600001540360038381548110151561559d57fe5b6000918252602090912060059091020155835160038054839081106155be57fe5b906000526020600020906005020160000154036003828154811015156155e057fe5b9060005260206000209060050201600001819055507f7c6ae15e271230e8f8b92de835be76e504f4bb32c5c02872b19e167d6d100fbf86866000604051928352602083019190915260ff166040808301919091526060909101905180910390a1611ed4565b7ff5e9c26d6f4f4192de6ab81062e5f90501d77f924b508e44728a2b78d3c12c6d8682876000604051938452602084019290925260408084019190915260ff90911660608301526080909101905180910390a17f95f5c188d1321fe8984cadebc18c8fcaddc6cedbf14ee92f03f318c0e2038485868660405191825260208201526040908101905180910390a150505092915050565b60008061571e8360408051908101604052600c81527f43726f7764737572616e636500000000000000000000000000000000000000006020820152600088615a78565b90506101006040519081016040528042815260200160008152602001600f60010154815260200184815260200160008152602001858152602001600060ff1681526020016000600581111561576f57fe5b60ff1690526000828152601c60205260409020815181556020820151816001015560408201518160020155606082015181600301556080820151816004015560a0820151816005015560c082015160068201805460ff191660ff9290921691909117905560e08201516006909101805460ff929092166101000261ff00199092169190911790555061580081615c6a565b507fbca387acb0ba7d06e329c4372885bb664f19a98153ccf3e74e56c136bf0e88c48582856040518084600160a060020a0316600160a060020a03168152602001838152602001828152602001935050505060405180910390a1600160a060020a0385166000908152601a60209081526040808320839055601b90915281205590509392505050565b61589385856142f1565b151561589e57600080fd5b6158a883836142f1565b15156158b357600080fd5b8015156158bf57600080fd5b838214156158cc57600080fd5b806003858154811015156158dc57fe5b600091825260209091206005909102015410156158f857600080fd5b61040060038581548110151561590a57fe5b9060005260206000209060050201600401541415151561592957600080fd5b8060038581548110151561593957fe5b9060005260206000209060050201600001540360038581548110151561595b57fe5b6000918252602090912060059091020155600380548291908490811061597d57fe5b9060005260206000209060050201600001540160038381548110151561599f57fe5b60009182526020909120600590910201557f6d401b913d27047ecd2042f0331e2354d30e664920b31480dc71955edb996c388585858585604051600160a060020a0395861681526020810194909452919093166040808401919091526060830193909352608082015260a001905180910390a15050505050565b6000600e8260ff16815481101515615a2d57fe5b906000526020600020906006020160040154905092915050565b60006001600e8360ff16815481101515615a5d57fe5b90600052602060002090600602016002015403905092915050565b6000615a82615e5c565b600060a0604051908101604052808881526020018781526020018681526020016000815260200160008152509150600160038054806001018281615ac69190615e92565b6000928352602090922085916005020181518155602082015181600101908051615af4929160200190615de2565b506040820151816002015560608201518160030155608082015160049091015550039050801515615b8857600160038054806001018281615b359190615e92565b6000928352602090922085916005020181518155602082015181600101908051615b63929160200190615de2565b5060408201518160020155606082015181600301556080820151816004015550500390505b63ffffffff81168114615b9a57600080fd5b7fdea8e87d69047e1b3cd43ad599d34e3eacfe4408b4dfc5d0f6ac6a15a468de5c8787878760405184815260408101839052600160a060020a038216606082015260806020820181815290820185818151815260200191508051906020019080838360005b83811015615c17578082015183820152602001615bff565b50505050905090810190601f168015615c445780820380516001836020036101000a031916815260200191505b509550505050505060405180910390a1615c60600085836149b0565b9695505050505050565b600081158015906111935750600354821061119e57600080fd5b60206040519081016040526000815290565b60806040519081016040526004815b6000815260200190600190039081615ca55790505090565b506000815560010160008155600101600081556001016000815560010160009055565b8260058101928215615d37579160200282015b82811115615d37578251825473ffffffffffffffffffffffffffffffffffffffff1916600160a060020a039190911617825560209290920191600190910190615cf3565b5061188a929150615ebe565b815481835581811511611cf257600083815260209020611cf2918101908301615eef565b5080546000825560020290600052602060002090810190611db89190615f09565b60a0604051908101604090815260008083526020830181905290820181905260608201819052608082015290565b815481835581811511611cf257600202816002028360005260206000209182019101611cf29190615f09565b828054600181600116156101000203166002900490600052602060002090601f016020900481019282601f10615e2357805160ff1916838001178555615e50565b82800160010185558215615e50579182015b82811115615e50578251825591602001919060010190615e35565b5061188a929150615eef565b60a06040519081016040528060008152602001615e77615c84565b81526020016000815260200160008152602001600081525090565b815481835581811511611cf257600502816005028360005260206000209182019101611cf29190615f45565b61154991905b8082111561188a57805473ffffffffffffffffffffffffffffffffffffffff19168155600101615ec4565b61154991905b8082111561188a5760008155600101615ef5565b61154991905b8082111561188a576000815560018101805476ffffffffffffffffffffffffffffffffffffffffffffff19169055600201615f0f565b61154991905b8082111561188a576000808255615f656001830182615f83565b50600060028201819055600382018190556004820155600501615f4b565b50805460018160011615610100020316600290046000825580601f10615fa95750611db8565b601f016020900490600052602060002090810190611db89190615eef5600a165627a7a7230582033b902c8974c78fc95c40a2ad8558959187c007ebe6f17d305b1d4d5bd239d770029",
  "source": "// \n// MIT License\n// \n// Copyright (c) 2018 REGA Risk Sharing\n//   \n// Permission is hereby granted, free of charge, to any person obtaining a copy\n// of this software and associated documentation files (the \"Software\"), to deal\n// in the Software without restriction, including without limitation the rights\n// to use, copy, modify, merge, publish, distribute, sublicense, and/or sell\n// copies of the Software, and to permit persons to whom the Software is\n// furnished to do so, subject to the following conditions:\n// \n// The above copyright notice and this permission notice shall be included in all\n// copies or substantial portions of the Software.\n// \n// THE SOFTWARE IS PROVIDED \"AS IS\", WITHOUT WARRANTY OF ANY KIND, EXPRESS OR\n// IMPLIED, INCLUDING BUT NOT LIMITED TO THE WARRANTIES OF MERCHANTABILITY,\n// FITNESS FOR A PARTICULAR PURPOSE AND NONINFRINGEMENT. IN NO EVENT SHALL THE\n// AUTHORS OR COPYRIGHT HOLDERS BE LIABLE FOR ANY CLAIM, DAMAGES OR OTHER\n// LIABILITY, WHETHER IN AN ACTION OF CONTRACT, TORT OR OTHERWISE, ARISING FROM,\n// OUT OF OR IN CONNECTION WITH THE SOFTWARE OR THE USE OR OTHER DEALINGS IN THE\n// SOFTWARE.\n// \n// Author: Sergei Sevriugin\n// Version: 0.0.1\n//  \n\npragma solidity ^0.4.17;\n\nimport './TokenCrowdsurance.sol';\nimport './interfaces/IERC20Token.sol';\n\n/// Luggage crowdsurance protection product based on TokenCrowdsurance NFT token \ncontract LuggageCrowdsurance is TokenCrowdsurance {\n    /// REGA Risk Sharing Token smart contract address\n    IERC20Token public  RST;                // RST smart contract address\n    uint256     public  joinAmountRST;      // Join amount in RST\n    bool        public  ETHOnly;            // Join only for RST tokens\n    uint8       public  maxHold;            // Maximum number of toikens for one address\n    uint256     public  rstETHRate;         // RST/ETH rate\n    uint8       public  paybackRatio;       // Payback ratio\n\n    mapping (uint256 => uint256) public payback;    // payback mapping\n    /// join function\n    /// @return cowdsuranceId NFT token ID for created crowdsurance\n    function join() public payable returns(uint256 cowdsuranceId) {\n        uint256 amount = msg.value;\n        address member = msg.sender;\n        uint256 score = addressToScore[member];\n        require(score != uint256(0));\n\n        if (!ETHOnly && msg.value == uint256(0)) {\n            // now need to check that the member has approved the transfer joinAmountRST to join\n            require(RST != address(0));                             // check that we have valid contract address\n            require(joinAmountRST != uint256(0));                   // join RST amount must be > 0\n            uint256 rstAmt = RST.allowance(member, this);           // check if the member has gave permision to spend some amount\n            uint256 rstDecimals = uint256(RST.decimals());          // need RST decimals to convert RST to ETH based on the convertion rate\n            require(rstAmt >= joinAmountRST);                       // ... and check if allowance is more then joinAmount\n            amount = addressToAmount[member];                       // get join amount and check...\n            uint256 rstAmtInETH = rstAmt * rstETHRate;              // ... and now calculate join amount from RST to ETH\n            if (rstDecimals >= uint8(1)) {                          // ... check if RST decimals is not 0\n                rstDecimals--;\n                rstAmtInETH = rstAmtInETH / (10 ** rstDecimals);    // ... and use decimals to convert RST to ETH\n            }\n            require(rstAmtInETH >= amount && amount >= parameters.joinAmount);\n            // transfer join RST amount to the owner account\n            require(RST.transferFrom(member, owner, joinAmountRST));\n        }\n        else {\n            require(amount != uint256(0) && amount >= parameters.joinAmount);\n            require(amount == addressToAmount[member]);\n        }\n        // call internal _join after all checkups \n        cowdsuranceId = _join(member, score, amount);\n    }\n    /// set payback amount function\n    /// @param _id crowdsurance token ID\n    /// @param _amount payback amount to set\n    /// @return true if successful \n    function setPayback(uint256 _id, uint256 _amount) ownerOnly public returns (bool) {\n        require(_id != uint256(0));\n        require(_amount != uint256(0));\n        require(_amount <= parameters.joinAmount * paybackRatio / 100);\n        require(extensions[_id].paid == uint256(0));\n        uint coverageEnd = extensions[_id].activated + extensions[_id].duration;\n        require(coverageEnd < now);\n        payback[_id] = _amount;\n        return true;\n    }\n    /// get payback function\n    /// @param _id luggage protection token to get payback\n    function getPayback(uint256 _id) public {\n        require(_owns(msg.sender, _id));\n        require(_id != uint256(0));\n        uint256 _amount = payback[_id];\n        require(_amount != uint256(0));\n        require(extensions[_id].paid == uint256(0));\n        extensions[_id].paid = _amount;\n        msg.sender.transfer(_amount);\n    }\n    /// activate function \n    /// @param _id NFT token ID to activate\n    /// @param _hash activation hash\n    function activate(uint256 _id, string _hash) public {\n        address member = msg.sender;\n        // check if number of tokens is not more then maxHold\n        require(statusCount(member, uint8(Status.Active)) < maxHold);   \n        super.activate(_id, _hash);\n    }\n    function activateCurrent(string _hash) public {\n        activate(getCurrentTokenId(),_hash);\n    }\n    function getAllowance() public view returns (uint256 allowance) {\n        allowance = RST.allowance(msg.sender,address(this));\n    }\n    /// get commission function\n    function transferCommission() ownerOnly public {\n        uint256 commission = nfts[0].value;\n        require(commission != uint256(0)); \n        nfts[0].value = 0;\n        msg.sender.transfer(commission);\n    }\n    function getBizProcessId() view public returns(address contractOwner, uint8 bizProcessId) {\n        contractOwner = owner;\n        bizProcessId = 0;\n        // check voting first\n        if (voters[msg.sender] != uint256(0)) {\n            // voter\n            bizProcessId = 5;\n            return;\n        }\n        // check if sender has Crowdsurance token\n        uint256 id = getCurrentTokenId();\n        if(id == uint256(0)) {\n            // sender don't have any token check application \n            uint256 appId = getAppID();\n            uint256 amount = addressToAmount[msg.sender];\n            uint256 allowance = getAllowance();\n            if(appId == uint256(0) && amount == uint256(0)) {\n                // the first step - need to make application\n                bizProcessId = 1;\n            }\n            else if(appId != uint256(0) && amount == uint256(0)) {\n                // waiting for scoring\n                bizProcessId = 2; \n            }\n            else if (appId == uint256(0) && amount != uint256(0) && allowance == uint256(0)) {\n                // need to approve token transfer\n                bizProcessId = 3;\n            }\n            else if (appId == uint256(0) && amount != uint256(0) && allowance != uint256(0)) {\n                // join \n                bizProcessId = 4;\n            }\n        }\n        else {\n            // we have current token id\n            if (extensions[id].status == uint(Status.Init)) {\n                bizProcessId = 10;  // activate\n            }\n            else if (extensions[id].status == uint(Status.Active)) {\n                bizProcessId = 11;  // claim\n            }\n            else if (extensions[id].status == uint(Status.Claim)) {\n                bizProcessId = 20 + getCurrentVotingStatus();\n\n            }\n        }\n    }\n    function LuggageCrowdsurance(address _rst, uint256 _amount, bool _only, uint8 _max) \n                TokenCrowdsurance(\"Luggage Crowdsurance NFT\", \"LCS\") public {\n        // setting up contract parameters \n        RST = IERC20Token(_rst);\n        parameters.joinAmount = 0.019 ether;\n        parameters.maxClaimAmount = 4 ether; \n        if (_amount == uint256(0)) {\n            joinAmountRST = 5000000000; \n        }\n        else {\n            joinAmountRST = _amount; \n        }\n        if (_max == uint8(0)) {\n            maxHold = 5;\n        }\n        else {\n            maxHold = _max;\n        }\n        ETHOnly = _only;\n        rstETHRate = 0.12 ether;\n        paybackRatio = 80;\n    }\n}",
  "sourcePath": "/Users/sergei/LuggageCrowdsurance/contracts/LuggageCrowdsurance.sol",
  "compiler": {
    "name": "solc",
    "version": "0.4.18+commit.9cf6e910.Emscripten.clang"
  },
  "schemaVersion": "1.0.1",
  "updatedAt": "2018-05-24T17:22:44.728Z"
}