{
  "contractName": "RSTToken",
  "abi": [
    {
      "constant": true,
      "inputs": [],
      "name": "name",
      "outputs": [
        {
          "name": "",
          "type": "string"
        }
      ],
      "payable": false,
      "stateMutability": "view",
      "type": "function"
    },
    {
      "constant": false,
      "inputs": [
        {
          "name": "_spender",
          "type": "address"
        },
        {
          "name": "_value",
          "type": "uint256"
        }
      ],
      "name": "approve",
      "outputs": [
        {
          "name": "success",
          "type": "bool"
        }
      ],
      "payable": false,
      "stateMutability": "nonpayable",
      "type": "function"
    },
    {
      "constant": true,
      "inputs": [],
      "name": "totalSupply",
      "outputs": [
        {
          "name": "",
          "type": "uint256"
        }
      ],
      "payable": false,
      "stateMutability": "view",
      "type": "function"
    },
    {
      "constant": false,
      "inputs": [
        {
          "name": "_from",
          "type": "address"
        },
        {
          "name": "_to",
          "type": "address"
        },
        {
          "name": "_value",
          "type": "uint256"
        }
      ],
      "name": "transferFrom",
      "outputs": [
        {
          "name": "success",
          "type": "bool"
        }
      ],
      "payable": false,
      "stateMutability": "nonpayable",
      "type": "function"
    },
    {
      "constant": true,
      "inputs": [],
      "name": "INITIAL_SUPPLY",
      "outputs": [
        {
          "name": "",
          "type": "uint256"
        }
      ],
      "payable": false,
      "stateMutability": "view",
      "type": "function"
    },
    {
      "constant": true,
      "inputs": [],
      "name": "decimals",
      "outputs": [
        {
          "name": "",
          "type": "uint8"
        }
      ],
      "payable": false,
      "stateMutability": "view",
      "type": "function"
    },
    {
      "constant": true,
      "inputs": [],
      "name": "standard",
      "outputs": [
        {
          "name": "",
          "type": "string"
        }
      ],
      "payable": false,
      "stateMutability": "view",
      "type": "function"
    },
    {
      "constant": true,
      "inputs": [
        {
          "name": "",
          "type": "address"
        }
      ],
      "name": "balanceOf",
      "outputs": [
        {
          "name": "",
          "type": "uint256"
        }
      ],
      "payable": false,
      "stateMutability": "view",
      "type": "function"
    },
    {
      "constant": true,
      "inputs": [],
      "name": "symbol",
      "outputs": [
        {
          "name": "",
          "type": "string"
        }
      ],
      "payable": false,
      "stateMutability": "view",
      "type": "function"
    },
    {
      "constant": false,
      "inputs": [
        {
          "name": "_to",
          "type": "address"
        },
        {
          "name": "_value",
          "type": "uint256"
        }
      ],
      "name": "transfer",
      "outputs": [
        {
          "name": "success",
          "type": "bool"
        }
      ],
      "payable": false,
      "stateMutability": "nonpayable",
      "type": "function"
    },
    {
      "constant": true,
      "inputs": [
        {
          "name": "",
          "type": "address"
        },
        {
          "name": "",
          "type": "address"
        }
      ],
      "name": "allowance",
      "outputs": [
        {
          "name": "",
          "type": "uint256"
        }
      ],
      "payable": false,
      "stateMutability": "view",
      "type": "function"
    },
    {
      "inputs": [],
      "payable": false,
      "stateMutability": "nonpayable",
      "type": "constructor"
    },
    {
      "anonymous": false,
      "inputs": [
        {
          "indexed": true,
          "name": "_from",
          "type": "address"
        },
        {
          "indexed": true,
          "name": "_to",
          "type": "address"
        },
        {
          "indexed": false,
          "name": "_value",
          "type": "uint256"
        }
      ],
      "name": "Transfer",
      "type": "event"
    },
    {
      "anonymous": false,
      "inputs": [
        {
          "indexed": true,
          "name": "_owner",
          "type": "address"
        },
        {
          "indexed": true,
          "name": "_spender",
          "type": "address"
        },
        {
          "indexed": false,
          "name": "_value",
          "type": "uint256"
        }
      ],
      "name": "Approval",
      "type": "event"
    }
  ],
  "bytecode": "0x606060405260408051908101604052600981527f546f6b656e20302e3100000000000000000000000000000000000000000000006020820152600090805161004b92916020019061019e565b50602060405190810160405260008152600190805161006e92916020019061019e565b50602060405190810160405260008152600290805161009192916020019061019e565b506003805460ff191690556000600455620249f060075534156100b357600080fd5b604080519081016040908152601c82527f544553542052454741205269736b2053686172696e6720546f6b656e0000000060208301528051908101604052600581527f5253542d540000000000000000000000000000000000000000000000000000006020820152600a6000835111801561012f575060008251115b151561013a57600080fd5b600183805161014d92916020019061019e565b50600282805161016192916020019061019e565b506003805460ff191660ff92909216919091179055505060075433600160a060020a03166000908152600560205260409020819055600455610239565b828054600181600116156101000203166002900490600052602060002090601f016020900481019282601f106101df57805160ff191683800117855561020c565b8280016001018555821561020c579182015b8281111561020c5782518255916020019190600101906101f1565b5061021892915061021c565b5090565b61023691905b808211156102185760008155600101610222565b90565b61074f806102486000396000f3006060604052600436106100ae5763ffffffff7c010000000000000000000000000000000000000000000000000000000060003504166306fdde0381146100b3578063095ea7b31461013d57806318160ddd1461017357806323b872dd146101985780632ff2e9dc146101c0578063313ce567146101d35780635a3b7e42146101fc57806370a082311461020f57806395d89b411461022e578063a9059cbb14610241578063dd62ed3e14610263575b600080fd5b34156100be57600080fd5b6100c6610288565b60405160208082528190810183818151815260200191508051906020019080838360005b838110156101025780820151838201526020016100ea565b50505050905090810190601f16801561012f5780820380516001836020036101000a031916815260200191505b509250505060405180910390f35b341561014857600080fd5b61015f600160a060020a0360043516602435610326565b604051901515815260200160405180910390f35b341561017e57600080fd5b6101866103e3565b60405190815260200160405180910390f35b34156101a357600080fd5b61015f600160a060020a03600435811690602435166044356103e9565b34156101cb57600080fd5b61018661051b565b34156101de57600080fd5b6101e6610521565b60405160ff909116815260200160405180910390f35b341561020757600080fd5b6100c661052a565b341561021a57600080fd5b610186600160a060020a0360043516610595565b341561023957600080fd5b6100c66105a7565b341561024c57600080fd5b61015f600160a060020a0360043516602435610612565b341561026e57600080fd5b610186600160a060020a03600435811690602435166106de565b60018054600181600116156101000203166002900480601f01602080910402602001604051908101604052809291908181526020018280546001816001161561010002031660029004801561031e5780601f106102f35761010080835404028352916020019161031e565b820191906000526020600020905b81548152906001019060200180831161030157829003601f168201915b505050505081565b600082600160a060020a038116151561033e57600080fd5b82158061036e5750600160a060020a03338116600090815260066020908152604080832093881683529290522054155b151561037957600080fd5b600160a060020a03338116600081815260066020908152604080832094891680845294909152908190208690557f8c5be1e5ebec7d5bd14f71427d1e84f3dd0314c0f7b2291e5b200ac8c7c3b9259086905190815260200160405180910390a35060019392505050565b60045481565b600083600160a060020a038116151561040157600080fd5b83600160a060020a038116151561041757600080fd5b600160a060020a038087166000908152600660209081526040808320339094168352929052205461044890856106fb565b600160a060020a03808816600081815260066020908152604080832033909516835293815283822094909455908152600590925290205461048990856106fb565b600160a060020a0380881660009081526005602052604080822093909355908716815220546104b8908561070d565b600160a060020a03808716600081815260056020526040908190209390935591908816907fddf252ad1be2c89b69c2b068fc378daa952ba7f163c4a11628f55a4df523b3ef9087905190815260200160405180910390a350600195945050505050565b60075481565b60035460ff1681565b60008054600181600116156101000203166002900480601f01602080910402602001604051908101604052809291908181526020018280546001816001161561010002031660029004801561031e5780601f106102f35761010080835404028352916020019161031e565b60056020526000908152604090205481565b60028054600181600116156101000203166002900480601f01602080910402602001604051908101604052809291908181526020018280546001816001161561010002031660029004801561031e5780601f106102f35761010080835404028352916020019161031e565b600082600160a060020a038116151561062a57600080fd5b600160a060020a03331660009081526005602052604090205461064d90846106fb565b600160a060020a03338116600090815260056020526040808220939093559086168152205461067c908461070d565b600160a060020a0380861660008181526005602052604090819020939093559133909116907fddf252ad1be2c89b69c2b068fc378daa952ba7f163c4a11628f55a4df523b3ef9086905190815260200160405180910390a35060019392505050565b600660209081526000928352604080842090915290825290205481565b60008183101561070757fe5b50900390565b60008282018381101561071c57fe5b93925050505600a165627a7a72305820aca5ff5c07d328cda4d2e554aea67a62409f0a6441c104463ab6502fb0e15a660029",
  "source": "pragma solidity ^0.4.17;\n\nimport \"./ERC20Token.sol\";\n\ncontract RSTToken is ERC20Token {\n  uint public INITIAL_SUPPLY = 150000;\n  \n  function RSTToken() ERC20Token(\"TEST REGA Risk Sharing Token\", \"RST-T\", uint8(10)) public {\n    balanceOf[msg.sender] = INITIAL_SUPPLY;\n    totalSupply = INITIAL_SUPPLY;\n  }\n}",
  "sourcePath": "/Users/sergei/LuggageCrowdsurance/contracts/RSTToken.sol",
  "compiler": {
    "name": "solc",
    "version": "0.4.18+commit.9cf6e910.Emscripten.clang"
  },
  "schemaVersion": "1.0.1",
  "updatedAt": "2018-04-29T15:24:37.707Z"
}