{
  "contractName": "TokenCrowdsurance",
  "abi": [
    {
      "constant": false,
      "inputs": [
        {
          "name": "_id",
          "type": "uint256"
        }
      ],
      "name": "insertPool",
      "outputs": [
        {
          "name": "",
          "type": "bool"
        }
      ],
      "payable": false,
      "stateMutability": "nonpayable",
      "type": "function"
    },
    {
      "constant": true,
      "inputs": [
        {
          "name": "_interfaceID",
          "type": "bytes4"
        }
      ],
      "name": "supportsInterface",
      "outputs": [
        {
          "name": "",
          "type": "bool"
        }
      ],
      "payable": false,
      "stateMutability": "view",
      "type": "function"
    },
    {
      "constant": true,
      "inputs": [],
      "name": "name",
      "outputs": [
        {
          "name": "",
          "type": "string"
        }
      ],
      "payable": false,
      "stateMutability": "view",
      "type": "function"
    },
    {
      "constant": false,
      "inputs": [
        {
          "name": "_to",
          "type": "address"
        },
        {
          "name": "_tokenId",
          "type": "uint256"
        }
      ],
      "name": "approve",
      "outputs": [],
      "payable": false,
      "stateMutability": "nonpayable",
      "type": "function"
    },
    {
      "constant": false,
      "inputs": [
        {
          "name": "_id",
          "type": "uint256"
        }
      ],
      "name": "castNegative",
      "outputs": [],
      "payable": false,
      "stateMutability": "nonpayable",
      "type": "function"
    },
    {
      "constant": true,
      "inputs": [
        {
          "name": "_id",
          "type": "uint256"
        }
      ],
      "name": "votingStatus",
      "outputs": [
        {
          "name": "state",
          "type": "uint8"
        },
        {
          "name": "positive",
          "type": "uint8"
        },
        {
          "name": "negative",
          "type": "uint8"
        },
        {
          "name": "payment",
          "type": "uint256"
        },
        {
          "name": "balance",
          "type": "uint256"
        }
      ],
      "payable": false,
      "stateMutability": "view",
      "type": "function"
    },
    {
      "constant": false,
      "inputs": [
        {
          "name": "_nodeId",
          "type": "uint256"
        },
        {
          "name": "_parentId",
          "type": "uint256"
        }
      ],
      "name": "addToken",
      "outputs": [],
      "payable": false,
      "stateMutability": "nonpayable",
      "type": "function"
    },
    {
      "constant": true,
      "inputs": [],
      "name": "totalSupply",
      "outputs": [
        {
          "name": "",
          "type": "uint256"
        }
      ],
      "payable": false,
      "stateMutability": "view",
      "type": "function"
    },
    {
      "constant": true,
      "inputs": [],
      "name": "getAppID",
      "outputs": [
        {
          "name": "appId",
          "type": "uint256"
        }
      ],
      "payable": false,
      "stateMutability": "view",
      "type": "function"
    },
    {
      "constant": true,
      "inputs": [
        {
          "name": "_id",
          "type": "uint256"
        },
        {
          "name": "_value",
          "type": "uint256"
        }
      ],
      "name": "checkPaymentAmount",
      "outputs": [
        {
          "name": "level",
          "type": "uint8"
        },
        {
          "name": "amtSubPool",
          "type": "uint256"
        },
        {
          "name": "amtPool",
          "type": "uint256"
        },
        {
          "name": "amtSuperPool",
          "type": "uint256"
        },
        {
          "name": "balance",
          "type": "uint256"
        }
      ],
      "payable": false,
      "stateMutability": "view",
      "type": "function"
    },
    {
      "constant": true,
      "inputs": [],
      "name": "getDistribution",
      "outputs": [
        {
          "name": "distribution",
          "type": "uint256[4]"
        }
      ],
      "payable": false,
      "stateMutability": "view",
      "type": "function"
    },
    {
      "constant": true,
      "inputs": [
        {
          "name": "",
          "type": "uint256"
        }
      ],
      "name": "tokenIndexToOwner",
      "outputs": [
        {
          "name": "",
          "type": "address"
        }
      ],
      "payable": false,
      "stateMutability": "view",
      "type": "function"
    },
    {
      "constant": false,
      "inputs": [
        {
          "name": "_from",
          "type": "address"
        },
        {
          "name": "_to",
          "type": "address"
        },
        {
          "name": "_tokenId",
          "type": "uint256"
        }
      ],
      "name": "transferFrom",
      "outputs": [],
      "payable": false,
      "stateMutability": "nonpayable",
      "type": "function"
    },
    {
      "constant": false,
      "inputs": [
        {
          "name": "_to",
          "type": "address"
        },
        {
          "name": "_toId",
          "type": "uint256"
        },
        {
          "name": "_level",
          "type": "uint256"
        }
      ],
      "name": "setLevel",
      "outputs": [],
      "payable": false,
      "stateMutability": "nonpayable",
      "type": "function"
    },
    {
      "constant": false,
      "inputs": [
        {
          "name": "_spender",
          "type": "address"
        },
        {
          "name": "_value",
          "type": "uint256"
        }
      ],
      "name": "cApprove",
      "outputs": [
        {
          "name": "success",
          "type": "bool"
        }
      ],
      "payable": false,
      "stateMutability": "nonpayable",
      "type": "function"
    },
    {
      "constant": false,
      "inputs": [
        {
          "name": "_nodeId",
          "type": "uint256"
        }
      ],
      "name": "removeToken",
      "outputs": [],
      "payable": false,
      "stateMutability": "nonpayable",
      "type": "function"
    },
    {
      "constant": false,
      "inputs": [
        {
          "name": "_to",
          "type": "address"
        },
        {
          "name": "_toId",
          "type": "uint256"
        }
      ],
      "name": "increaseLevel",
      "outputs": [],
      "payable": false,
      "stateMutability": "nonpayable",
      "type": "function"
    },
    {
      "constant": true,
      "inputs": [
        {
          "name": "",
          "type": "address"
        }
      ],
      "name": "addressToAmount",
      "outputs": [
        {
          "name": "",
          "type": "uint256"
        }
      ],
      "payable": false,
      "stateMutability": "view",
      "type": "function"
    },
    {
      "constant": false,
      "inputs": [
        {
          "name": "_from",
          "type": "address"
        },
        {
          "name": "_fromId",
          "type": "uint256"
        },
        {
          "name": "_amount",
          "type": "uint256"
        }
      ],
      "name": "cDestroy",
      "outputs": [],
      "payable": false,
      "stateMutability": "nonpayable",
      "type": "function"
    },
    {
      "constant": true,
      "inputs": [],
      "name": "getApplication",
      "outputs": [
        {
          "name": "member",
          "type": "address"
        },
        {
          "name": "appId",
          "type": "uint256"
        }
      ],
      "payable": false,
      "stateMutability": "view",
      "type": "function"
    },
    {
      "constant": false,
      "inputs": [
        {
          "name": "_to",
          "type": "address"
        },
        {
          "name": "_toId",
          "type": "uint256"
        },
        {
          "name": "_amount",
          "type": "uint256"
        }
      ],
      "name": "cIssue",
      "outputs": [],
      "payable": false,
      "stateMutability": "nonpayable",
      "type": "function"
    },
    {
      "constant": true,
      "inputs": [
        {
          "name": "_tokenId",
          "type": "uint256"
        }
      ],
      "name": "ownerOf",
      "outputs": [
        {
          "name": "",
          "type": "address"
        }
      ],
      "payable": false,
      "stateMutability": "view",
      "type": "function"
    },
    {
      "constant": false,
      "inputs": [
        {
          "name": "_to",
          "type": "address"
        },
        {
          "name": "_value",
          "type": "uint256"
        }
      ],
      "name": "cTransfer",
      "outputs": [
        {
          "name": "success",
          "type": "bool"
        }
      ],
      "payable": false,
      "stateMutability": "nonpayable",
      "type": "function"
    },
    {
      "constant": true,
      "inputs": [
        {
          "name": "_tokenId",
          "type": "uint256"
        }
      ],
      "name": "tokenMetadata",
      "outputs": [
        {
          "name": "infoUrl",
          "type": "string"
        }
      ],
      "payable": false,
      "stateMutability": "view",
      "type": "function"
    },
    {
      "constant": true,
      "inputs": [
        {
          "name": "_owner",
          "type": "address"
        }
      ],
      "name": "balanceOf",
      "outputs": [
        {
          "name": "count",
          "type": "uint256"
        }
      ],
      "payable": false,
      "stateMutability": "view",
      "type": "function"
    },
    {
      "constant": false,
      "inputs": [],
      "name": "acceptOwnership",
      "outputs": [],
      "payable": false,
      "stateMutability": "nonpayable",
      "type": "function"
    },
    {
      "constant": true,
      "inputs": [
        {
          "name": "",
          "type": "uint256"
        }
      ],
      "name": "requests",
      "outputs": [
        {
          "name": "amount",
          "type": "uint256"
        },
        {
          "name": "timeStamp",
          "type": "uint256"
        },
        {
          "name": "duration",
          "type": "uint256"
        },
        {
          "name": "positive",
          "type": "uint8"
        },
        {
          "name": "negative",
          "type": "uint8"
        },
        {
          "name": "number",
          "type": "uint8"
        }
      ],
      "payable": false,
      "stateMutability": "view",
      "type": "function"
    },
    {
      "constant": true,
      "inputs": [
        {
          "name": "_owner",
          "type": "address"
        }
      ],
      "name": "tokensOfOwner",
      "outputs": [
        {
          "name": "ownerTokens",
          "type": "uint256[]"
        }
      ],
      "payable": false,
      "stateMutability": "view",
      "type": "function"
    },
    {
      "constant": true,
      "inputs": [],
      "name": "parameters",
      "outputs": [
        {
          "name": "joinAmount",
          "type": "uint256"
        },
        {
          "name": "coverageDuration",
          "type": "uint256"
        },
        {
          "name": "maxClaimAmount",
          "type": "uint256"
        },
        {
          "name": "maxClaimNumber",
          "type": "uint8"
        },
        {
          "name": "paymentRatio",
          "type": "uint8"
        },
        {
          "name": "maxPaymentAmount",
          "type": "uint256"
        },
        {
          "name": "minJuriesNumber",
          "type": "uint8"
        },
        {
          "name": "votingDuration",
          "type": "uint256"
        },
        {
          "name": "juriesNumber",
          "type": "uint8"
        },
        {
          "name": "maxApplications",
          "type": "uint256"
        },
        {
          "name": "averageScore",
          "type": "uint256"
        }
      ],
      "payable": false,
      "stateMutability": "view",
      "type": "function"
    },
    {
      "constant": false,
      "inputs": [
        {
          "name": "_id",
          "type": "uint256"
        }
      ],
      "name": "payment",
      "outputs": [],
      "payable": false,
      "stateMutability": "nonpayable",
      "type": "function"
    },
    {
      "constant": true,
      "inputs": [],
      "name": "owner",
      "outputs": [
        {
          "name": "",
          "type": "address"
        }
      ],
      "payable": false,
      "stateMutability": "view",
      "type": "function"
    },
    {
      "constant": true,
      "inputs": [],
      "name": "cTotalSupply",
      "outputs": [
        {
          "name": "",
          "type": "uint256"
        }
      ],
      "payable": false,
      "stateMutability": "view",
      "type": "function"
    },
    {
      "constant": true,
      "inputs": [],
      "name": "symbol",
      "outputs": [
        {
          "name": "",
          "type": "string"
        }
      ],
      "payable": false,
      "stateMutability": "view",
      "type": "function"
    },
    {
      "constant": false,
      "inputs": [
        {
          "name": "_fromId",
          "type": "uint256"
        },
        {
          "name": "_spender",
          "type": "address"
        },
        {
          "name": "_toId",
          "type": "uint256"
        },
        {
          "name": "_value",
          "type": "uint256"
        }
      ],
      "name": "cApproveFrom",
      "outputs": [
        {
          "name": "success",
          "type": "bool"
        }
      ],
      "payable": false,
      "stateMutability": "nonpayable",
      "type": "function"
    },
    {
      "constant": true,
      "inputs": [
        {
          "name": "",
          "type": "uint256"
        }
      ],
      "name": "tokenIndexToPoolToken",
      "outputs": [
        {
          "name": "",
          "type": "uint256"
        }
      ],
      "payable": false,
      "stateMutability": "view",
      "type": "function"
    },
    {
      "constant": true,
      "inputs": [],
      "name": "getJoinAmount",
      "outputs": [
        {
          "name": "amount",
          "type": "uint256"
        }
      ],
      "payable": false,
      "stateMutability": "view",
      "type": "function"
    },
    {
      "constant": false,
      "inputs": [],
      "name": "fssf",
      "outputs": [],
      "payable": false,
      "stateMutability": "nonpayable",
      "type": "function"
    },
    {
      "constant": true,
      "inputs": [
        {
          "name": "",
          "type": "address"
        }
      ],
      "name": "voters",
      "outputs": [
        {
          "name": "",
          "type": "uint256"
        }
      ],
      "payable": false,
      "stateMutability": "view",
      "type": "function"
    },
    {
      "constant": true,
      "inputs": [
        {
          "name": "",
          "type": "uint256"
        }
      ],
      "name": "tokenIndexToApproved",
      "outputs": [
        {
          "name": "",
          "type": "address"
        }
      ],
      "payable": false,
      "stateMutability": "view",
      "type": "function"
    },
    {
      "constant": false,
      "inputs": [
        {
          "name": "_to",
          "type": "address"
        },
        {
          "name": "_tokenId",
          "type": "uint256"
        }
      ],
      "name": "transfer",
      "outputs": [],
      "payable": false,
      "stateMutability": "nonpayable",
      "type": "function"
    },
    {
      "constant": true,
      "inputs": [],
      "name": "getScore",
      "outputs": [
        {
          "name": "score",
          "type": "uint256"
        }
      ],
      "payable": false,
      "stateMutability": "view",
      "type": "function"
    },
    {
      "constant": true,
      "inputs": [
        {
          "name": "_to",
          "type": "address"
        },
        {
          "name": "_toId",
          "type": "uint256"
        }
      ],
      "name": "getLevel",
      "outputs": [
        {
          "name": "",
          "type": "uint256"
        }
      ],
      "payable": false,
      "stateMutability": "view",
      "type": "function"
    },
    {
      "constant": true,
      "inputs": [
        {
          "name": "_owner",
          "type": "address"
        }
      ],
      "name": "cBalanceOf",
      "outputs": [
        {
          "name": "",
          "type": "uint256"
        }
      ],
      "payable": false,
      "stateMutability": "view",
      "type": "function"
    },
    {
      "constant": false,
      "inputs": [
        {
          "name": "_id",
          "type": "uint256"
        }
      ],
      "name": "activate",
      "outputs": [],
      "payable": false,
      "stateMutability": "nonpayable",
      "type": "function"
    },
    {
      "constant": false,
      "inputs": [],
      "name": "join",
      "outputs": [
        {
          "name": "crowdsuranceId",
          "type": "uint256"
        }
      ],
      "payable": true,
      "stateMutability": "payable",
      "type": "function"
    },
    {
      "constant": false,
      "inputs": [
        {
          "name": "_jury",
          "type": "address"
        },
        {
          "name": "_id",
          "type": "uint256"
        }
      ],
      "name": "addVoter",
      "outputs": [],
      "payable": false,
      "stateMutability": "nonpayable",
      "type": "function"
    },
    {
      "constant": true,
      "inputs": [
        {
          "name": "",
          "type": "address"
        }
      ],
      "name": "addressToApplication",
      "outputs": [
        {
          "name": "",
          "type": "uint256"
        }
      ],
      "payable": false,
      "stateMutability": "view",
      "type": "function"
    },
    {
      "constant": false,
      "inputs": [
        {
          "name": "_from",
          "type": "address"
        },
        {
          "name": "_to",
          "type": "address"
        },
        {
          "name": "_value",
          "type": "uint256"
        }
      ],
      "name": "cTransferFrom",
      "outputs": [
        {
          "name": "success",
          "type": "bool"
        }
      ],
      "payable": false,
      "stateMutability": "nonpayable",
      "type": "function"
    },
    {
      "constant": true,
      "inputs": [
        {
          "name": "_member",
          "type": "address"
        },
        {
          "name": "_status",
          "type": "uint8"
        }
      ],
      "name": "statusCount",
      "outputs": [
        {
          "name": "count",
          "type": "uint256"
        }
      ],
      "payable": false,
      "stateMutability": "view",
      "type": "function"
    },
    {
      "constant": false,
      "inputs": [
        {
          "name": "_id",
          "type": "uint256"
        },
        {
          "name": "_claim",
          "type": "uint256"
        }
      ],
      "name": "claim",
      "outputs": [
        {
          "name": "",
          "type": "bool"
        }
      ],
      "payable": false,
      "stateMutability": "nonpayable",
      "type": "function"
    },
    {
      "constant": true,
      "inputs": [
        {
          "name": "",
          "type": "address"
        }
      ],
      "name": "addressToScore",
      "outputs": [
        {
          "name": "",
          "type": "uint256"
        }
      ],
      "payable": false,
      "stateMutability": "view",
      "type": "function"
    },
    {
      "constant": false,
      "inputs": [
        {
          "name": "_id",
          "type": "uint256"
        },
        {
          "name": "_positive",
          "type": "bool"
        }
      ],
      "name": "vote",
      "outputs": [],
      "payable": false,
      "stateMutability": "nonpayable",
      "type": "function"
    },
    {
      "constant": true,
      "inputs": [
        {
          "name": "_tokenId",
          "type": "uint256"
        }
      ],
      "name": "valueOf",
      "outputs": [
        {
          "name": "value",
          "type": "uint256"
        }
      ],
      "payable": false,
      "stateMutability": "view",
      "type": "function"
    },
    {
      "constant": true,
      "inputs": [
        {
          "name": "",
          "type": "address"
        },
        {
          "name": "",
          "type": "address"
        }
      ],
      "name": "allowanceAmt",
      "outputs": [
        {
          "name": "",
          "type": "uint256"
        }
      ],
      "payable": false,
      "stateMutability": "view",
      "type": "function"
    },
    {
      "constant": true,
      "inputs": [],
      "name": "maxLevel",
      "outputs": [
        {
          "name": "",
          "type": "uint256"
        }
      ],
      "payable": false,
      "stateMutability": "view",
      "type": "function"
    },
    {
      "constant": false,
      "inputs": [
        {
          "name": "_member",
          "type": "address"
        },
        {
          "name": "_score",
          "type": "uint256"
        },
        {
          "name": "_amount",
          "type": "uint256"
        }
      ],
      "name": "scoring",
      "outputs": [],
      "payable": false,
      "stateMutability": "nonpayable",
      "type": "function"
    },
    {
      "constant": true,
      "inputs": [],
      "name": "newOwner",
      "outputs": [
        {
          "name": "",
          "type": "address"
        }
      ],
      "payable": false,
      "stateMutability": "view",
      "type": "function"
    },
    {
      "constant": false,
      "inputs": [],
      "name": "apply",
      "outputs": [
        {
          "name": "addId",
          "type": "uint256"
        }
      ],
      "payable": false,
      "stateMutability": "nonpayable",
      "type": "function"
    },
    {
      "constant": true,
      "inputs": [
        {
          "name": "",
          "type": "uint256"
        }
      ],
      "name": "extensions",
      "outputs": [
        {
          "name": "timeStamp",
          "type": "uint256"
        },
        {
          "name": "activated",
          "type": "uint256"
        },
        {
          "name": "duration",
          "type": "uint256"
        },
        {
          "name": "amount",
          "type": "uint256"
        },
        {
          "name": "paid",
          "type": "uint256"
        },
        {
          "name": "score",
          "type": "uint256"
        },
        {
          "name": "claimNumber",
          "type": "uint8"
        },
        {
          "name": "status",
          "type": "uint8"
        }
      ],
      "payable": false,
      "stateMutability": "view",
      "type": "function"
    },
    {
      "constant": true,
      "inputs": [
        {
          "name": "",
          "type": "address"
        },
        {
          "name": "",
          "type": "address"
        }
      ],
      "name": "allowance",
      "outputs": [
        {
          "name": "",
          "type": "uint256"
        }
      ],
      "payable": false,
      "stateMutability": "view",
      "type": "function"
    },
    {
      "constant": true,
      "inputs": [],
      "name": "getComission",
      "outputs": [
        {
          "name": "commission",
          "type": "uint256"
        }
      ],
      "payable": false,
      "stateMutability": "view",
      "type": "function"
    },
    {
      "constant": false,
      "inputs": [
        {
          "name": "_id",
          "type": "uint256"
        }
      ],
      "name": "castPositive",
      "outputs": [],
      "payable": false,
      "stateMutability": "nonpayable",
      "type": "function"
    },
    {
      "constant": true,
      "inputs": [],
      "name": "appNumber",
      "outputs": [
        {
          "name": "",
          "type": "uint256"
        }
      ],
      "payable": false,
      "stateMutability": "view",
      "type": "function"
    },
    {
      "constant": true,
      "inputs": [
        {
          "name": "",
          "type": "uint256"
        }
      ],
      "name": "applications",
      "outputs": [
        {
          "name": "timeStamp",
          "type": "uint256"
        },
        {
          "name": "member",
          "type": "address"
        },
        {
          "name": "tokensToBuy",
          "type": "uint8"
        },
        {
          "name": "paymetMethod",
          "type": "uint8"
        },
        {
          "name": "processed",
          "type": "bool"
        }
      ],
      "payable": false,
      "stateMutability": "view",
      "type": "function"
    },
    {
      "constant": true,
      "inputs": [
        {
          "name": "_nodeId",
          "type": "uint256"
        }
      ],
      "name": "getPath",
      "outputs": [
        {
          "name": "path",
          "type": "uint256[]"
        }
      ],
      "payable": false,
      "stateMutability": "view",
      "type": "function"
    },
    {
      "constant": true,
      "inputs": [
        {
          "name": "",
          "type": "address"
        },
        {
          "name": "",
          "type": "address"
        }
      ],
      "name": "allowanceIds",
      "outputs": [
        {
          "name": "",
          "type": "uint256"
        }
      ],
      "payable": false,
      "stateMutability": "view",
      "type": "function"
    },
    {
      "constant": false,
      "inputs": [
        {
          "name": "_newOwner",
          "type": "address"
        }
      ],
      "name": "transferOwnership",
      "outputs": [],
      "payable": false,
      "stateMutability": "nonpayable",
      "type": "function"
    },
    {
      "constant": true,
      "inputs": [
        {
          "name": "_owner",
          "type": "address"
        },
        {
          "name": "_spender",
          "type": "address"
        }
      ],
      "name": "cAllowance",
      "outputs": [
        {
          "name": "",
          "type": "uint256"
        }
      ],
      "payable": false,
      "stateMutability": "view",
      "type": "function"
    },
    {
      "inputs": [
        {
          "name": "_name",
          "type": "string"
        },
        {
          "name": "_symbol",
          "type": "string"
        }
      ],
      "payable": false,
      "stateMutability": "nonpayable",
      "type": "constructor"
    },
    {
      "payable": true,
      "stateMutability": "payable",
      "type": "fallback"
    },
    {
      "anonymous": false,
      "inputs": [
        {
          "indexed": false,
          "name": "member",
          "type": "address"
        },
        {
          "indexed": false,
          "name": "appId",
          "type": "uint256"
        }
      ],
      "name": "Apply",
      "type": "event"
    },
    {
      "anonymous": false,
      "inputs": [
        {
          "indexed": false,
          "name": "member",
          "type": "address"
        },
        {
          "indexed": false,
          "name": "id",
          "type": "uint256"
        },
        {
          "indexed": false,
          "name": "amount",
          "type": "uint256"
        }
      ],
      "name": "Join",
      "type": "event"
    },
    {
      "anonymous": false,
      "inputs": [
        {
          "indexed": false,
          "name": "member",
          "type": "address"
        },
        {
          "indexed": false,
          "name": "score",
          "type": "uint256"
        },
        {
          "indexed": false,
          "name": "amount",
          "type": "uint256"
        }
      ],
      "name": "Scoring",
      "type": "event"
    },
    {
      "anonymous": false,
      "inputs": [
        {
          "indexed": false,
          "name": "id",
          "type": "uint256"
        },
        {
          "indexed": false,
          "name": "amount",
          "type": "uint256"
        },
        {
          "indexed": false,
          "name": "score",
          "type": "uint256"
        }
      ],
      "name": "Activate",
      "type": "event"
    },
    {
      "anonymous": false,
      "inputs": [
        {
          "indexed": false,
          "name": "id",
          "type": "uint256"
        },
        {
          "indexed": false,
          "name": "claim",
          "type": "uint256"
        },
        {
          "indexed": false,
          "name": "number",
          "type": "uint8"
        }
      ],
      "name": "Claim",
      "type": "event"
    },
    {
      "anonymous": false,
      "inputs": [
        {
          "indexed": false,
          "name": "jury",
          "type": "address"
        },
        {
          "indexed": false,
          "name": "id",
          "type": "uint256"
        },
        {
          "indexed": false,
          "name": "positive",
          "type": "bool"
        }
      ],
      "name": "Vote",
      "type": "event"
    },
    {
      "anonymous": false,
      "inputs": [
        {
          "indexed": false,
          "name": "reciever",
          "type": "address"
        },
        {
          "indexed": false,
          "name": "id",
          "type": "uint256"
        },
        {
          "indexed": false,
          "name": "amount",
          "type": "uint256"
        },
        {
          "indexed": false,
          "name": "status",
          "type": "uint8"
        }
      ],
      "name": "Payment",
      "type": "event"
    },
    {
      "anonymous": false,
      "inputs": [
        {
          "indexed": false,
          "name": "member",
          "type": "address"
        },
        {
          "indexed": false,
          "name": "appId",
          "type": "uint256"
        }
      ],
      "name": "FSSF",
      "type": "event"
    },
    {
      "anonymous": false,
      "inputs": [
        {
          "indexed": false,
          "name": "id",
          "type": "uint256"
        },
        {
          "indexed": false,
          "name": "poolId",
          "type": "uint256"
        },
        {
          "indexed": false,
          "name": "level",
          "type": "uint8"
        }
      ],
      "name": "InsertPool",
      "type": "event"
    },
    {
      "anonymous": false,
      "inputs": [
        {
          "indexed": false,
          "name": "id",
          "type": "uint256"
        },
        {
          "indexed": false,
          "name": "superPoolValue",
          "type": "uint256"
        },
        {
          "indexed": false,
          "name": "poolValue",
          "type": "uint256"
        },
        {
          "indexed": false,
          "name": "subPoolValue",
          "type": "uint256"
        },
        {
          "indexed": false,
          "name": "comission",
          "type": "uint256"
        }
      ],
      "name": "DistributeValue",
      "type": "event"
    },
    {
      "anonymous": false,
      "inputs": [
        {
          "indexed": false,
          "name": "id",
          "type": "uint256"
        },
        {
          "indexed": false,
          "name": "value",
          "type": "uint256"
        }
      ],
      "name": "SecondTierCall",
      "type": "event"
    },
    {
      "anonymous": false,
      "inputs": [
        {
          "indexed": false,
          "name": "id",
          "type": "uint256"
        },
        {
          "indexed": false,
          "name": "poolId",
          "type": "uint256"
        },
        {
          "indexed": false,
          "name": "value",
          "type": "uint256"
        },
        {
          "indexed": false,
          "name": "level",
          "type": "uint8"
        }
      ],
      "name": "ShortOfFunds",
      "type": "event"
    },
    {
      "anonymous": false,
      "inputs": [
        {
          "indexed": false,
          "name": "id",
          "type": "uint256"
        },
        {
          "indexed": false,
          "name": "value",
          "type": "uint256"
        },
        {
          "indexed": false,
          "name": "level",
          "type": "uint8"
        }
      ],
      "name": "PaymentValue",
      "type": "event"
    },
    {
      "anonymous": false,
      "inputs": [
        {
          "indexed": false,
          "name": "nodeId",
          "type": "uint256"
        },
        {
          "indexed": false,
          "name": "parentId",
          "type": "uint256"
        },
        {
          "indexed": false,
          "name": "level",
          "type": "uint256"
        }
      ],
      "name": "AddToken",
      "type": "event"
    },
    {
      "anonymous": false,
      "inputs": [
        {
          "indexed": false,
          "name": "nodeId",
          "type": "uint256"
        },
        {
          "indexed": false,
          "name": "level",
          "type": "uint256"
        }
      ],
      "name": "RemoveToken",
      "type": "event"
    },
    {
      "anonymous": false,
      "inputs": [
        {
          "indexed": false,
          "name": "from",
          "type": "address"
        },
        {
          "indexed": false,
          "name": "fromId",
          "type": "uint256"
        },
        {
          "indexed": false,
          "name": "to",
          "type": "address"
        },
        {
          "indexed": false,
          "name": "toId",
          "type": "uint256"
        },
        {
          "indexed": false,
          "name": "value",
          "type": "uint256"
        }
      ],
      "name": "Transfer",
      "type": "event"
    },
    {
      "anonymous": false,
      "inputs": [
        {
          "indexed": false,
          "name": "to",
          "type": "address"
        },
        {
          "indexed": false,
          "name": "toId",
          "type": "uint256"
        },
        {
          "indexed": false,
          "name": "value",
          "type": "uint256"
        }
      ],
      "name": "AddValue",
      "type": "event"
    },
    {
      "anonymous": false,
      "inputs": [
        {
          "indexed": false,
          "name": "from",
          "type": "address"
        },
        {
          "indexed": false,
          "name": "fromId",
          "type": "uint256"
        },
        {
          "indexed": false,
          "name": "value",
          "type": "uint256"
        }
      ],
      "name": "RemoveValue",
      "type": "event"
    },
    {
      "anonymous": false,
      "inputs": [
        {
          "indexed": false,
          "name": "to",
          "type": "address"
        },
        {
          "indexed": false,
          "name": "toId",
          "type": "uint256"
        },
        {
          "indexed": false,
          "name": "level",
          "type": "uint256"
        }
      ],
      "name": "SetLevel",
      "type": "event"
    },
    {
      "anonymous": false,
      "inputs": [
        {
          "indexed": false,
          "name": "to",
          "type": "address"
        },
        {
          "indexed": false,
          "name": "toId",
          "type": "uint256"
        }
      ],
      "name": "IncreaseLevel",
      "type": "event"
    },
    {
      "anonymous": false,
      "inputs": [
        {
          "indexed": true,
          "name": "_prevOwner",
          "type": "address"
        },
        {
          "indexed": true,
          "name": "_newOwner",
          "type": "address"
        }
      ],
      "name": "OwnerUpdate",
      "type": "event"
    },
    {
      "anonymous": false,
      "inputs": [
        {
          "indexed": false,
          "name": "fromId",
          "type": "uint256"
        },
        {
          "indexed": false,
          "name": "spender",
          "type": "address"
        },
        {
          "indexed": false,
          "name": "toId",
          "type": "uint256"
        },
        {
          "indexed": false,
          "name": "value",
          "type": "uint256"
        }
      ],
      "name": "CApproveFrom",
      "type": "event"
    },
    {
      "anonymous": false,
      "inputs": [
        {
          "indexed": false,
          "name": "spender",
          "type": "address"
        },
        {
          "indexed": false,
          "name": "value",
          "type": "uint256"
        }
      ],
      "name": "CApprove",
      "type": "event"
    },
    {
      "anonymous": false,
      "inputs": [
        {
          "indexed": false,
          "name": "from",
          "type": "address"
        },
        {
          "indexed": false,
          "name": "fromId",
          "type": "uint256"
        },
        {
          "indexed": false,
          "name": "to",
          "type": "address"
        },
        {
          "indexed": false,
          "name": "toId",
          "type": "uint256"
        },
        {
          "indexed": false,
          "name": "value",
          "type": "uint256"
        },
        {
          "indexed": false,
          "name": "allowance",
          "type": "uint256"
        }
      ],
      "name": "CTransferFrom",
      "type": "event"
    },
    {
      "anonymous": false,
      "inputs": [
        {
          "indexed": false,
          "name": "to",
          "type": "address"
        },
        {
          "indexed": false,
          "name": "toId",
          "type": "uint256"
        },
        {
          "indexed": false,
          "name": "amount",
          "type": "uint256"
        }
      ],
      "name": "CIssue",
      "type": "event"
    },
    {
      "anonymous": false,
      "inputs": [
        {
          "indexed": false,
          "name": "from",
          "type": "address"
        },
        {
          "indexed": false,
          "name": "fromId",
          "type": "uint256"
        },
        {
          "indexed": false,
          "name": "amount",
          "type": "uint256"
        }
      ],
      "name": "CDestroy",
      "type": "event"
    },
    {
      "anonymous": false,
      "inputs": [
        {
          "indexed": false,
          "name": "from",
          "type": "address"
        },
        {
          "indexed": false,
          "name": "to",
          "type": "address"
        },
        {
          "indexed": false,
          "name": "tokenId",
          "type": "uint256"
        }
      ],
      "name": "Transfer",
      "type": "event"
    },
    {
      "anonymous": false,
      "inputs": [
        {
          "indexed": false,
          "name": "owner",
          "type": "address"
        },
        {
          "indexed": false,
          "name": "approved",
          "type": "address"
        },
        {
          "indexed": false,
          "name": "tokenId",
          "type": "uint256"
        }
      ],
      "name": "Approval",
      "type": "event"
    },
    {
      "anonymous": false,
      "inputs": [
        {
          "indexed": false,
          "name": "value",
          "type": "uint256"
        },
        {
          "indexed": false,
          "name": "metadata",
          "type": "string"
        },
        {
          "indexed": false,
          "name": "kind",
          "type": "uint256"
        },
        {
          "indexed": false,
          "name": "owner",
          "type": "address"
        }
      ],
      "name": "Birth",
      "type": "event"
    }
  ],
  "bytecode": "0x606060405234156200001057600080fd5b60405162005e7638038062005e768339810160405280805182019190602001805190910190508181600080806200004662000903565b6200005062000903565b6200005a62000903565b60028054600160a060020a03191633600160a060020a03161790558787818181816000828051620000909291602001906200093d565b506001818051620000a69291602001906200093d565b5050600a8054600160a060020a03191633600160a060020a031617905550506004600c5550620001339150678ac7230489e80000905060408051908101604052600981527f5375706572506f6f6c00000000000000000000000000000000000000000000006020820152600a54600190600160a060020a031664010000000062004dae620004b682021704565b955062000192600060408051908101604052600481527f506f6f6c000000000000000000000000000000000000000000000000000000006020820152600a54600190600160a060020a031664010000000062004dae620004b682021704565b9450620001f1600060408051908101604052600781527f537562506f6f6c000000000000000000000000000000000000000000000000006020820152600a54600290600160a060020a031664010000000062004dae620004b682021704565b93506200020d85876401000000006200129d620006c782021704565b6200022784866401000000006200129d620006c782021704565b60c060405190810160405280600060ff16815260200160018152602001600a815260200160018152602001878152602001600a8152509250600e8054806001018281620002759190620009c2565b600092835260209092208591600602018151815460ff191660ff919091161781556020820151816001015560408201518160020155606082015181600301556080820151816004015560a0820151816005015550505060c060405190810160405280600160ff168152602001600a8152602001606481526020016001815260200186815260200160148152509150600e8054806001018281620003199190620009c2565b600092835260209092208491600602018151815460ff191660ff919091161781556020820151816001015560408201518160020155606082015181600301556080820151816004015560a0820151816005015550505060c060405190810160405280600260ff1681526020016103e88152602001606481526020016001815260200185815260200160328152509050600e8054806001018281620003be9190620009c2565b600092835260209092208391600602018151815460ff191660ff919091161781556020820151816001015560408201518160020155606082015181600301556080820151816004015560a082015181600501555050506000600360008154811015156200042757fe5b600091825260208083206005928302019390935567016345785d8a0000600f5562f099c0601055678ac7230489e8000060118190556012805461500061ff001960ff19928316600117161790915560139190915560148054821660031790556202a300601555601680549091169091179055600a601755606460185590555062000b6198505050505050505050565b6000620004c2620009f6565b600060a060405190810160405280888152602001878152602001868152602001600081526020016000815250915060016003805480600101828162000508919062000a2e565b6000928352602090922085916005020181518155602082015181600101908051620005389291602001906200093d565b506040820151816002015560608201518160030155608082015160049091015550039050801515620005d1576001600380548060010182816200057c919062000a2e565b6000928352602090922085916005020181518155602082015181600101908051620005ac9291602001906200093d565b5060408201518160020155606082015181600301556080820151816004015550500390505b63ffffffff81168114620005e457600080fd5b7fdea8e87d69047e1b3cd43ad599d34e3eacfe4408b4dfc5d0f6ac6a15a468de5c8787878760405184815260408101839052600160a060020a038216606082015260806020820181815290820185818151815260200191508051906020019080838360005b838110156200066357808201518382015260200162000649565b50505050905090810190601f168015620006915780820380516001836020036101000a031916815260200191505b509550505050505060405180910390a1620006bd6000858364010000000062003e36620007fc82021704565b9695505050505050565b8115801590620006d8575060035482105b1515620006e457600080fd5b8015801590620006f5575060035481105b15156200070157600080fd5b6001600c54036003828154811015156200071757fe5b9060005260206000209060050201600301541015156200073657600080fd5b6000828152600d6020526040902081905560038054829081106200075657fe5b9060005260206000209060050201600301546001016003838154811015156200077b57fe5b9060005260206000209060050201600301819055507f0900f87897aa374bb21fa36753905fa2944dd2301242246101a9047a0ed227a08282600385815481101515620007c357fe5b90600052602060002090600502016003015460405180848152602001838152602001828152602001935050505060405180910390a15050565b6104006003828154811015156200080f57fe5b906000526020600020906005020160040154141515156200082c57fe5b600160a060020a03808316600081815260056020908152604080832080546001019055858352600490915290208054600160a060020a0319169091179055831615620008ae57600160a060020a03831660009081526005602090815260408083208054600019019055838352600690915290208054600160a060020a03191690555b7fddf252ad1be2c89b69c2b068fc378daa952ba7f163c4a11628f55a4df523b3ef838383604051600160a060020a039384168152919092166020820152604080820192909252606001905180910390a1505050565b60c060405190810160405280600060ff16815260200160008152602001600081526020016000815260200160008152602001600081525090565b828054600181600116156101000203166002900490600052602060002090601f016020900481019282601f106200098057805160ff1916838001178555620009b0565b82800160010185558215620009b0579182015b82811115620009b057825182559160200191906001019062000993565b50620009be92915062000a5d565b5090565b815481835581811511620009f157600602816006028360005260206000209182019101620009f1919062000a7d565b505050565b60a0604051908101604052806000815260200162000a1362000ac1565b81526020016000815260200160008152602001600081525090565b815481835581811511620009f157600502816005028360005260206000209182019101620009f1919062000ad3565b62000a7a91905b80821115620009be576000815560010162000a64565b90565b62000a7a91905b80821115620009be57805460ff19168155600060018201819055600282018190556003820181905560048201819055600582015560060162000a84565b60206040519081016040526000815290565b62000a7a91905b80821115620009be57600080825562000af7600183018262000b16565b5060006002820181905560038201819055600482015560050162000ada565b50805460018160011615610100020316600290046000825580601f1062000b3e575062000b5e565b601f01602090049060005260206000209081019062000b5e919062000a5d565b50565b6153058062000b716000396000f3006060604052600436106103205763ffffffff7c0100000000000000000000000000000000000000000000000000000000600035041662607b7f811461032257806301ffc9a71461034c57806306fdde0314610384578063095ea7b31461040e5780630c04ad11146104305780630e13dd741461044657806317b9ebec146104a857806318160ddd146104c15780631aff0596146104e65780631c41931c146104f95780631cced51b146105475780631d36e06c1461059257806323b872dd146105c457806329625005146105ec57806332c4ee831461061157806336c5d7241461063357806339e6cdb1146106495780633c7e7d281461066b5780634cabcfac1461068a5780634fe89efe146106af578063545c3d55146106e45780636352211e1461070957806366d80ba51461071f5780636914db601461074157806370a082311461075757806379ba50971461077657806381d12c58146107895780638462151c146107dc578063890357301461084e5780638b3c99e3146108c55780638da5cb5b146108db5780638f1fc77c146108ee57806395d89b411461090157806398dc5c95146109145780639ca088311461093c5780639d26d1ca14610952578063a01177cd14610965578063a3ec138d14610978578063a8bd9c3214610997578063a9059cbb146109ad578063afd82067146109cf578063b121f2ac146109e2578063b135707914610a04578063b260c42a14610a23578063b688a36314610a39578063b9f05f2f14610a41578063be1d68ad14610a63578063bf62266514610a82578063c0521d7614610aaa578063c349026314610acf578063c52380e914610ae8578063c9d27afe14610b07578063cadf338f14610b22578063cbbc9f8914610b38578063cc06c35914610b5d578063cf7c436714610b70578063d4ee1d9014610b95578063db595b3b14610ba8578063db85d59c14610bbb578063dd62ed3e14610c1d578063dd6d3ca714610c42578063ddf3ecc714610c55578063deb8386a14610c6b578063dfefadff14610c7e578063e176507314610cd4578063e527cc9d14610cea578063f2fde38b14610d0f578063f81fd7ea14610d2e575b005b341561032d57600080fd5b610338600435610d53565b604051901515815260200160405180910390f35b341561035757600080fd5b6103387fffffffff0000000000000000000000000000000000000000000000000000000060043516610db5565b341561038f57600080fd5b61039761108e565b60405160208082528190810183818151815260200191508051906020019080838360005b838110156103d35780820151838201526020016103bb565b50505050905090810190601f1680156104005780820380516001836020036101000a031916815260200191505b509250505060405180910390f35b341561041957600080fd5b610320600160a060020a0360043516602435611137565b341561043b57600080fd5b6103206004356111aa565b341561045157600080fd5b61045c6004356111b8565b6040518086600281111561046c57fe5b60ff1681526020018560ff1660ff1681526020018460ff1660ff1681526020018381526020018281526020019550505050505060405180910390f35b34156104b357600080fd5b61032060043560243561129d565b34156104cc57600080fd5b6104d46113c9565b60405190815260200160405180910390f35b34156104f157600080fd5b6104d46113e4565b341561050457600080fd5b610512600435602435611400565b60405160ff909516855260208501939093526040808501929092526060840152608083019190915260a0909101905180910390f35b341561055257600080fd5b61055a6116be565b6040518082608080838360005b8381101561057f578082015183820152602001610567565b5050505090500191505060405180910390f35b341561059d57600080fd5b6105a86004356117a1565b604051600160a060020a03909116815260200160405180910390f35b34156105cf57600080fd5b610320600160a060020a03600435811690602435166044356117bc565b34156105f757600080fd5b610320600160a060020a036004351660243560443561182c565b341561061c57600080fd5b610338600160a060020a03600435166024356118dc565b341561063e57600080fd5b6103206004356119dc565b341561065457600080fd5b610320600160a060020a0360043516602435611a7d565b341561067657600080fd5b6104d4600160a060020a0360043516611b39565b341561069557600080fd5b610320600160a060020a0360043516602435604435611b4b565b34156106ba57600080fd5b6106c2611bf9565b604051600160a060020a03909216825260208201526040908101905180910390f35b34156106ef57600080fd5b610320600160a060020a0360043516602435604435611c91565b341561071457600080fd5b6105a8600435611d3f565b341561072a57600080fd5b610338600160a060020a0360043516602435611d63565b341561074c57600080fd5b610397600435611d9c565b341561076257600080fd5b6104d4600160a060020a0360043516611e63565b341561078157600080fd5b610320611e7e565b341561079457600080fd5b61079f600435611f0c565b604051958652602086019490945260408086019390935260ff91821660608601528116608085015290911660a083015260c0909101905180910390f35b34156107e757600080fd5b6107fb600160a060020a0360043516611f49565b60405160208082528190810183818151815260200191508051906020019060200280838360005b8381101561083a578082015183820152602001610822565b505050509050019250505060405180910390f35b341561085957600080fd5b610861611f5a565b6040519a8b5260208b01999099526040808b019890985260ff96871660608b015294861660808a015260a089019390935290841660c088015260e0870152909116610100850152610120840152610140830191909152610160909101905180910390f35b34156108d057600080fd5b610320600435611f91565b34156108e657600080fd5b6105a8612381565b34156108f957600080fd5b6104d4612390565b341561090c57600080fd5b6103976123d7565b341561091f57600080fd5b610338600435600160a060020a036024351660443560643561244a565b341561094757600080fd5b6104d4600435612545565b341561095d57600080fd5b6104d4612557565b341561097057600080fd5b610320612573565b341561098357600080fd5b6104d4600160a060020a0360043516612613565b34156109a257600080fd5b6105a8600435612625565b34156109b857600080fd5b610320600160a060020a0360043516602435612640565b34156109da57600080fd5b6104d4612696565b34156109ed57600080fd5b6104d4600160a060020a03600435166024356126b2565b3415610a0f57600080fd5b6104d4600160a060020a03600435166126f1565b3415610a2e57600080fd5b61032060043561276a565b6104d4612871565b3415610a4c57600080fd5b610320600160a060020a03600435166024356128ee565b3415610a6e57600080fd5b6104d4600160a060020a0360043516612a25565b3415610a8d57600080fd5b610338600160a060020a0360043581169060243516604435612a37565b3415610ab557600080fd5b6104d4600160a060020a036004351660ff60243516612c0e565b3415610ada57600080fd5b610338600435602435612c8e565b3415610af357600080fd5b6104d4600160a060020a0360043516612ef5565b3415610b1257600080fd5b6103206004356024351515612f07565b3415610b2d57600080fd5b6104d4600435613050565b3415610b4357600080fd5b6104d4600160a060020a036004358116906024351661307a565b3415610b6857600080fd5b6104d4613097565b3415610b7b57600080fd5b610320600160a060020a036004351660243560443561309d565b3415610ba057600080fd5b6105a8613233565b3415610bb357600080fd5b6104d4613242565b3415610bc657600080fd5b610bd1600435613517565b60405197885260208801969096526040808801959095526060870193909352608086019190915260a085015260ff90811660c085015290911660e0830152610100909101905180910390f35b3415610c2857600080fd5b6104d4600160a060020a0360043581169060243516613560565b3415610c4d57600080fd5b6104d461357d565b3415610c6057600080fd5b6103206004356135a6565b3415610c7657600080fd5b6104d46135b1565b3415610c8957600080fd5b610c946004356135b7565b604051948552600160a060020a03909316602085015260ff91821660408086019190915291166060840152901515608083015260a0909101905180910390f35b3415610cdf57600080fd5b6107fb600435613643565b3415610cf557600080fd5b6104d4600160a060020a03600435811690602435166136a0565b3415610d1a57600080fd5b610320600160a060020a03600435166136bd565b3415610d3957600080fd5b6104d4600160a060020a036004358116906024351661371f565b600a5460009033600160a060020a03908116911614610d6e57fe5b8115801590610d7e575060035482105b1515610d8957600080fd5b610d94826002613777565b1515610d9c57fe5b610da582613a28565b1515610dad57fe5b506001919050565b60006040517f737570706f727473496e74657266616365286279746573342900000000000000815260190160405180910390207bffffffffffffffffffffffffffffffffffffffffffffffffffffffff1916827bffffffffffffffffffffffffffffffffffffffffffffffffffffffff1916148061108857506040517f746f6b656e4d657461646174612875696e743235362c737472696e67290000008152601d0160405180910390206040517f746f6b656e734f664f776e657228616464726573732900000000000000000000815260160160405180910390206040517f7472616e7366657246726f6d28616464726573732c616464726573732c75696e81527f7432353629000000000000000000000000000000000000000000000000000000602082015260250160405180910390206040517f7472616e7366657228616464726573732c75696e743235362900000000000000815260190160405180910390206040517f617070726f766528616464726573732c75696e74323536290000000000000000815260180160405180910390206040517f6f776e65724f662875696e743235362900000000000000000000000000000000815260100160405180910390206040517f62616c616e63654f662861646472657373290000000000000000000000000000815260120160405180910390206040517f746f74616c537570706c792829000000000000000000000000000000000000008152600d0160405180910390206040517f73796d626f6c2829000000000000000000000000000000000000000000000000815260080160405180910390206040517f6e616d6528290000000000000000000000000000000000000000000000000000815260060160405180910390201818181818181818187bffffffffffffffffffffffffffffffffffffffffffffffffffffffff1916827bffffffffffffffffffffffffffffffffffffffffffffffffffffffff1916145b92915050565b611096614fba565b60008054600181600116156101000203166002900480601f01602080910402602001604051908101604052809291908181526020018280546001816001161561010002031660029004801561112c5780601f106111015761010080835404028352916020019161112c565b820191906000526020600020905b81548152906001019060200180831161110f57829003601f168201915b505050505090505b90565b6111413382613dbb565b151561114c57600080fd5b6111568183613ddb565b7f8c5be1e5ebec7d5bd14f71427d1e84f3dd0314c0f7b2291e5b200ac8c7c3b925338383604051600160a060020a039384168152919092166020820152604080820192909252606001905180910390a15050565b6111b5816000612f07565b50565b6000808080808080808815156111cd57600080fd5b6111d7338a613dbb565b15156111e257600080fd5b600260008a8152601b6020526040902060060154610100900460ff161461120857600080fd5b5050506000868152601d602052604081206003810154601254825460028401546001850154601654969b5060ff8086169b506101009586900481169a506064959094048416909202939093049650600160a060020a033016319550929342939092019290921091868801811691161481156112865760029750611291565b801561129157600197505b50505091939590929450565b81158015906112ad575060035482105b15156112b857600080fd5b80158015906112c8575060035481105b15156112d357600080fd5b6001600c54036003828154811015156112e857fe5b90600052602060002090600502016003015410151561130657600080fd5b6000828152600d60205260409020819055600380548290811061132557fe5b90600052602060002090600502016003015460010160038381548110151561134957fe5b9060005260206000209060050201600301819055507f0900f87897aa374bb21fa36753905fa2944dd2301242246101a9047a0ed227a0828260038581548110151561139057fe5b90600052602060002090600502016003015460405180848152602001838152602001828152602001935050505060405180910390a15050565b600354600090818111156113dc57600019015b8091505b5090565b600160a060020a0333166000908152601e602052604090205490565b6000806000806000611410614fcc565b60008082526020820181905260408201819052606082018190526004965080808a1580159061144057506003548b105b151561144b57600080fd5b89151561145757600080fd5b611461338c613dbb565b151561146c57600080fd5b60008b8152600d6020526040902054925082151561148957600080fd5b6000838152600d602052604090205491508115156114a657600080fd5b506000818152600d60205260409020548015156114c257600080fd5b600398506003838154811015156114d557fe5b60009182526020909120600590910201548a116114fe576002985089848a5b6020020152611691565b600380548490811061150c57fe5b90600052602060002090600502016000015460038381548110151561152d57fe5b6000918252602090912060059091020154018a11611596576003805460019a508490811061155757fe5b60009182526020909120600590910201546040850152600380548490811061157b57fe5b60009182526020909120600590910201548a038460016114f4565b60038054849081106115a457fe5b9060005260206000209060050201600001546003838154811015156115c557fe5b9060005260206000209060050201600001546003838154811015156115e657fe5b600091825260209091206005909102015401018a11611691576003805460009a508490811061161157fe5b60009182526020909120600590910201546040850152600380548390811061163557fe5b60009182526020918290206005909102015490850152600380548390811061165957fe5b90600052602060002090600502016000015460038481548110151561167a57fe5b60009182526020909120600590910201548b030384525b60408401519750602084015196508351955030600160a060020a0316319450505050509295509295909350565b6116c6614fcc565b600080825260208201819052604082018190526060820181905260015b60035481101561179c5760038054829081106116fb57fe5b9060005260206000209060050201600301549150600c548260ff16101561176957600380548290811061172a57fe5b60009182526020909120600590910201548360ff84166004811061174a57fe5b6020020151018360ff84166004811061175f57fe5b6020020152611794565b600380548290811061177757fe5b600091825260209091206005909102015460608401510160608401525b6001016116e3565b505090565b600460205260009081526040902054600160a060020a031681565b600160a060020a03821615156117d157600080fd5b30600160a060020a031682600160a060020a0316141515156117f257600080fd5b6117fc3382613e16565b151561180757600080fd5b6118118382613dbb565b151561181c57600080fd5b611827838383613e36565b505050565b600a5433600160a060020a0390811691161461184457fe5b61184e8383613dbb565b151561185957600080fd5b8060038381548110151561186957fe5b9060005260206000209060050201600301819055507f48ed1b5769aee6cf16cda3da1db2a0acf83c194c9d2a98ebeff4904567af58f68383836040518084600160a060020a0316600160a060020a03168152602001838152602001828152602001935050505060405180910390a1505050565b6000808080600160a060020a03861615156118f657600080fd5b84151561190257600080fd5b33925061190e83613f54565b915061191986613f54565b90508181141561192857600080fd5b81151561193457600080fd5b80151561194057600080fd5b600160a060020a038381166000818152600860209081526040808320948b168084529482528083208690559282528282208690556009815282822093825292909252908190208690557fe051949e9a44e2e9c21ee7d1c7b03ef0bf501aa3b7c4616a8543f229c0bede7a908790879051600160a060020a03909216825260208201526040908101905180910390a1600193505b50505092915050565b600081158015906119ee575060035482105b15156119f957600080fd5b611a0282613f9e565b90508015611a0f57600080fd5b6000828152600d6020526040812055600380547f399c331be71add502e95a2402ba7370605a945c1c6c1dc01c5e30f7e896cfa5691849182908110611a5057fe5b90600052602060002090600502016003015460405191825260208201526040908101905180910390a15050565b600a5433600160a060020a03908116911614611a9557fe5b611a9f8282613dbb565b1515611aaa57600080fd5b6003805482908110611ab857fe5b906000526020600020906005020160030154600101600382815481101515611adc57fe5b9060005260206000209060050201600301819055507fb6ffa2bc58069f160ac94855c396bc8a7c591ae4b9e69d78cc004ad2e4d70d858282604051600160a060020a03909216825260208201526040908101905180910390a15050565b60196020526000908152604090205481565b6000600160a060020a0384161515611b6257600080fd5b811515611b6e57600080fd5b5081801515611b8357611b8084613f54565b90505b801515611b8f57600080fd5b611b9a848284613ffc565b7f8ee078ba6dd38678f9ffdc8f1df2d512559df0cae2db32c829459127e10031978484846040518084600160a060020a0316600160a060020a03168152602001838152602001828152602001935050505060405180910390a150505050565b602054600090819081901515611c0e57611c8c565b5060015b601f54811015611c8c57601f805482908110611c2a57fe5b906000526020600020906002020160010160169054906101000a900460ff161515611c8457601f805482908110611c5d57fe5b6000918252602090912060016002909202010154600160a060020a03169250905080611c8c565b600101611c12565b509091565b6000600160a060020a0384161515611ca857600080fd5b811515611cb457600080fd5b5081801515611cc957611cc684613f54565b90505b801515611cd557600080fd5b611ce08482846140ea565b7ff3d0e22890d929d2a1cd5ca9e5f6498c4271ce2f0223ab4092297c2d11c9ef758484846040518084600160a060020a0316600160a060020a03168152602001838152602001828152602001935050505060405180910390a150505050565b600081815260046020526040812054600160a060020a031680151561108857600080fd5b600080600160a060020a0384161515611d7b57600080fd5b821515611d8757600080fd5b5033611d94818585612a37565b949350505050565b611da4614fba565b6003805483908110611db257fe5b90600052602060002090600502016001018054600181600116156101000203166002900480601f016020809104026020016040519081016040528092919081815260200182805460018160011615610100020316600290048015611e575780601f10611e2c57610100808354040283529160200191611e57565b820191906000526020600020905b815481529060010190602001808311611e3a57829003601f168201915b50505050509050919050565b600160a060020a031660009081526005602052604090205490565b600b5433600160a060020a03908116911614611e9957600080fd5b600b54600a54600160a060020a0391821691167f343765429aea5a34b3ff6a3785a98a5abb2597aca87bfbb58632c173d585373a60405160405180910390a3600b8054600a805473ffffffffffffffffffffffffffffffffffffffff19908116600160a060020a03841617909155169055565b601d6020526000908152604090208054600182015460028301546003909301549192909160ff808216916101008104821691620100009091041686565b611f51614fba565b611088826141ac565b600f5460105460115460125460135460145460155460165460175460185460ff80881697610100900481169695811694931691908b565b600080600080611f9f614fcc565b6000861515611fad57600080fd5b611fb73388613dbb565b1515611fc257600080fd5b60026000888152601b6020526040902060060154610100900460ff1614611fe857600080fd5b6000878152601d60205260409020600281015460018201546016546003840154939950429190920110965060ff90811661010083048216928216929092011614935084806120335750835b151561203e57600080fd5b6012548654606491610100900460ff16026003880154919004935060ff610100820481169116118015612076575061207687846142a1565b1561214357600160a060020a03331683156108fc0284604051600060405180830381858888f1935050505015156120ac57600080fd5b6000878152601b6020526040902060068101805461ff0019166103001790556004018054840190556120de87846143ea565b91507f261826fbdc11ee0da48a5356542bcb46786deaed4c215b871d3df7a03652262d33888560035b604051600160a060020a039094168452602084019290925260408084019190915260ff90911660608301526080909101905180910390a16122e4565b600386015460ff80821661010090920416148061217b5750601454600387015460ff9182166101008204831691831691909101909116105b801561219f57506000878152601b602052604090206003015461219f9088906142a1565b15612265576000878152601b60205260409081902060030154600160a060020a0333169181156108fc02919051600060405180830381858888f1935050505015156121e957600080fd5b6000878152601b6020526040902060068101805461ff001916610500179055600381015460049091018054820190556122239088906143ea565b6000888152601b60205260409020600301549092507f261826fbdc11ee0da48a5356542bcb46786deaed4c215b871d3df7a03652262d90339089906005612107565b6000878152601b6020526040808220600601805461ff0019166104001790557f261826fbdc11ee0da48a5356542bcb46786deaed4c215b871d3df7a03652262d9133918a919060049051600160a060020a039094168452602084019290925260408084019190915260ff90911660608301526080909101905180910390a15b600386015462010000900460ff1681101561233257601c600060048801836005811061230c57fe5b0154600160a060020a0316815260208101919091526040016000908120556001016122e4565b6000878152601d60205260408120818155600181018290556002810182905560038101805462ffffff191690559061236d6004830182614ff3565b5050612377614fcc565b5050505050505050565b600a54600160a060020a031681565b600354600090819060015b818110156123cf5760038054829081106123b157fe5b6000918252602090912060059091020154929092019160010161239b565b509092915050565b6123df614fba565b60018054600181600116156101000203166002900480601f01602080910402602001604051908101604052809291908181526020018280546001816001161561010002031660029004801561112c5780601f106111015761010080835404028352916020019161112c565b600080600160a060020a038516151561246257600080fd5b8584141561246f57600080fd5b85151561247b57600080fd5b83151561248757600080fd5b82151561249357600080fd5b5033600160a060020a038181166000818152600860209081526040808320948a168084529482528083208990559282528282208a90556009815282822093825292909252908190208490557fef4beaa380feab20776f162f92bbf15b04c59f8fd4e8ab2508b8d29fed7dfd6190879087908790879051938452600160a060020a03909216602084015260408084019190915260608301919091526080909101905180910390a150600195945050505050565b600d6020526000908152604090205481565b600160a060020a03331660009081526019602052604090205490565b600a54600090819033600160a060020a0390811691161461259057fe5b612598611bf9565b9092509050600160a060020a038216158015906125b457508015155b1561260f57601854600f546125ca91849161309d565b7fa2b47dc564bd9b8719fa8435590eb01665bade49e1fa4890022587a074d9e4268282604051600160a060020a03909216825260208201526040908101905180910390a15b5050565b601c6020526000908152604090205481565b600660205260009081526040902054600160a060020a031681565b600160a060020a038216151561265557600080fd5b30600160a060020a031682600160a060020a03161415151561267657600080fd5b6126803382613dbb565b151561268b57600080fd5b61260f338383613e36565b600160a060020a0333166000908152601a602052604090205490565b60006126be8383613dbb565b15156126c957600080fd5b60038054839081106126d757fe5b906000526020600020906005020160030154905092915050565b60006126fb614fba565b6000806000612709866141ac565b93506000925083519150600090505b8181101561276057600384828151811061272e57fe5b906020019060200201518154811061274257fe5b60009182526020909120600590910201549290920191600101612718565b5090949350505050565b80151561277657600080fd5b6127803382613dbb565b151561278b57600080fd5b6000818152601b602052604090206003015415156127a857600080fd5b6000818152601b602052604090206006015460ff61010090910416600114156127d057600080fd5b6104006003828154811015156127e257fe5b6000918252602080832060059283020160040193909355838252601b90925260409081902060068101805461ff00191661010017905542600182015560038101549201547ff5d2d36fd2c60192fd8f874c962737f1858ff797bf9865d071ade33eeee007019284929091905180848152602001838152602001828152602001935050505060405180910390a150565b33600160a060020a0381166000908152601a60205260408120549091349182158015906128a05750600f548310155b15156128ab57600080fd5b8015156128b757600080fd5b600160a060020a03821660009081526019602052604090205483146128db57600080fd5b6128e6828285614a11565b935050505090565b600a546000908190819033600160a060020a0390811691161461290d57fe5b600160a060020a038516151561292257600080fd5b83151561292e57600080fd5b60026000858152601b6020526040902060060154610100900460ff161461295457600080fd5b6000848152601d602052604090208054909350151561297257600080fd5b600283015460018401540191504282101561298c57600080fd5b50600382015460165460ff620100009092048216911681106129ad57600080fd5b846004840160ff8316600581106129c057fe5b018054600160a060020a0392831673ffffffffffffffffffffffffffffffffffffffff199091161790556003909301805460ff6201000080830482166001019091160262ff0000199091161790555050919091166000908152601c6020526040902055565b601e6020526000908152604090205481565b600080808080600160a060020a0387161515612a5257600080fd5b851515612a5e57600080fd5b50505050600160a060020a0384811660008181526008602090815260408083209488168084529482528083205493835280832054600983528184209584529490915290205486929081831415612ab357600080fd5b821515612abf57600080fd5b811515612acb57600080fd5b801515612ad757600080fd5b85811015612ae457600080fd5b612af1848389868a614bbf565b600160a060020a038481166000908152600960209081526040808320938b168352929052208054879003908190551515612b6957600160a060020a038481166000818152600960209081526040808320948c168084529482528083208390559282526008815282822090528181208190559182528120555b600160a060020a038085166000908152600960209081526040808320938b168352929052819020547fa085ba1c72fda1f13ecb6e0347284ac7d016a73b7a47c0ba151368bbe5ce2db9918a9185918b9188918c919051600160a060020a0396871681526020810195909552929094166040808501919091526060840191909152608083019390935260a082015260c001905180910390a1506001979650505050505050565b6000612c18614fba565b6000612c23856141ac565b915060009250600090505b8151811015612c86578360ff16601b6000848481518110612c4b57fe5b906020019060200201518152602081019190915260400160002060060154610100900460ff161415612c7e576001909201915b600101612c2e565b505092915050565b60008080841515612c9e57600080fd5b612ca83386613dbb565b1515612cb357600080fd5b831515612cbf57600080fd5b60016000868152601b6020526040902060060154610100900460ff1614612ce557600080fd5b6012546000868152601b602052604090206006015460ff918216911610612d0b57600080fd5b601254606490610100900460ff1685026013546000888152601b60205260409020600401549290910493509083011115612d4457600080fd5b506000848152601b6020526040902060028101546001909101540142811015612d6c57600080fd5b60e06040519081016040908152858252426020830152601554818301526000606083018190526080830181905260a08084019190915260c083019151908101604090815260008083526020808401829052828401829052606084018290526080840182905292909352888352601d9091529020815181556020820151816001015560408201518160020155606082015160038201805460ff191660ff9290921691909117905560808201518160030160016101000a81548160ff021916908360ff16021790555060a08201518160030160026101000a81548160ff021916908360ff16021790555060c0820151612e699060048301906005615016565b5050506000858152601b602052604090819020600601805461020061ff001960ff198316600160ff948516018416171617918290557fb3ef0c14cd9ed6533151b9a921ddb33f8716dd3593254ffc741ae770313e3bea9288928892169051928352602083019190915260ff166040808301919091526060909101905180910390a1506001949350505050565b601a6020526000908152604090205481565b600080831515612f1657600080fd5b600160a060020a0333166000908152601c60205260409020548414612f3a57600080fd5b6000848152601b602052604090206006015460ff61010090910416600214612f6157600080fd5b50506000828152601d60205260409020600281015460018201540142811015612f8957600080fd5b8215612fac5760038201805460ff8082166001011660ff19909116179055612fce565b60038201805460ff61010080830482166001019091160261ff00199091161790555b601c600033600160a060020a0316600160a060020a03168152602001908152602001600020600090557f8d85a70fd2c5d140a4a01143492d27ff82cfad4cead313e66c53f39b0feb5e0f338585604051600160a060020a039093168352602083019190915215156040808301919091526060909101905180910390a150505050565b600060038281548110151561306157fe5b9060005260206000209060050201600001549050919050565b600960209081526000928352604080842090915290825290205481565b600c5481565b600a5460009033600160a060020a039081169116146130b857fe5b600160a060020a03841615156130cd57600080fd5b8215156130d957600080fd5b81158015906130ea5750600f548210155b15156130f557600080fd5b50600160a060020a0383166000908152601960209081526040808320849055601a8252808320859055601e90915290205480158015906131365750601f5481105b156131d4576001601f8281548110151561314c57fe5b6000918252602080832060016002909302019190910180549315157601000000000000000000000000000000000000000000000276ff000000000000000000000000000000000000000000001990941693909317909255600160a060020a0386168152601e825260408120558054600019019081905515156131d4576131d4601f6000615079565b7f21619a95128e7e5c5367774b6479b6edbc059210239e39bbd50dbae00cfe09728484846040518084600160a060020a0316600160a060020a03168152602001838152602001828152602001935050505060405180910390a150505050565b600b54600160a060020a031681565b600061324c61509a565b600160a060020a0333166000908152601e60205260409020549150811580156132785750601754602054105b156113e05760a06040519081016040908152428252600160a060020a033316602083015260019082018190526000606083018190526080830152601f805492935090918083016132c883826150c8565b6000928352602090922084916002020181518155602082015160018201805473ffffffffffffffffffffffffffffffffffffffff1916600160a060020a039290921691909117905560408201518160010160146101000a81548160ff021916908360ff16021790555060608201518160010160156101000a81548160ff021916908360ff1602179055506080820151600190910180549115157601000000000000000000000000000000000000000000000276ff000000000000000000000000000000000000000000001990921691909117905550039150811515613496576001601f80548060010182816133bd91906150c8565b6000928352602090922084916002020181518155602082015160018201805473ffffffffffffffffffffffffffffffffffffffff1916600160a060020a039290921691909117905560408201518160010160146101000a81548160ff021916908360ff16021790555060608201518160010160156101000a81548160ff021916908360ff1602179055506080820151600190910180549115157601000000000000000000000000000000000000000000000276ff0000000000000000000000000000000000000000000019909216919091179055500391505b63ffffffff821682146134a857600080fd5b33600160a060020a0381166000908152601e6020908152604091829020859055805460010190557f59470163a7d3423114f115af31707633dd4930abac0f3662fc3c4ef323f39a869190849051600160a060020a03909216825260208201526040908101905180910390a15090565b601b602052600090815260409020805460018201546002830154600384015460048501546005860154600690960154949593949293919290919060ff8082169161010090041688565b600760209081526000928352604080842090915290825290205481565b60006003600081548110151561358f57fe5b906000526020600020906005020160000154905090565b6111b5816001612f07565b60205481565b601f8054829081106135c557fe5b600091825260209091206002909102018054600190910154909150600160a060020a0381169060ff740100000000000000000000000000000000000000008204811691750100000000000000000000000000000000000000000081048216917601000000000000000000000000000000000000000000009091041685565b61364b614fba565b6000828152600d6020526040812054905b600c54811015613699578183828151811061367357fe5b60209081029091018101919091526000928352600d90526040909120549060010161365c565b5050919050565b600860209081526000928352604080842090915290825290205481565b600a5433600160a060020a039081169116146136d557fe5b600a54600160a060020a03828116911614156136f057600080fd5b600b805473ffffffffffffffffffffffffffffffffffffffff1916600160a060020a0392909216919091179055565b6000600160a060020a038216151561373657600080fd5b600160a060020a038316151561374b57600080fd5b50600160a060020a03918216600090815260096020908152604080832093909416825291909152205490565b60008060008060006137898787614d4f565b935061379484613f9e565b92506137a08787614d7d565b915081831015613807576137b4878561129d565b7f69186e91a26c2cd1f67397df408ddeb0db9249dbd6e2a428ad8ae0d59ba3bc88878588604051928352602083019190915260ff166040808301919091526060909101905180910390a160019450613a1e565b600e805460ff881690811061381857fe5b906000526020600020906006020160010154600e8760ff1681548110151561383c57fe5b906000526020600020906006020160030154141561385d5760009450613a1e565b61394f600060038681548110151561387157fe5b90600052602060002090600502016001018054600181600116156101000203166002900480601f0160208091040260200160405190810160405280929190818152602001828054600181600116156101000203166002900480156139165780601f106138eb57610100808354040283529160200191613916565b820191906000526020600020905b8154815290600101906020018083116138f957829003601f168201915b505050505060038781548110151561392a57fe5b6000918252602090912060026005909202010154600a54600160a060020a0316614dae565b90508015613a19576139648160018803613777565b15613a1957613973878261129d565b7f69186e91a26c2cd1f67397df408ddeb0db9249dbd6e2a428ad8ae0d59ba3bc88878288604051928352602083019190915260ff166040808301919091526060909101905180910390a180600e8760ff168154811015156139d057fe5b6000918252602090912060046006909202010155600e805460ff88169081106139f557fe5b60009182526020909120600360069092020101805460019081019091559450613a1e565b600094505b5050505092915050565b6000808080808080808815801590613a41575060035489105b1515613a4c57600080fd5b6001600c540360038a815481101515613a6157fe5b906000526020600020906005020160030154141515613a7f57600080fd5b6000898152600d60205260409020549650861515613a9c57600080fd5b6000878152600d60205260409020549550851515613ab957600080fd5b6000868152600d60205260409020549450841515613ad657600080fd5b6064600e6002815481101515613ae857fe5b90600052602060002090600602016005015460038b815481101515613b0957fe5b90600052602060002090600502016000015402811515613b2557fe5b049350831515613b3457600080fd5b6064600e6001815481101515613b4657fe5b90600052602060002090600602016005015460038b815481101515613b6757fe5b90600052602060002090600502016000015402811515613b8357fe5b049250821515613b9257600080fd5b6064600e6000815481101515613ba457fe5b90600052602060002090600602016005015460038b815481101515613bc557fe5b90600052602060002090600502016000015402811515613be157fe5b049150811515613bf057600080fd5b81838560038c815481101515613c0257fe5b60009182526020909120600590910201540303039050801515613c2457600080fd5b83600388815481101515613c3457fe5b90600052602060002090600502016000015401600388815481101515613c5657fe5b60009182526020909120600590910201556003805484919088908110613c7857fe5b90600052602060002090600502016000015401600387815481101515613c9a57fe5b60009182526020909120600590910201556003805483919087908110613cbc57fe5b90600052602060002090600502016000015401600386815481101515613cde57fe5b60009182526020822060059091020191909155600380548392908110613d0057fe5b9060005260206000209060050201600001540160036000815481101515613d2357fe5b60009182526020822060059091020191909155600380548b908110613d4457fe5b60009182526020909120600590910201557fcfd3c3fcdcb63bcee48ff9a9ec28351afef5ba4fc9b5a8f46d5aa65565a3b1a38983858785604051808681526020018581526020018481526020018381526020018281526020019550505050505060405180910390a150600198975050505050505050565b600090815260046020526040902054600160a060020a0391821691161490565b600091825260066020526040909120805473ffffffffffffffffffffffffffffffffffffffff1916600160a060020a03909216919091179055565b600090815260066020526040902054600160a060020a0391821691161490565b610400600382815481101515613e4857fe5b90600052602060002090600502016004015414151515613e6457fe5b600160a060020a0380831660008181526005602090815260408083208054600101905585835260049091529020805473ffffffffffffffffffffffffffffffffffffffff19169091179055831615613eff57600160a060020a0383166000908152600560209081526040808320805460001901905583835260069091529020805473ffffffffffffffffffffffffffffffffffffffff191690555b7fddf252ad1be2c89b69c2b068fc378daa952ba7f163c4a11628f55a4df523b3ef838383604051600160a060020a039384168152919092166020820152604080820192909252606001905180910390a1505050565b6000613f5e614fba565b6000613f69846141ac565b915081519050801515613f7f5760009250613699565b81600081518110613f8c57fe5b90602001906020020151949350505050565b600080808315801590613fb2575060035484105b1515613fbd57600080fd5b613fc56113c9565b915060009250600190505b818111613699576000818152600d6020526040902054841415613ff4576001909201915b600101613fd0565b6140068383613dbb565b151561401157600080fd5b80151561401d57600080fd5b8060038381548110151561402d57fe5b6000918252602090912060059091020154101561404957600080fd5b8060038381548110151561405957fe5b9060005260206000209060050201600001540360038381548110151561407b57fe5b60009182526020909120600590910201557f45dacd427fd388bf162986dbc958cdcf160c31b40efe076907cff377b9857c798383836040518084600160a060020a0316600160a060020a03168152602001838152602001828152602001935050505060405180910390a1505050565b6140f48383613dbb565b15156140ff57600080fd5b80151561410b57600080fd5b8060038381548110151561411b57fe5b9060005260206000209060050201600001540160038381548110151561413d57fe5b60009182526020909120600590910201557f20f4934a3b4928cca0e51f3f1eaac12dee9af151a8a8ba5a424a89d93f6bf53d8383836040518084600160a060020a0316600160a060020a03168152602001838152602001828152602001935050505060405180910390a1505050565b6141b4614fba565b60006141be614fba565b60008080600160a060020a03871615156141d757600080fd5b6141e087611e63565b94508415156142105760006040518059106141f85750595b90808252806020026020018201604052509550614297565b8460405180591061421e5750595b908082528060200260200182016040525093506142396113c9565b925060009150600190505b82811161429357600081815260046020526040902054600160a060020a038881169116141561428b578084838060010194508151811061428057fe5b602090810290910101525b600101614244565b8395505b5050505050919050565b6000828152600d602052604081205481808215156142be57600080fd5b6000838152600d602052604090205491508115156142db57600080fd5b506000818152600d60205260409020548015156142f757600080fd5b600380548490811061430557fe5b6000918252602090912060059091020154851161432557600193506119d3565b600380548490811061433357fe5b90600052602060002090600502016000015460038381548110151561435457fe5b600091825260209091206005909102015401851161437557600193506119d3565b600380548490811061438357fe5b9060005260206000209060050201600001546003838154811015156143a457fe5b9060005260206000209060050201600001546003838154811015156143c557fe5b6000918252602090912060059091020154010185116119d35750600195945050505050565b6143f2614fcc565b600080808515801590614406575060035486105b151561441157600080fd5b84151561441d57600080fd5b60008085526020808601829052604080870183905260608701839052888352600d909152902054925082151561445257600080fd5b6000838152600d6020526040902054915081151561446f57600080fd5b506000818152600d602052604090205480151561448b57600080fd5b600380548490811061449957fe5b6000918252602090912060059091020154851161454957604084018581525160038054859081106144c657fe5b906000526020600020906005020160000154036003848154811015156144e857fe5b60009182526020909120600590910201557f7c6ae15e271230e8f8b92de835be76e504f4bb32c5c02872b19e167d6d100fbf86866002604051928352602083019190915260ff166040808301919091526060909101905180910390a16119d3565b600380548490811061455757fe5b90600052602060002090600502016000015460038381548110151561457857fe5b600091825260209091206005909102015401851161470c577ff5e9c26d6f4f4192de6ab81062e5f90501d77f924b508e44728a2b78d3c12c6d8684876002604051938452602084019290925260408084019190915260ff90911660608301526080909101905180910390a160038054849081106145f157fe5b60009182526020909120600590910201546040850152600380548490811061461557fe5b6000918252602091829020600590910201548603908501526040840151600380548590811061464057fe5b9060005260206000209060050201600001540360038481548110151561466257fe5b60009182526020909120600590910201558360016020020151600380548490811061468957fe5b906000526020600020906005020160000154036003838154811015156146ab57fe5b60009182526020909120600590910201557f7c6ae15e271230e8f8b92de835be76e504f4bb32c5c02872b19e167d6d100fbf86866001604051928352602083019190915260ff166040808301919091526060909101905180910390a16119d3565b600380548490811061471a57fe5b90600052602060002090600502016000015460038381548110151561473b57fe5b90600052602060002090600502016000015460038381548110151561475c57fe5b60009182526020909120600590910201540101851161497b577ff5e9c26d6f4f4192de6ab81062e5f90501d77f924b508e44728a2b78d3c12c6d8683876001604051938452602084019290925260408084019190915260ff90911660608301526080909101905180910390a160038054849081106147d657fe5b6000918252602090912060059091020154604085015260038054839081106147fa57fe5b60009182526020918290206005909102015490850152600380548390811061481e57fe5b90600052602060002090600502016000015460038481548110151561483f57fe5b600091825260209091206005909102015486030384526040840151600380548590811061486857fe5b9060005260206000209060050201600001540360038481548110151561488a57fe5b6000918252602090912060059091020155836001602002015160038054849081106148b157fe5b906000526020600020906005020160000154036003838154811015156148d357fe5b6000918252602090912060059091020155835160038054839081106148f457fe5b9060005260206000209060050201600001540360038281548110151561491657fe5b9060005260206000209060050201600001819055507f7c6ae15e271230e8f8b92de835be76e504f4bb32c5c02872b19e167d6d100fbf86866000604051928352602083019190915260ff166040808301919091526060909101905180910390a16119d3565b7ff5e9c26d6f4f4192de6ab81062e5f90501d77f924b508e44728a2b78d3c12c6d8682876000604051938452602084019290925260408084019190915260ff90911660608301526080909101905180910390a17f95f5c188d1321fe8984cadebc18c8fcaddc6cedbf14ee92f03f318c0e2038485868660405191825260208201526040908101905180910390a150505092915050565b600080614a548360408051908101604052600c81527f43726f7764737572616e636500000000000000000000000000000000000000006020820152600088614dae565b90506101006040519081016040528042815260200160008152602001600f60010154815260200184815260200160008152602001858152602001600060ff16815260200160006005811115614aa557fe5b60ff1690526000828152601b60205260409020815181556020820151816001015560408201518160020155606082015181600301556080820151816004015560a0820151816005015560c082015160068201805460ff191660ff9290921691909117905560e08201516006909101805460ff929092166101000261ff001990921691909117905550614b3681614fa0565b507fbca387acb0ba7d06e329c4372885bb664f19a98153ccf3e74e56c136bf0e88c48582856040518084600160a060020a0316600160a060020a03168152602001838152602001828152602001935050505060405180910390a1600160a060020a0385166000908152601960209081526040808320839055601a90915281205590509392505050565b614bc98585613dbb565b1515614bd457600080fd5b614bde8383613dbb565b1515614be957600080fd5b801515614bf557600080fd5b83821415614c0257600080fd5b80600385815481101515614c1257fe5b60009182526020909120600590910201541015614c2e57600080fd5b610400600385815481101515614c4057fe5b90600052602060002090600502016004015414151515614c5f57600080fd5b80600385815481101515614c6f57fe5b90600052602060002090600502016000015403600385815481101515614c9157fe5b60009182526020909120600590910201556003805482919084908110614cb357fe5b90600052602060002090600502016000015401600383815481101515614cd557fe5b60009182526020909120600590910201557f6d401b913d27047ecd2042f0331e2354d30e664920b31480dc71955edb996c388585858585604051600160a060020a0395861681526020810194909452919093166040808401919091526060830193909352608082015260a001905180910390a15050505050565b6000600e8260ff16815481101515614d6357fe5b906000526020600020906006020160040154905092915050565b60006001600e8360ff16815481101515614d9357fe5b90600052602060002090600602016002015403905092915050565b6000614db86150f4565b600060a0604051908101604052808881526020018781526020018681526020016000815260200160008152509150600160038054806001018281614dfc919061512a565b6000928352602090922085916005020181518155602082015181600101908051614e2a929160200190615156565b506040820151816002015560608201518160030155608082015160049091015550039050801515614ebe57600160038054806001018281614e6b919061512a565b6000928352602090922085916005020181518155602082015181600101908051614e99929160200190615156565b5060408201518160020155606082015181600301556080820151816004015550500390505b63ffffffff81168114614ed057600080fd5b7fdea8e87d69047e1b3cd43ad599d34e3eacfe4408b4dfc5d0f6ac6a15a468de5c8787878760405184815260408101839052600160a060020a038216606082015260806020820181815290820185818151815260200191508051906020019080838360005b83811015614f4d578082015183820152602001614f35565b50505050905090810190601f168015614f7a5780820380516001836020036101000a031916815260200191505b509550505050505060405180910390a1614f9660008583613e36565b9695505050505050565b60008115801590610d7e57506003548210610d8957600080fd5b60206040519081016040526000815290565b60806040519081016040526004815b6000815260200190600190039081614fdb5790505090565b506000815560010160008155600101600081556001016000815560010160009055565b826005810192821561506d579160200282015b8281111561506d578251825473ffffffffffffffffffffffffffffffffffffffff1916600160a060020a039190911617825560209290920191600190910190615029565b506113e09291506151d0565b50805460008255600202906000526020600020908101906111b59190615201565b60a0604051908101604090815260008083526020830181905290820181905260608201819052608082015290565b815481835581811511611827576002028160020283600052602060002091820191016118279190615201565b60a0604051908101604052806000815260200161510f614fba565b81526020016000815260200160008152602001600081525090565b81548183558181151161182757600502816005028360005260206000209182019101611827919061523d565b828054600181600116156101000203166002900490600052602060002090601f016020900481019282601f1061519757805160ff19168380011785556151c4565b828001600101855582156151c4579182015b828111156151c45782518255916020019190600101906151a9565b506113e092915061527b565b61113491905b808211156113e057805473ffffffffffffffffffffffffffffffffffffffff191681556001016151d6565b61113491905b808211156113e0576000815560018101805476ffffffffffffffffffffffffffffffffffffffffffffff19169055600201615207565b61113491905b808211156113e057600080825561525d6001830182615295565b50600060028201819055600382018190556004820155600501615243565b61113491905b808211156113e05760008155600101615281565b50805460018160011615610100020316600290046000825580601f106152bb57506111b5565b601f0160209004906000526020600020908101906111b5919061527b5600a165627a7a72305820b2100b5f7367a9de569c10a8cf5b74415ca5e466ae714620fab8759fec6214e50029",
  "source": "// \n// MIT License\n// \n// Copyright (c) 2018 REGA Risk Sharing\n//   \n// Permission is hereby granted, free of charge, to any person obtaining a copy\n// of this software and associated documentation files (the \"Software\"), to deal\n// in the Software without restriction, including without limitation the rights\n// to use, copy, modify, merge, publish, distribute, sublicense, and/or sell\n// copies of the Software, and to permit persons to whom the Software is\n// furnished to do so, subject to the following conditions:\n// \n// The above copyright notice and this permission notice shall be included in all\n// copies or substantial portions of the Software.\n// \n// THE SOFTWARE IS PROVIDED \"AS IS\", WITHOUT WARRANTY OF ANY KIND, EXPRESS OR\n// IMPLIED, INCLUDING BUT NOT LIMITED TO THE WARRANTIES OF MERCHANTABILITY,\n// FITNESS FOR A PARTICULAR PURPOSE AND NONINFRINGEMENT. IN NO EVENT SHALL THE\n// AUTHORS OR COPYRIGHT HOLDERS BE LIABLE FOR ANY CLAIM, DAMAGES OR OTHER\n// LIABILITY, WHETHER IN AN ACTION OF CONTRACT, TORT OR OTHERWISE, ARISING FROM,\n// OUT OF OR IN CONNECTION WITH THE SOFTWARE OR THE USE OR OTHER DEALINGS IN THE\n// SOFTWARE.\n// \n// Author: Sergei Sevriugin\n// Version: 0.0.1\n//  \n\npragma solidity ^0.4.17;\n\nimport './TokenPool.sol';\n/// TokenCrowdsurance is ERC721SmartToken for crowdsurance products. \n/// Crowdsurance, meaning people unite in communities to provide a guarantee of compensation for unexpected loss. \n/// Using ERC721SmartToken crowdsurance product can be 'tokenized' and can be availible as ERC20 token.\ncontract TokenCrowdsurance is TokenPool {\n    /// Crowdsurance token ERC721 extention\n    /// @param timeStamp join time stemp\n    /// @param activated coverage activation time stamp\n    /// @param duration crowdsurance coverage duration\n    /// @param amount join amount\n    /// @param paid paid claim amount\n    /// @param score member score\n    /// @param claimNumber number of claims\n    /// @param status crowdsurance status\n    struct Crowdsurance {\n        uint        timeStamp;          // join time stamp\n        uint        activated;          // coverage activation time stamp\n        uint        duration;           // risk coverage duration\n        uint256     amount;             // join amount\n        uint256     paid;               // paid amount\n        uint256     score;              // score\n        uint8       claimNumber;        // number of claims\n        uint8       status;             // crowdsurance status\n    }\n    /// Crowdsurance claim\n    /// @param amount claim amount\n    /// @param timeStamp claim time stamp\n    /// @param duration voting period\n    /// @param positive votes to pay claims\n    /// @param negative votes not to pay\n    /// @param number member number\n    /// @param members\n    struct Request {\n        uint256     amount;             // claim amount\n        uint        timeStamp;          // claim time stamp\n        uint        duration;           // voting duration\n        uint8       positive;           // number of positive votes\n        uint8       negative;           // number of negative votes\n        uint8       number;             // juries number\n        address[5]  members;            // jury members \n    }\n    /// Crowdsurance parameters\n    /// @param joinAmount default join amount\n    /// @param coverageDuration default coverage duration\n    /// @param maxClaimAmount maximum claim amount\n    /// @param maxClaimNumber maximum number of claims\n    /// @param paymentRatio %% from claim to be paid\n    /// @param maxPaymentAmount maximum paid amount for all claims for the covarage\n    /// @param minJuriesNumber minimum number of juries to coint votes\n    /// @param votingDuration duration of jury voting process in sec\n    /// @param juriesNumber default juriesNumber - must correspond with Request members array lenght\n    struct Parameters {\n        uint256     joinAmount;         // default join amount\n        uint        coverageDuration;   // coverage duration\n        uint256     maxClaimAmount;     // max claim amount\n        uint8       maxClaimNumber;     // max claim number for the contract\n        uint8       paymentRatio;       // claim to payment patio\n        uint256     maxPaymentAmount;   // max payment amount for the contract\n        uint8       minJuriesNumber;    // min juries number to count voting \n        uint        votingDuration;     // juries voting duration\n        uint8       juriesNumber;       // number of juries\n        uint256     maxApplications;    // maximum number of unprocessed applications\n        uint256     averageScore;       // avarega score\n    }\n    /// New member application\n    /// @param timeStamp application time stamp\n    /// @param member new member address \n    /// @param tokensToBuys number of tokens to buy\n    /// @param paymetMethod join payment method : 0 - ETH\n    /// @param processed application processing status\n    struct Application {\n        uint        timeStamp;          // application time stamp\n        address     member;             // new member address\n        uint8       tokensToBuy;        // number of tokens to buy\n        uint8       paymetMethod;       // payment method : 0 - ETH\n        bool        processed;          // processing status\n    }\n    /// Crowdsurance parameters\n    Parameters public parameters;\n    mapping (address => uint256) public addressToAmount;            // address to join amount mapping\n    mapping (address => uint256) public addressToScore;             // address to scoring mapping\n    mapping (uint256 => Crowdsurance) public extensions;            // crowdsurance extension mapping\n    mapping (address => uint256) public voters;                     // crowdsurance voting\n    mapping (uint256 => Request) public requests;                   // crowdsurance token Id to Claim\n    mapping (address => uint256) public addressToApplication;       // address to application mapping\n    Application[] public applications;                              // applications\n    uint256 public appNumber;                                       // number of applications to process\n    /// TokenCrowdsurance Apply event\n    /// @param member new member address\n    /// @param appId member appication id\n    event Apply(address member, uint256 appId);\n    /// TokenCrowdsurance Join event\n    /// @param member new member addrsss\n    /// @param id NFT token id for crowdsurance token\n    /// @param amount paid to join\n    event Join(address member, uint256 id, uint256 amount);\n    /// TokenCrowdsurance Scoring event\n    /// @param member new member addrsss\n    /// @param score member scoring\n    /// @param amount join amount\n    event Scoring(address member, uint256 score, uint256 amount);\n    /// TokenCrowdsurance Activate event\n    /// @param id NFT Id to activate\n    /// @param amount acowdsurance join amount\n    /// @param score member scoring\n    event Activate(uint256 id, uint256 amount, uint256 score);\n    /// TokenCrowdsurance Activate event\n    /// @param id NFT Id to activate\n    /// @param claim claim amount\n    /// @param number total claims number incuding this one\n    event Claim(uint256 id, uint256 claim, uint8 number);\n    /// TokenCrowdsurance vote event\n    /// @param jury voter\n    /// @param id NFT token id to vote\n    /// @param positive voting result\n    event Vote(address jury, uint256 id, bool positive);\n    /// TokenCrowdsurance payment event\n    /// @param reciever reciever of the p[ayment\n    /// @param id NFT id for crowdsurance token\n    /// @param amount mayment amount\n    /// @param status payment status (Approved, Rejected, Closed)\n    event Payment(address reciever, uint256 id, uint256 amount, uint8 status);\n    /// FSSF event\n    /// @param member member address\n    /// @param appId application ID\n    event FSSF(address member, uint256 appId);\n    /// TokenCrowdsurance Status\n    enum Status {Init, Active, Claim, Approved, Rejected, Closed}\n    enum VotingState {Progress, Voted, Timeout}\n    /// scoring function\n    /// @param _member address of the member to score\n    /// @param _score member scoroing result\n    /// @param _amount join amount calculated based on score\n    function scoring(address _member, uint256 _score, uint256 _amount) ownerOnly public {\n        require(_member != address(0));\n        require(_score != uint256(0));\n        require(_amount != uint256(0) && _amount >= parameters.joinAmount);\n        addressToAmount[_member] = _amount;\n        addressToScore[_member] = _score;\n        \n        // clear appication\n        uint256 addId = addressToApplication[_member];\n        if(addId != uint256(0) && addId < applications.length) {\n            applications[addId].processed = true;\n            delete addressToApplication[_member];\n            appNumber--;\n            // if no more applications to process then clear the app array\n            if (appNumber == uint256(0)) {\n                delete applications;\n            }\n        }\n\n        // emit scoring event\n        Scoring(_member, _score, _amount);\n    }\n    function fssf() ownerOnly public {\n        address member;\n        uint256 appId;\n\n        (member, appId) = getApplication();\n\n        if(member != address(0) && appId != uint256(0)) {\n            scoring(member, parameters.averageScore, parameters.joinAmount);\n            // emit FSSF event\n            FSSF(member, appId);\n        }\n    }\n    /// get next application to process\n    function getApplication() view public returns (address member, uint256 appId) {\n        member = address(0);\n        appId = uint256(0);\n\n        if(appNumber == uint256(0)) {\n            return;\n        }\n\n        for(uint256 i = 1; i < applications.length; i++) {\n            if(!applications[i].processed) {\n                member = applications[i].member;\n                appId = i;\n                return;\n            }\n        }\n    }\n    /// get join amount for sender\n    function getJoinAmount() view public returns (uint256 amount) {\n        amount = addressToAmount[msg.sender];\n    }\n    /// get score\n    function getScore() view public returns (uint256 score) {\n        score = addressToScore[msg.sender];\n    }\n    /// get application ID\n    function getAppID() view public returns (uint256 appId) {\n        appId = addressToApplication[msg.sender];\n    }\n    /// apply function \n    /// @return application ID must be not zero if application is accepted \n    function apply() public returns(uint256 addId) {\n        addId = addressToApplication[msg.sender];\n\n        if (addId == uint256(0) && appNumber < parameters.maxApplications) {\n            // new application\n            Application memory app = Application({\n                timeStamp: now,\n                member: msg.sender,\n                tokensToBuy: uint8(1),\n                paymetMethod: uint8(0),\n                processed: false\n            });\n            \n            addId = applications.push(app) - 1;\n            if(addId == uint256(0)) {\n                // process the first one -- keep 0 index reserved\n                addId = applications.push(app) - 1;\n            }\n            require(addId == uint256(uint32(addId)));\n            addressToApplication[msg.sender] = addId;\n            appNumber++;\n\n            // emit Apply event\n            Apply(msg.sender, addId);\n        }\n    }\n    function _join(address _member, uint256 _score, uint256 _amount) internal returns(uint256) {\n        uint256 id = _createNFT(_amount, \"Crowdsurance\", uint256(0), _member);\n        // Create extension \n        extensions[id] = Crowdsurance ({\n            timeStamp: now,\n            activated: uint(0),\n            duration: parameters.coverageDuration,\n            amount: _amount,\n            paid: uint256(0),\n            score: _score,\n            claimNumber: uint8(0),\n            status: uint8(Status.Init)\n        });\n        // now insert in a subpool\n        _addTokenToSubPool(id);\n        // emit event \n        Join(_member, id, _amount);\n        // clear mapping\n        delete addressToAmount[_member];\n        delete addressToScore[_member];\n        \n        // return NFT token ID\n        return id;\n    } \n    /// join function\n    /// @return cowdsuranceId NFT token ID for created crowdsurance\n    function join() public payable returns(uint256 crowdsuranceId) {\n        uint256 amount = msg.value;\n        address member = msg.sender;\n        uint256 score = addressToScore[member];\n        require(amount != uint256(0) && amount >= parameters.joinAmount);\n        require(score != uint256(0));\n        require(amount == addressToAmount[member]);\n        // call internal _join after all checkups \n        crowdsuranceId = _join(member, score, amount);\n    }\n    /// activate function \n    /// @param _id NFT token ID to activate\n    function activate(uint256 _id) public {\n        require(_id != uint256(0));\n        require(_owns(msg.sender, _id));\n        require(extensions[_id].amount != uint256(0));\n        require(extensions[_id].status != uint8(Status.Active));        // protect multiple activation that extend coverage\n\n        nfts[_id].state = StateBlocked; // block transfer\n        extensions[_id].status = uint8(Status.Active);\n        extensions[_id].activated = now;\n        // emit event\n        Activate(_id, extensions[_id].amount, extensions[_id].score);\n    }\n    /// claim function\n    /// @param _id NFT token ID to claim payment \n    /// @param _claim claim amount\n    function claim(uint256 _id, uint256 _claim) public returns(bool) {\n        // check all conditions before accept the claim\n        require(_id != uint256(0));\n        require(_owns(msg.sender, _id));\n        require(_claim != uint256(0));\n        require(extensions[_id].status == uint(Status.Active));\n        require(extensions[_id].claimNumber < parameters.maxClaimNumber);\n        uint256 _payment = _claim * parameters.paymentRatio / 100;\n        require((extensions[_id].paid + _payment) <= parameters.maxPaymentAmount);\n        uint coverageEnd = extensions[_id].activated + extensions[_id].duration;\n        require(coverageEnd >= now);\n        // now ready to accept the claim request\n        // change status\n        requests[_id] = Request ({\n            amount: _claim,\n            timeStamp: now,\n            duration: parameters.votingDuration,\n            positive: uint8(0),\n            negative: uint8(0),\n            number: uint8(0),\n            members: [address(0), address(0), address(0), address(0), address(0)]\n        });\n        extensions[_id].claimNumber++;\n        extensions[_id].status = uint8(Status.Claim);\n        // emit event\n        Claim(_id, _claim, extensions[_id].claimNumber);\n        return true;\n    }\n    /// add voter function\n    /// @param _jury voter address\n    /// @param _id NFT id for claim voting \n    function addVoter(address _jury, uint256 _id) ownerOnly public {\n        require(_jury != address(0));\n        require(_id != uint256(0));\n        require(extensions[_id].status == uint(Status.Claim));\n        Request storage _request = requests[_id];\n        require(_request.amount != uint256(0));\n        uint votingEnd = _request.timeStamp + _request.duration;\n        require(votingEnd >= now);\n        uint8 _number = _request.number;\n        require(_number < parameters.juriesNumber);\n\n        _request.members[_number] = _jury;\n        _request.number++;\n        voters[_jury] = _id;\n    }\n    /// vote function\n    /// @param _id NFT id for claim voting\n    /// @param _positive true if positive to pay claims\n    function vote(uint256 _id, bool _positive) public {\n        require(_id != uint256(0));\n        require(_id == voters[msg.sender]);\n        require(extensions[_id].status == uint8(Status.Claim));\n        Request storage _request = requests[_id];\n        uint votingEnd = _request.timeStamp + _request.duration;\n        require(votingEnd >= now);\n\n        if(_positive) {\n            _request.positive++;\n        } else {\n            _request.negative++;\n        }\n        delete voters[msg.sender]; // deliting prevent the second time voting\n        // emit event\n        Vote(msg.sender, _id, _positive);\n    }\n    /// helpers voting \n    function castPositive(uint256 _id) public {\n        vote(_id, true);\n    }\n    function castNegative(uint256 _id) public {\n        vote(_id, false);\n    }\n    /// check claim voting status\n    /// @param _id NFT token to check\n    function votingStatus(uint256 _id) public view returns (VotingState state, uint8 positive, uint8 negative, uint256 payment, uint256 balance) {\n        require(_id != uint256(0));\n        require(_owns(msg.sender, _id));\n        require(extensions[_id].status == uint(Status.Claim));\n        \n        Request storage _request = requests[_id];\n\n        positive = _request.positive;\n        negative = _request.negative;\n        state = VotingState.Progress;\n        payment = _request.amount * parameters.paymentRatio / 100;\n        balance = this.balance;\n        bool timeout = ( _request.timeStamp + _request.duration ) < now;\n        bool voted = ( _request.positive + _request.negative ) == parameters.juriesNumber;\n\n        if(timeout) {\n            state = VotingState.Timeout;\n        }\n        else if (voted) {\n            state = VotingState.Voted;\n        }\n        \n    }\n    /// get payment function\n    /// @param _id NFT token to get payment\n    function payment(uint256 _id) public {\n        require(_id != uint256(0));\n        require(_owns(msg.sender, _id));\n        require(extensions[_id].status == uint(Status.Claim));\n        Request storage _request = requests[_id];\n        bool timeout = ( _request.timeStamp + _request.duration ) < now;\n        bool voted = ( _request.positive + _request.negative ) == parameters.juriesNumber;\n        require(timeout || voted);\n        uint256 _payment = _request.amount * parameters.paymentRatio / 100;\n        uint256[4] memory distribution;\n        if((_request.positive > _request.negative) && _checkPayment(_id, _payment)) {\n            // pay claims\n            msg.sender.transfer(_payment);\n            extensions[_id].status = uint8(Status.Approved);\n            extensions[_id].paid = extensions[_id].paid + _payment;\n            // update pools' balances\n            distribution = _payValue(_id, _payment);\n            // emit event\n            Payment(msg.sender, _id, _payment, uint8(Status.Approved));\n        } else if   (((_request.positive == _request.negative) || \n                    ((_request.positive + _request.negative) < parameters.minJuriesNumber))\n                    && _checkPayment(_id, extensions[_id].amount)) {\n            // pay back join amount\n            msg.sender.transfer(extensions[_id].amount);\n            extensions[_id].status = uint8(Status.Closed);\n            extensions[_id].paid = extensions[_id].paid + extensions[_id].amount;\n             // update pools' balances\n            distribution = _payValue(_id, extensions[_id].amount);\n            // emit event\n            Payment(msg.sender, _id, extensions[_id].amount, uint8(Status.Closed));\n        } else {\n            // no payment\n            extensions[_id].status = uint8(Status.Rejected);\n            // emit event\n            Payment(msg.sender, _id, uint256(0), uint8(Status.Rejected));\n        }\n        // now time to clean voting enviroment\n        for(uint i; i < _request.number; i++) {\n            delete voters[_request.members[i]];\n        }\n        delete requests[_id];\n        delete distribution;\n    }\n    /// status count function\n    /// @param _member address of token owner\n    /// @param _status status to check\n    function statusCount(address _member, uint8 _status) view public returns (uint256 count) {\n        uint256[] memory tokenIds = _tokensOfOwner(_member);\n        count = uint256(0);\n\n        for (uint256 i = 0; i < tokenIds.length; i++) {\n            if (extensions[tokenIds[i]].status == _status) {\n                count++;\n            }\n        }\n    }\n    function TokenCrowdsurance(string _name, string _symbol) TokenPool(_name, _symbol) public {\n        // setup default crowdsurance product parameters\n        parameters.joinAmount = 0.1 ether;                  // default join amount\n        parameters.coverageDuration = 0.5 years;            // coverage duration in sec\n        parameters.maxClaimAmount = 10 ether;               // max claim amount\n        parameters.maxClaimNumber = 1;                      // max claim number for the contract\n        parameters.paymentRatio = 80;                       // claim to payment patio\n        parameters.maxPaymentAmount = 10 ether;             // max payment amount for the contract\n        parameters.minJuriesNumber = 3;                     // min juries number to count voting \n        parameters.votingDuration = 2 days;                 // juries voting duration in sec\n        parameters.juriesNumber = 5;                        // juries number -- not more than 5\n        parameters.maxApplications = 10;                    // max number of unprocessed applications\n        parameters.averageScore = 100;                      // average score value\n        appNumber = 0;                                      // initial value for applications \n    }\n    function() public payable { }                           //  fallback function to get Ether on contract account\n}",
  "sourcePath": "/Users/sergei/LuggageCrowdsurance/contracts/TokenCrowdsurance.sol",
  "compiler": {
    "name": "solc",
    "version": "0.4.18+commit.9cf6e910.Emscripten.clang"
  },
  "schemaVersion": "1.0.1",
  "updatedAt": "2018-05-18T08:54:00.739Z"
}