{
  "contractName": "TokenPool",
  "abi": [
    {
      "constant": false,
      "inputs": [
        {
          "name": "_id",
          "type": "uint256"
        }
      ],
      "name": "insertPool",
      "outputs": [
        {
          "name": "",
          "type": "bool"
        }
      ],
      "payable": false,
      "stateMutability": "nonpayable",
      "type": "function"
    },
    {
      "constant": true,
      "inputs": [
        {
          "name": "_interfaceID",
          "type": "bytes4"
        }
      ],
      "name": "supportsInterface",
      "outputs": [
        {
          "name": "",
          "type": "bool"
        }
      ],
      "payable": false,
      "stateMutability": "view",
      "type": "function"
    },
    {
      "constant": true,
      "inputs": [],
      "name": "name",
      "outputs": [
        {
          "name": "",
          "type": "string"
        }
      ],
      "payable": false,
      "stateMutability": "view",
      "type": "function"
    },
    {
      "constant": false,
      "inputs": [
        {
          "name": "_to",
          "type": "address"
        },
        {
          "name": "_tokenId",
          "type": "uint256"
        }
      ],
      "name": "approve",
      "outputs": [],
      "payable": false,
      "stateMutability": "nonpayable",
      "type": "function"
    },
    {
      "constant": false,
      "inputs": [
        {
          "name": "_nodeId",
          "type": "uint256"
        },
        {
          "name": "_parentId",
          "type": "uint256"
        }
      ],
      "name": "addToken",
      "outputs": [],
      "payable": false,
      "stateMutability": "nonpayable",
      "type": "function"
    },
    {
      "constant": true,
      "inputs": [],
      "name": "totalSupply",
      "outputs": [
        {
          "name": "",
          "type": "uint256"
        }
      ],
      "payable": false,
      "stateMutability": "view",
      "type": "function"
    },
    {
      "constant": true,
      "inputs": [
        {
          "name": "_id",
          "type": "uint256"
        },
        {
          "name": "_value",
          "type": "uint256"
        }
      ],
      "name": "checkPaymentAmount",
      "outputs": [
        {
          "name": "level",
          "type": "uint8"
        },
        {
          "name": "amtSubPool",
          "type": "uint256"
        },
        {
          "name": "amtPool",
          "type": "uint256"
        },
        {
          "name": "amtSuperPool",
          "type": "uint256"
        },
        {
          "name": "balance",
          "type": "uint256"
        }
      ],
      "payable": false,
      "stateMutability": "view",
      "type": "function"
    },
    {
      "constant": true,
      "inputs": [],
      "name": "getDistribution",
      "outputs": [
        {
          "name": "distribution",
          "type": "uint256[4]"
        }
      ],
      "payable": false,
      "stateMutability": "view",
      "type": "function"
    },
    {
      "constant": true,
      "inputs": [
        {
          "name": "",
          "type": "uint256"
        }
      ],
      "name": "tokenIndexToOwner",
      "outputs": [
        {
          "name": "",
          "type": "address"
        }
      ],
      "payable": false,
      "stateMutability": "view",
      "type": "function"
    },
    {
      "constant": false,
      "inputs": [
        {
          "name": "_from",
          "type": "address"
        },
        {
          "name": "_to",
          "type": "address"
        },
        {
          "name": "_tokenId",
          "type": "uint256"
        }
      ],
      "name": "transferFrom",
      "outputs": [],
      "payable": false,
      "stateMutability": "nonpayable",
      "type": "function"
    },
    {
      "constant": false,
      "inputs": [
        {
          "name": "_to",
          "type": "address"
        },
        {
          "name": "_toId",
          "type": "uint256"
        },
        {
          "name": "_level",
          "type": "uint256"
        }
      ],
      "name": "setLevel",
      "outputs": [],
      "payable": false,
      "stateMutability": "nonpayable",
      "type": "function"
    },
    {
      "constant": false,
      "inputs": [
        {
          "name": "_spender",
          "type": "address"
        },
        {
          "name": "_value",
          "type": "uint256"
        }
      ],
      "name": "cApprove",
      "outputs": [
        {
          "name": "success",
          "type": "bool"
        }
      ],
      "payable": false,
      "stateMutability": "nonpayable",
      "type": "function"
    },
    {
      "constant": false,
      "inputs": [
        {
          "name": "_nodeId",
          "type": "uint256"
        }
      ],
      "name": "removeToken",
      "outputs": [],
      "payable": false,
      "stateMutability": "nonpayable",
      "type": "function"
    },
    {
      "constant": false,
      "inputs": [
        {
          "name": "_to",
          "type": "address"
        },
        {
          "name": "_toId",
          "type": "uint256"
        }
      ],
      "name": "increaseLevel",
      "outputs": [],
      "payable": false,
      "stateMutability": "nonpayable",
      "type": "function"
    },
    {
      "constant": false,
      "inputs": [
        {
          "name": "_from",
          "type": "address"
        },
        {
          "name": "_fromId",
          "type": "uint256"
        },
        {
          "name": "_amount",
          "type": "uint256"
        }
      ],
      "name": "cDestroy",
      "outputs": [],
      "payable": false,
      "stateMutability": "nonpayable",
      "type": "function"
    },
    {
      "constant": false,
      "inputs": [
        {
          "name": "_to",
          "type": "address"
        },
        {
          "name": "_toId",
          "type": "uint256"
        },
        {
          "name": "_amount",
          "type": "uint256"
        }
      ],
      "name": "cIssue",
      "outputs": [],
      "payable": false,
      "stateMutability": "nonpayable",
      "type": "function"
    },
    {
      "constant": true,
      "inputs": [
        {
          "name": "_tokenId",
          "type": "uint256"
        }
      ],
      "name": "ownerOf",
      "outputs": [
        {
          "name": "",
          "type": "address"
        }
      ],
      "payable": false,
      "stateMutability": "view",
      "type": "function"
    },
    {
      "constant": false,
      "inputs": [
        {
          "name": "_to",
          "type": "address"
        },
        {
          "name": "_value",
          "type": "uint256"
        }
      ],
      "name": "cTransfer",
      "outputs": [
        {
          "name": "success",
          "type": "bool"
        }
      ],
      "payable": false,
      "stateMutability": "nonpayable",
      "type": "function"
    },
    {
      "constant": true,
      "inputs": [
        {
          "name": "_tokenId",
          "type": "uint256"
        }
      ],
      "name": "tokenMetadata",
      "outputs": [
        {
          "name": "infoUrl",
          "type": "string"
        }
      ],
      "payable": false,
      "stateMutability": "view",
      "type": "function"
    },
    {
      "constant": true,
      "inputs": [
        {
          "name": "_owner",
          "type": "address"
        }
      ],
      "name": "balanceOf",
      "outputs": [
        {
          "name": "count",
          "type": "uint256"
        }
      ],
      "payable": false,
      "stateMutability": "view",
      "type": "function"
    },
    {
      "constant": false,
      "inputs": [],
      "name": "acceptOwnership",
      "outputs": [],
      "payable": false,
      "stateMutability": "nonpayable",
      "type": "function"
    },
    {
      "constant": true,
      "inputs": [
        {
          "name": "_owner",
          "type": "address"
        }
      ],
      "name": "tokensOfOwner",
      "outputs": [
        {
          "name": "ownerTokens",
          "type": "uint256[]"
        }
      ],
      "payable": false,
      "stateMutability": "view",
      "type": "function"
    },
    {
      "constant": true,
      "inputs": [],
      "name": "owner",
      "outputs": [
        {
          "name": "",
          "type": "address"
        }
      ],
      "payable": false,
      "stateMutability": "view",
      "type": "function"
    },
    {
      "constant": true,
      "inputs": [],
      "name": "cTotalSupply",
      "outputs": [
        {
          "name": "",
          "type": "uint256"
        }
      ],
      "payable": false,
      "stateMutability": "view",
      "type": "function"
    },
    {
      "constant": true,
      "inputs": [],
      "name": "symbol",
      "outputs": [
        {
          "name": "",
          "type": "string"
        }
      ],
      "payable": false,
      "stateMutability": "view",
      "type": "function"
    },
    {
      "constant": false,
      "inputs": [
        {
          "name": "_fromId",
          "type": "uint256"
        },
        {
          "name": "_spender",
          "type": "address"
        },
        {
          "name": "_toId",
          "type": "uint256"
        },
        {
          "name": "_value",
          "type": "uint256"
        }
      ],
      "name": "cApproveFrom",
      "outputs": [
        {
          "name": "success",
          "type": "bool"
        }
      ],
      "payable": false,
      "stateMutability": "nonpayable",
      "type": "function"
    },
    {
      "constant": true,
      "inputs": [
        {
          "name": "",
          "type": "uint256"
        }
      ],
      "name": "tokenIndexToPoolToken",
      "outputs": [
        {
          "name": "",
          "type": "uint256"
        }
      ],
      "payable": false,
      "stateMutability": "view",
      "type": "function"
    },
    {
      "constant": true,
      "inputs": [
        {
          "name": "",
          "type": "uint256"
        }
      ],
      "name": "tokenIndexToApproved",
      "outputs": [
        {
          "name": "",
          "type": "address"
        }
      ],
      "payable": false,
      "stateMutability": "view",
      "type": "function"
    },
    {
      "constant": false,
      "inputs": [
        {
          "name": "_to",
          "type": "address"
        },
        {
          "name": "_tokenId",
          "type": "uint256"
        }
      ],
      "name": "transfer",
      "outputs": [],
      "payable": false,
      "stateMutability": "nonpayable",
      "type": "function"
    },
    {
      "constant": true,
      "inputs": [
        {
          "name": "_to",
          "type": "address"
        },
        {
          "name": "_toId",
          "type": "uint256"
        }
      ],
      "name": "getLevel",
      "outputs": [
        {
          "name": "",
          "type": "uint256"
        }
      ],
      "payable": false,
      "stateMutability": "view",
      "type": "function"
    },
    {
      "constant": true,
      "inputs": [
        {
          "name": "_owner",
          "type": "address"
        }
      ],
      "name": "cBalanceOf",
      "outputs": [
        {
          "name": "",
          "type": "uint256"
        }
      ],
      "payable": false,
      "stateMutability": "view",
      "type": "function"
    },
    {
      "constant": false,
      "inputs": [
        {
          "name": "_from",
          "type": "address"
        },
        {
          "name": "_to",
          "type": "address"
        },
        {
          "name": "_value",
          "type": "uint256"
        }
      ],
      "name": "cTransferFrom",
      "outputs": [
        {
          "name": "success",
          "type": "bool"
        }
      ],
      "payable": false,
      "stateMutability": "nonpayable",
      "type": "function"
    },
    {
      "constant": true,
      "inputs": [
        {
          "name": "_tokenId",
          "type": "uint256"
        }
      ],
      "name": "valueOf",
      "outputs": [
        {
          "name": "value",
          "type": "uint256"
        }
      ],
      "payable": false,
      "stateMutability": "view",
      "type": "function"
    },
    {
      "constant": true,
      "inputs": [
        {
          "name": "",
          "type": "address"
        },
        {
          "name": "",
          "type": "address"
        }
      ],
      "name": "allowanceAmt",
      "outputs": [
        {
          "name": "",
          "type": "uint256"
        }
      ],
      "payable": false,
      "stateMutability": "view",
      "type": "function"
    },
    {
      "constant": true,
      "inputs": [],
      "name": "maxLevel",
      "outputs": [
        {
          "name": "",
          "type": "uint256"
        }
      ],
      "payable": false,
      "stateMutability": "view",
      "type": "function"
    },
    {
      "constant": true,
      "inputs": [],
      "name": "newOwner",
      "outputs": [
        {
          "name": "",
          "type": "address"
        }
      ],
      "payable": false,
      "stateMutability": "view",
      "type": "function"
    },
    {
      "constant": true,
      "inputs": [
        {
          "name": "",
          "type": "address"
        },
        {
          "name": "",
          "type": "address"
        }
      ],
      "name": "allowance",
      "outputs": [
        {
          "name": "",
          "type": "uint256"
        }
      ],
      "payable": false,
      "stateMutability": "view",
      "type": "function"
    },
    {
      "constant": true,
      "inputs": [],
      "name": "getComission",
      "outputs": [
        {
          "name": "commission",
          "type": "uint256"
        }
      ],
      "payable": false,
      "stateMutability": "view",
      "type": "function"
    },
    {
      "constant": true,
      "inputs": [
        {
          "name": "_nodeId",
          "type": "uint256"
        }
      ],
      "name": "getPath",
      "outputs": [
        {
          "name": "path",
          "type": "uint256[]"
        }
      ],
      "payable": false,
      "stateMutability": "view",
      "type": "function"
    },
    {
      "constant": true,
      "inputs": [
        {
          "name": "",
          "type": "address"
        },
        {
          "name": "",
          "type": "address"
        }
      ],
      "name": "allowanceIds",
      "outputs": [
        {
          "name": "",
          "type": "uint256"
        }
      ],
      "payable": false,
      "stateMutability": "view",
      "type": "function"
    },
    {
      "constant": false,
      "inputs": [
        {
          "name": "_newOwner",
          "type": "address"
        }
      ],
      "name": "transferOwnership",
      "outputs": [],
      "payable": false,
      "stateMutability": "nonpayable",
      "type": "function"
    },
    {
      "constant": true,
      "inputs": [
        {
          "name": "_owner",
          "type": "address"
        },
        {
          "name": "_spender",
          "type": "address"
        }
      ],
      "name": "cAllowance",
      "outputs": [
        {
          "name": "",
          "type": "uint256"
        }
      ],
      "payable": false,
      "stateMutability": "view",
      "type": "function"
    },
    {
      "inputs": [
        {
          "name": "_name",
          "type": "string"
        },
        {
          "name": "_symbol",
          "type": "string"
        }
      ],
      "payable": false,
      "stateMutability": "nonpayable",
      "type": "constructor"
    },
    {
      "anonymous": false,
      "inputs": [
        {
          "indexed": false,
          "name": "id",
          "type": "uint256"
        },
        {
          "indexed": false,
          "name": "poolId",
          "type": "uint256"
        },
        {
          "indexed": false,
          "name": "level",
          "type": "uint8"
        }
      ],
      "name": "InsertPool",
      "type": "event"
    },
    {
      "anonymous": false,
      "inputs": [
        {
          "indexed": false,
          "name": "id",
          "type": "uint256"
        },
        {
          "indexed": false,
          "name": "superPoolValue",
          "type": "uint256"
        },
        {
          "indexed": false,
          "name": "poolValue",
          "type": "uint256"
        },
        {
          "indexed": false,
          "name": "subPoolValue",
          "type": "uint256"
        },
        {
          "indexed": false,
          "name": "comission",
          "type": "uint256"
        }
      ],
      "name": "DistributeValue",
      "type": "event"
    },
    {
      "anonymous": false,
      "inputs": [
        {
          "indexed": false,
          "name": "id",
          "type": "uint256"
        },
        {
          "indexed": false,
          "name": "value",
          "type": "uint256"
        }
      ],
      "name": "SecondTierCall",
      "type": "event"
    },
    {
      "anonymous": false,
      "inputs": [
        {
          "indexed": false,
          "name": "id",
          "type": "uint256"
        },
        {
          "indexed": false,
          "name": "poolId",
          "type": "uint256"
        },
        {
          "indexed": false,
          "name": "value",
          "type": "uint256"
        },
        {
          "indexed": false,
          "name": "level",
          "type": "uint8"
        }
      ],
      "name": "ShortOfFunds",
      "type": "event"
    },
    {
      "anonymous": false,
      "inputs": [
        {
          "indexed": false,
          "name": "id",
          "type": "uint256"
        },
        {
          "indexed": false,
          "name": "value",
          "type": "uint256"
        },
        {
          "indexed": false,
          "name": "level",
          "type": "uint8"
        }
      ],
      "name": "PaymentValue",
      "type": "event"
    },
    {
      "anonymous": false,
      "inputs": [
        {
          "indexed": false,
          "name": "nodeId",
          "type": "uint256"
        },
        {
          "indexed": false,
          "name": "parentId",
          "type": "uint256"
        },
        {
          "indexed": false,
          "name": "level",
          "type": "uint256"
        }
      ],
      "name": "AddToken",
      "type": "event"
    },
    {
      "anonymous": false,
      "inputs": [
        {
          "indexed": false,
          "name": "nodeId",
          "type": "uint256"
        },
        {
          "indexed": false,
          "name": "level",
          "type": "uint256"
        }
      ],
      "name": "RemoveToken",
      "type": "event"
    },
    {
      "anonymous": false,
      "inputs": [
        {
          "indexed": false,
          "name": "from",
          "type": "address"
        },
        {
          "indexed": false,
          "name": "fromId",
          "type": "uint256"
        },
        {
          "indexed": false,
          "name": "to",
          "type": "address"
        },
        {
          "indexed": false,
          "name": "toId",
          "type": "uint256"
        },
        {
          "indexed": false,
          "name": "value",
          "type": "uint256"
        }
      ],
      "name": "Transfer",
      "type": "event"
    },
    {
      "anonymous": false,
      "inputs": [
        {
          "indexed": false,
          "name": "to",
          "type": "address"
        },
        {
          "indexed": false,
          "name": "toId",
          "type": "uint256"
        },
        {
          "indexed": false,
          "name": "value",
          "type": "uint256"
        }
      ],
      "name": "AddValue",
      "type": "event"
    },
    {
      "anonymous": false,
      "inputs": [
        {
          "indexed": false,
          "name": "from",
          "type": "address"
        },
        {
          "indexed": false,
          "name": "fromId",
          "type": "uint256"
        },
        {
          "indexed": false,
          "name": "value",
          "type": "uint256"
        }
      ],
      "name": "RemoveValue",
      "type": "event"
    },
    {
      "anonymous": false,
      "inputs": [
        {
          "indexed": false,
          "name": "to",
          "type": "address"
        },
        {
          "indexed": false,
          "name": "toId",
          "type": "uint256"
        },
        {
          "indexed": false,
          "name": "level",
          "type": "uint256"
        }
      ],
      "name": "SetLevel",
      "type": "event"
    },
    {
      "anonymous": false,
      "inputs": [
        {
          "indexed": false,
          "name": "to",
          "type": "address"
        },
        {
          "indexed": false,
          "name": "toId",
          "type": "uint256"
        }
      ],
      "name": "IncreaseLevel",
      "type": "event"
    },
    {
      "anonymous": false,
      "inputs": [
        {
          "indexed": true,
          "name": "_prevOwner",
          "type": "address"
        },
        {
          "indexed": true,
          "name": "_newOwner",
          "type": "address"
        }
      ],
      "name": "OwnerUpdate",
      "type": "event"
    },
    {
      "anonymous": false,
      "inputs": [
        {
          "indexed": false,
          "name": "fromId",
          "type": "uint256"
        },
        {
          "indexed": false,
          "name": "spender",
          "type": "address"
        },
        {
          "indexed": false,
          "name": "toId",
          "type": "uint256"
        },
        {
          "indexed": false,
          "name": "value",
          "type": "uint256"
        }
      ],
      "name": "CApproveFrom",
      "type": "event"
    },
    {
      "anonymous": false,
      "inputs": [
        {
          "indexed": false,
          "name": "spender",
          "type": "address"
        },
        {
          "indexed": false,
          "name": "value",
          "type": "uint256"
        }
      ],
      "name": "CApprove",
      "type": "event"
    },
    {
      "anonymous": false,
      "inputs": [
        {
          "indexed": false,
          "name": "from",
          "type": "address"
        },
        {
          "indexed": false,
          "name": "fromId",
          "type": "uint256"
        },
        {
          "indexed": false,
          "name": "to",
          "type": "address"
        },
        {
          "indexed": false,
          "name": "toId",
          "type": "uint256"
        },
        {
          "indexed": false,
          "name": "value",
          "type": "uint256"
        },
        {
          "indexed": false,
          "name": "allowance",
          "type": "uint256"
        }
      ],
      "name": "CTransferFrom",
      "type": "event"
    },
    {
      "anonymous": false,
      "inputs": [
        {
          "indexed": false,
          "name": "to",
          "type": "address"
        },
        {
          "indexed": false,
          "name": "toId",
          "type": "uint256"
        },
        {
          "indexed": false,
          "name": "amount",
          "type": "uint256"
        }
      ],
      "name": "CIssue",
      "type": "event"
    },
    {
      "anonymous": false,
      "inputs": [
        {
          "indexed": false,
          "name": "from",
          "type": "address"
        },
        {
          "indexed": false,
          "name": "fromId",
          "type": "uint256"
        },
        {
          "indexed": false,
          "name": "amount",
          "type": "uint256"
        }
      ],
      "name": "CDestroy",
      "type": "event"
    },
    {
      "anonymous": false,
      "inputs": [
        {
          "indexed": false,
          "name": "from",
          "type": "address"
        },
        {
          "indexed": false,
          "name": "to",
          "type": "address"
        },
        {
          "indexed": false,
          "name": "tokenId",
          "type": "uint256"
        }
      ],
      "name": "Transfer",
      "type": "event"
    },
    {
      "anonymous": false,
      "inputs": [
        {
          "indexed": false,
          "name": "owner",
          "type": "address"
        },
        {
          "indexed": false,
          "name": "approved",
          "type": "address"
        },
        {
          "indexed": false,
          "name": "tokenId",
          "type": "uint256"
        }
      ],
      "name": "Approval",
      "type": "event"
    },
    {
      "anonymous": false,
      "inputs": [
        {
          "indexed": false,
          "name": "value",
          "type": "uint256"
        },
        {
          "indexed": false,
          "name": "metadata",
          "type": "string"
        },
        {
          "indexed": false,
          "name": "kind",
          "type": "uint256"
        },
        {
          "indexed": false,
          "name": "owner",
          "type": "address"
        }
      ],
      "name": "Birth",
      "type": "event"
    }
  ],
  "bytecode": "0x606060405234156200001057600080fd5b60405162003add38038062003add833981016040528080518201919060200180519091019050600080806200004462000892565b6200004e62000892565b6200005862000892565b60028054600160a060020a03191633600160a060020a031617905587878181818160008280516200008e929160200190620008cc565b506001818051620000a4929160200190620008cc565b5050600a8054600160a060020a03191633600160a060020a031617905550506004600c5550620001319150678ac7230489e80000905060408051908101604052600981527f5375706572506f6f6c00000000000000000000000000000000000000000000006020820152600a54600190600160a060020a031664010000000062002c0b6200044582021704565b955062000190600060408051908101604052600481527f506f6f6c000000000000000000000000000000000000000000000000000000006020820152600a54600190600160a060020a031664010000000062002c0b6200044582021704565b9450620001ef600060408051908101604052600781527f537562506f6f6c000000000000000000000000000000000000000000000000006020820152600a54600290600160a060020a031664010000000062002c0b6200044582021704565b93506200020b858764010000000062000c8a6200065682021704565b62000225848664010000000062000c8a6200065682021704565b60c060405190810160405280600060ff16815260200160018152602001600a815260200160018152602001878152602001600a8152509250600e805480600101828162000273919062000951565b600092835260209092208591600602018151815460ff191660ff919091161781556020820151816001015560408201518160020155606082015181600301556080820151816004015560a0820151816005015550505060c060405190810160405280600160ff168152602001600a8152602001606481526020016001815260200186815260200160148152509150600e805480600101828162000317919062000951565b600092835260209092208491600602018151815460ff191660ff919091161781556020820151816001015560408201518160020155606082015181600301556080820151816004015560a0820151816005015550505060c060405190810160405280600260ff1681526020016103e88152602001606481526020016001815260200185815260200160328152509050600e8054806001018281620003bc919062000951565b600092835260209092208391600602018151815460ff191660ff919091161781556020820151816001015560408201518160020155606082015181600301556080820151816004015560a082015181600501555050506000600360008154811015156200042557fe5b60009182526020909120600590910201555062000af09650505050505050565b60006200045162000985565b600060a0604051908101604052808881526020018781526020018681526020016000815260200160008152509150600160038054806001018281620004979190620009bd565b6000928352602090922085916005020181518155602082015181600101908051620004c7929160200190620008cc565b50604082015181600201556060820151816003015560808201516004909101555003905080151562000560576001600380548060010182816200050b9190620009bd565b60009283526020909220859160050201815181556020820151816001019080516200053b929160200190620008cc565b5060408201518160020155606082015181600301556080820151816004015550500390505b63ffffffff811681146200057357600080fd5b7fdea8e87d69047e1b3cd43ad599d34e3eacfe4408b4dfc5d0f6ac6a15a468de5c8787878760405184815260408101839052600160a060020a038216606082015260806020820181815290820185818151815260200191508051906020019080838360005b83811015620005f2578082015183820152602001620005d8565b50505050905090810190601f168015620006205780820380516001836020036101000a031916815260200191505b509550505050505060405180910390a16200064c60008583640100000000620025b16200078b82021704565b9695505050505050565b811580159062000667575060035482105b15156200067357600080fd5b801580159062000684575060035481105b15156200069057600080fd5b6001600c5403600382815481101515620006a657fe5b906000526020600020906005020160030154101515620006c557600080fd5b6000828152600d602052604090208190556003805482908110620006e557fe5b9060005260206000209060050201600301546001016003838154811015156200070a57fe5b9060005260206000209060050201600301819055507f0900f87897aa374bb21fa36753905fa2944dd2301242246101a9047a0ed227a082826003858154811015156200075257fe5b90600052602060002090600502016003015460405180848152602001838152602001828152602001935050505060405180910390a15050565b6104006003828154811015156200079e57fe5b90600052602060002090600502016004015414151515620007bb57fe5b600160a060020a03808316600081815260056020908152604080832080546001019055858352600490915290208054600160a060020a03191690911790558316156200083d57600160a060020a03831660009081526005602090815260408083208054600019019055838352600690915290208054600160a060020a03191690555b7fddf252ad1be2c89b69c2b068fc378daa952ba7f163c4a11628f55a4df523b3ef838383604051600160a060020a039384168152919092166020820152604080820192909252606001905180910390a1505050565b60c060405190810160405280600060ff16815260200160008152602001600081526020016000815260200160008152602001600081525090565b828054600181600116156101000203166002900490600052602060002090601f016020900481019282601f106200090f57805160ff19168380011785556200093f565b828001600101855582156200093f579182015b828111156200093f57825182559160200191906001019062000922565b506200094d929150620009ec565b5090565b815481835581811511620009805760060281600602836000526020600020918201910162000980919062000a0c565b505050565b60a06040519081016040528060008152602001620009a262000a50565b81526020016000815260200160008152602001600081525090565b815481835581811511620009805760050281600502836000526020600020918201910162000980919062000a62565b62000a0991905b808211156200094d5760008155600101620009f3565b90565b62000a0991905b808211156200094d57805460ff19168155600060018201819055600282018190556003820181905560048201819055600582015560060162000a13565b60206040519081016040526000815290565b62000a0991905b808211156200094d57600080825562000a86600183018262000aa5565b5060006002820181905560038201819055600482015560050162000a69565b50805460018160011615610100020316600290046000825580601f1062000acd575062000aed565b601f01602090049060005260206000209081019062000aed9190620009ec565b50565b612fdd8062000b006000396000f3006060604052600436106102025763ffffffff7c0100000000000000000000000000000000000000000000000000000000600035041662607b7f811461020757806301ffc9a71461023157806306fdde0314610269578063095ea7b3146102f357806317b9ebec1461031757806318160ddd146103305780631c41931c146103555780631cced51b146103a35780631d36e06c146103ee57806323b872dd14610420578063296250051461044857806332c4ee831461046d57806336c5d7241461048f57806339e6cdb1146104a55780634cabcfac146104c7578063545c3d55146104ec5780636352211e1461051157806366d80ba5146105275780636914db601461054957806370a082311461055f57806379ba50971461057e5780638462151c146105915780638da5cb5b146106035780638f1fc77c1461061657806395d89b411461062957806398dc5c951461063c5780639ca0883114610664578063a8bd9c321461067a578063a9059cbb14610690578063b121f2ac146106b2578063b1357079146106d4578063bf622665146106f3578063cadf338f1461071b578063cbbc9f8914610731578063cc06c35914610756578063d4ee1d9014610769578063dd62ed3e1461077c578063dd6d3ca7146107a1578063e1765073146107b4578063e527cc9d146107ca578063f2fde38b146107ef578063f81fd7ea1461080e575b600080fd5b341561021257600080fd5b61021d600435610833565b604051901515815260200160405180910390f35b341561023c57600080fd5b61021d7fffffffff0000000000000000000000000000000000000000000000000000000060043516610895565b341561027457600080fd5b61027c610b6e565b60405160208082528190810183818151815260200191508051906020019080838360005b838110156102b85780820151838201526020016102a0565b50505050905090810190601f1680156102e55780820380516001836020036101000a031916815260200191505b509250505060405180910390f35b34156102fe57600080fd5b610315600160a060020a0360043516602435610c17565b005b341561032257600080fd5b610315600435602435610c8a565b341561033b57600080fd5b610343610db6565b60405190815260200160405180910390f35b341561036057600080fd5b61036e600435602435610dd1565b60405160ff909516855260208501939093526040808501929092526060840152608083019190915260a0909101905180910390f35b34156103ae57600080fd5b6103b661108f565b6040518082608080838360005b838110156103db5780820151838201526020016103c3565b5050505090500191505060405180910390f35b34156103f957600080fd5b610404600435611172565b604051600160a060020a03909116815260200160405180910390f35b341561042b57600080fd5b610315600160a060020a036004358116906024351660443561118d565b341561045357600080fd5b610315600160a060020a03600435166024356044356111fd565b341561047857600080fd5b61021d600160a060020a03600435166024356112ad565b341561049a57600080fd5b6103156004356113ab565b34156104b057600080fd5b610315600160a060020a036004351660243561144c565b34156104d257600080fd5b610315600160a060020a0360043516602435604435611508565b34156104f757600080fd5b610315600160a060020a03600435166024356044356115b6565b341561051c57600080fd5b610404600435611664565b341561053257600080fd5b61021d600160a060020a0360043516602435611688565b341561055457600080fd5b61027c6004356116c1565b341561056a57600080fd5b610343600160a060020a0360043516611788565b341561058957600080fd5b6103156117a3565b341561059c57600080fd5b6105b0600160a060020a0360043516611831565b60405160208082528190810183818151815260200191508051906020019060200280838360005b838110156105ef5780820151838201526020016105d7565b505050509050019250505060405180910390f35b341561060e57600080fd5b610404611842565b341561062157600080fd5b610343611851565b341561063457600080fd5b61027c611898565b341561064757600080fd5b61021d600435600160a060020a036024351660443560643561190b565b341561066f57600080fd5b610343600435611a06565b341561068557600080fd5b610404600435611a18565b341561069b57600080fd5b610315600160a060020a0360043516602435611a33565b34156106bd57600080fd5b610343600160a060020a0360043516602435611a8d565b34156106df57600080fd5b610343600160a060020a0360043516611acc565b34156106fe57600080fd5b61021d600160a060020a0360043581169060243516604435611b45565b341561072657600080fd5b610343600435611d1c565b341561073c57600080fd5b610343600160a060020a0360043581169060243516611d46565b341561076157600080fd5b610343611d63565b341561077457600080fd5b610404611d69565b341561078757600080fd5b610343600160a060020a0360043581169060243516611d78565b34156107ac57600080fd5b610343611d95565b34156107bf57600080fd5b6105b0600435611dbe565b34156107d557600080fd5b610343600160a060020a0360043581169060243516611e1b565b34156107fa57600080fd5b610315600160a060020a0360043516611e38565b341561081957600080fd5b610343600160a060020a0360043581169060243516611e9a565b600a5460009033600160a060020a0390811691161461084e57fe5b811580159061085e575060035482105b151561086957600080fd5b610874826002611ef2565b151561087c57fe5b610885826121a3565b151561088d57fe5b506001919050565b60006040517f737570706f727473496e74657266616365286279746573342900000000000000815260190160405180910390207bffffffffffffffffffffffffffffffffffffffffffffffffffffffff1916827bffffffffffffffffffffffffffffffffffffffffffffffffffffffff19161480610b6857506040517f746f6b656e4d657461646174612875696e743235362c737472696e67290000008152601d0160405180910390206040517f746f6b656e734f664f776e657228616464726573732900000000000000000000815260160160405180910390206040517f7472616e7366657246726f6d28616464726573732c616464726573732c75696e81527f7432353629000000000000000000000000000000000000000000000000000000602082015260250160405180910390206040517f7472616e7366657228616464726573732c75696e743235362900000000000000815260190160405180910390206040517f617070726f766528616464726573732c75696e74323536290000000000000000815260180160405180910390206040517f6f776e65724f662875696e743235362900000000000000000000000000000000815260100160405180910390206040517f62616c616e63654f662861646472657373290000000000000000000000000000815260120160405180910390206040517f746f74616c537570706c792829000000000000000000000000000000000000008152600d0160405180910390206040517f73796d626f6c2829000000000000000000000000000000000000000000000000815260080160405180910390206040517f6e616d6528290000000000000000000000000000000000000000000000000000815260060160405180910390201818181818181818187bffffffffffffffffffffffffffffffffffffffffffffffffffffffff1916827bffffffffffffffffffffffffffffffffffffffffffffffffffffffff1916145b92915050565b610b76612dfd565b60008054600181600116156101000203166002900480601f016020809104026020016040519081016040528092919081815260200182805460018160011615610100020316600290048015610c0c5780601f10610be157610100808354040283529160200191610c0c565b820191906000526020600020905b815481529060010190602001808311610bef57829003601f168201915b505050505090505b90565b610c213382612536565b1515610c2c57600080fd5b610c368183612556565b7f8c5be1e5ebec7d5bd14f71427d1e84f3dd0314c0f7b2291e5b200ac8c7c3b925338383604051600160a060020a039384168152919092166020820152604080820192909252606001905180910390a15050565b8115801590610c9a575060035482105b1515610ca557600080fd5b8015801590610cb5575060035481105b1515610cc057600080fd5b6001600c5403600382815481101515610cd557fe5b906000526020600020906005020160030154101515610cf357600080fd5b6000828152600d602052604090208190556003805482908110610d1257fe5b906000526020600020906005020160030154600101600383815481101515610d3657fe5b9060005260206000209060050201600301819055507f0900f87897aa374bb21fa36753905fa2944dd2301242246101a9047a0ed227a08282600385815481101515610d7d57fe5b90600052602060002090600502016003015460405180848152602001838152602001828152602001935050505060405180910390a15050565b60035460009081811115610dc957600019015b8091505b5090565b6000806000806000610de1612e0f565b60008082526020820181905260408201819052606082018190526004965080808a15801590610e1157506003548b105b1515610e1c57600080fd5b891515610e2857600080fd5b610e32338c612536565b1515610e3d57600080fd5b60008b8152600d60205260409020549250821515610e5a57600080fd5b6000838152600d60205260409020549150811515610e7757600080fd5b506000818152600d6020526040902054801515610e9357600080fd5b60039850600383815481101515610ea657fe5b60009182526020909120600590910201548a11610ecf576002985089848a5b6020020152611062565b6003805484908110610edd57fe5b906000526020600020906005020160000154600383815481101515610efe57fe5b6000918252602090912060059091020154018a11610f67576003805460019a5084908110610f2857fe5b600091825260209091206005909102015460408501526003805484908110610f4c57fe5b60009182526020909120600590910201548a03846001610ec5565b6003805484908110610f7557fe5b906000526020600020906005020160000154600383815481101515610f9657fe5b906000526020600020906005020160000154600383815481101515610fb757fe5b600091825260209091206005909102015401018a11611062576003805460009a5084908110610fe257fe5b60009182526020909120600590910201546040850152600380548390811061100657fe5b60009182526020918290206005909102015490850152600380548390811061102a57fe5b90600052602060002090600502016000015460038481548110151561104b57fe5b60009182526020909120600590910201548b030384525b60408401519750602084015196508351955030600160a060020a0316319450505050509295509295909350565b611097612e0f565b600080825260208201819052604082018190526060820181905260015b60035481101561116d5760038054829081106110cc57fe5b9060005260206000209060050201600301549150600c548260ff16101561113a5760038054829081106110fb57fe5b60009182526020909120600590910201548360ff84166004811061111b57fe5b6020020151018360ff84166004811061113057fe5b6020020152611165565b600380548290811061114857fe5b600091825260209091206005909102015460608401510160608401525b6001016110b4565b505090565b600460205260009081526040902054600160a060020a031681565b600160a060020a03821615156111a257600080fd5b30600160a060020a031682600160a060020a0316141515156111c357600080fd5b6111cd3382612591565b15156111d857600080fd5b6111e28382612536565b15156111ed57600080fd5b6111f88383836125b1565b505050565b600a5433600160a060020a0390811691161461121557fe5b61121f8383612536565b151561122a57600080fd5b8060038381548110151561123a57fe5b9060005260206000209060050201600301819055507f48ed1b5769aee6cf16cda3da1db2a0acf83c194c9d2a98ebeff4904567af58f68383836040518084600160a060020a0316600160a060020a03168152602001838152602001828152602001935050505060405180910390a1505050565b6000808080600160a060020a03861615156112c757600080fd5b8415156112d357600080fd5b3392506112df836126cf565b91506112ea866126cf565b9050818114156112f957600080fd5b81151561130557600080fd5b80151561131157600080fd5b600160a060020a038381166000818152600860209081526040808320948b168084529482528083208690559282528282208690556009815282822093825292909252908190208690557fe051949e9a44e2e9c21ee7d1c7b03ef0bf501aa3b7c4616a8543f229c0bede7a908790879051600160a060020a03909216825260208201526040908101905180910390a150600195945050505050565b600081158015906113bd575060035482105b15156113c857600080fd5b6113d182612719565b905080156113de57600080fd5b6000828152600d6020526040812055600380547f399c331be71add502e95a2402ba7370605a945c1c6c1dc01c5e30f7e896cfa569184918290811061141f57fe5b90600052602060002090600502016003015460405191825260208201526040908101905180910390a15050565b600a5433600160a060020a0390811691161461146457fe5b61146e8282612536565b151561147957600080fd5b600380548290811061148757fe5b9060005260206000209060050201600301546001016003828154811015156114ab57fe5b9060005260206000209060050201600301819055507fb6ffa2bc58069f160ac94855c396bc8a7c591ae4b9e69d78cc004ad2e4d70d858282604051600160a060020a03909216825260208201526040908101905180910390a15050565b6000600160a060020a038416151561151f57600080fd5b81151561152b57600080fd5b50818015156115405761153d846126cf565b90505b80151561154c57600080fd5b611557848284612777565b7f8ee078ba6dd38678f9ffdc8f1df2d512559df0cae2db32c829459127e10031978484846040518084600160a060020a0316600160a060020a03168152602001838152602001828152602001935050505060405180910390a150505050565b6000600160a060020a03841615156115cd57600080fd5b8115156115d957600080fd5b50818015156115ee576115eb846126cf565b90505b8015156115fa57600080fd5b611605848284612865565b7ff3d0e22890d929d2a1cd5ca9e5f6498c4271ce2f0223ab4092297c2d11c9ef758484846040518084600160a060020a0316600160a060020a03168152602001838152602001828152602001935050505060405180910390a150505050565b600081815260046020526040812054600160a060020a0316801515610b6857600080fd5b600080600160a060020a03841615156116a057600080fd5b8215156116ac57600080fd5b50336116b9818585611b45565b949350505050565b6116c9612dfd565b60038054839081106116d757fe5b90600052602060002090600502016001018054600181600116156101000203166002900480601f01602080910402602001604051908101604052809291908181526020018280546001816001161561010002031660029004801561177c5780601f106117515761010080835404028352916020019161177c565b820191906000526020600020905b81548152906001019060200180831161175f57829003601f168201915b50505050509050919050565b600160a060020a031660009081526005602052604090205490565b600b5433600160a060020a039081169116146117be57600080fd5b600b54600a54600160a060020a0391821691167f343765429aea5a34b3ff6a3785a98a5abb2597aca87bfbb58632c173d585373a60405160405180910390a3600b8054600a805473ffffffffffffffffffffffffffffffffffffffff19908116600160a060020a03841617909155169055565b611839612dfd565b610b6882612927565b600a54600160a060020a031681565b600354600090819060015b8181101561189057600380548290811061187257fe5b6000918252602090912060059091020154929092019160010161185c565b509092915050565b6118a0612dfd565b60018054600181600116156101000203166002900480601f016020809104026020016040519081016040528092919081815260200182805460018160011615610100020316600290048015610c0c5780601f10610be157610100808354040283529160200191610c0c565b600080600160a060020a038516151561192357600080fd5b8584141561193057600080fd5b85151561193c57600080fd5b83151561194857600080fd5b82151561195457600080fd5b5033600160a060020a038181166000818152600860209081526040808320948a168084529482528083208990559282528282208a90556009815282822093825292909252908190208490557fef4beaa380feab20776f162f92bbf15b04c59f8fd4e8ab2508b8d29fed7dfd6190879087908790879051938452600160a060020a03909216602084015260408084019190915260608301919091526080909101905180910390a150600195945050505050565b600d6020526000908152604090205481565b600660205260009081526040902054600160a060020a031681565b600160a060020a0382161515611a4857600080fd5b30600160a060020a031682600160a060020a031614151515611a6957600080fd5b611a733382612536565b1515611a7e57600080fd5b611a893383836125b1565b5050565b6000611a998383612536565b1515611aa457600080fd5b6003805483908110611ab257fe5b906000526020600020906005020160030154905092915050565b6000611ad6612dfd565b6000806000611ae486612927565b93506000925083519150600090505b81811015611b3b576003848281518110611b0957fe5b9060200190602002015181548110611b1d57fe5b60009182526020909120600590910201549290920191600101611af3565b5090949350505050565b600080808080600160a060020a0387161515611b6057600080fd5b851515611b6c57600080fd5b50505050600160a060020a0384811660008181526008602090815260408083209488168084529482528083205493835280832054600983528184209584529490915290205486929081831415611bc157600080fd5b821515611bcd57600080fd5b811515611bd957600080fd5b801515611be557600080fd5b85811015611bf257600080fd5b611bff848389868a612a1c565b600160a060020a038481166000908152600960209081526040808320938b168352929052208054879003908190551515611c7757600160a060020a038481166000818152600960209081526040808320948c168084529482528083208390559282526008815282822090528181208190559182528120555b600160a060020a038085166000908152600960209081526040808320938b168352929052819020547fa085ba1c72fda1f13ecb6e0347284ac7d016a73b7a47c0ba151368bbe5ce2db9918a9185918b9188918c919051600160a060020a0396871681526020810195909552929094166040808501919091526060840191909152608083019390935260a082015260c001905180910390a1506001979650505050505050565b6000600382815481101515611d2d57fe5b9060005260206000209060050201600001549050919050565b600960209081526000928352604080842090915290825290205481565b600c5481565b600b54600160a060020a031681565b600760209081526000928352604080842090915290825290205481565b600060036000815481101515611da757fe5b906000526020600020906005020160000154905090565b611dc6612dfd565b6000828152600d6020526040812054905b600c54811015611e145781838281518110611dee57fe5b60209081029091018101919091526000928352600d905260409091205490600101611dd7565b5050919050565b600860209081526000928352604080842090915290825290205481565b600a5433600160a060020a03908116911614611e5057fe5b600a54600160a060020a0382811691161415611e6b57600080fd5b600b805473ffffffffffffffffffffffffffffffffffffffff1916600160a060020a0392909216919091179055565b6000600160a060020a0382161515611eb157600080fd5b600160a060020a0383161515611ec657600080fd5b50600160a060020a03918216600090815260096020908152604080832093909416825291909152205490565b6000806000806000611f048787612bac565b9350611f0f84612719565b9250611f1b8787612bda565b915081831015611f8257611f2f8785610c8a565b7f69186e91a26c2cd1f67397df408ddeb0db9249dbd6e2a428ad8ae0d59ba3bc88878588604051928352602083019190915260ff166040808301919091526060909101905180910390a160019450612199565b600e805460ff8816908110611f9357fe5b906000526020600020906006020160010154600e8760ff16815481101515611fb757fe5b9060005260206000209060060201600301541415611fd85760009450612199565b6120ca6000600386815481101515611fec57fe5b90600052602060002090600502016001018054600181600116156101000203166002900480601f0160208091040260200160405190810160405280929190818152602001828054600181600116156101000203166002900480156120915780601f1061206657610100808354040283529160200191612091565b820191906000526020600020905b81548152906001019060200180831161207457829003601f168201915b50505050506003878154811015156120a557fe5b6000918252602090912060026005909202010154600a54600160a060020a0316612c0b565b90508015612194576120df8160018803611ef2565b15612194576120ee8782610c8a565b7f69186e91a26c2cd1f67397df408ddeb0db9249dbd6e2a428ad8ae0d59ba3bc88878288604051928352602083019190915260ff166040808301919091526060909101905180910390a180600e8760ff1681548110151561214b57fe5b6000918252602090912060046006909202010155600e805460ff881690811061217057fe5b60009182526020909120600360069092020101805460019081019091559450612199565b600094505b5050505092915050565b60008080808080808088158015906121bc575060035489105b15156121c757600080fd5b6001600c540360038a8154811015156121dc57fe5b9060005260206000209060050201600301541415156121fa57600080fd5b6000898152600d6020526040902054965086151561221757600080fd5b6000878152600d6020526040902054955085151561223457600080fd5b6000868152600d6020526040902054945084151561225157600080fd5b6064600e600281548110151561226357fe5b90600052602060002090600602016005015460038b81548110151561228457fe5b906000526020600020906005020160000154028115156122a057fe5b0493508315156122af57600080fd5b6064600e60018154811015156122c157fe5b90600052602060002090600602016005015460038b8154811015156122e257fe5b906000526020600020906005020160000154028115156122fe57fe5b04925082151561230d57600080fd5b6064600e600081548110151561231f57fe5b90600052602060002090600602016005015460038b81548110151561234057fe5b9060005260206000209060050201600001540281151561235c57fe5b04915081151561236b57600080fd5b81838560038c81548110151561237d57fe5b6000918252602090912060059091020154030303905080151561239f57600080fd5b836003888154811015156123af57fe5b906000526020600020906005020160000154016003888154811015156123d157fe5b600091825260209091206005909102015560038054849190889081106123f357fe5b9060005260206000209060050201600001540160038781548110151561241557fe5b6000918252602090912060059091020155600380548391908790811061243757fe5b9060005260206000209060050201600001540160038681548110151561245957fe5b6000918252602082206005909102019190915560038054839290811061247b57fe5b906000526020600020906005020160000154016003600081548110151561249e57fe5b60009182526020822060059091020191909155600380548b9081106124bf57fe5b60009182526020909120600590910201557fcfd3c3fcdcb63bcee48ff9a9ec28351afef5ba4fc9b5a8f46d5aa65565a3b1a38983858785604051808681526020018581526020018481526020018381526020018281526020019550505050505060405180910390a150600198975050505050505050565b600090815260046020526040902054600160a060020a0391821691161490565b600091825260066020526040909120805473ffffffffffffffffffffffffffffffffffffffff1916600160a060020a03909216919091179055565b600090815260066020526040902054600160a060020a0391821691161490565b6104006003828154811015156125c357fe5b906000526020600020906005020160040154141515156125df57fe5b600160a060020a0380831660008181526005602090815260408083208054600101905585835260049091529020805473ffffffffffffffffffffffffffffffffffffffff1916909117905583161561267a57600160a060020a0383166000908152600560209081526040808320805460001901905583835260069091529020805473ffffffffffffffffffffffffffffffffffffffff191690555b7fddf252ad1be2c89b69c2b068fc378daa952ba7f163c4a11628f55a4df523b3ef838383604051600160a060020a039384168152919092166020820152604080820192909252606001905180910390a1505050565b60006126d9612dfd565b60006126e484612927565b9150815190508015156126fa5760009250611e14565b8160008151811061270757fe5b90602001906020020151949350505050565b60008080831580159061272d575060035484105b151561273857600080fd5b612740610db6565b915060009250600190505b818111611e14576000818152600d602052604090205484141561276f576001909201915b60010161274b565b6127818383612536565b151561278c57600080fd5b80151561279857600080fd5b806003838154811015156127a857fe5b600091825260209091206005909102015410156127c457600080fd5b806003838154811015156127d457fe5b906000526020600020906005020160000154036003838154811015156127f657fe5b60009182526020909120600590910201557f45dacd427fd388bf162986dbc958cdcf160c31b40efe076907cff377b9857c798383836040518084600160a060020a0316600160a060020a03168152602001838152602001828152602001935050505060405180910390a1505050565b61286f8383612536565b151561287a57600080fd5b80151561288657600080fd5b8060038381548110151561289657fe5b906000526020600020906005020160000154016003838154811015156128b857fe5b60009182526020909120600590910201557f20f4934a3b4928cca0e51f3f1eaac12dee9af151a8a8ba5a424a89d93f6bf53d8383836040518084600160a060020a0316600160a060020a03168152602001838152602001828152602001935050505060405180910390a1505050565b61292f612dfd565b6000612939612dfd565b60008080600160a060020a038716151561295257600080fd5b61295b87611788565b945084151561298b5760006040518059106129735750595b90808252806020026020018201604052509550612a12565b846040518059106129995750595b908082528060200260200182016040525093506129b4610db6565b925060009150600190505b828111612a0e57600081815260046020526040902054600160a060020a0388811691161415612a0657808483806001019450815181106129fb57fe5b602090810290910101525b6001016129bf565b8395505b5050505050919050565b612a268585612536565b1515612a3157600080fd5b612a3b8383612536565b1515612a4657600080fd5b801515612a5257600080fd5b83821415612a5f57600080fd5b80600385815481101515612a6f57fe5b60009182526020909120600590910201541015612a8b57600080fd5b610400600385815481101515612a9d57fe5b90600052602060002090600502016004015414151515612abc57600080fd5b80600385815481101515612acc57fe5b90600052602060002090600502016000015403600385815481101515612aee57fe5b60009182526020909120600590910201556003805482919084908110612b1057fe5b90600052602060002090600502016000015401600383815481101515612b3257fe5b60009182526020909120600590910201557f6d401b913d27047ecd2042f0331e2354d30e664920b31480dc71955edb996c388585858585604051600160a060020a0395861681526020810194909452919093166040808401919091526060830193909352608082015260a001905180910390a15050505050565b6000600e8260ff16815481101515612bc057fe5b906000526020600020906006020160040154905092915050565b60006001600e8360ff16815481101515612bf057fe5b90600052602060002090600602016002015403905092915050565b6000612c15612e36565b600060a0604051908101604052808881526020018781526020018681526020016000815260200160008152509150600160038054806001018281612c599190612e6c565b6000928352602090922085916005020181518155602082015181600101908051612c87929160200190612e98565b506040820151816002015560608201518160030155608082015160049091015550039050801515612d1b57600160038054806001018281612cc89190612e6c565b6000928352602090922085916005020181518155602082015181600101908051612cf6929160200190612e98565b5060408201518160020155606082015181600301556080820151816004015550500390505b63ffffffff81168114612d2d57600080fd5b7fdea8e87d69047e1b3cd43ad599d34e3eacfe4408b4dfc5d0f6ac6a15a468de5c8787878760405184815260408101839052600160a060020a038216606082015260806020820181815290820185818151815260200191508051906020019080838360005b83811015612daa578082015183820152602001612d92565b50505050905090810190601f168015612dd75780820380516001836020036101000a031916815260200191505b509550505050505060405180910390a1612df3600085836125b1565b9695505050505050565b60206040519081016040526000815290565b60806040519081016040526004815b6000815260200190600190039081612e1e5790505090565b60a06040519081016040528060008152602001612e51612dfd565b81526020016000815260200160008152602001600081525090565b8154818355818115116111f8576005028160050283600052602060002091820191016111f89190612f12565b828054600181600116156101000203166002900490600052602060002090601f016020900481019282601f10612ed957805160ff1916838001178555612f06565b82800160010185558215612f06579182015b82811115612f06578251825591602001919060010190612eeb565b50610dcd929150612f50565b610c1491905b80821115610dcd576000808255612f326001830182612f6a565b50600060028201819055600382018190556004820155600501612f18565b610c1491905b80821115610dcd5760008155600101612f56565b50805460018160011615610100020316600290046000825580601f10612f905750612fae565b601f016020900490600052602060002090810190612fae9190612f50565b505600a165627a7a72305820d9ecbfa83ffaf8fa3523d0615bcc8206c2ef25dad7d1f715c1ebdb08804b170c0029",
  "source": "// \n// MIT License\n// \n// Copyright (c) 2018 REGA Risk Sharing\n//   \n// Permission is hereby granted, free of charge, to any person obtaining a copy\n// of this software and associated documentation files (the \"Software\"), to deal\n// in the Software without restriction, including without limitation the rights\n// to use, copy, modify, merge, publish, distribute, sublicense, and/or sell\n// copies of the Software, and to permit persons to whom the Software is\n// furnished to do so, subject to the following conditions:\n// \n// The above copyright notice and this permission notice shall be included in all\n// copies or substantial portions of the Software.\n// \n// THE SOFTWARE IS PROVIDED \"AS IS\", WITHOUT WARRANTY OF ANY KIND, EXPRESS OR\n// IMPLIED, INCLUDING BUT NOT LIMITED TO THE WARRANTIES OF MERCHANTABILITY,\n// FITNESS FOR A PARTICULAR PURPOSE AND NONINFRINGEMENT. IN NO EVENT SHALL THE\n// AUTHORS OR COPYRIGHT HOLDERS BE LIABLE FOR ANY CLAIM, DAMAGES OR OTHER\n// LIABILITY, WHETHER IN AN ACTION OF CONTRACT, TORT OR OTHERWISE, ARISING FROM,\n// OUT OF OR IN CONNECTION WITH THE SOFTWARE OR THE USE OR OTHER DEALINGS IN THE\n// SOFTWARE.\n// \n// Author: Sergei Sevriugin\n// Version: 0.0.1\n//  \n\npragma solidity ^0.4.17;\n\nimport './TokenContainer.sol';\n/// TokenPool is TokenContainer with 4 level pool structure: \n/// Super Pool (Level 0), Pool (Level 1), Sub Pool (Level 2) and Token (Level 3)\n/// Level       Container / Member\n/// ------------------------------------------------\n///   0         SuperPool\n///   1              |______Pool\n///   2                      |______SubPool\n///   3                                |_______Token\ncontract TokenPool is TokenContainer {\n    /// TokenPool insertPool event\n    /// @param id inserted token ID\n    /// @param poolId pool ID\n    /// @param level pool level\n    event InsertPool(uint256 id, uint256 poolId, uint8 level);\n    /// TokenPool value distribution event\n    /// @param id NFT token ID for value distribution \n    /// @param superPoolValue SuperPool Share\n    /// @param poolValue Pool Share\n    /// @param subPoolValue SubPool Share\n    /// @param comission Comission = the rest after all pools \n    event DistributeValue(uint256 id, uint256 superPoolValue, uint256 poolValue, uint256 subPoolValue, uint256 comission);\n    /// TokenPool Second Tier Call event\n    /// @param id NFT token ID that emits event\n    /// @param value 2nd tier capital call value\n    event SecondTierCall(uint256 id, uint256 value);\n    /// TokenPool ShortOfFunds event\n    /// @param id NFT token ID that emits event\n    /// @param poolId pool ID that can't pay\n    /// @param value that pool can't pay\n    /// @param level pool level that can't \n    event ShortOfFunds(uint256 id, uint256 poolId, uint256 value, uint8 level);\n    /// TokenPool Payment Value event\n    /// @param id NFT token ID that emits event\n    /// @param value paid value\n    /// @param level pool level that paid\n    event PaymentValue(uint256 id, uint256 value, uint8 level);\n    /// @dev Pool defines pool structure\n    /// @param level Pool level: 0,1,2,3\n    /// @param maxNumber Maximum number of pools on this lavel\n    /// @param maxMember Maximum number of members for the pool\n    /// @param number Pool number for this level\n    /// @param last NFT ID for last availible pool (with member capacity)\n    struct Pool {\n        uint8   level;      // Pool level: 0,1,2,3\n        uint256 maxNumber;  // Maximum number of pools on this lavel\n        uint256 maxMember;  // Maximum number of members for the pool\n        uint256 number;     // Pool number for this level\n        uint256 last;       // NFT ID for last availible pool (with member capacity)\n        uint256 share;      // Pool share from token investment\n    }\n    /// @dev Pool structure \n    Pool[] pools;           // Pool structure\n    /// inset new member in the pool\n    /// @param _id NFT token ID to inserr\n    /// @param _level Pool level to insert\n    /// @return TRUE if insert is done \n    function _getParent(uint256 _id, uint8 _level) internal view returns (uint256 parentId) {\n        // by default returns pools[_level].last but must be overloaded to use score to calculate right pool\n        _id;\n        parentId = pools[_level].last;\n    }\n    function _getCapacity(uint256 _id, uint8 _level) internal view returns (uint256 parentId) {\n        // by default returns pools[_level].maxMember - 1; but can be overloaded to use score to calculate right pool capacity\n        _id;\n        parentId = pools[_level].maxMember - 1;\n    }\n    function _insertPool(uint256 _id, uint8 _level) internal returns (bool) {\n        uint256 parentId = _getParent(_id, _level); // pool NFT token ID\n        uint256 size = _getPoolSize(parentId);      // current pool size\n        uint256 max = _getCapacity(_id, _level);    // max pool size - 1\n        // check if there is a place to insert \n        if (size < max) {\n            // simple insert\n            addToken(_id, parentId); // add to pool \n            InsertPool(_id, parentId, _level); // event \n            return true;\n        }\n        else {\n            // no capacity in the current pool, so, need to add new pool\n            // check if it's possible\n            if(pools[_level].number == pools[_level].maxNumber) {\n                // no capacity to add new pool at this lavel\n                return false;\n            }\n            else {\n                // make a copy from the last pool\n                uint newPool = _createNFT(uint256(0), nfts[parentId].metadata, nfts[parentId].kind, owner);\n                if (newPool != uint(0)) { \n                    // insert pool in the pool structure\n                    if (_insertPool(newPool, _level-1)) {\n                        // insert token to the new pool\n                        addToken(_id, newPool); // add to pool\n                        InsertPool(_id, newPool, _level); // event \n                        // record new pool data in the structure \n                        pools[_level].last = newPool; // new pool is last one\n                        pools[_level].number++;\n                        // new pool and member are inserted \n                        return true;\n                    }\n                    else {\n                        return false;\n                    }\n                }\n                else {\n                    return false;\n                }\n            }\n        }\n    }\n    /// distribute value of the token _id to pools\n    /// @dev make it as simmple as possible for fixed pool staructure\n    /// @param _id NFT token ID to distribute value\n    /// @return TRUE if distribution is complited \n    function _distributeValue(uint256 _id) internal returns (bool) {\n        // need to make sure that _id is terminal node in the structure \n        require(_id != uint256(0) && _id < nfts.length);\n        require(nfts[_id].level == maxLevel - 1);\n        // now we can check then the path has all pools\n        uint256 subPoolId = tokenIndexToPoolToken[_id];\n        require(subPoolId != uint256(0)); // SubPool\n        uint256 poolId = tokenIndexToPoolToken[subPoolId];\n        require(poolId != uint256(0)); // Pool\n        uint256 superPoolId = tokenIndexToPoolToken[poolId];\n        require(superPoolId != uint256(0)); // SuperPool\n        // calculate values to distribute based of pool structure shares\n        uint256 subPoolValue = nfts[_id].value * pools[2].share / 100;\n        require(subPoolValue != uint256(0));\n        uint256 poolValue = nfts[_id].value * pools[1].share / 100;\n        require(poolValue != uint256(0));\n        uint256 superPoolValue = nfts[_id].value * pools[0].share / 100;\n        require(superPoolValue != uint256(0));\n        uint256 commission = nfts[_id].value - subPoolValue - poolValue - superPoolValue;\n        require(commission != uint256(0));\n        // ready to distribute\n        nfts[subPoolId].value = nfts[subPoolId].value + subPoolValue;\n        nfts[poolId].value = nfts[poolId].value + poolValue;\n        nfts[superPoolId].value = nfts[superPoolId].value + superPoolValue;\n        // we will keep comission in the reserved token with ID = 0\n        nfts[0].value = nfts[0].value + commission;\n        // the distribution is done 0 --> _id value\n        nfts[_id].value = uint256(0);\n        DistributeValue(_id, superPoolValue, poolValue, subPoolValue, commission);\n        return true;\n    }\n    /// insert token in pool structure\n    /// @param _id NFT token ID to insert\n    /// @return TRUE if insert is done \n    function insertPool(uint256 _id) ownerOnly public returns(bool) {\n        require(_id != uint256(0) && _id < nfts.length);\n        // call internal function\n        assert(_insertPool(_id, 2));\n        // if inserted then make value distribution \n        assert(_distributeValue(_id));\n        return true;\n    }\n    /// insert token in pool structure\n    /// @param _id NFT token ID to insert\n    /// @return TRUE if insert is done \n    function _addTokenToSubPool(uint256 _id) internal returns(bool) {\n        require(_id != uint256(0) && _id < nfts.length);\n        // call internal function\n        assert(_insertPool(_id, 2));\n        // if inserted then make value distribution \n        assert(_distributeValue(_id));\n        return true;\n    }\n    /// get collected comission\n    /// @return commission commission value\n    function getComission() public view returns(uint256 commission) {\n        commission = nfts[0].value;\n    }\n    /// get value distribution except commission \n    /// @return distribution [0] = SuperPool, [1] = Pool, [2] = SubPool and [3] = Tokens (must be 0)\n    function getDistribution() public view returns(uint256[4] distribution)\n    {\n        uint8 _level;\n        distribution[0] = uint256(0);   // Super Pool Value\n        distribution[1] = uint256(0);   // Pool Value\n        distribution[2] = uint256(0);   // SubPool Value\n        distribution[3] = uint256(0);   // Tokens Value (must be 0)\n\n        for (uint256 id = 1; id < nfts.length; id++) {\n            _level = uint8(nfts[id].level);\n            if(_level < maxLevel) {\n                distribution[_level] = distribution[_level] + nfts[id].value;\n            }\n            else {\n                distribution[3] = distribution[3] + nfts[id].value; // if something wrong w/ level add to tokens\n            }\n        }\n    }\n    function _payValue(uint256 _id, uint256 _value) internal returns(uint256[4] distribution) {\n        require(_id != uint256(0) && _id < nfts.length);\n        require(_value != uint256(0));\n        distribution[0] = uint256(0);   // Super Pool Value\n        distribution[1] = uint256(0);   // Pool Value\n        distribution[2] = uint256(0);   // SubPool Value\n        distribution[3] = uint256(0);   // Tokens Value (must be 0)\n        // now we can check then the path has all pools\n        uint256 subPoolId = tokenIndexToPoolToken[_id];\n        require(subPoolId != uint256(0)); // SubPool\n        uint256 poolId = tokenIndexToPoolToken[subPoolId];\n        require(poolId != uint256(0)); // Pool\n        uint256 superPoolId = tokenIndexToPoolToken[poolId];\n        require(superPoolId != uint256(0)); // SuperPool\n        if(_value <= nfts[subPoolId].value) {\n            distribution[2] = _value;\n            nfts[subPoolId].value = nfts[subPoolId].value - distribution[2];\n\n            PaymentValue(_id, _value, uint8(2));\n        }\n        else if (_value <= nfts[poolId].value + nfts[subPoolId].value) {\n            ShortOfFunds(_id, subPoolId, _value, uint8(2));\n\n            distribution[2] = nfts[subPoolId].value;\n            distribution[1] = _value - nfts[subPoolId].value;\n            nfts[subPoolId].value = nfts[subPoolId].value - distribution[2];\n            nfts[poolId].value = nfts[poolId].value - distribution[1];\n\n            PaymentValue(_id, _value, uint8(1));\n        }\n        else if (_value <= nfts[superPoolId].value + nfts[poolId].value + nfts[subPoolId].value) {\n            ShortOfFunds(_id, poolId, _value, uint8(1));\n\n            distribution[2] = nfts[subPoolId].value;\n            distribution[1] = nfts[poolId].value;\n            distribution[0] = _value - nfts[subPoolId].value - nfts[poolId].value;\n            nfts[subPoolId].value = nfts[subPoolId].value - distribution[2];\n            nfts[poolId].value = nfts[poolId].value - distribution[1];\n            nfts[superPoolId].value = nfts[superPoolId].value - distribution[0];\n\n            PaymentValue(_id, _value, uint8(0));\n        }\n        else {\n            ShortOfFunds(_id, superPoolId, _value, uint8(0));\n            SecondTierCall(_id, _value);\n        }\n    }\n    function _checkPayment(uint256 _id, uint256 _value) internal view returns(bool possible) {\n        possible = false;\n        uint256 subPoolId = tokenIndexToPoolToken[_id];\n        require(subPoolId != uint256(0)); // SubPool\n        uint256 poolId = tokenIndexToPoolToken[subPoolId];\n        require(poolId != uint256(0)); // Pool\n        uint256 superPoolId = tokenIndexToPoolToken[poolId];\n        require(superPoolId != uint256(0)); // SuperPool\n        if(_value <= nfts[subPoolId].value) {\n            possible = true;\n        }\n        else if (_value <= nfts[poolId].value + nfts[subPoolId].value) {\n            possible = true;\n        }\n        else if (_value <= nfts[superPoolId].value + nfts[poolId].value + nfts[subPoolId].value) {\n            possible = true;\n        }\n    }\n\n    function checkPaymentAmount(uint256 _id, uint256 _value) public view returns(uint8 level, uint256 amtSubPool, uint256 amtPool, uint256 amtSuperPool, uint256 balance) {\n        level = uint8(4);\n        uint256[4] memory distribution;\n        distribution[0] = uint256(0);   // Super Pool Value\n        distribution[1] = uint256(0);   // Pool Value\n        distribution[2] = uint256(0);   // SubPool Value\n        distribution[3] = uint256(0);   // Tokens Value (must be 0)\n        \n        require(_id != uint256(0) && _id < nfts.length);\n        require(_value != uint256(0));\n        require(_owns(msg.sender, _id));\n        \n        uint256 subPoolId = tokenIndexToPoolToken[_id];\n        require(subPoolId != uint256(0)); // SubPool\n        uint256 poolId = tokenIndexToPoolToken[subPoolId];\n        require(poolId != uint256(0)); // Pool\n        uint256 superPoolId = tokenIndexToPoolToken[poolId];\n        require(superPoolId != uint256(0)); // SuperPool\n\n        level = uint8(3);\n\n        if(_value <= nfts[subPoolId].value) {\n            level = uint8(2);\n            distribution[2] = _value;\n        }\n        else if (_value <= nfts[poolId].value + nfts[subPoolId].value) {\n            level = uint8(1);\n            distribution[2] = nfts[subPoolId].value;\n            distribution[1] = _value - nfts[subPoolId].value;\n        }\n        else if (_value <= nfts[superPoolId].value + nfts[poolId].value + nfts[subPoolId].value) {\n            level = uint8(0);\n            distribution[2] = nfts[subPoolId].value;\n            distribution[1] = nfts[poolId].value;\n            distribution[0] = _value - nfts[subPoolId].value - nfts[poolId].value;\n        }\n\n        amtSubPool = distribution[2];\n        amtPool = distribution[1];\n        amtSuperPool = distribution[0];\n        \n        balance = address(this).balance;\n    }\n\n    /// TokenPool Constructor\n    function TokenPool(string _name, string _symbol) TokenContainer(_name, _symbol) public { \n        maxLevel = 4; // FIXED DO NOT CHANGE!\n\n        // Creating templates\n        uint superPoolId = _createNFT(10 ether, \"SuperPool\", uint256(1), owner);    // fix initial capital for 10 Ether\n        uint poolId = _createNFT(uint256(0), \"Pool\", uint256(1), owner);\n        uint subPoolId = _createNFT(uint256(0), \"SubPool\", uint256(2), owner);\n\n        // Build initil structure SubPool --> Pool --> SuperPool\n        addToken(poolId, superPoolId);\n        addToken(subPoolId, poolId);\n\n        // Build configuration \n        // SuperPool configuration\n        Pool memory superPool = Pool({\n            level: uint8(0),\n            maxNumber: uint256(1),\n            maxMember: uint256(10),\n            number: uint256(1),\n            last: uint256(superPoolId),\n            share: uint256(10)\n        });\n        pools.push(superPool);\n        // Pool configuration \n        Pool memory pool = Pool({\n            level: uint8(1),\n            maxNumber: uint256(10),\n            maxMember: uint256(100),\n            number: uint256(1),\n            last: uint256(poolId),\n            share: uint256(20)\n        });\n        pools.push(pool);\n        // SubPool configuration \n        Pool memory subPool = Pool({\n            level: uint8(2),\n            maxNumber: uint256(1000),\n            maxMember: uint256(100),\n            number: uint256(1),\n            last: uint256(subPoolId),\n            share: uint256(50)\n        });\n        pools.push(subPool);\n        // set comission to 0\n        nfts[0].value = uint256(0);\n    }\n}",
  "sourcePath": "/Users/sergei/LuggageCrowdsurance/contracts/TokenPool.sol",
  "compiler": {
    "name": "solc",
    "version": "0.4.18+commit.9cf6e910.Emscripten.clang"
  },
  "schemaVersion": "1.0.1",
  "updatedAt": "2018-05-22T10:22:11.982Z"
}