{
  "contractName": "TokenCrowdsurance",
  "abi": [
    {
      "constant": false,
      "inputs": [
        {
          "name": "_id",
          "type": "uint256"
        }
      ],
      "name": "insertPool",
      "outputs": [
        {
          "name": "",
          "type": "bool"
        }
      ],
      "payable": false,
      "stateMutability": "nonpayable",
      "type": "function"
    },
    {
      "constant": true,
      "inputs": [
        {
          "name": "_interfaceID",
          "type": "bytes4"
        }
      ],
      "name": "supportsInterface",
      "outputs": [
        {
          "name": "",
          "type": "bool"
        }
      ],
      "payable": false,
      "stateMutability": "view",
      "type": "function"
    },
    {
      "constant": true,
      "inputs": [],
      "name": "name",
      "outputs": [
        {
          "name": "",
          "type": "string"
        }
      ],
      "payable": false,
      "stateMutability": "view",
      "type": "function"
    },
    {
      "constant": false,
      "inputs": [
        {
          "name": "_to",
          "type": "address"
        },
        {
          "name": "_tokenId",
          "type": "uint256"
        }
      ],
      "name": "approve",
      "outputs": [],
      "payable": false,
      "stateMutability": "nonpayable",
      "type": "function"
    },
    {
      "constant": true,
      "inputs": [
        {
          "name": "_id",
          "type": "uint256"
        }
      ],
      "name": "votingStatus",
      "outputs": [
        {
          "name": "votingEnded",
          "type": "bool"
        },
        {
          "name": "positive",
          "type": "uint8"
        },
        {
          "name": "negative",
          "type": "uint8"
        }
      ],
      "payable": false,
      "stateMutability": "view",
      "type": "function"
    },
    {
      "constant": false,
      "inputs": [
        {
          "name": "_nodeId",
          "type": "uint256"
        },
        {
          "name": "_parentId",
          "type": "uint256"
        }
      ],
      "name": "addToken",
      "outputs": [],
      "payable": false,
      "stateMutability": "nonpayable",
      "type": "function"
    },
    {
      "constant": true,
      "inputs": [],
      "name": "totalSupply",
      "outputs": [
        {
          "name": "",
          "type": "uint256"
        }
      ],
      "payable": false,
      "stateMutability": "view",
      "type": "function"
    },
    {
      "constant": true,
      "inputs": [],
      "name": "getDistribution",
      "outputs": [
        {
          "name": "distribution",
          "type": "uint256[4]"
        }
      ],
      "payable": false,
      "stateMutability": "view",
      "type": "function"
    },
    {
      "constant": true,
      "inputs": [
        {
          "name": "",
          "type": "uint256"
        }
      ],
      "name": "tokenIndexToOwner",
      "outputs": [
        {
          "name": "",
          "type": "address"
        }
      ],
      "payable": false,
      "stateMutability": "view",
      "type": "function"
    },
    {
      "constant": false,
      "inputs": [
        {
          "name": "_from",
          "type": "address"
        },
        {
          "name": "_to",
          "type": "address"
        },
        {
          "name": "_tokenId",
          "type": "uint256"
        }
      ],
      "name": "transferFrom",
      "outputs": [],
      "payable": false,
      "stateMutability": "nonpayable",
      "type": "function"
    },
    {
      "constant": false,
      "inputs": [
        {
          "name": "_to",
          "type": "address"
        },
        {
          "name": "_toId",
          "type": "uint256"
        },
        {
          "name": "_level",
          "type": "uint256"
        }
      ],
      "name": "setLevel",
      "outputs": [],
      "payable": false,
      "stateMutability": "nonpayable",
      "type": "function"
    },
    {
      "constant": false,
      "inputs": [
        {
          "name": "_spender",
          "type": "address"
        },
        {
          "name": "_value",
          "type": "uint256"
        }
      ],
      "name": "cApprove",
      "outputs": [
        {
          "name": "success",
          "type": "bool"
        }
      ],
      "payable": false,
      "stateMutability": "nonpayable",
      "type": "function"
    },
    {
      "constant": false,
      "inputs": [
        {
          "name": "_nodeId",
          "type": "uint256"
        }
      ],
      "name": "removeToken",
      "outputs": [],
      "payable": false,
      "stateMutability": "nonpayable",
      "type": "function"
    },
    {
      "constant": false,
      "inputs": [
        {
          "name": "_to",
          "type": "address"
        },
        {
          "name": "_toId",
          "type": "uint256"
        }
      ],
      "name": "increaseLevel",
      "outputs": [],
      "payable": false,
      "stateMutability": "nonpayable",
      "type": "function"
    },
    {
      "constant": true,
      "inputs": [
        {
          "name": "",
          "type": "address"
        }
      ],
      "name": "addressToAmount",
      "outputs": [
        {
          "name": "",
          "type": "uint256"
        }
      ],
      "payable": false,
      "stateMutability": "view",
      "type": "function"
    },
    {
      "constant": false,
      "inputs": [
        {
          "name": "_from",
          "type": "address"
        },
        {
          "name": "_fromId",
          "type": "uint256"
        },
        {
          "name": "_amount",
          "type": "uint256"
        }
      ],
      "name": "cDestroy",
      "outputs": [],
      "payable": false,
      "stateMutability": "nonpayable",
      "type": "function"
    },
    {
      "constant": false,
      "inputs": [
        {
          "name": "_to",
          "type": "address"
        },
        {
          "name": "_toId",
          "type": "uint256"
        },
        {
          "name": "_amount",
          "type": "uint256"
        }
      ],
      "name": "cIssue",
      "outputs": [],
      "payable": false,
      "stateMutability": "nonpayable",
      "type": "function"
    },
    {
      "constant": true,
      "inputs": [
        {
          "name": "_tokenId",
          "type": "uint256"
        }
      ],
      "name": "ownerOf",
      "outputs": [
        {
          "name": "",
          "type": "address"
        }
      ],
      "payable": false,
      "stateMutability": "view",
      "type": "function"
    },
    {
      "constant": false,
      "inputs": [
        {
          "name": "_to",
          "type": "address"
        },
        {
          "name": "_value",
          "type": "uint256"
        }
      ],
      "name": "cTransfer",
      "outputs": [
        {
          "name": "success",
          "type": "bool"
        }
      ],
      "payable": false,
      "stateMutability": "nonpayable",
      "type": "function"
    },
    {
      "constant": true,
      "inputs": [
        {
          "name": "_tokenId",
          "type": "uint256"
        }
      ],
      "name": "tokenMetadata",
      "outputs": [
        {
          "name": "infoUrl",
          "type": "string"
        }
      ],
      "payable": false,
      "stateMutability": "view",
      "type": "function"
    },
    {
      "constant": true,
      "inputs": [
        {
          "name": "_owner",
          "type": "address"
        }
      ],
      "name": "balanceOf",
      "outputs": [
        {
          "name": "count",
          "type": "uint256"
        }
      ],
      "payable": false,
      "stateMutability": "view",
      "type": "function"
    },
    {
      "constant": false,
      "inputs": [],
      "name": "acceptOwnership",
      "outputs": [],
      "payable": false,
      "stateMutability": "nonpayable",
      "type": "function"
    },
    {
      "constant": true,
      "inputs": [
        {
          "name": "",
          "type": "uint256"
        }
      ],
      "name": "requests",
      "outputs": [
        {
          "name": "amount",
          "type": "uint256"
        },
        {
          "name": "timeStamp",
          "type": "uint256"
        },
        {
          "name": "duration",
          "type": "uint256"
        },
        {
          "name": "positive",
          "type": "uint8"
        },
        {
          "name": "negative",
          "type": "uint8"
        },
        {
          "name": "number",
          "type": "uint8"
        }
      ],
      "payable": false,
      "stateMutability": "view",
      "type": "function"
    },
    {
      "constant": true,
      "inputs": [
        {
          "name": "_owner",
          "type": "address"
        }
      ],
      "name": "tokensOfOwner",
      "outputs": [
        {
          "name": "ownerTokens",
          "type": "uint256[]"
        }
      ],
      "payable": false,
      "stateMutability": "view",
      "type": "function"
    },
    {
      "constant": true,
      "inputs": [],
      "name": "parameters",
      "outputs": [
        {
          "name": "joinAmount",
          "type": "uint256"
        },
        {
          "name": "coverageDuration",
          "type": "uint256"
        },
        {
          "name": "maxClaimAmount",
          "type": "uint256"
        },
        {
          "name": "maxClaimNumber",
          "type": "uint8"
        },
        {
          "name": "paymentRatio",
          "type": "uint8"
        },
        {
          "name": "maxPaymentAmount",
          "type": "uint256"
        },
        {
          "name": "minJuriesNumber",
          "type": "uint8"
        },
        {
          "name": "votingDuration",
          "type": "uint256"
        },
        {
          "name": "juriesNumber",
          "type": "uint8"
        }
      ],
      "payable": false,
      "stateMutability": "view",
      "type": "function"
    },
    {
      "constant": false,
      "inputs": [
        {
          "name": "_id",
          "type": "uint256"
        }
      ],
      "name": "payment",
      "outputs": [],
      "payable": false,
      "stateMutability": "nonpayable",
      "type": "function"
    },
    {
      "constant": true,
      "inputs": [],
      "name": "owner",
      "outputs": [
        {
          "name": "",
          "type": "address"
        }
      ],
      "payable": false,
      "stateMutability": "view",
      "type": "function"
    },
    {
      "constant": true,
      "inputs": [],
      "name": "cTotalSupply",
      "outputs": [
        {
          "name": "",
          "type": "uint256"
        }
      ],
      "payable": false,
      "stateMutability": "view",
      "type": "function"
    },
    {
      "constant": true,
      "inputs": [],
      "name": "symbol",
      "outputs": [
        {
          "name": "",
          "type": "string"
        }
      ],
      "payable": false,
      "stateMutability": "view",
      "type": "function"
    },
    {
      "constant": false,
      "inputs": [
        {
          "name": "_fromId",
          "type": "uint256"
        },
        {
          "name": "_spender",
          "type": "address"
        },
        {
          "name": "_toId",
          "type": "uint256"
        },
        {
          "name": "_value",
          "type": "uint256"
        }
      ],
      "name": "cApproveFrom",
      "outputs": [
        {
          "name": "success",
          "type": "bool"
        }
      ],
      "payable": false,
      "stateMutability": "nonpayable",
      "type": "function"
    },
    {
      "constant": true,
      "inputs": [
        {
          "name": "",
          "type": "uint256"
        }
      ],
      "name": "tokenIndexToPoolToken",
      "outputs": [
        {
          "name": "",
          "type": "uint256"
        }
      ],
      "payable": false,
      "stateMutability": "view",
      "type": "function"
    },
    {
      "constant": true,
      "inputs": [
        {
          "name": "",
          "type": "address"
        }
      ],
      "name": "voters",
      "outputs": [
        {
          "name": "",
          "type": "uint256"
        }
      ],
      "payable": false,
      "stateMutability": "view",
      "type": "function"
    },
    {
      "constant": true,
      "inputs": [
        {
          "name": "",
          "type": "uint256"
        }
      ],
      "name": "tokenIndexToApproved",
      "outputs": [
        {
          "name": "",
          "type": "address"
        }
      ],
      "payable": false,
      "stateMutability": "view",
      "type": "function"
    },
    {
      "constant": false,
      "inputs": [
        {
          "name": "_to",
          "type": "address"
        },
        {
          "name": "_tokenId",
          "type": "uint256"
        }
      ],
      "name": "transfer",
      "outputs": [],
      "payable": false,
      "stateMutability": "nonpayable",
      "type": "function"
    },
    {
      "constant": true,
      "inputs": [
        {
          "name": "_to",
          "type": "address"
        },
        {
          "name": "_toId",
          "type": "uint256"
        }
      ],
      "name": "getLevel",
      "outputs": [
        {
          "name": "",
          "type": "uint256"
        }
      ],
      "payable": false,
      "stateMutability": "view",
      "type": "function"
    },
    {
      "constant": true,
      "inputs": [
        {
          "name": "_owner",
          "type": "address"
        }
      ],
      "name": "cBalanceOf",
      "outputs": [
        {
          "name": "",
          "type": "uint256"
        }
      ],
      "payable": false,
      "stateMutability": "view",
      "type": "function"
    },
    {
      "constant": false,
      "inputs": [
        {
          "name": "_id",
          "type": "uint256"
        }
      ],
      "name": "activate",
      "outputs": [],
      "payable": false,
      "stateMutability": "nonpayable",
      "type": "function"
    },
    {
      "constant": false,
      "inputs": [],
      "name": "join",
      "outputs": [
        {
          "name": "cowdsuranceId",
          "type": "uint256"
        }
      ],
      "payable": true,
      "stateMutability": "payable",
      "type": "function"
    },
    {
      "constant": false,
      "inputs": [
        {
          "name": "_jury",
          "type": "address"
        },
        {
          "name": "_id",
          "type": "uint256"
        }
      ],
      "name": "addVoter",
      "outputs": [],
      "payable": false,
      "stateMutability": "nonpayable",
      "type": "function"
    },
    {
      "constant": false,
      "inputs": [
        {
          "name": "_from",
          "type": "address"
        },
        {
          "name": "_to",
          "type": "address"
        },
        {
          "name": "_value",
          "type": "uint256"
        }
      ],
      "name": "cTransferFrom",
      "outputs": [
        {
          "name": "success",
          "type": "bool"
        }
      ],
      "payable": false,
      "stateMutability": "nonpayable",
      "type": "function"
    },
    {
      "constant": true,
      "inputs": [
        {
          "name": "_member",
          "type": "address"
        },
        {
          "name": "_status",
          "type": "uint8"
        }
      ],
      "name": "statusCount",
      "outputs": [
        {
          "name": "count",
          "type": "uint256"
        }
      ],
      "payable": false,
      "stateMutability": "view",
      "type": "function"
    },
    {
      "constant": false,
      "inputs": [
        {
          "name": "_id",
          "type": "uint256"
        },
        {
          "name": "_claim",
          "type": "uint256"
        }
      ],
      "name": "claim",
      "outputs": [
        {
          "name": "",
          "type": "bool"
        }
      ],
      "payable": false,
      "stateMutability": "nonpayable",
      "type": "function"
    },
    {
      "constant": true,
      "inputs": [
        {
          "name": "",
          "type": "address"
        }
      ],
      "name": "addressToScore",
      "outputs": [
        {
          "name": "",
          "type": "uint256"
        }
      ],
      "payable": false,
      "stateMutability": "view",
      "type": "function"
    },
    {
      "constant": false,
      "inputs": [
        {
          "name": "_id",
          "type": "uint256"
        },
        {
          "name": "_positive",
          "type": "bool"
        }
      ],
      "name": "vote",
      "outputs": [],
      "payable": false,
      "stateMutability": "nonpayable",
      "type": "function"
    },
    {
      "constant": true,
      "inputs": [
        {
          "name": "_tokenId",
          "type": "uint256"
        }
      ],
      "name": "valueOf",
      "outputs": [
        {
          "name": "value",
          "type": "uint256"
        }
      ],
      "payable": false,
      "stateMutability": "view",
      "type": "function"
    },
    {
      "constant": true,
      "inputs": [
        {
          "name": "",
          "type": "address"
        },
        {
          "name": "",
          "type": "address"
        }
      ],
      "name": "allowanceAmt",
      "outputs": [
        {
          "name": "",
          "type": "uint256"
        }
      ],
      "payable": false,
      "stateMutability": "view",
      "type": "function"
    },
    {
      "constant": true,
      "inputs": [],
      "name": "maxLevel",
      "outputs": [
        {
          "name": "",
          "type": "uint256"
        }
      ],
      "payable": false,
      "stateMutability": "view",
      "type": "function"
    },
    {
      "constant": false,
      "inputs": [
        {
          "name": "_member",
          "type": "address"
        },
        {
          "name": "_score",
          "type": "uint256"
        },
        {
          "name": "_amount",
          "type": "uint256"
        }
      ],
      "name": "scoring",
      "outputs": [],
      "payable": false,
      "stateMutability": "nonpayable",
      "type": "function"
    },
    {
      "constant": true,
      "inputs": [],
      "name": "newOwner",
      "outputs": [
        {
          "name": "",
          "type": "address"
        }
      ],
      "payable": false,
      "stateMutability": "view",
      "type": "function"
    },
    {
      "constant": true,
      "inputs": [],
      "name": "apply",
      "outputs": [
        {
          "name": "amount",
          "type": "uint256"
        }
      ],
      "payable": false,
      "stateMutability": "view",
      "type": "function"
    },
    {
      "constant": true,
      "inputs": [
        {
          "name": "",
          "type": "uint256"
        }
      ],
      "name": "extensions",
      "outputs": [
        {
          "name": "timeStamp",
          "type": "uint256"
        },
        {
          "name": "activated",
          "type": "uint256"
        },
        {
          "name": "duration",
          "type": "uint256"
        },
        {
          "name": "amount",
          "type": "uint256"
        },
        {
          "name": "paid",
          "type": "uint256"
        },
        {
          "name": "score",
          "type": "uint256"
        },
        {
          "name": "claimNumber",
          "type": "uint8"
        },
        {
          "name": "status",
          "type": "uint8"
        }
      ],
      "payable": false,
      "stateMutability": "view",
      "type": "function"
    },
    {
      "constant": true,
      "inputs": [
        {
          "name": "",
          "type": "address"
        },
        {
          "name": "",
          "type": "address"
        }
      ],
      "name": "allowance",
      "outputs": [
        {
          "name": "",
          "type": "uint256"
        }
      ],
      "payable": false,
      "stateMutability": "view",
      "type": "function"
    },
    {
      "constant": true,
      "inputs": [],
      "name": "getComission",
      "outputs": [
        {
          "name": "commission",
          "type": "uint256"
        }
      ],
      "payable": false,
      "stateMutability": "view",
      "type": "function"
    },
    {
      "constant": true,
      "inputs": [
        {
          "name": "_nodeId",
          "type": "uint256"
        }
      ],
      "name": "getPath",
      "outputs": [
        {
          "name": "path",
          "type": "uint256[]"
        }
      ],
      "payable": false,
      "stateMutability": "view",
      "type": "function"
    },
    {
      "constant": true,
      "inputs": [
        {
          "name": "",
          "type": "address"
        },
        {
          "name": "",
          "type": "address"
        }
      ],
      "name": "allowanceIds",
      "outputs": [
        {
          "name": "",
          "type": "uint256"
        }
      ],
      "payable": false,
      "stateMutability": "view",
      "type": "function"
    },
    {
      "constant": false,
      "inputs": [
        {
          "name": "_newOwner",
          "type": "address"
        }
      ],
      "name": "transferOwnership",
      "outputs": [],
      "payable": false,
      "stateMutability": "nonpayable",
      "type": "function"
    },
    {
      "constant": true,
      "inputs": [
        {
          "name": "_owner",
          "type": "address"
        },
        {
          "name": "_spender",
          "type": "address"
        }
      ],
      "name": "cAllowance",
      "outputs": [
        {
          "name": "",
          "type": "uint256"
        }
      ],
      "payable": false,
      "stateMutability": "view",
      "type": "function"
    },
    {
      "inputs": [
        {
          "name": "_name",
          "type": "string"
        },
        {
          "name": "_symbol",
          "type": "string"
        }
      ],
      "payable": false,
      "stateMutability": "nonpayable",
      "type": "constructor"
    },
    {
      "anonymous": false,
      "inputs": [
        {
          "indexed": false,
          "name": "member",
          "type": "address"
        },
        {
          "indexed": false,
          "name": "score",
          "type": "uint256"
        },
        {
          "indexed": false,
          "name": "amount",
          "type": "uint256"
        }
      ],
      "name": "Apply",
      "type": "event"
    },
    {
      "anonymous": false,
      "inputs": [
        {
          "indexed": false,
          "name": "member",
          "type": "address"
        },
        {
          "indexed": false,
          "name": "id",
          "type": "uint256"
        },
        {
          "indexed": false,
          "name": "amount",
          "type": "uint256"
        }
      ],
      "name": "Join",
      "type": "event"
    },
    {
      "anonymous": false,
      "inputs": [
        {
          "indexed": false,
          "name": "member",
          "type": "address"
        },
        {
          "indexed": false,
          "name": "score",
          "type": "uint256"
        },
        {
          "indexed": false,
          "name": "amount",
          "type": "uint256"
        }
      ],
      "name": "Scoring",
      "type": "event"
    },
    {
      "anonymous": false,
      "inputs": [
        {
          "indexed": false,
          "name": "id",
          "type": "uint256"
        },
        {
          "indexed": false,
          "name": "amount",
          "type": "uint256"
        },
        {
          "indexed": false,
          "name": "score",
          "type": "uint256"
        }
      ],
      "name": "Activate",
      "type": "event"
    },
    {
      "anonymous": false,
      "inputs": [
        {
          "indexed": false,
          "name": "id",
          "type": "uint256"
        },
        {
          "indexed": false,
          "name": "claim",
          "type": "uint256"
        },
        {
          "indexed": false,
          "name": "number",
          "type": "uint8"
        }
      ],
      "name": "Claim",
      "type": "event"
    },
    {
      "anonymous": false,
      "inputs": [
        {
          "indexed": false,
          "name": "jury",
          "type": "address"
        },
        {
          "indexed": false,
          "name": "id",
          "type": "uint256"
        },
        {
          "indexed": false,
          "name": "positive",
          "type": "bool"
        }
      ],
      "name": "Vote",
      "type": "event"
    },
    {
      "anonymous": false,
      "inputs": [
        {
          "indexed": false,
          "name": "reciever",
          "type": "address"
        },
        {
          "indexed": false,
          "name": "id",
          "type": "uint256"
        },
        {
          "indexed": false,
          "name": "amount",
          "type": "uint256"
        },
        {
          "indexed": false,
          "name": "status",
          "type": "uint8"
        }
      ],
      "name": "Payment",
      "type": "event"
    },
    {
      "anonymous": false,
      "inputs": [
        {
          "indexed": false,
          "name": "id",
          "type": "uint256"
        },
        {
          "indexed": false,
          "name": "poolId",
          "type": "uint256"
        },
        {
          "indexed": false,
          "name": "level",
          "type": "uint8"
        }
      ],
      "name": "InsertPool",
      "type": "event"
    },
    {
      "anonymous": false,
      "inputs": [
        {
          "indexed": false,
          "name": "id",
          "type": "uint256"
        },
        {
          "indexed": false,
          "name": "superPoolValue",
          "type": "uint256"
        },
        {
          "indexed": false,
          "name": "poolValue",
          "type": "uint256"
        },
        {
          "indexed": false,
          "name": "subPoolValue",
          "type": "uint256"
        },
        {
          "indexed": false,
          "name": "comission",
          "type": "uint256"
        }
      ],
      "name": "DistributeValue",
      "type": "event"
    },
    {
      "anonymous": false,
      "inputs": [
        {
          "indexed": false,
          "name": "id",
          "type": "uint256"
        },
        {
          "indexed": false,
          "name": "value",
          "type": "uint256"
        }
      ],
      "name": "SecondTierCall",
      "type": "event"
    },
    {
      "anonymous": false,
      "inputs": [
        {
          "indexed": false,
          "name": "id",
          "type": "uint256"
        },
        {
          "indexed": false,
          "name": "poolId",
          "type": "uint256"
        },
        {
          "indexed": false,
          "name": "value",
          "type": "uint256"
        },
        {
          "indexed": false,
          "name": "level",
          "type": "uint8"
        }
      ],
      "name": "ShortOfFunds",
      "type": "event"
    },
    {
      "anonymous": false,
      "inputs": [
        {
          "indexed": false,
          "name": "id",
          "type": "uint256"
        },
        {
          "indexed": false,
          "name": "value",
          "type": "uint256"
        },
        {
          "indexed": false,
          "name": "level",
          "type": "uint8"
        }
      ],
      "name": "PaymentValue",
      "type": "event"
    },
    {
      "anonymous": false,
      "inputs": [
        {
          "indexed": false,
          "name": "nodeId",
          "type": "uint256"
        },
        {
          "indexed": false,
          "name": "parentId",
          "type": "uint256"
        },
        {
          "indexed": false,
          "name": "level",
          "type": "uint256"
        }
      ],
      "name": "AddToken",
      "type": "event"
    },
    {
      "anonymous": false,
      "inputs": [
        {
          "indexed": false,
          "name": "nodeId",
          "type": "uint256"
        },
        {
          "indexed": false,
          "name": "level",
          "type": "uint256"
        }
      ],
      "name": "RemoveToken",
      "type": "event"
    },
    {
      "anonymous": false,
      "inputs": [
        {
          "indexed": false,
          "name": "from",
          "type": "address"
        },
        {
          "indexed": false,
          "name": "fromId",
          "type": "uint256"
        },
        {
          "indexed": false,
          "name": "to",
          "type": "address"
        },
        {
          "indexed": false,
          "name": "toId",
          "type": "uint256"
        },
        {
          "indexed": false,
          "name": "value",
          "type": "uint256"
        }
      ],
      "name": "Transfer",
      "type": "event"
    },
    {
      "anonymous": false,
      "inputs": [
        {
          "indexed": false,
          "name": "to",
          "type": "address"
        },
        {
          "indexed": false,
          "name": "toId",
          "type": "uint256"
        },
        {
          "indexed": false,
          "name": "value",
          "type": "uint256"
        }
      ],
      "name": "AddValue",
      "type": "event"
    },
    {
      "anonymous": false,
      "inputs": [
        {
          "indexed": false,
          "name": "from",
          "type": "address"
        },
        {
          "indexed": false,
          "name": "fromId",
          "type": "uint256"
        },
        {
          "indexed": false,
          "name": "value",
          "type": "uint256"
        }
      ],
      "name": "RemoveValue",
      "type": "event"
    },
    {
      "anonymous": false,
      "inputs": [
        {
          "indexed": false,
          "name": "to",
          "type": "address"
        },
        {
          "indexed": false,
          "name": "toId",
          "type": "uint256"
        },
        {
          "indexed": false,
          "name": "level",
          "type": "uint256"
        }
      ],
      "name": "SetLevel",
      "type": "event"
    },
    {
      "anonymous": false,
      "inputs": [
        {
          "indexed": false,
          "name": "to",
          "type": "address"
        },
        {
          "indexed": false,
          "name": "toId",
          "type": "uint256"
        }
      ],
      "name": "IncreaseLevel",
      "type": "event"
    },
    {
      "anonymous": false,
      "inputs": [
        {
          "indexed": true,
          "name": "_prevOwner",
          "type": "address"
        },
        {
          "indexed": true,
          "name": "_newOwner",
          "type": "address"
        }
      ],
      "name": "OwnerUpdate",
      "type": "event"
    },
    {
      "anonymous": false,
      "inputs": [
        {
          "indexed": false,
          "name": "fromId",
          "type": "uint256"
        },
        {
          "indexed": false,
          "name": "spender",
          "type": "address"
        },
        {
          "indexed": false,
          "name": "toId",
          "type": "uint256"
        },
        {
          "indexed": false,
          "name": "value",
          "type": "uint256"
        }
      ],
      "name": "CApproveFrom",
      "type": "event"
    },
    {
      "anonymous": false,
      "inputs": [
        {
          "indexed": false,
          "name": "spender",
          "type": "address"
        },
        {
          "indexed": false,
          "name": "value",
          "type": "uint256"
        }
      ],
      "name": "CApprove",
      "type": "event"
    },
    {
      "anonymous": false,
      "inputs": [
        {
          "indexed": false,
          "name": "from",
          "type": "address"
        },
        {
          "indexed": false,
          "name": "fromId",
          "type": "uint256"
        },
        {
          "indexed": false,
          "name": "to",
          "type": "address"
        },
        {
          "indexed": false,
          "name": "toId",
          "type": "uint256"
        },
        {
          "indexed": false,
          "name": "value",
          "type": "uint256"
        },
        {
          "indexed": false,
          "name": "allowance",
          "type": "uint256"
        }
      ],
      "name": "CTransferFrom",
      "type": "event"
    },
    {
      "anonymous": false,
      "inputs": [
        {
          "indexed": false,
          "name": "to",
          "type": "address"
        },
        {
          "indexed": false,
          "name": "toId",
          "type": "uint256"
        },
        {
          "indexed": false,
          "name": "amount",
          "type": "uint256"
        }
      ],
      "name": "CIssue",
      "type": "event"
    },
    {
      "anonymous": false,
      "inputs": [
        {
          "indexed": false,
          "name": "from",
          "type": "address"
        },
        {
          "indexed": false,
          "name": "fromId",
          "type": "uint256"
        },
        {
          "indexed": false,
          "name": "amount",
          "type": "uint256"
        }
      ],
      "name": "CDestroy",
      "type": "event"
    },
    {
      "anonymous": false,
      "inputs": [
        {
          "indexed": false,
          "name": "from",
          "type": "address"
        },
        {
          "indexed": false,
          "name": "to",
          "type": "address"
        },
        {
          "indexed": false,
          "name": "tokenId",
          "type": "uint256"
        }
      ],
      "name": "Transfer",
      "type": "event"
    },
    {
      "anonymous": false,
      "inputs": [
        {
          "indexed": false,
          "name": "owner",
          "type": "address"
        },
        {
          "indexed": false,
          "name": "approved",
          "type": "address"
        },
        {
          "indexed": false,
          "name": "tokenId",
          "type": "uint256"
        }
      ],
      "name": "Approval",
      "type": "event"
    },
    {
      "anonymous": false,
      "inputs": [
        {
          "indexed": false,
          "name": "value",
          "type": "uint256"
        },
        {
          "indexed": false,
          "name": "metadata",
          "type": "string"
        },
        {
          "indexed": false,
          "name": "kind",
          "type": "uint256"
        },
        {
          "indexed": false,
          "name": "owner",
          "type": "address"
        }
      ],
      "name": "Birth",
      "type": "event"
    }
  ],
  "bytecode": "0x606060405234156200001057600080fd5b60405162004b2b38038062004b2b83398101604052808051820191906020018051909101905081816000808062000046620008c7565b62000050620008c7565b6200005a620008c7565b60028054600160a060020a03191633600160a060020a031617905587878181818160008280516200009092916020019062000901565b506001818051620000a692916020019062000901565b5050600a8054600160a060020a03191633600160a060020a031617905550506004600c55506200012c91506000905060408051908101604052600981527f5375706572506f6f6c00000000000000000000000000000000000000000000006020820152600a54600190600160a060020a031664010000000062003aac6200047a82021704565b95506200018b600060408051908101604052600481527f506f6f6c000000000000000000000000000000000000000000000000000000006020820152600a54600190600160a060020a031664010000000062003aac6200047a82021704565b9450620001ea600060408051908101604052600781527f537562506f6f6c000000000000000000000000000000000000000000000000006020820152600a54600290600160a060020a031664010000000062003aac6200047a82021704565b935062000206858764010000000062000ff56200068b82021704565b62000220848664010000000062000ff56200068b82021704565b60c060405190810160405280600060ff16815260200160018152602001600a815260200160018152602001878152602001600a8152509250600e80548060010182816200026e919062000986565b600092835260209092208591600602018151815460ff191660ff919091161781556020820151816001015560408201518160020155606082015181600301556080820151816004015560a0820151816005015550505060c060405190810160405280600160ff168152602001600a8152602001606481526020016001815260200186815260200160148152509150600e805480600101828162000312919062000986565b600092835260209092208491600602018151815460ff191660ff919091161781556020820151816001015560408201518160020155606082015181600301556080820151816004015560a0820151816005015550505060c060405190810160405280600260ff1681526020016103e88152602001606481526020016001815260200185815260200160328152509050600e8054806001018281620003b7919062000986565b600092835260209092208391600602018151815460ff191660ff919091161781556020820151816001015560408201518160020155606082015181600301556080820151816004015560a082015160059182015567016345785d8a0000600f5562ed4e00601055678ac7230489e8000060118190556012805461500061ff001960ff199283166001171617909155601391909155601480548216600317905560006015556016805490911690911790555062000b259a5050505050505050505050565b600062000486620009ba565b600060a0604051908101604052808881526020018781526020018681526020016000815260200160008152509150600160038054806001018281620004cc9190620009f2565b6000928352602090922085916005020181518155602082015181600101908051620004fc92916020019062000901565b5060408201518160020155606082015181600301556080820151600490910155500390508015156200059557600160038054806001018281620005409190620009f2565b60009283526020909220859160050201815181556020820151816001019080516200057092916020019062000901565b5060408201518160020155606082015181600301556080820151816004015550500390505b63ffffffff81168114620005a857600080fd5b7fdea8e87d69047e1b3cd43ad599d34e3eacfe4408b4dfc5d0f6ac6a15a468de5c8787878760405184815260408101839052600160a060020a038216606082015260806020820181815290820185818151815260200191508051906020019080838360005b83811015620006275780820151838201526020016200060d565b50505050905090810190601f168015620006555780820380516001836020036101000a031916815260200191505b509550505050505060405180910390a1620006816000858364010000000062003295620007c082021704565b9695505050505050565b81158015906200069c575060035482105b1515620006a857600080fd5b8015801590620006b9575060035481105b1515620006c557600080fd5b6001600c5403600382815481101515620006db57fe5b906000526020600020906005020160030154101515620006fa57600080fd5b6000828152600d6020526040902081905560038054829081106200071a57fe5b9060005260206000209060050201600301546001016003838154811015156200073f57fe5b9060005260206000209060050201600301819055507f0900f87897aa374bb21fa36753905fa2944dd2301242246101a9047a0ed227a082826003858154811015156200078757fe5b90600052602060002090600502016003015460405180848152602001838152602001828152602001935050505060405180910390a15050565b610400600382815481101515620007d357fe5b90600052602060002090600502016004015414151515620007f057fe5b600160a060020a03808316600081815260056020908152604080832080546001019055858352600490915290208054600160a060020a03191690911790558316156200087257600160a060020a03831660009081526005602090815260408083208054600019019055838352600690915290208054600160a060020a03191690555b7fddf252ad1be2c89b69c2b068fc378daa952ba7f163c4a11628f55a4df523b3ef838383604051600160a060020a039384168152919092166020820152604080820192909252606001905180910390a1505050565b60c060405190810160405280600060ff16815260200160008152602001600081526020016000815260200160008152602001600081525090565b828054600181600116156101000203166002900490600052602060002090601f016020900481019282601f106200094457805160ff191683800117855562000974565b8280016001018555821562000974579182015b828111156200097457825182559160200191906001019062000957565b506200098292915062000a21565b5090565b815481835581811511620009b557600602816006028360005260206000209182019101620009b5919062000a41565b505050565b60a06040519081016040528060008152602001620009d762000a85565b81526020016000815260200160008152602001600081525090565b815481835581811511620009b557600502816005028360005260206000209182019101620009b5919062000a97565b62000a3e91905b8082111562000982576000815560010162000a28565b90565b62000a3e91905b808211156200098257805460ff19168155600060018201819055600282018190556003820181905560048201819055600582015560060162000a48565b60206040519081016040526000815290565b62000a3e91905b808211156200098257600080825562000abb600183018262000ada565b5060006002820181905560038201819055600482015560050162000a9e565b50805460018160011615610100020316600290046000825580601f1062000b02575062000b22565b601f01602090049060005260206000209081019062000b22919062000a21565b50565b613ff68062000b356000396000f3006060604052600436106102a75763ffffffff7c0100000000000000000000000000000000000000000000000000000000600035041662607b7f81146102ac57806301ffc9a7146102d657806306fdde031461030e578063095ea7b3146103985780630e13dd74146103bc57806317b9ebec146103fb57806318160ddd146104145780631cced51b146104395780631d36e06c1461048457806323b872dd146104b657806329625005146104de57806332c4ee831461050357806336c5d7241461052557806339e6cdb11461053b5780633c7e7d281461055d5780634cabcfac1461057c578063545c3d55146105a15780636352211e146105c657806366d80ba5146105dc5780636914db60146105fe57806370a082311461061457806379ba50971461063357806381d12c58146106465780638462151c14610699578063890357301461070b5780638b3c99e3146107725780638da5cb5b146107885780638f1fc77c1461079b57806395d89b41146107ae57806398dc5c95146107c15780639ca08831146107e9578063a3ec138d146107ff578063a8bd9c321461081e578063a9059cbb14610834578063b121f2ac14610856578063b135707914610878578063b260c42a14610897578063b688a363146108ad578063b9f05f2f146108b5578063bf622665146108d7578063c0521d76146108ff578063c349026314610924578063c52380e91461093d578063c9d27afe1461095c578063cadf338f14610977578063cbbc9f891461098d578063cc06c359146109b2578063cf7c4367146109c5578063d4ee1d90146109ea578063db595b3b146109fd578063db85d59c14610a10578063dd62ed3e14610a72578063dd6d3ca714610a97578063e176507314610aaa578063e527cc9d14610ac0578063f2fde38b14610ae5578063f81fd7ea14610b04575b600080fd5b34156102b757600080fd5b6102c2600435610b29565b604051901515815260200160405180910390f35b34156102e157600080fd5b6102c27fffffffff0000000000000000000000000000000000000000000000000000000060043516610b8b565b341561031957600080fd5b610321610e64565b60405160208082528190810183818151815260200191508051906020019080838360005b8381101561035d578082015183820152602001610345565b50505050905090810190601f16801561038a5780820380516001836020036101000a031916815260200191505b509250505060405180910390f35b34156103a357600080fd5b6103ba600160a060020a0360043516602435610f0d565b005b34156103c757600080fd5b6103d2600435610f80565b604051921515835260ff9182166020840152166040808301919091526060909101905180910390f35b341561040657600080fd5b6103ba600435602435610ff5565b341561041f57600080fd5b610427611121565b60405190815260200160405180910390f35b341561044457600080fd5b61044c61113c565b6040518082608080838360005b83811015610471578082015183820152602001610459565b5050505090500191505060405180910390f35b341561048f57600080fd5b61049a60043561121f565b604051600160a060020a03909116815260200160405180910390f35b34156104c157600080fd5b6103ba600160a060020a036004358116906024351660443561123a565b34156104e957600080fd5b6103ba600160a060020a03600435166024356044356112aa565b341561050e57600080fd5b6102c2600160a060020a036004351660243561135a565b341561053057600080fd5b6103ba600435611458565b341561054657600080fd5b6103ba600160a060020a03600435166024356114f9565b341561056857600080fd5b610427600160a060020a03600435166115b5565b341561058757600080fd5b6103ba600160a060020a03600435166024356044356115c7565b34156105ac57600080fd5b6103ba600160a060020a0360043516602435604435611675565b34156105d157600080fd5b61049a600435611723565b34156105e757600080fd5b6102c2600160a060020a0360043516602435611747565b341561060957600080fd5b610321600435611780565b341561061f57600080fd5b610427600160a060020a0360043516611847565b341561063e57600080fd5b6103ba611862565b341561065157600080fd5b61065c6004356118f0565b604051958652602086019490945260408086019390935260ff91821660608601528116608085015290911660a083015260c0909101905180910390f35b34156106a457600080fd5b6106b8600160a060020a036004351661192d565b60405160208082528190810183818151815260200191508051906020019060200280838360005b838110156106f75780820151838201526020016106df565b505050509050019250505060405180910390f35b341561071657600080fd5b61071e61193e565b604051988952602089019790975260408089019690965260ff9485166060890152928416608088015260a0870191909152821660c086015260e0850152909116610100830152610120909101905180910390f35b341561077d57600080fd5b6103ba60043561196d565b341561079357600080fd5b61049a611cc3565b34156107a657600080fd5b610427611cd2565b34156107b957600080fd5b610321611d19565b34156107cc57600080fd5b6102c2600435600160a060020a0360243516604435606435611d8c565b34156107f457600080fd5b610427600435611e87565b341561080a57600080fd5b610427600160a060020a0360043516611e99565b341561082957600080fd5b61049a600435611eab565b341561083f57600080fd5b6103ba600160a060020a0360043516602435611ec6565b341561086157600080fd5b610427600160a060020a0360043516602435611f20565b341561088357600080fd5b610427600160a060020a0360043516611f5f565b34156108a257600080fd5b6103ba600435611fd8565b6104276120b7565b34156108c057600080fd5b6103ba600160a060020a0360043516602435612134565b34156108e257600080fd5b6102c2600160a060020a036004358116906024351660443561226b565b341561090a57600080fd5b610427600160a060020a036004351660ff60243516612442565b341561092f57600080fd5b6102c26004356024356124c2565b341561094857600080fd5b610427600160a060020a03600435166126f7565b341561096757600080fd5b6103ba6004356024351515612709565b341561098257600080fd5b610427600435612852565b341561099857600080fd5b610427600160a060020a036004358116906024351661287c565b34156109bd57600080fd5b610427612899565b34156109d057600080fd5b6103ba600160a060020a036004351660243560443561289f565b34156109f557600080fd5b61049a61297e565b3415610a0857600080fd5b61042761298d565b3415610a1b57600080fd5b610a26600435612a16565b60405197885260208801969096526040808801959095526060870193909352608086019190915260a085015260ff90811660c085015290911660e0830152610100909101905180910390f35b3415610a7d57600080fd5b610427600160a060020a0360043581169060243516612a5f565b3415610aa257600080fd5b610427612a7c565b3415610ab557600080fd5b6106b8600435612aa5565b3415610acb57600080fd5b610427600160a060020a0360043581169060243516612b02565b3415610af057600080fd5b6103ba600160a060020a0360043516612b1f565b3415610b0f57600080fd5b610427600160a060020a0360043581169060243516612b81565b600a5460009033600160a060020a03908116911614610b4457fe5b8115801590610b54575060035482105b1515610b5f57600080fd5b610b6a826002612bd9565b1515610b7257fe5b610b7b82612e8a565b1515610b8357fe5b506001919050565b60006040517f737570706f727473496e74657266616365286279746573342900000000000000815260190160405180910390207bffffffffffffffffffffffffffffffffffffffffffffffffffffffff1916827bffffffffffffffffffffffffffffffffffffffffffffffffffffffff19161480610e5e57506040517f746f6b656e4d657461646174612875696e743235362c737472696e67290000008152601d0160405180910390206040517f746f6b656e734f664f776e657228616464726573732900000000000000000000815260160160405180910390206040517f7472616e7366657246726f6d28616464726573732c616464726573732c75696e81527f7432353629000000000000000000000000000000000000000000000000000000602082015260250160405180910390206040517f7472616e7366657228616464726573732c75696e743235362900000000000000815260190160405180910390206040517f617070726f766528616464726573732c75696e74323536290000000000000000815260180160405180910390206040517f6f776e65724f662875696e743235362900000000000000000000000000000000815260100160405180910390206040517f62616c616e63654f662861646472657373290000000000000000000000000000815260120160405180910390206040517f746f74616c537570706c792829000000000000000000000000000000000000008152600d0160405180910390206040517f73796d626f6c2829000000000000000000000000000000000000000000000000815260080160405180910390206040517f6e616d6528290000000000000000000000000000000000000000000000000000815260060160405180910390201818181818181818187bffffffffffffffffffffffffffffffffffffffffffffffffffffffff1916827bffffffffffffffffffffffffffffffffffffffffffffffffffffffff1916145b92915050565b610e6c613c9e565b60008054600181600116156101000203166002900480601f016020809104026020016040519081016040528092919081815260200182805460018160011615610100020316600290048015610f025780601f10610ed757610100808354040283529160200191610f02565b820191906000526020600020905b815481529060010190602001808311610ee557829003601f168201915b505050505090505b90565b610f17338261321a565b1515610f2257600080fd5b610f2c818361323a565b7f8c5be1e5ebec7d5bd14f71427d1e84f3dd0314c0f7b2291e5b200ac8c7c3b925338383604051600160a060020a039384168152919092166020820152604080820192909252606001905180910390a15050565b600080808080851515610f9257600080fd5b6002600087815260196020526040902060060154610100900460ff1614610fb857600080fd5b50505060009283525050601b6020526040902060028101546001820154600390920154429290910191909111159160ff8083169261010090041690565b8115801590611005575060035482105b151561101057600080fd5b8015801590611020575060035481105b151561102b57600080fd5b6001600c540360038281548110151561104057fe5b90600052602060002090600502016003015410151561105e57600080fd5b6000828152600d60205260409020819055600380548290811061107d57fe5b9060005260206000209060050201600301546001016003838154811015156110a157fe5b9060005260206000209060050201600301819055507f0900f87897aa374bb21fa36753905fa2944dd2301242246101a9047a0ed227a082826003858154811015156110e857fe5b90600052602060002090600502016003015460405180848152602001838152602001828152602001935050505060405180910390a15050565b6003546000908181111561113457600019015b8091505b5090565b611144613cb0565b600080825260208201819052604082018190526060820181905260015b60035481101561121a57600380548290811061117957fe5b9060005260206000209060050201600301549150600c548260ff1610156111e75760038054829081106111a857fe5b60009182526020909120600590910201548360ff8416600481106111c857fe5b6020020151018360ff8416600481106111dd57fe5b6020020152611212565b60038054829081106111f557fe5b600091825260209091206005909102015460608401510160608401525b600101611161565b505090565b600460205260009081526040902054600160a060020a031681565b600160a060020a038216151561124f57600080fd5b30600160a060020a031682600160a060020a03161415151561127057600080fd5b61127a3382613275565b151561128557600080fd5b61128f838261321a565b151561129a57600080fd5b6112a5838383613295565b505050565b600a5433600160a060020a039081169116146112c257fe5b6112cc838361321a565b15156112d757600080fd5b806003838154811015156112e757fe5b9060005260206000209060050201600301819055507f48ed1b5769aee6cf16cda3da1db2a0acf83c194c9d2a98ebeff4904567af58f68383836040518084600160a060020a0316600160a060020a03168152602001838152602001828152602001935050505060405180910390a1505050565b6000808080600160a060020a038616151561137457600080fd5b84151561138057600080fd5b33925061138c836133b3565b9150611397866133b3565b9050818114156113a657600080fd5b8115156113b257600080fd5b8015156113be57600080fd5b600160a060020a038381166000818152600860209081526040808320948b168084529482528083208690559282528282208690556009815282822093825292909252908190208690557fe051949e9a44e2e9c21ee7d1c7b03ef0bf501aa3b7c4616a8543f229c0bede7a908790879051600160a060020a03909216825260208201526040908101905180910390a150600195945050505050565b6000811580159061146a575060035482105b151561147557600080fd5b61147e826133fd565b9050801561148b57600080fd5b6000828152600d6020526040812055600380547f399c331be71add502e95a2402ba7370605a945c1c6c1dc01c5e30f7e896cfa56918491829081106114cc57fe5b90600052602060002090600502016003015460405191825260208201526040908101905180910390a15050565b600a5433600160a060020a0390811691161461151157fe5b61151b828261321a565b151561152657600080fd5b600380548290811061153457fe5b90600052602060002090600502016003015460010160038281548110151561155857fe5b9060005260206000209060050201600301819055507fb6ffa2bc58069f160ac94855c396bc8a7c591ae4b9e69d78cc004ad2e4d70d858282604051600160a060020a03909216825260208201526040908101905180910390a15050565b60176020526000908152604090205481565b6000600160a060020a03841615156115de57600080fd5b8115156115ea57600080fd5b50818015156115ff576115fc846133b3565b90505b80151561160b57600080fd5b61161684828461345b565b7f8ee078ba6dd38678f9ffdc8f1df2d512559df0cae2db32c829459127e10031978484846040518084600160a060020a0316600160a060020a03168152602001838152602001828152602001935050505060405180910390a150505050565b6000600160a060020a038416151561168c57600080fd5b81151561169857600080fd5b50818015156116ad576116aa846133b3565b90505b8015156116b957600080fd5b6116c4848284613549565b7ff3d0e22890d929d2a1cd5ca9e5f6498c4271ce2f0223ab4092297c2d11c9ef758484846040518084600160a060020a0316600160a060020a03168152602001838152602001828152602001935050505060405180910390a150505050565b600081815260046020526040812054600160a060020a0316801515610e5e57600080fd5b600080600160a060020a038416151561175f57600080fd5b82151561176b57600080fd5b503361177881858561226b565b949350505050565b611788613c9e565b600380548390811061179657fe5b90600052602060002090600502016001018054600181600116156101000203166002900480601f01602080910402602001604051908101604052809291908181526020018280546001816001161561010002031660029004801561183b5780601f106118105761010080835404028352916020019161183b565b820191906000526020600020905b81548152906001019060200180831161181e57829003601f168201915b50505050509050919050565b600160a060020a031660009081526005602052604090205490565b600b5433600160a060020a0390811691161461187d57600080fd5b600b54600a54600160a060020a0391821691167f343765429aea5a34b3ff6a3785a98a5abb2597aca87bfbb58632c173d585373a60405160405180910390a3600b8054600a805473ffffffffffffffffffffffffffffffffffffffff19908116600160a060020a03841617909155169055565b601b6020526000908152604090208054600182015460028301546003909301549192909160ff808216916101008104821691620100009091041686565b611935613c9e565b610e5e8261360b565b600f5460105460115460125460135460145460155460165460ff80861695610100900481169493811692911689565b600080808084151561197e57600080fd5b611988338661321a565b151561199357600080fd5b6002600086815260196020526040902060060154610100900460ff16146119b957600080fd5b6000858152601b6020526040902060028101546001820154919550019250428311156119e457600080fd5b600384015460ff6101008204811691161115611ad457601254845461010090910460ff1690606402811515611a1557fe5b049150600160a060020a03331682156108fc0283604051600060405180830381858888f193505050501515611a4957600080fd5b600085815260196020526040902060068101805461ff0019166103001790556004018054830190557f261826fbdc11ee0da48a5356542bcb46786deaed4c215b871d3df7a03652262d33868460035b604051600160a060020a039094168452602084019290925260408084019190915260ff90911660608301526080909101905180910390a1611c31565b600384015460ff808216610100909204161480611b0c5750601454600385015460ff9182166101008204831691831691909101909116105b15611bb2576000858152601960205260409081902060030154600160a060020a0333169181156108fc02919051600060405180830381858888f193505050501515611b5657600080fd5b600085815260196020526040902060068101805461ff001916610500179055600381015460049091018054820190557f261826fbdc11ee0da48a5356542bcb46786deaed4c215b871d3df7a03652262d90339087906005611a98565b600085815260196020526040808220600601805461ff0019166104001790557f261826fbdc11ee0da48a5356542bcb46786deaed4c215b871d3df7a03652262d91339188919060049051600160a060020a039094168452602084019290925260408084019190915260ff90911660608301526080909101905180910390a15b600384015462010000900460ff16811015611c7f57601a6000600486018360058110611c5957fe5b0154600160a060020a031681526020810191909152604001600090812055600101611c31565b6000858152601b60205260408120818155600181018290556002810182905560038101805462ffffff1916905590611cba6004830182613cd7565b50505050505050565b600a54600160a060020a031681565b600354600090819060015b81811015611d11576003805482908110611cf357fe5b60009182526020909120600590910201549290920191600101611cdd565b509092915050565b611d21613c9e565b60018054600181600116156101000203166002900480601f016020809104026020016040519081016040528092919081815260200182805460018160011615610100020316600290048015610f025780601f10610ed757610100808354040283529160200191610f02565b600080600160a060020a0385161515611da457600080fd5b85841415611db157600080fd5b851515611dbd57600080fd5b831515611dc957600080fd5b821515611dd557600080fd5b5033600160a060020a038181166000818152600860209081526040808320948a168084529482528083208990559282528282208a90556009815282822093825292909252908190208490557fef4beaa380feab20776f162f92bbf15b04c59f8fd4e8ab2508b8d29fed7dfd6190879087908790879051938452600160a060020a03909216602084015260408084019190915260608301919091526080909101905180910390a150600195945050505050565b600d6020526000908152604090205481565b601a6020526000908152604090205481565b600660205260009081526040902054600160a060020a031681565b600160a060020a0382161515611edb57600080fd5b30600160a060020a031682600160a060020a031614151515611efc57600080fd5b611f06338261321a565b1515611f1157600080fd5b611f1c338383613295565b5050565b6000611f2c838361321a565b1515611f3757600080fd5b6003805483908110611f4557fe5b906000526020600020906005020160030154905092915050565b6000611f69613c9e565b6000806000611f778661360b565b93506000925083519150600090505b81811015611fce576003848281518110611f9c57fe5b9060200190602002015181548110611fb057fe5b60009182526020909120600590910201549290920191600101611f86565b5090949350505050565b801515611fe457600080fd5b611fee338261321a565b1515611ff957600080fd5b600081815260196020526040902060030154151561201657600080fd5b61040060038281548110151561202857fe5b6000918252602080832060059283020160040193909355838252601990925260409081902060068101805461ff00191661010017905542600182015560038101549201547ff5d2d36fd2c60192fd8f874c962737f1858ff797bf9865d071ade33eeee007019284929091905180848152602001838152602001828152602001935050505060405180910390a150565b33600160a060020a0381166000908152601860205260408120549091349182158015906120e65750600f548310155b15156120f157600080fd5b8015156120fd57600080fd5b600160a060020a038216600090815260176020526040902054831461212157600080fd5b61212c828285613700565b935050505090565b600a546000908190819033600160a060020a0390811691161461215357fe5b600160a060020a038516151561216857600080fd5b83151561217457600080fd5b6002600085815260196020526040902060060154610100900460ff161461219a57600080fd5b6000848152601b60205260409020805490935015156121b857600080fd5b60028301546001840154019150428210156121d257600080fd5b50600382015460165460ff620100009092048216911681106121f357600080fd5b846004840160ff83166005811061220657fe5b018054600160a060020a0392831673ffffffffffffffffffffffffffffffffffffffff199091161790556003909301805460ff6201000080830482166001019091160262ff0000199091161790555050919091166000908152601a6020526040902055565b600080808080600160a060020a038716151561228657600080fd5b85151561229257600080fd5b50505050600160a060020a03848116600081815260086020908152604080832094881680845294825280832054938352808320546009835281842095845294909152902054869290818314156122e757600080fd5b8215156122f357600080fd5b8115156122ff57600080fd5b80151561230b57600080fd5b8581101561231857600080fd5b612325848389868a6138bd565b600160a060020a038481166000908152600960209081526040808320938b16835292905220805487900390819055151561239d57600160a060020a038481166000818152600960209081526040808320948c168084529482528083208390559282526008815282822090528181208190559182528120555b600160a060020a038085166000908152600960209081526040808320938b168352929052819020547fa085ba1c72fda1f13ecb6e0347284ac7d016a73b7a47c0ba151368bbe5ce2db9918a9185918b9188918c919051600160a060020a0396871681526020810195909552929094166040808501919091526060840191909152608083019390935260a082015260c001905180910390a1506001979650505050505050565b600061244c613c9e565b60006124578561360b565b915060009250600090505b81518110156124ba578360ff166019600084848151811061247f57fe5b906020019060200201518152602081019190915260400160002060060154610100900460ff1614156124b2576001909201915b600101612462565b505092915050565b60008060006124cf613cfa565b8515156124db57600080fd5b6124e5338761321a565b15156124f057600080fd5b8415156124fc57600080fd5b6001600087815260196020526040902060060154610100900460ff161461252257600080fd5b60125460008781526019602052604090206006015460ff91821691161061254857600080fd5b601254610100900460ff166064860281151561256057fe5b601354600089815260196020526040902060040154929091049450908401111561258957600080fd5b60008681526019602052604090206002810154600190910154019150428210156125b257600080fd5b84815242602080830191909152601554604080840191909152600060a08401819052888152601b90925290208190815181556020820151816001015560408201518160020155606082015160038201805460ff191660ff9290921691909117905560808201518160030160016101000a81548160ff021916908360ff16021790555060a08201518160030160026101000a81548160ff021916908360ff16021790555060c082015161266a9060048301906005613d47565b50505060008681526019602052604090819020600601805461020061ff001960ff198316600160ff948516018416171617918290557fb3ef0c14cd9ed6533151b9a921ddb33f8716dd3593254ffc741ae770313e3bea9289928992169051928352602083019190915260ff166040808301919091526060909101905180910390a150600195945050505050565b60186020526000908152604090205481565b60008083151561271857600080fd5b600160a060020a0333166000908152601a6020526040902054841461273c57600080fd5b60008481526019602052604090206006015460ff6101009091041660021461276357600080fd5b50506000828152601b6020526040902060028101546001820154014281101561278b57600080fd5b82156127ae5760038201805460ff8082166001011660ff199091161790556127d0565b60038201805460ff61010080830482166001019091160261ff00199091161790555b601a600033600160a060020a0316600160a060020a03168152602001908152602001600020600090557f8d85a70fd2c5d140a4a01143492d27ff82cfad4cead313e66c53f39b0feb5e0f338585604051600160a060020a039093168352602083019190915215156040808301919091526060909101905180910390a150505050565b600060038281548110151561286357fe5b9060005260206000209060050201600001549050919050565b600960209081526000928352604080842090915290825290205481565b600c5481565b600a5433600160a060020a039081169116146128b757fe5b600160a060020a03831615156128cc57600080fd5b8115156128d857600080fd5b80158015906128e95750600f548110155b15156128f457600080fd5b600160a060020a03831660009081526017602090815260408083208490556018909152908190208390557f21619a95128e7e5c5367774b6479b6edbc059210239e39bbd50dbae00cfe097290849084908490518084600160a060020a0316600160a060020a03168152602001838152602001828152602001935050505060405180910390a1505050565b600b54600160a060020a031681565b33600160a060020a03811660009081526017602090815260408083205460189092529182902054909290917fdafdd0f2a3af66f1d9ab59928d5fb2e9eb5428db4b63362502d21e2511624ff7919083908590518084600160a060020a0316600160a060020a03168152602001838152602001828152602001935050505060405180910390a15090565b6019602052600090815260409020805460018201546002830154600384015460048501546005860154600690960154949593949293919290919060ff8082169161010090041688565b600760209081526000928352604080842090915290825290205481565b600060036000815481101515612a8e57fe5b906000526020600020906005020160000154905090565b612aad613c9e565b6000828152600d6020526040812054905b600c54811015612afb5781838281518110612ad557fe5b60209081029091018101919091526000928352600d905260409091205490600101612abe565b5050919050565b600860209081526000928352604080842090915290825290205481565b600a5433600160a060020a03908116911614612b3757fe5b600a54600160a060020a0382811691161415612b5257600080fd5b600b805473ffffffffffffffffffffffffffffffffffffffff1916600160a060020a0392909216919091179055565b6000600160a060020a0382161515612b9857600080fd5b600160a060020a0383161515612bad57600080fd5b50600160a060020a03918216600090815260096020908152604080832093909416825291909152205490565b6000806000806000612beb8787613a4d565b9350612bf6846133fd565b9250612c028787613a7b565b915081831015612c6957612c168785610ff5565b7f69186e91a26c2cd1f67397df408ddeb0db9249dbd6e2a428ad8ae0d59ba3bc88878588604051928352602083019190915260ff166040808301919091526060909101905180910390a160019450612e80565b600e805460ff8816908110612c7a57fe5b906000526020600020906006020160010154600e8760ff16815481101515612c9e57fe5b9060005260206000209060060201600301541415612cbf5760009450612e80565b612db16000600386815481101515612cd357fe5b90600052602060002090600502016001018054600181600116156101000203166002900480601f016020809104026020016040519081016040528092919081815260200182805460018160011615610100020316600290048015612d785780601f10612d4d57610100808354040283529160200191612d78565b820191906000526020600020905b815481529060010190602001808311612d5b57829003601f168201915b5050505050600387815481101515612d8c57fe5b6000918252602090912060026005909202010154600a54600160a060020a0316613aac565b90508015612e7b57612dc68160018803612bd9565b15612e7b57612dd58782610ff5565b7f69186e91a26c2cd1f67397df408ddeb0db9249dbd6e2a428ad8ae0d59ba3bc88878288604051928352602083019190915260ff166040808301919091526060909101905180910390a180600e8760ff16815481101515612e3257fe5b6000918252602090912060046006909202010155600e805460ff8816908110612e5757fe5b60009182526020909120600360069092020101805460019081019091559450612e80565b600094505b5050505092915050565b6000808080808080808815801590612ea3575060035489105b1515612eae57600080fd5b6001600c540360038a815481101515612ec357fe5b906000526020600020906005020160030154141515612ee157600080fd5b6000898152600d60205260409020549650861515612efe57600080fd5b6000878152600d60205260409020549550851515612f1b57600080fd5b6000868152600d60205260409020549450841515612f3857600080fd5b600e80546002908110612f4757fe5b90600052602060002090600602016005015460038a815481101515612f6857fe5b906000526020600020906005020160000154606402811515612f8657fe5b049350831515612f9557600080fd5b600e80546001908110612fa457fe5b90600052602060002090600602016005015460038a815481101515612fc557fe5b906000526020600020906005020160000154606402811515612fe357fe5b049250821515612ff257600080fd5b600e8054600090811061300157fe5b90600052602060002090600602016005015460038a81548110151561302257fe5b90600052602060002090600502016000015460640281151561304057fe5b04915081151561304f57600080fd5b81838560038c81548110151561306157fe5b6000918252602090912060059091020154030303905080151561308357600080fd5b8360038881548110151561309357fe5b906000526020600020906005020160000154016003888154811015156130b557fe5b600091825260209091206005909102015560038054849190889081106130d757fe5b906000526020600020906005020160000154016003878154811015156130f957fe5b6000918252602090912060059091020155600380548391908790811061311b57fe5b9060005260206000209060050201600001540160038681548110151561313d57fe5b6000918252602082206005909102019190915560038054839290811061315f57fe5b906000526020600020906005020160000154016003600081548110151561318257fe5b60009182526020822060059091020191909155600380548b9081106131a357fe5b60009182526020909120600590910201557fcfd3c3fcdcb63bcee48ff9a9ec28351afef5ba4fc9b5a8f46d5aa65565a3b1a38983858785604051808681526020018581526020018481526020018381526020018281526020019550505050505060405180910390a150600198975050505050505050565b600090815260046020526040902054600160a060020a0391821691161490565b600091825260066020526040909120805473ffffffffffffffffffffffffffffffffffffffff1916600160a060020a03909216919091179055565b600090815260066020526040902054600160a060020a0391821691161490565b6104006003828154811015156132a757fe5b906000526020600020906005020160040154141515156132c357fe5b600160a060020a0380831660008181526005602090815260408083208054600101905585835260049091529020805473ffffffffffffffffffffffffffffffffffffffff1916909117905583161561335e57600160a060020a0383166000908152600560209081526040808320805460001901905583835260069091529020805473ffffffffffffffffffffffffffffffffffffffff191690555b7fddf252ad1be2c89b69c2b068fc378daa952ba7f163c4a11628f55a4df523b3ef838383604051600160a060020a039384168152919092166020820152604080820192909252606001905180910390a1505050565b60006133bd613c9e565b60006133c88461360b565b9150815190508015156133de5760009250612afb565b816000815181106133eb57fe5b90602001906020020151949350505050565b600080808315801590613411575060035484105b151561341c57600080fd5b613424611121565b915060009250600190505b818111612afb576000818152600d6020526040902054841415613453576001909201915b60010161342f565b613465838361321a565b151561347057600080fd5b80151561347c57600080fd5b8060038381548110151561348c57fe5b600091825260209091206005909102015410156134a857600080fd5b806003838154811015156134b857fe5b906000526020600020906005020160000154036003838154811015156134da57fe5b60009182526020909120600590910201557f45dacd427fd388bf162986dbc958cdcf160c31b40efe076907cff377b9857c798383836040518084600160a060020a0316600160a060020a03168152602001838152602001828152602001935050505060405180910390a1505050565b613553838361321a565b151561355e57600080fd5b80151561356a57600080fd5b8060038381548110151561357a57fe5b9060005260206000209060050201600001540160038381548110151561359c57fe5b60009182526020909120600590910201557f20f4934a3b4928cca0e51f3f1eaac12dee9af151a8a8ba5a424a89d93f6bf53d8383836040518084600160a060020a0316600160a060020a03168152602001838152602001828152602001935050505060405180910390a1505050565b613613613c9e565b600061361d613c9e565b60008080600160a060020a038716151561363657600080fd5b61363f87611847565b945084151561366f5760006040518059106136575750595b908082528060200260200182016040525095506136f6565b8460405180591061367d5750595b90808252806020026020018201604052509350613698611121565b925060009150600190505b8281116136f257600081815260046020526040902054600160a060020a03888116911614156136ea57808483806001019450815181106136df57fe5b602090810290910101525b6001016136a3565b8395505b5050505050919050565b60008061370b613daa565b61374b8460408051908101604052600c81527f43726f7764737572616e636500000000000000000000000000000000000000006020820152600089613aac565b91506101006040519081016040528042815260200160008152602001600f60010154815260200185815260200160008152602001868152602001600060ff1681526020016000600581111561379c57fe5b60ff16905260008381526019602052604090209091508190815181556020820151816001015560408201518160020155606082015181600301556080820151816004015560a0820151816005015560c082015160068201805460ff191660ff9290921691909117905560e08201516006909101805460ff929092166101000261ff00199092169190911790555061383282610b29565b507fbca387acb0ba7d06e329c4372885bb664f19a98153ccf3e74e56c136bf0e88c48683866040518084600160a060020a0316600160a060020a03168152602001838152602001828152602001935050505060405180910390a150600160a060020a039490941660009081526017602090815260408083208390556018909152812055509192915050565b6138c7858561321a565b15156138d257600080fd5b6138dc838361321a565b15156138e757600080fd5b8015156138f357600080fd5b8382141561390057600080fd5b8060038581548110151561391057fe5b6000918252602090912060059091020154101561392c57600080fd5b61040060038581548110151561393e57fe5b9060005260206000209060050201600401541415151561395d57600080fd5b8060038581548110151561396d57fe5b9060005260206000209060050201600001540360038581548110151561398f57fe5b600091825260209091206005909102015560038054829190849081106139b157fe5b906000526020600020906005020160000154016003838154811015156139d357fe5b60009182526020909120600590910201557f6d401b913d27047ecd2042f0331e2354d30e664920b31480dc71955edb996c388585858585604051600160a060020a0395861681526020810194909452919093166040808401919091526060830193909352608082015260a001905180910390a15050505050565b6000600e8260ff16815481101515613a6157fe5b906000526020600020906006020160040154905092915050565b60006001600e8360ff16815481101515613a9157fe5b90600052602060002090600602016002015403905092915050565b6000613ab6613df6565b600060a0604051908101604052808881526020018781526020018681526020016000815260200160008152509150600160038054806001018281613afa9190613e2c565b6000928352602090922085916005020181518155602082015181600101908051613b28929160200190613e58565b506040820151816002015560608201518160030155608082015160049091015550039050801515613bbc57600160038054806001018281613b699190613e2c565b6000928352602090922085916005020181518155602082015181600101908051613b97929160200190613e58565b5060408201518160020155606082015181600301556080820151816004015550500390505b63ffffffff81168114613bce57600080fd5b7fdea8e87d69047e1b3cd43ad599d34e3eacfe4408b4dfc5d0f6ac6a15a468de5c8787878760405184815260408101839052600160a060020a038216606082015260806020820181815290820185818151815260200191508051906020019080838360005b83811015613c4b578082015183820152602001613c33565b50505050905090810190601f168015613c785780820380516001836020036101000a031916815260200191505b509550505050505060405180910390a1613c9460008583613295565b9695505050505050565b60206040519081016040526000815290565b60806040519081016040526004815b6000815260200190600190039081613cbf5790505090565b506000815560010160008155600101600081556001016000815560010160009055565b61016060405190810160405280600081526020016000815260200160008152602001600060ff168152602001600060ff168152602001600060ff168152602001613d42613ed2565b905290565b8260058101928215613d9e579160200282015b82811115613d9e578251825473ffffffffffffffffffffffffffffffffffffffff1916600160a060020a039190911617825560209290920191600190910190613d5a565b50611138929150613efa565b61010060405190810160405280600081526020016000815260200160008152602001600081526020016000815260200160008152602001600060ff168152602001600060ff1681525090565b60a06040519081016040528060008152602001613e11613c9e565b81526020016000815260200160008152602001600081525090565b8154818355818115116112a5576005028160050283600052602060002091820191016112a59190613f2b565b828054600181600116156101000203166002900490600052602060002090601f016020900481019282601f10613e9957805160ff1916838001178555613ec6565b82800160010185558215613ec6579182015b82811115613ec6578251825591602001919060010190613eab565b50611138929150613f69565b60a06040519081016040526005815b600081526000199091019060200181613ee15790505090565b610f0a91905b8082111561113857805473ffffffffffffffffffffffffffffffffffffffff19168155600101613f00565b610f0a91905b80821115611138576000808255613f4b6001830182613f83565b50600060028201819055600382018190556004820155600501613f31565b610f0a91905b808211156111385760008155600101613f6f565b50805460018160011615610100020316600290046000825580601f10613fa95750613fc7565b601f016020900490600052602060002090810190613fc79190613f69565b505600a165627a7a7230582061c3a17150e126e0962affe9d5491d727f19302f2e5b81723015ef461a30189d0029",
  "source": "// \n// MIT License\n// \n// Copyright (c) 2018 REGA Risk Sharing\n//   \n// Permission is hereby granted, free of charge, to any person obtaining a copy\n// of this software and associated documentation files (the \"Software\"), to deal\n// in the Software without restriction, including without limitation the rights\n// to use, copy, modify, merge, publish, distribute, sublicense, and/or sell\n// copies of the Software, and to permit persons to whom the Software is\n// furnished to do so, subject to the following conditions:\n// \n// The above copyright notice and this permission notice shall be included in all\n// copies or substantial portions of the Software.\n// \n// THE SOFTWARE IS PROVIDED \"AS IS\", WITHOUT WARRANTY OF ANY KIND, EXPRESS OR\n// IMPLIED, INCLUDING BUT NOT LIMITED TO THE WARRANTIES OF MERCHANTABILITY,\n// FITNESS FOR A PARTICULAR PURPOSE AND NONINFRINGEMENT. IN NO EVENT SHALL THE\n// AUTHORS OR COPYRIGHT HOLDERS BE LIABLE FOR ANY CLAIM, DAMAGES OR OTHER\n// LIABILITY, WHETHER IN AN ACTION OF CONTRACT, TORT OR OTHERWISE, ARISING FROM,\n// OUT OF OR IN CONNECTION WITH THE SOFTWARE OR THE USE OR OTHER DEALINGS IN THE\n// SOFTWARE.\n// \n// Author: Sergei Sevriugin\n// Version: 0.0.1\n//  \n\npragma solidity ^0.4.17;\n\nimport './TokenPool.sol';\n/// TokenCrowdsurance is ERC721SmartToken for crowdsurance products. \n/// Crowdsurance, meaning people unite in communities to provide a guarantee of compensation for unexpected loss. \n/// Using ERC721SmartToken crowdsurance product can be 'tokenized' and can be availible as ERC20 token.\ncontract TokenCrowdsurance is TokenPool {\n    /// Crowdsurance token ERC721 extention\n    /// @param timeStamp join time stemp\n    /// @param activated coverage activation time stamp\n    /// @param duration crowdsurance coverage duration\n    /// @param amount join amount\n    /// @param paid paid claim amount\n    /// @param score member score\n    /// @param claimNumber number of claims\n    /// @param status crowdsurance status\n    struct Crowdsurance {\n        uint        timeStamp;          // join time stamp\n        uint        activated;          // coverage activation time stamp\n        uint        duration;           // risk coverage duration\n        uint256     amount;             // join amount\n        uint256     paid;               // paid amount\n        uint256     score;              // score\n        uint8       claimNumber;        // number of claims\n        uint8       status;             // crowdsurance status\n    }\n    /// Crowdsurance claim\n    /// @param amount claim amount\n    /// @param timeStamp claim time stamp\n    /// @param duration voting period\n    /// @param positive votes to pay claims\n    /// @param negative votes not to pay\n    /// @param number member number\n    /// @param members\n    struct Request {\n        uint256     amount;             // claim amount\n        uint        timeStamp;          // claim time stamp\n        uint        duration;           // voting duration\n        uint8       positive;           // number of positive votes\n        uint8       negative;           // number of negative votes\n        uint8       number;             // juries number\n        address[5]  members;            // jury members \n    }\n    /// Crowdsurance parameters\n    /// @param joinAmount default join amount\n    /// @param coverageDuration default coverage duration\n    /// @param maxClaimAmount maximum claim amount\n    /// @param maxClaimNumber maximum number of claims\n    /// @param paymentRatio %% from claim to be paid\n    /// @param maxPaymentAmount maximum paid amount for all claims for the covarage\n    /// @param minJuriesNumber minimum number of juries to coint votes\n    /// @param votingDuration duration of jury voting process in sec\n    /// @param juriesNumber default juriesNumber - must correspond with Request members array lenght\n    struct Parameters {\n        uint256     joinAmount;         // default join amount\n        uint        coverageDuration;   // coverage duration\n        uint256     maxClaimAmount;     // max claim amount\n        uint8       maxClaimNumber;     // max claim number for the contract\n        uint8       paymentRatio;       // claim to payment patio\n        uint256     maxPaymentAmount;   // max payment amount for the contract\n        uint8       minJuriesNumber;    // min juries number to count voting \n        uint        votingDuration;     // juries voting duration\n        uint8       juriesNumber;       // number of juries\n    }\n    /// Crowdsurance parameters\n    Parameters public parameters;\n    mapping (address => uint256) public addressToAmount;            // address to join amount mapping\n    mapping (address => uint256) public addressToScore;             // address to scoring mapping\n    mapping (uint256 => Crowdsurance) public extensions;            // crowdsurance extension mapping\n    mapping (address => uint256) public voters;                     // crowdsurance voting\n    mapping (uint256 => Request) public requests;                   // crowdsurance token Id to Claim\n    /// TokenCrowdsurance Apply event\n    /// @param member new member address\n    /// @param score member score\n    /// @param amount need to pay to join\n    event Apply(address member, uint256 score, uint256 amount);\n    /// TokenCrowdsurance Join event\n    /// @param member new member addrsss\n    /// @param id NFT token id for crowdsurance token\n    /// @param amount paid to join\n    event Join(address member, uint256 id, uint256 amount);\n    /// TokenCrowdsurance Scoring event\n    /// @param member new member addrsss\n    /// @param score member scoring\n    /// @param amount join amount\n    event Scoring(address member, uint256 score, uint256 amount);\n    /// TokenCrowdsurance Activate event\n    /// @param id NFT Id to activate\n    /// @param amount acowdsurance join amount\n    /// @param score member scoring\n    event Activate(uint256 id, uint256 amount, uint256 score);\n    /// TokenCrowdsurance Activate event\n    /// @param id NFT Id to activate\n    /// @param claim claim amount\n    /// @param number total claims number incuding this one\n    event Claim(uint256 id, uint256 claim, uint8 number);\n    /// TokenCrowdsurance vote event\n    /// @param jury voter\n    /// @param id NFT token id to vote\n    /// @param positive voting result\n    event Vote(address jury, uint256 id, bool positive);\n    /// TokenCrowdsurance payment event\n    /// @param reciever reciever of the p[ayment\n    /// @param id NFT id for crowdsurance token\n    /// @param amount mayment amount\n    /// @param status payment status (Approved, Rejected, Closed)\n    event Payment(address reciever, uint256 id, uint256 amount, uint8 status);\n    /// TokenCrowdsurance Status\n    enum Status {Init, Active, Claim, Approved, Rejected, Closed}\n    /// scoring function\n    /// @param _member address of the member to score\n    /// @param _score member scoroing result\n    /// @param _amount join amount calculated based on score\n    function scoring(address _member, uint256 _score, uint256 _amount) ownerOnly public {\n        require(_member != address(0));\n        require(_score != uint256(0));\n        require(_amount != uint256(0) && _amount >= parameters.joinAmount);\n        addressToAmount[_member] = _amount;\n        addressToScore[_member] = _score;\n        // emit scoring event\n        Scoring(_member, _score, _amount);\n    }\n    /// apply function \n    /// @return join ampount - must be not zero to join\n    function apply() public view returns(uint256 amount) {\n        amount = addressToAmount[msg.sender];\n        uint256 score = addressToScore[msg.sender];\n        // emit Apply event\n        Apply(msg.sender, score, amount);\n    }\n    function _join(address _member, uint256 _score, uint256 _amount) internal returns(uint256) {\n        uint256 id = _createNFT(_amount, \"Crowdsurance\", uint256(0), _member);\n        // Create extension \n        Crowdsurance memory _crowdsurance = Crowdsurance ({\n            timeStamp: now,\n            activated: uint(0),\n            duration: parameters.coverageDuration,\n            amount: _amount,\n            paid: uint256(0),\n            score: _score,\n            claimNumber: uint8(0),\n            status: uint8(Status.Init)\n        });\n        // add extension\n        extensions[id] = _crowdsurance;\n        // now insert in the pool\n        insertPool(id);\n        // emit event \n        Join(_member, id, _amount);\n        // clear mapping\n        delete addressToAmount[_member];\n        delete addressToScore[_member];\n        // return NFT token ID\n        return id;\n    } \n    /// join function\n    /// @return cowdsuranceId NFT token ID for created crowdsurance\n    function join() public payable returns(uint256 cowdsuranceId) {\n        uint256 amount = msg.value;\n        address member = msg.sender;\n        uint256 score = addressToScore[member];\n        require(amount != uint256(0) && amount >= parameters.joinAmount);\n        require(score != uint256(0));\n        require(amount == addressToAmount[member]);\n        // call internal _join after all checkups \n        cowdsuranceId = _join(member, score, amount);\n    }\n    /// activate function \n    /// @param _id NFT token ID to activate\n    function activate(uint256 _id) public {\n        require(_id != uint256(0));\n        require(_owns(msg.sender, _id));\n        require(extensions[_id].amount != uint256(0));\n\n        nfts[_id].state = StateBlocked; // block transfer\n        extensions[_id].status = uint8(Status.Active);\n        extensions[_id].activated = now;\n        // emit event\n        Activate(_id, extensions[_id].amount, extensions[_id].score);\n    }\n    /// claim function\n    /// @param _id NFT token ID to claim payment \n    /// @param _claim claim amount\n    function claim(uint256 _id, uint256 _claim) public returns(bool) {\n        // check all conditions before accept the claim\n        require(_id != uint256(0));\n        require(_owns(msg.sender, _id));\n        require(_claim != uint256(0));\n        require(extensions[_id].status == uint(Status.Active));\n        require(extensions[_id].claimNumber < parameters.maxClaimNumber);\n        uint256 _payment = _claim * 100 / parameters.paymentRatio;\n        require((extensions[_id].paid + _payment) <= parameters.maxPaymentAmount);\n        uint coverageEnd = extensions[_id].activated + extensions[_id].duration;\n        require(coverageEnd >= now);\n        // now ready to accept the claim request\n        Request memory _request;\n        _request.amount = _claim;\n        _request.timeStamp = now;\n        _request.duration = parameters.votingDuration;\n        _request.number = uint8(0);\n        // change status\n        requests[_id] = _request;\n        extensions[_id].claimNumber++;\n        extensions[_id].status = uint8(Status.Claim);\n        // emit event\n        Claim(_id, _claim, extensions[_id].claimNumber);\n        return true;\n    }\n    /// add voter function\n    /// @param _jury voter address\n    /// @param _id NFT id for claim voting \n    function addVoter(address _jury, uint256 _id) ownerOnly public {\n        require(_jury != address(0));\n        require(_id != uint256(0));\n        require(extensions[_id].status == uint(Status.Claim));\n        Request storage _request = requests[_id];\n        require(_request.amount != uint256(0));\n        uint votingEnd = _request.timeStamp + _request.duration;\n        require(votingEnd >= now);\n        uint8 _number = _request.number;\n        require(_number < parameters.juriesNumber);\n\n        _request.members[_number] = _jury;\n        _request.number++;\n        voters[_jury] = _id;\n    }\n    /// vote function\n    /// @param _id NFT id for claim voting\n    /// @param _positive true if positive to pay claims\n    function vote(uint256 _id, bool _positive) public {\n        require(_id != uint256(0));\n        require(_id == voters[msg.sender]);\n        require(extensions[_id].status == uint8(Status.Claim));\n        Request storage _request = requests[_id];\n        uint votingEnd = _request.timeStamp + _request.duration;\n        require(votingEnd >= now);\n\n        if(_positive) {\n            _request.positive++;\n        } else {\n            _request.negative++;\n        }\n        delete voters[msg.sender]; // deliting prevent the second time voting\n        // emit event\n        Vote(msg.sender, _id, _positive);\n    }\n    /// check claim voting status\n    /// @param _id NFT token to check\n    function votingStatus(uint256 _id) public view returns (bool votingEnded, uint8 positive, uint8 negative) {\n        require(_id != uint256(0));\n        require(extensions[_id].status == uint(Status.Claim));\n        Request storage _request = requests[_id];\n        uint votingEnd = _request.timeStamp + _request.duration;\n        votingEnded = votingEnd <= now;\n        positive = _request.positive;\n        negative = _request.negative;\n    }\n    /// get payment function\n    /// @param _id NFT token to get payment\n    function payment(uint256 _id) public {\n        require(_id != uint256(0));\n        require(_owns(msg.sender, _id));\n        require(extensions[_id].status == uint(Status.Claim));\n        Request storage _request = requests[_id];\n        uint votingEnd = _request.timeStamp + _request.duration;\n        require(votingEnd <= now);\n        if(_request.positive > _request.negative) {\n            // pay claims\n            uint256 _payment = _request.amount * 100 / parameters.paymentRatio;\n            msg.sender.transfer(_payment);\n            extensions[_id].status = uint8(Status.Approved);\n            extensions[_id].paid = extensions[_id].paid + _payment;\n            // emit event\n            Payment(msg.sender, _id, _payment, uint8(Status.Approved));\n        } else if   (_request.positive == _request.negative || \n                    (_request.positive + _request.negative) < parameters.minJuriesNumber ) {\n            // pay back join amount\n            msg.sender.transfer(extensions[_id].amount);\n            extensions[_id].status = uint8(Status.Closed);\n            extensions[_id].paid = extensions[_id].paid + extensions[_id].amount;\n            // emit event\n            Payment(msg.sender, _id, extensions[_id].amount, uint8(Status.Closed));\n        } else {\n            // no payment\n            extensions[_id].status = uint8(Status.Rejected);\n            // emit event\n            Payment(msg.sender, _id, uint256(0), uint8(Status.Rejected));\n        }\n        // now time to clean voting enviroment\n        for(uint i; i < _request.number; i++) {\n            delete voters[_request.members[i]];\n        }\n        delete requests[_id];\n    }\n    /// status count function\n    /// @param _member address of token owner\n    /// @param _status status to check\n    function statusCount(address _member, uint8 _status) view public returns (uint256 count) {\n        uint256[] memory tokenIds = _tokensOfOwner(_member);\n        count = uint256(0);\n\n        for (uint256 i = 0; i < tokenIds.length; i++) {\n            if (extensions[tokenIds[i]].status == _status) {\n                count++;\n            }\n        }\n    }\n    function TokenCrowdsurance(string _name, string _symbol) TokenPool(_name, _symbol) public {\n        // setup default crowdsurance product parameters\n        parameters.joinAmount = 0.1 ether;                  // default join amount\n        parameters.coverageDuration = uint(60*60*24*180);   // coverage duration in sec\n        parameters.maxClaimAmount = 10 ether;               // max claim amount\n        parameters.maxClaimNumber = 1;                      // max claim number for the contract\n        parameters.paymentRatio = 80;                       // claim to payment patio\n        parameters.maxPaymentAmount = 10 ether;             // max payment amount for the contract\n        parameters.minJuriesNumber = 3;                     // min juries number to count voting \n        parameters.votingDuration = uint8(60*60*24*2);      // juries voting duration in sec\n        parameters.juriesNumber = 5;                        // juries number -- not more than 5\n    }\n}",
  "sourcePath": "/Users/sergei/LuggageCrowdsurance/contracts/TokenCrowdsurance.sol",
  "compiler": {
    "name": "solc",
    "version": "0.4.18+commit.9cf6e910.Emscripten.clang"
  },
  "schemaVersion": "1.0.1",
  "updatedAt": "2018-04-29T14:48:17.517Z"
}