{
  "contractName": "TokenCrowdsurance",
  "abi": [
    {
      "constant": true,
      "inputs": [],
      "name": "getCurrentVotingStatus",
      "outputs": [
        {
          "name": "status",
          "type": "uint8"
        }
      ],
      "payable": false,
      "stateMutability": "view",
      "type": "function"
    },
    {
      "constant": false,
      "inputs": [
        {
          "name": "_id",
          "type": "uint256"
        }
      ],
      "name": "insertPool",
      "outputs": [
        {
          "name": "",
          "type": "bool"
        }
      ],
      "payable": false,
      "stateMutability": "nonpayable",
      "type": "function"
    },
    {
      "constant": true,
      "inputs": [
        {
          "name": "_interfaceID",
          "type": "bytes4"
        }
      ],
      "name": "supportsInterface",
      "outputs": [
        {
          "name": "",
          "type": "bool"
        }
      ],
      "payable": false,
      "stateMutability": "view",
      "type": "function"
    },
    {
      "constant": true,
      "inputs": [],
      "name": "name",
      "outputs": [
        {
          "name": "",
          "type": "string"
        }
      ],
      "payable": false,
      "stateMutability": "view",
      "type": "function"
    },
    {
      "constant": false,
      "inputs": [
        {
          "name": "_to",
          "type": "address"
        },
        {
          "name": "_tokenId",
          "type": "uint256"
        }
      ],
      "name": "approve",
      "outputs": [],
      "payable": false,
      "stateMutability": "nonpayable",
      "type": "function"
    },
    {
      "constant": false,
      "inputs": [
        {
          "name": "_nodeId",
          "type": "uint256"
        },
        {
          "name": "_parentId",
          "type": "uint256"
        }
      ],
      "name": "addToken",
      "outputs": [],
      "payable": false,
      "stateMutability": "nonpayable",
      "type": "function"
    },
    {
      "constant": true,
      "inputs": [],
      "name": "totalSupply",
      "outputs": [
        {
          "name": "",
          "type": "uint256"
        }
      ],
      "payable": false,
      "stateMutability": "view",
      "type": "function"
    },
    {
      "constant": false,
      "inputs": [],
      "name": "paymentCurrent",
      "outputs": [],
      "payable": false,
      "stateMutability": "nonpayable",
      "type": "function"
    },
    {
      "constant": true,
      "inputs": [],
      "name": "getAppID",
      "outputs": [
        {
          "name": "appId",
          "type": "uint256"
        }
      ],
      "payable": false,
      "stateMutability": "view",
      "type": "function"
    },
    {
      "constant": true,
      "inputs": [
        {
          "name": "_id",
          "type": "uint256"
        },
        {
          "name": "_value",
          "type": "uint256"
        }
      ],
      "name": "checkPaymentAmount",
      "outputs": [
        {
          "name": "level",
          "type": "uint8"
        },
        {
          "name": "amtSubPool",
          "type": "uint256"
        },
        {
          "name": "amtPool",
          "type": "uint256"
        },
        {
          "name": "amtSuperPool",
          "type": "uint256"
        },
        {
          "name": "balance",
          "type": "uint256"
        }
      ],
      "payable": false,
      "stateMutability": "view",
      "type": "function"
    },
    {
      "constant": true,
      "inputs": [],
      "name": "getDistribution",
      "outputs": [
        {
          "name": "distribution",
          "type": "uint256[4]"
        }
      ],
      "payable": false,
      "stateMutability": "view",
      "type": "function"
    },
    {
      "constant": true,
      "inputs": [
        {
          "name": "",
          "type": "uint256"
        }
      ],
      "name": "tokenIndexToOwner",
      "outputs": [
        {
          "name": "",
          "type": "address"
        }
      ],
      "payable": false,
      "stateMutability": "view",
      "type": "function"
    },
    {
      "constant": false,
      "inputs": [
        {
          "name": "_from",
          "type": "address"
        },
        {
          "name": "_to",
          "type": "address"
        },
        {
          "name": "_tokenId",
          "type": "uint256"
        }
      ],
      "name": "transferFrom",
      "outputs": [],
      "payable": false,
      "stateMutability": "nonpayable",
      "type": "function"
    },
    {
      "constant": false,
      "inputs": [
        {
          "name": "_to",
          "type": "address"
        },
        {
          "name": "_toId",
          "type": "uint256"
        },
        {
          "name": "_level",
          "type": "uint256"
        }
      ],
      "name": "setLevel",
      "outputs": [],
      "payable": false,
      "stateMutability": "nonpayable",
      "type": "function"
    },
    {
      "constant": false,
      "inputs": [
        {
          "name": "_hash",
          "type": "string"
        }
      ],
      "name": "activateCurrent",
      "outputs": [],
      "payable": false,
      "stateMutability": "nonpayable",
      "type": "function"
    },
    {
      "constant": false,
      "inputs": [],
      "name": "castNegativeSelected",
      "outputs": [],
      "payable": false,
      "stateMutability": "nonpayable",
      "type": "function"
    },
    {
      "constant": false,
      "inputs": [
        {
          "name": "_spender",
          "type": "address"
        },
        {
          "name": "_value",
          "type": "uint256"
        }
      ],
      "name": "cApprove",
      "outputs": [
        {
          "name": "success",
          "type": "bool"
        }
      ],
      "payable": false,
      "stateMutability": "nonpayable",
      "type": "function"
    },
    {
      "constant": false,
      "inputs": [
        {
          "name": "_nodeId",
          "type": "uint256"
        }
      ],
      "name": "removeToken",
      "outputs": [],
      "payable": false,
      "stateMutability": "nonpayable",
      "type": "function"
    },
    {
      "constant": false,
      "inputs": [
        {
          "name": "_to",
          "type": "address"
        },
        {
          "name": "_toId",
          "type": "uint256"
        }
      ],
      "name": "increaseLevel",
      "outputs": [],
      "payable": false,
      "stateMutability": "nonpayable",
      "type": "function"
    },
    {
      "constant": true,
      "inputs": [
        {
          "name": "",
          "type": "address"
        }
      ],
      "name": "addressToAmount",
      "outputs": [
        {
          "name": "",
          "type": "uint256"
        }
      ],
      "payable": false,
      "stateMutability": "view",
      "type": "function"
    },
    {
      "constant": false,
      "inputs": [],
      "name": "castPositiveSelected",
      "outputs": [],
      "payable": false,
      "stateMutability": "nonpayable",
      "type": "function"
    },
    {
      "constant": false,
      "inputs": [
        {
          "name": "_from",
          "type": "address"
        },
        {
          "name": "_fromId",
          "type": "uint256"
        },
        {
          "name": "_amount",
          "type": "uint256"
        }
      ],
      "name": "cDestroy",
      "outputs": [],
      "payable": false,
      "stateMutability": "nonpayable",
      "type": "function"
    },
    {
      "constant": true,
      "inputs": [],
      "name": "getApplication",
      "outputs": [
        {
          "name": "member",
          "type": "address"
        },
        {
          "name": "appId",
          "type": "uint256"
        }
      ],
      "payable": false,
      "stateMutability": "view",
      "type": "function"
    },
    {
      "constant": false,
      "inputs": [
        {
          "name": "_to",
          "type": "address"
        },
        {
          "name": "_toId",
          "type": "uint256"
        },
        {
          "name": "_amount",
          "type": "uint256"
        }
      ],
      "name": "cIssue",
      "outputs": [],
      "payable": false,
      "stateMutability": "nonpayable",
      "type": "function"
    },
    {
      "constant": true,
      "inputs": [],
      "name": "getCurrentTokenId",
      "outputs": [
        {
          "name": "currentId",
          "type": "uint256"
        }
      ],
      "payable": false,
      "stateMutability": "view",
      "type": "function"
    },
    {
      "constant": false,
      "inputs": [
        {
          "name": "_id",
          "type": "uint256"
        },
        {
          "name": "_hash",
          "type": "string"
        }
      ],
      "name": "activate",
      "outputs": [],
      "payable": false,
      "stateMutability": "nonpayable",
      "type": "function"
    },
    {
      "constant": false,
      "inputs": [],
      "name": "claimCurrent",
      "outputs": [
        {
          "name": "",
          "type": "bool"
        }
      ],
      "payable": false,
      "stateMutability": "nonpayable",
      "type": "function"
    },
    {
      "constant": true,
      "inputs": [
        {
          "name": "_tokenId",
          "type": "uint256"
        }
      ],
      "name": "ownerOf",
      "outputs": [
        {
          "name": "",
          "type": "address"
        }
      ],
      "payable": false,
      "stateMutability": "view",
      "type": "function"
    },
    {
      "constant": false,
      "inputs": [
        {
          "name": "_to",
          "type": "address"
        },
        {
          "name": "_value",
          "type": "uint256"
        }
      ],
      "name": "cTransfer",
      "outputs": [
        {
          "name": "success",
          "type": "bool"
        }
      ],
      "payable": false,
      "stateMutability": "nonpayable",
      "type": "function"
    },
    {
      "constant": true,
      "inputs": [
        {
          "name": "_tokenId",
          "type": "uint256"
        }
      ],
      "name": "tokenMetadata",
      "outputs": [
        {
          "name": "infoUrl",
          "type": "string"
        }
      ],
      "payable": false,
      "stateMutability": "view",
      "type": "function"
    },
    {
      "constant": true,
      "inputs": [
        {
          "name": "_owner",
          "type": "address"
        }
      ],
      "name": "balanceOf",
      "outputs": [
        {
          "name": "count",
          "type": "uint256"
        }
      ],
      "payable": false,
      "stateMutability": "view",
      "type": "function"
    },
    {
      "constant": false,
      "inputs": [],
      "name": "acceptOwnership",
      "outputs": [],
      "payable": false,
      "stateMutability": "nonpayable",
      "type": "function"
    },
    {
      "constant": true,
      "inputs": [
        {
          "name": "",
          "type": "uint256"
        }
      ],
      "name": "requests",
      "outputs": [
        {
          "name": "amount",
          "type": "uint256"
        },
        {
          "name": "timeStamp",
          "type": "uint256"
        },
        {
          "name": "duration",
          "type": "uint256"
        },
        {
          "name": "positive",
          "type": "uint8"
        },
        {
          "name": "negative",
          "type": "uint8"
        },
        {
          "name": "number",
          "type": "uint8"
        }
      ],
      "payable": false,
      "stateMutability": "view",
      "type": "function"
    },
    {
      "constant": true,
      "inputs": [
        {
          "name": "_owner",
          "type": "address"
        }
      ],
      "name": "tokensOfOwner",
      "outputs": [
        {
          "name": "ownerTokens",
          "type": "uint256[]"
        }
      ],
      "payable": false,
      "stateMutability": "view",
      "type": "function"
    },
    {
      "constant": true,
      "inputs": [],
      "name": "parameters",
      "outputs": [
        {
          "name": "joinAmount",
          "type": "uint256"
        },
        {
          "name": "coverageDuration",
          "type": "uint256"
        },
        {
          "name": "maxClaimAmount",
          "type": "uint256"
        },
        {
          "name": "maxClaimNumber",
          "type": "uint8"
        },
        {
          "name": "paymentRatio",
          "type": "uint8"
        },
        {
          "name": "maxPaymentAmount",
          "type": "uint256"
        },
        {
          "name": "minJuriesNumber",
          "type": "uint8"
        },
        {
          "name": "votingDuration",
          "type": "uint256"
        },
        {
          "name": "juriesNumber",
          "type": "uint8"
        },
        {
          "name": "maxApplications",
          "type": "uint256"
        },
        {
          "name": "averageScore",
          "type": "uint256"
        },
        {
          "name": "defaultClaimAmount",
          "type": "uint256"
        }
      ],
      "payable": false,
      "stateMutability": "view",
      "type": "function"
    },
    {
      "constant": false,
      "inputs": [
        {
          "name": "_id",
          "type": "uint256"
        }
      ],
      "name": "payment",
      "outputs": [],
      "payable": false,
      "stateMutability": "nonpayable",
      "type": "function"
    },
    {
      "constant": true,
      "inputs": [],
      "name": "owner",
      "outputs": [
        {
          "name": "",
          "type": "address"
        }
      ],
      "payable": false,
      "stateMutability": "view",
      "type": "function"
    },
    {
      "constant": true,
      "inputs": [],
      "name": "cTotalSupply",
      "outputs": [
        {
          "name": "",
          "type": "uint256"
        }
      ],
      "payable": false,
      "stateMutability": "view",
      "type": "function"
    },
    {
      "constant": true,
      "inputs": [],
      "name": "symbol",
      "outputs": [
        {
          "name": "",
          "type": "string"
        }
      ],
      "payable": false,
      "stateMutability": "view",
      "type": "function"
    },
    {
      "constant": false,
      "inputs": [
        {
          "name": "_fromId",
          "type": "uint256"
        },
        {
          "name": "_spender",
          "type": "address"
        },
        {
          "name": "_toId",
          "type": "uint256"
        },
        {
          "name": "_value",
          "type": "uint256"
        }
      ],
      "name": "cApproveFrom",
      "outputs": [
        {
          "name": "success",
          "type": "bool"
        }
      ],
      "payable": false,
      "stateMutability": "nonpayable",
      "type": "function"
    },
    {
      "constant": true,
      "inputs": [
        {
          "name": "",
          "type": "uint256"
        }
      ],
      "name": "tokenIndexToPoolToken",
      "outputs": [
        {
          "name": "",
          "type": "uint256"
        }
      ],
      "payable": false,
      "stateMutability": "view",
      "type": "function"
    },
    {
      "constant": true,
      "inputs": [],
      "name": "getJoinAmount",
      "outputs": [
        {
          "name": "amount",
          "type": "uint256"
        }
      ],
      "payable": false,
      "stateMutability": "view",
      "type": "function"
    },
    {
      "constant": false,
      "inputs": [],
      "name": "fssf",
      "outputs": [],
      "payable": false,
      "stateMutability": "nonpayable",
      "type": "function"
    },
    {
      "constant": true,
      "inputs": [
        {
          "name": "",
          "type": "address"
        }
      ],
      "name": "voters",
      "outputs": [
        {
          "name": "",
          "type": "uint256"
        }
      ],
      "payable": false,
      "stateMutability": "view",
      "type": "function"
    },
    {
      "constant": true,
      "inputs": [
        {
          "name": "",
          "type": "uint256"
        }
      ],
      "name": "claims",
      "outputs": [
        {
          "name": "",
          "type": "uint256"
        }
      ],
      "payable": false,
      "stateMutability": "view",
      "type": "function"
    },
    {
      "constant": true,
      "inputs": [
        {
          "name": "",
          "type": "uint256"
        }
      ],
      "name": "tokenIndexToApproved",
      "outputs": [
        {
          "name": "",
          "type": "address"
        }
      ],
      "payable": false,
      "stateMutability": "view",
      "type": "function"
    },
    {
      "constant": false,
      "inputs": [
        {
          "name": "_to",
          "type": "address"
        },
        {
          "name": "_tokenId",
          "type": "uint256"
        }
      ],
      "name": "transfer",
      "outputs": [],
      "payable": false,
      "stateMutability": "nonpayable",
      "type": "function"
    },
    {
      "constant": true,
      "inputs": [
        {
          "name": "_to",
          "type": "address"
        },
        {
          "name": "_toId",
          "type": "uint256"
        }
      ],
      "name": "getLevel",
      "outputs": [
        {
          "name": "",
          "type": "uint256"
        }
      ],
      "payable": false,
      "stateMutability": "view",
      "type": "function"
    },
    {
      "constant": true,
      "inputs": [
        {
          "name": "_owner",
          "type": "address"
        }
      ],
      "name": "cBalanceOf",
      "outputs": [
        {
          "name": "",
          "type": "uint256"
        }
      ],
      "payable": false,
      "stateMutability": "view",
      "type": "function"
    },
    {
      "constant": false,
      "inputs": [],
      "name": "join",
      "outputs": [
        {
          "name": "crowdsuranceId",
          "type": "uint256"
        }
      ],
      "payable": true,
      "stateMutability": "payable",
      "type": "function"
    },
    {
      "constant": true,
      "inputs": [
        {
          "name": "",
          "type": "address"
        }
      ],
      "name": "addressToApplication",
      "outputs": [
        {
          "name": "",
          "type": "uint256"
        }
      ],
      "payable": false,
      "stateMutability": "view",
      "type": "function"
    },
    {
      "constant": false,
      "inputs": [
        {
          "name": "_from",
          "type": "address"
        },
        {
          "name": "_to",
          "type": "address"
        },
        {
          "name": "_value",
          "type": "uint256"
        }
      ],
      "name": "cTransferFrom",
      "outputs": [
        {
          "name": "success",
          "type": "bool"
        }
      ],
      "payable": false,
      "stateMutability": "nonpayable",
      "type": "function"
    },
    {
      "constant": true,
      "inputs": [
        {
          "name": "_member",
          "type": "address"
        },
        {
          "name": "_status",
          "type": "uint8"
        }
      ],
      "name": "statusCount",
      "outputs": [
        {
          "name": "count",
          "type": "uint256"
        }
      ],
      "payable": false,
      "stateMutability": "view",
      "type": "function"
    },
    {
      "constant": false,
      "inputs": [
        {
          "name": "_id",
          "type": "uint256"
        },
        {
          "name": "_claim",
          "type": "uint256"
        }
      ],
      "name": "claim",
      "outputs": [
        {
          "name": "",
          "type": "bool"
        }
      ],
      "payable": false,
      "stateMutability": "nonpayable",
      "type": "function"
    },
    {
      "constant": true,
      "inputs": [
        {
          "name": "",
          "type": "address"
        }
      ],
      "name": "addressToScore",
      "outputs": [
        {
          "name": "",
          "type": "uint256"
        }
      ],
      "payable": false,
      "stateMutability": "view",
      "type": "function"
    },
    {
      "constant": false,
      "inputs": [
        {
          "name": "_id",
          "type": "uint256"
        },
        {
          "name": "_positive",
          "type": "bool"
        }
      ],
      "name": "vote",
      "outputs": [],
      "payable": false,
      "stateMutability": "nonpayable",
      "type": "function"
    },
    {
      "constant": true,
      "inputs": [
        {
          "name": "_tokenId",
          "type": "uint256"
        }
      ],
      "name": "valueOf",
      "outputs": [
        {
          "name": "value",
          "type": "uint256"
        }
      ],
      "payable": false,
      "stateMutability": "view",
      "type": "function"
    },
    {
      "constant": true,
      "inputs": [
        {
          "name": "",
          "type": "address"
        },
        {
          "name": "",
          "type": "address"
        }
      ],
      "name": "allowanceAmt",
      "outputs": [
        {
          "name": "",
          "type": "uint256"
        }
      ],
      "payable": false,
      "stateMutability": "view",
      "type": "function"
    },
    {
      "constant": true,
      "inputs": [],
      "name": "maxLevel",
      "outputs": [
        {
          "name": "",
          "type": "uint256"
        }
      ],
      "payable": false,
      "stateMutability": "view",
      "type": "function"
    },
    {
      "constant": false,
      "inputs": [
        {
          "name": "_member",
          "type": "address"
        },
        {
          "name": "_score",
          "type": "uint256"
        },
        {
          "name": "_amount",
          "type": "uint256"
        }
      ],
      "name": "scoring",
      "outputs": [],
      "payable": false,
      "stateMutability": "nonpayable",
      "type": "function"
    },
    {
      "constant": true,
      "inputs": [],
      "name": "getHash",
      "outputs": [
        {
          "name": "",
          "type": "string"
        }
      ],
      "payable": false,
      "stateMutability": "view",
      "type": "function"
    },
    {
      "constant": true,
      "inputs": [],
      "name": "newOwner",
      "outputs": [
        {
          "name": "",
          "type": "address"
        }
      ],
      "payable": false,
      "stateMutability": "view",
      "type": "function"
    },
    {
      "constant": false,
      "inputs": [],
      "name": "apply",
      "outputs": [
        {
          "name": "addId",
          "type": "uint256"
        }
      ],
      "payable": false,
      "stateMutability": "nonpayable",
      "type": "function"
    },
    {
      "constant": true,
      "inputs": [
        {
          "name": "",
          "type": "uint256"
        }
      ],
      "name": "extensions",
      "outputs": [
        {
          "name": "timeStamp",
          "type": "uint256"
        },
        {
          "name": "activated",
          "type": "uint256"
        },
        {
          "name": "duration",
          "type": "uint256"
        },
        {
          "name": "amount",
          "type": "uint256"
        },
        {
          "name": "paid",
          "type": "uint256"
        },
        {
          "name": "score",
          "type": "uint256"
        },
        {
          "name": "claimNumber",
          "type": "uint8"
        },
        {
          "name": "status",
          "type": "uint8"
        }
      ],
      "payable": false,
      "stateMutability": "view",
      "type": "function"
    },
    {
      "constant": true,
      "inputs": [],
      "name": "getNumberOfClaims",
      "outputs": [
        {
          "name": "",
          "type": "uint256"
        }
      ],
      "payable": false,
      "stateMutability": "view",
      "type": "function"
    },
    {
      "constant": true,
      "inputs": [
        {
          "name": "",
          "type": "address"
        },
        {
          "name": "",
          "type": "address"
        }
      ],
      "name": "allowance",
      "outputs": [
        {
          "name": "",
          "type": "uint256"
        }
      ],
      "payable": false,
      "stateMutability": "view",
      "type": "function"
    },
    {
      "constant": true,
      "inputs": [],
      "name": "getComission",
      "outputs": [
        {
          "name": "commission",
          "type": "uint256"
        }
      ],
      "payable": false,
      "stateMutability": "view",
      "type": "function"
    },
    {
      "constant": true,
      "inputs": [],
      "name": "appNumber",
      "outputs": [
        {
          "name": "",
          "type": "uint256"
        }
      ],
      "payable": false,
      "stateMutability": "view",
      "type": "function"
    },
    {
      "constant": true,
      "inputs": [
        {
          "name": "",
          "type": "uint256"
        }
      ],
      "name": "applications",
      "outputs": [
        {
          "name": "timeStamp",
          "type": "uint256"
        },
        {
          "name": "member",
          "type": "address"
        },
        {
          "name": "tokensToBuy",
          "type": "uint8"
        },
        {
          "name": "paymetMethod",
          "type": "uint8"
        },
        {
          "name": "processed",
          "type": "bool"
        }
      ],
      "payable": false,
      "stateMutability": "view",
      "type": "function"
    },
    {
      "constant": true,
      "inputs": [
        {
          "name": "_nodeId",
          "type": "uint256"
        }
      ],
      "name": "getPath",
      "outputs": [
        {
          "name": "path",
          "type": "uint256[]"
        }
      ],
      "payable": false,
      "stateMutability": "view",
      "type": "function"
    },
    {
      "constant": true,
      "inputs": [
        {
          "name": "",
          "type": "address"
        },
        {
          "name": "",
          "type": "address"
        }
      ],
      "name": "allowanceIds",
      "outputs": [
        {
          "name": "",
          "type": "uint256"
        }
      ],
      "payable": false,
      "stateMutability": "view",
      "type": "function"
    },
    {
      "constant": false,
      "inputs": [
        {
          "name": "_newOwner",
          "type": "address"
        }
      ],
      "name": "transferOwnership",
      "outputs": [],
      "payable": false,
      "stateMutability": "nonpayable",
      "type": "function"
    },
    {
      "constant": false,
      "inputs": [
        {
          "name": "_jury",
          "type": "address"
        }
      ],
      "name": "addVoter",
      "outputs": [],
      "payable": false,
      "stateMutability": "nonpayable",
      "type": "function"
    },
    {
      "constant": true,
      "inputs": [
        {
          "name": "_owner",
          "type": "address"
        },
        {
          "name": "_spender",
          "type": "address"
        }
      ],
      "name": "cAllowance",
      "outputs": [
        {
          "name": "",
          "type": "uint256"
        }
      ],
      "payable": false,
      "stateMutability": "view",
      "type": "function"
    },
    {
      "inputs": [
        {
          "name": "_name",
          "type": "string"
        },
        {
          "name": "_symbol",
          "type": "string"
        }
      ],
      "payable": false,
      "stateMutability": "nonpayable",
      "type": "constructor"
    },
    {
      "payable": true,
      "stateMutability": "payable",
      "type": "fallback"
    },
    {
      "anonymous": false,
      "inputs": [
        {
          "indexed": false,
          "name": "member",
          "type": "address"
        },
        {
          "indexed": false,
          "name": "appId",
          "type": "uint256"
        }
      ],
      "name": "Apply",
      "type": "event"
    },
    {
      "anonymous": false,
      "inputs": [
        {
          "indexed": false,
          "name": "member",
          "type": "address"
        },
        {
          "indexed": false,
          "name": "id",
          "type": "uint256"
        },
        {
          "indexed": false,
          "name": "amount",
          "type": "uint256"
        }
      ],
      "name": "Join",
      "type": "event"
    },
    {
      "anonymous": false,
      "inputs": [
        {
          "indexed": false,
          "name": "member",
          "type": "address"
        },
        {
          "indexed": false,
          "name": "score",
          "type": "uint256"
        },
        {
          "indexed": false,
          "name": "amount",
          "type": "uint256"
        }
      ],
      "name": "Scoring",
      "type": "event"
    },
    {
      "anonymous": false,
      "inputs": [
        {
          "indexed": false,
          "name": "id",
          "type": "uint256"
        },
        {
          "indexed": false,
          "name": "amount",
          "type": "uint256"
        },
        {
          "indexed": false,
          "name": "score",
          "type": "uint256"
        }
      ],
      "name": "Activate",
      "type": "event"
    },
    {
      "anonymous": false,
      "inputs": [
        {
          "indexed": false,
          "name": "id",
          "type": "uint256"
        },
        {
          "indexed": false,
          "name": "claim",
          "type": "uint256"
        },
        {
          "indexed": false,
          "name": "number",
          "type": "uint8"
        }
      ],
      "name": "Claim",
      "type": "event"
    },
    {
      "anonymous": false,
      "inputs": [
        {
          "indexed": false,
          "name": "jury",
          "type": "address"
        },
        {
          "indexed": false,
          "name": "id",
          "type": "uint256"
        },
        {
          "indexed": false,
          "name": "positive",
          "type": "bool"
        }
      ],
      "name": "Vote",
      "type": "event"
    },
    {
      "anonymous": false,
      "inputs": [
        {
          "indexed": false,
          "name": "reciever",
          "type": "address"
        },
        {
          "indexed": false,
          "name": "id",
          "type": "uint256"
        },
        {
          "indexed": false,
          "name": "amount",
          "type": "uint256"
        },
        {
          "indexed": false,
          "name": "status",
          "type": "uint8"
        }
      ],
      "name": "Payment",
      "type": "event"
    },
    {
      "anonymous": false,
      "inputs": [
        {
          "indexed": false,
          "name": "member",
          "type": "address"
        },
        {
          "indexed": false,
          "name": "appId",
          "type": "uint256"
        }
      ],
      "name": "FSSF",
      "type": "event"
    },
    {
      "anonymous": false,
      "inputs": [
        {
          "indexed": false,
          "name": "id",
          "type": "uint256"
        },
        {
          "indexed": false,
          "name": "poolId",
          "type": "uint256"
        },
        {
          "indexed": false,
          "name": "level",
          "type": "uint8"
        }
      ],
      "name": "InsertPool",
      "type": "event"
    },
    {
      "anonymous": false,
      "inputs": [
        {
          "indexed": false,
          "name": "id",
          "type": "uint256"
        },
        {
          "indexed": false,
          "name": "superPoolValue",
          "type": "uint256"
        },
        {
          "indexed": false,
          "name": "poolValue",
          "type": "uint256"
        },
        {
          "indexed": false,
          "name": "subPoolValue",
          "type": "uint256"
        },
        {
          "indexed": false,
          "name": "comission",
          "type": "uint256"
        }
      ],
      "name": "DistributeValue",
      "type": "event"
    },
    {
      "anonymous": false,
      "inputs": [
        {
          "indexed": false,
          "name": "id",
          "type": "uint256"
        },
        {
          "indexed": false,
          "name": "value",
          "type": "uint256"
        }
      ],
      "name": "SecondTierCall",
      "type": "event"
    },
    {
      "anonymous": false,
      "inputs": [
        {
          "indexed": false,
          "name": "id",
          "type": "uint256"
        },
        {
          "indexed": false,
          "name": "poolId",
          "type": "uint256"
        },
        {
          "indexed": false,
          "name": "value",
          "type": "uint256"
        },
        {
          "indexed": false,
          "name": "level",
          "type": "uint8"
        }
      ],
      "name": "ShortOfFunds",
      "type": "event"
    },
    {
      "anonymous": false,
      "inputs": [
        {
          "indexed": false,
          "name": "id",
          "type": "uint256"
        },
        {
          "indexed": false,
          "name": "value",
          "type": "uint256"
        },
        {
          "indexed": false,
          "name": "level",
          "type": "uint8"
        }
      ],
      "name": "PaymentValue",
      "type": "event"
    },
    {
      "anonymous": false,
      "inputs": [
        {
          "indexed": false,
          "name": "nodeId",
          "type": "uint256"
        },
        {
          "indexed": false,
          "name": "parentId",
          "type": "uint256"
        },
        {
          "indexed": false,
          "name": "level",
          "type": "uint256"
        }
      ],
      "name": "AddToken",
      "type": "event"
    },
    {
      "anonymous": false,
      "inputs": [
        {
          "indexed": false,
          "name": "nodeId",
          "type": "uint256"
        },
        {
          "indexed": false,
          "name": "level",
          "type": "uint256"
        }
      ],
      "name": "RemoveToken",
      "type": "event"
    },
    {
      "anonymous": false,
      "inputs": [
        {
          "indexed": false,
          "name": "from",
          "type": "address"
        },
        {
          "indexed": false,
          "name": "fromId",
          "type": "uint256"
        },
        {
          "indexed": false,
          "name": "to",
          "type": "address"
        },
        {
          "indexed": false,
          "name": "toId",
          "type": "uint256"
        },
        {
          "indexed": false,
          "name": "value",
          "type": "uint256"
        }
      ],
      "name": "Transfer",
      "type": "event"
    },
    {
      "anonymous": false,
      "inputs": [
        {
          "indexed": false,
          "name": "to",
          "type": "address"
        },
        {
          "indexed": false,
          "name": "toId",
          "type": "uint256"
        },
        {
          "indexed": false,
          "name": "value",
          "type": "uint256"
        }
      ],
      "name": "AddValue",
      "type": "event"
    },
    {
      "anonymous": false,
      "inputs": [
        {
          "indexed": false,
          "name": "from",
          "type": "address"
        },
        {
          "indexed": false,
          "name": "fromId",
          "type": "uint256"
        },
        {
          "indexed": false,
          "name": "value",
          "type": "uint256"
        }
      ],
      "name": "RemoveValue",
      "type": "event"
    },
    {
      "anonymous": false,
      "inputs": [
        {
          "indexed": false,
          "name": "to",
          "type": "address"
        },
        {
          "indexed": false,
          "name": "toId",
          "type": "uint256"
        },
        {
          "indexed": false,
          "name": "level",
          "type": "uint256"
        }
      ],
      "name": "SetLevel",
      "type": "event"
    },
    {
      "anonymous": false,
      "inputs": [
        {
          "indexed": false,
          "name": "to",
          "type": "address"
        },
        {
          "indexed": false,
          "name": "toId",
          "type": "uint256"
        }
      ],
      "name": "IncreaseLevel",
      "type": "event"
    },
    {
      "anonymous": false,
      "inputs": [
        {
          "indexed": true,
          "name": "_prevOwner",
          "type": "address"
        },
        {
          "indexed": true,
          "name": "_newOwner",
          "type": "address"
        }
      ],
      "name": "OwnerUpdate",
      "type": "event"
    },
    {
      "anonymous": false,
      "inputs": [
        {
          "indexed": false,
          "name": "fromId",
          "type": "uint256"
        },
        {
          "indexed": false,
          "name": "spender",
          "type": "address"
        },
        {
          "indexed": false,
          "name": "toId",
          "type": "uint256"
        },
        {
          "indexed": false,
          "name": "value",
          "type": "uint256"
        }
      ],
      "name": "CApproveFrom",
      "type": "event"
    },
    {
      "anonymous": false,
      "inputs": [
        {
          "indexed": false,
          "name": "spender",
          "type": "address"
        },
        {
          "indexed": false,
          "name": "value",
          "type": "uint256"
        }
      ],
      "name": "CApprove",
      "type": "event"
    },
    {
      "anonymous": false,
      "inputs": [
        {
          "indexed": false,
          "name": "from",
          "type": "address"
        },
        {
          "indexed": false,
          "name": "fromId",
          "type": "uint256"
        },
        {
          "indexed": false,
          "name": "to",
          "type": "address"
        },
        {
          "indexed": false,
          "name": "toId",
          "type": "uint256"
        },
        {
          "indexed": false,
          "name": "value",
          "type": "uint256"
        },
        {
          "indexed": false,
          "name": "allowance",
          "type": "uint256"
        }
      ],
      "name": "CTransferFrom",
      "type": "event"
    },
    {
      "anonymous": false,
      "inputs": [
        {
          "indexed": false,
          "name": "to",
          "type": "address"
        },
        {
          "indexed": false,
          "name": "toId",
          "type": "uint256"
        },
        {
          "indexed": false,
          "name": "amount",
          "type": "uint256"
        }
      ],
      "name": "CIssue",
      "type": "event"
    },
    {
      "anonymous": false,
      "inputs": [
        {
          "indexed": false,
          "name": "from",
          "type": "address"
        },
        {
          "indexed": false,
          "name": "fromId",
          "type": "uint256"
        },
        {
          "indexed": false,
          "name": "amount",
          "type": "uint256"
        }
      ],
      "name": "CDestroy",
      "type": "event"
    },
    {
      "anonymous": false,
      "inputs": [
        {
          "indexed": false,
          "name": "from",
          "type": "address"
        },
        {
          "indexed": false,
          "name": "to",
          "type": "address"
        },
        {
          "indexed": false,
          "name": "tokenId",
          "type": "uint256"
        }
      ],
      "name": "Transfer",
      "type": "event"
    },
    {
      "anonymous": false,
      "inputs": [
        {
          "indexed": false,
          "name": "owner",
          "type": "address"
        },
        {
          "indexed": false,
          "name": "approved",
          "type": "address"
        },
        {
          "indexed": false,
          "name": "tokenId",
          "type": "uint256"
        }
      ],
      "name": "Approval",
      "type": "event"
    },
    {
      "anonymous": false,
      "inputs": [
        {
          "indexed": false,
          "name": "value",
          "type": "uint256"
        },
        {
          "indexed": false,
          "name": "metadata",
          "type": "string"
        },
        {
          "indexed": false,
          "name": "kind",
          "type": "uint256"
        },
        {
          "indexed": false,
          "name": "owner",
          "type": "address"
        }
      ],
      "name": "Birth",
      "type": "event"
    }
  ],
  "bytecode": "0x606060405234156200001057600080fd5b604051620062c9380380620062c98339810160405280805182019190602001805190910190508181600080806200004662000915565b6200005062000915565b6200005a62000915565b60028054600160a060020a03191633600160a060020a03161790558787818181816000828051620000909291602001906200094f565b506001818051620000a69291602001906200094f565b5050600a8054600160a060020a03191633600160a060020a031617905550506004600c5550620001339150678ac7230489e80000905060408051908101604052600981527f5375706572506f6f6c00000000000000000000000000000000000000000000006020820152600a54600190600160a060020a0316640100000000620051cb620004c882021704565b955062000192600060408051908101604052600481527f506f6f6c000000000000000000000000000000000000000000000000000000006020820152600a54600190600160a060020a0316640100000000620051cb620004c882021704565b9450620001f1600060408051908101604052600781527f537562506f6f6c000000000000000000000000000000000000000000000000006020820152600a54600290600160a060020a0316640100000000620051cb620004c882021704565b93506200020d858764010000000062001426620006d982021704565b62000227848664010000000062001426620006d982021704565b60c060405190810160405280600060ff16815260200160018152602001600a815260200160018152602001878152602001600a8152509250600e8054806001018281620002759190620009d4565b600092835260209092208591600602018151815460ff191660ff919091161781556020820151816001015560408201518160020155606082015181600301556080820151816004015560a0820151816005015550505060c060405190810160405280600160ff168152602001600a8152602001606481526020016001815260200186815260200160148152509150600e8054806001018281620003199190620009d4565b600092835260209092208491600602018151815460ff191660ff919091161781556020820151816001015560408201518160020155606082015181600301556080820151816004015560a0820151816005015550505060c060405190810160405280600260ff1681526020016103e88152602001606481526020016001815260200185815260200160328152509050600e8054806001018281620003be9190620009d4565b600092835260209092208391600602018151815460ff191660ff919091161781556020820151816001015560408201518160020155606082015181600301556080820151816004015560a082015181600501555050506000600360008154811015156200042757fe5b6000918252602082206005918202019290925567016345785d8a0000600f5562f099c0601055678ac7230489e8000060118190556012805461500061ff001960ff19928316600117161790915560139190915560148054821660031790556202a30060155560168054909116909217909155600a6017556064601855670de0b6b3a764000060195560218190556023555062000b7398505050505050505050565b6000620004d462000a08565b600060a06040519081016040528088815260200187815260200186815260200160008152602001600081525091506001600380548060010182816200051a919062000a40565b60009283526020909220859160050201815181556020820151816001019080516200054a9291602001906200094f565b506040820151816002015560608201518160030155608082015160049091015550039050801515620005e3576001600380548060010182816200058e919062000a40565b6000928352602090922085916005020181518155602082015181600101908051620005be9291602001906200094f565b5060408201518160020155606082015181600301556080820151816004015550500390505b63ffffffff81168114620005f657600080fd5b7fdea8e87d69047e1b3cd43ad599d34e3eacfe4408b4dfc5d0f6ac6a15a468de5c8787878760405184815260408101839052600160a060020a038216606082015260806020820181815290820185818151815260200191508051906020019080838360005b83811015620006755780820151838201526020016200065b565b50505050905090810190601f168015620006a35780820380516001836020036101000a031916815260200191505b509550505050505060405180910390a1620006cf60008583640100000000620042536200080e82021704565b9695505050505050565b8115801590620006ea575060035482105b1515620006f657600080fd5b801580159062000707575060035481105b15156200071357600080fd5b6001600c54036003828154811015156200072957fe5b9060005260206000209060050201600301541015156200074857600080fd5b6000828152600d6020526040902081905560038054829081106200076857fe5b9060005260206000209060050201600301546001016003838154811015156200078d57fe5b9060005260206000209060050201600301819055507f0900f87897aa374bb21fa36753905fa2944dd2301242246101a9047a0ed227a08282600385815481101515620007d557fe5b90600052602060002090600502016003015460405180848152602001838152602001828152602001935050505060405180910390a15050565b6104006003828154811015156200082157fe5b906000526020600020906005020160040154141515156200083e57fe5b600160a060020a03808316600081815260056020908152604080832080546001019055858352600490915290208054600160a060020a0319169091179055831615620008c057600160a060020a03831660009081526005602090815260408083208054600019019055838352600690915290208054600160a060020a03191690555b7fddf252ad1be2c89b69c2b068fc378daa952ba7f163c4a11628f55a4df523b3ef838383604051600160a060020a039384168152919092166020820152604080820192909252606001905180910390a1505050565b60c060405190810160405280600060ff16815260200160008152602001600081526020016000815260200160008152602001600081525090565b828054600181600116156101000203166002900490600052602060002090601f016020900481019282601f106200099257805160ff1916838001178555620009c2565b82800160010185558215620009c2579182015b82811115620009c2578251825591602001919060010190620009a5565b50620009d092915062000a6f565b5090565b81548183558181151162000a035760060281600602836000526020600020918201910162000a03919062000a8f565b505050565b60a0604051908101604052806000815260200162000a2562000ad3565b81526020016000815260200160008152602001600081525090565b81548183558181151162000a035760050281600502836000526020600020918201910162000a03919062000ae5565b62000a8c91905b80821115620009d0576000815560010162000a76565b90565b62000a8c91905b80821115620009d057805460ff19168155600060018201819055600282018190556003820181905560048201819055600582015560060162000a96565b60206040519081016040526000815290565b62000a8c91905b80821115620009d057600080825562000b09600183018262000b28565b5060006002820181905560038201819055600482015560050162000aec565b50805460018160011615610100020316600290046000825580601f1062000b50575062000b70565b601f01602090049060005260206000209081019062000b70919062000a6f565b50565b6157468062000b836000396000f3006060604052600436106103615763ffffffff7c01000000000000000000000000000000000000000000000000000000006000350416620f987f8114610363578062607b7f1461038c57806301ffc9a7146103b657806306fdde03146103ee578063095ea7b31461047857806317b9ebec1461049a57806318160ddd146104b357806319aa7625146104d85780631aff0596146104eb5780631c41931c146104fe5780631cced51b1461054c5780631d36e06c1461059757806323b872dd146105c957806329625005146105f15780632b47f5ce146106165780632dcfcd5f1461066757806332c4ee831461067a57806336c5d7241461069c57806339e6cdb1146106b25780633c7e7d28146106d45780633c8deaca146106f35780634cabcfac146107065780634fe89efe1461072b578063545c3d551461076057806356189236146107855780635690d0d914610798578063604919ea146107ee5780636352211e1461080157806366d80ba5146108175780636914db601461083957806370a082311461084f57806379ba50971461086e57806381d12c58146108815780638462151c146108d457806389035730146109465780638b3c99e3146109c65780638da5cb5b146109dc5780638f1fc77c146109ef57806395d89b4114610a0257806398dc5c9514610a155780639ca0883114610a3d5780639d26d1ca14610a53578063a01177cd14610a66578063a3ec138d14610a79578063a888c2cd14610a98578063a8bd9c3214610aae578063a9059cbb14610ac4578063b121f2ac14610ae6578063b135707914610b08578063b688a36314610b27578063be1d68ad14610b2f578063bf62266514610b4e578063c0521d7614610b76578063c349026314610b9b578063c52380e914610bb4578063c9d27afe14610bd3578063cadf338f14610bee578063cbbc9f8914610c04578063cc06c35914610c29578063cf7c436714610c3c578063d13319c414610c61578063d4ee1d9014610c74578063db595b3b14610c87578063db85d59c14610c9a578063dd52c33814610cfc578063dd62ed3e14610d0f578063dd6d3ca714610d34578063deb8386a14610d47578063dfefadff14610d5a578063e176507314610db0578063e527cc9d14610dc6578063f2fde38b14610deb578063f4ab9adf14610e0a578063f81fd7ea14610e29575b005b341561036e57600080fd5b610376610e4e565b60405160ff909116815260200160405180910390f35b341561039757600080fd5b6103a2600435610fcf565b604051901515815260200160405180910390f35b34156103c157600080fd5b6103a27fffffffff0000000000000000000000000000000000000000000000000000000060043516611031565b34156103f957600080fd5b61040161130a565b60405160208082528190810183818151815260200191508051906020019080838360005b8381101561043d578082015183820152602001610425565b50505050905090810190601f16801561046a5780820380516001836020036101000a031916815260200191505b509250505060405180910390f35b341561048357600080fd5b610361600160a060020a03600435166024356113b3565b34156104a557600080fd5b610361600435602435611426565b34156104be57600080fd5b6104c6611552565b60405190815260200160405180910390f35b34156104e357600080fd5b61036161156d565b34156104f657600080fd5b6104c661157f565b341561050957600080fd5b61051760043560243561159b565b60405160ff909516855260208501939093526040808501929092526060840152608083019190915260a0909101905180910390f35b341561055757600080fd5b61055f611859565b6040518082608080838360005b8381101561058457808201518382015260200161056c565b5050505090500191505060405180910390f35b34156105a257600080fd5b6105ad60043561193c565b604051600160a060020a03909116815260200160405180910390f35b34156105d457600080fd5b610361600160a060020a0360043581169060243516604435611957565b34156105fc57600080fd5b610361600160a060020a03600435166024356044356119c7565b341561062157600080fd5b61036160046024813581810190830135806020601f82018190048102016040519081016040528181529291906020840183838082843750949650611a7795505050505050565b341561067257600080fd5b610361611a8b565b341561068557600080fd5b6103a2600160a060020a0360043516602435611aad565b34156106a757600080fd5b610361600435611bad565b34156106bd57600080fd5b610361600160a060020a0360043516602435611c4e565b34156106df57600080fd5b6104c6600160a060020a0360043516611d0a565b34156106fe57600080fd5b610361611d1c565b341561071157600080fd5b610361600160a060020a0360043516602435604435611d40565b341561073657600080fd5b61073e611dee565b604051600160a060020a03909216825260208201526040908101905180910390f35b341561076b57600080fd5b610361600160a060020a0360043516602435604435611e86565b341561079057600080fd5b6104c6611f34565b34156107a357600080fd5b610361600480359060446024803590810190830135806020601f82018190048102016040519081016040528181529291906020840183838082843750949650611f9a95505050505050565b34156107f957600080fd5b6103a26120ea565b341561080c57600080fd5b6105ad600435612104565b341561082257600080fd5b6103a2600160a060020a0360043516602435612128565b341561084457600080fd5b610401600435612161565b341561085a57600080fd5b6104c6600160a060020a0360043516612228565b341561087957600080fd5b610361612243565b341561088c57600080fd5b6108976004356122d1565b604051958652602086019490945260408086019390935260ff91821660608601528116608085015290911660a083015260c0909101905180910390f35b34156108df57600080fd5b6108f3600160a060020a036004351661230e565b60405160208082528190810183818151815260200191508051906020019060200280838360005b8381101561093257808201518382015260200161091a565b505050509050019250505060405180910390f35b341561095157600080fd5b61095961231f565b6040519b8c5260208c019a909a526040808c019990995260ff97881660608c015295871660808b015260a08a019490945291851660c089015260e0880152909216610100860152610120850191909152610140840152610160830191909152610180909101905180910390f35b34156109d157600080fd5b61036160043561235a565b34156109e757600080fd5b6105ad61274a565b34156109fa57600080fd5b6104c6612759565b3415610a0d57600080fd5b6104016127a0565b3415610a2057600080fd5b6103a2600435600160a060020a0360243516604435606435612813565b3415610a4857600080fd5b6104c660043561290e565b3415610a5e57600080fd5b6104c6612920565b3415610a7157600080fd5b61036161293c565b3415610a8457600080fd5b6104c6600160a060020a03600435166129dc565b3415610aa357600080fd5b6104c66004356129ee565b3415610ab957600080fd5b6105ad600435612a0d565b3415610acf57600080fd5b610361600160a060020a0360043516602435612a28565b3415610af157600080fd5b6104c6600160a060020a0360043516602435612a7e565b3415610b1357600080fd5b6104c6600160a060020a0360043516612abd565b6104c6612b36565b3415610b3a57600080fd5b6104c6600160a060020a0360043516612bb3565b3415610b5957600080fd5b6103a2600160a060020a0360043581169060243516604435612bc5565b3415610b8157600080fd5b6104c6600160a060020a036004351660ff60243516612d9c565b3415610ba657600080fd5b6103a2600435602435612e1c565b3415610bbf57600080fd5b6104c6600160a060020a03600435166130bb565b3415610bde57600080fd5b61036160043560243515156130cd565b3415610bf957600080fd5b6104c6600435613216565b3415610c0f57600080fd5b6104c6600160a060020a0360043581169060243516613240565b3415610c3457600080fd5b6104c661325d565b3415610c4757600080fd5b610361600160a060020a0360043516602435604435613263565b3415610c6c57600080fd5b6104016133fc565b3415610c7f57600080fd5b6105ad6134a6565b3415610c9257600080fd5b6104c66134b5565b3415610ca557600080fd5b610cb0600435613793565b60405197885260208801969096526040808801959095526060870193909352608086019190915260a085015260ff90811660c085015290911660e0830152610100909101905180910390f35b3415610d0757600080fd5b6104c66137dc565b3415610d1a57600080fd5b6104c6600160a060020a03600435811690602435166137e6565b3415610d3f57600080fd5b6104c6613803565b3415610d5257600080fd5b6104c661382c565b3415610d6557600080fd5b610d70600435613832565b604051948552600160a060020a03909316602085015260ff91821660408086019190915291166060840152901515608083015260a0909101905180910390f35b3415610dbb57600080fd5b6108f36004356138be565b3415610dd157600080fd5b6104c6600160a060020a036004358116906024351661391b565b3415610df657600080fd5b610361600160a060020a0360043516613938565b3415610e1557600080fd5b610361600160a060020a036004351661399a565b3415610e3457600080fd5b6104c6600160a060020a0360043581169060243516613b3c565b6000806000806000806000806000806000610e67611f34565b9950891515610e7557600080fd5b610e7f338b613b94565b1515610e8a57600080fd5b600260008b8152601c6020526040902060060154610100900460ff1614610eb057600080fd5b5050506000878152601e60209081526040808320601c909252822060039081015490820154601254835460028501546001860154601654969d50949b5060ff8085169b506101009485900481169a50969850606493909204861602919091049450600160a060020a03301631934292909101919091109186880182169116148115610f3e5760029450610f49565b8015610f4957600194505b60009a506002856002811115610f5b57fe5b1480610f7257506001856002811115610f7057fe5b145b15610fc2578560ff168760ff16118015610f8c5750828411155b15610f9a5760019a50610fc2565b8560ff168760ff16148015610faf5750828811155b15610fbd5760029a50610fc2565b60039a505b5050505050505050505090565b600a5460009033600160a060020a03908116911614610fea57fe5b8115801590610ffa575060035482105b151561100557600080fd5b611010826002613bb4565b151561101857fe5b61102182613e65565b151561102957fe5b506001919050565b60006040517f737570706f727473496e74657266616365286279746573342900000000000000815260190160405180910390207bffffffffffffffffffffffffffffffffffffffffffffffffffffffff1916827bffffffffffffffffffffffffffffffffffffffffffffffffffffffff1916148061130457506040517f746f6b656e4d657461646174612875696e743235362c737472696e67290000008152601d0160405180910390206040517f746f6b656e734f664f776e657228616464726573732900000000000000000000815260160160405180910390206040517f7472616e7366657246726f6d28616464726573732c616464726573732c75696e81527f7432353629000000000000000000000000000000000000000000000000000000602082015260250160405180910390206040517f7472616e7366657228616464726573732c75696e743235362900000000000000815260190160405180910390206040517f617070726f766528616464726573732c75696e74323536290000000000000000815260180160405180910390206040517f6f776e65724f662875696e743235362900000000000000000000000000000000815260100160405180910390206040517f62616c616e63654f662861646472657373290000000000000000000000000000815260120160405180910390206040517f746f74616c537570706c792829000000000000000000000000000000000000008152600d0160405180910390206040517f73796d626f6c2829000000000000000000000000000000000000000000000000815260080160405180910390206040517f6e616d6528290000000000000000000000000000000000000000000000000000815260060160405180910390201818181818181818187bffffffffffffffffffffffffffffffffffffffffffffffffffffffff1916827bffffffffffffffffffffffffffffffffffffffffffffffffffffffff1916145b92915050565b6113126153d7565b60008054600181600116156101000203166002900480601f0160208091040260200160405190810160405280929190818152602001828054600181600116156101000203166002900480156113a85780601f1061137d576101008083540402835291602001916113a8565b820191906000526020600020905b81548152906001019060200180831161138b57829003601f168201915b505050505090505b90565b6113bd3382613b94565b15156113c857600080fd5b6113d281836141f8565b7f8c5be1e5ebec7d5bd14f71427d1e84f3dd0314c0f7b2291e5b200ac8c7c3b925338383604051600160a060020a039384168152919092166020820152604080820192909252606001905180910390a15050565b8115801590611436575060035482105b151561144157600080fd5b8015801590611451575060035481105b151561145c57600080fd5b6001600c540360038281548110151561147157fe5b90600052602060002090600502016003015410151561148f57600080fd5b6000828152600d6020526040902081905560038054829081106114ae57fe5b9060005260206000209060050201600301546001016003838154811015156114d257fe5b9060005260206000209060050201600301819055507f0900f87897aa374bb21fa36753905fa2944dd2301242246101a9047a0ed227a0828260038581548110151561151957fe5b90600052602060002090600502016003015460405180848152602001838152602001828152602001935050505060405180910390a15050565b6003546000908181111561156557600019015b8091505b5090565b61157d611578611f34565b61235a565b565b600160a060020a0333166000908152601f602052604090205490565b60008060008060006115ab6153e9565b60008082526020820181905260408201819052606082018190526004965080808a158015906115db57506003548b105b15156115e657600080fd5b8915156115f257600080fd5b6115fc338c613b94565b151561160757600080fd5b60008b8152600d6020526040902054925082151561162457600080fd5b6000838152600d6020526040902054915081151561164157600080fd5b506000818152600d602052604090205480151561165d57600080fd5b6003985060038381548110151561167057fe5b60009182526020909120600590910201548a11611699576002985089848a5b602002015261182c565b60038054849081106116a757fe5b9060005260206000209060050201600001546003838154811015156116c857fe5b6000918252602090912060059091020154018a11611731576003805460019a50849081106116f257fe5b60009182526020909120600590910201546040850152600380548490811061171657fe5b60009182526020909120600590910201548a0384600161168f565b600380548490811061173f57fe5b90600052602060002090600502016000015460038381548110151561176057fe5b90600052602060002090600502016000015460038381548110151561178157fe5b600091825260209091206005909102015401018a1161182c576003805460009a50849081106117ac57fe5b6000918252602090912060059091020154604085015260038054839081106117d057fe5b6000918252602091829020600590910201549085015260038054839081106117f457fe5b90600052602060002090600502016000015460038481548110151561181557fe5b60009182526020909120600590910201548b030384525b60408401519750602084015196508351955030600160a060020a0316319450505050509295509295909350565b6118616153e9565b600080825260208201819052604082018190526060820181905260015b60035481101561193757600380548290811061189657fe5b9060005260206000209060050201600301549150600c548260ff1610156119045760038054829081106118c557fe5b60009182526020909120600590910201548360ff8416600481106118e557fe5b6020020151018360ff8416600481106118fa57fe5b602002015261192f565b600380548290811061191257fe5b600091825260209091206005909102015460608401510160608401525b60010161187e565b505090565b600460205260009081526040902054600160a060020a031681565b600160a060020a038216151561196c57600080fd5b30600160a060020a031682600160a060020a03161415151561198d57600080fd5b6119973382614233565b15156119a257600080fd5b6119ac8382613b94565b15156119b757600080fd5b6119c2838383614253565b505050565b600a5433600160a060020a039081169116146119df57fe5b6119e98383613b94565b15156119f457600080fd5b80600383815481101515611a0457fe5b9060005260206000209060050201600301819055507f48ed1b5769aee6cf16cda3da1db2a0acf83c194c9d2a98ebeff4904567af58f68383836040518084600160a060020a0316600160a060020a03168152602001838152602001828152602001935050505060405180910390a1505050565b611a88611a82611f34565b82611f9a565b50565b600160a060020a0333166000908152601d602052604081205461157d916130cd565b6000808080600160a060020a0386161515611ac757600080fd5b841515611ad357600080fd5b339250611adf83614371565b9150611aea86614371565b905081811415611af957600080fd5b811515611b0557600080fd5b801515611b1157600080fd5b600160a060020a038381166000818152600860209081526040808320948b168084529482528083208690559282528282208690556009815282822093825292909252908190208690557fe051949e9a44e2e9c21ee7d1c7b03ef0bf501aa3b7c4616a8543f229c0bede7a908790879051600160a060020a03909216825260208201526040908101905180910390a1600193505b50505092915050565b60008115801590611bbf575060035482105b1515611bca57600080fd5b611bd3826143bb565b90508015611be057600080fd5b6000828152600d6020526040812055600380547f399c331be71add502e95a2402ba7370605a945c1c6c1dc01c5e30f7e896cfa5691849182908110611c2157fe5b90600052602060002090600502016003015460405191825260208201526040908101905180910390a15050565b600a5433600160a060020a03908116911614611c6657fe5b611c708282613b94565b1515611c7b57600080fd5b6003805482908110611c8957fe5b906000526020600020906005020160030154600101600382815481101515611cad57fe5b9060005260206000209060050201600301819055507fb6ffa2bc58069f160ac94855c396bc8a7c591ae4b9e69d78cc004ad2e4d70d858282604051600160a060020a03909216825260208201526040908101905180910390a15050565b601a6020526000908152604090205481565b600160a060020a0333166000908152601d602052604090205461157d9060016130cd565b6000600160a060020a0384161515611d5757600080fd5b811515611d6357600080fd5b5081801515611d7857611d7584614371565b90505b801515611d8457600080fd5b611d8f848284614419565b7f8ee078ba6dd38678f9ffdc8f1df2d512559df0cae2db32c829459127e10031978484846040518084600160a060020a0316600160a060020a03168152602001838152602001828152602001935050505060405180910390a150505050565b602154600090819081901515611e0357611e81565b5060015b602054811015611e81576020805482908110611e1f57fe5b906000526020600020906002020160010160169054906101000a900460ff161515611e79576020805482908110611e5257fe5b6000918252602090912060016002909202010154600160a060020a03169250905080611e81565b600101611e07565b509091565b6000600160a060020a0384161515611e9d57600080fd5b811515611ea957600080fd5b5081801515611ebe57611ebb84614371565b90505b801515611eca57600080fd5b611ed5848284614507565b7ff3d0e22890d929d2a1cd5ca9e5f6498c4271ce2f0223ab4092297c2d11c9ef758484846040518084600160a060020a0316600160a060020a03168152602001838152602001828152602001935050505060405180910390a150505050565b6000611f3e6153d7565b600a5433600160a060020a0390811691161415611f5e5760009150611569565b611f67336145c9565b90506000815111611f79576000611f94565b80600182510381518110611f8957fe5b906020019060200201515b91505090565b811515611fa657600080fd5b611fb03383613b94565b1515611fbb57600080fd5b6000828152601c60205260409020600301541515611fd857600080fd5b6000828152601c602052604090206006015460ff610100909104166001141561200057600080fd5b61040060038381548110151561201257fe5b60009182526020808320600590920290910160040192909255838152601c9091526040902060068101805461ff0019166101001790554260019190910155600380548291908490811061206157fe5b9060005260206000209060050201600101908051612083929160200190615410565b506000828152601c60205260409081902060038101546005909101547ff5d2d36fd2c60192fd8f874c962737f1858ff797bf9865d071ade33eeee0070192859291905180848152602001838152602001828152602001935050505060405180910390a15050565b60006120ff6120f7611f34565b601954612e1c565b905090565b600081815260046020526040812054600160a060020a031680151561130457600080fd5b600080600160a060020a038416151561214057600080fd5b82151561214c57600080fd5b5033612159818585612bc5565b949350505050565b6121696153d7565b600380548390811061217757fe5b90600052602060002090600502016001018054600181600116156101000203166002900480601f01602080910402602001604051908101604052809291908181526020018280546001816001161561010002031660029004801561221c5780601f106121f15761010080835404028352916020019161221c565b820191906000526020600020905b8154815290600101906020018083116121ff57829003601f168201915b50505050509050919050565b600160a060020a031660009081526005602052604090205490565b600b5433600160a060020a0390811691161461225e57600080fd5b600b54600a54600160a060020a0391821691167f343765429aea5a34b3ff6a3785a98a5abb2597aca87bfbb58632c173d585373a60405160405180910390a3600b8054600a805473ffffffffffffffffffffffffffffffffffffffff19908116600160a060020a03841617909155169055565b601e6020526000908152604090208054600182015460028301546003909301549192909160ff808216916101008104821691620100009091041686565b6123166153d7565b611304826145c9565b600f5460105460115460125460135460145460155460165460175460185460195460ff8089169861010090048116979681169594169291908c565b6000806000806123686153e9565b600086151561237657600080fd5b6123803388613b94565b151561238b57600080fd5b60026000888152601c6020526040902060060154610100900460ff16146123b157600080fd5b6000878152601e60205260409020600281015460018201546016546003840154939950429190920110965060ff90811661010083048216928216929092011614935084806123fc5750835b151561240757600080fd5b6012548654606491610100900460ff16026003880154919004935060ff61010082048116911611801561243f575061243f87846146be565b1561250c57600160a060020a03331683156108fc0284604051600060405180830381858888f19350505050151561247557600080fd5b6000878152601c6020526040902060068101805461ff0019166103001790556004018054840190556124a78784614807565b91507f261826fbdc11ee0da48a5356542bcb46786deaed4c215b871d3df7a03652262d33888560035b604051600160a060020a039094168452602084019290925260408084019190915260ff90911660608301526080909101905180910390a16126ad565b600386015460ff8082166101009092041614806125445750601454600387015460ff9182166101008204831691831691909101909116105b801561256857506000878152601c60205260409020600301546125689088906146be565b1561262e576000878152601c60205260409081902060030154600160a060020a0333169181156108fc02919051600060405180830381858888f1935050505015156125b257600080fd5b6000878152601c6020526040902060068101805461ff001916610500179055600381015460049091018054820190556125ec908890614807565b6000888152601c60205260409020600301549092507f261826fbdc11ee0da48a5356542bcb46786deaed4c215b871d3df7a03652262d903390899060056124d0565b6000878152601c6020526040808220600601805461ff0019166104001790557f261826fbdc11ee0da48a5356542bcb46786deaed4c215b871d3df7a03652262d9133918a919060049051600160a060020a039094168452602084019290925260408084019190915260ff90911660608301526080909101905180910390a15b600386015462010000900460ff168110156126fb57601d60006004880183600581106126d557fe5b0154600160a060020a0316815260208101919091526040016000908120556001016126ad565b6000878152601e60205260408120818155600181018290556002810182905560038101805462ffffff1916905590612736600483018261548a565b50506127406153e9565b5050505050505050565b600a54600160a060020a031681565b600354600090819060015b8181101561279857600380548290811061277a57fe5b60009182526020909120600590910201549290920191600101612764565b509092915050565b6127a86153d7565b60018054600181600116156101000203166002900480601f0160208091040260200160405190810160405280929190818152602001828054600181600116156101000203166002900480156113a85780601f1061137d576101008083540402835291602001916113a8565b600080600160a060020a038516151561282b57600080fd5b8584141561283857600080fd5b85151561284457600080fd5b83151561285057600080fd5b82151561285c57600080fd5b5033600160a060020a038181166000818152600860209081526040808320948a168084529482528083208990559282528282208a90556009815282822093825292909252908190208490557fef4beaa380feab20776f162f92bbf15b04c59f8fd4e8ab2508b8d29fed7dfd6190879087908790879051938452600160a060020a03909216602084015260408084019190915260608301919091526080909101905180910390a150600195945050505050565b600d6020526000908152604090205481565b600160a060020a0333166000908152601a602052604090205490565b600a54600090819033600160a060020a0390811691161461295957fe5b612961611dee565b9092509050600160a060020a0382161580159061297d57508015155b156129d857601854600f54612993918491613263565b7fa2b47dc564bd9b8719fa8435590eb01665bade49e1fa4890022587a074d9e4268282604051600160a060020a03909216825260208201526040908101905180910390a15b5050565b601d6020526000908152604090205481565b60228054829081106129fc57fe5b600091825260209091200154905081565b600660205260009081526040902054600160a060020a031681565b600160a060020a0382161515612a3d57600080fd5b30600160a060020a031682600160a060020a031614151515612a5e57600080fd5b612a683382613b94565b1515612a7357600080fd5b6129d8338383614253565b6000612a8a8383613b94565b1515612a9557600080fd5b6003805483908110612aa357fe5b906000526020600020906005020160030154905092915050565b6000612ac76153d7565b6000806000612ad5866145c9565b93506000925083519150600090505b81811015612b2c576003848281518110612afa57fe5b9060200190602002015181548110612b0e57fe5b60009182526020909120600590910201549290920191600101612ae4565b5090949350505050565b33600160a060020a0381166000908152601b6020526040812054909134918215801590612b655750600f548310155b1515612b7057600080fd5b801515612b7c57600080fd5b600160a060020a0382166000908152601a60205260409020548314612ba057600080fd5b612bab828285614e2e565b935050505090565b601f6020526000908152604090205481565b600080808080600160a060020a0387161515612be057600080fd5b851515612bec57600080fd5b50505050600160a060020a0384811660008181526008602090815260408083209488168084529482528083205493835280832054600983528184209584529490915290205486929081831415612c4157600080fd5b821515612c4d57600080fd5b811515612c5957600080fd5b801515612c6557600080fd5b85811015612c7257600080fd5b612c7f848389868a614fdc565b600160a060020a038481166000908152600960209081526040808320938b168352929052208054879003908190551515612cf757600160a060020a038481166000818152600960209081526040808320948c168084529482528083208390559282526008815282822090528181208190559182528120555b600160a060020a038085166000908152600960209081526040808320938b168352929052819020547fa085ba1c72fda1f13ecb6e0347284ac7d016a73b7a47c0ba151368bbe5ce2db9918a9185918b9188918c919051600160a060020a0396871681526020810195909552929094166040808501919091526060840191909152608083019390935260a082015260c001905180910390a1506001979650505050505050565b6000612da66153d7565b6000612db1856145c9565b915060009250600090505b8151811015612e14578360ff16601c6000848481518110612dd957fe5b906020019060200201518152602081019190915260400160002060060154610100900460ff161415612e0c576001909201915b600101612dbc565b505092915050565b60008080841515612e2c57600080fd5b612e363386613b94565b1515612e4157600080fd5b831515612e4d57600080fd5b60016000868152601c6020526040902060060154610100900460ff1614612e7357600080fd5b6012546000868152601c602052604090206006015460ff918216911610612e9957600080fd5b601254606490610100900460ff1685026013546000888152601c60205260409020600401549290910493509083011115612ed257600080fd5b506000848152601c6020526040902060028101546001909101540142811015612efa57600080fd5b60e06040519081016040908152858252426020830152601554818301526000606083018190526080830181905260a08084019190915260c083019151908101604090815260008083526020808401829052828401829052606084018290526080840182905292909352888352601e9091529020815181556020820151816001015560408201518160020155606082015160038201805460ff191660ff9290921691909117905560808201518160030160016101000a81548160ff021916908360ff16021790555060a08201518160030160026101000a81548160ff021916908360ff16021790555060c0820151612ff790600483019060056154ad565b5050506000858152601c60205260409020600601805461ff001960ff198216600160ff9384168101909316171661020017909155602280549091810161303d8382615510565b506000918252602080832091909101879055868252601c9052604090819020600601547fb3ef0c14cd9ed6533151b9a921ddb33f8716dd3593254ffc741ae770313e3bea918791879160ff9091169051928352602083019190915260ff166040808301919091526060909101905180910390a1506001949350505050565b601b6020526000908152604090205481565b6000808315156130dc57600080fd5b600160a060020a0333166000908152601d6020526040902054841461310057600080fd5b6000848152601c602052604090206006015460ff6101009091041660021461312757600080fd5b50506000828152601e6020526040902060028101546001820154014281101561314f57600080fd5b82156131725760038201805460ff8082166001011660ff19909116179055613194565b60038201805460ff61010080830482166001019091160261ff00199091161790555b601d600033600160a060020a0316600160a060020a03168152602001908152602001600020600090557f8d85a70fd2c5d140a4a01143492d27ff82cfad4cead313e66c53f39b0feb5e0f338585604051600160a060020a039093168352602083019190915215156040808301919091526060909101905180910390a150505050565b600060038281548110151561322757fe5b9060005260206000209060050201600001549050919050565b600960209081526000928352604080842090915290825290205481565b600c5481565b600a5460009033600160a060020a0390811691161461327e57fe5b600160a060020a038416151561329357600080fd5b82151561329f57600080fd5b81158015906132b05750600f548210155b15156132bb57600080fd5b50600160a060020a0383166000908152601a60209081526040808320849055601b8252808320859055601f90915290205480158015906132fc575060205481105b1561339d57600160208281548110151561331257fe5b6000918252602080832060016002909302019190910180549315157601000000000000000000000000000000000000000000000276ff000000000000000000000000000000000000000000001990941693909317909255600160a060020a0386168152601f9091526040812055602180546000190190819055151561339d5761339d60206000615534565b7f21619a95128e7e5c5367774b6479b6edbc059210239e39bbd50dbae00cfe09728484846040518084600160a060020a0316600160a060020a03168152602001838152602001828152602001935050505060405180910390a150505050565b6134046153d7565b600160a060020a0333166000908152601d602052604090205460038054909190811061342c57fe5b90600052602060002090600502016001018054600181600116156101000203166002900480601f0160208091040260200160405190810160405280929190818152602001828054600181600116156101000203166002900480156113a85780601f1061137d576101008083540402835291602001916113a8565b600b54600160a060020a031681565b60006134bf615555565b600160a060020a0333166000908152601f60205260409020549150811580156134eb5750601754602154105b156115695760a06040519081016040528042815260200133600160a060020a03168152602001600160ff168152602001600060ff1681526020016000151581525090506001602080548060010182816135449190615583565b6000928352602090922084916002020181518155602082015160018201805473ffffffffffffffffffffffffffffffffffffffff1916600160a060020a039290921691909117905560408201518160010160146101000a81548160ff021916908360ff16021790555060608201518160010160156101000a81548160ff021916908360ff1602179055506080820151600190910180549115157601000000000000000000000000000000000000000000000276ff000000000000000000000000000000000000000000001990921691909117905550039150811515613712576001602080548060010182816136399190615583565b6000928352602090922084916002020181518155602082015160018201805473ffffffffffffffffffffffffffffffffffffffff1916600160a060020a039290921691909117905560408201518160010160146101000a81548160ff021916908360ff16021790555060608201518160010160156101000a81548160ff021916908360ff1602179055506080820151600190910180549115157601000000000000000000000000000000000000000000000276ff0000000000000000000000000000000000000000000019909216919091179055500391505b63ffffffff8216821461372457600080fd5b33600160a060020a0381166000908152601f6020526040908190208490556021805460010190557f59470163a7d3423114f115af31707633dd4930abac0f3662fc3c4ef323f39a869190849051600160a060020a03909216825260208201526040908101905180910390a15090565b601c602052600090815260409020805460018201546002830154600384015460048501546005860154600690960154949593949293919290919060ff8082169161010090041688565b6023546022540390565b600760209081526000928352604080842090915290825290205481565b60006003600081548110151561381557fe5b906000526020600020906005020160000154905090565b60215481565b602080548290811061384057fe5b600091825260209091206002909102018054600190910154909150600160a060020a0381169060ff740100000000000000000000000000000000000000008204811691750100000000000000000000000000000000000000000081048216917601000000000000000000000000000000000000000000009091041685565b6138c66153d7565b6000828152600d6020526040812054905b600c5481101561391457818382815181106138ee57fe5b60209081029091018101919091526000928352600d9052604090912054906001016138d7565b5050919050565b600860209081526000928352604080842090915290825290205481565b600a5433600160a060020a0390811691161461395057fe5b600a54600160a060020a038281169116141561396b57600080fd5b600b805473ffffffffffffffffffffffffffffffffffffffff1916600160a060020a0392909216919091179055565b600a5460009081908190819033600160a060020a039081169116146139bb57fe5b602254602354106139cb57600080fd5b60226023548154811015156139dc57fe5b6000918252602090912001549350600160a060020a03851615156139ff57600080fd5b831515613a0b57600080fd5b60026000858152601c6020526040902060060154610100900460ff1614613a3157600080fd5b6000848152601e6020526040902080549093501515613a4f57600080fd5b6002830154600184015401915042821015613a6957600080fd5b50600382015460165460ff62010000909204821691168110613a8a57600080fd5b846004840160ff831660058110613a9d57fe5b01805473ffffffffffffffffffffffffffffffffffffffff1916600160a060020a0392831617905560038401805462ff0000198116620100009182900460ff9081166001018116909202179091559086166000908152601d6020526040902085905560165481169082161415613b355760238054600101908190556022541415613b355760006023819055613b33602282615510565b505b5050505050565b6000600160a060020a0382161515613b5357600080fd5b600160a060020a0383161515613b6857600080fd5b50600160a060020a03918216600090815260096020908152604080832093909416825291909152205490565b600090815260046020526040902054600160a060020a0391821691161490565b6000806000806000613bc6878761516c565b9350613bd1846143bb565b9250613bdd878761519a565b915081831015613c4457613bf18785611426565b7f69186e91a26c2cd1f67397df408ddeb0db9249dbd6e2a428ad8ae0d59ba3bc88878588604051928352602083019190915260ff166040808301919091526060909101905180910390a160019450613e5b565b600e805460ff8816908110613c5557fe5b906000526020600020906006020160010154600e8760ff16815481101515613c7957fe5b9060005260206000209060060201600301541415613c9a5760009450613e5b565b613d8c6000600386815481101515613cae57fe5b90600052602060002090600502016001018054600181600116156101000203166002900480601f016020809104026020016040519081016040528092919081815260200182805460018160011615610100020316600290048015613d535780601f10613d2857610100808354040283529160200191613d53565b820191906000526020600020905b815481529060010190602001808311613d3657829003601f168201915b5050505050600387815481101515613d6757fe5b6000918252602090912060026005909202010154600a54600160a060020a03166151cb565b90508015613e5657613da18160018803613bb4565b15613e5657613db08782611426565b7f69186e91a26c2cd1f67397df408ddeb0db9249dbd6e2a428ad8ae0d59ba3bc88878288604051928352602083019190915260ff166040808301919091526060909101905180910390a180600e8760ff16815481101515613e0d57fe5b6000918252602090912060046006909202010155600e805460ff8816908110613e3257fe5b60009182526020909120600360069092020101805460019081019091559450613e5b565b600094505b5050505092915050565b6000808080808080808815801590613e7e575060035489105b1515613e8957600080fd5b6001600c540360038a815481101515613e9e57fe5b906000526020600020906005020160030154141515613ebc57600080fd5b6000898152600d60205260409020549650861515613ed957600080fd5b6000878152600d60205260409020549550851515613ef657600080fd5b6000868152600d60205260409020549450841515613f1357600080fd5b6064600e6002815481101515613f2557fe5b90600052602060002090600602016005015460038b815481101515613f4657fe5b90600052602060002090600502016000015402811515613f6257fe5b049350831515613f7157600080fd5b6064600e6001815481101515613f8357fe5b90600052602060002090600602016005015460038b815481101515613fa457fe5b90600052602060002090600502016000015402811515613fc057fe5b049250821515613fcf57600080fd5b6064600e6000815481101515613fe157fe5b90600052602060002090600602016005015460038b81548110151561400257fe5b9060005260206000209060050201600001540281151561401e57fe5b04915081151561402d57600080fd5b81838560038c81548110151561403f57fe5b6000918252602090912060059091020154030303905080151561406157600080fd5b8360038881548110151561407157fe5b9060005260206000209060050201600001540160038881548110151561409357fe5b600091825260209091206005909102015560038054849190889081106140b557fe5b906000526020600020906005020160000154016003878154811015156140d757fe5b600091825260209091206005909102015560038054839190879081106140f957fe5b9060005260206000209060050201600001540160038681548110151561411b57fe5b6000918252602082206005909102019190915560038054839290811061413d57fe5b906000526020600020906005020160000154016003600081548110151561416057fe5b60009182526020822060059091020191909155600380548b90811061418157fe5b60009182526020909120600590910201557fcfd3c3fcdcb63bcee48ff9a9ec28351afef5ba4fc9b5a8f46d5aa65565a3b1a38983858785604051808681526020018581526020018481526020018381526020018281526020019550505050505060405180910390a150600198975050505050505050565b600091825260066020526040909120805473ffffffffffffffffffffffffffffffffffffffff1916600160a060020a03909216919091179055565b600090815260066020526040902054600160a060020a0391821691161490565b61040060038281548110151561426557fe5b9060005260206000209060050201600401541415151561428157fe5b600160a060020a0380831660008181526005602090815260408083208054600101905585835260049091529020805473ffffffffffffffffffffffffffffffffffffffff1916909117905583161561431c57600160a060020a0383166000908152600560209081526040808320805460001901905583835260069091529020805473ffffffffffffffffffffffffffffffffffffffff191690555b7fddf252ad1be2c89b69c2b068fc378daa952ba7f163c4a11628f55a4df523b3ef838383604051600160a060020a039384168152919092166020820152604080820192909252606001905180910390a1505050565b600061437b6153d7565b6000614386846145c9565b91508151905080151561439c5760009250613914565b816000815181106143a957fe5b90602001906020020151949350505050565b6000808083158015906143cf575060035484105b15156143da57600080fd5b6143e2611552565b915060009250600190505b818111613914576000818152600d6020526040902054841415614411576001909201915b6001016143ed565b6144238383613b94565b151561442e57600080fd5b80151561443a57600080fd5b8060038381548110151561444a57fe5b6000918252602090912060059091020154101561446657600080fd5b8060038381548110151561447657fe5b9060005260206000209060050201600001540360038381548110151561449857fe5b60009182526020909120600590910201557f45dacd427fd388bf162986dbc958cdcf160c31b40efe076907cff377b9857c798383836040518084600160a060020a0316600160a060020a03168152602001838152602001828152602001935050505060405180910390a1505050565b6145118383613b94565b151561451c57600080fd5b80151561452857600080fd5b8060038381548110151561453857fe5b9060005260206000209060050201600001540160038381548110151561455a57fe5b60009182526020909120600590910201557f20f4934a3b4928cca0e51f3f1eaac12dee9af151a8a8ba5a424a89d93f6bf53d8383836040518084600160a060020a0316600160a060020a03168152602001838152602001828152602001935050505060405180910390a1505050565b6145d16153d7565b60006145db6153d7565b60008080600160a060020a03871615156145f457600080fd5b6145fd87612228565b945084151561462d5760006040518059106146155750595b908082528060200260200182016040525095506146b4565b8460405180591061463b5750595b90808252806020026020018201604052509350614656611552565b925060009150600190505b8281116146b057600081815260046020526040902054600160a060020a03888116911614156146a8578084838060010194508151811061469d57fe5b602090810290910101525b600101614661565b8395505b5050505050919050565b6000828152600d602052604081205481808215156146db57600080fd5b6000838152600d602052604090205491508115156146f857600080fd5b506000818152600d602052604090205480151561471457600080fd5b600380548490811061472257fe5b600091825260209091206005909102015485116147425760019350611ba4565b600380548490811061475057fe5b90600052602060002090600502016000015460038381548110151561477157fe5b60009182526020909120600590910201540185116147925760019350611ba4565b60038054849081106147a057fe5b9060005260206000209060050201600001546003838154811015156147c157fe5b9060005260206000209060050201600001546003838154811015156147e257fe5b600091825260209091206005909102015401018511611ba45750600195945050505050565b61480f6153e9565b600080808515801590614823575060035486105b151561482e57600080fd5b84151561483a57600080fd5b60008085526020808601829052604080870183905260608701839052888352600d909152902054925082151561486f57600080fd5b6000838152600d6020526040902054915081151561488c57600080fd5b506000818152600d60205260409020548015156148a857600080fd5b60038054849081106148b657fe5b6000918252602090912060059091020154851161496657604084018581525160038054859081106148e357fe5b9060005260206000209060050201600001540360038481548110151561490557fe5b60009182526020909120600590910201557f7c6ae15e271230e8f8b92de835be76e504f4bb32c5c02872b19e167d6d100fbf86866002604051928352602083019190915260ff166040808301919091526060909101905180910390a1611ba4565b600380548490811061497457fe5b90600052602060002090600502016000015460038381548110151561499557fe5b6000918252602090912060059091020154018511614b29577ff5e9c26d6f4f4192de6ab81062e5f90501d77f924b508e44728a2b78d3c12c6d8684876002604051938452602084019290925260408084019190915260ff90911660608301526080909101905180910390a16003805484908110614a0e57fe5b600091825260209091206005909102015460408501526003805484908110614a3257fe5b60009182526020918290206005909102015486039085015260408401516003805485908110614a5d57fe5b90600052602060002090600502016000015403600384815481101515614a7f57fe5b600091825260209091206005909102015583600160200201516003805484908110614aa657fe5b90600052602060002090600502016000015403600383815481101515614ac857fe5b60009182526020909120600590910201557f7c6ae15e271230e8f8b92de835be76e504f4bb32c5c02872b19e167d6d100fbf86866001604051928352602083019190915260ff166040808301919091526060909101905180910390a1611ba4565b6003805484908110614b3757fe5b906000526020600020906005020160000154600383815481101515614b5857fe5b906000526020600020906005020160000154600383815481101515614b7957fe5b600091825260209091206005909102015401018511614d98577ff5e9c26d6f4f4192de6ab81062e5f90501d77f924b508e44728a2b78d3c12c6d8683876001604051938452602084019290925260408084019190915260ff90911660608301526080909101905180910390a16003805484908110614bf357fe5b600091825260209091206005909102015460408501526003805483908110614c1757fe5b600091825260209182902060059091020154908501526003805483908110614c3b57fe5b906000526020600020906005020160000154600384815481101515614c5c57fe5b6000918252602090912060059091020154860303845260408401516003805485908110614c8557fe5b90600052602060002090600502016000015403600384815481101515614ca757fe5b600091825260209091206005909102015583600160200201516003805484908110614cce57fe5b90600052602060002090600502016000015403600383815481101515614cf057fe5b600091825260209091206005909102015583516003805483908110614d1157fe5b90600052602060002090600502016000015403600382815481101515614d3357fe5b9060005260206000209060050201600001819055507f7c6ae15e271230e8f8b92de835be76e504f4bb32c5c02872b19e167d6d100fbf86866000604051928352602083019190915260ff166040808301919091526060909101905180910390a1611ba4565b7ff5e9c26d6f4f4192de6ab81062e5f90501d77f924b508e44728a2b78d3c12c6d8682876000604051938452602084019290925260408084019190915260ff90911660608301526080909101905180910390a17f95f5c188d1321fe8984cadebc18c8fcaddc6cedbf14ee92f03f318c0e2038485868660405191825260208201526040908101905180910390a150505092915050565b600080614e718360408051908101604052600c81527f43726f7764737572616e6365000000000000000000000000000000000000000060208201526000886151cb565b90506101006040519081016040528042815260200160008152602001600f60010154815260200184815260200160008152602001858152602001600060ff16815260200160006005811115614ec257fe5b60ff1690526000828152601c60205260409020815181556020820151816001015560408201518160020155606082015181600301556080820151816004015560a0820151816005015560c082015160068201805460ff191660ff9290921691909117905560e08201516006909101805460ff929092166101000261ff001990921691909117905550614f53816153bd565b507fbca387acb0ba7d06e329c4372885bb664f19a98153ccf3e74e56c136bf0e88c48582856040518084600160a060020a0316600160a060020a03168152602001838152602001828152602001935050505060405180910390a1600160a060020a0385166000908152601a60209081526040808320839055601b90915281205590509392505050565b614fe68585613b94565b1515614ff157600080fd5b614ffb8383613b94565b151561500657600080fd5b80151561501257600080fd5b8382141561501f57600080fd5b8060038581548110151561502f57fe5b6000918252602090912060059091020154101561504b57600080fd5b61040060038581548110151561505d57fe5b9060005260206000209060050201600401541415151561507c57600080fd5b8060038581548110151561508c57fe5b906000526020600020906005020160000154036003858154811015156150ae57fe5b600091825260209091206005909102015560038054829190849081106150d057fe5b906000526020600020906005020160000154016003838154811015156150f257fe5b60009182526020909120600590910201557f6d401b913d27047ecd2042f0331e2354d30e664920b31480dc71955edb996c388585858585604051600160a060020a0395861681526020810194909452919093166040808401919091526060830193909352608082015260a001905180910390a15050505050565b6000600e8260ff1681548110151561518057fe5b906000526020600020906006020160040154905092915050565b60006001600e8360ff168154811015156151b057fe5b90600052602060002090600602016002015403905092915050565b60006151d56155af565b600060a060405190810160405280888152602001878152602001868152602001600081526020016000815250915060016003805480600101828161521991906155e5565b6000928352602090922085916005020181518155602082015181600101908051615247929160200190615410565b5060408201518160020155606082015181600301556080820151600490910155500390508015156152db5760016003805480600101828161528891906155e5565b60009283526020909220859160050201815181556020820151816001019080516152b6929160200190615410565b5060408201518160020155606082015181600301556080820151816004015550500390505b63ffffffff811681146152ed57600080fd5b7fdea8e87d69047e1b3cd43ad599d34e3eacfe4408b4dfc5d0f6ac6a15a468de5c8787878760405184815260408101839052600160a060020a038216606082015260806020820181815290820185818151815260200191508051906020019080838360005b8381101561536a578082015183820152602001615352565b50505050905090810190601f1680156153975780820380516001836020036101000a031916815260200191505b509550505050505060405180910390a16153b360008583614253565b9695505050505050565b60008115801590610ffa5750600354821061100557600080fd5b60206040519081016040526000815290565b60806040519081016040526004815b60008152602001906001900390816153f85790505090565b828054600181600116156101000203166002900490600052602060002090601f016020900481019282601f1061545157805160ff191683800117855561547e565b8280016001018555821561547e579182015b8281111561547e578251825591602001919060010190615463565b50611569929150615611565b506000815560010160008155600101600081556001016000815560010160009055565b8260058101928215615504579160200282015b82811115615504578251825473ffffffffffffffffffffffffffffffffffffffff1916600160a060020a0391909116178255602092909201916001909101906154c0565b5061156992915061562b565b8154818355818115116119c2576000838152602090206119c2918101908301615611565b5080546000825560020290600052602060002090810190611a88919061565c565b60a0604051908101604090815260008083526020830181905290820181905260608201819052608082015290565b8154818355818115116119c2576002028160020283600052602060002091820191016119c2919061565c565b60a060405190810160405280600081526020016155ca6153d7565b81526020016000815260200160008152602001600081525090565b8154818355818115116119c2576005028160050283600052602060002091820191016119c29190615698565b6113b091905b808211156115695760008155600101615617565b6113b091905b8082111561156957805473ffffffffffffffffffffffffffffffffffffffff19168155600101615631565b6113b091905b80821115611569576000815560018101805476ffffffffffffffffffffffffffffffffffffffffffffff19169055600201615662565b6113b091905b808211156115695760008082556156b860018301826156d6565b5060006002820181905560038201819055600482015560050161569e565b50805460018160011615610100020316600290046000825580601f106156fc5750611a88565b601f016020900490600052602060002090810190611a8891906156115600a165627a7a72305820a7ae16040029ffeaad19cd1d06f0003257549570c15948800da6ef2faa0a39560029",
  "source": "// \n// MIT License\n// \n// Copyright (c) 2018 REGA Risk Sharing\n//   \n// Permission is hereby granted, free of charge, to any person obtaining a copy\n// of this software and associated documentation files (the \"Software\"), to deal\n// in the Software without restriction, including without limitation the rights\n// to use, copy, modify, merge, publish, distribute, sublicense, and/or sell\n// copies of the Software, and to permit persons to whom the Software is\n// furnished to do so, subject to the following conditions:\n// \n// The above copyright notice and this permission notice shall be included in all\n// copies or substantial portions of the Software.\n// \n// THE SOFTWARE IS PROVIDED \"AS IS\", WITHOUT WARRANTY OF ANY KIND, EXPRESS OR\n// IMPLIED, INCLUDING BUT NOT LIMITED TO THE WARRANTIES OF MERCHANTABILITY,\n// FITNESS FOR A PARTICULAR PURPOSE AND NONINFRINGEMENT. IN NO EVENT SHALL THE\n// AUTHORS OR COPYRIGHT HOLDERS BE LIABLE FOR ANY CLAIM, DAMAGES OR OTHER\n// LIABILITY, WHETHER IN AN ACTION OF CONTRACT, TORT OR OTHERWISE, ARISING FROM,\n// OUT OF OR IN CONNECTION WITH THE SOFTWARE OR THE USE OR OTHER DEALINGS IN THE\n// SOFTWARE.\n// \n// Author: Sergei Sevriugin\n// Version: 0.0.1\n//  \n\npragma solidity ^0.4.17;\n\nimport './TokenPool.sol';\n/// TokenCrowdsurance is ERC721SmartToken for crowdsurance products. \n/// Crowdsurance, meaning people unite in communities to provide a guarantee of compensation for unexpected loss. \n/// Using ERC721SmartToken crowdsurance product can be 'tokenized' and can be availible as ERC20 token.\ncontract TokenCrowdsurance is TokenPool {\n    /// Crowdsurance token ERC721 extention\n    /// @param timeStamp join time stemp\n    /// @param activated coverage activation time stamp\n    /// @param duration crowdsurance coverage duration\n    /// @param amount join amount\n    /// @param paid paid claim amount\n    /// @param score member score\n    /// @param claimNumber number of claims\n    /// @param status crowdsurance status\n    struct Crowdsurance {\n        uint        timeStamp;          // join time stamp\n        uint        activated;          // coverage activation time stamp\n        uint        duration;           // risk coverage duration\n        uint256     amount;             // join amount\n        uint256     paid;               // paid amount\n        uint256     score;              // score\n        uint8       claimNumber;        // number of claims\n        uint8       status;             // crowdsurance status\n    }\n    /// Crowdsurance claim\n    /// @param amount claim amount\n    /// @param timeStamp claim time stamp\n    /// @param duration voting period\n    /// @param positive votes to pay claims\n    /// @param negative votes not to pay\n    /// @param number member number\n    /// @param members\n    struct Request {\n        uint256     amount;             // claim amount\n        uint        timeStamp;          // claim time stamp\n        uint        duration;           // voting duration\n        uint8       positive;           // number of positive votes\n        uint8       negative;           // number of negative votes\n        uint8       number;             // juries number\n        address[5]  members;            // jury members \n    }\n    /// Crowdsurance parameters\n    /// @param joinAmount default join amount\n    /// @param coverageDuration default coverage duration\n    /// @param maxClaimAmount maximum claim amount\n    /// @param maxClaimNumber maximum number of claims\n    /// @param paymentRatio %% from claim to be paid\n    /// @param maxPaymentAmount maximum paid amount for all claims for the covarage\n    /// @param minJuriesNumber minimum number of juries to coint votes\n    /// @param votingDuration duration of jury voting process in sec\n    /// @param juriesNumber default juriesNumber - must correspond with Request members array lenght\n    struct Parameters {\n        uint256     joinAmount;         // default join amount\n        uint        coverageDuration;   // coverage duration\n        uint256     maxClaimAmount;     // max claim amount\n        uint8       maxClaimNumber;     // max claim number for the contract\n        uint8       paymentRatio;       // claim to payment patio\n        uint256     maxPaymentAmount;   // max payment amount for the contract\n        uint8       minJuriesNumber;    // min juries number to count voting \n        uint        votingDuration;     // juries voting duration\n        uint8       juriesNumber;       // number of juries\n        uint256     maxApplications;    // maximum number of unprocessed applications\n        uint256     averageScore;       // avarega score\n        uint256     defaultClaimAmount; // default claim amount\n    }\n    /// New member application\n    /// @param timeStamp application time stamp\n    /// @param member new member address \n    /// @param tokensToBuys number of tokens to buy\n    /// @param paymetMethod join payment method : 0 - ETH\n    /// @param processed application processing status\n    struct Application {\n        uint        timeStamp;          // application time stamp\n        address     member;             // new member address\n        uint8       tokensToBuy;        // number of tokens to buy\n        uint8       paymetMethod;       // payment method : 0 - ETH\n        bool        processed;          // processing status\n    }\n    /// Crowdsurance parameters\n    Parameters public parameters;\n    mapping (address => uint256) public addressToAmount;            // address to join amount mapping\n    mapping (address => uint256) public addressToScore;             // address to scoring mapping\n    mapping (uint256 => Crowdsurance) public extensions;            // crowdsurance extension mapping\n    mapping (address => uint256) public voters;                     // crowdsurance voting\n    mapping (uint256 => Request) public requests;                   // crowdsurance token Id to Claim\n    mapping (address => uint256) public addressToApplication;       // address to application mapping\n    Application[] public applications;                              // applications\n    uint256 public appNumber;                                       // number of applications to process\n    uint256[] public claims;\n    uint256 first;\n    /// TokenCrowdsurance Apply event\n    /// @param member new member address\n    /// @param appId member appication id\n    event Apply(address member, uint256 appId);\n    /// TokenCrowdsurance Join event\n    /// @param member new member addrsss\n    /// @param id NFT token id for crowdsurance token\n    /// @param amount paid to join\n    event Join(address member, uint256 id, uint256 amount);\n    /// TokenCrowdsurance Scoring event\n    /// @param member new member addrsss\n    /// @param score member scoring\n    /// @param amount join amount\n    event Scoring(address member, uint256 score, uint256 amount);\n    /// TokenCrowdsurance Activate event\n    /// @param id NFT Id to activate\n    /// @param amount acowdsurance join amount\n    /// @param score member scoring\n    event Activate(uint256 id, uint256 amount, uint256 score);\n    /// TokenCrowdsurance Activate event\n    /// @param id NFT Id to activate\n    /// @param claim claim amount\n    /// @param number total claims number incuding this one\n    event Claim(uint256 id, uint256 claim, uint8 number);\n    /// TokenCrowdsurance vote event\n    /// @param jury voter\n    /// @param id NFT token id to vote\n    /// @param positive voting result\n    event Vote(address jury, uint256 id, bool positive);\n    /// TokenCrowdsurance payment event\n    /// @param reciever reciever of the p[ayment\n    /// @param id NFT id for crowdsurance token\n    /// @param amount mayment amount\n    /// @param status payment status (Approved, Rejected, Closed)\n    event Payment(address reciever, uint256 id, uint256 amount, uint8 status);\n    /// FSSF event\n    /// @param member member address\n    /// @param appId application ID\n    event FSSF(address member, uint256 appId);\n    /// TokenCrowdsurance Status\n    enum Status {Init, Active, Claim, Approved, Rejected, Closed}\n    enum VotingState {Progress, Voted, Timeout}\n    /// scoring function\n    /// @param _member address of the member to score\n    /// @param _score member scoroing result\n    /// @param _amount join amount calculated based on score\n    function scoring(address _member, uint256 _score, uint256 _amount) ownerOnly public {\n        require(_member != address(0));\n        require(_score != uint256(0));\n        require(_amount != uint256(0) && _amount >= parameters.joinAmount);\n        addressToAmount[_member] = _amount;\n        addressToScore[_member] = _score;\n        \n        // clear appication\n        uint256 addId = addressToApplication[_member];\n        if(addId != uint256(0) && addId < applications.length) {\n            applications[addId].processed = true;\n            delete addressToApplication[_member];\n            appNumber--;\n            // if no more applications to process then clear the app array\n            if (appNumber == uint256(0)) {\n                delete applications;\n            }\n        }\n\n        // emit scoring event\n        Scoring(_member, _score, _amount);\n    }\n    function fssf() ownerOnly public {\n        address member;\n        uint256 appId;\n\n        (member, appId) = getApplication();\n\n        if(member != address(0) && appId != uint256(0)) {\n            scoring(member, parameters.averageScore, parameters.joinAmount);\n            // emit FSSF event\n            FSSF(member, appId);\n        }\n    }\n    /// get next application to process\n    function getApplication() view public returns (address member, uint256 appId) {\n        member = address(0);\n        appId = uint256(0);\n\n        if(appNumber == uint256(0)) {\n            return;\n        }\n\n        for(uint256 i = 1; i < applications.length; i++) {\n            if(!applications[i].processed) {\n                member = applications[i].member;\n                appId = i;\n                return;\n            }\n        }\n    }\n    /// get join amount for sender\n    function getJoinAmount() view public returns (uint256 amount) {\n        amount = addressToAmount[msg.sender];\n    }\n    /// get score\n    function getHash() view public returns (string) {\n        return nfts[voters[msg.sender]].metadata;\n    }\n    /// get application ID\n    function getAppID() view public returns (uint256 appId) {\n        appId = addressToApplication[msg.sender];\n    }\n    /// apply function \n    /// @return application ID must be not zero if application is accepted \n    function apply() public returns(uint256 addId) {\n        addId = addressToApplication[msg.sender];\n\n        if (addId == uint256(0) && appNumber < parameters.maxApplications) {\n            // new application\n            Application memory app = Application({\n                timeStamp: now,\n                member: msg.sender,\n                tokensToBuy: uint8(1),\n                paymetMethod: uint8(0),\n                processed: false\n            });\n            \n            addId = applications.push(app) - 1;\n            if(addId == uint256(0)) {\n                // process the first one -- keep 0 index reserved\n                addId = applications.push(app) - 1;\n            }\n            require(addId == uint256(uint32(addId)));\n            addressToApplication[msg.sender] = addId;\n            appNumber++;\n\n            // emit Apply event\n            Apply(msg.sender, addId);\n        }\n    }\n    function _join(address _member, uint256 _score, uint256 _amount) internal returns(uint256) {\n        uint256 id = _createNFT(_amount, \"Crowdsurance\", uint256(0), _member);\n        // Create extension \n        extensions[id] = Crowdsurance ({\n            timeStamp: now,\n            activated: uint(0),\n            duration: parameters.coverageDuration,\n            amount: _amount,\n            paid: uint256(0),\n            score: _score,\n            claimNumber: uint8(0),\n            status: uint8(Status.Init)\n        });\n        // now insert in a subpool\n        _addTokenToSubPool(id);\n        // emit event \n        Join(_member, id, _amount);\n        // clear mapping\n        delete addressToAmount[_member];\n        delete addressToScore[_member];\n        \n        // return NFT token ID\n        return id;\n    }\n    /// join function\n    /// @return cowdsuranceId NFT token ID for created crowdsurance\n    function join() public payable returns(uint256 crowdsuranceId) {\n        uint256 amount = msg.value;\n        address member = msg.sender;\n        uint256 score = addressToScore[member];\n        require(amount != uint256(0) && amount >= parameters.joinAmount);\n        require(score != uint256(0));\n        require(amount == addressToAmount[member]);\n        // call internal _join after all checkups \n        crowdsuranceId = _join(member, score, amount);\n    }\n    /// activate function \n    /// @param _id NFT token ID to activate\n    /// @param _hash activation hash\n    function activate(uint256 _id, string _hash) public {\n        require(_id != uint256(0));\n        require(_owns(msg.sender, _id));\n        require(extensions[_id].amount != uint256(0));\n        require(extensions[_id].status != uint8(Status.Active));        // protect multiple activation that extend coverage\n\n        nfts[_id].state = StateBlocked; // block transfer\n        extensions[_id].status = uint8(Status.Active);\n        extensions[_id].activated = now;\n        nfts[_id].metadata = _hash;\n        // emit event\n        Activate(_id, extensions[_id].amount, extensions[_id].score);\n    }\n    /// claim function\n    /// @param _id NFT token ID to claim payment \n    /// @param _claim claim amount\n    function claim(uint256 _id, uint256 _claim) public returns(bool) {\n        // check all conditions before accept the claim\n        require(_id != uint256(0));\n        require(_owns(msg.sender, _id));\n        require(_claim != uint256(0));\n        require(extensions[_id].status == uint(Status.Active));\n        require(extensions[_id].claimNumber < parameters.maxClaimNumber);\n        uint256 _payment = _claim * parameters.paymentRatio / 100;\n        require((extensions[_id].paid + _payment) <= parameters.maxPaymentAmount);\n        uint coverageEnd = extensions[_id].activated + extensions[_id].duration;\n        require(coverageEnd >= now);\n        // now ready to accept the claim request\n        // change status\n        requests[_id] = Request ({\n            amount: _claim,\n            timeStamp: now,\n            duration: parameters.votingDuration,\n            positive: uint8(0),\n            negative: uint8(0),\n            number: uint8(0),\n            members: [address(0), address(0), address(0), address(0), address(0)]\n        });\n        extensions[_id].claimNumber++;\n        extensions[_id].status = uint8(Status.Claim);\n        // add claim to the Queue\n        claims.push(_id);\n        // emit event\n        Claim(_id, _claim, extensions[_id].claimNumber);\n        return true;\n    }\n    function getNumberOfClaims() view public returns(uint256) {\n        return (claims.length - first);\n    }\n    /// add voter function\n    /// @param _jury voter address\n    function addVoter(address _jury) ownerOnly public {\n        require(first < claims.length);\n        uint256 _id = claims[first];\n        require(_jury != address(0));\n        require(_id != uint256(0));\n        require(extensions[_id].status == uint(Status.Claim));\n        Request storage _request = requests[_id];\n        require(_request.amount != uint256(0));\n        uint votingEnd = _request.timeStamp + _request.duration;\n        require(votingEnd >= now);\n        uint8 _number = _request.number;\n        require(_number < parameters.juriesNumber);\n\n        _request.members[_number] = _jury;\n        _request.number++;\n        voters[_jury] = _id;\n\n        if(_number == parameters.juriesNumber) {\n            first++;\n            if(first == claims.length) {\n                first = 0;\n                claims.length = 0;\n            }\n        }\n    }\n    /// vote function\n    /// @param _id NFT id for claim voting\n    /// @param _positive true if positive to pay claims\n    function vote(uint256 _id, bool _positive) public {\n        require(_id != uint256(0));\n        require(_id == voters[msg.sender]);\n        require(extensions[_id].status == uint8(Status.Claim));\n        Request storage _request = requests[_id];\n        uint votingEnd = _request.timeStamp + _request.duration;\n        require(votingEnd >= now);\n        \n        if(_positive) {\n            _request.positive++;\n        } else {\n            _request.negative++;\n        }\n        delete voters[msg.sender]; // deliting prevent the second time voting\n        // emit event\n        Vote(msg.sender, _id, _positive);\n    }\n    /// token ID helpers\n    function getCurrentTokenId() public view returns (uint256 currentId) {\n        if(msg.sender == owner) {\n            currentId = uint256(0);                         // return 0 for owner\n        }\n        else {\n            uint256[] memory tokenIds = _tokensOfOwner(msg.sender);\n            currentId = tokenIds.length > 0 ? tokenIds[tokenIds.length-1] : uint256(0);\n        }\n    }\n    /// actions helpers for the current token ID\n    function activateCurrent(string _hash) public {\n        activate(getCurrentTokenId(), _hash);\n    }\n    function claimCurrent() public returns(bool) {\n        return claim(getCurrentTokenId(), parameters.defaultClaimAmount);\n    }\n    function paymentCurrent() public {\n        payment(getCurrentTokenId());\n    }\n    /// voting helpers\n    function castPositiveSelected() public {\n        vote(voters[msg.sender], true);\n    }\n    function castNegativeSelected() public {\n        vote(voters[msg.sender], false);\n    }\n    function getCurrentVotingStatus() view public returns(uint8 status) {\n        uint256 _id = getCurrentTokenId();\n        require(_id != uint256(0));\n        require(_owns(msg.sender, _id));\n        require(extensions[_id].status == uint(Status.Claim));\n        Request storage _request = requests[_id];\n        uint256 amount = extensions[_id].amount;\n        uint8 positive = _request.positive;\n        uint8 negative = _request.negative;\n        VotingState state = VotingState.Progress;\n        uint256 payment = _request.amount * parameters.paymentRatio / 100;\n        uint256 balance = this.balance;\n        bool timeout = ( _request.timeStamp + _request.duration ) < now;\n        bool voted = ( _request.positive + _request.negative ) == parameters.juriesNumber;\n\n        if(timeout) {\n            state = VotingState.Timeout;\n        }\n        else if (voted) {\n            state = VotingState.Voted;\n        }\n\n        status = 0;\n        if(state == VotingState.Timeout || state == VotingState.Voted) {\n            if( positive > negative && payment <= balance ) {\n                status = 1;\n            }\n            else if ( positive == negative && amount <= balance ) {\n                status = 2;\n            }\n            else {\n                status = 3;\n            }\n        }\n    }\n    /// get payment function\n    /// @param _id NFT token to get payment\n    function payment(uint256 _id) public {\n        require(_id != uint256(0));\n        require(_owns(msg.sender, _id));\n        require(extensions[_id].status == uint(Status.Claim));\n        Request storage _request = requests[_id];\n        bool timeout = ( _request.timeStamp + _request.duration ) < now;\n        bool voted = ( _request.positive + _request.negative ) == parameters.juriesNumber;\n        require(timeout || voted);\n        uint256 _payment = _request.amount * parameters.paymentRatio / 100;\n        uint256[4] memory distribution;\n        if((_request.positive > _request.negative) && _checkPayment(_id, _payment)) {\n            // pay claims\n            msg.sender.transfer(_payment);\n            extensions[_id].status = uint8(Status.Approved);\n            extensions[_id].paid = extensions[_id].paid + _payment;\n            // update pools' balances\n            distribution = _payValue(_id, _payment);\n            // emit event\n            Payment(msg.sender, _id, _payment, uint8(Status.Approved));\n        } else if   (((_request.positive == _request.negative) || \n                    ((_request.positive + _request.negative) < parameters.minJuriesNumber))\n                    && _checkPayment(_id, extensions[_id].amount)) {\n            // pay back join amount\n            msg.sender.transfer(extensions[_id].amount);\n            extensions[_id].status = uint8(Status.Closed);\n            extensions[_id].paid = extensions[_id].paid + extensions[_id].amount;\n             // update pools' balances\n            distribution = _payValue(_id, extensions[_id].amount);\n            // emit event\n            Payment(msg.sender, _id, extensions[_id].amount, uint8(Status.Closed));\n        } else {\n            // no payment\n            extensions[_id].status = uint8(Status.Rejected);\n            // emit event\n            Payment(msg.sender, _id, uint256(0), uint8(Status.Rejected));\n        }\n        // now time to clean voting enviroment\n        for(uint i; i < _request.number; i++) {\n            delete voters[_request.members[i]];\n        }\n    \n        delete requests[_id];\n        delete distribution;\n    }\n\n    /// status count function\n    /// @param _member address of token owner\n    /// @param _status status to check\n    function statusCount(address _member, uint8 _status) view public returns (uint256 count) {\n        uint256[] memory tokenIds = _tokensOfOwner(_member);\n        count = uint256(0);\n\n        for (uint256 i = 0; i < tokenIds.length; i++) {\n            if (extensions[tokenIds[i]].status == _status) {\n                count++;\n            }\n        }\n    }\n    function TokenCrowdsurance(string _name, string _symbol) TokenPool(_name, _symbol) public {\n        // setup default crowdsurance product parameters\n        parameters.joinAmount = 0.1 ether;                  // default join amount\n        parameters.coverageDuration = 0.5 years;            // coverage duration in sec\n        parameters.maxClaimAmount = 10 ether;               // max claim amount\n        parameters.maxClaimNumber = 1;                      // max claim number for the contract\n        parameters.paymentRatio = 80;                       // claim to payment patio\n        parameters.maxPaymentAmount = 10 ether;             // max payment amount for the contract\n        parameters.minJuriesNumber = 3;                     // min juries number to count voting \n        parameters.votingDuration = 2 days;                 // juries voting duration in sec\n        parameters.juriesNumber = 5;                        // juries number -- not more than 5\n        parameters.maxApplications = 10;                    // max number of unprocessed applications\n        parameters.averageScore = 100;                      // average score value\n        parameters.defaultClaimAmount = 1 ether;            // default claim amount\n\n        appNumber = 0;                                      // initial value for applications\n        first = 0;\n    }\n    function() public payable { }                           //  fallback function to get Ether on contract account\n}",
  "sourcePath": "/Users/sergei/LuggageCrowdsurance/contracts/TokenCrowdsurance.sol",
  "compiler": {
    "name": "solc",
    "version": "0.4.18+commit.9cf6e910.Emscripten.clang"
  },
  "schemaVersion": "1.0.1",
  "updatedAt": "2018-05-24T07:06:14.825Z"
}