{
  "contractName": "TokenPool",
  "abi": [
    {
      "constant": true,
      "inputs": [
        {
          "name": "",
          "type": "address"
        }
      ],
      "name": "connectors",
      "outputs": [
        {
          "name": "",
          "type": "address"
        }
      ],
      "payable": false,
      "stateMutability": "view",
      "type": "function"
    },
    {
      "constant": false,
      "inputs": [
        {
          "name": "_receiver",
          "type": "address"
        }
      ],
      "name": "setReceiver",
      "outputs": [],
      "payable": false,
      "stateMutability": "nonpayable",
      "type": "function"
    },
    {
      "constant": false,
      "inputs": [],
      "name": "acceptOwnership",
      "outputs": [],
      "payable": false,
      "stateMutability": "nonpayable",
      "type": "function"
    },
    {
      "constant": true,
      "inputs": [],
      "name": "owner",
      "outputs": [
        {
          "name": "",
          "type": "address"
        }
      ],
      "payable": false,
      "stateMutability": "view",
      "type": "function"
    },
    {
      "constant": true,
      "inputs": [],
      "name": "container",
      "outputs": [
        {
          "name": "",
          "type": "address"
        }
      ],
      "payable": false,
      "stateMutability": "view",
      "type": "function"
    },
    {
      "constant": true,
      "inputs": [],
      "name": "maxLevel",
      "outputs": [
        {
          "name": "",
          "type": "uint256"
        }
      ],
      "payable": false,
      "stateMutability": "view",
      "type": "function"
    },
    {
      "constant": false,
      "inputs": [
        {
          "name": "_sender",
          "type": "address"
        }
      ],
      "name": "setSender",
      "outputs": [],
      "payable": false,
      "stateMutability": "nonpayable",
      "type": "function"
    },
    {
      "constant": true,
      "inputs": [],
      "name": "newOwner",
      "outputs": [
        {
          "name": "",
          "type": "address"
        }
      ],
      "payable": false,
      "stateMutability": "view",
      "type": "function"
    },
    {
      "constant": false,
      "inputs": [
        {
          "name": "_newOwner",
          "type": "address"
        }
      ],
      "name": "transferOwnership",
      "outputs": [],
      "payable": false,
      "stateMutability": "nonpayable",
      "type": "function"
    },
    {
      "inputs": [
        {
          "name": "_container",
          "type": "address"
        }
      ],
      "payable": false,
      "stateMutability": "nonpayable",
      "type": "constructor"
    },
    {
      "anonymous": false,
      "inputs": [
        {
          "indexed": false,
          "name": "id",
          "type": "uint256"
        },
        {
          "indexed": false,
          "name": "poolId",
          "type": "uint256"
        },
        {
          "indexed": false,
          "name": "level",
          "type": "uint8"
        }
      ],
      "name": "InsertPool",
      "type": "event"
    },
    {
      "anonymous": false,
      "inputs": [
        {
          "indexed": false,
          "name": "id",
          "type": "uint256"
        },
        {
          "indexed": false,
          "name": "superPoolValue",
          "type": "uint256"
        },
        {
          "indexed": false,
          "name": "poolValue",
          "type": "uint256"
        },
        {
          "indexed": false,
          "name": "subPoolValue",
          "type": "uint256"
        },
        {
          "indexed": false,
          "name": "comission",
          "type": "uint256"
        }
      ],
      "name": "DistributeValue",
      "type": "event"
    },
    {
      "anonymous": false,
      "inputs": [
        {
          "indexed": false,
          "name": "id",
          "type": "uint256"
        },
        {
          "indexed": false,
          "name": "value",
          "type": "uint256"
        }
      ],
      "name": "SecondTierCall",
      "type": "event"
    },
    {
      "anonymous": false,
      "inputs": [
        {
          "indexed": false,
          "name": "id",
          "type": "uint256"
        },
        {
          "indexed": false,
          "name": "poolId",
          "type": "uint256"
        },
        {
          "indexed": false,
          "name": "value",
          "type": "uint256"
        },
        {
          "indexed": false,
          "name": "level",
          "type": "uint8"
        }
      ],
      "name": "ShortOfFunds",
      "type": "event"
    },
    {
      "anonymous": false,
      "inputs": [
        {
          "indexed": false,
          "name": "id",
          "type": "uint256"
        },
        {
          "indexed": false,
          "name": "value",
          "type": "uint256"
        },
        {
          "indexed": false,
          "name": "level",
          "type": "uint8"
        }
      ],
      "name": "PaymentValue",
      "type": "event"
    },
    {
      "anonymous": false,
      "inputs": [
        {
          "indexed": true,
          "name": "_prevOwner",
          "type": "address"
        },
        {
          "indexed": true,
          "name": "_newOwner",
          "type": "address"
        }
      ],
      "name": "OwnerUpdate",
      "type": "event"
    },
    {
      "anonymous": false,
      "inputs": [
        {
          "indexed": false,
          "name": "_sender",
          "type": "address"
        },
        {
          "indexed": false,
          "name": "_receiver",
          "type": "address"
        }
      ],
      "name": "ReceiverUpdate",
      "type": "event"
    },
    {
      "anonymous": false,
      "inputs": [
        {
          "indexed": false,
          "name": "_sender",
          "type": "address"
        },
        {
          "indexed": false,
          "name": "_receiver",
          "type": "address"
        }
      ],
      "name": "SenderUpdate",
      "type": "event"
    },
    {
      "constant": false,
      "inputs": [
        {
          "name": "_id",
          "type": "uint256"
        }
      ],
      "name": "insertPool",
      "outputs": [
        {
          "name": "",
          "type": "bool"
        }
      ],
      "payable": false,
      "stateMutability": "nonpayable",
      "type": "function"
    },
    {
      "constant": true,
      "inputs": [],
      "name": "getComission",
      "outputs": [
        {
          "name": "commission",
          "type": "uint256"
        }
      ],
      "payable": false,
      "stateMutability": "view",
      "type": "function"
    },
    {
      "constant": true,
      "inputs": [
        {
          "name": "_claimant",
          "type": "address"
        },
        {
          "name": "_tokenId",
          "type": "uint256"
        }
      ],
      "name": "connector_owns",
      "outputs": [
        {
          "name": "",
          "type": "bool"
        }
      ],
      "payable": false,
      "stateMutability": "view",
      "type": "function"
    },
    {
      "constant": true,
      "inputs": [
        {
          "name": "_id",
          "type": "uint256"
        }
      ],
      "name": "connector_getMetadata",
      "outputs": [
        {
          "name": "",
          "type": "string"
        }
      ],
      "payable": false,
      "stateMutability": "view",
      "type": "function"
    },
    {
      "constant": false,
      "inputs": [
        {
          "name": "_id",
          "type": "uint256"
        },
        {
          "name": "_metadata",
          "type": "string"
        }
      ],
      "name": "connector_setMetadata",
      "outputs": [],
      "payable": false,
      "stateMutability": "nonpayable",
      "type": "function"
    },
    {
      "constant": false,
      "inputs": [
        {
          "name": "_id",
          "type": "uint256"
        }
      ],
      "name": "connector_blocked",
      "outputs": [],
      "payable": false,
      "stateMutability": "nonpayable",
      "type": "function"
    },
    {
      "constant": false,
      "inputs": [
        {
          "name": "_amount",
          "type": "uint256"
        },
        {
          "name": "_member",
          "type": "address"
        }
      ],
      "name": "connector_createNFT",
      "outputs": [
        {
          "name": "",
          "type": "uint256"
        }
      ],
      "payable": false,
      "stateMutability": "nonpayable",
      "type": "function"
    },
    {
      "constant": false,
      "inputs": [
        {
          "name": "_id",
          "type": "uint256"
        }
      ],
      "name": "connector_addTokenToSubPool",
      "outputs": [
        {
          "name": "",
          "type": "bool"
        }
      ],
      "payable": false,
      "stateMutability": "nonpayable",
      "type": "function"
    },
    {
      "constant": true,
      "inputs": [
        {
          "name": "_owner",
          "type": "address"
        }
      ],
      "name": "connector_tokensOfOwner",
      "outputs": [
        {
          "name": "ownerTokens",
          "type": "uint256[]"
        }
      ],
      "payable": false,
      "stateMutability": "view",
      "type": "function"
    },
    {
      "constant": true,
      "inputs": [
        {
          "name": "_id",
          "type": "uint256"
        },
        {
          "name": "_value",
          "type": "uint256"
        }
      ],
      "name": "connector_checkPayment",
      "outputs": [
        {
          "name": "possible",
          "type": "bool"
        }
      ],
      "payable": false,
      "stateMutability": "view",
      "type": "function"
    },
    {
      "constant": false,
      "inputs": [
        {
          "name": "_id",
          "type": "uint256"
        },
        {
          "name": "_value",
          "type": "uint256"
        }
      ],
      "name": "connector_payValue",
      "outputs": [
        {
          "name": "distribution",
          "type": "uint256[4]"
        }
      ],
      "payable": false,
      "stateMutability": "nonpayable",
      "type": "function"
    },
    {
      "constant": true,
      "inputs": [
        {
          "name": "_id",
          "type": "uint256"
        }
      ],
      "name": "getValue",
      "outputs": [
        {
          "name": "",
          "type": "uint256"
        }
      ],
      "payable": false,
      "stateMutability": "view",
      "type": "function"
    },
    {
      "constant": false,
      "inputs": [
        {
          "name": "_id",
          "type": "uint256"
        },
        {
          "name": "_value",
          "type": "uint256"
        }
      ],
      "name": "setValue",
      "outputs": [],
      "payable": false,
      "stateMutability": "nonpayable",
      "type": "function"
    },
    {
      "constant": true,
      "inputs": [],
      "name": "getPoolSize",
      "outputs": [
        {
          "name": "",
          "type": "uint256"
        }
      ],
      "payable": false,
      "stateMutability": "view",
      "type": "function"
    },
    {
      "constant": false,
      "inputs": [],
      "name": "init",
      "outputs": [],
      "payable": false,
      "stateMutability": "nonpayable",
      "type": "function"
    }
  ],
  "bytecode": "0x608060405234801561001057600080fd5b5060405160208062005ea383398101806040528101908080519060200190929190505050336000806101000a81548173ffffffffffffffffffffffffffffffffffffffff021916908373ffffffffffffffffffffffffffffffffffffffff16021790555080600460006101000a81548173ffffffffffffffffffffffffffffffffffffffff021916908373ffffffffffffffffffffffffffffffffffffffff160217905550600460058190555050615dd580620000ce6000396000f30060806040526004361061013d576000357c0100000000000000000000000000000000000000000000000000000000900463ffffffff168062607b7f146101425780630e53aae9146101875780630ff4c9161461020a57806323845e4b1461024b57806329a40d63146102765780634908a554146102c5578063718da7ee1461033857806379ba50971461037b5780637b8d56e3146103925780638da5cb5b146103c957806390e534a714610420578063a780b22e14610477578063c17e19af1461050f578063c97dcba914610582578063cc06c35914610628578063cc933f9d14610653578063ced32b0c146106b8578063d4ee1d90146106fb578063daa8d4f014610752578063dd6d3ca714610797578063dda0d1db146107c2578063e1c7392a146107ef578063ea81d62014610806578063f2fde38b14610867575b600080fd5b34801561014e57600080fd5b5061016d600480360381019080803590602001909291905050506108aa565b604051808215151515815260200191505060405180910390f35b34801561019357600080fd5b506101c8600480360381019080803573ffffffffffffffffffffffffffffffffffffffff169060200190929190505050610941565b604051808273ffffffffffffffffffffffffffffffffffffffff1673ffffffffffffffffffffffffffffffffffffffff16815260200191505060405180910390f35b34801561021657600080fd5b5061023560048036038101908080359060200190929190505050610974565b6040518082815260200191505060405180910390f35b34801561025757600080fd5b50610260610adf565b6040518082815260200191505060405180910390f35b34801561028257600080fd5b506102ab6004803603810190808035906020019092919080359060200190929190505050610aec565b604051808215151515815260200191505060405180910390f35b3480156102d157600080fd5b5061033660048036038101908080359060200190929190803590602001908201803590602001908080601f0160208091040260200160405190810160405280939291908181526020018383808284378201915050505050509192919290505050610b96565b005b34801561034457600080fd5b50610379600480360381019080803573ffffffffffffffffffffffffffffffffffffffff169060200190929190505050610d46565b005b34801561038757600080fd5b50610390610eb6565b005b34801561039e57600080fd5b506103c76004803603810190808035906020019092919080359060200190929190505050611055565b005b3480156103d557600080fd5b506103de6111a0565b604051808273ffffffffffffffffffffffffffffffffffffffff1673ffffffffffffffffffffffffffffffffffffffff16815260200191505060405180910390f35b34801561042c57600080fd5b506104356111c5565b604051808273ffffffffffffffffffffffffffffffffffffffff1673ffffffffffffffffffffffffffffffffffffffff16815260200191505060405180910390f35b34801561048357600080fd5b506104b8600480360381019080803573ffffffffffffffffffffffffffffffffffffffff1690602001909291905050506111eb565b6040518080602001828103825283818151815260200191508051906020019060200280838360005b838110156104fb5780820151818401526020810190506104e0565b505050509050019250505060405180910390f35b34801561051b57600080fd5b5061054460048036038101908080359060200190929190803590602001909291905050506113d8565b6040518082600460200280838360005b8381101561056f578082015181840152602081019050610554565b5050505090500191505060405180910390f35b34801561058e57600080fd5b506105ad60048036038101908080359060200190929190505050611488565b6040518080602001828103825283818151815260200191508051906020019080838360005b838110156105ed5780820151818401526020810190506105d2565b50505050905090810190601f16801561061a5780820380516001836020036101000a031916815260200191505b509250505060405180910390f35b34801561063457600080fd5b5061063d611649565b6040518082815260200191505060405180910390f35b34801561065f57600080fd5b5061069e600480360381019080803573ffffffffffffffffffffffffffffffffffffffff1690602001909291908035906020019092919050505061164f565b604051808215151515815260200191505060405180910390f35b3480156106c457600080fd5b506106f9600480360381019080803573ffffffffffffffffffffffffffffffffffffffff1690602001909291905050506117ef565b005b34801561070757600080fd5b5061071061195f565b604051808273ffffffffffffffffffffffffffffffffffffffff1673ffffffffffffffffffffffffffffffffffffffff16815260200191505060405180910390f35b34801561075e57600080fd5b5061077d60048036038101908080359060200190929190505050611985565b604051808215151515815260200191505060405180910390f35b3480156107a357600080fd5b506107ac611a2d565b6040518082815260200191505060405180910390f35b3480156107ce57600080fd5b506107ed60048036038101908080359060200190929190505050611b01565b005b3480156107fb57600080fd5b50610804611c4d565b005b34801561081257600080fd5b5061085160048036038101908080359060200190929190803573ffffffffffffffffffffffffffffffffffffffff16906020019092919050505061254c565b6040518082815260200191505060405180910390f35b34801561087357600080fd5b506108a8600480360381019080803573ffffffffffffffffffffffffffffffffffffffff16906020019092919050505061272e565b005b60008060009054906101000a900473ffffffffffffffffffffffffffffffffffffffff1673ffffffffffffffffffffffffffffffffffffffff163373ffffffffffffffffffffffffffffffffffffffff1614151561090457fe5b6000821415151561091457600080fd5b61091f826002612826565b151561092757fe5b61093082612f95565b151561093857fe5b60019050919050565b60026020528060005260406000206000915054906101000a900473ffffffffffffffffffffffffffffffffffffffff1681565b6000600260003373ffffffffffffffffffffffffffffffffffffffff1673ffffffffffffffffffffffffffffffffffffffff16815260200190815260200160002060009054906101000a900473ffffffffffffffffffffffffffffffffffffffff1673ffffffffffffffffffffffffffffffffffffffff163073ffffffffffffffffffffffffffffffffffffffff16141515610a0c57fe5b600460009054906101000a900473ffffffffffffffffffffffffffffffffffffffff1673ffffffffffffffffffffffffffffffffffffffff1663f5962e2d836040518263ffffffff167c010000000000000000000000000000000000000000000000000000000002815260040180828152602001915050602060405180830381600087803b158015610a9d57600080fd5b505af1158015610ab1573d6000803e3d6000fd5b505050506040513d6020811015610ac757600080fd5b81019080805190602001909291905050509050919050565b6000600380549050905090565b6000600260003373ffffffffffffffffffffffffffffffffffffffff1673ffffffffffffffffffffffffffffffffffffffff16815260200190815260200160002060009054906101000a900473ffffffffffffffffffffffffffffffffffffffff1673ffffffffffffffffffffffffffffffffffffffff163073ffffffffffffffffffffffffffffffffffffffff16141515610b8457fe5b610b8e8383613beb565b905092915050565b600260003373ffffffffffffffffffffffffffffffffffffffff1673ffffffffffffffffffffffffffffffffffffffff16815260200190815260200160002060009054906101000a900473ffffffffffffffffffffffffffffffffffffffff1673ffffffffffffffffffffffffffffffffffffffff163073ffffffffffffffffffffffffffffffffffffffff16141515610c2c57fe5b600460009054906101000a900473ffffffffffffffffffffffffffffffffffffffff1673ffffffffffffffffffffffffffffffffffffffff1663237c491983836040518363ffffffff167c01000000000000000000000000000000000000000000000000000000000281526004018083815260200180602001828103825283818151815260200191508051906020019080838360005b83811015610cdd578082015181840152602081019050610cc2565b50505050905090810190601f168015610d0a5780820380516001836020036101000a031916815260200191505b509350505050600060405180830381600087803b158015610d2a57600080fd5b505af1158015610d3e573d6000803e3d6000fd5b505050505050565b6000809054906101000a900473ffffffffffffffffffffffffffffffffffffffff1673ffffffffffffffffffffffffffffffffffffffff163373ffffffffffffffffffffffffffffffffffffffff16141515610d9e57fe5b80600260003073ffffffffffffffffffffffffffffffffffffffff1673ffffffffffffffffffffffffffffffffffffffff16815260200190815260200160002060006101000a81548173ffffffffffffffffffffffffffffffffffffffff021916908373ffffffffffffffffffffffffffffffffffffffff1602179055507f88477ef2e6ee708c15e490fc6b373fe9ca955c32fc8679cd5b820323f20e2b9f3082604051808373ffffffffffffffffffffffffffffffffffffffff1673ffffffffffffffffffffffffffffffffffffffff1681526020018273ffffffffffffffffffffffffffffffffffffffff1673ffffffffffffffffffffffffffffffffffffffff1681526020019250505060405180910390a150565b600160009054906101000a900473ffffffffffffffffffffffffffffffffffffffff1673ffffffffffffffffffffffffffffffffffffffff163373ffffffffffffffffffffffffffffffffffffffff16141515610f1257600080fd5b600160009054906101000a900473ffffffffffffffffffffffffffffffffffffffff1673ffffffffffffffffffffffffffffffffffffffff166000809054906101000a900473ffffffffffffffffffffffffffffffffffffffff1673ffffffffffffffffffffffffffffffffffffffff167f343765429aea5a34b3ff6a3785a98a5abb2597aca87bfbb58632c173d585373a60405160405180910390a3600160009054906101000a900473ffffffffffffffffffffffffffffffffffffffff166000806101000a81548173ffffffffffffffffffffffffffffffffffffffff021916908373ffffffffffffffffffffffffffffffffffffffff1602179055506000600160006101000a81548173ffffffffffffffffffffffffffffffffffffffff021916908373ffffffffffffffffffffffffffffffffffffffff160217905550565b600260003373ffffffffffffffffffffffffffffffffffffffff1673ffffffffffffffffffffffffffffffffffffffff16815260200190815260200160002060009054906101000a900473ffffffffffffffffffffffffffffffffffffffff1673ffffffffffffffffffffffffffffffffffffffff163073ffffffffffffffffffffffffffffffffffffffff161415156110eb57fe5b600460009054906101000a900473ffffffffffffffffffffffffffffffffffffffff1673ffffffffffffffffffffffffffffffffffffffff1663cedf5f4a83836040518363ffffffff167c01000000000000000000000000000000000000000000000000000000000281526004018083815260200182815260200192505050600060405180830381600087803b15801561118457600080fd5b505af1158015611198573d6000803e3d6000fd5b505050505050565b6000809054906101000a900473ffffffffffffffffffffffffffffffffffffffff1681565b600460009054906101000a900473ffffffffffffffffffffffffffffffffffffffff1681565b6060600260003373ffffffffffffffffffffffffffffffffffffffff1673ffffffffffffffffffffffffffffffffffffffff16815260200190815260200160002060009054906101000a900473ffffffffffffffffffffffffffffffffffffffff1673ffffffffffffffffffffffffffffffffffffffff163073ffffffffffffffffffffffffffffffffffffffff1614151561128357fe5b600460009054906101000a900473ffffffffffffffffffffffffffffffffffffffff1673ffffffffffffffffffffffffffffffffffffffff16638462151c836040518263ffffffff167c0100000000000000000000000000000000000000000000000000000000028152600401808273ffffffffffffffffffffffffffffffffffffffff1673ffffffffffffffffffffffffffffffffffffffff168152602001915050600060405180830381600087803b15801561134057600080fd5b505af1158015611354573d6000803e3d6000fd5b505050506040513d6000823e3d601f19601f82011682018060405250602081101561137e57600080fd5b81019080805164010000000081111561139657600080fd5b828101905060208101848111156113ac57600080fd5b81518560208202830111640100000000821117156113c957600080fd5b50509291905050509050919050565b6113e0615d4c565b600260003373ffffffffffffffffffffffffffffffffffffffff1673ffffffffffffffffffffffffffffffffffffffff16815260200190815260200160002060009054906101000a900473ffffffffffffffffffffffffffffffffffffffff1673ffffffffffffffffffffffffffffffffffffffff163073ffffffffffffffffffffffffffffffffffffffff1614151561147657fe5b6114808383614394565b905092915050565b6060600260003373ffffffffffffffffffffffffffffffffffffffff1673ffffffffffffffffffffffffffffffffffffffff16815260200190815260200160002060009054906101000a900473ffffffffffffffffffffffffffffffffffffffff1673ffffffffffffffffffffffffffffffffffffffff163073ffffffffffffffffffffffffffffffffffffffff1614151561152057fe5b600460009054906101000a900473ffffffffffffffffffffffffffffffffffffffff1673ffffffffffffffffffffffffffffffffffffffff16636be9a6f1836040518263ffffffff167c010000000000000000000000000000000000000000000000000000000002815260040180828152602001915050600060405180830381600087803b1580156115b157600080fd5b505af11580156115c5573d6000803e3d6000fd5b505050506040513d6000823e3d601f19601f8201168201806040525060208110156115ef57600080fd5b81019080805164010000000081111561160757600080fd5b8281019050602081018481111561161d57600080fd5b815185600182028301116401000000008211171561163a57600080fd5b50509291905050509050919050565b60055481565b6000600260003373ffffffffffffffffffffffffffffffffffffffff1673ffffffffffffffffffffffffffffffffffffffff16815260200190815260200160002060009054906101000a900473ffffffffffffffffffffffffffffffffffffffff1673ffffffffffffffffffffffffffffffffffffffff163073ffffffffffffffffffffffffffffffffffffffff161415156116e757fe5b600460009054906101000a900473ffffffffffffffffffffffffffffffffffffffff1673ffffffffffffffffffffffffffffffffffffffff1663818d4b5d84846040518363ffffffff167c0100000000000000000000000000000000000000000000000000000000028152600401808373ffffffffffffffffffffffffffffffffffffffff1673ffffffffffffffffffffffffffffffffffffffff16815260200182815260200192505050602060405180830381600087803b1580156117ac57600080fd5b505af11580156117c0573d6000803e3d6000fd5b505050506040513d60208110156117d657600080fd5b8101908080519060200190929190505050905092915050565b6000809054906101000a900473ffffffffffffffffffffffffffffffffffffffff1673ffffffffffffffffffffffffffffffffffffffff163373ffffffffffffffffffffffffffffffffffffffff1614151561184757fe5b30600260008373ffffffffffffffffffffffffffffffffffffffff1673ffffffffffffffffffffffffffffffffffffffff16815260200190815260200160002060006101000a81548173ffffffffffffffffffffffffffffffffffffffff021916908373ffffffffffffffffffffffffffffffffffffffff1602179055507f25245aeb6dcc1afb9053581af7e6b984f2191e80b27c263b11c45d821a566a538130604051808373ffffffffffffffffffffffffffffffffffffffff1673ffffffffffffffffffffffffffffffffffffffff1681526020018273ffffffffffffffffffffffffffffffffffffffff1673ffffffffffffffffffffffffffffffffffffffff1681526020019250505060405180910390a150565b600160009054906101000a900473ffffffffffffffffffffffffffffffffffffffff1681565b6000600260003373ffffffffffffffffffffffffffffffffffffffff1673ffffffffffffffffffffffffffffffffffffffff16815260200190815260200160002060009054906101000a900473ffffffffffffffffffffffffffffffffffffffff1673ffffffffffffffffffffffffffffffffffffffff163073ffffffffffffffffffffffffffffffffffffffff16141515611a1d57fe5b611a2682615caf565b9050919050565b6000600460009054906101000a900473ffffffffffffffffffffffffffffffffffffffff1673ffffffffffffffffffffffffffffffffffffffff1663f5962e2d60006040518263ffffffff167c010000000000000000000000000000000000000000000000000000000002815260040180828152602001915050602060405180830381600087803b158015611ac157600080fd5b505af1158015611ad5573d6000803e3d6000fd5b505050506040513d6020811015611aeb57600080fd5b8101908080519060200190929190505050905090565b600260003373ffffffffffffffffffffffffffffffffffffffff1673ffffffffffffffffffffffffffffffffffffffff16815260200190815260200160002060009054906101000a900473ffffffffffffffffffffffffffffffffffffffff1673ffffffffffffffffffffffffffffffffffffffff163073ffffffffffffffffffffffffffffffffffffffff16141515611b9757fe5b600460009054906101000a900473ffffffffffffffffffffffffffffffffffffffff1673ffffffffffffffffffffffffffffffffffffffff16638dc63d19826104006040518363ffffffff167c01000000000000000000000000000000000000000000000000000000000281526004018083815260200182815260200192505050600060405180830381600087803b158015611c3257600080fd5b505af1158015611c46573d6000803e3d6000fd5b5050505050565b6000806000611c5a615d6f565b611c62615d6f565b611c6a615d6f565b6000809054906101000a900473ffffffffffffffffffffffffffffffffffffffff1673ffffffffffffffffffffffffffffffffffffffff163373ffffffffffffffffffffffffffffffffffffffff16141515611cc257fe5b600460009054906101000a900473ffffffffffffffffffffffffffffffffffffffff1673ffffffffffffffffffffffffffffffffffffffff1663192cc2d5678ac7230489e8000060016000809054906101000a900473ffffffffffffffffffffffffffffffffffffffff166040518463ffffffff167c010000000000000000000000000000000000000000000000000000000002815260040180848152602001806020018481526020018373ffffffffffffffffffffffffffffffffffffffff1673ffffffffffffffffffffffffffffffffffffffff168152602001828103825260098152602001807f5375706572506f6f6c0000000000000000000000000000000000000000000000815250602001945050505050602060405180830381600087803b158015611df257600080fd5b505af1158015611e06573d6000803e3d6000fd5b505050506040513d6020811015611e1c57600080fd5b81019080805190602001909291905050509550600460009054906101000a900473ffffffffffffffffffffffffffffffffffffffff1673ffffffffffffffffffffffffffffffffffffffff1663192cc2d5600060016000809054906101000a900473ffffffffffffffffffffffffffffffffffffffff166040518463ffffffff167c010000000000000000000000000000000000000000000000000000000002815260040180848152602001806020018481526020018373ffffffffffffffffffffffffffffffffffffffff1673ffffffffffffffffffffffffffffffffffffffff168152602001828103825260048152602001807f506f6f6c00000000000000000000000000000000000000000000000000000000815250602001945050505050602060405180830381600087803b158015611f5857600080fd5b505af1158015611f6c573d6000803e3d6000fd5b505050506040513d6020811015611f8257600080fd5b81019080805190602001909291905050509450600460009054906101000a900473ffffffffffffffffffffffffffffffffffffffff1673ffffffffffffffffffffffffffffffffffffffff1663192cc2d5600060026000809054906101000a900473ffffffffffffffffffffffffffffffffffffffff166040518463ffffffff167c010000000000000000000000000000000000000000000000000000000002815260040180848152602001806020018481526020018373ffffffffffffffffffffffffffffffffffffffff1673ffffffffffffffffffffffffffffffffffffffff168152602001828103825260078152602001807f537562506f6f6c00000000000000000000000000000000000000000000000000815250602001945050505050602060405180830381600087803b1580156120be57600080fd5b505af11580156120d2573d6000803e3d6000fd5b505050506040513d60208110156120e857600080fd5b81019080805190602001909291905050509350600460009054906101000a900473ffffffffffffffffffffffffffffffffffffffff1673ffffffffffffffffffffffffffffffffffffffff166317b9ebec86886040518363ffffffff167c01000000000000000000000000000000000000000000000000000000000281526004018083815260200182815260200192505050600060405180830381600087803b15801561219457600080fd5b505af11580156121a8573d6000803e3d6000fd5b50505050600460009054906101000a900473ffffffffffffffffffffffffffffffffffffffff1673ffffffffffffffffffffffffffffffffffffffff166317b9ebec85876040518363ffffffff167c01000000000000000000000000000000000000000000000000000000000281526004018083815260200182815260200192505050600060405180830381600087803b15801561224557600080fd5b505af1158015612259573d6000803e3d6000fd5b5050505060c060405190810160405280600060ff16815260200160018152602001600a815260200160018152602001878152602001600a81525092506003839080600181540180825580915050906001820390600052602060002090600602016000909192909190915060008201518160000160006101000a81548160ff021916908360ff1602179055506020820151816001015560408201518160020155606082015181600301556080820151816004015560a0820151816005015550505060c060405190810160405280600160ff168152602001600a81526020016064815260200160018152602001868152602001601481525091506003829080600181540180825580915050906001820390600052602060002090600602016000909192909190915060008201518160000160006101000a81548160ff021916908360ff1602179055506020820151816001015560408201518160020155606082015181600301556080820151816004015560a0820151816005015550505060c060405190810160405280600260ff1681526020016103e881526020016064815260200160018152602001858152602001603281525090506003819080600181540180825580915050906001820390600052602060002090600602016000909192909190915060008201518160000160006101000a81548160ff021916908360ff1602179055506020820151816001015560408201518160020155606082015181600301556080820151816004015560a08201518160050155505050600460009054906101000a900473ffffffffffffffffffffffffffffffffffffffff1673ffffffffffffffffffffffffffffffffffffffff1663cedf5f4a6000806040518363ffffffff167c01000000000000000000000000000000000000000000000000000000000281526004018083815260200182815260200192505050600060405180830381600087803b15801561252c57600080fd5b505af1158015612540573d6000803e3d6000fd5b50505050505050505050565b6000600260003373ffffffffffffffffffffffffffffffffffffffff1673ffffffffffffffffffffffffffffffffffffffff16815260200190815260200160002060009054906101000a900473ffffffffffffffffffffffffffffffffffffffff1673ffffffffffffffffffffffffffffffffffffffff163073ffffffffffffffffffffffffffffffffffffffff161415156125e457fe5b600460009054906101000a900473ffffffffffffffffffffffffffffffffffffffff1673ffffffffffffffffffffffffffffffffffffffff1663192cc2d5846000856040518463ffffffff167c010000000000000000000000000000000000000000000000000000000002815260040180848152602001806020018481526020018373ffffffffffffffffffffffffffffffffffffffff1673ffffffffffffffffffffffffffffffffffffffff1681526020018281038252600c8152602001807f43726f7764737572616e63650000000000000000000000000000000000000000815250602001945050505050602060405180830381600087803b1580156126eb57600080fd5b505af11580156126ff573d6000803e3d6000fd5b505050506040513d602081101561271557600080fd5b8101908080519060200190929190505050905092915050565b6000809054906101000a900473ffffffffffffffffffffffffffffffffffffffff1673ffffffffffffffffffffffffffffffffffffffff163373ffffffffffffffffffffffffffffffffffffffff1614151561278657fe5b6000809054906101000a900473ffffffffffffffffffffffffffffffffffffffff1673ffffffffffffffffffffffffffffffffffffffff168173ffffffffffffffffffffffffffffffffffffffff16141515156127e257600080fd5b80600160006101000a81548173ffffffffffffffffffffffffffffffffffffffff021916908373ffffffffffffffffffffffffffffffffffffffff16021790555050565b60008060008060006128388787615ced565b9350600460009054906101000a900473ffffffffffffffffffffffffffffffffffffffff1673ffffffffffffffffffffffffffffffffffffffff16636595f73a856040518263ffffffff167c010000000000000000000000000000000000000000000000000000000002815260040180828152602001915050602060405180830381600087803b1580156128cb57600080fd5b505af11580156128df573d6000803e3d6000fd5b505050506040513d60208110156128f557600080fd5b810190808051906020019092919050505092506129128787615d1b565b915081831015612a2357600460009054906101000a900473ffffffffffffffffffffffffffffffffffffffff1673ffffffffffffffffffffffffffffffffffffffff166317b9ebec88866040518363ffffffff167c01000000000000000000000000000000000000000000000000000000000281526004018083815260200182815260200192505050600060405180830381600087803b1580156129b557600080fd5b505af11580156129c9573d6000803e3d6000fd5b505050507f69186e91a26c2cd1f67397df408ddeb0db9249dbd6e2a428ad8ae0d59ba3bc88878588604051808481526020018381526020018260ff1660ff168152602001935050505060405180910390a160019450612f8b565b60038660ff16815481101515612a3557fe5b90600052602060002090600602016001015460038760ff16815481101515612a5957fe5b9060005260206000209060060201600301541415612a7a5760009450612f8b565b600460009054906101000a900473ffffffffffffffffffffffffffffffffffffffff1673ffffffffffffffffffffffffffffffffffffffff1663192cc2d56000600460009054906101000a900473ffffffffffffffffffffffffffffffffffffffff1673ffffffffffffffffffffffffffffffffffffffff16636be9a6f1886040518263ffffffff167c010000000000000000000000000000000000000000000000000000000002815260040180828152602001915050600060405180830381600087803b158015612b4b57600080fd5b505af1158015612b5f573d6000803e3d6000fd5b505050506040513d6000823e3d601f19601f820116820180604052506020811015612b8957600080fd5b810190808051640100000000811115612ba157600080fd5b82810190506020810184811115612bb757600080fd5b8151856001820283011164010000000082111715612bd457600080fd5b5050929190505050600460009054906101000a900473ffffffffffffffffffffffffffffffffffffffff1673ffffffffffffffffffffffffffffffffffffffff1663f884cd25896040518263ffffffff167c010000000000000000000000000000000000000000000000000000000002815260040180828152602001915050602060405180830381600087803b158015612c6d57600080fd5b505af1158015612c81573d6000803e3d6000fd5b505050506040513d6020811015612c9757600080fd5b81019080805190602001909291905050506000809054906101000a900473ffffffffffffffffffffffffffffffffffffffff166040518563ffffffff167c010000000000000000000000000000000000000000000000000000000002815260040180858152602001806020018481526020018373ffffffffffffffffffffffffffffffffffffffff1673ffffffffffffffffffffffffffffffffffffffff168152602001828103825285818151815260200191508051906020019080838360005b83811015612d73578082015181840152602081019050612d58565b50505050905090810190601f168015612da05780820380516001836020036101000a031916815260200191505b5095505050505050602060405180830381600087803b158015612dc257600080fd5b505af1158015612dd6573d6000803e3d6000fd5b505050506040513d6020811015612dec57600080fd5b81019080805190602001909291905050509050600081141515612f8657612e168160018803612826565b15612f7d57600460009054906101000a900473ffffffffffffffffffffffffffffffffffffffff1673ffffffffffffffffffffffffffffffffffffffff166317b9ebec88836040518363ffffffff167c01000000000000000000000000000000000000000000000000000000000281526004018083815260200182815260200192505050600060405180830381600087803b158015612eb457600080fd5b505af1158015612ec8573d6000803e3d6000fd5b505050507f69186e91a26c2cd1f67397df408ddeb0db9249dbd6e2a428ad8ae0d59ba3bc88878288604051808481526020018381526020018260ff1660ff168152602001935050505060405180910390a18060038760ff16815481101515612f2c57fe5b90600052602060002090600602016004018190555060038660ff16815481101515612f5357fe5b90600052602060002090600602016003016000815480929190600101919050555060019450612f8b565b60009450612f8b565b600094505b5050505092915050565b6000806000806000806000806000808a14151515612fb257600080fd5b600160055403600460009054906101000a900473ffffffffffffffffffffffffffffffffffffffff1673ffffffffffffffffffffffffffffffffffffffff1663080e035d8c6040518263ffffffff167c010000000000000000000000000000000000000000000000000000000002815260040180828152602001915050602060405180830381600087803b15801561304957600080fd5b505af115801561305d573d6000803e3d6000fd5b505050506040513d602081101561307357600080fd5b810190808051906020019092919050505014151561309057600080fd5b600460009054906101000a900473ffffffffffffffffffffffffffffffffffffffff1673ffffffffffffffffffffffffffffffffffffffff16639ca088318b6040518263ffffffff167c010000000000000000000000000000000000000000000000000000000002815260040180828152602001915050602060405180830381600087803b15801561312157600080fd5b505af1158015613135573d6000803e3d6000fd5b505050506040513d602081101561314b57600080fd5b810190808051906020019092919050505097506000881415151561316e57600080fd5b600460009054906101000a900473ffffffffffffffffffffffffffffffffffffffff1673ffffffffffffffffffffffffffffffffffffffff16639ca08831896040518263ffffffff167c010000000000000000000000000000000000000000000000000000000002815260040180828152602001915050602060405180830381600087803b1580156131ff57600080fd5b505af1158015613213573d6000803e3d6000fd5b505050506040513d602081101561322957600080fd5b810190808051906020019092919050505096506000871415151561324c57600080fd5b600460009054906101000a900473ffffffffffffffffffffffffffffffffffffffff1673ffffffffffffffffffffffffffffffffffffffff16639ca08831886040518263ffffffff167c010000000000000000000000000000000000000000000000000000000002815260040180828152602001915050602060405180830381600087803b1580156132dd57600080fd5b505af11580156132f1573d6000803e3d6000fd5b505050506040513d602081101561330757600080fd5b810190808051906020019092919050505095506000861415151561332a57600080fd5b600460009054906101000a900473ffffffffffffffffffffffffffffffffffffffff1673ffffffffffffffffffffffffffffffffffffffff1663f5962e2d8b6040518263ffffffff167c010000000000000000000000000000000000000000000000000000000002815260040180828152602001915050602060405180830381600087803b1580156133bb57600080fd5b505af11580156133cf573d6000803e3d6000fd5b505050506040513d60208110156133e557600080fd5b8101908080519060200190929190505050945060646003600281548110151561340a57fe5b906000526020600020906006020160050154860281151561342757fe5b0493506000841415151561343a57600080fd5b60646003600181548110151561344c57fe5b906000526020600020906006020160050154860281151561346957fe5b0492506000831415151561347c57600080fd5b60646003600081548110151561348e57fe5b90600052602060002090600602016005015486028115156134ab57fe5b049150600082141515156134be57600080fd5b818385870303039050600081141515156134d757600080fd5b600460009054906101000a900473ffffffffffffffffffffffffffffffffffffffff1673ffffffffffffffffffffffffffffffffffffffff1663cedf5f4a8986600460009054906101000a900473ffffffffffffffffffffffffffffffffffffffff1673ffffffffffffffffffffffffffffffffffffffff1663f5962e2d8d6040518263ffffffff167c010000000000000000000000000000000000000000000000000000000002815260040180828152602001915050602060405180830381600087803b1580156135a857600080fd5b505af11580156135bc573d6000803e3d6000fd5b505050506040513d60208110156135d257600080fd5b8101908080519060200190929190505050016040518363ffffffff167c01000000000000000000000000000000000000000000000000000000000281526004018083815260200182815260200192505050600060405180830381600087803b15801561363d57600080fd5b505af1158015613651573d6000803e3d6000fd5b50505050600460009054906101000a900473ffffffffffffffffffffffffffffffffffffffff1673ffffffffffffffffffffffffffffffffffffffff1663cedf5f4a8885600460009054906101000a900473ffffffffffffffffffffffffffffffffffffffff1673ffffffffffffffffffffffffffffffffffffffff1663f5962e2d8c6040518263ffffffff167c010000000000000000000000000000000000000000000000000000000002815260040180828152602001915050602060405180830381600087803b15801561372657600080fd5b505af115801561373a573d6000803e3d6000fd5b505050506040513d602081101561375057600080fd5b8101908080519060200190929190505050016040518363ffffffff167c01000000000000000000000000000000000000000000000000000000000281526004018083815260200182815260200192505050600060405180830381600087803b1580156137bb57600080fd5b505af11580156137cf573d6000803e3d6000fd5b50505050600460009054906101000a900473ffffffffffffffffffffffffffffffffffffffff1673ffffffffffffffffffffffffffffffffffffffff1663cedf5f4a8784600460009054906101000a900473ffffffffffffffffffffffffffffffffffffffff1673ffffffffffffffffffffffffffffffffffffffff1663f5962e2d8b6040518263ffffffff167c010000000000000000000000000000000000000000000000000000000002815260040180828152602001915050602060405180830381600087803b1580156138a457600080fd5b505af11580156138b8573d6000803e3d6000fd5b505050506040513d60208110156138ce57600080fd5b8101908080519060200190929190505050016040518363ffffffff167c01000000000000000000000000000000000000000000000000000000000281526004018083815260200182815260200192505050600060405180830381600087803b15801561393957600080fd5b505af115801561394d573d6000803e3d6000fd5b50505050600460009054906101000a900473ffffffffffffffffffffffffffffffffffffffff1673ffffffffffffffffffffffffffffffffffffffff1663cedf5f4a600083600460009054906101000a900473ffffffffffffffffffffffffffffffffffffffff1673ffffffffffffffffffffffffffffffffffffffff1663f5962e2d60006040518263ffffffff167c010000000000000000000000000000000000000000000000000000000002815260040180828152602001915050602060405180830381600087803b158015613a2457600080fd5b505af1158015613a38573d6000803e3d6000fd5b505050506040513d6020811015613a4e57600080fd5b8101908080519060200190929190505050016040518363ffffffff167c01000000000000000000000000000000000000000000000000000000000281526004018083815260200182815260200192505050600060405180830381600087803b158015613ab957600080fd5b505af1158015613acd573d6000803e3d6000fd5b50505050600460009054906101000a900473ffffffffffffffffffffffffffffffffffffffff1673ffffffffffffffffffffffffffffffffffffffff1663cedf5f4a8b60006040518363ffffffff167c01000000000000000000000000000000000000000000000000000000000281526004018083815260200182815260200192505050600060405180830381600087803b158015613b6b57600080fd5b505af1158015613b7f573d6000803e3d6000fd5b505050507fcfd3c3fcdcb63bcee48ff9a9ec28351afef5ba4fc9b5a8f46d5aa65565a3b1a38a83858785604051808681526020018581526020018481526020018381526020018281526020019550505050505060405180910390a1600198505050505050505050919050565b60008060008060009350600460009054906101000a900473ffffffffffffffffffffffffffffffffffffffff1673ffffffffffffffffffffffffffffffffffffffff16639ca08831876040518263ffffffff167c010000000000000000000000000000000000000000000000000000000002815260040180828152602001915050602060405180830381600087803b158015613c8657600080fd5b505af1158015613c9a573d6000803e3d6000fd5b505050506040513d6020811015613cb057600080fd5b8101908080519060200190929190505050925060008314151515613cd357600080fd5b600460009054906101000a900473ffffffffffffffffffffffffffffffffffffffff1673ffffffffffffffffffffffffffffffffffffffff16639ca08831846040518263ffffffff167c010000000000000000000000000000000000000000000000000000000002815260040180828152602001915050602060405180830381600087803b158015613d6457600080fd5b505af1158015613d78573d6000803e3d6000fd5b505050506040513d6020811015613d8e57600080fd5b8101908080519060200190929190505050915060008214151515613db157600080fd5b600460009054906101000a900473ffffffffffffffffffffffffffffffffffffffff1673ffffffffffffffffffffffffffffffffffffffff16639ca08831836040518263ffffffff167c010000000000000000000000000000000000000000000000000000000002815260040180828152602001915050602060405180830381600087803b158015613e4257600080fd5b505af1158015613e56573d6000803e3d6000fd5b505050506040513d6020811015613e6c57600080fd5b8101908080519060200190929190505050905060008114151515613e8f57600080fd5b600460009054906101000a900473ffffffffffffffffffffffffffffffffffffffff1673ffffffffffffffffffffffffffffffffffffffff1663f5962e2d846040518263ffffffff167c010000000000000000000000000000000000000000000000000000000002815260040180828152602001915050602060405180830381600087803b158015613f2057600080fd5b505af1158015613f34573d6000803e3d6000fd5b505050506040513d6020811015613f4a57600080fd5b810190808051906020019092919050505085111515613f6c576001935061438b565b600460009054906101000a900473ffffffffffffffffffffffffffffffffffffffff1673ffffffffffffffffffffffffffffffffffffffff1663f5962e2d846040518263ffffffff167c010000000000000000000000000000000000000000000000000000000002815260040180828152602001915050602060405180830381600087803b158015613ffd57600080fd5b505af1158015614011573d6000803e3d6000fd5b505050506040513d602081101561402757600080fd5b8101908080519060200190929190505050600460009054906101000a900473ffffffffffffffffffffffffffffffffffffffff1673ffffffffffffffffffffffffffffffffffffffff1663f5962e2d846040518263ffffffff167c010000000000000000000000000000000000000000000000000000000002815260040180828152602001915050602060405180830381600087803b1580156140c957600080fd5b505af11580156140dd573d6000803e3d6000fd5b505050506040513d60208110156140f357600080fd5b81019080805190602001909291905050500185111515614116576001935061438a565b600460009054906101000a900473ffffffffffffffffffffffffffffffffffffffff1673ffffffffffffffffffffffffffffffffffffffff1663f5962e2d846040518263ffffffff167c010000000000000000000000000000000000000000000000000000000002815260040180828152602001915050602060405180830381600087803b1580156141a757600080fd5b505af11580156141bb573d6000803e3d6000fd5b505050506040513d60208110156141d157600080fd5b8101908080519060200190929190505050600460009054906101000a900473ffffffffffffffffffffffffffffffffffffffff1673ffffffffffffffffffffffffffffffffffffffff1663f5962e2d846040518263ffffffff167c010000000000000000000000000000000000000000000000000000000002815260040180828152602001915050602060405180830381600087803b15801561427357600080fd5b505af1158015614287573d6000803e3d6000fd5b505050506040513d602081101561429d57600080fd5b8101908080519060200190929190505050600460009054906101000a900473ffffffffffffffffffffffffffffffffffffffff1673ffffffffffffffffffffffffffffffffffffffff1663f5962e2d846040518263ffffffff167c010000000000000000000000000000000000000000000000000000000002815260040180828152602001915050602060405180830381600087803b15801561433f57600080fd5b505af1158015614353573d6000803e3d6000fd5b505050506040513d602081101561436957600080fd5b810190808051906020019092919050505001018511151561438957600193505b5b5b50505092915050565b61439c615d4c565b60008060008086141515156143b057600080fd5b600085141515156143c057600080fd5b60008460006004811015156143d157fe5b60200201818152505060008460016004811015156143eb57fe5b602002018181525050600084600260048110151561440557fe5b602002018181525050600084600360048110151561441f57fe5b602002018181525050600460009054906101000a900473ffffffffffffffffffffffffffffffffffffffff1673ffffffffffffffffffffffffffffffffffffffff16639ca08831876040518263ffffffff167c010000000000000000000000000000000000000000000000000000000002815260040180828152602001915050602060405180830381600087803b1580156144b957600080fd5b505af11580156144cd573d6000803e3d6000fd5b505050506040513d60208110156144e357600080fd5b810190808051906020019092919050505092506000831415151561450657600080fd5b600460009054906101000a900473ffffffffffffffffffffffffffffffffffffffff1673ffffffffffffffffffffffffffffffffffffffff16639ca08831846040518263ffffffff167c010000000000000000000000000000000000000000000000000000000002815260040180828152602001915050602060405180830381600087803b15801561459757600080fd5b505af11580156145ab573d6000803e3d6000fd5b505050506040513d60208110156145c157600080fd5b81019080805190602001909291905050509150600082141515156145e457600080fd5b600460009054906101000a900473ffffffffffffffffffffffffffffffffffffffff1673ffffffffffffffffffffffffffffffffffffffff16639ca08831836040518263ffffffff167c010000000000000000000000000000000000000000000000000000000002815260040180828152602001915050602060405180830381600087803b15801561467557600080fd5b505af1158015614689573d6000803e3d6000fd5b505050506040513d602081101561469f57600080fd5b81019080805190602001909291905050509050600081141515156146c257600080fd5b600460009054906101000a900473ffffffffffffffffffffffffffffffffffffffff1673ffffffffffffffffffffffffffffffffffffffff1663f5962e2d846040518263ffffffff167c010000000000000000000000000000000000000000000000000000000002815260040180828152602001915050602060405180830381600087803b15801561475357600080fd5b505af1158015614767573d6000803e3d6000fd5b505050506040513d602081101561477d57600080fd5b81019080805190602001909291905050508511151561499357848460026004811015156147a657fe5b602002018181525050600460009054906101000a900473ffffffffffffffffffffffffffffffffffffffff1673ffffffffffffffffffffffffffffffffffffffff1663cedf5f4a848660026004811015156147fd57fe5b6020020151600460009054906101000a900473ffffffffffffffffffffffffffffffffffffffff1673ffffffffffffffffffffffffffffffffffffffff1663f5962e2d886040518263ffffffff167c010000000000000000000000000000000000000000000000000000000002815260040180828152602001915050602060405180830381600087803b15801561489357600080fd5b505af11580156148a7573d6000803e3d6000fd5b505050506040513d60208110156148bd57600080fd5b8101908080519060200190929190505050036040518363ffffffff167c01000000000000000000000000000000000000000000000000000000000281526004018083815260200182815260200192505050600060405180830381600087803b15801561492857600080fd5b505af115801561493c573d6000803e3d6000fd5b505050507f7c6ae15e271230e8f8b92de835be76e504f4bb32c5c02872b19e167d6d100fbf86866002604051808481526020018381526020018260ff1660ff168152602001935050505060405180910390a1615ca6565b600460009054906101000a900473ffffffffffffffffffffffffffffffffffffffff1673ffffffffffffffffffffffffffffffffffffffff1663f5962e2d846040518263ffffffff167c010000000000000000000000000000000000000000000000000000000002815260040180828152602001915050602060405180830381600087803b158015614a2457600080fd5b505af1158015614a38573d6000803e3d6000fd5b505050506040513d6020811015614a4e57600080fd5b8101908080519060200190929190505050600460009054906101000a900473ffffffffffffffffffffffffffffffffffffffff1673ffffffffffffffffffffffffffffffffffffffff1663f5962e2d846040518263ffffffff167c010000000000000000000000000000000000000000000000000000000002815260040180828152602001915050602060405180830381600087803b158015614af057600080fd5b505af1158015614b04573d6000803e3d6000fd5b505050506040513d6020811015614b1a57600080fd5b810190808051906020019092919050505001851115156150c9577ff5e9c26d6f4f4192de6ab81062e5f90501d77f924b508e44728a2b78d3c12c6d8684876002604051808581526020018481526020018381526020018260ff1660ff16815260200194505050505060405180910390a1600460009054906101000a900473ffffffffffffffffffffffffffffffffffffffff1673ffffffffffffffffffffffffffffffffffffffff1663f5962e2d846040518263ffffffff167c010000000000000000000000000000000000000000000000000000000002815260040180828152602001915050602060405180830381600087803b158015614c1b57600080fd5b505af1158015614c2f573d6000803e3d6000fd5b505050506040513d6020811015614c4557600080fd5b8101908080519060200190929190505050846002600481101515614c6557fe5b602002018181525050600460009054906101000a900473ffffffffffffffffffffffffffffffffffffffff1673ffffffffffffffffffffffffffffffffffffffff1663f5962e2d846040518263ffffffff167c010000000000000000000000000000000000000000000000000000000002815260040180828152602001915050602060405180830381600087803b158015614cff57600080fd5b505af1158015614d13573d6000803e3d6000fd5b505050506040513d6020811015614d2957600080fd5b81019080805190602001909291905050508503846001600481101515614d4b57fe5b602002018181525050600460009054906101000a900473ffffffffffffffffffffffffffffffffffffffff1673ffffffffffffffffffffffffffffffffffffffff1663cedf5f4a84866002600481101515614da257fe5b6020020151600460009054906101000a900473ffffffffffffffffffffffffffffffffffffffff1673ffffffffffffffffffffffffffffffffffffffff1663f5962e2d886040518263ffffffff167c010000000000000000000000000000000000000000000000000000000002815260040180828152602001915050602060405180830381600087803b158015614e3857600080fd5b505af1158015614e4c573d6000803e3d6000fd5b505050506040513d6020811015614e6257600080fd5b8101908080519060200190929190505050036040518363ffffffff167c01000000000000000000000000000000000000000000000000000000000281526004018083815260200182815260200192505050600060405180830381600087803b158015614ecd57600080fd5b505af1158015614ee1573d6000803e3d6000fd5b50505050600460009054906101000a900473ffffffffffffffffffffffffffffffffffffffff1673ffffffffffffffffffffffffffffffffffffffff1663cedf5f4a83866001600481101515614f3357fe5b6020020151600460009054906101000a900473ffffffffffffffffffffffffffffffffffffffff1673ffffffffffffffffffffffffffffffffffffffff1663f5962e2d876040518263ffffffff167c010000000000000000000000000000000000000000000000000000000002815260040180828152602001915050602060405180830381600087803b158015614fc957600080fd5b505af1158015614fdd573d6000803e3d6000fd5b505050506040513d6020811015614ff357600080fd5b8101908080519060200190929190505050036040518363ffffffff167c01000000000000000000000000000000000000000000000000000000000281526004018083815260200182815260200192505050600060405180830381600087803b15801561505e57600080fd5b505af1158015615072573d6000803e3d6000fd5b505050507f7c6ae15e271230e8f8b92de835be76e504f4bb32c5c02872b19e167d6d100fbf86866001604051808481526020018381526020018260ff1660ff168152602001935050505060405180910390a1615ca5565b600460009054906101000a900473ffffffffffffffffffffffffffffffffffffffff1673ffffffffffffffffffffffffffffffffffffffff1663f5962e2d846040518263ffffffff167c010000000000000000000000000000000000000000000000000000000002815260040180828152602001915050602060405180830381600087803b15801561515a57600080fd5b505af115801561516e573d6000803e3d6000fd5b505050506040513d602081101561518457600080fd5b8101908080519060200190929190505050600460009054906101000a900473ffffffffffffffffffffffffffffffffffffffff1673ffffffffffffffffffffffffffffffffffffffff1663f5962e2d846040518263ffffffff167c010000000000000000000000000000000000000000000000000000000002815260040180828152602001915050602060405180830381600087803b15801561522657600080fd5b505af115801561523a573d6000803e3d6000fd5b505050506040513d602081101561525057600080fd5b8101908080519060200190929190505050600460009054906101000a900473ffffffffffffffffffffffffffffffffffffffff1673ffffffffffffffffffffffffffffffffffffffff1663f5962e2d846040518263ffffffff167c010000000000000000000000000000000000000000000000000000000002815260040180828152602001915050602060405180830381600087803b1580156152f257600080fd5b505af1158015615306573d6000803e3d6000fd5b505050506040513d602081101561531c57600080fd5b8101908080519060200190929190505050010185111515615c0e577ff5e9c26d6f4f4192de6ab81062e5f90501d77f924b508e44728a2b78d3c12c6d8683876001604051808581526020018481526020018381526020018260ff1660ff16815260200194505050505060405180910390a1600460009054906101000a900473ffffffffffffffffffffffffffffffffffffffff1673ffffffffffffffffffffffffffffffffffffffff1663f5962e2d846040518263ffffffff167c010000000000000000000000000000000000000000000000000000000002815260040180828152602001915050602060405180830381600087803b15801561541e57600080fd5b505af1158015615432573d6000803e3d6000fd5b505050506040513d602081101561544857600080fd5b810190808051906020019092919050505084600260048110151561546857fe5b602002018181525050600460009054906101000a900473ffffffffffffffffffffffffffffffffffffffff1673ffffffffffffffffffffffffffffffffffffffff1663f5962e2d836040518263ffffffff167c010000000000000000000000000000000000000000000000000000000002815260040180828152602001915050602060405180830381600087803b15801561550257600080fd5b505af1158015615516573d6000803e3d6000fd5b505050506040513d602081101561552c57600080fd5b810190808051906020019092919050505084600160048110151561554c57fe5b602002018181525050600460009054906101000a900473ffffffffffffffffffffffffffffffffffffffff1673ffffffffffffffffffffffffffffffffffffffff1663f5962e2d836040518263ffffffff167c010000000000000000000000000000000000000000000000000000000002815260040180828152602001915050602060405180830381600087803b1580156155e657600080fd5b505af11580156155fa573d6000803e3d6000fd5b505050506040513d602081101561561057600080fd5b8101908080519060200190929190505050600460009054906101000a900473ffffffffffffffffffffffffffffffffffffffff1673ffffffffffffffffffffffffffffffffffffffff1663f5962e2d856040518263ffffffff167c010000000000000000000000000000000000000000000000000000000002815260040180828152602001915050602060405180830381600087803b1580156156b257600080fd5b505af11580156156c6573d6000803e3d6000fd5b505050506040513d60208110156156dc57600080fd5b81019080805190602001909291905050508603038460006004811015156156ff57fe5b602002018181525050600460009054906101000a900473ffffffffffffffffffffffffffffffffffffffff1673ffffffffffffffffffffffffffffffffffffffff1663cedf5f4a8486600260048110151561575657fe5b6020020151600460009054906101000a900473ffffffffffffffffffffffffffffffffffffffff1673ffffffffffffffffffffffffffffffffffffffff1663f5962e2d886040518263ffffffff167c010000000000000000000000000000000000000000000000000000000002815260040180828152602001915050602060405180830381600087803b1580156157ec57600080fd5b505af1158015615800573d6000803e3d6000fd5b505050506040513d602081101561581657600080fd5b8101908080519060200190929190505050036040518363ffffffff167c01000000000000000000000000000000000000000000000000000000000281526004018083815260200182815260200192505050600060405180830381600087803b15801561588157600080fd5b505af1158015615895573d6000803e3d6000fd5b50505050600460009054906101000a900473ffffffffffffffffffffffffffffffffffffffff1673ffffffffffffffffffffffffffffffffffffffff1663cedf5f4a838660016004811015156158e757fe5b6020020151600460009054906101000a900473ffffffffffffffffffffffffffffffffffffffff1673ffffffffffffffffffffffffffffffffffffffff1663f5962e2d876040518263ffffffff167c010000000000000000000000000000000000000000000000000000000002815260040180828152602001915050602060405180830381600087803b15801561597d57600080fd5b505af1158015615991573d6000803e3d6000fd5b505050506040513d60208110156159a757600080fd5b8101908080519060200190929190505050036040518363ffffffff167c01000000000000000000000000000000000000000000000000000000000281526004018083815260200182815260200192505050600060405180830381600087803b158015615a1257600080fd5b505af1158015615a26573d6000803e3d6000fd5b50505050600460009054906101000a900473ffffffffffffffffffffffffffffffffffffffff1673ffffffffffffffffffffffffffffffffffffffff1663cedf5f4a82866000600481101515615a7857fe5b6020020151600460009054906101000a900473ffffffffffffffffffffffffffffffffffffffff1673ffffffffffffffffffffffffffffffffffffffff1663f5962e2d866040518263ffffffff167c010000000000000000000000000000000000000000000000000000000002815260040180828152602001915050602060405180830381600087803b158015615b0e57600080fd5b505af1158015615b22573d6000803e3d6000fd5b505050506040513d6020811015615b3857600080fd5b8101908080519060200190929190505050036040518363ffffffff167c01000000000000000000000000000000000000000000000000000000000281526004018083815260200182815260200192505050600060405180830381600087803b158015615ba357600080fd5b505af1158015615bb7573d6000803e3d6000fd5b505050507f7c6ae15e271230e8f8b92de835be76e504f4bb32c5c02872b19e167d6d100fbf86866000604051808481526020018381526020018260ff1660ff168152602001935050505060405180910390a1615ca4565b7ff5e9c26d6f4f4192de6ab81062e5f90501d77f924b508e44728a2b78d3c12c6d8682876000604051808581526020018481526020018381526020018260ff1660ff16815260200194505050505060405180910390a17f95f5c188d1321fe8984cadebc18c8fcaddc6cedbf14ee92f03f318c0e20384858686604051808381526020018281526020019250505060405180910390a15b5b5b50505092915050565b6000808214151515615cc057600080fd5b615ccb826002612826565b1515615cd357fe5b615cdc82612f95565b1515615ce457fe5b60019050919050565b600060038260ff16815481101515615d0157fe5b906000526020600020906006020160040154905092915050565b6000600160038360ff16815481101515615d3157fe5b90600052602060002090600602016002015403905092915050565b608060405190810160405280600490602082028038833980820191505090505090565b60c060405190810160405280600060ff168152602001600081526020016000815260200160008152602001600081526020016000815250905600a165627a7a723058208ff3e65bf911c337bec84be5968097e649122c0bceef79900e721607a73062b80029",
  "source": "// \n// MIT License\n// \n// Copyright (c) 2018 REGA Risk Sharing\n//   \n// Permission is hereby granted, free of charge, to any person obtaining a copy\n// of this software and associated documentation files (the \"Software\"), to deal\n// in the Software without restriction, including without limitation the rights\n// to use, copy, modify, merge, publish, distribute, sublicense, and/or sell\n// copies of the Software, and to permit persons to whom the Software is\n// furnished to do so, subject to the following conditions:\n// \n// The above copyright notice and this permission notice shall be included in all\n// copies or substantial portions of the Software.\n// \n// THE SOFTWARE IS PROVIDED \"AS IS\", WITHOUT WARRANTY OF ANY KIND, EXPRESS OR\n// IMPLIED, INCLUDING BUT NOT LIMITED TO THE WARRANTIES OF MERCHANTABILITY,\n// FITNESS FOR A PARTICULAR PURPOSE AND NONINFRINGEMENT. IN NO EVENT SHALL THE\n// AUTHORS OR COPYRIGHT HOLDERS BE LIABLE FOR ANY CLAIM, DAMAGES OR OTHER\n// LIABILITY, WHETHER IN AN ACTION OF CONTRACT, TORT OR OTHERWISE, ARISING FROM,\n// OUT OF OR IN CONNECTION WITH THE SOFTWARE OR THE USE OR OTHER DEALINGS IN THE\n// SOFTWARE.\n// \n// Author: Sergei Sevriugin\n// Version: 0.0.1\n//  \n\npragma solidity ^0.4.17;\n\nimport \"./interfaces/ITokenContainer.sol\";\nimport \"./interfaces/ITokenPool.sol\";\nimport \"./Owned.sol\";\n\n/// TokenPool is TokenContainer with 4 level pool structure: \n/// Super Pool (Level 0), Pool (Level 1), Sub Pool (Level 2) and Token (Level 3)\n/// Level       Container / Member\n/// ------------------------------------------------\n///   0         SuperPool\n///   1              |______Pool\n///   2                      |______SubPool\n///   3                                |_______Token\ncontract TokenPool is ITokenPool, Owned() {\n    /// TokenPool insertPool event\n    /// @param id inserted token ID\n    /// @param poolId pool ID\n    /// @param level pool level\n    event InsertPool(uint256 id, uint256 poolId, uint8 level);\n    /// TokenPool value distribution event\n    /// @param id NFT token ID for value distribution \n    /// @param superPoolValue SuperPool Share\n    /// @param poolValue Pool Share\n    /// @param subPoolValue SubPool Share\n    /// @param comission Comission = the rest after all pools \n    event DistributeValue(uint256 id, uint256 superPoolValue, uint256 poolValue, uint256 subPoolValue, uint256 comission);\n    /// TokenPool Second Tier Call event\n    /// @param id NFT token ID that emits event\n    /// @param value 2nd tier capital call value\n    event SecondTierCall(uint256 id, uint256 value);\n    /// TokenPool ShortOfFunds event\n    /// @param id NFT token ID that emits event\n    /// @param poolId pool ID that can't pay\n    /// @param value that pool can't pay\n    /// @param level pool level that can't \n    event ShortOfFunds(uint256 id, uint256 poolId, uint256 value, uint8 level);\n    /// TokenPool Payment Value event\n    /// @param id NFT token ID that emits event\n    /// @param value paid value\n    /// @param level pool level that paid\n    event PaymentValue(uint256 id, uint256 value, uint8 level);\n    /// @dev Pool defines pool structure\n    /// @param level Pool level: 0,1,2,3\n    /// @param maxNumber Maximum number of pools on this lavel\n    /// @param maxMember Maximum number of members for the pool\n    /// @param number Pool number for this level\n    /// @param last NFT ID for last availible pool (with member capacity)\n    struct Pool {\n        uint8   level;      // Pool level: 0,1,2,3\n        uint256 maxNumber;  // Maximum number of pools on this lavel\n        uint256 maxMember;  // Maximum number of members for the pool\n        uint256 number;     // Pool number for this level\n        uint256 last;       // NFT ID for last availible pool (with member capacity)\n        uint256 share;      // Pool share from token investment\n    }\n    /// @dev Pool structure \n    Pool[] pools;           // Pool structure\n    ITokenContainer public container;\n    uint256 public maxLevel;\n    uint256 constant StateBlocked = uint256(1024);\n    /// inset new member in the pool\n    /// @param _id NFT token ID to inserr\n    /// @param _level Pool level to insert\n    /// @return TRUE if insert is done \n    function _getParent(uint256 _id, uint8 _level) internal view returns (uint256 parentId) {\n        // by default returns pools[_level].last but must be overloaded to use score to calculate right pool\n        _id;\n        parentId = pools[_level].last;\n    }\n    function _getCapacity(uint256 _id, uint8 _level) internal view returns (uint256 parentId) {\n        // by default returns pools[_level].maxMember - 1; but can be overloaded to use score to calculate right pool capacity\n        _id;\n        parentId = pools[_level].maxMember - 1;\n    }\n    function _insertPool(uint256 _id, uint8 _level) internal returns (bool) {\n        uint256 parentId = _getParent(_id, _level); // pool NFT token ID\n        uint256 size = container.getPoolSize(parentId);      // current pool size\n        uint256 max = _getCapacity(_id, _level);    // max pool size - 1\n        // check if there is a place to insert \n        if (size < max) {\n            // simple insert\n            container.addToken(_id, parentId); // add to pool \n            emit InsertPool(_id, parentId, _level); // event \n            return true;\n        }\n        else {\n            // no capacity in the current pool, so, need to add new pool\n            // check if it's possible\n            if(pools[_level].number == pools[_level].maxNumber) {\n                // no capacity to add new pool at this lavel\n                return false;\n            }\n            else {\n                // make a copy from the last pool\n                uint newPool = container.createNFT(uint256(0), container.getNFTMetadata(parentId), container.getNFTKind(parentId), owner);\n                if (newPool != uint(0)) { \n                    // insert pool in the pool structure\n                    if (_insertPool(newPool, _level-1)) {\n                        // insert token to the new pool\n                        container.addToken(_id, newPool); // add to pool\n                        emit InsertPool(_id, newPool, _level); // event \n                        // record new pool data in the structure \n                        pools[_level].last = newPool; // new pool is last one\n                        pools[_level].number++;\n                        // new pool and member are inserted \n                        return true;\n                    }\n                    else {\n                        return false;\n                    }\n                }\n                else {\n                    return false;\n                }\n            }\n        }\n    }\n    /// distribute value of the token _id to pools\n    /// @dev make it as simmple as possible for fixed pool staructure\n    /// @param _id NFT token ID to distribute value\n    /// @return TRUE if distribution is complited \n    function _distributeValue(uint256 _id) internal returns (bool) {\n        // need to make sure that _id is terminal node in the structure \n        require(_id != uint256(0));\n        require(container.getNFTLevel(_id) == maxLevel - 1);\n        // now we can check then the path has all pools\n        uint256 subPoolId = container.tokenIndexToPoolToken(_id);\n        require(subPoolId != uint256(0)); // SubPool\n        uint256 poolId = container.tokenIndexToPoolToken(subPoolId);\n        require(poolId != uint256(0)); // Pool\n        uint256 superPoolId = container.tokenIndexToPoolToken(poolId);\n        require(superPoolId != uint256(0)); // SuperPool\n        // calculate values to distribute based of pool structure shares\n        uint256 value = container.getNFTValue(_id);\n        uint256 subPoolValue = value * pools[2].share / 100;\n        require(subPoolValue != uint256(0));\n        uint256 poolValue = value * pools[1].share / 100;\n        require(poolValue != uint256(0));\n        uint256 superPoolValue = value * pools[0].share / 100;\n        require(superPoolValue != uint256(0));\n        uint256 commission = value - subPoolValue - poolValue - superPoolValue;\n        require(commission != uint256(0));\n        // ready to distribute\n        container.setNFTValue(subPoolId, container.getNFTValue(subPoolId) + subPoolValue);\n        container.setNFTValue(poolId, container.getNFTValue(poolId) + poolValue);\n        container.setNFTValue(superPoolId, container.getNFTValue(superPoolId) + superPoolValue);\n        \n        // we will keep comission in the reserved token with ID = 0\n        container.setNFTValue(uint256(0), container.getNFTValue(uint256(0)) + commission);\n    \n        // the distribution is done 0 --> _id value\n        container.setNFTValue(_id, uint256(0));\n        emit DistributeValue(_id, superPoolValue, poolValue, subPoolValue, commission);\n        return true;\n    }\n    /// insert token in pool structure\n    /// @param _id NFT token ID to insert\n    /// @return TRUE if insert is done \n    function insertPool(uint256 _id) ownerOnly public returns(bool) {\n        require(_id != uint256(0));\n        // call internal function\n        assert(_insertPool(_id, 2));\n        // if inserted then make value distribution \n        assert(_distributeValue(_id));\n        return true;\n    }\n    /// insert token in pool structure\n    /// @param _id NFT token ID to insert\n    /// @return TRUE if insert is done \n    function _addTokenToSubPool(uint256 _id) internal returns(bool) {\n        require(_id != uint256(0));\n        // call internal function\n        assert(_insertPool(_id, 2));\n        // if inserted then make value distribution \n        assert(_distributeValue(_id));\n        return true;\n    }\n    /// get collected comission\n    /// @return commission commission value\n    function getComission() public view returns(uint256 commission) {\n        commission = container.getNFTValue(uint256(0));\n    }\n    function _payValue(uint256 _id, uint256 _value) internal returns(uint256[4] distribution) {\n        require(_id != uint256(0));\n        require(_value != uint256(0));\n        distribution[0] = uint256(0);   // Super Pool Value\n        distribution[1] = uint256(0);   // Pool Value\n        distribution[2] = uint256(0);   // SubPool Value\n        distribution[3] = uint256(0);   // Tokens Value (must be 0)\n        // now we can check then the path has all pools\n        uint256 subPoolId = container.tokenIndexToPoolToken(_id);\n        require(subPoolId != uint256(0)); // SubPool\n        uint256 poolId = container.tokenIndexToPoolToken(subPoolId);\n        require(poolId != uint256(0)); // Pool\n        uint256 superPoolId = container.tokenIndexToPoolToken(poolId);\n        require(superPoolId != uint256(0)); // SuperPool\n        if(_value <= container.getNFTValue(subPoolId)) {\n            distribution[2] = _value;\n            container.setNFTValue(subPoolId, container.getNFTValue(subPoolId) - distribution[2]);\n\n            emit PaymentValue(_id, _value, uint8(2));\n        }\n        else if (_value <= container.getNFTValue(poolId) + container.getNFTValue(subPoolId)) {\n            emit ShortOfFunds(_id, subPoolId, _value, uint8(2));\n\n            distribution[2] = container.getNFTValue(subPoolId);\n            distribution[1] = _value - container.getNFTValue(subPoolId);\n\n            container.setNFTValue(subPoolId, container.getNFTValue(subPoolId) - distribution[2]);\n            container.setNFTValue(poolId, container.getNFTValue(poolId) - distribution[1]);\n\n            emit PaymentValue(_id, _value, uint8(1));\n        }\n        else if (_value <= container.getNFTValue(superPoolId) + container.getNFTValue(poolId) + container.getNFTValue(subPoolId)) {\n            emit ShortOfFunds(_id, poolId, _value, uint8(1));\n\n            distribution[2] = container.getNFTValue(subPoolId);\n            distribution[1] = container.getNFTValue(poolId);\n            distribution[0] = _value - container.getNFTValue(subPoolId) - container.getNFTValue(poolId);\n\n            container.setNFTValue(subPoolId, container.getNFTValue(subPoolId) - distribution[2]);\n            container.setNFTValue(poolId, container.getNFTValue(poolId) - distribution[1]);\n            container.setNFTValue(superPoolId, container.getNFTValue(superPoolId) - distribution[0]);\n\n            emit PaymentValue(_id, _value, uint8(0));\n        }\n        else {\n            emit ShortOfFunds(_id, superPoolId, _value, uint8(0));\n            emit SecondTierCall(_id, _value);\n        }\n    }\n    function _checkPayment(uint256 _id, uint256 _value) internal view returns(bool possible) {\n        possible = false;\n        uint256 subPoolId = container.tokenIndexToPoolToken(_id);\n        require(subPoolId != uint256(0)); // SubPool\n        uint256 poolId = container.tokenIndexToPoolToken(subPoolId);\n        require(poolId != uint256(0)); // Pool\n        uint256 superPoolId = container.tokenIndexToPoolToken(poolId);\n        require(superPoolId != uint256(0)); // SuperPool\n        if(_value <= container.getNFTValue(subPoolId)) {\n            possible = true;\n        }\n        else if (_value <= container.getNFTValue(poolId) + container.getNFTValue(subPoolId)) {\n            possible = true;\n        }\n        else if (_value <= container.getNFTValue(superPoolId) + container.getNFTValue(poolId) + container.getNFTValue(subPoolId)) {\n            possible = true;\n        }\n    }\n\n    /// TokenPool Connectors helpers\n    function connector_owns(address _claimant, uint256 _tokenId) public view connectorOnly returns (bool) {\n        return container.owns(_claimant, _tokenId);\n    }\n    function connector_getMetadata(uint256 _id) view public connectorOnly returns (string) {\n        return container.getNFTMetadata(_id);\n    }\n    function connector_setMetadata(uint256 _id, string _metadata) public connectorOnly {\n        container.setNFTMetadata(_id, _metadata);\n    }\n    function connector_blocked(uint256 _id) public connectorOnly {\n        container.setNFTState(_id, StateBlocked);\n    }\n    function connector_createNFT(uint256 _amount, address _member) public connectorOnly returns(uint256) {\n        return container.createNFT(_amount, \"Crowdsurance\", uint256(0), _member);\n    }\n    function connector_addTokenToSubPool(uint256 _id) public connectorOnly returns(bool) {\n        return _addTokenToSubPool(_id);\n    }\n    function connector_tokensOfOwner(address _owner) view public connectorOnly returns(uint256[] ownerTokens) {\n        return container.tokensOfOwner(_owner);\n    }\n    function connector_checkPayment(uint256 _id, uint256 _value) view public connectorOnly  returns(bool possible) {\n        return _checkPayment(_id, _value);\n    }\n    function connector_payValue(uint256 _id, uint256 _value) public connectorOnly returns(uint256[4] distribution) {\n        return _payValue(_id, _value);\n    }\n    function getValue(uint256 _id) public view connectorOnly returns(uint256) {\n        return container.getNFTValue(_id);\n    }\n    function setValue(uint256 _id, uint256 _value) public connectorOnly {\n        container.setNFTValue(_id, _value);\n    }\n    function getPoolSize() public view returns (uint256) {\n        return pools.length;\n    }\n    function init() public ownerOnly {\n        // Creating templates\n        uint superPoolId = container.createNFT(10 ether, \"SuperPool\", uint256(1), owner);    // fix initial capital for 10 Ether\n        uint poolId = container.createNFT(uint256(0), \"Pool\", uint256(1), owner);\n        uint subPoolId = container.createNFT(uint256(0), \"SubPool\", uint256(2), owner);\n\n        // Build initil structure SubPool --> Pool --> SuperPool\n        container.addToken(poolId, superPoolId);\n        container.addToken(subPoolId, poolId);\n\n        // Build configuration \n        // SuperPool configuration\n        Pool memory superPool = Pool({\n            level: uint8(0),\n            maxNumber: uint256(1),\n            maxMember: uint256(10),\n            number: uint256(1),\n            last: uint256(superPoolId),\n            share: uint256(10)\n        });\n        pools.push(superPool);\n        // Pool configuration \n        Pool memory pool = Pool({\n            level: uint8(1),\n            maxNumber: uint256(10),\n            maxMember: uint256(100),\n            number: uint256(1),\n            last: uint256(poolId),\n            share: uint256(20)\n        });\n        pools.push(pool);\n        // SubPool configuration \n        Pool memory subPool = Pool({\n            level: uint8(2),\n            maxNumber: uint256(1000),\n            maxMember: uint256(100),\n            number: uint256(1),\n            last: uint256(subPoolId),\n            share: uint256(50)\n        });\n        pools.push(subPool);\n        // set comission to 0\n        container.setNFTValue(uint256(0), uint256(0));\n    }\n    /// TokenPool Constructor\n    constructor(ITokenContainer _container)  public { \n        container = _container;\n        maxLevel = 4;\n    }\n}",
  "sourcePath": "/Users/sergei/LuggageCrowdsurance/contracts/TokenPool.sol",
  "compiler": {
    "name": "solc",
    "version": "0.4.24+commit.e67f0147.Emscripten.clang"
  },
  "schemaVersion": "2.0.0",
  "updatedAt": "2018-07-11T08:00:01.475Z"
}