{
  "contractName": "TokenPool",
  "abi": [
    {
      "constant": true,
      "inputs": [
        {
          "name": "_interfaceID",
          "type": "bytes4"
        }
      ],
      "name": "supportsInterface",
      "outputs": [
        {
          "name": "",
          "type": "bool"
        }
      ],
      "payable": false,
      "stateMutability": "view",
      "type": "function"
    },
    {
      "constant": true,
      "inputs": [],
      "name": "name",
      "outputs": [
        {
          "name": "",
          "type": "string"
        }
      ],
      "payable": false,
      "stateMutability": "view",
      "type": "function"
    },
    {
      "constant": false,
      "inputs": [
        {
          "name": "_to",
          "type": "address"
        },
        {
          "name": "_tokenId",
          "type": "uint256"
        }
      ],
      "name": "approve",
      "outputs": [],
      "payable": false,
      "stateMutability": "nonpayable",
      "type": "function"
    },
    {
      "constant": false,
      "inputs": [
        {
          "name": "_nodeId",
          "type": "uint256"
        },
        {
          "name": "_parentId",
          "type": "uint256"
        }
      ],
      "name": "addToken",
      "outputs": [],
      "payable": false,
      "stateMutability": "nonpayable",
      "type": "function"
    },
    {
      "constant": true,
      "inputs": [],
      "name": "totalSupply",
      "outputs": [
        {
          "name": "",
          "type": "uint256"
        }
      ],
      "payable": false,
      "stateMutability": "view",
      "type": "function"
    },
    {
      "constant": true,
      "inputs": [
        {
          "name": "",
          "type": "uint256"
        }
      ],
      "name": "tokenIndexToOwner",
      "outputs": [
        {
          "name": "",
          "type": "address"
        }
      ],
      "payable": false,
      "stateMutability": "view",
      "type": "function"
    },
    {
      "constant": false,
      "inputs": [
        {
          "name": "_from",
          "type": "address"
        },
        {
          "name": "_to",
          "type": "address"
        },
        {
          "name": "_tokenId",
          "type": "uint256"
        }
      ],
      "name": "transferFrom",
      "outputs": [],
      "payable": false,
      "stateMutability": "nonpayable",
      "type": "function"
    },
    {
      "constant": false,
      "inputs": [
        {
          "name": "_to",
          "type": "address"
        },
        {
          "name": "_toId",
          "type": "uint256"
        },
        {
          "name": "_level",
          "type": "uint256"
        }
      ],
      "name": "setLevel",
      "outputs": [],
      "payable": false,
      "stateMutability": "nonpayable",
      "type": "function"
    },
    {
      "constant": false,
      "inputs": [
        {
          "name": "_spender",
          "type": "address"
        },
        {
          "name": "_value",
          "type": "uint256"
        }
      ],
      "name": "cApprove",
      "outputs": [
        {
          "name": "success",
          "type": "bool"
        }
      ],
      "payable": false,
      "stateMutability": "nonpayable",
      "type": "function"
    },
    {
      "constant": false,
      "inputs": [
        {
          "name": "_nodeId",
          "type": "uint256"
        }
      ],
      "name": "removeToken",
      "outputs": [],
      "payable": false,
      "stateMutability": "nonpayable",
      "type": "function"
    },
    {
      "constant": false,
      "inputs": [
        {
          "name": "_to",
          "type": "address"
        },
        {
          "name": "_toId",
          "type": "uint256"
        }
      ],
      "name": "increaseLevel",
      "outputs": [],
      "payable": false,
      "stateMutability": "nonpayable",
      "type": "function"
    },
    {
      "constant": false,
      "inputs": [
        {
          "name": "_from",
          "type": "address"
        },
        {
          "name": "_fromId",
          "type": "uint256"
        },
        {
          "name": "_amount",
          "type": "uint256"
        }
      ],
      "name": "cDestroy",
      "outputs": [],
      "payable": false,
      "stateMutability": "nonpayable",
      "type": "function"
    },
    {
      "constant": false,
      "inputs": [
        {
          "name": "_to",
          "type": "address"
        },
        {
          "name": "_toId",
          "type": "uint256"
        },
        {
          "name": "_amount",
          "type": "uint256"
        }
      ],
      "name": "cIssue",
      "outputs": [],
      "payable": false,
      "stateMutability": "nonpayable",
      "type": "function"
    },
    {
      "constant": true,
      "inputs": [
        {
          "name": "_tokenId",
          "type": "uint256"
        }
      ],
      "name": "ownerOf",
      "outputs": [
        {
          "name": "",
          "type": "address"
        }
      ],
      "payable": false,
      "stateMutability": "view",
      "type": "function"
    },
    {
      "constant": false,
      "inputs": [
        {
          "name": "_to",
          "type": "address"
        },
        {
          "name": "_value",
          "type": "uint256"
        }
      ],
      "name": "cTransfer",
      "outputs": [
        {
          "name": "success",
          "type": "bool"
        }
      ],
      "payable": false,
      "stateMutability": "nonpayable",
      "type": "function"
    },
    {
      "constant": true,
      "inputs": [
        {
          "name": "_tokenId",
          "type": "uint256"
        }
      ],
      "name": "tokenMetadata",
      "outputs": [
        {
          "name": "infoUrl",
          "type": "string"
        }
      ],
      "payable": false,
      "stateMutability": "view",
      "type": "function"
    },
    {
      "constant": true,
      "inputs": [
        {
          "name": "_owner",
          "type": "address"
        }
      ],
      "name": "balanceOf",
      "outputs": [
        {
          "name": "count",
          "type": "uint256"
        }
      ],
      "payable": false,
      "stateMutability": "view",
      "type": "function"
    },
    {
      "constant": false,
      "inputs": [],
      "name": "acceptOwnership",
      "outputs": [],
      "payable": false,
      "stateMutability": "nonpayable",
      "type": "function"
    },
    {
      "constant": true,
      "inputs": [
        {
          "name": "_owner",
          "type": "address"
        }
      ],
      "name": "tokensOfOwner",
      "outputs": [
        {
          "name": "ownerTokens",
          "type": "uint256[]"
        }
      ],
      "payable": false,
      "stateMutability": "view",
      "type": "function"
    },
    {
      "constant": true,
      "inputs": [],
      "name": "owner",
      "outputs": [
        {
          "name": "",
          "type": "address"
        }
      ],
      "payable": false,
      "stateMutability": "view",
      "type": "function"
    },
    {
      "constant": true,
      "inputs": [],
      "name": "cTotalSupply",
      "outputs": [
        {
          "name": "",
          "type": "uint256"
        }
      ],
      "payable": false,
      "stateMutability": "view",
      "type": "function"
    },
    {
      "constant": true,
      "inputs": [],
      "name": "symbol",
      "outputs": [
        {
          "name": "",
          "type": "string"
        }
      ],
      "payable": false,
      "stateMutability": "view",
      "type": "function"
    },
    {
      "constant": false,
      "inputs": [
        {
          "name": "_fromId",
          "type": "uint256"
        },
        {
          "name": "_spender",
          "type": "address"
        },
        {
          "name": "_toId",
          "type": "uint256"
        },
        {
          "name": "_value",
          "type": "uint256"
        }
      ],
      "name": "cApproveFrom",
      "outputs": [
        {
          "name": "success",
          "type": "bool"
        }
      ],
      "payable": false,
      "stateMutability": "nonpayable",
      "type": "function"
    },
    {
      "constant": true,
      "inputs": [
        {
          "name": "",
          "type": "uint256"
        }
      ],
      "name": "tokenIndexToPoolToken",
      "outputs": [
        {
          "name": "",
          "type": "uint256"
        }
      ],
      "payable": false,
      "stateMutability": "view",
      "type": "function"
    },
    {
      "constant": true,
      "inputs": [
        {
          "name": "",
          "type": "uint256"
        }
      ],
      "name": "tokenIndexToApproved",
      "outputs": [
        {
          "name": "",
          "type": "address"
        }
      ],
      "payable": false,
      "stateMutability": "view",
      "type": "function"
    },
    {
      "constant": false,
      "inputs": [
        {
          "name": "_to",
          "type": "address"
        },
        {
          "name": "_tokenId",
          "type": "uint256"
        }
      ],
      "name": "transfer",
      "outputs": [],
      "payable": false,
      "stateMutability": "nonpayable",
      "type": "function"
    },
    {
      "constant": true,
      "inputs": [
        {
          "name": "_to",
          "type": "address"
        },
        {
          "name": "_toId",
          "type": "uint256"
        }
      ],
      "name": "getLevel",
      "outputs": [
        {
          "name": "",
          "type": "uint256"
        }
      ],
      "payable": false,
      "stateMutability": "view",
      "type": "function"
    },
    {
      "constant": true,
      "inputs": [
        {
          "name": "_owner",
          "type": "address"
        }
      ],
      "name": "cBalanceOf",
      "outputs": [
        {
          "name": "",
          "type": "uint256"
        }
      ],
      "payable": false,
      "stateMutability": "view",
      "type": "function"
    },
    {
      "constant": false,
      "inputs": [
        {
          "name": "_from",
          "type": "address"
        },
        {
          "name": "_to",
          "type": "address"
        },
        {
          "name": "_value",
          "type": "uint256"
        }
      ],
      "name": "cTransferFrom",
      "outputs": [
        {
          "name": "success",
          "type": "bool"
        }
      ],
      "payable": false,
      "stateMutability": "nonpayable",
      "type": "function"
    },
    {
      "constant": true,
      "inputs": [
        {
          "name": "",
          "type": "address"
        },
        {
          "name": "",
          "type": "address"
        }
      ],
      "name": "allowanceAmt",
      "outputs": [
        {
          "name": "",
          "type": "uint256"
        }
      ],
      "payable": false,
      "stateMutability": "view",
      "type": "function"
    },
    {
      "constant": true,
      "inputs": [],
      "name": "maxLevel",
      "outputs": [
        {
          "name": "",
          "type": "uint256"
        }
      ],
      "payable": false,
      "stateMutability": "view",
      "type": "function"
    },
    {
      "constant": true,
      "inputs": [],
      "name": "newOwner",
      "outputs": [
        {
          "name": "",
          "type": "address"
        }
      ],
      "payable": false,
      "stateMutability": "view",
      "type": "function"
    },
    {
      "constant": true,
      "inputs": [
        {
          "name": "",
          "type": "address"
        },
        {
          "name": "",
          "type": "address"
        }
      ],
      "name": "allowance",
      "outputs": [
        {
          "name": "",
          "type": "uint256"
        }
      ],
      "payable": false,
      "stateMutability": "view",
      "type": "function"
    },
    {
      "constant": true,
      "inputs": [
        {
          "name": "_nodeId",
          "type": "uint256"
        }
      ],
      "name": "getPath",
      "outputs": [
        {
          "name": "path",
          "type": "uint256[]"
        }
      ],
      "payable": false,
      "stateMutability": "view",
      "type": "function"
    },
    {
      "constant": true,
      "inputs": [
        {
          "name": "",
          "type": "address"
        },
        {
          "name": "",
          "type": "address"
        }
      ],
      "name": "allowanceIds",
      "outputs": [
        {
          "name": "",
          "type": "uint256"
        }
      ],
      "payable": false,
      "stateMutability": "view",
      "type": "function"
    },
    {
      "constant": false,
      "inputs": [
        {
          "name": "_newOwner",
          "type": "address"
        }
      ],
      "name": "transferOwnership",
      "outputs": [],
      "payable": false,
      "stateMutability": "nonpayable",
      "type": "function"
    },
    {
      "constant": true,
      "inputs": [
        {
          "name": "_owner",
          "type": "address"
        },
        {
          "name": "_spender",
          "type": "address"
        }
      ],
      "name": "cAllowance",
      "outputs": [
        {
          "name": "",
          "type": "uint256"
        }
      ],
      "payable": false,
      "stateMutability": "view",
      "type": "function"
    },
    {
      "inputs": [
        {
          "name": "_name",
          "type": "string"
        },
        {
          "name": "_symbol",
          "type": "string"
        }
      ],
      "payable": false,
      "stateMutability": "nonpayable",
      "type": "constructor"
    },
    {
      "anonymous": false,
      "inputs": [
        {
          "indexed": false,
          "name": "id",
          "type": "uint256"
        },
        {
          "indexed": false,
          "name": "poolId",
          "type": "uint256"
        },
        {
          "indexed": false,
          "name": "level",
          "type": "uint8"
        }
      ],
      "name": "InsertPool",
      "type": "event"
    },
    {
      "anonymous": false,
      "inputs": [
        {
          "indexed": false,
          "name": "id",
          "type": "uint256"
        },
        {
          "indexed": false,
          "name": "superPoolValue",
          "type": "uint256"
        },
        {
          "indexed": false,
          "name": "poolValue",
          "type": "uint256"
        },
        {
          "indexed": false,
          "name": "subPoolValue",
          "type": "uint256"
        },
        {
          "indexed": false,
          "name": "comission",
          "type": "uint256"
        }
      ],
      "name": "DistributeValue",
      "type": "event"
    },
    {
      "anonymous": false,
      "inputs": [
        {
          "indexed": false,
          "name": "id",
          "type": "uint256"
        },
        {
          "indexed": false,
          "name": "value",
          "type": "uint256"
        }
      ],
      "name": "SecondTierCall",
      "type": "event"
    },
    {
      "anonymous": false,
      "inputs": [
        {
          "indexed": false,
          "name": "id",
          "type": "uint256"
        },
        {
          "indexed": false,
          "name": "poolId",
          "type": "uint256"
        },
        {
          "indexed": false,
          "name": "value",
          "type": "uint256"
        },
        {
          "indexed": false,
          "name": "level",
          "type": "uint8"
        }
      ],
      "name": "ShortOfFunds",
      "type": "event"
    },
    {
      "anonymous": false,
      "inputs": [
        {
          "indexed": false,
          "name": "id",
          "type": "uint256"
        },
        {
          "indexed": false,
          "name": "value",
          "type": "uint256"
        },
        {
          "indexed": false,
          "name": "level",
          "type": "uint8"
        }
      ],
      "name": "PaymentValue",
      "type": "event"
    },
    {
      "anonymous": false,
      "inputs": [
        {
          "indexed": false,
          "name": "nodeId",
          "type": "uint256"
        },
        {
          "indexed": false,
          "name": "parentId",
          "type": "uint256"
        },
        {
          "indexed": false,
          "name": "level",
          "type": "uint256"
        }
      ],
      "name": "AddToken",
      "type": "event"
    },
    {
      "anonymous": false,
      "inputs": [
        {
          "indexed": false,
          "name": "nodeId",
          "type": "uint256"
        },
        {
          "indexed": false,
          "name": "level",
          "type": "uint256"
        }
      ],
      "name": "RemoveToken",
      "type": "event"
    },
    {
      "anonymous": false,
      "inputs": [
        {
          "indexed": false,
          "name": "from",
          "type": "address"
        },
        {
          "indexed": false,
          "name": "fromId",
          "type": "uint256"
        },
        {
          "indexed": false,
          "name": "to",
          "type": "address"
        },
        {
          "indexed": false,
          "name": "toId",
          "type": "uint256"
        },
        {
          "indexed": false,
          "name": "value",
          "type": "uint256"
        }
      ],
      "name": "Transfer",
      "type": "event"
    },
    {
      "anonymous": false,
      "inputs": [
        {
          "indexed": false,
          "name": "to",
          "type": "address"
        },
        {
          "indexed": false,
          "name": "toId",
          "type": "uint256"
        },
        {
          "indexed": false,
          "name": "value",
          "type": "uint256"
        }
      ],
      "name": "AddValue",
      "type": "event"
    },
    {
      "anonymous": false,
      "inputs": [
        {
          "indexed": false,
          "name": "from",
          "type": "address"
        },
        {
          "indexed": false,
          "name": "fromId",
          "type": "uint256"
        },
        {
          "indexed": false,
          "name": "value",
          "type": "uint256"
        }
      ],
      "name": "RemoveValue",
      "type": "event"
    },
    {
      "anonymous": false,
      "inputs": [
        {
          "indexed": false,
          "name": "to",
          "type": "address"
        },
        {
          "indexed": false,
          "name": "toId",
          "type": "uint256"
        },
        {
          "indexed": false,
          "name": "level",
          "type": "uint256"
        }
      ],
      "name": "SetLevel",
      "type": "event"
    },
    {
      "anonymous": false,
      "inputs": [
        {
          "indexed": false,
          "name": "to",
          "type": "address"
        },
        {
          "indexed": false,
          "name": "toId",
          "type": "uint256"
        }
      ],
      "name": "IncreaseLevel",
      "type": "event"
    },
    {
      "anonymous": false,
      "inputs": [
        {
          "indexed": true,
          "name": "_prevOwner",
          "type": "address"
        },
        {
          "indexed": true,
          "name": "_newOwner",
          "type": "address"
        }
      ],
      "name": "OwnerUpdate",
      "type": "event"
    },
    {
      "anonymous": false,
      "inputs": [
        {
          "indexed": false,
          "name": "fromId",
          "type": "uint256"
        },
        {
          "indexed": false,
          "name": "spender",
          "type": "address"
        },
        {
          "indexed": false,
          "name": "toId",
          "type": "uint256"
        },
        {
          "indexed": false,
          "name": "value",
          "type": "uint256"
        }
      ],
      "name": "CApproveFrom",
      "type": "event"
    },
    {
      "anonymous": false,
      "inputs": [
        {
          "indexed": false,
          "name": "spender",
          "type": "address"
        },
        {
          "indexed": false,
          "name": "value",
          "type": "uint256"
        }
      ],
      "name": "CApprove",
      "type": "event"
    },
    {
      "anonymous": false,
      "inputs": [
        {
          "indexed": false,
          "name": "from",
          "type": "address"
        },
        {
          "indexed": false,
          "name": "fromId",
          "type": "uint256"
        },
        {
          "indexed": false,
          "name": "to",
          "type": "address"
        },
        {
          "indexed": false,
          "name": "toId",
          "type": "uint256"
        },
        {
          "indexed": false,
          "name": "value",
          "type": "uint256"
        },
        {
          "indexed": false,
          "name": "allowance",
          "type": "uint256"
        }
      ],
      "name": "CTransferFrom",
      "type": "event"
    },
    {
      "anonymous": false,
      "inputs": [
        {
          "indexed": false,
          "name": "to",
          "type": "address"
        },
        {
          "indexed": false,
          "name": "toId",
          "type": "uint256"
        },
        {
          "indexed": false,
          "name": "amount",
          "type": "uint256"
        }
      ],
      "name": "CIssue",
      "type": "event"
    },
    {
      "anonymous": false,
      "inputs": [
        {
          "indexed": false,
          "name": "from",
          "type": "address"
        },
        {
          "indexed": false,
          "name": "fromId",
          "type": "uint256"
        },
        {
          "indexed": false,
          "name": "amount",
          "type": "uint256"
        }
      ],
      "name": "CDestroy",
      "type": "event"
    },
    {
      "anonymous": false,
      "inputs": [
        {
          "indexed": false,
          "name": "from",
          "type": "address"
        },
        {
          "indexed": false,
          "name": "to",
          "type": "address"
        },
        {
          "indexed": false,
          "name": "tokenId",
          "type": "uint256"
        }
      ],
      "name": "Transfer",
      "type": "event"
    },
    {
      "anonymous": false,
      "inputs": [
        {
          "indexed": false,
          "name": "owner",
          "type": "address"
        },
        {
          "indexed": false,
          "name": "approved",
          "type": "address"
        },
        {
          "indexed": false,
          "name": "tokenId",
          "type": "uint256"
        }
      ],
      "name": "Approval",
      "type": "event"
    },
    {
      "anonymous": false,
      "inputs": [
        {
          "indexed": false,
          "name": "value",
          "type": "uint256"
        },
        {
          "indexed": false,
          "name": "metadata",
          "type": "string"
        },
        {
          "indexed": false,
          "name": "kind",
          "type": "uint256"
        },
        {
          "indexed": false,
          "name": "owner",
          "type": "address"
        }
      ],
      "name": "Birth",
      "type": "event"
    },
    {
      "constant": false,
      "inputs": [
        {
          "name": "_id",
          "type": "uint256"
        }
      ],
      "name": "insertPool",
      "outputs": [
        {
          "name": "",
          "type": "bool"
        }
      ],
      "payable": false,
      "stateMutability": "nonpayable",
      "type": "function"
    },
    {
      "constant": true,
      "inputs": [],
      "name": "getDistribution",
      "outputs": [
        {
          "name": "distribution",
          "type": "uint256[4]"
        }
      ],
      "payable": false,
      "stateMutability": "view",
      "type": "function"
    },
    {
      "constant": true,
      "inputs": [
        {
          "name": "_id",
          "type": "uint256"
        },
        {
          "name": "_value",
          "type": "uint256"
        }
      ],
      "name": "checkPaymentAmount",
      "outputs": [
        {
          "name": "level",
          "type": "uint8"
        },
        {
          "name": "amtSubPool",
          "type": "uint256"
        },
        {
          "name": "amtPool",
          "type": "uint256"
        },
        {
          "name": "amtSuperPool",
          "type": "uint256"
        },
        {
          "name": "balance",
          "type": "uint256"
        }
      ],
      "payable": false,
      "stateMutability": "view",
      "type": "function"
    },
    {
      "constant": true,
      "inputs": [
        {
          "name": "_tokenId",
          "type": "uint256"
        }
      ],
      "name": "valueOf",
      "outputs": [
        {
          "name": "value",
          "type": "uint256"
        }
      ],
      "payable": false,
      "stateMutability": "view",
      "type": "function"
    },
    {
      "constant": true,
      "inputs": [],
      "name": "getComission",
      "outputs": [
        {
          "name": "commission",
          "type": "uint256"
        }
      ],
      "payable": false,
      "stateMutability": "view",
      "type": "function"
    }
  ],
  "bytecode": "0x60806040523480156200001157600080fd5b506040516200591938038062005919833981018060405281019080805182019291906020018051820192919050505060008060006200004f62000b22565b6200005962000b22565b6200006362000b22565b87878181818133600260006101000a81548173ffffffffffffffffffffffffffffffffffffffff021916908373ffffffffffffffffffffffffffffffffffffffff1602179055508160009080519060200190620000c292919062000b5c565b508060019080519060200190620000db92919062000b5c565b50505033600a60006101000a81548173ffffffffffffffffffffffffffffffffffffffff021916908373ffffffffffffffffffffffffffffffffffffffff16021790555050506004600c8190555050506004600c81905550620001b0678ac7230489e800006040805190810160405280600981526020017f5375706572506f6f6c00000000000000000000000000000000000000000000008152506001600a60009054906101000a900473ffffffffffffffffffffffffffffffffffffffff1662000543640100000000026401000000009004565b95506200022860006040805190810160405280600481526020017f506f6f6c000000000000000000000000000000000000000000000000000000008152506001600a60009054906101000a900473ffffffffffffffffffffffffffffffffffffffff1662000543640100000000026401000000009004565b9450620002a060006040805190810160405280600781526020017f537562506f6f6c000000000000000000000000000000000000000000000000008152506002600a60009054906101000a900473ffffffffffffffffffffffffffffffffffffffff1662000543640100000000026401000000009004565b9350620002bd8587620007a8640100000000026401000000009004565b620002d88486620007a8640100000000026401000000009004565b60c060405190810160405280600060ff16815260200160018152602001600a815260200160018152602001878152602001600a8152509250600e839080600181540180825580915050906001820390600052602060002090600602016000909192909190915060008201518160000160006101000a81548160ff021916908360ff1602179055506020820151816001015560408201518160020155606082015181600301556080820151816004015560a0820151816005015550505060c060405190810160405280600160ff168152602001600a8152602001606481526020016001815260200186815260200160148152509150600e829080600181540180825580915050906001820390600052602060002090600602016000909192909190915060008201518160000160006101000a81548160ff021916908360ff1602179055506020820151816001015560408201518160020155606082015181600301556080820151816004015560a0820151816005015550505060c060405190810160405280600260ff1681526020016103e88152602001606481526020016001815260200185815260200160328152509050600e819080600181540180825580915050906001820390600052602060002090600602016000909192909190915060008201518160000160006101000a81548160ff021916908360ff1602179055506020820151816001015560408201518160020155606082015181600301556080820151816004015560a082015181600501555050506000600360008154811015156200052057fe5b906000526020600020906005020160000181905550505050505050505062000cc2565b60006200054f62000be3565b600060a0604051908101604052808881526020018781526020018681526020016000815260200160008152509150600160038390806001815401808255809150509060018203906000526020600020906005020160009091929091909150600082015181600001556020820151816001019080519060200190620005d592919062000c13565b506040820151816002015560608201518160030155608082015181600401555050039050600063ffffffff1681141562000686576001600383908060018154018082558091505090600182039060005260206000209060050201600090919290919091506000820151816000015560208201518160010190805190602001906200066192919062000c13565b5060408201518160020155606082015181600301556080820151816004015550500390505b8063ffffffff16811415156200069b57600080fd5b7fdea8e87d69047e1b3cd43ad599d34e3eacfe4408b4dfc5d0f6ac6a15a468de5c8787878760405180858152602001806020018481526020018373ffffffffffffffffffffffffffffffffffffffff1673ffffffffffffffffffffffffffffffffffffffff168152602001828103825285818151815260200191508051906020019080838360005b838110156200074057808201518184015260208101905062000723565b50505050905090810190601f1680156200076e5780820380516001836020036101000a031916815260200191505b509550505050505060405180910390a16200079b60008583620008ef640100000000026401000000009004565b8092505050949350505050565b60008214158015620007be575060038054905082105b1515620007ca57600080fd5b60008114158015620007e0575060038054905081105b1515620007ec57600080fd5b6001600c54036003828154811015156200080257fe5b9060005260206000209060050201600301541015156200082157600080fd5b80600d60008481526020019081526020016000208190555060016003828154811015156200084b57fe5b906000526020600020906005020160030154016003838154811015156200086e57fe5b9060005260206000209060050201600301819055507f0900f87897aa374bb21fa36753905fa2944dd2301242246101a9047a0ed227a08282600385815481101515620008b657fe5b90600052602060002090600502016003015460405180848152602001838152602001828152602001935050505060405180910390a15050565b6104006003828154811015156200090257fe5b906000526020600020906005020160040154141515156200091f57fe5b600560008373ffffffffffffffffffffffffffffffffffffffff1673ffffffffffffffffffffffffffffffffffffffff16815260200190815260200160002060008154809291906001019190505550816004600083815260200190815260200160002060006101000a81548173ffffffffffffffffffffffffffffffffffffffff021916908373ffffffffffffffffffffffffffffffffffffffff160217905550600073ffffffffffffffffffffffffffffffffffffffff168373ffffffffffffffffffffffffffffffffffffffff1614151562000a7e57600560008473ffffffffffffffffffffffffffffffffffffffff1673ffffffffffffffffffffffffffffffffffffffff16815260200190815260200160002060008154809291906001900391905055506006600082815260200190815260200160002060006101000a81549073ffffffffffffffffffffffffffffffffffffffff02191690555b7fddf252ad1be2c89b69c2b068fc378daa952ba7f163c4a11628f55a4df523b3ef838383604051808473ffffffffffffffffffffffffffffffffffffffff1673ffffffffffffffffffffffffffffffffffffffff1681526020018373ffffffffffffffffffffffffffffffffffffffff1673ffffffffffffffffffffffffffffffffffffffff168152602001828152602001935050505060405180910390a1505050565b60c060405190810160405280600060ff16815260200160008152602001600081526020016000815260200160008152602001600081525090565b828054600181600116156101000203166002900490600052602060002090601f016020900481019282601f1062000b9f57805160ff191683800117855562000bd0565b8280016001018555821562000bd0579182015b8281111562000bcf57825182559160200191906001019062000bb2565b5b50905062000bdf919062000c9a565b5090565b60a06040519081016040528060008152602001606081526020016000815260200160008152602001600081525090565b828054600181600116156101000203166002900490600052602060002090601f016020900481019282601f1062000c5657805160ff191683800117855562000c87565b8280016001018555821562000c87579182015b8281111562000c8657825182559160200191906001019062000c69565b5b50905062000c96919062000c9a565b5090565b62000cbf91905b8082111562000cbb57600081600090555060010162000ca1565b5090565b90565b614c478062000cd26000396000f300608060405260043610610203576000357c0100000000000000000000000000000000000000000000000000000000900463ffffffff168062607b7f1461020857806301ffc9a71461024d57806306fdde03146102b1578063095ea7b31461034157806317b9ebec1461038e57806318160ddd146103c55780631c41931c146103f05780631cced51b1461045d5780631d36e06c146104b057806323b872dd1461051d578063296250051461058a57806332c4ee83146105e157806336c5d7241461064657806339e6cdb1146106735780634cabcfac146106c0578063545c3d55146107175780636352211e1461076e57806366d80ba5146107db5780636914db601461084057806370a08231146108e657806379ba50971461093d5780638462151c146109545780638da5cb5b146109ec5780638f1fc77c14610a4357806395d89b4114610a6e57806398dc5c9514610afe5780639ca0883114610b77578063a8bd9c3214610bb8578063a9059cbb14610c25578063b121f2ac14610c72578063b135707914610cd3578063bf62266514610d2a578063cadf338f14610daf578063cbbc9f8914610df0578063cc06c35914610e67578063d4ee1d9014610e92578063dd62ed3e14610ee9578063dd6d3ca714610f60578063e176507314610f8b578063e527cc9d1461100d578063f2fde38b14611084578063f81fd7ea146110c7575b600080fd5b34801561021457600080fd5b506102336004803603810190808035906020019092919050505061113e565b604051808215151515815260200191505060405180910390f35b34801561025957600080fd5b5061029760048036038101908080357bffffffffffffffffffffffffffffffffffffffffffffffffffffffff191690602001909291905050506111e6565b604051808215151515815260200191505060405180910390f35b3480156102bd57600080fd5b506102c66114f7565b6040518080602001828103825283818151815260200191508051906020019080838360005b838110156103065780820151818401526020810190506102eb565b50505050905090810190601f1680156103335780820380516001836020036101000a031916815260200191505b509250505060405180910390f35b34801561034d57600080fd5b5061038c600480360381019080803573ffffffffffffffffffffffffffffffffffffffff16906020019092919080359060200190929190505050611599565b005b34801561039a57600080fd5b506103c3600480360381019080803590602001909291908035906020019092919050505061165b565b005b3480156103d157600080fd5b506103da611799565b6040518082815260200191505060405180910390f35b3480156103fc57600080fd5b5061042560048036038101908080359060200190929190803590602001909291905050506117bb565b604051808660ff1660ff1681526020018581526020018481526020018381526020018281526020019550505050505060405180910390f35b34801561046957600080fd5b50610472611bb7565b6040518082600460200280838360005b8381101561049d578082015181840152602081019050610482565b5050505090500191505060405180910390f35b3480156104bc57600080fd5b506104db60048036038101908080359060200190929190505050611d24565b604051808273ffffffffffffffffffffffffffffffffffffffff1673ffffffffffffffffffffffffffffffffffffffff16815260200191505060405180910390f35b34801561052957600080fd5b50610588600480360381019080803573ffffffffffffffffffffffffffffffffffffffff169060200190929190803573ffffffffffffffffffffffffffffffffffffffff16906020019092919080359060200190929190505050611d57565b005b34801561059657600080fd5b506105df600480360381019080803573ffffffffffffffffffffffffffffffffffffffff1690602001909291908035906020019092919080359060200190929190505050611e08565b005b3480156105ed57600080fd5b5061062c600480360381019080803573ffffffffffffffffffffffffffffffffffffffff16906020019092919080359060200190929190505050611f13565b604051808215151515815260200191505060405180910390f35b34801561065257600080fd5b50610671600480360381019080803590602001909291905050506121a8565b005b34801561067f57600080fd5b506106be600480360381019080803573ffffffffffffffffffffffffffffffffffffffff1690602001909291908035906020019092919050505061225d565b005b3480156106cc57600080fd5b50610715600480360381019080803573ffffffffffffffffffffffffffffffffffffffff1690602001909291908035906020019092919080359060200190929190505050612382565b005b34801561072357600080fd5b5061076c600480360381019080803573ffffffffffffffffffffffffffffffffffffffff169060200190929190803590602001909291908035906020019092919050505061247b565b005b34801561077a57600080fd5b5061079960048036038101908080359060200190929190505050612574565b604051808273ffffffffffffffffffffffffffffffffffffffff1673ffffffffffffffffffffffffffffffffffffffff16815260200191505060405180910390f35b3480156107e757600080fd5b50610826600480360381019080803573ffffffffffffffffffffffffffffffffffffffff169060200190929190803590602001909291905050506125f2565b604051808215151515815260200191505060405180910390f35b34801561084c57600080fd5b5061086b60048036038101908080359060200190929190505050612658565b6040518080602001828103825283818151815260200191508051906020019080838360005b838110156108ab578082015181840152602081019050610890565b50505050905090810190601f1680156108d85780820380516001836020036101000a031916815260200191505b509250505060405180910390f35b3480156108f257600080fd5b50610927600480360381019080803573ffffffffffffffffffffffffffffffffffffffff16906020019092919050505061271a565b6040518082815260200191505060405180910390f35b34801561094957600080fd5b50610952612763565b005b34801561096057600080fd5b50610995600480360381019080803573ffffffffffffffffffffffffffffffffffffffff169060200190929190505050612904565b6040518080602001828103825283818151815260200191508051906020019060200280838360005b838110156109d85780820151818401526020810190506109bd565b505050509050019250505060405180910390f35b3480156109f857600080fd5b50610a01612916565b604051808273ffffffffffffffffffffffffffffffffffffffff1673ffffffffffffffffffffffffffffffffffffffff16815260200191505060405180910390f35b348015610a4f57600080fd5b50610a5861293c565b6040518082815260200191505060405180910390f35b348015610a7a57600080fd5b50610a83612996565b6040518080602001828103825283818151815260200191508051906020019080838360005b83811015610ac3578082015181840152602081019050610aa8565b50505050905090810190601f168015610af05780820380516001836020036101000a031916815260200191505b509250505060405180910390f35b348015610b0a57600080fd5b50610b5d60048036038101908080359060200190929190803573ffffffffffffffffffffffffffffffffffffffff1690602001909291908035906020019092919080359060200190929190505050612a38565b604051808215151515815260200191505060405180910390f35b348015610b8357600080fd5b50610ba260048036038101908080359060200190929190505050612cc4565b6040518082815260200191505060405180910390f35b348015610bc457600080fd5b50610be360048036038101908080359060200190929190505050612cdc565b604051808273ffffffffffffffffffffffffffffffffffffffff1673ffffffffffffffffffffffffffffffffffffffff16815260200191505060405180910390f35b348015610c3157600080fd5b50610c70600480360381019080803573ffffffffffffffffffffffffffffffffffffffff16906020019092919080359060200190929190505050612d0f565b005b348015610c7e57600080fd5b50610cbd600480360381019080803573ffffffffffffffffffffffffffffffffffffffff16906020019092919080359060200190929190505050612daa565b6040518082815260200191505060405180910390f35b348015610cdf57600080fd5b50610d14600480360381019080803573ffffffffffffffffffffffffffffffffffffffff169060200190929190505050612dea565b6040518082815260200191505060405180910390f35b348015610d3657600080fd5b50610d95600480360381019080803573ffffffffffffffffffffffffffffffffffffffff169060200190929190803573ffffffffffffffffffffffffffffffffffffffff16906020019092919080359060200190929190505050612e68565b604051808215151515815260200191505060405180910390f35b348015610dbb57600080fd5b50610dda600480360381019080803590602001909291905050506134dd565b6040518082815260200191505060405180910390f35b348015610dfc57600080fd5b50610e51600480360381019080803573ffffffffffffffffffffffffffffffffffffffff169060200190929190803573ffffffffffffffffffffffffffffffffffffffff169060200190929190505050613507565b6040518082815260200191505060405180910390f35b348015610e7357600080fd5b50610e7c61352c565b6040518082815260200191505060405180910390f35b348015610e9e57600080fd5b50610ea7613532565b604051808273ffffffffffffffffffffffffffffffffffffffff1673ffffffffffffffffffffffffffffffffffffffff16815260200191505060405180910390f35b348015610ef557600080fd5b50610f4a600480360381019080803573ffffffffffffffffffffffffffffffffffffffff169060200190929190803573ffffffffffffffffffffffffffffffffffffffff169060200190929190505050613558565b6040518082815260200191505060405180910390f35b348015610f6c57600080fd5b50610f7561357d565b6040518082815260200191505060405180910390f35b348015610f9757600080fd5b50610fb6600480360381019080803590602001909291905050506135a6565b6040518080602001828103825283818151815260200191508051906020019060200280838360005b83811015610ff9578082015181840152602081019050610fde565b505050509050019250505060405180910390f35b34801561101957600080fd5b5061106e600480360381019080803573ffffffffffffffffffffffffffffffffffffffff169060200190929190803573ffffffffffffffffffffffffffffffffffffffff169060200190929190505050613617565b6040518082815260200191505060405180910390f35b34801561109057600080fd5b506110c5600480360381019080803573ffffffffffffffffffffffffffffffffffffffff16906020019092919050505061363c565b005b3480156110d357600080fd5b50611128600480360381019080803573ffffffffffffffffffffffffffffffffffffffff169060200190929190803573ffffffffffffffffffffffffffffffffffffffff169060200190929190505050613736565b6040518082815260200191505060405180910390f35b6000600a60009054906101000a900473ffffffffffffffffffffffffffffffffffffffff1673ffffffffffffffffffffffffffffffffffffffff163373ffffffffffffffffffffffffffffffffffffffff1614151561119957fe5b600082141580156111ae575060038054905082105b15156111b957600080fd5b6111c4826002613834565b15156111cc57fe5b6111d582613b16565b15156111dd57fe5b60019050919050565b600060405180807f737570706f727473496e74657266616365286279746573342900000000000000815250601901905060405180910390207bffffffffffffffffffffffffffffffffffffffffffffffffffffffff1916827bffffffffffffffffffffffffffffffffffffffffffffffffffffffff191614806114f0575060405180807f746f6b656e4d657461646174612875696e743235362c737472696e6729000000815250601d019050604051809103902060405180807f746f6b656e734f664f776e6572286164647265737329000000000000000000008152506016019050604051809103902060405180807f7472616e7366657246726f6d28616464726573732c616464726573732c75696e81526020017f74323536290000000000000000000000000000000000000000000000000000008152506025019050604051809103902060405180807f7472616e7366657228616464726573732c75696e7432353629000000000000008152506019019050604051809103902060405180807f617070726f766528616464726573732c75696e743235362900000000000000008152506018019050604051809103902060405180807f6f776e65724f662875696e7432353629000000000000000000000000000000008152506010019050604051809103902060405180807f62616c616e63654f6628616464726573732900000000000000000000000000008152506012019050604051809103902060405180807f746f74616c537570706c79282900000000000000000000000000000000000000815250600d019050604051809103902060405180807f73796d626f6c28290000000000000000000000000000000000000000000000008152506008019050604051809103902060405180807f6e616d6528290000000000000000000000000000000000000000000000000000815250600601905060405180910390201818181818181818187bffffffffffffffffffffffffffffffffffffffffffffffffffffffff1916827bffffffffffffffffffffffffffffffffffffffffffffffffffffffff1916145b9050919050565b606060008054600181600116156101000203166002900480601f01602080910402602001604051908101604052809291908181526020018280546001816001161561010002031660029004801561158f5780601f106115645761010080835404028352916020019161158f565b820191906000526020600020905b81548152906001019060200180831161157257829003601f168201915b5050505050905090565b6115a33382613ef1565b15156115ae57600080fd5b6115b88183613f5d565b7f8c5be1e5ebec7d5bd14f71427d1e84f3dd0314c0f7b2291e5b200ac8c7c3b925338383604051808473ffffffffffffffffffffffffffffffffffffffff1673ffffffffffffffffffffffffffffffffffffffff1681526020018373ffffffffffffffffffffffffffffffffffffffff1673ffffffffffffffffffffffffffffffffffffffff168152602001828152602001935050505060405180910390a15050565b60008214158015611670575060038054905082105b151561167b57600080fd5b60008114158015611690575060038054905081105b151561169b57600080fd5b6001600c54036003828154811015156116b057fe5b9060005260206000209060050201600301541015156116ce57600080fd5b80600d60008481526020019081526020016000208190555060016003828154811015156116f757fe5b9060005260206000209060050201600301540160038381548110151561171957fe5b9060005260206000209060050201600301819055507f0900f87897aa374bb21fa36753905fa2944dd2301242246101a9047a0ed227a0828260038581548110151561176057fe5b90600052602060002090600502016003015460405180848152602001838152602001828152602001935050505060405180910390a15050565b600080600380549050905060008111156117b4576001810390505b8091505090565b60008060008060006117cb614b23565b60008060006004985060008460006004811015156117e557fe5b60200201818152505060008460016004811015156117ff57fe5b602002018181525050600084600260048110151561181957fe5b602002018181525050600084600360048110151561183357fe5b60200201818152505060008b1415801561185157506003805490508b105b151561185c57600080fd5b60008a1415151561186c57600080fd5b611876338c613ef1565b151561188157600080fd5b600d60008c8152602001908152602001600020549250600083141515156118a757600080fd5b600d6000848152602001908152602001600020549150600082141515156118cd57600080fd5b600d6000838152602001908152602001600020549050600081141515156118f357600080fd5b6003985060038381548110151561190657fe5b9060005260206000209060050201600001548a11151561194257600298508984600260048110151561193457fe5b602002018181525050611b4d565b60038381548110151561195157fe5b90600052602060002090600502016000015460038381548110151561197257fe5b906000526020600020906005020160000154018a111515611a0a57600198506003838154811015156119a057fe5b9060005260206000209060050201600001548460026004811015156119c157fe5b6020020181815250506003838154811015156119d957fe5b9060005260206000209060050201600001548a038460016004811015156119fc57fe5b602002018181525050611b4c565b600383815481101515611a1957fe5b906000526020600020906005020160000154600383815481101515611a3a57fe5b906000526020600020906005020160000154600383815481101515611a5b57fe5b90600052602060002090600502016000015401018a111515611b4b5760009850600383815481101515611a8a57fe5b906000526020600020906005020160000154846002600481101515611aab57fe5b602002018181525050600382815481101515611ac357fe5b906000526020600020906005020160000154846001600481101515611ae457fe5b602002018181525050600382815481101515611afc57fe5b906000526020600020906005020160000154600384815481101515611b1d57fe5b9060005260206000209060050201600001548b0303846000600481101515611b4157fe5b6020020181815250505b5b5b836002600481101515611b5c57fe5b60200201519750836001600481101515611b7257fe5b60200201519650836000600481101515611b8857fe5b602002015195503073ffffffffffffffffffffffffffffffffffffffff16319450505050509295509295909350565b611bbf614b23565b6000806000836000600481101515611bd357fe5b6020020181815250506000836001600481101515611bed57fe5b6020020181815250506000836002600481101515611c0757fe5b6020020181815250506000836003600481101515611c2157fe5b602002018181525050600190505b600380549050811015611d1f57600381815481101515611c4b57fe5b9060005260206000209060050201600301549150600c548260ff161015611cc357600381815481101515611c7b57fe5b906000526020600020906005020160000154838360ff16600481101515611c9e57fe5b602002015101838360ff16600481101515611cb557fe5b602002018181525050611d12565b600381815481101515611cd257fe5b906000526020600020906005020160000154836003600481101515611cf357fe5b602002015101836003600481101515611d0857fe5b6020020181815250505b8080600101915050611c2f565b505090565b60046020528060005260406000206000915054906101000a900473ffffffffffffffffffffffffffffffffffffffff1681565b600073ffffffffffffffffffffffffffffffffffffffff168273ffffffffffffffffffffffffffffffffffffffff1614151515611d9357600080fd5b3073ffffffffffffffffffffffffffffffffffffffff168273ffffffffffffffffffffffffffffffffffffffff1614151515611dce57600080fd5b611dd83382613fb3565b1515611de357600080fd5b611ded8382613ef1565b1515611df857600080fd5b611e0383838361401f565b505050565b600a60009054906101000a900473ffffffffffffffffffffffffffffffffffffffff1673ffffffffffffffffffffffffffffffffffffffff163373ffffffffffffffffffffffffffffffffffffffff16141515611e6157fe5b611e6b8383613ef1565b1515611e7657600080fd5b80600383815481101515611e8657fe5b9060005260206000209060050201600301819055507f48ed1b5769aee6cf16cda3da1db2a0acf83c194c9d2a98ebeff4904567af58f6838383604051808473ffffffffffffffffffffffffffffffffffffffff1673ffffffffffffffffffffffffffffffffffffffff168152602001838152602001828152602001935050505060405180910390a1505050565b600080600080600073ffffffffffffffffffffffffffffffffffffffff168673ffffffffffffffffffffffffffffffffffffffff1614151515611f5557600080fd5b60008514151515611f6557600080fd5b339250611f718361424f565b9150611f7c8661424f565b9050808214151515611f8d57600080fd5b60008214151515611f9d57600080fd5b60008114151515611fad57600080fd5b80600860008573ffffffffffffffffffffffffffffffffffffffff1673ffffffffffffffffffffffffffffffffffffffff16815260200190815260200160002060008873ffffffffffffffffffffffffffffffffffffffff1673ffffffffffffffffffffffffffffffffffffffff1681526020019081526020016000208190555081600860008573ffffffffffffffffffffffffffffffffffffffff1673ffffffffffffffffffffffffffffffffffffffff16815260200190815260200160002060008573ffffffffffffffffffffffffffffffffffffffff1673ffffffffffffffffffffffffffffffffffffffff1681526020019081526020016000208190555084600960008573ffffffffffffffffffffffffffffffffffffffff1673ffffffffffffffffffffffffffffffffffffffff16815260200190815260200160002060008873ffffffffffffffffffffffffffffffffffffffff1673ffffffffffffffffffffffffffffffffffffffff168152602001908152602001600020819055507fe051949e9a44e2e9c21ee7d1c7b03ef0bf501aa3b7c4616a8543f229c0bede7a8686604051808373ffffffffffffffffffffffffffffffffffffffff1673ffffffffffffffffffffffffffffffffffffffff1681526020018281526020019250505060405180910390a16001935050505092915050565b60008082141580156121be575060038054905082105b15156121c957600080fd5b6121d282614299565b90506000811415156121e357600080fd5b600d6000838152602001908152602001600020600090557f399c331be71add502e95a2402ba7370605a945c1c6c1dc01c5e30f7e896cfa568260038481548110151561222b57fe5b906000526020600020906005020160030154604051808381526020018281526020019250505060405180910390a15050565b600a60009054906101000a900473ffffffffffffffffffffffffffffffffffffffff1673ffffffffffffffffffffffffffffffffffffffff163373ffffffffffffffffffffffffffffffffffffffff161415156122b657fe5b6122c08282613ef1565b15156122cb57600080fd5b60016003828154811015156122dc57fe5b906000526020600020906005020160030154016003828154811015156122fe57fe5b9060005260206000209060050201600301819055507fb6ffa2bc58069f160ac94855c396bc8a7c591ae4b9e69d78cc004ad2e4d70d858282604051808373ffffffffffffffffffffffffffffffffffffffff1673ffffffffffffffffffffffffffffffffffffffff1681526020018281526020019250505060405180910390a15050565b60008073ffffffffffffffffffffffffffffffffffffffff168473ffffffffffffffffffffffffffffffffffffffff16141515156123bf57600080fd5b600082141515156123cf57600080fd5b82905060008114156123e7576123e48461424f565b90505b600081141515156123f757600080fd5b612402848284614311565b7f8ee078ba6dd38678f9ffdc8f1df2d512559df0cae2db32c829459127e1003197848484604051808473ffffffffffffffffffffffffffffffffffffffff1673ffffffffffffffffffffffffffffffffffffffff168152602001838152602001828152602001935050505060405180910390a150505050565b60008073ffffffffffffffffffffffffffffffffffffffff168473ffffffffffffffffffffffffffffffffffffffff16141515156124b857600080fd5b600082141515156124c857600080fd5b82905060008114156124e0576124dd8461424f565b90505b600081141515156124f057600080fd5b6124fb848284614424565b7ff3d0e22890d929d2a1cd5ca9e5f6498c4271ce2f0223ab4092297c2d11c9ef75848484604051808473ffffffffffffffffffffffffffffffffffffffff1673ffffffffffffffffffffffffffffffffffffffff168152602001838152602001828152602001935050505060405180910390a150505050565b6000806004600084815260200190815260200160002060009054906101000a900473ffffffffffffffffffffffffffffffffffffffff169050600073ffffffffffffffffffffffffffffffffffffffff168173ffffffffffffffffffffffffffffffffffffffff16141515156125e957600080fd5b80915050919050565b600080600073ffffffffffffffffffffffffffffffffffffffff168473ffffffffffffffffffffffffffffffffffffffff161415151561263157600080fd5b6000831415151561264157600080fd5b33905061264f818585612e68565b91505092915050565b606060038281548110151561266957fe5b90600052602060002090600502016001018054600181600116156101000203166002900480601f01602080910402602001604051908101604052809291908181526020018280546001816001161561010002031660029004801561270e5780601f106126e35761010080835404028352916020019161270e565b820191906000526020600020905b8154815290600101906020018083116126f157829003601f168201915b50505050509050919050565b6000600560008373ffffffffffffffffffffffffffffffffffffffff1673ffffffffffffffffffffffffffffffffffffffff168152602001908152602001600020549050919050565b600b60009054906101000a900473ffffffffffffffffffffffffffffffffffffffff1673ffffffffffffffffffffffffffffffffffffffff163373ffffffffffffffffffffffffffffffffffffffff161415156127bf57600080fd5b600b60009054906101000a900473ffffffffffffffffffffffffffffffffffffffff1673ffffffffffffffffffffffffffffffffffffffff16600a60009054906101000a900473ffffffffffffffffffffffffffffffffffffffff1673ffffffffffffffffffffffffffffffffffffffff167f343765429aea5a34b3ff6a3785a98a5abb2597aca87bfbb58632c173d585373a60405160405180910390a3600b60009054906101000a900473ffffffffffffffffffffffffffffffffffffffff16600a60006101000a81548173ffffffffffffffffffffffffffffffffffffffff021916908373ffffffffffffffffffffffffffffffffffffffff1602179055506000600b60006101000a81548173ffffffffffffffffffffffffffffffffffffffff021916908373ffffffffffffffffffffffffffffffffffffffff160217905550565b606061290f82614508565b9050919050565b600a60009054906101000a900473ffffffffffffffffffffffffffffffffffffffff1681565b600080600080600092506003805490509150600190505b8181101561298d5760038181548110151561296a57fe5b906000526020600020906005020160000154830192508080600101915050612953565b82935050505090565b606060018054600181600116156101000203166002900480601f016020809104026020016040519081016040528092919081815260200182805460018160011615610100020316600290048015612a2e5780601f10612a0357610100808354040283529160200191612a2e565b820191906000526020600020905b815481529060010190602001808311612a1157829003601f168201915b5050505050905090565b600080600073ffffffffffffffffffffffffffffffffffffffff168573ffffffffffffffffffffffffffffffffffffffff1614151515612a7757600080fd5b838614151515612a8657600080fd5b60008614151515612a9657600080fd5b60008414151515612aa657600080fd5b60008314151515612ab657600080fd5b33905083600860008373ffffffffffffffffffffffffffffffffffffffff1673ffffffffffffffffffffffffffffffffffffffff16815260200190815260200160002060008773ffffffffffffffffffffffffffffffffffffffff1673ffffffffffffffffffffffffffffffffffffffff1681526020019081526020016000208190555085600860008373ffffffffffffffffffffffffffffffffffffffff1673ffffffffffffffffffffffffffffffffffffffff16815260200190815260200160002060008373ffffffffffffffffffffffffffffffffffffffff1673ffffffffffffffffffffffffffffffffffffffff1681526020019081526020016000208190555082600960008373ffffffffffffffffffffffffffffffffffffffff1673ffffffffffffffffffffffffffffffffffffffff16815260200190815260200160002060008773ffffffffffffffffffffffffffffffffffffffff1673ffffffffffffffffffffffffffffffffffffffff168152602001908152602001600020819055507fef4beaa380feab20776f162f92bbf15b04c59f8fd4e8ab2508b8d29fed7dfd6186868686604051808581526020018473ffffffffffffffffffffffffffffffffffffffff1673ffffffffffffffffffffffffffffffffffffffff16815260200183815260200182815260200194505050505060405180910390a16001915050949350505050565b600d6020528060005260406000206000915090505481565b60066020528060005260406000206000915054906101000a900473ffffffffffffffffffffffffffffffffffffffff1681565b600073ffffffffffffffffffffffffffffffffffffffff168273ffffffffffffffffffffffffffffffffffffffff1614151515612d4b57600080fd5b3073ffffffffffffffffffffffffffffffffffffffff168273ffffffffffffffffffffffffffffffffffffffff1614151515612d8657600080fd5b612d903382613ef1565b1515612d9b57600080fd5b612da633838361401f565b5050565b6000612db68383613ef1565b1515612dc157600080fd5b600382815481101515612dd057fe5b906000526020600020906005020160030154905092915050565b600060606000806000612dfc86614508565b93506000925083519150600090505b81811015612e5c5760038482815181101515612e2357fe5b90602001906020020151815481101515612e3957fe5b906000526020600020906005020160000154830192508080600101915050612e0b565b82945050505050919050565b60008060008060008073ffffffffffffffffffffffffffffffffffffffff168773ffffffffffffffffffffffffffffffffffffffff1614151515612eab57600080fd5b60008614151515612ebb57600080fd5b879350600860008573ffffffffffffffffffffffffffffffffffffffff1673ffffffffffffffffffffffffffffffffffffffff16815260200190815260200160002060008873ffffffffffffffffffffffffffffffffffffffff1673ffffffffffffffffffffffffffffffffffffffff168152602001908152602001600020549250600860008573ffffffffffffffffffffffffffffffffffffffff1673ffffffffffffffffffffffffffffffffffffffff16815260200190815260200160002060008573ffffffffffffffffffffffffffffffffffffffff1673ffffffffffffffffffffffffffffffffffffffff168152602001908152602001600020549150600960008573ffffffffffffffffffffffffffffffffffffffff1673ffffffffffffffffffffffffffffffffffffffff16815260200190815260200160002060008873ffffffffffffffffffffffffffffffffffffffff1673ffffffffffffffffffffffffffffffffffffffff16815260200190815260200160002054905081831415151561304a57600080fd5b6000831415151561305a57600080fd5b6000821415151561306a57600080fd5b6000811415151561307a57600080fd5b85811015151561308957600080fd5b613096848389868a61468e565b85600960008673ffffffffffffffffffffffffffffffffffffffff1673ffffffffffffffffffffffffffffffffffffffff16815260200190815260200160002060008973ffffffffffffffffffffffffffffffffffffffff1673ffffffffffffffffffffffffffffffffffffffff1681526020019081526020016000205403600960008673ffffffffffffffffffffffffffffffffffffffff1673ffffffffffffffffffffffffffffffffffffffff16815260200190815260200160002060008973ffffffffffffffffffffffffffffffffffffffff1673ffffffffffffffffffffffffffffffffffffffff168152602001908152602001600020819055506000600960008673ffffffffffffffffffffffffffffffffffffffff1673ffffffffffffffffffffffffffffffffffffffff16815260200190815260200160002060008973ffffffffffffffffffffffffffffffffffffffff1673ffffffffffffffffffffffffffffffffffffffff16815260200190815260200160002054141561339b57600960008573ffffffffffffffffffffffffffffffffffffffff1673ffffffffffffffffffffffffffffffffffffffff16815260200190815260200160002060008873ffffffffffffffffffffffffffffffffffffffff1673ffffffffffffffffffffffffffffffffffffffff16815260200190815260200160002060009055600860008573ffffffffffffffffffffffffffffffffffffffff1673ffffffffffffffffffffffffffffffffffffffff16815260200190815260200160002060008573ffffffffffffffffffffffffffffffffffffffff1673ffffffffffffffffffffffffffffffffffffffff16815260200190815260200160002060009055600860008573ffffffffffffffffffffffffffffffffffffffff1673ffffffffffffffffffffffffffffffffffffffff16815260200190815260200160002060008873ffffffffffffffffffffffffffffffffffffffff1673ffffffffffffffffffffffffffffffffffffffff168152602001908152602001600020600090555b7fa085ba1c72fda1f13ecb6e0347284ac7d016a73b7a47c0ba151368bbe5ce2db9888389868a600960008b73ffffffffffffffffffffffffffffffffffffffff1673ffffffffffffffffffffffffffffffffffffffff16815260200190815260200160002060008e73ffffffffffffffffffffffffffffffffffffffff1673ffffffffffffffffffffffffffffffffffffffff16815260200190815260200160002054604051808773ffffffffffffffffffffffffffffffffffffffff1673ffffffffffffffffffffffffffffffffffffffff1681526020018681526020018573ffffffffffffffffffffffffffffffffffffffff1673ffffffffffffffffffffffffffffffffffffffff168152602001848152602001838152602001828152602001965050505050505060405180910390a160019450505050509392505050565b60006003828154811015156134ee57fe5b9060005260206000209060050201600001549050919050565b6009602052816000526040600020602052806000526040600020600091509150505481565b600c5481565b600b60009054906101000a900473ffffffffffffffffffffffffffffffffffffffff1681565b6007602052816000526040600020602052806000526040600020600091509150505481565b60006003600081548110151561358f57fe5b906000526020600020906005020160000154905090565b6060600080600d6000858152602001908152602001600020549150600090505b600c54811015613610578183828151811015156135df57fe5b9060200190602002018181525050600d600083815260200190815260200160002054915080806001019150506135c6565b5050919050565b6008602052816000526040600020602052806000526040600020600091509150505481565b600a60009054906101000a900473ffffffffffffffffffffffffffffffffffffffff1673ffffffffffffffffffffffffffffffffffffffff163373ffffffffffffffffffffffffffffffffffffffff1614151561369557fe5b600a60009054906101000a900473ffffffffffffffffffffffffffffffffffffffff1673ffffffffffffffffffffffffffffffffffffffff168173ffffffffffffffffffffffffffffffffffffffff16141515156136f257600080fd5b80600b60006101000a81548173ffffffffffffffffffffffffffffffffffffffff021916908373ffffffffffffffffffffffffffffffffffffffff16021790555050565b60008073ffffffffffffffffffffffffffffffffffffffff168273ffffffffffffffffffffffffffffffffffffffff161415151561377357600080fd5b600073ffffffffffffffffffffffffffffffffffffffff168373ffffffffffffffffffffffffffffffffffffffff16141515156137af57600080fd5b600960008473ffffffffffffffffffffffffffffffffffffffff1673ffffffffffffffffffffffffffffffffffffffff16815260200190815260200160002060008373ffffffffffffffffffffffffffffffffffffffff1673ffffffffffffffffffffffffffffffffffffffff16815260200190815260200160002054905092915050565b6000806000806000613846878761487b565b935061385184614299565b925061385d87876148a9565b9150818310156138c757613871878561165b565b7f69186e91a26c2cd1f67397df408ddeb0db9249dbd6e2a428ad8ae0d59ba3bc88878588604051808481526020018381526020018260ff1660ff168152602001935050505060405180910390a160019450613b0c565b600e8660ff168154811015156138d957fe5b906000526020600020906006020160010154600e8760ff168154811015156138fd57fe5b906000526020600020906006020160030154141561391e5760009450613b0c565b613a25600060038681548110151561393257fe5b90600052602060002090600502016001018054600181600116156101000203166002900480601f0160208091040260200160405190810160405280929190818152602001828054600181600116156101000203166002900480156139d75780601f106139ac576101008083540402835291602001916139d7565b820191906000526020600020905b8154815290600101906020018083116139ba57829003601f168201915b50505050506003878154811015156139eb57fe5b906000526020600020906005020160020154600a60009054906101000a900473ffffffffffffffffffffffffffffffffffffffff166148da565b9050600081141515613b0757613a3e8160018803613834565b15613afe57613a4d878261165b565b7f69186e91a26c2cd1f67397df408ddeb0db9249dbd6e2a428ad8ae0d59ba3bc88878288604051808481526020018381526020018260ff1660ff168152602001935050505060405180910390a180600e8760ff16815481101515613aad57fe5b906000526020600020906006020160040181905550600e8660ff16815481101515613ad457fe5b90600052602060002090600602016003016000815480929190600101919050555060019450613b0c565b60009450613b0c565b600094505b5050505092915050565b60008060008060008060008060008914158015613b37575060038054905089105b1515613b4257600080fd5b6001600c540360038a815481101515613b5757fe5b906000526020600020906005020160030154141515613b7557600080fd5b600d60008a815260200190815260200160002054965060008714151515613b9b57600080fd5b600d600088815260200190815260200160002054955060008614151515613bc157600080fd5b600d600087815260200190815260200160002054945060008514151515613be757600080fd5b6064600e6002815481101515613bf957fe5b90600052602060002090600602016005015460038b815481101515613c1a57fe5b90600052602060002090600502016000015402811515613c3657fe5b04935060008414151515613c4957600080fd5b6064600e6001815481101515613c5b57fe5b90600052602060002090600602016005015460038b815481101515613c7c57fe5b90600052602060002090600502016000015402811515613c9857fe5b04925060008314151515613cab57600080fd5b6064600e6000815481101515613cbd57fe5b90600052602060002090600602016005015460038b815481101515613cde57fe5b90600052602060002090600502016000015402811515613cfa57fe5b04915060008214151515613d0d57600080fd5b81838560038c815481101515613d1f57fe5b906000526020600020906005020160000154030303905060008114151515613d4657600080fd5b83600388815481101515613d5657fe5b90600052602060002090600502016000015401600388815481101515613d7857fe5b90600052602060002090600502016000018190555082600387815481101515613d9d57fe5b90600052602060002090600502016000015401600387815481101515613dbf57fe5b90600052602060002090600502016000018190555081600386815481101515613de457fe5b90600052602060002090600502016000015401600386815481101515613e0657fe5b9060005260206000209060050201600001819055508060036000815481101515613e2c57fe5b9060005260206000209060050201600001540160036000815481101515613e4f57fe5b906000526020600020906005020160000181905550600060038a815481101515613e7557fe5b9060005260206000209060050201600001819055507fcfd3c3fcdcb63bcee48ff9a9ec28351afef5ba4fc9b5a8f46d5aa65565a3b1a38983858785604051808681526020018581526020018481526020018381526020018281526020019550505050505060405180910390a16001975050505050505050919050565b60008273ffffffffffffffffffffffffffffffffffffffff166004600084815260200190815260200160002060009054906101000a900473ffffffffffffffffffffffffffffffffffffffff1673ffffffffffffffffffffffffffffffffffffffff1614905092915050565b806006600084815260200190815260200160002060006101000a81548173ffffffffffffffffffffffffffffffffffffffff021916908373ffffffffffffffffffffffffffffffffffffffff1602179055505050565b60008273ffffffffffffffffffffffffffffffffffffffff166006600084815260200190815260200160002060009054906101000a900473ffffffffffffffffffffffffffffffffffffffff1673ffffffffffffffffffffffffffffffffffffffff1614905092915050565b61040060038281548110151561403157fe5b9060005260206000209060050201600401541415151561404d57fe5b600560008373ffffffffffffffffffffffffffffffffffffffff1673ffffffffffffffffffffffffffffffffffffffff16815260200190815260200160002060008154809291906001019190505550816004600083815260200190815260200160002060006101000a81548173ffffffffffffffffffffffffffffffffffffffff021916908373ffffffffffffffffffffffffffffffffffffffff160217905550600073ffffffffffffffffffffffffffffffffffffffff168373ffffffffffffffffffffffffffffffffffffffff161415156141ab57600560008473ffffffffffffffffffffffffffffffffffffffff1673ffffffffffffffffffffffffffffffffffffffff16815260200190815260200160002060008154809291906001900391905055506006600082815260200190815260200160002060006101000a81549073ffffffffffffffffffffffffffffffffffffffff02191690555b7fddf252ad1be2c89b69c2b068fc378daa952ba7f163c4a11628f55a4df523b3ef838383604051808473ffffffffffffffffffffffffffffffffffffffff1673ffffffffffffffffffffffffffffffffffffffff1681526020018373ffffffffffffffffffffffffffffffffffffffff1673ffffffffffffffffffffffffffffffffffffffff168152602001828152602001935050505060405180910390a1505050565b60006060600061425e84614508565b91508151905060008114156142765760009250614292565b81600081518110151561428557fe5b9060200190602002015192505b5050919050565b60008060008084141580156142b2575060038054905084105b15156142bd57600080fd5b6142c5611799565b915060009250600190505b818111151561430a5783600d60008381526020019081526020016000205414156142fd5782806001019350505b80806001019150506142d0565b5050919050565b61431b8383613ef1565b151561432657600080fd5b6000811415151561433657600080fd5b8060038381548110151561434657fe5b9060005260206000209060050201600001541015151561436557600080fd5b8060038381548110151561437557fe5b9060005260206000209060050201600001540360038381548110151561439757fe5b9060005260206000209060050201600001819055507f45dacd427fd388bf162986dbc958cdcf160c31b40efe076907cff377b9857c79838383604051808473ffffffffffffffffffffffffffffffffffffffff1673ffffffffffffffffffffffffffffffffffffffff168152602001838152602001828152602001935050505060405180910390a1505050565b61442e8383613ef1565b151561443957600080fd5b6000811415151561444957600080fd5b8060038381548110151561445957fe5b9060005260206000209060050201600001540160038381548110151561447b57fe5b9060005260206000209060050201600001819055507f20f4934a3b4928cca0e51f3f1eaac12dee9af151a8a8ba5a424a89d93f6bf53d838383604051808473ffffffffffffffffffffffffffffffffffffffff1673ffffffffffffffffffffffffffffffffffffffff168152602001838152602001828152602001935050505060405180910390a1505050565b60606000606060008060008073ffffffffffffffffffffffffffffffffffffffff168773ffffffffffffffffffffffffffffffffffffffff161415151561454e57600080fd5b6145578761271a565b9450600085141561459a5760006040519080825280602002602001820160405280156145925781602001602082028038833980820191505090505b509550614684565b846040519080825280602002602001820160405280156145c95781602001602082028038833980820191505090505b5093506145d4611799565b925060009150600190505b8281111515614680578673ffffffffffffffffffffffffffffffffffffffff166004600083815260200190815260200160002060009054906101000a900473ffffffffffffffffffffffffffffffffffffffff1673ffffffffffffffffffffffffffffffffffffffff1614156146735780848380600101945081518110151561466457fe5b90602001906020020181815250505b80806001019150506145df565b8395505b5050505050919050565b6146988585613ef1565b15156146a357600080fd5b6146ad8383613ef1565b15156146b857600080fd5b600081141515156146c857600080fd5b8184141515156146d757600080fd5b806003858154811015156146e757fe5b9060005260206000209060050201600001541015151561470657600080fd5b61040060038581548110151561471857fe5b9060005260206000209060050201600401541415151561473757600080fd5b8060038581548110151561474757fe5b9060005260206000209060050201600001540360038581548110151561476957fe5b9060005260206000209060050201600001819055508060038381548110151561478e57fe5b906000526020600020906005020160000154016003838154811015156147b057fe5b9060005260206000209060050201600001819055507f6d401b913d27047ecd2042f0331e2354d30e664920b31480dc71955edb996c388585858585604051808673ffffffffffffffffffffffffffffffffffffffff1673ffffffffffffffffffffffffffffffffffffffff1681526020018581526020018473ffffffffffffffffffffffffffffffffffffffff1673ffffffffffffffffffffffffffffffffffffffff1681526020018381526020018281526020019550505050505060405180910390a15050505050565b6000600e8260ff1681548110151561488f57fe5b906000526020600020906006020160040154905092915050565b60006001600e8360ff168154811015156148bf57fe5b90600052602060002090600602016002015403905092915050565b60006148e4614b46565b600060a0604051908101604052808881526020018781526020018681526020016000815260200160008152509150600160038390806001815401808255809150509060018203906000526020600020906005020160009091929091909150600082015181600001556020820151816001019080519060200190614968929190614b76565b506040820151816002015560608201518160030155608082015181600401555050039050600063ffffffff16811415614a16576001600383908060018154018082558091505090600182039060005260206000209060050201600090919290919091506000820151816000015560208201518160010190805190602001906149f1929190614b76565b5060408201518160020155606082015181600301556080820151816004015550500390505b8063ffffffff1681141515614a2a57600080fd5b7fdea8e87d69047e1b3cd43ad599d34e3eacfe4408b4dfc5d0f6ac6a15a468de5c8787878760405180858152602001806020018481526020018373ffffffffffffffffffffffffffffffffffffffff1673ffffffffffffffffffffffffffffffffffffffff168152602001828103825285818151815260200191508051906020019080838360005b83811015614acd578082015181840152602081019050614ab2565b50505050905090810190601f168015614afa5780820380516001836020036101000a031916815260200191505b509550505050505060405180910390a1614b166000858361401f565b8092505050949350505050565b608060405190810160405280600490602082028038833980820191505090505090565b60a06040519081016040528060008152602001606081526020016000815260200160008152602001600081525090565b828054600181600116156101000203166002900490600052602060002090601f016020900481019282601f10614bb757805160ff1916838001178555614be5565b82800160010185558215614be5579182015b82811115614be4578251825591602001919060010190614bc9565b5b509050614bf29190614bf6565b5090565b614c1891905b80821115614c14576000816000905550600101614bfc565b5090565b905600a165627a7a723058203b075338f468b0fc502bf51588ba473e7ded7e973e2051bad53f12f43714baae0029",
  "source": "// \n// MIT License\n// \n// Copyright (c) 2018 REGA Risk Sharing\n//   \n// Permission is hereby granted, free of charge, to any person obtaining a copy\n// of this software and associated documentation files (the \"Software\"), to deal\n// in the Software without restriction, including without limitation the rights\n// to use, copy, modify, merge, publish, distribute, sublicense, and/or sell\n// copies of the Software, and to permit persons to whom the Software is\n// furnished to do so, subject to the following conditions:\n// \n// The above copyright notice and this permission notice shall be included in all\n// copies or substantial portions of the Software.\n// \n// THE SOFTWARE IS PROVIDED \"AS IS\", WITHOUT WARRANTY OF ANY KIND, EXPRESS OR\n// IMPLIED, INCLUDING BUT NOT LIMITED TO THE WARRANTIES OF MERCHANTABILITY,\n// FITNESS FOR A PARTICULAR PURPOSE AND NONINFRINGEMENT. IN NO EVENT SHALL THE\n// AUTHORS OR COPYRIGHT HOLDERS BE LIABLE FOR ANY CLAIM, DAMAGES OR OTHER\n// LIABILITY, WHETHER IN AN ACTION OF CONTRACT, TORT OR OTHERWISE, ARISING FROM,\n// OUT OF OR IN CONNECTION WITH THE SOFTWARE OR THE USE OR OTHER DEALINGS IN THE\n// SOFTWARE.\n// \n// Author: Sergei Sevriugin\n// Version: 0.0.1\n//  \n\npragma solidity ^0.4.17;\n\nimport \"./TokenContainer.sol\";\n/// TokenPool is TokenContainer with 4 level pool structure: \n/// Super Pool (Level 0), Pool (Level 1), Sub Pool (Level 2) and Token (Level 3)\n/// Level       Container / Member\n/// ------------------------------------------------\n///   0         SuperPool\n///   1              |______Pool\n///   2                      |______SubPool\n///   3                                |_______Token\ncontract TokenPool is TokenContainer {\n    /// TokenPool insertPool event\n    /// @param id inserted token ID\n    /// @param poolId pool ID\n    /// @param level pool level\n    event InsertPool(uint256 id, uint256 poolId, uint8 level);\n    /// TokenPool value distribution event\n    /// @param id NFT token ID for value distribution \n    /// @param superPoolValue SuperPool Share\n    /// @param poolValue Pool Share\n    /// @param subPoolValue SubPool Share\n    /// @param comission Comission = the rest after all pools \n    event DistributeValue(uint256 id, uint256 superPoolValue, uint256 poolValue, uint256 subPoolValue, uint256 comission);\n    /// TokenPool Second Tier Call event\n    /// @param id NFT token ID that emits event\n    /// @param value 2nd tier capital call value\n    event SecondTierCall(uint256 id, uint256 value);\n    /// TokenPool ShortOfFunds event\n    /// @param id NFT token ID that emits event\n    /// @param poolId pool ID that can't pay\n    /// @param value that pool can't pay\n    /// @param level pool level that can't \n    event ShortOfFunds(uint256 id, uint256 poolId, uint256 value, uint8 level);\n    /// TokenPool Payment Value event\n    /// @param id NFT token ID that emits event\n    /// @param value paid value\n    /// @param level pool level that paid\n    event PaymentValue(uint256 id, uint256 value, uint8 level);\n    /// @dev Pool defines pool structure\n    /// @param level Pool level: 0,1,2,3\n    /// @param maxNumber Maximum number of pools on this lavel\n    /// @param maxMember Maximum number of members for the pool\n    /// @param number Pool number for this level\n    /// @param last NFT ID for last availible pool (with member capacity)\n    struct Pool {\n        uint8   level;      // Pool level: 0,1,2,3\n        uint256 maxNumber;  // Maximum number of pools on this lavel\n        uint256 maxMember;  // Maximum number of members for the pool\n        uint256 number;     // Pool number for this level\n        uint256 last;       // NFT ID for last availible pool (with member capacity)\n        uint256 share;      // Pool share from token investment\n    }\n    /// @dev Pool structure \n    Pool[] pools;           // Pool structure\n    /// inset new member in the pool\n    /// @param _id NFT token ID to inserr\n    /// @param _level Pool level to insert\n    /// @return TRUE if insert is done \n    function _getParent(uint256 _id, uint8 _level) internal view returns (uint256 parentId) {\n        // by default returns pools[_level].last but must be overloaded to use score to calculate right pool\n        _id;\n        parentId = pools[_level].last;\n    }\n    function _getCapacity(uint256 _id, uint8 _level) internal view returns (uint256 parentId) {\n        // by default returns pools[_level].maxMember - 1; but can be overloaded to use score to calculate right pool capacity\n        _id;\n        parentId = pools[_level].maxMember - 1;\n    }\n    function _insertPool(uint256 _id, uint8 _level) internal returns (bool) {\n        uint256 parentId = _getParent(_id, _level); // pool NFT token ID\n        uint256 size = _getPoolSize(parentId);      // current pool size\n        uint256 max = _getCapacity(_id, _level);    // max pool size - 1\n        // check if there is a place to insert \n        if (size < max) {\n            // simple insert\n            addToken(_id, parentId); // add to pool \n            emit InsertPool(_id, parentId, _level); // event \n            return true;\n        }\n        else {\n            // no capacity in the current pool, so, need to add new pool\n            // check if it's possible\n            if(pools[_level].number == pools[_level].maxNumber) {\n                // no capacity to add new pool at this lavel\n                return false;\n            }\n            else {\n                // make a copy from the last pool\n                uint newPool = _createNFT(uint256(0), nfts[parentId].metadata, nfts[parentId].kind, owner);\n                if (newPool != uint(0)) { \n                    // insert pool in the pool structure\n                    if (_insertPool(newPool, _level-1)) {\n                        // insert token to the new pool\n                        addToken(_id, newPool); // add to pool\n                        emit InsertPool(_id, newPool, _level); // event \n                        // record new pool data in the structure \n                        pools[_level].last = newPool; // new pool is last one\n                        pools[_level].number++;\n                        // new pool and member are inserted \n                        return true;\n                    }\n                    else {\n                        return false;\n                    }\n                }\n                else {\n                    return false;\n                }\n            }\n        }\n    }\n    /// distribute value of the token _id to pools\n    /// @dev make it as simmple as possible for fixed pool staructure\n    /// @param _id NFT token ID to distribute value\n    /// @return TRUE if distribution is complited \n    function _distributeValue(uint256 _id) internal returns (bool) {\n        // need to make sure that _id is terminal node in the structure \n        require(_id != uint256(0) && _id < nfts.length);\n        require(nfts[_id].level == maxLevel - 1);\n        // now we can check then the path has all pools\n        uint256 subPoolId = tokenIndexToPoolToken[_id];\n        require(subPoolId != uint256(0)); // SubPool\n        uint256 poolId = tokenIndexToPoolToken[subPoolId];\n        require(poolId != uint256(0)); // Pool\n        uint256 superPoolId = tokenIndexToPoolToken[poolId];\n        require(superPoolId != uint256(0)); // SuperPool\n        // calculate values to distribute based of pool structure shares\n        uint256 subPoolValue = nfts[_id].value * pools[2].share / 100;\n        require(subPoolValue != uint256(0));\n        uint256 poolValue = nfts[_id].value * pools[1].share / 100;\n        require(poolValue != uint256(0));\n        uint256 superPoolValue = nfts[_id].value * pools[0].share / 100;\n        require(superPoolValue != uint256(0));\n        uint256 commission = nfts[_id].value - subPoolValue - poolValue - superPoolValue;\n        require(commission != uint256(0));\n        // ready to distribute\n        nfts[subPoolId].value = nfts[subPoolId].value + subPoolValue;\n        nfts[poolId].value = nfts[poolId].value + poolValue;\n        nfts[superPoolId].value = nfts[superPoolId].value + superPoolValue;\n        // we will keep comission in the reserved token with ID = 0\n        nfts[0].value = nfts[0].value + commission;\n        // the distribution is done 0 --> _id value\n        nfts[_id].value = uint256(0);\n        emit DistributeValue(_id, superPoolValue, poolValue, subPoolValue, commission);\n        return true;\n    }\n    /// insert token in pool structure\n    /// @param _id NFT token ID to insert\n    /// @return TRUE if insert is done \n    function insertPool(uint256 _id) ownerOnly public returns(bool) {\n        require(_id != uint256(0) && _id < nfts.length);\n        // call internal function\n        assert(_insertPool(_id, 2));\n        // if inserted then make value distribution \n        assert(_distributeValue(_id));\n        return true;\n    }\n    /// insert token in pool structure\n    /// @param _id NFT token ID to insert\n    /// @return TRUE if insert is done \n    function _addTokenToSubPool(uint256 _id) internal returns(bool) {\n        require(_id != uint256(0) && _id < nfts.length);\n        // call internal function\n        assert(_insertPool(_id, 2));\n        // if inserted then make value distribution \n        assert(_distributeValue(_id));\n        return true;\n    }\n    /// get collected comission\n    /// @return commission commission value\n    function getComission() public view returns(uint256 commission) {\n        commission = nfts[0].value;\n    }\n    /// get value distribution except commission \n    /// @return distribution [0] = SuperPool, [1] = Pool, [2] = SubPool and [3] = Tokens (must be 0)\n    function getDistribution() public view returns(uint256[4] distribution)\n    {\n        uint8 _level;\n        distribution[0] = uint256(0);   // Super Pool Value\n        distribution[1] = uint256(0);   // Pool Value\n        distribution[2] = uint256(0);   // SubPool Value\n        distribution[3] = uint256(0);   // Tokens Value (must be 0)\n\n        for (uint256 id = 1; id < nfts.length; id++) {\n            _level = uint8(nfts[id].level);\n            if(_level < maxLevel) {\n                distribution[_level] = distribution[_level] + nfts[id].value;\n            }\n            else {\n                distribution[3] = distribution[3] + nfts[id].value; // if something wrong w/ level add to tokens\n            }\n        }\n    }\n    function _payValue(uint256 _id, uint256 _value) internal returns(uint256[4] distribution) {\n        require(_id != uint256(0) && _id < nfts.length);\n        require(_value != uint256(0));\n        distribution[0] = uint256(0);   // Super Pool Value\n        distribution[1] = uint256(0);   // Pool Value\n        distribution[2] = uint256(0);   // SubPool Value\n        distribution[3] = uint256(0);   // Tokens Value (must be 0)\n        // now we can check then the path has all pools\n        uint256 subPoolId = tokenIndexToPoolToken[_id];\n        require(subPoolId != uint256(0)); // SubPool\n        uint256 poolId = tokenIndexToPoolToken[subPoolId];\n        require(poolId != uint256(0)); // Pool\n        uint256 superPoolId = tokenIndexToPoolToken[poolId];\n        require(superPoolId != uint256(0)); // SuperPool\n        if(_value <= nfts[subPoolId].value) {\n            distribution[2] = _value;\n            nfts[subPoolId].value = nfts[subPoolId].value - distribution[2];\n\n            emit PaymentValue(_id, _value, uint8(2));\n        }\n        else if (_value <= nfts[poolId].value + nfts[subPoolId].value) {\n            emit ShortOfFunds(_id, subPoolId, _value, uint8(2));\n\n            distribution[2] = nfts[subPoolId].value;\n            distribution[1] = _value - nfts[subPoolId].value;\n            nfts[subPoolId].value = nfts[subPoolId].value - distribution[2];\n            nfts[poolId].value = nfts[poolId].value - distribution[1];\n\n            emit PaymentValue(_id, _value, uint8(1));\n        }\n        else if (_value <= nfts[superPoolId].value + nfts[poolId].value + nfts[subPoolId].value) {\n            emit ShortOfFunds(_id, poolId, _value, uint8(1));\n\n            distribution[2] = nfts[subPoolId].value;\n            distribution[1] = nfts[poolId].value;\n            distribution[0] = _value - nfts[subPoolId].value - nfts[poolId].value;\n            nfts[subPoolId].value = nfts[subPoolId].value - distribution[2];\n            nfts[poolId].value = nfts[poolId].value - distribution[1];\n            nfts[superPoolId].value = nfts[superPoolId].value - distribution[0];\n\n            emit PaymentValue(_id, _value, uint8(0));\n        }\n        else {\n            emit ShortOfFunds(_id, superPoolId, _value, uint8(0));\n            emit SecondTierCall(_id, _value);\n        }\n    }\n    function _checkPayment(uint256 _id, uint256 _value) internal view returns(bool possible) {\n        possible = false;\n        uint256 subPoolId = tokenIndexToPoolToken[_id];\n        require(subPoolId != uint256(0)); // SubPool\n        uint256 poolId = tokenIndexToPoolToken[subPoolId];\n        require(poolId != uint256(0)); // Pool\n        uint256 superPoolId = tokenIndexToPoolToken[poolId];\n        require(superPoolId != uint256(0)); // SuperPool\n        if(_value <= nfts[subPoolId].value) {\n            possible = true;\n        }\n        else if (_value <= nfts[poolId].value + nfts[subPoolId].value) {\n            possible = true;\n        }\n        else if (_value <= nfts[superPoolId].value + nfts[poolId].value + nfts[subPoolId].value) {\n            possible = true;\n        }\n    }\n\n    function checkPaymentAmount(uint256 _id, uint256 _value) public view \n        returns(uint8 level, uint256 amtSubPool, uint256 amtPool, uint256 amtSuperPool, uint256 balance) {\n        level = uint8(4);\n        uint256[4] memory distribution;\n        distribution[0] = uint256(0);   // Super Pool Value\n        distribution[1] = uint256(0);   // Pool Value\n        distribution[2] = uint256(0);   // SubPool Value\n        distribution[3] = uint256(0);   // Tokens Value (must be 0)\n        \n        require(_id != uint256(0) && _id < nfts.length);\n        require(_value != uint256(0));\n        require(_owns(msg.sender, _id));\n        \n        uint256 subPoolId = tokenIndexToPoolToken[_id];\n        require(subPoolId != uint256(0)); // SubPool\n        uint256 poolId = tokenIndexToPoolToken[subPoolId];\n        require(poolId != uint256(0)); // Pool\n        uint256 superPoolId = tokenIndexToPoolToken[poolId];\n        require(superPoolId != uint256(0)); // SuperPool\n\n        level = uint8(3);\n\n        if(_value <= nfts[subPoolId].value) {\n            level = uint8(2);\n            distribution[2] = _value;\n        }\n        else if (_value <= nfts[poolId].value + nfts[subPoolId].value) {\n            level = uint8(1);\n            distribution[2] = nfts[subPoolId].value;\n            distribution[1] = _value - nfts[subPoolId].value;\n        }\n        else if (_value <= nfts[superPoolId].value + nfts[poolId].value + nfts[subPoolId].value) {\n            level = uint8(0);\n            distribution[2] = nfts[subPoolId].value;\n            distribution[1] = nfts[poolId].value;\n            distribution[0] = _value - nfts[subPoolId].value - nfts[poolId].value;\n        }\n\n        amtSubPool = distribution[2];\n        amtPool = distribution[1];\n        amtSuperPool = distribution[0];\n        \n        balance = address(this).balance;\n    }\n\n    /// TokenPool Constructor\n    constructor(string _name, string _symbol) TokenContainer(_name, _symbol) public { \n        maxLevel = 4; // FIXED DO NOT CHANGE!\n\n        // Creating templates\n        uint superPoolId = _createNFT(10 ether, \"SuperPool\", uint256(1), owner);    // fix initial capital for 10 Ether\n        uint poolId = _createNFT(uint256(0), \"Pool\", uint256(1), owner);\n        uint subPoolId = _createNFT(uint256(0), \"SubPool\", uint256(2), owner);\n\n        // Build initil structure SubPool --> Pool --> SuperPool\n        addToken(poolId, superPoolId);\n        addToken(subPoolId, poolId);\n\n        // Build configuration \n        // SuperPool configuration\n        Pool memory superPool = Pool({\n            level: uint8(0),\n            maxNumber: uint256(1),\n            maxMember: uint256(10),\n            number: uint256(1),\n            last: uint256(superPoolId),\n            share: uint256(10)\n        });\n        pools.push(superPool);\n        // Pool configuration \n        Pool memory pool = Pool({\n            level: uint8(1),\n            maxNumber: uint256(10),\n            maxMember: uint256(100),\n            number: uint256(1),\n            last: uint256(poolId),\n            share: uint256(20)\n        });\n        pools.push(pool);\n        // SubPool configuration \n        Pool memory subPool = Pool({\n            level: uint8(2),\n            maxNumber: uint256(1000),\n            maxMember: uint256(100),\n            number: uint256(1),\n            last: uint256(subPoolId),\n            share: uint256(50)\n        });\n        pools.push(subPool);\n        // set comission to 0\n        nfts[0].value = uint256(0);\n    }\n}",
  "sourcePath": "/Users/sergei/LuggageCrowdsurance/contracts/TokenPool.sol",
  "compiler": {
    "name": "solc",
    "version": "0.4.24+commit.e67f0147.Emscripten.clang"
  },
  "schemaVersion": "2.0.0",
  "updatedAt": "2018-07-02T09:42:58.793Z"
}