{
  "contractName": "TokenCrowdsurance",
  "abi": [
    {
      "constant": false,
      "inputs": [
        {
          "name": "_id",
          "type": "uint256"
        }
      ],
      "name": "insertPool",
      "outputs": [
        {
          "name": "",
          "type": "bool"
        }
      ],
      "payable": false,
      "stateMutability": "nonpayable",
      "type": "function"
    },
    {
      "constant": true,
      "inputs": [
        {
          "name": "_interfaceID",
          "type": "bytes4"
        }
      ],
      "name": "supportsInterface",
      "outputs": [
        {
          "name": "",
          "type": "bool"
        }
      ],
      "payable": false,
      "stateMutability": "view",
      "type": "function"
    },
    {
      "constant": true,
      "inputs": [],
      "name": "name",
      "outputs": [
        {
          "name": "",
          "type": "string"
        }
      ],
      "payable": false,
      "stateMutability": "view",
      "type": "function"
    },
    {
      "constant": false,
      "inputs": [
        {
          "name": "_to",
          "type": "address"
        },
        {
          "name": "_tokenId",
          "type": "uint256"
        }
      ],
      "name": "approve",
      "outputs": [],
      "payable": false,
      "stateMutability": "nonpayable",
      "type": "function"
    },
    {
      "constant": false,
      "inputs": [
        {
          "name": "_id",
          "type": "uint256"
        }
      ],
      "name": "castNegative",
      "outputs": [],
      "payable": false,
      "stateMutability": "nonpayable",
      "type": "function"
    },
    {
      "constant": true,
      "inputs": [
        {
          "name": "_id",
          "type": "uint256"
        }
      ],
      "name": "votingStatus",
      "outputs": [
        {
          "name": "votingEnded",
          "type": "bool"
        },
        {
          "name": "positive",
          "type": "uint8"
        },
        {
          "name": "negative",
          "type": "uint8"
        }
      ],
      "payable": false,
      "stateMutability": "view",
      "type": "function"
    },
    {
      "constant": false,
      "inputs": [
        {
          "name": "_nodeId",
          "type": "uint256"
        },
        {
          "name": "_parentId",
          "type": "uint256"
        }
      ],
      "name": "addToken",
      "outputs": [],
      "payable": false,
      "stateMutability": "nonpayable",
      "type": "function"
    },
    {
      "constant": true,
      "inputs": [],
      "name": "totalSupply",
      "outputs": [
        {
          "name": "",
          "type": "uint256"
        }
      ],
      "payable": false,
      "stateMutability": "view",
      "type": "function"
    },
    {
      "constant": true,
      "inputs": [],
      "name": "getAppID",
      "outputs": [
        {
          "name": "appId",
          "type": "uint256"
        }
      ],
      "payable": false,
      "stateMutability": "view",
      "type": "function"
    },
    {
      "constant": true,
      "inputs": [],
      "name": "getDistribution",
      "outputs": [
        {
          "name": "distribution",
          "type": "uint256[4]"
        }
      ],
      "payable": false,
      "stateMutability": "view",
      "type": "function"
    },
    {
      "constant": true,
      "inputs": [
        {
          "name": "",
          "type": "uint256"
        }
      ],
      "name": "tokenIndexToOwner",
      "outputs": [
        {
          "name": "",
          "type": "address"
        }
      ],
      "payable": false,
      "stateMutability": "view",
      "type": "function"
    },
    {
      "constant": false,
      "inputs": [
        {
          "name": "_from",
          "type": "address"
        },
        {
          "name": "_to",
          "type": "address"
        },
        {
          "name": "_tokenId",
          "type": "uint256"
        }
      ],
      "name": "transferFrom",
      "outputs": [],
      "payable": false,
      "stateMutability": "nonpayable",
      "type": "function"
    },
    {
      "constant": false,
      "inputs": [
        {
          "name": "_to",
          "type": "address"
        },
        {
          "name": "_toId",
          "type": "uint256"
        },
        {
          "name": "_level",
          "type": "uint256"
        }
      ],
      "name": "setLevel",
      "outputs": [],
      "payable": false,
      "stateMutability": "nonpayable",
      "type": "function"
    },
    {
      "constant": false,
      "inputs": [
        {
          "name": "_spender",
          "type": "address"
        },
        {
          "name": "_value",
          "type": "uint256"
        }
      ],
      "name": "cApprove",
      "outputs": [
        {
          "name": "success",
          "type": "bool"
        }
      ],
      "payable": false,
      "stateMutability": "nonpayable",
      "type": "function"
    },
    {
      "constant": false,
      "inputs": [
        {
          "name": "_nodeId",
          "type": "uint256"
        }
      ],
      "name": "removeToken",
      "outputs": [],
      "payable": false,
      "stateMutability": "nonpayable",
      "type": "function"
    },
    {
      "constant": false,
      "inputs": [
        {
          "name": "_to",
          "type": "address"
        },
        {
          "name": "_toId",
          "type": "uint256"
        }
      ],
      "name": "increaseLevel",
      "outputs": [],
      "payable": false,
      "stateMutability": "nonpayable",
      "type": "function"
    },
    {
      "constant": true,
      "inputs": [
        {
          "name": "",
          "type": "address"
        }
      ],
      "name": "addressToAmount",
      "outputs": [
        {
          "name": "",
          "type": "uint256"
        }
      ],
      "payable": false,
      "stateMutability": "view",
      "type": "function"
    },
    {
      "constant": false,
      "inputs": [
        {
          "name": "_from",
          "type": "address"
        },
        {
          "name": "_fromId",
          "type": "uint256"
        },
        {
          "name": "_amount",
          "type": "uint256"
        }
      ],
      "name": "cDestroy",
      "outputs": [],
      "payable": false,
      "stateMutability": "nonpayable",
      "type": "function"
    },
    {
      "constant": true,
      "inputs": [],
      "name": "getApplication",
      "outputs": [
        {
          "name": "member",
          "type": "address"
        },
        {
          "name": "appId",
          "type": "uint256"
        }
      ],
      "payable": false,
      "stateMutability": "view",
      "type": "function"
    },
    {
      "constant": false,
      "inputs": [
        {
          "name": "_to",
          "type": "address"
        },
        {
          "name": "_toId",
          "type": "uint256"
        },
        {
          "name": "_amount",
          "type": "uint256"
        }
      ],
      "name": "cIssue",
      "outputs": [],
      "payable": false,
      "stateMutability": "nonpayable",
      "type": "function"
    },
    {
      "constant": true,
      "inputs": [
        {
          "name": "_tokenId",
          "type": "uint256"
        }
      ],
      "name": "ownerOf",
      "outputs": [
        {
          "name": "",
          "type": "address"
        }
      ],
      "payable": false,
      "stateMutability": "view",
      "type": "function"
    },
    {
      "constant": false,
      "inputs": [
        {
          "name": "_to",
          "type": "address"
        },
        {
          "name": "_value",
          "type": "uint256"
        }
      ],
      "name": "cTransfer",
      "outputs": [
        {
          "name": "success",
          "type": "bool"
        }
      ],
      "payable": false,
      "stateMutability": "nonpayable",
      "type": "function"
    },
    {
      "constant": true,
      "inputs": [
        {
          "name": "_tokenId",
          "type": "uint256"
        }
      ],
      "name": "tokenMetadata",
      "outputs": [
        {
          "name": "infoUrl",
          "type": "string"
        }
      ],
      "payable": false,
      "stateMutability": "view",
      "type": "function"
    },
    {
      "constant": true,
      "inputs": [
        {
          "name": "_owner",
          "type": "address"
        }
      ],
      "name": "balanceOf",
      "outputs": [
        {
          "name": "count",
          "type": "uint256"
        }
      ],
      "payable": false,
      "stateMutability": "view",
      "type": "function"
    },
    {
      "constant": false,
      "inputs": [],
      "name": "acceptOwnership",
      "outputs": [],
      "payable": false,
      "stateMutability": "nonpayable",
      "type": "function"
    },
    {
      "constant": true,
      "inputs": [
        {
          "name": "",
          "type": "uint256"
        }
      ],
      "name": "requests",
      "outputs": [
        {
          "name": "amount",
          "type": "uint256"
        },
        {
          "name": "timeStamp",
          "type": "uint256"
        },
        {
          "name": "duration",
          "type": "uint256"
        },
        {
          "name": "positive",
          "type": "uint8"
        },
        {
          "name": "negative",
          "type": "uint8"
        },
        {
          "name": "number",
          "type": "uint8"
        }
      ],
      "payable": false,
      "stateMutability": "view",
      "type": "function"
    },
    {
      "constant": true,
      "inputs": [
        {
          "name": "_owner",
          "type": "address"
        }
      ],
      "name": "tokensOfOwner",
      "outputs": [
        {
          "name": "ownerTokens",
          "type": "uint256[]"
        }
      ],
      "payable": false,
      "stateMutability": "view",
      "type": "function"
    },
    {
      "constant": true,
      "inputs": [],
      "name": "parameters",
      "outputs": [
        {
          "name": "joinAmount",
          "type": "uint256"
        },
        {
          "name": "coverageDuration",
          "type": "uint256"
        },
        {
          "name": "maxClaimAmount",
          "type": "uint256"
        },
        {
          "name": "maxClaimNumber",
          "type": "uint8"
        },
        {
          "name": "paymentRatio",
          "type": "uint8"
        },
        {
          "name": "maxPaymentAmount",
          "type": "uint256"
        },
        {
          "name": "minJuriesNumber",
          "type": "uint8"
        },
        {
          "name": "votingDuration",
          "type": "uint256"
        },
        {
          "name": "juriesNumber",
          "type": "uint8"
        },
        {
          "name": "maxApplications",
          "type": "uint256"
        },
        {
          "name": "averageScore",
          "type": "uint256"
        }
      ],
      "payable": false,
      "stateMutability": "view",
      "type": "function"
    },
    {
      "constant": false,
      "inputs": [
        {
          "name": "_id",
          "type": "uint256"
        }
      ],
      "name": "payment",
      "outputs": [],
      "payable": false,
      "stateMutability": "nonpayable",
      "type": "function"
    },
    {
      "constant": true,
      "inputs": [],
      "name": "owner",
      "outputs": [
        {
          "name": "",
          "type": "address"
        }
      ],
      "payable": false,
      "stateMutability": "view",
      "type": "function"
    },
    {
      "constant": true,
      "inputs": [],
      "name": "cTotalSupply",
      "outputs": [
        {
          "name": "",
          "type": "uint256"
        }
      ],
      "payable": false,
      "stateMutability": "view",
      "type": "function"
    },
    {
      "constant": true,
      "inputs": [],
      "name": "symbol",
      "outputs": [
        {
          "name": "",
          "type": "string"
        }
      ],
      "payable": false,
      "stateMutability": "view",
      "type": "function"
    },
    {
      "constant": false,
      "inputs": [
        {
          "name": "_fromId",
          "type": "uint256"
        },
        {
          "name": "_spender",
          "type": "address"
        },
        {
          "name": "_toId",
          "type": "uint256"
        },
        {
          "name": "_value",
          "type": "uint256"
        }
      ],
      "name": "cApproveFrom",
      "outputs": [
        {
          "name": "success",
          "type": "bool"
        }
      ],
      "payable": false,
      "stateMutability": "nonpayable",
      "type": "function"
    },
    {
      "constant": true,
      "inputs": [
        {
          "name": "",
          "type": "uint256"
        }
      ],
      "name": "tokenIndexToPoolToken",
      "outputs": [
        {
          "name": "",
          "type": "uint256"
        }
      ],
      "payable": false,
      "stateMutability": "view",
      "type": "function"
    },
    {
      "constant": true,
      "inputs": [],
      "name": "getJoinAmount",
      "outputs": [
        {
          "name": "amount",
          "type": "uint256"
        }
      ],
      "payable": false,
      "stateMutability": "view",
      "type": "function"
    },
    {
      "constant": false,
      "inputs": [],
      "name": "fssf",
      "outputs": [],
      "payable": false,
      "stateMutability": "nonpayable",
      "type": "function"
    },
    {
      "constant": true,
      "inputs": [
        {
          "name": "",
          "type": "address"
        }
      ],
      "name": "voters",
      "outputs": [
        {
          "name": "",
          "type": "uint256"
        }
      ],
      "payable": false,
      "stateMutability": "view",
      "type": "function"
    },
    {
      "constant": true,
      "inputs": [
        {
          "name": "",
          "type": "uint256"
        }
      ],
      "name": "tokenIndexToApproved",
      "outputs": [
        {
          "name": "",
          "type": "address"
        }
      ],
      "payable": false,
      "stateMutability": "view",
      "type": "function"
    },
    {
      "constant": false,
      "inputs": [
        {
          "name": "_to",
          "type": "address"
        },
        {
          "name": "_tokenId",
          "type": "uint256"
        }
      ],
      "name": "transfer",
      "outputs": [],
      "payable": false,
      "stateMutability": "nonpayable",
      "type": "function"
    },
    {
      "constant": true,
      "inputs": [],
      "name": "getScore",
      "outputs": [
        {
          "name": "score",
          "type": "uint256"
        }
      ],
      "payable": false,
      "stateMutability": "view",
      "type": "function"
    },
    {
      "constant": true,
      "inputs": [
        {
          "name": "_to",
          "type": "address"
        },
        {
          "name": "_toId",
          "type": "uint256"
        }
      ],
      "name": "getLevel",
      "outputs": [
        {
          "name": "",
          "type": "uint256"
        }
      ],
      "payable": false,
      "stateMutability": "view",
      "type": "function"
    },
    {
      "constant": true,
      "inputs": [
        {
          "name": "_owner",
          "type": "address"
        }
      ],
      "name": "cBalanceOf",
      "outputs": [
        {
          "name": "",
          "type": "uint256"
        }
      ],
      "payable": false,
      "stateMutability": "view",
      "type": "function"
    },
    {
      "constant": false,
      "inputs": [
        {
          "name": "_id",
          "type": "uint256"
        }
      ],
      "name": "activate",
      "outputs": [],
      "payable": false,
      "stateMutability": "nonpayable",
      "type": "function"
    },
    {
      "constant": false,
      "inputs": [],
      "name": "join",
      "outputs": [
        {
          "name": "crowdsuranceId",
          "type": "uint256"
        }
      ],
      "payable": true,
      "stateMutability": "payable",
      "type": "function"
    },
    {
      "constant": false,
      "inputs": [
        {
          "name": "_jury",
          "type": "address"
        },
        {
          "name": "_id",
          "type": "uint256"
        }
      ],
      "name": "addVoter",
      "outputs": [],
      "payable": false,
      "stateMutability": "nonpayable",
      "type": "function"
    },
    {
      "constant": true,
      "inputs": [
        {
          "name": "",
          "type": "address"
        }
      ],
      "name": "addressToApplication",
      "outputs": [
        {
          "name": "",
          "type": "uint256"
        }
      ],
      "payable": false,
      "stateMutability": "view",
      "type": "function"
    },
    {
      "constant": false,
      "inputs": [
        {
          "name": "_from",
          "type": "address"
        },
        {
          "name": "_to",
          "type": "address"
        },
        {
          "name": "_value",
          "type": "uint256"
        }
      ],
      "name": "cTransferFrom",
      "outputs": [
        {
          "name": "success",
          "type": "bool"
        }
      ],
      "payable": false,
      "stateMutability": "nonpayable",
      "type": "function"
    },
    {
      "constant": true,
      "inputs": [
        {
          "name": "_member",
          "type": "address"
        },
        {
          "name": "_status",
          "type": "uint8"
        }
      ],
      "name": "statusCount",
      "outputs": [
        {
          "name": "count",
          "type": "uint256"
        }
      ],
      "payable": false,
      "stateMutability": "view",
      "type": "function"
    },
    {
      "constant": false,
      "inputs": [
        {
          "name": "_id",
          "type": "uint256"
        },
        {
          "name": "_claim",
          "type": "uint256"
        }
      ],
      "name": "claim",
      "outputs": [
        {
          "name": "",
          "type": "bool"
        }
      ],
      "payable": false,
      "stateMutability": "nonpayable",
      "type": "function"
    },
    {
      "constant": true,
      "inputs": [
        {
          "name": "",
          "type": "address"
        }
      ],
      "name": "addressToScore",
      "outputs": [
        {
          "name": "",
          "type": "uint256"
        }
      ],
      "payable": false,
      "stateMutability": "view",
      "type": "function"
    },
    {
      "constant": false,
      "inputs": [
        {
          "name": "_id",
          "type": "uint256"
        },
        {
          "name": "_positive",
          "type": "bool"
        }
      ],
      "name": "vote",
      "outputs": [],
      "payable": false,
      "stateMutability": "nonpayable",
      "type": "function"
    },
    {
      "constant": true,
      "inputs": [
        {
          "name": "_tokenId",
          "type": "uint256"
        }
      ],
      "name": "valueOf",
      "outputs": [
        {
          "name": "value",
          "type": "uint256"
        }
      ],
      "payable": false,
      "stateMutability": "view",
      "type": "function"
    },
    {
      "constant": true,
      "inputs": [
        {
          "name": "",
          "type": "address"
        },
        {
          "name": "",
          "type": "address"
        }
      ],
      "name": "allowanceAmt",
      "outputs": [
        {
          "name": "",
          "type": "uint256"
        }
      ],
      "payable": false,
      "stateMutability": "view",
      "type": "function"
    },
    {
      "constant": true,
      "inputs": [],
      "name": "maxLevel",
      "outputs": [
        {
          "name": "",
          "type": "uint256"
        }
      ],
      "payable": false,
      "stateMutability": "view",
      "type": "function"
    },
    {
      "constant": false,
      "inputs": [
        {
          "name": "_member",
          "type": "address"
        },
        {
          "name": "_score",
          "type": "uint256"
        },
        {
          "name": "_amount",
          "type": "uint256"
        }
      ],
      "name": "scoring",
      "outputs": [],
      "payable": false,
      "stateMutability": "nonpayable",
      "type": "function"
    },
    {
      "constant": true,
      "inputs": [],
      "name": "newOwner",
      "outputs": [
        {
          "name": "",
          "type": "address"
        }
      ],
      "payable": false,
      "stateMutability": "view",
      "type": "function"
    },
    {
      "constant": false,
      "inputs": [],
      "name": "apply",
      "outputs": [
        {
          "name": "addId",
          "type": "uint256"
        }
      ],
      "payable": false,
      "stateMutability": "nonpayable",
      "type": "function"
    },
    {
      "constant": true,
      "inputs": [
        {
          "name": "",
          "type": "uint256"
        }
      ],
      "name": "extensions",
      "outputs": [
        {
          "name": "timeStamp",
          "type": "uint256"
        },
        {
          "name": "activated",
          "type": "uint256"
        },
        {
          "name": "duration",
          "type": "uint256"
        },
        {
          "name": "amount",
          "type": "uint256"
        },
        {
          "name": "paid",
          "type": "uint256"
        },
        {
          "name": "score",
          "type": "uint256"
        },
        {
          "name": "claimNumber",
          "type": "uint8"
        },
        {
          "name": "status",
          "type": "uint8"
        }
      ],
      "payable": false,
      "stateMutability": "view",
      "type": "function"
    },
    {
      "constant": true,
      "inputs": [
        {
          "name": "",
          "type": "address"
        },
        {
          "name": "",
          "type": "address"
        }
      ],
      "name": "allowance",
      "outputs": [
        {
          "name": "",
          "type": "uint256"
        }
      ],
      "payable": false,
      "stateMutability": "view",
      "type": "function"
    },
    {
      "constant": true,
      "inputs": [],
      "name": "getComission",
      "outputs": [
        {
          "name": "commission",
          "type": "uint256"
        }
      ],
      "payable": false,
      "stateMutability": "view",
      "type": "function"
    },
    {
      "constant": false,
      "inputs": [
        {
          "name": "_id",
          "type": "uint256"
        }
      ],
      "name": "castPositive",
      "outputs": [],
      "payable": false,
      "stateMutability": "nonpayable",
      "type": "function"
    },
    {
      "constant": true,
      "inputs": [],
      "name": "appNumber",
      "outputs": [
        {
          "name": "",
          "type": "uint256"
        }
      ],
      "payable": false,
      "stateMutability": "view",
      "type": "function"
    },
    {
      "constant": true,
      "inputs": [
        {
          "name": "",
          "type": "uint256"
        }
      ],
      "name": "applications",
      "outputs": [
        {
          "name": "timeStamp",
          "type": "uint256"
        },
        {
          "name": "member",
          "type": "address"
        },
        {
          "name": "tokensToBuy",
          "type": "uint8"
        },
        {
          "name": "paymetMethod",
          "type": "uint8"
        },
        {
          "name": "processed",
          "type": "bool"
        }
      ],
      "payable": false,
      "stateMutability": "view",
      "type": "function"
    },
    {
      "constant": true,
      "inputs": [
        {
          "name": "_nodeId",
          "type": "uint256"
        }
      ],
      "name": "getPath",
      "outputs": [
        {
          "name": "path",
          "type": "uint256[]"
        }
      ],
      "payable": false,
      "stateMutability": "view",
      "type": "function"
    },
    {
      "constant": true,
      "inputs": [
        {
          "name": "",
          "type": "address"
        },
        {
          "name": "",
          "type": "address"
        }
      ],
      "name": "allowanceIds",
      "outputs": [
        {
          "name": "",
          "type": "uint256"
        }
      ],
      "payable": false,
      "stateMutability": "view",
      "type": "function"
    },
    {
      "constant": false,
      "inputs": [
        {
          "name": "_newOwner",
          "type": "address"
        }
      ],
      "name": "transferOwnership",
      "outputs": [],
      "payable": false,
      "stateMutability": "nonpayable",
      "type": "function"
    },
    {
      "constant": true,
      "inputs": [
        {
          "name": "_owner",
          "type": "address"
        },
        {
          "name": "_spender",
          "type": "address"
        }
      ],
      "name": "cAllowance",
      "outputs": [
        {
          "name": "",
          "type": "uint256"
        }
      ],
      "payable": false,
      "stateMutability": "view",
      "type": "function"
    },
    {
      "inputs": [
        {
          "name": "_name",
          "type": "string"
        },
        {
          "name": "_symbol",
          "type": "string"
        }
      ],
      "payable": false,
      "stateMutability": "nonpayable",
      "type": "constructor"
    },
    {
      "payable": true,
      "stateMutability": "payable",
      "type": "fallback"
    },
    {
      "anonymous": false,
      "inputs": [
        {
          "indexed": false,
          "name": "member",
          "type": "address"
        },
        {
          "indexed": false,
          "name": "appId",
          "type": "uint256"
        }
      ],
      "name": "Apply",
      "type": "event"
    },
    {
      "anonymous": false,
      "inputs": [
        {
          "indexed": false,
          "name": "member",
          "type": "address"
        },
        {
          "indexed": false,
          "name": "id",
          "type": "uint256"
        },
        {
          "indexed": false,
          "name": "amount",
          "type": "uint256"
        }
      ],
      "name": "Join",
      "type": "event"
    },
    {
      "anonymous": false,
      "inputs": [
        {
          "indexed": false,
          "name": "member",
          "type": "address"
        },
        {
          "indexed": false,
          "name": "score",
          "type": "uint256"
        },
        {
          "indexed": false,
          "name": "amount",
          "type": "uint256"
        }
      ],
      "name": "Scoring",
      "type": "event"
    },
    {
      "anonymous": false,
      "inputs": [
        {
          "indexed": false,
          "name": "id",
          "type": "uint256"
        },
        {
          "indexed": false,
          "name": "amount",
          "type": "uint256"
        },
        {
          "indexed": false,
          "name": "score",
          "type": "uint256"
        }
      ],
      "name": "Activate",
      "type": "event"
    },
    {
      "anonymous": false,
      "inputs": [
        {
          "indexed": false,
          "name": "id",
          "type": "uint256"
        },
        {
          "indexed": false,
          "name": "claim",
          "type": "uint256"
        },
        {
          "indexed": false,
          "name": "number",
          "type": "uint8"
        }
      ],
      "name": "Claim",
      "type": "event"
    },
    {
      "anonymous": false,
      "inputs": [
        {
          "indexed": false,
          "name": "jury",
          "type": "address"
        },
        {
          "indexed": false,
          "name": "id",
          "type": "uint256"
        },
        {
          "indexed": false,
          "name": "positive",
          "type": "bool"
        }
      ],
      "name": "Vote",
      "type": "event"
    },
    {
      "anonymous": false,
      "inputs": [
        {
          "indexed": false,
          "name": "reciever",
          "type": "address"
        },
        {
          "indexed": false,
          "name": "id",
          "type": "uint256"
        },
        {
          "indexed": false,
          "name": "amount",
          "type": "uint256"
        },
        {
          "indexed": false,
          "name": "status",
          "type": "uint8"
        }
      ],
      "name": "Payment",
      "type": "event"
    },
    {
      "anonymous": false,
      "inputs": [
        {
          "indexed": false,
          "name": "member",
          "type": "address"
        },
        {
          "indexed": false,
          "name": "appId",
          "type": "uint256"
        }
      ],
      "name": "FSSF",
      "type": "event"
    },
    {
      "anonymous": false,
      "inputs": [
        {
          "indexed": false,
          "name": "id",
          "type": "uint256"
        },
        {
          "indexed": false,
          "name": "poolId",
          "type": "uint256"
        },
        {
          "indexed": false,
          "name": "level",
          "type": "uint8"
        }
      ],
      "name": "InsertPool",
      "type": "event"
    },
    {
      "anonymous": false,
      "inputs": [
        {
          "indexed": false,
          "name": "id",
          "type": "uint256"
        },
        {
          "indexed": false,
          "name": "superPoolValue",
          "type": "uint256"
        },
        {
          "indexed": false,
          "name": "poolValue",
          "type": "uint256"
        },
        {
          "indexed": false,
          "name": "subPoolValue",
          "type": "uint256"
        },
        {
          "indexed": false,
          "name": "comission",
          "type": "uint256"
        }
      ],
      "name": "DistributeValue",
      "type": "event"
    },
    {
      "anonymous": false,
      "inputs": [
        {
          "indexed": false,
          "name": "id",
          "type": "uint256"
        },
        {
          "indexed": false,
          "name": "value",
          "type": "uint256"
        }
      ],
      "name": "SecondTierCall",
      "type": "event"
    },
    {
      "anonymous": false,
      "inputs": [
        {
          "indexed": false,
          "name": "id",
          "type": "uint256"
        },
        {
          "indexed": false,
          "name": "poolId",
          "type": "uint256"
        },
        {
          "indexed": false,
          "name": "value",
          "type": "uint256"
        },
        {
          "indexed": false,
          "name": "level",
          "type": "uint8"
        }
      ],
      "name": "ShortOfFunds",
      "type": "event"
    },
    {
      "anonymous": false,
      "inputs": [
        {
          "indexed": false,
          "name": "id",
          "type": "uint256"
        },
        {
          "indexed": false,
          "name": "value",
          "type": "uint256"
        },
        {
          "indexed": false,
          "name": "level",
          "type": "uint8"
        }
      ],
      "name": "PaymentValue",
      "type": "event"
    },
    {
      "anonymous": false,
      "inputs": [
        {
          "indexed": false,
          "name": "nodeId",
          "type": "uint256"
        },
        {
          "indexed": false,
          "name": "parentId",
          "type": "uint256"
        },
        {
          "indexed": false,
          "name": "level",
          "type": "uint256"
        }
      ],
      "name": "AddToken",
      "type": "event"
    },
    {
      "anonymous": false,
      "inputs": [
        {
          "indexed": false,
          "name": "nodeId",
          "type": "uint256"
        },
        {
          "indexed": false,
          "name": "level",
          "type": "uint256"
        }
      ],
      "name": "RemoveToken",
      "type": "event"
    },
    {
      "anonymous": false,
      "inputs": [
        {
          "indexed": false,
          "name": "from",
          "type": "address"
        },
        {
          "indexed": false,
          "name": "fromId",
          "type": "uint256"
        },
        {
          "indexed": false,
          "name": "to",
          "type": "address"
        },
        {
          "indexed": false,
          "name": "toId",
          "type": "uint256"
        },
        {
          "indexed": false,
          "name": "value",
          "type": "uint256"
        }
      ],
      "name": "Transfer",
      "type": "event"
    },
    {
      "anonymous": false,
      "inputs": [
        {
          "indexed": false,
          "name": "to",
          "type": "address"
        },
        {
          "indexed": false,
          "name": "toId",
          "type": "uint256"
        },
        {
          "indexed": false,
          "name": "value",
          "type": "uint256"
        }
      ],
      "name": "AddValue",
      "type": "event"
    },
    {
      "anonymous": false,
      "inputs": [
        {
          "indexed": false,
          "name": "from",
          "type": "address"
        },
        {
          "indexed": false,
          "name": "fromId",
          "type": "uint256"
        },
        {
          "indexed": false,
          "name": "value",
          "type": "uint256"
        }
      ],
      "name": "RemoveValue",
      "type": "event"
    },
    {
      "anonymous": false,
      "inputs": [
        {
          "indexed": false,
          "name": "to",
          "type": "address"
        },
        {
          "indexed": false,
          "name": "toId",
          "type": "uint256"
        },
        {
          "indexed": false,
          "name": "level",
          "type": "uint256"
        }
      ],
      "name": "SetLevel",
      "type": "event"
    },
    {
      "anonymous": false,
      "inputs": [
        {
          "indexed": false,
          "name": "to",
          "type": "address"
        },
        {
          "indexed": false,
          "name": "toId",
          "type": "uint256"
        }
      ],
      "name": "IncreaseLevel",
      "type": "event"
    },
    {
      "anonymous": false,
      "inputs": [
        {
          "indexed": true,
          "name": "_prevOwner",
          "type": "address"
        },
        {
          "indexed": true,
          "name": "_newOwner",
          "type": "address"
        }
      ],
      "name": "OwnerUpdate",
      "type": "event"
    },
    {
      "anonymous": false,
      "inputs": [
        {
          "indexed": false,
          "name": "fromId",
          "type": "uint256"
        },
        {
          "indexed": false,
          "name": "spender",
          "type": "address"
        },
        {
          "indexed": false,
          "name": "toId",
          "type": "uint256"
        },
        {
          "indexed": false,
          "name": "value",
          "type": "uint256"
        }
      ],
      "name": "CApproveFrom",
      "type": "event"
    },
    {
      "anonymous": false,
      "inputs": [
        {
          "indexed": false,
          "name": "spender",
          "type": "address"
        },
        {
          "indexed": false,
          "name": "value",
          "type": "uint256"
        }
      ],
      "name": "CApprove",
      "type": "event"
    },
    {
      "anonymous": false,
      "inputs": [
        {
          "indexed": false,
          "name": "from",
          "type": "address"
        },
        {
          "indexed": false,
          "name": "fromId",
          "type": "uint256"
        },
        {
          "indexed": false,
          "name": "to",
          "type": "address"
        },
        {
          "indexed": false,
          "name": "toId",
          "type": "uint256"
        },
        {
          "indexed": false,
          "name": "value",
          "type": "uint256"
        },
        {
          "indexed": false,
          "name": "allowance",
          "type": "uint256"
        }
      ],
      "name": "CTransferFrom",
      "type": "event"
    },
    {
      "anonymous": false,
      "inputs": [
        {
          "indexed": false,
          "name": "to",
          "type": "address"
        },
        {
          "indexed": false,
          "name": "toId",
          "type": "uint256"
        },
        {
          "indexed": false,
          "name": "amount",
          "type": "uint256"
        }
      ],
      "name": "CIssue",
      "type": "event"
    },
    {
      "anonymous": false,
      "inputs": [
        {
          "indexed": false,
          "name": "from",
          "type": "address"
        },
        {
          "indexed": false,
          "name": "fromId",
          "type": "uint256"
        },
        {
          "indexed": false,
          "name": "amount",
          "type": "uint256"
        }
      ],
      "name": "CDestroy",
      "type": "event"
    },
    {
      "anonymous": false,
      "inputs": [
        {
          "indexed": false,
          "name": "from",
          "type": "address"
        },
        {
          "indexed": false,
          "name": "to",
          "type": "address"
        },
        {
          "indexed": false,
          "name": "tokenId",
          "type": "uint256"
        }
      ],
      "name": "Transfer",
      "type": "event"
    },
    {
      "anonymous": false,
      "inputs": [
        {
          "indexed": false,
          "name": "owner",
          "type": "address"
        },
        {
          "indexed": false,
          "name": "approved",
          "type": "address"
        },
        {
          "indexed": false,
          "name": "tokenId",
          "type": "uint256"
        }
      ],
      "name": "Approval",
      "type": "event"
    },
    {
      "anonymous": false,
      "inputs": [
        {
          "indexed": false,
          "name": "value",
          "type": "uint256"
        },
        {
          "indexed": false,
          "name": "metadata",
          "type": "string"
        },
        {
          "indexed": false,
          "name": "kind",
          "type": "uint256"
        },
        {
          "indexed": false,
          "name": "owner",
          "type": "address"
        }
      ],
      "name": "Birth",
      "type": "event"
    }
  ],
  "bytecode": "0x606060405234156200001057600080fd5b60405162005a3238038062005a328339810160405280805182019190602001805190910190508181600080806200004662000903565b6200005062000903565b6200005a62000903565b60028054600160a060020a03191633600160a060020a03161790558787818181816000828051620000909291602001906200093d565b506001818051620000a69291602001906200093d565b5050600a8054600160a060020a03191633600160a060020a031617905550506004600c5550620001339150678ac7230489e80000905060408051908101604052600981527f5375706572506f6f6c00000000000000000000000000000000000000000000006020820152600a54600190600160a060020a031664010000000062004984620004b682021704565b955062000192600060408051908101604052600481527f506f6f6c000000000000000000000000000000000000000000000000000000006020820152600a54600190600160a060020a031664010000000062004984620004b682021704565b9450620001f1600060408051908101604052600781527f537562506f6f6c000000000000000000000000000000000000000000000000006020820152600a54600290600160a060020a031664010000000062004984620004b682021704565b93506200020d8587640100000000620011b1620006c782021704565b620002278486640100000000620011b1620006c782021704565b60c060405190810160405280600060ff16815260200160018152602001600a815260200160018152602001878152602001600a8152509250600e8054806001018281620002759190620009c2565b600092835260209092208591600602018151815460ff191660ff919091161781556020820151816001015560408201518160020155606082015181600301556080820151816004015560a0820151816005015550505060c060405190810160405280600160ff168152602001600a8152602001606481526020016001815260200186815260200160148152509150600e8054806001018281620003199190620009c2565b600092835260209092208491600602018151815460ff191660ff919091161781556020820151816001015560408201518160020155606082015181600301556080820151816004015560a0820151816005015550505060c060405190810160405280600260ff1681526020016103e88152602001606481526020016001815260200185815260200160328152509050600e8054806001018281620003be9190620009c2565b600092835260209092208391600602018151815460ff191660ff919091161781556020820151816001015560408201518160020155606082015181600301556080820151816004015560a082015181600501555050506000600360008154811015156200042757fe5b600091825260208083206005928302019390935567016345785d8a0000600f5562f099c0601055678ac7230489e8000060118190556012805461500061ff001960ff19928316600117161790915560139190915560148054821660031790556202a300601555601680549091169091179055600a601755606460185590555062000b6198505050505050505050565b6000620004c2620009f6565b600060a060405190810160405280888152602001878152602001868152602001600081526020016000815250915060016003805480600101828162000508919062000a2e565b6000928352602090922085916005020181518155602082015181600101908051620005389291602001906200093d565b506040820151816002015560608201518160030155608082015160049091015550039050801515620005d1576001600380548060010182816200057c919062000a2e565b6000928352602090922085916005020181518155602082015181600101908051620005ac9291602001906200093d565b5060408201518160020155606082015181600301556080820151816004015550500390505b63ffffffff81168114620005e457600080fd5b7fdea8e87d69047e1b3cd43ad599d34e3eacfe4408b4dfc5d0f6ac6a15a468de5c8787878760405184815260408101839052600160a060020a038216606082015260806020820181815290820185818151815260200191508051906020019080838360005b838110156200066357808201518382015260200162000649565b50505050905090810190601f168015620006915780820380516001836020036101000a031916815260200191505b509550505050505060405180910390a1620006bd6000858364010000000062003a6f620007fc82021704565b9695505050505050565b8115801590620006d8575060035482105b1515620006e457600080fd5b8015801590620006f5575060035481105b15156200070157600080fd5b6001600c54036003828154811015156200071757fe5b9060005260206000209060050201600301541015156200073657600080fd5b6000828152600d6020526040902081905560038054829081106200075657fe5b9060005260206000209060050201600301546001016003838154811015156200077b57fe5b9060005260206000209060050201600301819055507f0900f87897aa374bb21fa36753905fa2944dd2301242246101a9047a0ed227a08282600385815481101515620007c357fe5b90600052602060002090600502016003015460405180848152602001838152602001828152602001935050505060405180910390a15050565b6104006003828154811015156200080f57fe5b906000526020600020906005020160040154141515156200082c57fe5b600160a060020a03808316600081815260056020908152604080832080546001019055858352600490915290208054600160a060020a0319169091179055831615620008ae57600160a060020a03831660009081526005602090815260408083208054600019019055838352600690915290208054600160a060020a03191690555b7fddf252ad1be2c89b69c2b068fc378daa952ba7f163c4a11628f55a4df523b3ef838383604051600160a060020a039384168152919092166020820152604080820192909252606001905180910390a1505050565b60c060405190810160405280600060ff16815260200160008152602001600081526020016000815260200160008152602001600081525090565b828054600181600116156101000203166002900490600052602060002090601f016020900481019282601f106200098057805160ff1916838001178555620009b0565b82800160010185558215620009b0579182015b82811115620009b057825182559160200191906001019062000993565b50620009be92915062000a5d565b5090565b815481835581811511620009f157600602816006028360005260206000209182019101620009f1919062000a7d565b505050565b60a0604051908101604052806000815260200162000a1362000ac1565b81526020016000815260200160008152602001600081525090565b815481835581811511620009f157600502816005028360005260206000209182019101620009f1919062000ad3565b62000a7a91905b80821115620009be576000815560010162000a64565b90565b62000a7a91905b80821115620009be57805460ff19168155600060018201819055600282018190556003820181905560048201819055600582015560060162000a84565b60206040519081016040526000815290565b62000a7a91905b80821115620009be57600080825562000af7600183018262000b16565b5060006002820181905560038201819055600482015560050162000ada565b50805460018160011615610100020316600290046000825580601f1062000b3e575062000b5e565b601f01602090049060005260206000209081019062000b5e919062000a5d565b50565b614ec18062000b716000396000f3006060604052600436106103155763ffffffff7c0100000000000000000000000000000000000000000000000000000000600035041662607b7f811461031757806301ffc9a71461034157806306fdde0314610379578063095ea7b3146104035780630c04ad11146104255780630e13dd741461043b57806317b9ebec1461047a57806318160ddd146104935780631aff0596146104b85780631cced51b146104cb5780631d36e06c1461051657806323b872dd14610548578063296250051461057057806332c4ee831461059557806336c5d724146105b757806339e6cdb1146105cd5780633c7e7d28146105ef5780634cabcfac1461060e5780634fe89efe14610633578063545c3d55146106685780636352211e1461068d57806366d80ba5146106a35780636914db60146106c557806370a08231146106db57806379ba5097146106fa57806381d12c581461070d5780638462151c1461076057806389035730146107d25780638b3c99e3146108495780638da5cb5b1461085f5780638f1fc77c1461087257806395d89b411461088557806398dc5c95146108985780639ca08831146108c05780639d26d1ca146108d6578063a01177cd146108e9578063a3ec138d146108fc578063a8bd9c321461091b578063a9059cbb14610931578063afd8206714610953578063b121f2ac14610966578063b135707914610988578063b260c42a146109a7578063b688a363146109bd578063b9f05f2f146109c5578063be1d68ad146109e7578063bf62266514610a06578063c0521d7614610a2e578063c349026314610a53578063c52380e914610a6c578063c9d27afe14610a8b578063cadf338f14610aa6578063cbbc9f8914610abc578063cc06c35914610ae1578063cf7c436714610af4578063d4ee1d9014610b19578063db595b3b14610b2c578063db85d59c14610b3f578063dd62ed3e14610ba1578063dd6d3ca714610bc6578063ddf3ecc714610bd9578063deb8386a14610bef578063dfefadff14610c02578063e176507314610c58578063e527cc9d14610c6e578063f2fde38b14610c93578063f81fd7ea14610cb2575b005b341561032257600080fd5b61032d600435610cd7565b604051901515815260200160405180910390f35b341561034c57600080fd5b61032d7fffffffff0000000000000000000000000000000000000000000000000000000060043516610d39565b341561038457600080fd5b61038c611012565b60405160208082528190810183818151815260200191508051906020019080838360005b838110156103c85780820151838201526020016103b0565b50505050905090810190601f1680156103f55780820380516001836020036101000a031916815260200191505b509250505060405180910390f35b341561040e57600080fd5b610315600160a060020a03600435166024356110bb565b341561043057600080fd5b61031560043561112e565b341561044657600080fd5b61045160043561113c565b604051921515835260ff9182166020840152166040808301919091526060909101905180910390f35b341561048557600080fd5b6103156004356024356111b1565b341561049e57600080fd5b6104a66112dd565b60405190815260200160405180910390f35b34156104c357600080fd5b6104a66112f8565b34156104d657600080fd5b6104de611314565b6040518082608080838360005b838110156105035780820151838201526020016104eb565b5050505090500191505060405180910390f35b341561052157600080fd5b61052c6004356113f7565b604051600160a060020a03909116815260200160405180910390f35b341561055357600080fd5b610315600160a060020a0360043581169060243516604435611412565b341561057b57600080fd5b610315600160a060020a0360043516602435604435611482565b34156105a057600080fd5b61032d600160a060020a0360043516602435611532565b34156105c257600080fd5b610315600435611632565b34156105d857600080fd5b610315600160a060020a03600435166024356116d3565b34156105fa57600080fd5b6104a6600160a060020a036004351661178f565b341561061957600080fd5b610315600160a060020a03600435166024356044356117a1565b341561063e57600080fd5b61064661184f565b604051600160a060020a03909216825260208201526040908101905180910390f35b341561067357600080fd5b610315600160a060020a03600435166024356044356118e7565b341561069857600080fd5b61052c600435611995565b34156106ae57600080fd5b61032d600160a060020a03600435166024356119b9565b34156106d057600080fd5b61038c6004356119f2565b34156106e657600080fd5b6104a6600160a060020a0360043516611ab9565b341561070557600080fd5b610315611ad4565b341561071857600080fd5b610723600435611b62565b604051958652602086019490945260408086019390935260ff91821660608601528116608085015290911660a083015260c0909101905180910390f35b341561076b57600080fd5b61077f600160a060020a0360043516611b9f565b60405160208082528190810183818151815260200191508051906020019060200280838360005b838110156107be5780820151838201526020016107a6565b505050509050019250505060405180910390f35b34156107dd57600080fd5b6107e5611bb0565b6040519a8b5260208b01999099526040808b019890985260ff96871660608b015294861660808a015260a089019390935290841660c088015260e0870152909116610100850152610120840152610140830191909152610160909101905180910390f35b341561085457600080fd5b610315600435611be7565b341561086a57600080fd5b61052c611fba565b341561087d57600080fd5b6104a6611fc9565b341561089057600080fd5b61038c612010565b34156108a357600080fd5b61032d600435600160a060020a0360243516604435606435612083565b34156108cb57600080fd5b6104a660043561217e565b34156108e157600080fd5b6104a6612190565b34156108f457600080fd5b6103156121ac565b341561090757600080fd5b6104a6600160a060020a036004351661224c565b341561092657600080fd5b61052c60043561225e565b341561093c57600080fd5b610315600160a060020a0360043516602435612279565b341561095e57600080fd5b6104a66122cf565b341561097157600080fd5b6104a6600160a060020a03600435166024356122eb565b341561099357600080fd5b6104a6600160a060020a036004351661232a565b34156109b257600080fd5b6103156004356123a3565b6104a66124aa565b34156109d057600080fd5b610315600160a060020a0360043516602435612527565b34156109f257600080fd5b6104a6600160a060020a036004351661265e565b3415610a1157600080fd5b61032d600160a060020a0360043581169060243516604435612670565b3415610a3957600080fd5b6104a6600160a060020a036004351660ff60243516612847565b3415610a5e57600080fd5b61032d6004356024356128c7565b3415610a7757600080fd5b6104a6600160a060020a0360043516612b2e565b3415610a9657600080fd5b6103156004356024351515612b40565b3415610ab157600080fd5b6104a6600435612c89565b3415610ac757600080fd5b6104a6600160a060020a0360043581169060243516612cb3565b3415610aec57600080fd5b6104a6612cd0565b3415610aff57600080fd5b610315600160a060020a0360043516602435604435612cd6565b3415610b2457600080fd5b61052c612e6c565b3415610b3757600080fd5b6104a6612e7b565b3415610b4a57600080fd5b610b55600435613150565b60405197885260208801969096526040808801959095526060870193909352608086019190915260a085015260ff90811660c085015290911660e0830152610100909101905180910390f35b3415610bac57600080fd5b6104a6600160a060020a0360043581169060243516613199565b3415610bd157600080fd5b6104a66131b6565b3415610be457600080fd5b6103156004356131df565b3415610bfa57600080fd5b6104a66131ea565b3415610c0d57600080fd5b610c186004356131f0565b604051948552600160a060020a03909316602085015260ff91821660408086019190915291166060840152901515608083015260a0909101905180910390f35b3415610c6357600080fd5b61077f60043561327c565b3415610c7957600080fd5b6104a6600160a060020a03600435811690602435166132d9565b3415610c9e57600080fd5b610315600160a060020a03600435166132f6565b3415610cbd57600080fd5b6104a6600160a060020a0360043581169060243516613358565b600a5460009033600160a060020a03908116911614610cf257fe5b8115801590610d02575060035482105b1515610d0d57600080fd5b610d188260026133b0565b1515610d2057fe5b610d2982613661565b1515610d3157fe5b506001919050565b60006040517f737570706f727473496e74657266616365286279746573342900000000000000815260190160405180910390207bffffffffffffffffffffffffffffffffffffffffffffffffffffffff1916827bffffffffffffffffffffffffffffffffffffffffffffffffffffffff1916148061100c57506040517f746f6b656e4d657461646174612875696e743235362c737472696e67290000008152601d0160405180910390206040517f746f6b656e734f664f776e657228616464726573732900000000000000000000815260160160405180910390206040517f7472616e7366657246726f6d28616464726573732c616464726573732c75696e81527f7432353629000000000000000000000000000000000000000000000000000000602082015260250160405180910390206040517f7472616e7366657228616464726573732c75696e743235362900000000000000815260190160405180910390206040517f617070726f766528616464726573732c75696e74323536290000000000000000815260180160405180910390206040517f6f776e65724f662875696e743235362900000000000000000000000000000000815260100160405180910390206040517f62616c616e63654f662861646472657373290000000000000000000000000000815260120160405180910390206040517f746f74616c537570706c792829000000000000000000000000000000000000008152600d0160405180910390206040517f73796d626f6c2829000000000000000000000000000000000000000000000000815260080160405180910390206040517f6e616d6528290000000000000000000000000000000000000000000000000000815260060160405180910390201818181818181818187bffffffffffffffffffffffffffffffffffffffffffffffffffffffff1916827bffffffffffffffffffffffffffffffffffffffffffffffffffffffff1916145b92915050565b61101a614b76565b60008054600181600116156101000203166002900480601f0160208091040260200160405190810160405280929190818152602001828054600181600116156101000203166002900480156110b05780601f10611085576101008083540402835291602001916110b0565b820191906000526020600020905b81548152906001019060200180831161109357829003601f168201915b505050505090505b90565b6110c533826139f4565b15156110d057600080fd5b6110da8183613a14565b7f8c5be1e5ebec7d5bd14f71427d1e84f3dd0314c0f7b2291e5b200ac8c7c3b925338383604051600160a060020a039384168152919092166020820152604080820192909252606001905180910390a15050565b611139816000612b40565b50565b60008080808085151561114e57600080fd5b60026000878152601b6020526040902060060154610100900460ff161461117457600080fd5b50505060009283525050601d6020526040902060028101546001820154600390920154429290910191909111159160ff8083169261010090041690565b81158015906111c1575060035482105b15156111cc57600080fd5b80158015906111dc575060035481105b15156111e757600080fd5b6001600c54036003828154811015156111fc57fe5b90600052602060002090600502016003015410151561121a57600080fd5b6000828152600d60205260409020819055600380548290811061123957fe5b90600052602060002090600502016003015460010160038381548110151561125d57fe5b9060005260206000209060050201600301819055507f0900f87897aa374bb21fa36753905fa2944dd2301242246101a9047a0ed227a082826003858154811015156112a457fe5b90600052602060002090600502016003015460405180848152602001838152602001828152602001935050505060405180910390a15050565b600354600090818111156112f057600019015b8091505b5090565b600160a060020a0333166000908152601e602052604090205490565b61131c614b88565b600080825260208201819052604082018190526060820181905260015b6003548110156113f257600380548290811061135157fe5b9060005260206000209060050201600301549150600c548260ff1610156113bf57600380548290811061138057fe5b60009182526020909120600590910201548360ff8416600481106113a057fe5b6020020151018360ff8416600481106113b557fe5b60200201526113ea565b60038054829081106113cd57fe5b600091825260209091206005909102015460608401510160608401525b600101611339565b505090565b600460205260009081526040902054600160a060020a031681565b600160a060020a038216151561142757600080fd5b30600160a060020a031682600160a060020a03161415151561144857600080fd5b6114523382613a4f565b151561145d57600080fd5b61146783826139f4565b151561147257600080fd5b61147d838383613a6f565b505050565b600a5433600160a060020a0390811691161461149a57fe5b6114a483836139f4565b15156114af57600080fd5b806003838154811015156114bf57fe5b9060005260206000209060050201600301819055507f48ed1b5769aee6cf16cda3da1db2a0acf83c194c9d2a98ebeff4904567af58f68383836040518084600160a060020a0316600160a060020a03168152602001838152602001828152602001935050505060405180910390a1505050565b6000808080600160a060020a038616151561154c57600080fd5b84151561155857600080fd5b33925061156483613b8d565b915061156f86613b8d565b90508181141561157e57600080fd5b81151561158a57600080fd5b80151561159657600080fd5b600160a060020a038381166000818152600860209081526040808320948b168084529482528083208690559282528282208690556009815282822093825292909252908190208690557fe051949e9a44e2e9c21ee7d1c7b03ef0bf501aa3b7c4616a8543f229c0bede7a908790879051600160a060020a03909216825260208201526040908101905180910390a1600193505b50505092915050565b60008115801590611644575060035482105b151561164f57600080fd5b61165882613bd7565b9050801561166557600080fd5b6000828152600d6020526040812055600380547f399c331be71add502e95a2402ba7370605a945c1c6c1dc01c5e30f7e896cfa56918491829081106116a657fe5b90600052602060002090600502016003015460405191825260208201526040908101905180910390a15050565b600a5433600160a060020a039081169116146116eb57fe5b6116f582826139f4565b151561170057600080fd5b600380548290811061170e57fe5b90600052602060002090600502016003015460010160038281548110151561173257fe5b9060005260206000209060050201600301819055507fb6ffa2bc58069f160ac94855c396bc8a7c591ae4b9e69d78cc004ad2e4d70d858282604051600160a060020a03909216825260208201526040908101905180910390a15050565b60196020526000908152604090205481565b6000600160a060020a03841615156117b857600080fd5b8115156117c457600080fd5b50818015156117d9576117d684613b8d565b90505b8015156117e557600080fd5b6117f0848284613c35565b7f8ee078ba6dd38678f9ffdc8f1df2d512559df0cae2db32c829459127e10031978484846040518084600160a060020a0316600160a060020a03168152602001838152602001828152602001935050505060405180910390a150505050565b602054600090819081901515611864576118e2565b5060015b601f548110156118e257601f80548290811061188057fe5b906000526020600020906002020160010160169054906101000a900460ff1615156118da57601f8054829081106118b357fe5b6000918252602090912060016002909202010154600160a060020a031692509050806118e2565b600101611868565b509091565b6000600160a060020a03841615156118fe57600080fd5b81151561190a57600080fd5b508180151561191f5761191c84613b8d565b90505b80151561192b57600080fd5b611936848284613d23565b7ff3d0e22890d929d2a1cd5ca9e5f6498c4271ce2f0223ab4092297c2d11c9ef758484846040518084600160a060020a0316600160a060020a03168152602001838152602001828152602001935050505060405180910390a150505050565b600081815260046020526040812054600160a060020a031680151561100c57600080fd5b600080600160a060020a03841615156119d157600080fd5b8215156119dd57600080fd5b50336119ea818585612670565b949350505050565b6119fa614b76565b6003805483908110611a0857fe5b90600052602060002090600502016001018054600181600116156101000203166002900480601f016020809104026020016040519081016040528092919081815260200182805460018160011615610100020316600290048015611aad5780601f10611a8257610100808354040283529160200191611aad565b820191906000526020600020905b815481529060010190602001808311611a9057829003601f168201915b50505050509050919050565b600160a060020a031660009081526005602052604090205490565b600b5433600160a060020a03908116911614611aef57600080fd5b600b54600a54600160a060020a0391821691167f343765429aea5a34b3ff6a3785a98a5abb2597aca87bfbb58632c173d585373a60405160405180910390a3600b8054600a805473ffffffffffffffffffffffffffffffffffffffff19908116600160a060020a03841617909155169055565b601d6020526000908152604090208054600182015460028301546003909301549192909160ff808216916101008104821691620100009091041686565b611ba7614b76565b61100c82613de5565b600f5460105460115460125460135460145460155460165460175460185460ff80881697610100900481169695811694931691908b565b6000808080841515611bf857600080fd5b611c0233866139f4565b1515611c0d57600080fd5b60026000868152601b6020526040902060060154610100900460ff1614611c3357600080fd5b6000858152601d60205260409020600281015460018201549195500192504283111580611c7a5750601654600385015460ff81811661010090920481169190910181169116145b1515611c8557600080fd5b6012548454606491610100900460ff16026003860154919004925060ff610100820481169116118015611cbd5750611cbd8583613eda565b15611d8957600160a060020a03331682156108fc0283604051600060405180830381858888f193505050501515611cf357600080fd5b6000858152601b6020526040902060068101805461ff001916610300179055600401805483019055611d258583614023565b507f261826fbdc11ee0da48a5356542bcb46786deaed4c215b871d3df7a03652262d33868460035b604051600160a060020a039094168452602084019290925260408084019190915260ff90911660608301526080909101905180910390a1611f28565b600384015460ff808216610100909204161480611dc15750601454600385015460ff9182166101008204831691831691909101909116105b8015611de557506000858152601b6020526040902060030154611de5908690613eda565b15611ea9576000858152601b60205260409081902060030154600160a060020a0333169181156108fc02919051600060405180830381858888f193505050501515611e2f57600080fd5b6000858152601b6020526040902060068101805461ff00191661050017905560038101546004909101805482019055611e69908690614023565b506000858152601b60205260409020600301547f261826fbdc11ee0da48a5356542bcb46786deaed4c215b871d3df7a03652262d90339087906005611d4d565b6000858152601b6020526040808220600601805461ff0019166104001790557f261826fbdc11ee0da48a5356542bcb46786deaed4c215b871d3df7a03652262d91339188919060049051600160a060020a039094168452602084019290925260408084019190915260ff90911660608301526080909101905180910390a15b600384015462010000900460ff16811015611f7657601c6000600486018360058110611f5057fe5b0154600160a060020a031681526020810191909152604001600090812055600101611f28565b6000858152601d60205260408120818155600181018290556002810182905560038101805462ffffff1916905590611fb16004830182614baf565b50505050505050565b600a54600160a060020a031681565b600354600090819060015b81811015612008576003805482908110611fea57fe5b60009182526020909120600590910201549290920191600101611fd4565b509092915050565b612018614b76565b60018054600181600116156101000203166002900480601f0160208091040260200160405190810160405280929190818152602001828054600181600116156101000203166002900480156110b05780601f10611085576101008083540402835291602001916110b0565b600080600160a060020a038516151561209b57600080fd5b858414156120a857600080fd5b8515156120b457600080fd5b8315156120c057600080fd5b8215156120cc57600080fd5b5033600160a060020a038181166000818152600860209081526040808320948a168084529482528083208990559282528282208a90556009815282822093825292909252908190208490557fef4beaa380feab20776f162f92bbf15b04c59f8fd4e8ab2508b8d29fed7dfd6190879087908790879051938452600160a060020a03909216602084015260408084019190915260608301919091526080909101905180910390a150600195945050505050565b600d6020526000908152604090205481565b600160a060020a03331660009081526019602052604090205490565b600a54600090819033600160a060020a039081169116146121c957fe5b6121d161184f565b9092509050600160a060020a038216158015906121ed57508015155b1561224857601854600f54612203918491612cd6565b7fa2b47dc564bd9b8719fa8435590eb01665bade49e1fa4890022587a074d9e4268282604051600160a060020a03909216825260208201526040908101905180910390a15b5050565b601c6020526000908152604090205481565b600660205260009081526040902054600160a060020a031681565b600160a060020a038216151561228e57600080fd5b30600160a060020a031682600160a060020a0316141515156122af57600080fd5b6122b933826139f4565b15156122c457600080fd5b612248338383613a6f565b600160a060020a0333166000908152601a602052604090205490565b60006122f783836139f4565b151561230257600080fd5b600380548390811061231057fe5b906000526020600020906005020160030154905092915050565b6000612334614b76565b600080600061234286613de5565b93506000925083519150600090505b8181101561239957600384828151811061236757fe5b906020019060200201518154811061237b57fe5b60009182526020909120600590910201549290920191600101612351565b5090949350505050565b8015156123af57600080fd5b6123b933826139f4565b15156123c457600080fd5b6000818152601b602052604090206003015415156123e157600080fd5b6000818152601b602052604090206006015460ff610100909104166001141561240957600080fd5b61040060038281548110151561241b57fe5b6000918252602080832060059283020160040193909355838252601b90925260409081902060068101805461ff00191661010017905542600182015560038101549201547ff5d2d36fd2c60192fd8f874c962737f1858ff797bf9865d071ade33eeee007019284929091905180848152602001838152602001828152602001935050505060405180910390a150565b33600160a060020a0381166000908152601a60205260408120549091349182158015906124d95750600f548310155b15156124e457600080fd5b8015156124f057600080fd5b600160a060020a038216600090815260196020526040902054831461251457600080fd5b61251f8282856145e7565b935050505090565b600a546000908190819033600160a060020a0390811691161461254657fe5b600160a060020a038516151561255b57600080fd5b83151561256757600080fd5b60026000858152601b6020526040902060060154610100900460ff161461258d57600080fd5b6000848152601d60205260409020805490935015156125ab57600080fd5b60028301546001840154019150428210156125c557600080fd5b50600382015460165460ff620100009092048216911681106125e657600080fd5b846004840160ff8316600581106125f957fe5b018054600160a060020a0392831673ffffffffffffffffffffffffffffffffffffffff199091161790556003909301805460ff6201000080830482166001019091160262ff0000199091161790555050919091166000908152601c6020526040902055565b601e6020526000908152604090205481565b600080808080600160a060020a038716151561268b57600080fd5b85151561269757600080fd5b50505050600160a060020a03848116600081815260086020908152604080832094881680845294825280832054938352808320546009835281842095845294909152902054869290818314156126ec57600080fd5b8215156126f857600080fd5b81151561270457600080fd5b80151561271057600080fd5b8581101561271d57600080fd5b61272a848389868a614795565b600160a060020a038481166000908152600960209081526040808320938b1683529290522080548790039081905515156127a257600160a060020a038481166000818152600960209081526040808320948c168084529482528083208390559282526008815282822090528181208190559182528120555b600160a060020a038085166000908152600960209081526040808320938b168352929052819020547fa085ba1c72fda1f13ecb6e0347284ac7d016a73b7a47c0ba151368bbe5ce2db9918a9185918b9188918c919051600160a060020a0396871681526020810195909552929094166040808501919091526060840191909152608083019390935260a082015260c001905180910390a1506001979650505050505050565b6000612851614b76565b600061285c85613de5565b915060009250600090505b81518110156128bf578360ff16601b600084848151811061288457fe5b906020019060200201518152602081019190915260400160002060060154610100900460ff1614156128b7576001909201915b600101612867565b505092915050565b600080808415156128d757600080fd5b6128e133866139f4565b15156128ec57600080fd5b8315156128f857600080fd5b60016000868152601b6020526040902060060154610100900460ff161461291e57600080fd5b6012546000868152601b602052604090206006015460ff91821691161061294457600080fd5b601254606490610100900460ff1685026013546000888152601b6020526040902060040154929091049350908301111561297d57600080fd5b506000848152601b60205260409020600281015460019091015401428110156129a557600080fd5b60e06040519081016040908152858252426020830152601554818301526000606083018190526080830181905260a08084019190915260c083019151908101604090815260008083526020808401829052828401829052606084018290526080840182905292909352888352601d9091529020815181556020820151816001015560408201518160020155606082015160038201805460ff191660ff9290921691909117905560808201518160030160016101000a81548160ff021916908360ff16021790555060a08201518160030160026101000a81548160ff021916908360ff16021790555060c0820151612aa29060048301906005614bd2565b5050506000858152601b602052604090819020600601805461020061ff001960ff198316600160ff948516018416171617918290557fb3ef0c14cd9ed6533151b9a921ddb33f8716dd3593254ffc741ae770313e3bea9288928892169051928352602083019190915260ff166040808301919091526060909101905180910390a1506001949350505050565b601a6020526000908152604090205481565b600080831515612b4f57600080fd5b600160a060020a0333166000908152601c60205260409020548414612b7357600080fd5b6000848152601b602052604090206006015460ff61010090910416600214612b9a57600080fd5b50506000828152601d60205260409020600281015460018201540142811015612bc257600080fd5b8215612be55760038201805460ff8082166001011660ff19909116179055612c07565b60038201805460ff61010080830482166001019091160261ff00199091161790555b601c600033600160a060020a0316600160a060020a03168152602001908152602001600020600090557f8d85a70fd2c5d140a4a01143492d27ff82cfad4cead313e66c53f39b0feb5e0f338585604051600160a060020a039093168352602083019190915215156040808301919091526060909101905180910390a150505050565b6000600382815481101515612c9a57fe5b9060005260206000209060050201600001549050919050565b600960209081526000928352604080842090915290825290205481565b600c5481565b600a5460009033600160a060020a03908116911614612cf157fe5b600160a060020a0384161515612d0657600080fd5b821515612d1257600080fd5b8115801590612d235750600f548210155b1515612d2e57600080fd5b50600160a060020a0383166000908152601960209081526040808320849055601a8252808320859055601e9091529020548015801590612d6f5750601f5481105b15612e0d576001601f82815481101515612d8557fe5b6000918252602080832060016002909302019190910180549315157601000000000000000000000000000000000000000000000276ff000000000000000000000000000000000000000000001990941693909317909255600160a060020a0386168152601e82526040812055805460001901908190551515612e0d57612e0d601f6000614c35565b7f21619a95128e7e5c5367774b6479b6edbc059210239e39bbd50dbae00cfe09728484846040518084600160a060020a0316600160a060020a03168152602001838152602001828152602001935050505060405180910390a150505050565b600b54600160a060020a031681565b6000612e85614c56565b600160a060020a0333166000908152601e6020526040902054915081158015612eb15750601754602054105b156112f45760a06040519081016040908152428252600160a060020a033316602083015260019082018190526000606083018190526080830152601f80549293509091808301612f018382614c84565b6000928352602090922084916002020181518155602082015160018201805473ffffffffffffffffffffffffffffffffffffffff1916600160a060020a039290921691909117905560408201518160010160146101000a81548160ff021916908360ff16021790555060608201518160010160156101000a81548160ff021916908360ff1602179055506080820151600190910180549115157601000000000000000000000000000000000000000000000276ff0000000000000000000000000000000000000000000019909216919091179055500391508115156130cf576001601f8054806001018281612ff69190614c84565b6000928352602090922084916002020181518155602082015160018201805473ffffffffffffffffffffffffffffffffffffffff1916600160a060020a039290921691909117905560408201518160010160146101000a81548160ff021916908360ff16021790555060608201518160010160156101000a81548160ff021916908360ff1602179055506080820151600190910180549115157601000000000000000000000000000000000000000000000276ff0000000000000000000000000000000000000000000019909216919091179055500391505b63ffffffff821682146130e157600080fd5b33600160a060020a0381166000908152601e6020908152604091829020859055805460010190557f59470163a7d3423114f115af31707633dd4930abac0f3662fc3c4ef323f39a869190849051600160a060020a03909216825260208201526040908101905180910390a15090565b601b602052600090815260409020805460018201546002830154600384015460048501546005860154600690960154949593949293919290919060ff8082169161010090041688565b600760209081526000928352604080842090915290825290205481565b6000600360008154811015156131c857fe5b906000526020600020906005020160000154905090565b611139816001612b40565b60205481565b601f8054829081106131fe57fe5b600091825260209091206002909102018054600190910154909150600160a060020a0381169060ff740100000000000000000000000000000000000000008204811691750100000000000000000000000000000000000000000081048216917601000000000000000000000000000000000000000000009091041685565b613284614b76565b6000828152600d6020526040812054905b600c548110156132d257818382815181106132ac57fe5b60209081029091018101919091526000928352600d905260409091205490600101613295565b5050919050565b600860209081526000928352604080842090915290825290205481565b600a5433600160a060020a0390811691161461330e57fe5b600a54600160a060020a038281169116141561332957600080fd5b600b805473ffffffffffffffffffffffffffffffffffffffff1916600160a060020a0392909216919091179055565b6000600160a060020a038216151561336f57600080fd5b600160a060020a038316151561338457600080fd5b50600160a060020a03918216600090815260096020908152604080832093909416825291909152205490565b60008060008060006133c28787614925565b93506133cd84613bd7565b92506133d98787614953565b915081831015613440576133ed87856111b1565b7f69186e91a26c2cd1f67397df408ddeb0db9249dbd6e2a428ad8ae0d59ba3bc88878588604051928352602083019190915260ff166040808301919091526060909101905180910390a160019450613657565b600e805460ff881690811061345157fe5b906000526020600020906006020160010154600e8760ff1681548110151561347557fe5b90600052602060002090600602016003015414156134965760009450613657565b61358860006003868154811015156134aa57fe5b90600052602060002090600502016001018054600181600116156101000203166002900480601f01602080910402602001604051908101604052809291908181526020018280546001816001161561010002031660029004801561354f5780601f106135245761010080835404028352916020019161354f565b820191906000526020600020905b81548152906001019060200180831161353257829003601f168201915b505050505060038781548110151561356357fe5b6000918252602090912060026005909202010154600a54600160a060020a0316614984565b905080156136525761359d81600188036133b0565b15613652576135ac87826111b1565b7f69186e91a26c2cd1f67397df408ddeb0db9249dbd6e2a428ad8ae0d59ba3bc88878288604051928352602083019190915260ff166040808301919091526060909101905180910390a180600e8760ff1681548110151561360957fe5b6000918252602090912060046006909202010155600e805460ff881690811061362e57fe5b60009182526020909120600360069092020101805460019081019091559450613657565b600094505b5050505092915050565b600080808080808080881580159061367a575060035489105b151561368557600080fd5b6001600c540360038a81548110151561369a57fe5b9060005260206000209060050201600301541415156136b857600080fd5b6000898152600d602052604090205496508615156136d557600080fd5b6000878152600d602052604090205495508515156136f257600080fd5b6000868152600d6020526040902054945084151561370f57600080fd5b6064600e600281548110151561372157fe5b90600052602060002090600602016005015460038b81548110151561374257fe5b9060005260206000209060050201600001540281151561375e57fe5b04935083151561376d57600080fd5b6064600e600181548110151561377f57fe5b90600052602060002090600602016005015460038b8154811015156137a057fe5b906000526020600020906005020160000154028115156137bc57fe5b0492508215156137cb57600080fd5b6064600e60008154811015156137dd57fe5b90600052602060002090600602016005015460038b8154811015156137fe57fe5b9060005260206000209060050201600001540281151561381a57fe5b04915081151561382957600080fd5b81838560038c81548110151561383b57fe5b6000918252602090912060059091020154030303905080151561385d57600080fd5b8360038881548110151561386d57fe5b9060005260206000209060050201600001540160038881548110151561388f57fe5b600091825260209091206005909102015560038054849190889081106138b157fe5b906000526020600020906005020160000154016003878154811015156138d357fe5b600091825260209091206005909102015560038054839190879081106138f557fe5b9060005260206000209060050201600001540160038681548110151561391757fe5b6000918252602082206005909102019190915560038054839290811061393957fe5b906000526020600020906005020160000154016003600081548110151561395c57fe5b60009182526020822060059091020191909155600380548b90811061397d57fe5b60009182526020909120600590910201557fcfd3c3fcdcb63bcee48ff9a9ec28351afef5ba4fc9b5a8f46d5aa65565a3b1a38983858785604051808681526020018581526020018481526020018381526020018281526020019550505050505060405180910390a150600198975050505050505050565b600090815260046020526040902054600160a060020a0391821691161490565b600091825260066020526040909120805473ffffffffffffffffffffffffffffffffffffffff1916600160a060020a03909216919091179055565b600090815260066020526040902054600160a060020a0391821691161490565b610400600382815481101515613a8157fe5b90600052602060002090600502016004015414151515613a9d57fe5b600160a060020a0380831660008181526005602090815260408083208054600101905585835260049091529020805473ffffffffffffffffffffffffffffffffffffffff19169091179055831615613b3857600160a060020a0383166000908152600560209081526040808320805460001901905583835260069091529020805473ffffffffffffffffffffffffffffffffffffffff191690555b7fddf252ad1be2c89b69c2b068fc378daa952ba7f163c4a11628f55a4df523b3ef838383604051600160a060020a039384168152919092166020820152604080820192909252606001905180910390a1505050565b6000613b97614b76565b6000613ba284613de5565b915081519050801515613bb857600092506132d2565b81600081518110613bc557fe5b90602001906020020151949350505050565b600080808315801590613beb575060035484105b1515613bf657600080fd5b613bfe6112dd565b915060009250600190505b8181116132d2576000818152600d6020526040902054841415613c2d576001909201915b600101613c09565b613c3f83836139f4565b1515613c4a57600080fd5b801515613c5657600080fd5b80600383815481101515613c6657fe5b60009182526020909120600590910201541015613c8257600080fd5b80600383815481101515613c9257fe5b90600052602060002090600502016000015403600383815481101515613cb457fe5b60009182526020909120600590910201557f45dacd427fd388bf162986dbc958cdcf160c31b40efe076907cff377b9857c798383836040518084600160a060020a0316600160a060020a03168152602001838152602001828152602001935050505060405180910390a1505050565b613d2d83836139f4565b1515613d3857600080fd5b801515613d4457600080fd5b80600383815481101515613d5457fe5b90600052602060002090600502016000015401600383815481101515613d7657fe5b60009182526020909120600590910201557f20f4934a3b4928cca0e51f3f1eaac12dee9af151a8a8ba5a424a89d93f6bf53d8383836040518084600160a060020a0316600160a060020a03168152602001838152602001828152602001935050505060405180910390a1505050565b613ded614b76565b6000613df7614b76565b60008080600160a060020a0387161515613e1057600080fd5b613e1987611ab9565b9450841515613e49576000604051805910613e315750595b90808252806020026020018201604052509550613ed0565b84604051805910613e575750595b90808252806020026020018201604052509350613e726112dd565b925060009150600190505b828111613ecc57600081815260046020526040902054600160a060020a0388811691161415613ec45780848380600101945081518110613eb957fe5b602090810290910101525b600101613e7d565b8395505b5050505050919050565b6000828152600d60205260408120548180821515613ef757600080fd5b6000838152600d60205260409020549150811515613f1457600080fd5b506000818152600d6020526040902054801515613f3057600080fd5b6003805484908110613f3e57fe5b60009182526020909120600590910201548511613f5e5760019350611629565b6003805484908110613f6c57fe5b906000526020600020906005020160000154600383815481101515613f8d57fe5b6000918252602090912060059091020154018511613fae5760019350611629565b6003805484908110613fbc57fe5b906000526020600020906005020160000154600383815481101515613fdd57fe5b906000526020600020906005020160000154600383815481101515613ffe57fe5b6000918252602090912060059091020154010185116116295750600195945050505050565b61402b614b88565b60008080851580159061403f575060035486105b151561404a57600080fd5b84151561405657600080fd5b60008085526020808601829052604080870183905260608701839052888352600d909152902054925082151561408b57600080fd5b6000838152600d602052604090205491508115156140a857600080fd5b506000818152600d60205260409020548015156140c457600080fd5b60038054849081106140d257fe5b6000918252602090912060059091020154851161418257604084018581525160038054859081106140ff57fe5b9060005260206000209060050201600001540360038481548110151561412157fe5b60009182526020909120600590910201557f7c6ae15e271230e8f8b92de835be76e504f4bb32c5c02872b19e167d6d100fbf86866002604051928352602083019190915260ff166040808301919091526060909101905180910390a1611629565b600380548490811061419057fe5b9060005260206000209060050201600001546003838154811015156141b157fe5b6000918252602090912060059091020154018511614324577ff5e9c26d6f4f4192de6ab81062e5f90501d77f924b508e44728a2b78d3c12c6d8684876002604051938452602084019290925260408084019190915260ff90911660608301526080909101905180910390a1600380548490811061422a57fe5b6000918252602091829020600590910201546040860190815290850186905251600380548590811061425857fe5b9060005260206000209060050201600001540360038481548110151561427a57fe5b6000918252602090912060059091020155836001602002015160038054849081106142a157fe5b906000526020600020906005020160000154036003838154811015156142c357fe5b60009182526020909120600590910201557f7c6ae15e271230e8f8b92de835be76e504f4bb32c5c02872b19e167d6d100fbf86866001604051928352602083019190915260ff166040808301919091526060909101905180910390a1611629565b600380548490811061433257fe5b90600052602060002090600502016000015460038381548110151561435357fe5b90600052602060002090600502016000015460038381548110151561437457fe5b600091825260209091206005909102015401018511614551577ff5e9c26d6f4f4192de6ab81062e5f90501d77f924b508e44728a2b78d3c12c6d8683876001604051938452602084019290925260408084019190915260ff90911660608301526080909101905180910390a160038054849081106143ee57fe5b60009182526020909120600590910201546040850152600380548390811061441257fe5b600091825260209182902060059091020154908501528484526040840151600380548590811061443e57fe5b9060005260206000209060050201600001540360038481548110151561446057fe5b60009182526020909120600590910201558360016020020151600380548490811061448757fe5b906000526020600020906005020160000154036003838154811015156144a957fe5b6000918252602090912060059091020155835160038054839081106144ca57fe5b906000526020600020906005020160000154036003828154811015156144ec57fe5b9060005260206000209060050201600001819055507f7c6ae15e271230e8f8b92de835be76e504f4bb32c5c02872b19e167d6d100fbf86866000604051928352602083019190915260ff166040808301919091526060909101905180910390a1611629565b7ff5e9c26d6f4f4192de6ab81062e5f90501d77f924b508e44728a2b78d3c12c6d8682876000604051938452602084019290925260408084019190915260ff90911660608301526080909101905180910390a17f95f5c188d1321fe8984cadebc18c8fcaddc6cedbf14ee92f03f318c0e2038485868660405191825260208201526040908101905180910390a150505092915050565b60008061462a8360408051908101604052600c81527f43726f7764737572616e636500000000000000000000000000000000000000006020820152600088614984565b90506101006040519081016040528042815260200160008152602001600f60010154815260200184815260200160008152602001858152602001600060ff1681526020016000600581111561467b57fe5b60ff1690526000828152601b60205260409020815181556020820151816001015560408201518160020155606082015181600301556080820151816004015560a0820151816005015560c082015160068201805460ff191660ff9290921691909117905560e08201516006909101805460ff929092166101000261ff00199092169190911790555061470c81610cd7565b507fbca387acb0ba7d06e329c4372885bb664f19a98153ccf3e74e56c136bf0e88c48582856040518084600160a060020a0316600160a060020a03168152602001838152602001828152602001935050505060405180910390a1600160a060020a0385166000908152601960209081526040808320839055601a90915281205590509392505050565b61479f85856139f4565b15156147aa57600080fd5b6147b483836139f4565b15156147bf57600080fd5b8015156147cb57600080fd5b838214156147d857600080fd5b806003858154811015156147e857fe5b6000918252602090912060059091020154101561480457600080fd5b61040060038581548110151561481657fe5b9060005260206000209060050201600401541415151561483557600080fd5b8060038581548110151561484557fe5b9060005260206000209060050201600001540360038581548110151561486757fe5b6000918252602090912060059091020155600380548291908490811061488957fe5b906000526020600020906005020160000154016003838154811015156148ab57fe5b60009182526020909120600590910201557f6d401b913d27047ecd2042f0331e2354d30e664920b31480dc71955edb996c388585858585604051600160a060020a0395861681526020810194909452919093166040808401919091526060830193909352608082015260a001905180910390a15050505050565b6000600e8260ff1681548110151561493957fe5b906000526020600020906006020160040154905092915050565b60006001600e8360ff1681548110151561496957fe5b90600052602060002090600602016002015403905092915050565b600061498e614cb0565b600060a06040519081016040528088815260200187815260200186815260200160008152602001600081525091506001600380548060010182816149d29190614ce6565b6000928352602090922085916005020181518155602082015181600101908051614a00929160200190614d12565b506040820151816002015560608201518160030155608082015160049091015550039050801515614a9457600160038054806001018281614a419190614ce6565b6000928352602090922085916005020181518155602082015181600101908051614a6f929160200190614d12565b5060408201518160020155606082015181600301556080820151816004015550500390505b63ffffffff81168114614aa657600080fd5b7fdea8e87d69047e1b3cd43ad599d34e3eacfe4408b4dfc5d0f6ac6a15a468de5c8787878760405184815260408101839052600160a060020a038216606082015260806020820181815290820185818151815260200191508051906020019080838360005b83811015614b23578082015183820152602001614b0b565b50505050905090810190601f168015614b505780820380516001836020036101000a031916815260200191505b509550505050505060405180910390a1614b6c60008583613a6f565b9695505050505050565b60206040519081016040526000815290565b60806040519081016040526004815b6000815260200190600190039081614b975790505090565b506000815560010160008155600101600081556001016000815560010160009055565b8260058101928215614c29579160200282015b82811115614c29578251825473ffffffffffffffffffffffffffffffffffffffff1916600160a060020a039190911617825560209290920191600190910190614be5565b506112f4929150614d8c565b50805460008255600202906000526020600020908101906111399190614dbd565b60a0604051908101604090815260008083526020830181905290820181905260608201819052608082015290565b81548183558181151161147d5760020281600202836000526020600020918201910161147d9190614dbd565b60a06040519081016040528060008152602001614ccb614b76565b81526020016000815260200160008152602001600081525090565b81548183558181151161147d5760050281600502836000526020600020918201910161147d9190614df9565b828054600181600116156101000203166002900490600052602060002090601f016020900481019282601f10614d5357805160ff1916838001178555614d80565b82800160010185558215614d80579182015b82811115614d80578251825591602001919060010190614d65565b506112f4929150614e37565b6110b891905b808211156112f457805473ffffffffffffffffffffffffffffffffffffffff19168155600101614d92565b6110b891905b808211156112f4576000815560018101805476ffffffffffffffffffffffffffffffffffffffffffffff19169055600201614dc3565b6110b891905b808211156112f4576000808255614e196001830182614e51565b50600060028201819055600382018190556004820155600501614dff565b6110b891905b808211156112f45760008155600101614e3d565b50805460018160011615610100020316600290046000825580601f10614e775750611139565b601f0160209004906000526020600020908101906111399190614e375600a165627a7a723058207898d2bdc41906c700bd0c7b3af1d499b85d0d9426d379c52d3d2819ec9ad8950029",
  "source": "// \n// MIT License\n// \n// Copyright (c) 2018 REGA Risk Sharing\n//   \n// Permission is hereby granted, free of charge, to any person obtaining a copy\n// of this software and associated documentation files (the \"Software\"), to deal\n// in the Software without restriction, including without limitation the rights\n// to use, copy, modify, merge, publish, distribute, sublicense, and/or sell\n// copies of the Software, and to permit persons to whom the Software is\n// furnished to do so, subject to the following conditions:\n// \n// The above copyright notice and this permission notice shall be included in all\n// copies or substantial portions of the Software.\n// \n// THE SOFTWARE IS PROVIDED \"AS IS\", WITHOUT WARRANTY OF ANY KIND, EXPRESS OR\n// IMPLIED, INCLUDING BUT NOT LIMITED TO THE WARRANTIES OF MERCHANTABILITY,\n// FITNESS FOR A PARTICULAR PURPOSE AND NONINFRINGEMENT. IN NO EVENT SHALL THE\n// AUTHORS OR COPYRIGHT HOLDERS BE LIABLE FOR ANY CLAIM, DAMAGES OR OTHER\n// LIABILITY, WHETHER IN AN ACTION OF CONTRACT, TORT OR OTHERWISE, ARISING FROM,\n// OUT OF OR IN CONNECTION WITH THE SOFTWARE OR THE USE OR OTHER DEALINGS IN THE\n// SOFTWARE.\n// \n// Author: Sergei Sevriugin\n// Version: 0.0.1\n//  \n\npragma solidity ^0.4.17;\n\nimport './TokenPool.sol';\n/// TokenCrowdsurance is ERC721SmartToken for crowdsurance products. \n/// Crowdsurance, meaning people unite in communities to provide a guarantee of compensation for unexpected loss. \n/// Using ERC721SmartToken crowdsurance product can be 'tokenized' and can be availible as ERC20 token.\ncontract TokenCrowdsurance is TokenPool {\n    /// Crowdsurance token ERC721 extention\n    /// @param timeStamp join time stemp\n    /// @param activated coverage activation time stamp\n    /// @param duration crowdsurance coverage duration\n    /// @param amount join amount\n    /// @param paid paid claim amount\n    /// @param score member score\n    /// @param claimNumber number of claims\n    /// @param status crowdsurance status\n    struct Crowdsurance {\n        uint        timeStamp;          // join time stamp\n        uint        activated;          // coverage activation time stamp\n        uint        duration;           // risk coverage duration\n        uint256     amount;             // join amount\n        uint256     paid;               // paid amount\n        uint256     score;              // score\n        uint8       claimNumber;        // number of claims\n        uint8       status;             // crowdsurance status\n    }\n    /// Crowdsurance claim\n    /// @param amount claim amount\n    /// @param timeStamp claim time stamp\n    /// @param duration voting period\n    /// @param positive votes to pay claims\n    /// @param negative votes not to pay\n    /// @param number member number\n    /// @param members\n    struct Request {\n        uint256     amount;             // claim amount\n        uint        timeStamp;          // claim time stamp\n        uint        duration;           // voting duration\n        uint8       positive;           // number of positive votes\n        uint8       negative;           // number of negative votes\n        uint8       number;             // juries number\n        address[5]  members;            // jury members \n    }\n    /// Crowdsurance parameters\n    /// @param joinAmount default join amount\n    /// @param coverageDuration default coverage duration\n    /// @param maxClaimAmount maximum claim amount\n    /// @param maxClaimNumber maximum number of claims\n    /// @param paymentRatio %% from claim to be paid\n    /// @param maxPaymentAmount maximum paid amount for all claims for the covarage\n    /// @param minJuriesNumber minimum number of juries to coint votes\n    /// @param votingDuration duration of jury voting process in sec\n    /// @param juriesNumber default juriesNumber - must correspond with Request members array lenght\n    struct Parameters {\n        uint256     joinAmount;         // default join amount\n        uint        coverageDuration;   // coverage duration\n        uint256     maxClaimAmount;     // max claim amount\n        uint8       maxClaimNumber;     // max claim number for the contract\n        uint8       paymentRatio;       // claim to payment patio\n        uint256     maxPaymentAmount;   // max payment amount for the contract\n        uint8       minJuriesNumber;    // min juries number to count voting \n        uint        votingDuration;     // juries voting duration\n        uint8       juriesNumber;       // number of juries\n        uint256     maxApplications;    // maximum number of unprocessed applications\n        uint256     averageScore;       // avarega score\n    }\n    /// New member application\n    /// @param timeStamp application time stamp\n    /// @param member new member address \n    /// @param tokensToBuys number of tokens to buy\n    /// @param paymetMethod join payment method : 0 - ETH\n    /// @param processed application processing status\n    struct Application {\n        uint        timeStamp;          // application time stamp\n        address     member;             // new member address\n        uint8       tokensToBuy;        // number of tokens to buy\n        uint8       paymetMethod;       // payment method : 0 - ETH\n        bool        processed;          // processing status\n    }\n    /// Crowdsurance parameters\n    Parameters public parameters;\n    mapping (address => uint256) public addressToAmount;            // address to join amount mapping\n    mapping (address => uint256) public addressToScore;             // address to scoring mapping\n    mapping (uint256 => Crowdsurance) public extensions;            // crowdsurance extension mapping\n    mapping (address => uint256) public voters;                     // crowdsurance voting\n    mapping (uint256 => Request) public requests;                   // crowdsurance token Id to Claim\n    mapping (address => uint256) public addressToApplication;       // address to application mapping\n    Application[] public applications;                              // applications\n    uint256 public appNumber;                                       // number of applications to process\n    /// TokenCrowdsurance Apply event\n    /// @param member new member address\n    /// @param appId member appication id\n    event Apply(address member, uint256 appId);\n    /// TokenCrowdsurance Join event\n    /// @param member new member addrsss\n    /// @param id NFT token id for crowdsurance token\n    /// @param amount paid to join\n    event Join(address member, uint256 id, uint256 amount);\n    /// TokenCrowdsurance Scoring event\n    /// @param member new member addrsss\n    /// @param score member scoring\n    /// @param amount join amount\n    event Scoring(address member, uint256 score, uint256 amount);\n    /// TokenCrowdsurance Activate event\n    /// @param id NFT Id to activate\n    /// @param amount acowdsurance join amount\n    /// @param score member scoring\n    event Activate(uint256 id, uint256 amount, uint256 score);\n    /// TokenCrowdsurance Activate event\n    /// @param id NFT Id to activate\n    /// @param claim claim amount\n    /// @param number total claims number incuding this one\n    event Claim(uint256 id, uint256 claim, uint8 number);\n    /// TokenCrowdsurance vote event\n    /// @param jury voter\n    /// @param id NFT token id to vote\n    /// @param positive voting result\n    event Vote(address jury, uint256 id, bool positive);\n    /// TokenCrowdsurance payment event\n    /// @param reciever reciever of the p[ayment\n    /// @param id NFT id for crowdsurance token\n    /// @param amount mayment amount\n    /// @param status payment status (Approved, Rejected, Closed)\n    event Payment(address reciever, uint256 id, uint256 amount, uint8 status);\n    /// FSSF event\n    /// @param member member address\n    /// @param appId application ID\n    event FSSF(address member, uint256 appId);\n    /// TokenCrowdsurance Status\n    enum Status {Init, Active, Claim, Approved, Rejected, Closed}\n    /// scoring function\n    /// @param _member address of the member to score\n    /// @param _score member scoroing result\n    /// @param _amount join amount calculated based on score\n    function scoring(address _member, uint256 _score, uint256 _amount) ownerOnly public {\n        require(_member != address(0));\n        require(_score != uint256(0));\n        require(_amount != uint256(0) && _amount >= parameters.joinAmount);\n        addressToAmount[_member] = _amount;\n        addressToScore[_member] = _score;\n        \n        // clear appication\n        uint256 addId = addressToApplication[_member];\n        if(addId != uint256(0) && addId < applications.length) {\n            applications[addId].processed = true;\n            delete addressToApplication[_member];\n            appNumber--;\n            // if no more applications to process then clear the app array\n            if (appNumber == uint256(0)) {\n                delete applications;\n            }\n        }\n\n        // emit scoring event\n        Scoring(_member, _score, _amount);\n    }\n    function fssf() ownerOnly public {\n        address member;\n        uint256 appId;\n\n        (member, appId) = getApplication();\n\n        if(member != address(0) && appId != uint256(0)) {\n            scoring(member, parameters.averageScore, parameters.joinAmount);\n            // emit FSSF event\n            FSSF(member, appId);\n        }\n    }\n    /// get next application to process\n    function getApplication() view public returns (address member, uint256 appId) {\n        member = address(0);\n        appId = uint256(0);\n\n        if(appNumber == uint256(0)) {\n            return;\n        }\n\n        for(uint256 i = 1; i < applications.length; i++) {\n            if(!applications[i].processed) {\n                member = applications[i].member;\n                appId = i;\n                return;\n            }\n        }\n    }\n    /// get join amount for sender\n    function getJoinAmount() view public returns (uint256 amount) {\n        amount = addressToAmount[msg.sender];\n    }\n    /// get score\n    function getScore() view public returns (uint256 score) {\n        score = addressToScore[msg.sender];\n    }\n    /// get application ID\n    function getAppID() view public returns (uint256 appId) {\n        appId = addressToApplication[msg.sender];\n    }\n    /// apply function \n    /// @return application ID must be not zero if application is accepted \n    function apply() public returns(uint256 addId) {\n        addId = addressToApplication[msg.sender];\n\n        if (addId == uint256(0) && appNumber < parameters.maxApplications) {\n            // new application\n            Application memory app = Application({\n                timeStamp: now,\n                member: msg.sender,\n                tokensToBuy: uint8(1),\n                paymetMethod: uint8(0),\n                processed: false\n            });\n            \n            addId = applications.push(app) - 1;\n            if(addId == uint256(0)) {\n                // process the first one -- keep 0 index reserved\n                addId = applications.push(app) - 1;\n            }\n            require(addId == uint256(uint32(addId)));\n            addressToApplication[msg.sender] = addId;\n            appNumber++;\n\n            // emit Apply event\n            Apply(msg.sender, addId);\n        }\n    }\n    function _join(address _member, uint256 _score, uint256 _amount) internal returns(uint256) {\n        uint256 id = _createNFT(_amount, \"Crowdsurance\", uint256(0), _member);\n        // Create extension \n        extensions[id] = Crowdsurance ({\n            timeStamp: now,\n            activated: uint(0),\n            duration: parameters.coverageDuration,\n            amount: _amount,\n            paid: uint256(0),\n            score: _score,\n            claimNumber: uint8(0),\n            status: uint8(Status.Init)\n        });\n        // now insert in the pool\n        insertPool(id);\n        // emit event \n        Join(_member, id, _amount);\n        // clear mapping\n        delete addressToAmount[_member];\n        delete addressToScore[_member];\n        \n        // return NFT token ID\n        return id;\n    } \n    /// join function\n    /// @return cowdsuranceId NFT token ID for created crowdsurance\n    function join() public payable returns(uint256 crowdsuranceId) {\n        uint256 amount = msg.value;\n        address member = msg.sender;\n        uint256 score = addressToScore[member];\n        require(amount != uint256(0) && amount >= parameters.joinAmount);\n        require(score != uint256(0));\n        require(amount == addressToAmount[member]);\n        // call internal _join after all checkups \n        crowdsuranceId = _join(member, score, amount);\n    }\n    /// activate function \n    /// @param _id NFT token ID to activate\n    function activate(uint256 _id) public {\n        require(_id != uint256(0));\n        require(_owns(msg.sender, _id));\n        require(extensions[_id].amount != uint256(0));\n        require(extensions[_id].status != uint8(Status.Active));        // protect multiple activation that extend coverage\n\n        nfts[_id].state = StateBlocked; // block transfer\n        extensions[_id].status = uint8(Status.Active);\n        extensions[_id].activated = now;\n        // emit event\n        Activate(_id, extensions[_id].amount, extensions[_id].score);\n    }\n    /// claim function\n    /// @param _id NFT token ID to claim payment \n    /// @param _claim claim amount\n    function claim(uint256 _id, uint256 _claim) public returns(bool) {\n        // check all conditions before accept the claim\n        require(_id != uint256(0));\n        require(_owns(msg.sender, _id));\n        require(_claim != uint256(0));\n        require(extensions[_id].status == uint(Status.Active));\n        require(extensions[_id].claimNumber < parameters.maxClaimNumber);\n        uint256 _payment = _claim * parameters.paymentRatio / 100;\n        require((extensions[_id].paid + _payment) <= parameters.maxPaymentAmount);\n        uint coverageEnd = extensions[_id].activated + extensions[_id].duration;\n        require(coverageEnd >= now);\n        // now ready to accept the claim request\n        // change status\n        requests[_id] = Request ({\n            amount: _claim,\n            timeStamp: now,\n            duration: parameters.votingDuration,\n            positive: uint8(0),\n            negative: uint8(0),\n            number: uint8(0),\n            members: [address(0), address(0), address(0), address(0), address(0)]\n        });\n        extensions[_id].claimNumber++;\n        extensions[_id].status = uint8(Status.Claim);\n        // emit event\n        Claim(_id, _claim, extensions[_id].claimNumber);\n        return true;\n    }\n    /// add voter function\n    /// @param _jury voter address\n    /// @param _id NFT id for claim voting \n    function addVoter(address _jury, uint256 _id) ownerOnly public {\n        require(_jury != address(0));\n        require(_id != uint256(0));\n        require(extensions[_id].status == uint(Status.Claim));\n        Request storage _request = requests[_id];\n        require(_request.amount != uint256(0));\n        uint votingEnd = _request.timeStamp + _request.duration;\n        require(votingEnd >= now);\n        uint8 _number = _request.number;\n        require(_number < parameters.juriesNumber);\n\n        _request.members[_number] = _jury;\n        _request.number++;\n        voters[_jury] = _id;\n    }\n    /// vote function\n    /// @param _id NFT id for claim voting\n    /// @param _positive true if positive to pay claims\n    function vote(uint256 _id, bool _positive) public {\n        require(_id != uint256(0));\n        require(_id == voters[msg.sender]);\n        require(extensions[_id].status == uint8(Status.Claim));\n        Request storage _request = requests[_id];\n        uint votingEnd = _request.timeStamp + _request.duration;\n        require(votingEnd >= now);\n\n        if(_positive) {\n            _request.positive++;\n        } else {\n            _request.negative++;\n        }\n        delete voters[msg.sender]; // deliting prevent the second time voting\n        // emit event\n        Vote(msg.sender, _id, _positive);\n    }\n    /// helpers voting \n    function castPositive(uint256 _id) public {\n        vote(_id, true);\n    }\n    function castNegative(uint256 _id) public {\n        vote(_id, false);\n    }\n    /// check claim voting status\n    /// @param _id NFT token to check\n    function votingStatus(uint256 _id) public view returns (bool votingEnded, uint8 positive, uint8 negative) {\n        require(_id != uint256(0));\n        require(extensions[_id].status == uint(Status.Claim));\n        Request storage _request = requests[_id];\n        uint votingEnd = _request.timeStamp + _request.duration;\n        votingEnded = votingEnd <= now;\n        positive = _request.positive;\n        negative = _request.negative;\n    }\n    /// get payment function\n    /// @param _id NFT token to get payment\n    function payment(uint256 _id) public {\n        require(_id != uint256(0));\n        require(_owns(msg.sender, _id));\n        require(extensions[_id].status == uint(Status.Claim));\n        Request storage _request = requests[_id];\n        uint votingEnd = _request.timeStamp + _request.duration;\n        require(votingEnd <= now || (_request.positive + _request.negative) == parameters.juriesNumber);\n        uint256 _payment = _request.amount * parameters.paymentRatio / 100;\n        if(_request.positive > _request.negative && _checkPayment(_id, _payment)) {\n            // pay claims\n            msg.sender.transfer(_payment);\n            extensions[_id].status = uint8(Status.Approved);\n            extensions[_id].paid = extensions[_id].paid + _payment;\n            // update pools' balances\n            _payValue(_id, _payment);\n            // emit event\n            Payment(msg.sender, _id, _payment, uint8(Status.Approved));\n        } else if   ((_request.positive == _request.negative || \n                    (_request.positive + _request.negative) < parameters.minJuriesNumber )\n                    && _checkPayment(_id, extensions[_id].amount)) {\n            // pay back join amount\n            msg.sender.transfer(extensions[_id].amount);\n            extensions[_id].status = uint8(Status.Closed);\n            extensions[_id].paid = extensions[_id].paid + extensions[_id].amount;\n             // update pools' balances\n            _payValue(_id, extensions[_id].amount);\n            // emit event\n            Payment(msg.sender, _id, extensions[_id].amount, uint8(Status.Closed));\n        } else {\n            // no payment\n            extensions[_id].status = uint8(Status.Rejected);\n            // emit event\n            Payment(msg.sender, _id, uint256(0), uint8(Status.Rejected));\n        }\n        // now time to clean voting enviroment\n        for(uint i; i < _request.number; i++) {\n            delete voters[_request.members[i]];\n        }\n        delete requests[_id];\n    }\n    /// status count function\n    /// @param _member address of token owner\n    /// @param _status status to check\n    function statusCount(address _member, uint8 _status) view public returns (uint256 count) {\n        uint256[] memory tokenIds = _tokensOfOwner(_member);\n        count = uint256(0);\n\n        for (uint256 i = 0; i < tokenIds.length; i++) {\n            if (extensions[tokenIds[i]].status == _status) {\n                count++;\n            }\n        }\n    }\n    function TokenCrowdsurance(string _name, string _symbol) TokenPool(_name, _symbol) public {\n        // setup default crowdsurance product parameters\n        parameters.joinAmount = 0.1 ether;                  // default join amount\n        parameters.coverageDuration = 0.5 years;            // coverage duration in sec\n        parameters.maxClaimAmount = 10 ether;               // max claim amount\n        parameters.maxClaimNumber = 1;                      // max claim number for the contract\n        parameters.paymentRatio = 80;                       // claim to payment patio\n        parameters.maxPaymentAmount = 10 ether;             // max payment amount for the contract\n        parameters.minJuriesNumber = 3;                     // min juries number to count voting \n        parameters.votingDuration = 2 days;                 // juries voting duration in sec\n        parameters.juriesNumber = 5;                        // juries number -- not more than 5\n        parameters.maxApplications = 10;                    // max number of unprocessed applications\n        parameters.averageScore = 100;                      // average score value\n        appNumber = 0;\n    }\n    function() public payable { }                           //  fallback function to get Ether on contract account\n}",
  "sourcePath": "/Users/sergei/LuggageCrowdsurance/contracts/TokenCrowdsurance.sol",
  "compiler": {
    "name": "solc",
    "version": "0.4.18+commit.9cf6e910.Emscripten.clang"
  },
  "schemaVersion": "1.0.1",
  "updatedAt": "2018-05-17T07:17:23.886Z"
}