{
  "contractName": "TokenContainer",
  "abi": [
    {
      "constant": true,
      "inputs": [
        {
          "name": "_interfaceID",
          "type": "bytes4"
        }
      ],
      "name": "supportsInterface",
      "outputs": [
        {
          "name": "",
          "type": "bool"
        }
      ],
      "payable": false,
      "stateMutability": "view",
      "type": "function"
    },
    {
      "constant": true,
      "inputs": [],
      "name": "name",
      "outputs": [
        {
          "name": "",
          "type": "string"
        }
      ],
      "payable": false,
      "stateMutability": "view",
      "type": "function"
    },
    {
      "constant": false,
      "inputs": [
        {
          "name": "_to",
          "type": "address"
        },
        {
          "name": "_tokenId",
          "type": "uint256"
        }
      ],
      "name": "approve",
      "outputs": [],
      "payable": false,
      "stateMutability": "nonpayable",
      "type": "function"
    },
    {
      "constant": false,
      "inputs": [
        {
          "name": "_nodeId",
          "type": "uint256"
        },
        {
          "name": "_parentId",
          "type": "uint256"
        }
      ],
      "name": "addToken",
      "outputs": [],
      "payable": false,
      "stateMutability": "nonpayable",
      "type": "function"
    },
    {
      "constant": true,
      "inputs": [],
      "name": "totalSupply",
      "outputs": [
        {
          "name": "",
          "type": "uint256"
        }
      ],
      "payable": false,
      "stateMutability": "view",
      "type": "function"
    },
    {
      "constant": true,
      "inputs": [
        {
          "name": "",
          "type": "uint256"
        }
      ],
      "name": "tokenIndexToOwner",
      "outputs": [
        {
          "name": "",
          "type": "address"
        }
      ],
      "payable": false,
      "stateMutability": "view",
      "type": "function"
    },
    {
      "constant": false,
      "inputs": [
        {
          "name": "_from",
          "type": "address"
        },
        {
          "name": "_to",
          "type": "address"
        },
        {
          "name": "_tokenId",
          "type": "uint256"
        }
      ],
      "name": "transferFrom",
      "outputs": [],
      "payable": false,
      "stateMutability": "nonpayable",
      "type": "function"
    },
    {
      "constant": false,
      "inputs": [
        {
          "name": "_to",
          "type": "address"
        },
        {
          "name": "_toId",
          "type": "uint256"
        },
        {
          "name": "_level",
          "type": "uint256"
        }
      ],
      "name": "setLevel",
      "outputs": [],
      "payable": false,
      "stateMutability": "nonpayable",
      "type": "function"
    },
    {
      "constant": false,
      "inputs": [
        {
          "name": "_spender",
          "type": "address"
        },
        {
          "name": "_value",
          "type": "uint256"
        }
      ],
      "name": "cApprove",
      "outputs": [
        {
          "name": "success",
          "type": "bool"
        }
      ],
      "payable": false,
      "stateMutability": "nonpayable",
      "type": "function"
    },
    {
      "constant": false,
      "inputs": [
        {
          "name": "_nodeId",
          "type": "uint256"
        }
      ],
      "name": "removeToken",
      "outputs": [],
      "payable": false,
      "stateMutability": "nonpayable",
      "type": "function"
    },
    {
      "constant": false,
      "inputs": [
        {
          "name": "_to",
          "type": "address"
        },
        {
          "name": "_toId",
          "type": "uint256"
        }
      ],
      "name": "increaseLevel",
      "outputs": [],
      "payable": false,
      "stateMutability": "nonpayable",
      "type": "function"
    },
    {
      "constant": false,
      "inputs": [
        {
          "name": "_from",
          "type": "address"
        },
        {
          "name": "_fromId",
          "type": "uint256"
        },
        {
          "name": "_amount",
          "type": "uint256"
        }
      ],
      "name": "cDestroy",
      "outputs": [],
      "payable": false,
      "stateMutability": "nonpayable",
      "type": "function"
    },
    {
      "constant": false,
      "inputs": [
        {
          "name": "_to",
          "type": "address"
        },
        {
          "name": "_toId",
          "type": "uint256"
        },
        {
          "name": "_amount",
          "type": "uint256"
        }
      ],
      "name": "cIssue",
      "outputs": [],
      "payable": false,
      "stateMutability": "nonpayable",
      "type": "function"
    },
    {
      "constant": true,
      "inputs": [
        {
          "name": "_tokenId",
          "type": "uint256"
        }
      ],
      "name": "ownerOf",
      "outputs": [
        {
          "name": "",
          "type": "address"
        }
      ],
      "payable": false,
      "stateMutability": "view",
      "type": "function"
    },
    {
      "constant": false,
      "inputs": [
        {
          "name": "_to",
          "type": "address"
        },
        {
          "name": "_value",
          "type": "uint256"
        }
      ],
      "name": "cTransfer",
      "outputs": [
        {
          "name": "success",
          "type": "bool"
        }
      ],
      "payable": false,
      "stateMutability": "nonpayable",
      "type": "function"
    },
    {
      "constant": true,
      "inputs": [
        {
          "name": "_tokenId",
          "type": "uint256"
        }
      ],
      "name": "tokenMetadata",
      "outputs": [
        {
          "name": "infoUrl",
          "type": "string"
        }
      ],
      "payable": false,
      "stateMutability": "view",
      "type": "function"
    },
    {
      "constant": true,
      "inputs": [
        {
          "name": "_owner",
          "type": "address"
        }
      ],
      "name": "balanceOf",
      "outputs": [
        {
          "name": "count",
          "type": "uint256"
        }
      ],
      "payable": false,
      "stateMutability": "view",
      "type": "function"
    },
    {
      "constant": false,
      "inputs": [],
      "name": "acceptOwnership",
      "outputs": [],
      "payable": false,
      "stateMutability": "nonpayable",
      "type": "function"
    },
    {
      "constant": true,
      "inputs": [
        {
          "name": "_owner",
          "type": "address"
        }
      ],
      "name": "tokensOfOwner",
      "outputs": [
        {
          "name": "ownerTokens",
          "type": "uint256[]"
        }
      ],
      "payable": false,
      "stateMutability": "view",
      "type": "function"
    },
    {
      "constant": true,
      "inputs": [],
      "name": "owner",
      "outputs": [
        {
          "name": "",
          "type": "address"
        }
      ],
      "payable": false,
      "stateMutability": "view",
      "type": "function"
    },
    {
      "constant": true,
      "inputs": [],
      "name": "cTotalSupply",
      "outputs": [
        {
          "name": "",
          "type": "uint256"
        }
      ],
      "payable": false,
      "stateMutability": "view",
      "type": "function"
    },
    {
      "constant": true,
      "inputs": [],
      "name": "symbol",
      "outputs": [
        {
          "name": "",
          "type": "string"
        }
      ],
      "payable": false,
      "stateMutability": "view",
      "type": "function"
    },
    {
      "constant": false,
      "inputs": [
        {
          "name": "_fromId",
          "type": "uint256"
        },
        {
          "name": "_spender",
          "type": "address"
        },
        {
          "name": "_toId",
          "type": "uint256"
        },
        {
          "name": "_value",
          "type": "uint256"
        }
      ],
      "name": "cApproveFrom",
      "outputs": [
        {
          "name": "success",
          "type": "bool"
        }
      ],
      "payable": false,
      "stateMutability": "nonpayable",
      "type": "function"
    },
    {
      "constant": true,
      "inputs": [
        {
          "name": "",
          "type": "uint256"
        }
      ],
      "name": "tokenIndexToPoolToken",
      "outputs": [
        {
          "name": "",
          "type": "uint256"
        }
      ],
      "payable": false,
      "stateMutability": "view",
      "type": "function"
    },
    {
      "constant": true,
      "inputs": [
        {
          "name": "",
          "type": "uint256"
        }
      ],
      "name": "tokenIndexToApproved",
      "outputs": [
        {
          "name": "",
          "type": "address"
        }
      ],
      "payable": false,
      "stateMutability": "view",
      "type": "function"
    },
    {
      "constant": false,
      "inputs": [
        {
          "name": "_to",
          "type": "address"
        },
        {
          "name": "_tokenId",
          "type": "uint256"
        }
      ],
      "name": "transfer",
      "outputs": [],
      "payable": false,
      "stateMutability": "nonpayable",
      "type": "function"
    },
    {
      "constant": true,
      "inputs": [
        {
          "name": "_to",
          "type": "address"
        },
        {
          "name": "_toId",
          "type": "uint256"
        }
      ],
      "name": "getLevel",
      "outputs": [
        {
          "name": "",
          "type": "uint256"
        }
      ],
      "payable": false,
      "stateMutability": "view",
      "type": "function"
    },
    {
      "constant": true,
      "inputs": [
        {
          "name": "_owner",
          "type": "address"
        }
      ],
      "name": "cBalanceOf",
      "outputs": [
        {
          "name": "",
          "type": "uint256"
        }
      ],
      "payable": false,
      "stateMutability": "view",
      "type": "function"
    },
    {
      "constant": false,
      "inputs": [
        {
          "name": "_from",
          "type": "address"
        },
        {
          "name": "_to",
          "type": "address"
        },
        {
          "name": "_value",
          "type": "uint256"
        }
      ],
      "name": "cTransferFrom",
      "outputs": [
        {
          "name": "success",
          "type": "bool"
        }
      ],
      "payable": false,
      "stateMutability": "nonpayable",
      "type": "function"
    },
    {
      "constant": true,
      "inputs": [
        {
          "name": "_tokenId",
          "type": "uint256"
        }
      ],
      "name": "valueOf",
      "outputs": [
        {
          "name": "value",
          "type": "uint256"
        }
      ],
      "payable": false,
      "stateMutability": "view",
      "type": "function"
    },
    {
      "constant": true,
      "inputs": [
        {
          "name": "",
          "type": "address"
        },
        {
          "name": "",
          "type": "address"
        }
      ],
      "name": "allowanceAmt",
      "outputs": [
        {
          "name": "",
          "type": "uint256"
        }
      ],
      "payable": false,
      "stateMutability": "view",
      "type": "function"
    },
    {
      "constant": true,
      "inputs": [],
      "name": "maxLevel",
      "outputs": [
        {
          "name": "",
          "type": "uint256"
        }
      ],
      "payable": false,
      "stateMutability": "view",
      "type": "function"
    },
    {
      "constant": true,
      "inputs": [],
      "name": "newOwner",
      "outputs": [
        {
          "name": "",
          "type": "address"
        }
      ],
      "payable": false,
      "stateMutability": "view",
      "type": "function"
    },
    {
      "constant": true,
      "inputs": [
        {
          "name": "",
          "type": "address"
        },
        {
          "name": "",
          "type": "address"
        }
      ],
      "name": "allowance",
      "outputs": [
        {
          "name": "",
          "type": "uint256"
        }
      ],
      "payable": false,
      "stateMutability": "view",
      "type": "function"
    },
    {
      "constant": true,
      "inputs": [
        {
          "name": "_nodeId",
          "type": "uint256"
        }
      ],
      "name": "getPath",
      "outputs": [
        {
          "name": "path",
          "type": "uint256[]"
        }
      ],
      "payable": false,
      "stateMutability": "view",
      "type": "function"
    },
    {
      "constant": true,
      "inputs": [
        {
          "name": "",
          "type": "address"
        },
        {
          "name": "",
          "type": "address"
        }
      ],
      "name": "allowanceIds",
      "outputs": [
        {
          "name": "",
          "type": "uint256"
        }
      ],
      "payable": false,
      "stateMutability": "view",
      "type": "function"
    },
    {
      "constant": false,
      "inputs": [
        {
          "name": "_newOwner",
          "type": "address"
        }
      ],
      "name": "transferOwnership",
      "outputs": [],
      "payable": false,
      "stateMutability": "nonpayable",
      "type": "function"
    },
    {
      "constant": true,
      "inputs": [
        {
          "name": "_owner",
          "type": "address"
        },
        {
          "name": "_spender",
          "type": "address"
        }
      ],
      "name": "cAllowance",
      "outputs": [
        {
          "name": "",
          "type": "uint256"
        }
      ],
      "payable": false,
      "stateMutability": "view",
      "type": "function"
    },
    {
      "inputs": [
        {
          "name": "_name",
          "type": "string"
        },
        {
          "name": "_symbol",
          "type": "string"
        }
      ],
      "payable": false,
      "stateMutability": "nonpayable",
      "type": "constructor"
    },
    {
      "anonymous": false,
      "inputs": [
        {
          "indexed": false,
          "name": "nodeId",
          "type": "uint256"
        },
        {
          "indexed": false,
          "name": "parentId",
          "type": "uint256"
        },
        {
          "indexed": false,
          "name": "level",
          "type": "uint256"
        }
      ],
      "name": "AddToken",
      "type": "event"
    },
    {
      "anonymous": false,
      "inputs": [
        {
          "indexed": false,
          "name": "nodeId",
          "type": "uint256"
        },
        {
          "indexed": false,
          "name": "level",
          "type": "uint256"
        }
      ],
      "name": "RemoveToken",
      "type": "event"
    },
    {
      "anonymous": false,
      "inputs": [
        {
          "indexed": false,
          "name": "from",
          "type": "address"
        },
        {
          "indexed": false,
          "name": "fromId",
          "type": "uint256"
        },
        {
          "indexed": false,
          "name": "to",
          "type": "address"
        },
        {
          "indexed": false,
          "name": "toId",
          "type": "uint256"
        },
        {
          "indexed": false,
          "name": "value",
          "type": "uint256"
        }
      ],
      "name": "Transfer",
      "type": "event"
    },
    {
      "anonymous": false,
      "inputs": [
        {
          "indexed": false,
          "name": "to",
          "type": "address"
        },
        {
          "indexed": false,
          "name": "toId",
          "type": "uint256"
        },
        {
          "indexed": false,
          "name": "value",
          "type": "uint256"
        }
      ],
      "name": "AddValue",
      "type": "event"
    },
    {
      "anonymous": false,
      "inputs": [
        {
          "indexed": false,
          "name": "from",
          "type": "address"
        },
        {
          "indexed": false,
          "name": "fromId",
          "type": "uint256"
        },
        {
          "indexed": false,
          "name": "value",
          "type": "uint256"
        }
      ],
      "name": "RemoveValue",
      "type": "event"
    },
    {
      "anonymous": false,
      "inputs": [
        {
          "indexed": false,
          "name": "to",
          "type": "address"
        },
        {
          "indexed": false,
          "name": "toId",
          "type": "uint256"
        },
        {
          "indexed": false,
          "name": "level",
          "type": "uint256"
        }
      ],
      "name": "SetLevel",
      "type": "event"
    },
    {
      "anonymous": false,
      "inputs": [
        {
          "indexed": false,
          "name": "to",
          "type": "address"
        },
        {
          "indexed": false,
          "name": "toId",
          "type": "uint256"
        }
      ],
      "name": "IncreaseLevel",
      "type": "event"
    },
    {
      "anonymous": false,
      "inputs": [
        {
          "indexed": true,
          "name": "_prevOwner",
          "type": "address"
        },
        {
          "indexed": true,
          "name": "_newOwner",
          "type": "address"
        }
      ],
      "name": "OwnerUpdate",
      "type": "event"
    },
    {
      "anonymous": false,
      "inputs": [
        {
          "indexed": false,
          "name": "fromId",
          "type": "uint256"
        },
        {
          "indexed": false,
          "name": "spender",
          "type": "address"
        },
        {
          "indexed": false,
          "name": "toId",
          "type": "uint256"
        },
        {
          "indexed": false,
          "name": "value",
          "type": "uint256"
        }
      ],
      "name": "CApproveFrom",
      "type": "event"
    },
    {
      "anonymous": false,
      "inputs": [
        {
          "indexed": false,
          "name": "spender",
          "type": "address"
        },
        {
          "indexed": false,
          "name": "value",
          "type": "uint256"
        }
      ],
      "name": "CApprove",
      "type": "event"
    },
    {
      "anonymous": false,
      "inputs": [
        {
          "indexed": false,
          "name": "from",
          "type": "address"
        },
        {
          "indexed": false,
          "name": "fromId",
          "type": "uint256"
        },
        {
          "indexed": false,
          "name": "to",
          "type": "address"
        },
        {
          "indexed": false,
          "name": "toId",
          "type": "uint256"
        },
        {
          "indexed": false,
          "name": "value",
          "type": "uint256"
        },
        {
          "indexed": false,
          "name": "allowance",
          "type": "uint256"
        }
      ],
      "name": "CTransferFrom",
      "type": "event"
    },
    {
      "anonymous": false,
      "inputs": [
        {
          "indexed": false,
          "name": "to",
          "type": "address"
        },
        {
          "indexed": false,
          "name": "toId",
          "type": "uint256"
        },
        {
          "indexed": false,
          "name": "amount",
          "type": "uint256"
        }
      ],
      "name": "CIssue",
      "type": "event"
    },
    {
      "anonymous": false,
      "inputs": [
        {
          "indexed": false,
          "name": "from",
          "type": "address"
        },
        {
          "indexed": false,
          "name": "fromId",
          "type": "uint256"
        },
        {
          "indexed": false,
          "name": "amount",
          "type": "uint256"
        }
      ],
      "name": "CDestroy",
      "type": "event"
    },
    {
      "anonymous": false,
      "inputs": [
        {
          "indexed": false,
          "name": "from",
          "type": "address"
        },
        {
          "indexed": false,
          "name": "to",
          "type": "address"
        },
        {
          "indexed": false,
          "name": "tokenId",
          "type": "uint256"
        }
      ],
      "name": "Transfer",
      "type": "event"
    },
    {
      "anonymous": false,
      "inputs": [
        {
          "indexed": false,
          "name": "owner",
          "type": "address"
        },
        {
          "indexed": false,
          "name": "approved",
          "type": "address"
        },
        {
          "indexed": false,
          "name": "tokenId",
          "type": "uint256"
        }
      ],
      "name": "Approval",
      "type": "event"
    },
    {
      "anonymous": false,
      "inputs": [
        {
          "indexed": false,
          "name": "value",
          "type": "uint256"
        },
        {
          "indexed": false,
          "name": "metadata",
          "type": "string"
        },
        {
          "indexed": false,
          "name": "kind",
          "type": "uint256"
        },
        {
          "indexed": false,
          "name": "owner",
          "type": "address"
        }
      ],
      "name": "Birth",
      "type": "event"
    }
  ],
  "bytecode": "0x606060405234156200001057600080fd5b604051620021ed380380620021ed8339810160405280805182019190602001805160028054600160a060020a03191633600160a060020a03161790559190910190508181818160008280516200006b929160200190620000af565b50600181805162000081929160200190620000af565b5050600a8054600160a060020a03191633600160a060020a031617905550506004600c555062000154915050565b828054600181600116156101000203166002900490600052602060002090601f016020900481019282601f10620000f257805160ff191683800117855562000122565b8280016001018555821562000122579182015b828111156200012257825182559160200191906001019062000105565b506200013092915062000134565b5090565b6200015191905b808211156200013057600081556001016200013b565b90565b61208980620001646000396000f3006060604052600436106101d75763ffffffff7c010000000000000000000000000000000000000000000000000000000060003504166301ffc9a781146101dc57806306fdde0314610228578063095ea7b3146102b257806317b9ebec146102d657806318160ddd146102ef5780631d36e06c1461031457806323b872dd14610346578063296250051461036e57806332c4ee831461039357806336c5d724146103b557806339e6cdb1146103cb5780634cabcfac146103ed578063545c3d55146104125780636352211e1461043757806366d80ba51461044d5780636914db601461046f57806370a082311461048557806379ba5097146104a45780638462151c146104b75780638da5cb5b146105295780638f1fc77c1461053c57806395d89b411461054f57806398dc5c95146105625780639ca088311461058a578063a8bd9c32146105a0578063a9059cbb146105b6578063b121f2ac146105d8578063b1357079146105fa578063bf62266514610619578063cadf338f14610641578063cbbc9f8914610657578063cc06c3591461067c578063d4ee1d901461068f578063dd62ed3e146106a2578063e1765073146106c7578063e527cc9d146106dd578063f2fde38b14610702578063f81fd7ea14610721575b600080fd5b34156101e757600080fd5b6102147fffffffff0000000000000000000000000000000000000000000000000000000060043516610746565b604051901515815260200160405180910390f35b341561023357600080fd5b61023b610a1f565b60405160208082528190810183818151815260200191508051906020019080838360005b8381101561027757808201518382015260200161025f565b50505050905090810190601f1680156102a45780820380516001836020036101000a031916815260200191505b509250505060405180910390f35b34156102bd57600080fd5b6102d4600160a060020a0360043516602435610ac7565b005b34156102e157600080fd5b6102d4600435602435610b3a565b34156102fa57600080fd5b610302610c66565b60405190815260200160405180910390f35b341561031f57600080fd5b61032a600435610c7e565b604051600160a060020a03909116815260200160405180910390f35b341561035157600080fd5b6102d4600160a060020a0360043581169060243516604435610c99565b341561037957600080fd5b6102d4600160a060020a0360043516602435604435610d09565b341561039e57600080fd5b610214600160a060020a0360043516602435610db9565b34156103c057600080fd5b6102d4600435610eb7565b34156103d657600080fd5b6102d4600160a060020a0360043516602435610f58565b34156103f857600080fd5b6102d4600160a060020a0360043516602435604435611014565b341561041d57600080fd5b6102d4600160a060020a03600435166024356044356110c2565b341561044257600080fd5b61032a600435611170565b341561045857600080fd5b610214600160a060020a0360043516602435611194565b341561047a57600080fd5b61023b6004356111cd565b341561049057600080fd5b610302600160a060020a0360043516611294565b34156104af57600080fd5b6102d46112af565b34156104c257600080fd5b6104d6600160a060020a036004351661133d565b60405160208082528190810183818151815260200191508051906020019060200280838360005b838110156105155780820151838201526020016104fd565b505050509050019250505060405180910390f35b341561053457600080fd5b61032a61134e565b341561054757600080fd5b61030261135d565b341561055a57600080fd5b61023b6113a4565b341561056d57600080fd5b610214600435600160a060020a0360243516604435606435611417565b341561059557600080fd5b610302600435611512565b34156105ab57600080fd5b61032a600435611524565b34156105c157600080fd5b6102d4600160a060020a036004351660243561153f565b34156105e357600080fd5b610302600160a060020a0360043516602435611599565b341561060557600080fd5b610302600160a060020a03600435166115d8565b341561062457600080fd5b610214600160a060020a0360043581169060243516604435611651565b341561064c57600080fd5b610302600435611828565b341561066257600080fd5b610302600160a060020a0360043581169060243516611852565b341561068757600080fd5b61030261186f565b341561069a57600080fd5b61032a611875565b34156106ad57600080fd5b610302600160a060020a0360043581169060243516611884565b34156106d257600080fd5b6104d66004356118a1565b34156106e857600080fd5b610302600160a060020a03600435811690602435166118fe565b341561070d57600080fd5b6102d4600160a060020a036004351661191b565b341561072c57600080fd5b610302600160a060020a036004358116906024351661197d565b60006040517f737570706f727473496e74657266616365286279746573342900000000000000815260190160405180910390207bffffffffffffffffffffffffffffffffffffffffffffffffffffffff1916827bffffffffffffffffffffffffffffffffffffffffffffffffffffffff19161480610a1957506040517f746f6b656e4d657461646174612875696e743235362c737472696e67290000008152601d0160405180910390206040517f746f6b656e734f664f776e657228616464726573732900000000000000000000815260160160405180910390206040517f7472616e7366657246726f6d28616464726573732c616464726573732c75696e81527f7432353629000000000000000000000000000000000000000000000000000000602082015260250160405180910390206040517f7472616e7366657228616464726573732c75696e743235362900000000000000815260190160405180910390206040517f617070726f766528616464726573732c75696e74323536290000000000000000815260180160405180910390206040517f6f776e65724f662875696e743235362900000000000000000000000000000000815260100160405180910390206040517f62616c616e63654f662861646472657373290000000000000000000000000000815260120160405180910390206040517f746f74616c537570706c792829000000000000000000000000000000000000008152600d0160405180910390206040517f73796d626f6c2829000000000000000000000000000000000000000000000000815260080160405180910390206040517f6e616d6528290000000000000000000000000000000000000000000000000000815260060160405180910390201818181818181818187bffffffffffffffffffffffffffffffffffffffffffffffffffffffff1916827bffffffffffffffffffffffffffffffffffffffffffffffffffffffff1916145b92915050565b610a2761204b565b60008054600181600116156101000203166002900480601f016020809104026020016040519081016040528092919081815260200182805460018160011615610100020316600290048015610abd5780601f10610a9257610100808354040283529160200191610abd565b820191906000526020600020905b815481529060010190602001808311610aa057829003601f168201915b5050505050905090565b610ad133826119d5565b1515610adc57600080fd5b610ae681836119f5565b7f8c5be1e5ebec7d5bd14f71427d1e84f3dd0314c0f7b2291e5b200ac8c7c3b925338383604051600160a060020a039384168152919092166020820152604080820192909252606001905180910390a15050565b8115801590610b4a575060035482105b1515610b5557600080fd5b8015801590610b65575060035481105b1515610b7057600080fd5b6001600c5403600382815481101515610b8557fe5b906000526020600020906005020160030154101515610ba357600080fd5b6000828152600d602052604090208190556003805482908110610bc257fe5b906000526020600020906005020160030154600101600383815481101515610be657fe5b9060005260206000209060050201600301819055507f0900f87897aa374bb21fa36753905fa2944dd2301242246101a9047a0ed227a08282600385815481101515610c2d57fe5b90600052602060002090600502016003015460405180848152602001838152602001828152602001935050505060405180910390a15050565b60035460009081811115610c7957600019015b919050565b600460205260009081526040902054600160a060020a031681565b600160a060020a0382161515610cae57600080fd5b30600160a060020a031682600160a060020a031614151515610ccf57600080fd5b610cd93382611a30565b1515610ce457600080fd5b610cee83826119d5565b1515610cf957600080fd5b610d04838383611a50565b505050565b600a5433600160a060020a03908116911614610d2157fe5b610d2b83836119d5565b1515610d3657600080fd5b80600383815481101515610d4657fe5b9060005260206000209060050201600301819055507f48ed1b5769aee6cf16cda3da1db2a0acf83c194c9d2a98ebeff4904567af58f68383836040518084600160a060020a0316600160a060020a03168152602001838152602001828152602001935050505060405180910390a1505050565b6000808080600160a060020a0386161515610dd357600080fd5b841515610ddf57600080fd5b339250610deb83611b6e565b9150610df686611b6e565b905081811415610e0557600080fd5b811515610e1157600080fd5b801515610e1d57600080fd5b600160a060020a038381166000818152600860209081526040808320948b168084529482528083208690559282528282208690556009815282822093825292909252908190208690557fe051949e9a44e2e9c21ee7d1c7b03ef0bf501aa3b7c4616a8543f229c0bede7a908790879051600160a060020a03909216825260208201526040908101905180910390a150600195945050505050565b60008115801590610ec9575060035482105b1515610ed457600080fd5b610edd82611bb8565b90508015610eea57600080fd5b6000828152600d6020526040812055600380547f399c331be71add502e95a2402ba7370605a945c1c6c1dc01c5e30f7e896cfa5691849182908110610f2b57fe5b90600052602060002090600502016003015460405191825260208201526040908101905180910390a15050565b600a5433600160a060020a03908116911614610f7057fe5b610f7a82826119d5565b1515610f8557600080fd5b6003805482908110610f9357fe5b906000526020600020906005020160030154600101600382815481101515610fb757fe5b9060005260206000209060050201600301819055507fb6ffa2bc58069f160ac94855c396bc8a7c591ae4b9e69d78cc004ad2e4d70d858282604051600160a060020a03909216825260208201526040908101905180910390a15050565b6000600160a060020a038416151561102b57600080fd5b81151561103757600080fd5b508180151561104c5761104984611b6e565b90505b80151561105857600080fd5b611063848284611c16565b7f8ee078ba6dd38678f9ffdc8f1df2d512559df0cae2db32c829459127e10031978484846040518084600160a060020a0316600160a060020a03168152602001838152602001828152602001935050505060405180910390a150505050565b6000600160a060020a03841615156110d957600080fd5b8115156110e557600080fd5b50818015156110fa576110f784611b6e565b90505b80151561110657600080fd5b611111848284611d04565b7ff3d0e22890d929d2a1cd5ca9e5f6498c4271ce2f0223ab4092297c2d11c9ef758484846040518084600160a060020a0316600160a060020a03168152602001838152602001828152602001935050505060405180910390a150505050565b600081815260046020526040812054600160a060020a0316801515610a1957600080fd5b600080600160a060020a03841615156111ac57600080fd5b8215156111b857600080fd5b50336111c5818585611651565b949350505050565b6111d561204b565b60038054839081106111e357fe5b90600052602060002090600502016001018054600181600116156101000203166002900480601f0160208091040260200160405190810160405280929190818152602001828054600181600116156101000203166002900480156112885780601f1061125d57610100808354040283529160200191611288565b820191906000526020600020905b81548152906001019060200180831161126b57829003601f168201915b50505050509050919050565b600160a060020a031660009081526005602052604090205490565b600b5433600160a060020a039081169116146112ca57600080fd5b600b54600a54600160a060020a0391821691167f343765429aea5a34b3ff6a3785a98a5abb2597aca87bfbb58632c173d585373a60405160405180910390a3600b8054600a805473ffffffffffffffffffffffffffffffffffffffff19908116600160a060020a03841617909155169055565b61134561204b565b610a1982611dc6565b600a54600160a060020a031681565b600354600090819060015b8181101561139c57600380548290811061137e57fe5b60009182526020909120600590910201549290920191600101611368565b509092915050565b6113ac61204b565b60018054600181600116156101000203166002900480601f016020809104026020016040519081016040528092919081815260200182805460018160011615610100020316600290048015610abd5780601f10610a9257610100808354040283529160200191610abd565b600080600160a060020a038516151561142f57600080fd5b8584141561143c57600080fd5b85151561144857600080fd5b83151561145457600080fd5b82151561146057600080fd5b5033600160a060020a038181166000818152600860209081526040808320948a168084529482528083208990559282528282208a90556009815282822093825292909252908190208490557fef4beaa380feab20776f162f92bbf15b04c59f8fd4e8ab2508b8d29fed7dfd6190879087908790879051938452600160a060020a03909216602084015260408084019190915260608301919091526080909101905180910390a150600195945050505050565b600d6020526000908152604090205481565b600660205260009081526040902054600160a060020a031681565b600160a060020a038216151561155457600080fd5b30600160a060020a031682600160a060020a03161415151561157557600080fd5b61157f33826119d5565b151561158a57600080fd5b611595338383611a50565b5050565b60006115a583836119d5565b15156115b057600080fd5b60038054839081106115be57fe5b906000526020600020906005020160030154905092915050565b60006115e261204b565b60008060006115f086611dc6565b93506000925083519150600090505b8181101561164757600384828151811061161557fe5b906020019060200201518154811061162957fe5b600091825260209091206005909102015492909201916001016115ff565b5090949350505050565b600080808080600160a060020a038716151561166c57600080fd5b85151561167857600080fd5b50505050600160a060020a03848116600081815260086020908152604080832094881680845294825280832054938352808320546009835281842095845294909152902054869290818314156116cd57600080fd5b8215156116d957600080fd5b8115156116e557600080fd5b8015156116f157600080fd5b858110156116fe57600080fd5b61170b848389868a611ebb565b600160a060020a038481166000908152600960209081526040808320938b16835292905220805487900390819055151561178357600160a060020a038481166000818152600960209081526040808320948c168084529482528083208390559282526008815282822090528181208190559182528120555b600160a060020a038085166000908152600960209081526040808320938b168352929052819020547fa085ba1c72fda1f13ecb6e0347284ac7d016a73b7a47c0ba151368bbe5ce2db9918a9185918b9188918c919051600160a060020a0396871681526020810195909552929094166040808501919091526060840191909152608083019390935260a082015260c001905180910390a1506001979650505050505050565b600060038281548110151561183957fe5b9060005260206000209060050201600001549050919050565b600960209081526000928352604080842090915290825290205481565b600c5481565b600b54600160a060020a031681565b600760209081526000928352604080842090915290825290205481565b6118a961204b565b6000828152600d6020526040812054905b600c548110156118f757818382815181106118d157fe5b60209081029091018101919091526000928352600d9052604090912054906001016118ba565b5050919050565b600860209081526000928352604080842090915290825290205481565b600a5433600160a060020a0390811691161461193357fe5b600a54600160a060020a038281169116141561194e57600080fd5b600b805473ffffffffffffffffffffffffffffffffffffffff1916600160a060020a0392909216919091179055565b6000600160a060020a038216151561199457600080fd5b600160a060020a03831615156119a957600080fd5b50600160a060020a03918216600090815260096020908152604080832093909416825291909152205490565b600090815260046020526040902054600160a060020a0391821691161490565b600091825260066020526040909120805473ffffffffffffffffffffffffffffffffffffffff1916600160a060020a03909216919091179055565b600090815260066020526040902054600160a060020a0391821691161490565b610400600382815481101515611a6257fe5b90600052602060002090600502016004015414151515611a7e57fe5b600160a060020a0380831660008181526005602090815260408083208054600101905585835260049091529020805473ffffffffffffffffffffffffffffffffffffffff19169091179055831615611b1957600160a060020a0383166000908152600560209081526040808320805460001901905583835260069091529020805473ffffffffffffffffffffffffffffffffffffffff191690555b7fddf252ad1be2c89b69c2b068fc378daa952ba7f163c4a11628f55a4df523b3ef838383604051600160a060020a039384168152919092166020820152604080820192909252606001905180910390a1505050565b6000611b7861204b565b6000611b8384611dc6565b915081519050801515611b9957600092506118f7565b81600081518110611ba657fe5b90602001906020020151949350505050565b600080808315801590611bcc575060035484105b1515611bd757600080fd5b611bdf610c66565b915060009250600190505b8181116118f7576000818152600d6020526040902054841415611c0e576001909201915b600101611bea565b611c2083836119d5565b1515611c2b57600080fd5b801515611c3757600080fd5b80600383815481101515611c4757fe5b60009182526020909120600590910201541015611c6357600080fd5b80600383815481101515611c7357fe5b90600052602060002090600502016000015403600383815481101515611c9557fe5b60009182526020909120600590910201557f45dacd427fd388bf162986dbc958cdcf160c31b40efe076907cff377b9857c798383836040518084600160a060020a0316600160a060020a03168152602001838152602001828152602001935050505060405180910390a1505050565b611d0e83836119d5565b1515611d1957600080fd5b801515611d2557600080fd5b80600383815481101515611d3557fe5b90600052602060002090600502016000015401600383815481101515611d5757fe5b60009182526020909120600590910201557f20f4934a3b4928cca0e51f3f1eaac12dee9af151a8a8ba5a424a89d93f6bf53d8383836040518084600160a060020a0316600160a060020a03168152602001838152602001828152602001935050505060405180910390a1505050565b611dce61204b565b6000611dd861204b565b60008080600160a060020a0387161515611df157600080fd5b611dfa87611294565b9450841515611e2a576000604051805910611e125750595b90808252806020026020018201604052509550611eb1565b84604051805910611e385750595b90808252806020026020018201604052509350611e53610c66565b925060009150600190505b828111611ead57600081815260046020526040902054600160a060020a0388811691161415611ea55780848380600101945081518110611e9a57fe5b602090810290910101525b600101611e5e565b8395505b5050505050919050565b611ec585856119d5565b1515611ed057600080fd5b611eda83836119d5565b1515611ee557600080fd5b801515611ef157600080fd5b83821415611efe57600080fd5b80600385815481101515611f0e57fe5b60009182526020909120600590910201541015611f2a57600080fd5b610400600385815481101515611f3c57fe5b90600052602060002090600502016004015414151515611f5b57600080fd5b80600385815481101515611f6b57fe5b90600052602060002090600502016000015403600385815481101515611f8d57fe5b60009182526020909120600590910201556003805482919084908110611faf57fe5b90600052602060002090600502016000015401600383815481101515611fd157fe5b60009182526020909120600590910201557f6d401b913d27047ecd2042f0331e2354d30e664920b31480dc71955edb996c388585858585604051600160a060020a0395861681526020810194909452919093166040808401919091526060830193909352608082015260a001905180910390a15050505050565b602060405190810160405260008152905600a165627a7a72305820f1281725d16dae7fa93985e25cadc54891a4556f0d3423aca67f71fd1b0c7dd20029",
  "source": "// \n// MIT License\n// \n// Copyright (c) 2018 REGA Risk Sharing\n//   \n// Permission is hereby granted, free of charge, to any person obtaining a copy\n// of this software and associated documentation files (the \"Software\"), to deal\n// in the Software without restriction, including without limitation the rights\n// to use, copy, modify, merge, publish, distribute, sublicense, and/or sell\n// copies of the Software, and to permit persons to whom the Software is\n// furnished to do so, subject to the following conditions:\n// \n// The above copyright notice and this permission notice shall be included in all\n// copies or substantial portions of the Software.\n// \n// THE SOFTWARE IS PROVIDED \"AS IS\", WITHOUT WARRANTY OF ANY KIND, EXPRESS OR\n// IMPLIED, INCLUDING BUT NOT LIMITED TO THE WARRANTIES OF MERCHANTABILITY,\n// FITNESS FOR A PARTICULAR PURPOSE AND NONINFRINGEMENT. IN NO EVENT SHALL THE\n// AUTHORS OR COPYRIGHT HOLDERS BE LIABLE FOR ANY CLAIM, DAMAGES OR OTHER\n// LIABILITY, WHETHER IN AN ACTION OF CONTRACT, TORT OR OTHERWISE, ARISING FROM,\n// OUT OF OR IN CONNECTION WITH THE SOFTWARE OR THE USE OR OTHER DEALINGS IN THE\n// SOFTWARE.\n// \n// Author: Sergei Sevriugin\n// Version: 0.0.1\n//  \n\npragma solidity ^0.4.17;\n\nimport './ERC721SmartToken.sol';\n\n/// TokenContainer is ERC721SmartToken that provide hierarchical structure for token pools\ncontract TokenContainer is ERC721SmartToken {\n    /// TokenContainer AddToken event\n    /// @param nodeId NFT token ID to be added\n    /// @param parentId NFT token ID for pool token\n    /// @param level new nodeId level\n    event AddToken(uint256 nodeId, uint256 parentId, uint256 level);\n    /// TokenContainer RemoveToken event\n    /// @param nodeId NFT token ID to be removed\n    /// @param level removed token level\n    event RemoveToken(uint256 nodeId, uint256 level);\n    /// max number of levels in  hierarchical structure\n    uint256 public maxLevel;\n    /// from NFT ID to NFT ID of pool token\n    mapping (uint256 => uint256) public tokenIndexToPoolToken;\n    \n    function addToken(uint256 _nodeId, uint256 _parentId) public {\n        require(_nodeId != uint256(0) && _nodeId < nfts.length);\n        require(_parentId != uint256(0) && _parentId < nfts.length);\n        require(nfts[_parentId].level < (maxLevel - 1));\n\n        tokenIndexToPoolToken[_nodeId] = _parentId;\n        nfts[_nodeId].level = nfts[_parentId].level + 1;\n\n        AddToken(_nodeId, _parentId, nfts[_nodeId].level);\n    }\n    function removeToken(uint256 _nodeId) public {\n        require(_nodeId != uint256(0) && _nodeId < nfts.length);\n        uint256 poolSize = _getPoolSize(_nodeId);\n        require(poolSize == uint256(0));\n\n        delete tokenIndexToPoolToken[_nodeId];\n\n        RemoveToken(_nodeId, nfts[_nodeId].level);\n    }\n    function getPath(uint256 _nodeId) external view returns(uint256[] path) {\n        uint256 parentId;\n        parentId = tokenIndexToPoolToken[_nodeId];\n\n        for (uint256 id = 0; id < maxLevel; id++) {\n            path[id] = parentId;\n            parentId = tokenIndexToPoolToken[parentId];\n        }\n    }\n    function _getPoolSize(uint256 _nodeId) view internal returns(uint256 size) {\n        require(_nodeId != uint256(0) && _nodeId < nfts.length);\n\n        uint256 total = totalSupply(); // totalSupply is cases.lenght -1, 0 index is reserved\n        \n        size = 0;\n\n        for (uint256 id = 1; id <= total; id++) {\n            if (tokenIndexToPoolToken[id] == _nodeId) {\n                size++;\n            }\n        }\n    }\n    function _getPool(uint256 _nodeId) view internal returns(uint256[] pool) {\n        require(_nodeId != uint256(0) && _nodeId < nfts.length);\n\n        uint256 poolSize = _getPoolSize(_nodeId);\n        uint256[] memory result = new uint256[](poolSize);\n        uint256 total = totalSupply(); // totalSupply is cases.lenght -1, 0 index is reserved\n        uint256 resultIndex = 0;\n\n        for (uint256 id = 1; id <= total; id++) {\n            if (tokenIndexToPoolToken[id] == _nodeId) {\n                result[resultIndex++] = id;\n            }\n        }\n        return result;\n    }\n    function TokenContainer(string _name, string _symbol) ERC721SmartToken(_name, _symbol) public { maxLevel = 4; }\n}",
  "sourcePath": "/Users/sergei/LuggageCrowdsurance/contracts/TokenContainer.sol",
  "compiler": {
    "name": "solc",
    "version": "0.4.18+commit.9cf6e910.Emscripten.clang"
  },
  "schemaVersion": "1.0.1",
  "updatedAt": "2018-05-12T19:58:39.862Z"
}