{
  "contractName": "TokenCrowdsurance",
  "abi": [
    {
      "constant": true,
      "inputs": [],
      "name": "getCurrentVotingStatus",
      "outputs": [
        {
          "name": "status",
          "type": "uint8"
        }
      ],
      "payable": false,
      "stateMutability": "view",
      "type": "function"
    },
    {
      "constant": false,
      "inputs": [
        {
          "name": "_id",
          "type": "uint256"
        }
      ],
      "name": "insertPool",
      "outputs": [
        {
          "name": "",
          "type": "bool"
        }
      ],
      "payable": false,
      "stateMutability": "nonpayable",
      "type": "function"
    },
    {
      "constant": true,
      "inputs": [
        {
          "name": "_interfaceID",
          "type": "bytes4"
        }
      ],
      "name": "supportsInterface",
      "outputs": [
        {
          "name": "",
          "type": "bool"
        }
      ],
      "payable": false,
      "stateMutability": "view",
      "type": "function"
    },
    {
      "constant": true,
      "inputs": [],
      "name": "name",
      "outputs": [
        {
          "name": "",
          "type": "string"
        }
      ],
      "payable": false,
      "stateMutability": "view",
      "type": "function"
    },
    {
      "constant": false,
      "inputs": [
        {
          "name": "_to",
          "type": "address"
        },
        {
          "name": "_tokenId",
          "type": "uint256"
        }
      ],
      "name": "approve",
      "outputs": [],
      "payable": false,
      "stateMutability": "nonpayable",
      "type": "function"
    },
    {
      "constant": false,
      "inputs": [
        {
          "name": "_id",
          "type": "uint256"
        }
      ],
      "name": "castNegative",
      "outputs": [],
      "payable": false,
      "stateMutability": "nonpayable",
      "type": "function"
    },
    {
      "constant": true,
      "inputs": [
        {
          "name": "_id",
          "type": "uint256"
        }
      ],
      "name": "votingStatus",
      "outputs": [
        {
          "name": "state",
          "type": "uint8"
        },
        {
          "name": "positive",
          "type": "uint8"
        },
        {
          "name": "negative",
          "type": "uint8"
        },
        {
          "name": "payment",
          "type": "uint256"
        },
        {
          "name": "balance",
          "type": "uint256"
        }
      ],
      "payable": false,
      "stateMutability": "view",
      "type": "function"
    },
    {
      "constant": false,
      "inputs": [
        {
          "name": "_nodeId",
          "type": "uint256"
        },
        {
          "name": "_parentId",
          "type": "uint256"
        }
      ],
      "name": "addToken",
      "outputs": [],
      "payable": false,
      "stateMutability": "nonpayable",
      "type": "function"
    },
    {
      "constant": true,
      "inputs": [],
      "name": "totalSupply",
      "outputs": [
        {
          "name": "",
          "type": "uint256"
        }
      ],
      "payable": false,
      "stateMutability": "view",
      "type": "function"
    },
    {
      "constant": false,
      "inputs": [],
      "name": "paymentCurrent",
      "outputs": [],
      "payable": false,
      "stateMutability": "nonpayable",
      "type": "function"
    },
    {
      "constant": true,
      "inputs": [],
      "name": "getAppID",
      "outputs": [
        {
          "name": "appId",
          "type": "uint256"
        }
      ],
      "payable": false,
      "stateMutability": "view",
      "type": "function"
    },
    {
      "constant": true,
      "inputs": [
        {
          "name": "_id",
          "type": "uint256"
        },
        {
          "name": "_value",
          "type": "uint256"
        }
      ],
      "name": "checkPaymentAmount",
      "outputs": [
        {
          "name": "level",
          "type": "uint8"
        },
        {
          "name": "amtSubPool",
          "type": "uint256"
        },
        {
          "name": "amtPool",
          "type": "uint256"
        },
        {
          "name": "amtSuperPool",
          "type": "uint256"
        },
        {
          "name": "balance",
          "type": "uint256"
        }
      ],
      "payable": false,
      "stateMutability": "view",
      "type": "function"
    },
    {
      "constant": true,
      "inputs": [],
      "name": "getDistribution",
      "outputs": [
        {
          "name": "distribution",
          "type": "uint256[4]"
        }
      ],
      "payable": false,
      "stateMutability": "view",
      "type": "function"
    },
    {
      "constant": true,
      "inputs": [
        {
          "name": "",
          "type": "uint256"
        }
      ],
      "name": "tokenIndexToOwner",
      "outputs": [
        {
          "name": "",
          "type": "address"
        }
      ],
      "payable": false,
      "stateMutability": "view",
      "type": "function"
    },
    {
      "constant": false,
      "inputs": [
        {
          "name": "_from",
          "type": "address"
        },
        {
          "name": "_to",
          "type": "address"
        },
        {
          "name": "_tokenId",
          "type": "uint256"
        }
      ],
      "name": "transferFrom",
      "outputs": [],
      "payable": false,
      "stateMutability": "nonpayable",
      "type": "function"
    },
    {
      "constant": false,
      "inputs": [
        {
          "name": "_to",
          "type": "address"
        },
        {
          "name": "_toId",
          "type": "uint256"
        },
        {
          "name": "_level",
          "type": "uint256"
        }
      ],
      "name": "setLevel",
      "outputs": [],
      "payable": false,
      "stateMutability": "nonpayable",
      "type": "function"
    },
    {
      "constant": false,
      "inputs": [],
      "name": "castNegativeSelected",
      "outputs": [],
      "payable": false,
      "stateMutability": "nonpayable",
      "type": "function"
    },
    {
      "constant": false,
      "inputs": [
        {
          "name": "_spender",
          "type": "address"
        },
        {
          "name": "_value",
          "type": "uint256"
        }
      ],
      "name": "cApprove",
      "outputs": [
        {
          "name": "success",
          "type": "bool"
        }
      ],
      "payable": false,
      "stateMutability": "nonpayable",
      "type": "function"
    },
    {
      "constant": false,
      "inputs": [
        {
          "name": "_nodeId",
          "type": "uint256"
        }
      ],
      "name": "removeToken",
      "outputs": [],
      "payable": false,
      "stateMutability": "nonpayable",
      "type": "function"
    },
    {
      "constant": false,
      "inputs": [
        {
          "name": "_to",
          "type": "address"
        },
        {
          "name": "_toId",
          "type": "uint256"
        }
      ],
      "name": "increaseLevel",
      "outputs": [],
      "payable": false,
      "stateMutability": "nonpayable",
      "type": "function"
    },
    {
      "constant": true,
      "inputs": [
        {
          "name": "",
          "type": "address"
        }
      ],
      "name": "addressToAmount",
      "outputs": [
        {
          "name": "",
          "type": "uint256"
        }
      ],
      "payable": false,
      "stateMutability": "view",
      "type": "function"
    },
    {
      "constant": false,
      "inputs": [],
      "name": "castPositiveSelected",
      "outputs": [],
      "payable": false,
      "stateMutability": "nonpayable",
      "type": "function"
    },
    {
      "constant": false,
      "inputs": [
        {
          "name": "_from",
          "type": "address"
        },
        {
          "name": "_fromId",
          "type": "uint256"
        },
        {
          "name": "_amount",
          "type": "uint256"
        }
      ],
      "name": "cDestroy",
      "outputs": [],
      "payable": false,
      "stateMutability": "nonpayable",
      "type": "function"
    },
    {
      "constant": false,
      "inputs": [],
      "name": "activateCurrent",
      "outputs": [],
      "payable": false,
      "stateMutability": "nonpayable",
      "type": "function"
    },
    {
      "constant": true,
      "inputs": [],
      "name": "getApplication",
      "outputs": [
        {
          "name": "member",
          "type": "address"
        },
        {
          "name": "appId",
          "type": "uint256"
        }
      ],
      "payable": false,
      "stateMutability": "view",
      "type": "function"
    },
    {
      "constant": false,
      "inputs": [
        {
          "name": "_to",
          "type": "address"
        },
        {
          "name": "_toId",
          "type": "uint256"
        },
        {
          "name": "_amount",
          "type": "uint256"
        }
      ],
      "name": "cIssue",
      "outputs": [],
      "payable": false,
      "stateMutability": "nonpayable",
      "type": "function"
    },
    {
      "constant": true,
      "inputs": [],
      "name": "getCurrentTokenId",
      "outputs": [
        {
          "name": "currentId",
          "type": "uint256"
        }
      ],
      "payable": false,
      "stateMutability": "view",
      "type": "function"
    },
    {
      "constant": false,
      "inputs": [],
      "name": "claimCurrent",
      "outputs": [
        {
          "name": "",
          "type": "bool"
        }
      ],
      "payable": false,
      "stateMutability": "nonpayable",
      "type": "function"
    },
    {
      "constant": true,
      "inputs": [
        {
          "name": "_tokenId",
          "type": "uint256"
        }
      ],
      "name": "ownerOf",
      "outputs": [
        {
          "name": "",
          "type": "address"
        }
      ],
      "payable": false,
      "stateMutability": "view",
      "type": "function"
    },
    {
      "constant": false,
      "inputs": [
        {
          "name": "_to",
          "type": "address"
        },
        {
          "name": "_value",
          "type": "uint256"
        }
      ],
      "name": "cTransfer",
      "outputs": [
        {
          "name": "success",
          "type": "bool"
        }
      ],
      "payable": false,
      "stateMutability": "nonpayable",
      "type": "function"
    },
    {
      "constant": true,
      "inputs": [
        {
          "name": "_tokenId",
          "type": "uint256"
        }
      ],
      "name": "tokenMetadata",
      "outputs": [
        {
          "name": "infoUrl",
          "type": "string"
        }
      ],
      "payable": false,
      "stateMutability": "view",
      "type": "function"
    },
    {
      "constant": true,
      "inputs": [
        {
          "name": "_owner",
          "type": "address"
        }
      ],
      "name": "balanceOf",
      "outputs": [
        {
          "name": "count",
          "type": "uint256"
        }
      ],
      "payable": false,
      "stateMutability": "view",
      "type": "function"
    },
    {
      "constant": false,
      "inputs": [],
      "name": "acceptOwnership",
      "outputs": [],
      "payable": false,
      "stateMutability": "nonpayable",
      "type": "function"
    },
    {
      "constant": true,
      "inputs": [
        {
          "name": "",
          "type": "uint256"
        }
      ],
      "name": "requests",
      "outputs": [
        {
          "name": "amount",
          "type": "uint256"
        },
        {
          "name": "timeStamp",
          "type": "uint256"
        },
        {
          "name": "duration",
          "type": "uint256"
        },
        {
          "name": "positive",
          "type": "uint8"
        },
        {
          "name": "negative",
          "type": "uint8"
        },
        {
          "name": "number",
          "type": "uint8"
        }
      ],
      "payable": false,
      "stateMutability": "view",
      "type": "function"
    },
    {
      "constant": true,
      "inputs": [
        {
          "name": "_owner",
          "type": "address"
        }
      ],
      "name": "tokensOfOwner",
      "outputs": [
        {
          "name": "ownerTokens",
          "type": "uint256[]"
        }
      ],
      "payable": false,
      "stateMutability": "view",
      "type": "function"
    },
    {
      "constant": true,
      "inputs": [],
      "name": "parameters",
      "outputs": [
        {
          "name": "joinAmount",
          "type": "uint256"
        },
        {
          "name": "coverageDuration",
          "type": "uint256"
        },
        {
          "name": "maxClaimAmount",
          "type": "uint256"
        },
        {
          "name": "maxClaimNumber",
          "type": "uint8"
        },
        {
          "name": "paymentRatio",
          "type": "uint8"
        },
        {
          "name": "maxPaymentAmount",
          "type": "uint256"
        },
        {
          "name": "minJuriesNumber",
          "type": "uint8"
        },
        {
          "name": "votingDuration",
          "type": "uint256"
        },
        {
          "name": "juriesNumber",
          "type": "uint8"
        },
        {
          "name": "maxApplications",
          "type": "uint256"
        },
        {
          "name": "averageScore",
          "type": "uint256"
        },
        {
          "name": "defaultClaimAmount",
          "type": "uint256"
        }
      ],
      "payable": false,
      "stateMutability": "view",
      "type": "function"
    },
    {
      "constant": false,
      "inputs": [
        {
          "name": "_id",
          "type": "uint256"
        }
      ],
      "name": "payment",
      "outputs": [],
      "payable": false,
      "stateMutability": "nonpayable",
      "type": "function"
    },
    {
      "constant": true,
      "inputs": [],
      "name": "owner",
      "outputs": [
        {
          "name": "",
          "type": "address"
        }
      ],
      "payable": false,
      "stateMutability": "view",
      "type": "function"
    },
    {
      "constant": true,
      "inputs": [],
      "name": "cTotalSupply",
      "outputs": [
        {
          "name": "",
          "type": "uint256"
        }
      ],
      "payable": false,
      "stateMutability": "view",
      "type": "function"
    },
    {
      "constant": true,
      "inputs": [],
      "name": "symbol",
      "outputs": [
        {
          "name": "",
          "type": "string"
        }
      ],
      "payable": false,
      "stateMutability": "view",
      "type": "function"
    },
    {
      "constant": false,
      "inputs": [
        {
          "name": "_fromId",
          "type": "uint256"
        },
        {
          "name": "_spender",
          "type": "address"
        },
        {
          "name": "_toId",
          "type": "uint256"
        },
        {
          "name": "_value",
          "type": "uint256"
        }
      ],
      "name": "cApproveFrom",
      "outputs": [
        {
          "name": "success",
          "type": "bool"
        }
      ],
      "payable": false,
      "stateMutability": "nonpayable",
      "type": "function"
    },
    {
      "constant": true,
      "inputs": [
        {
          "name": "",
          "type": "uint256"
        }
      ],
      "name": "tokenIndexToPoolToken",
      "outputs": [
        {
          "name": "",
          "type": "uint256"
        }
      ],
      "payable": false,
      "stateMutability": "view",
      "type": "function"
    },
    {
      "constant": true,
      "inputs": [],
      "name": "getJoinAmount",
      "outputs": [
        {
          "name": "amount",
          "type": "uint256"
        }
      ],
      "payable": false,
      "stateMutability": "view",
      "type": "function"
    },
    {
      "constant": false,
      "inputs": [],
      "name": "fssf",
      "outputs": [],
      "payable": false,
      "stateMutability": "nonpayable",
      "type": "function"
    },
    {
      "constant": true,
      "inputs": [],
      "name": "getCurrentStatus",
      "outputs": [
        {
          "name": "status",
          "type": "uint8"
        }
      ],
      "payable": false,
      "stateMutability": "view",
      "type": "function"
    },
    {
      "constant": true,
      "inputs": [
        {
          "name": "",
          "type": "address"
        }
      ],
      "name": "voters",
      "outputs": [
        {
          "name": "",
          "type": "uint256"
        }
      ],
      "payable": false,
      "stateMutability": "view",
      "type": "function"
    },
    {
      "constant": true,
      "inputs": [
        {
          "name": "",
          "type": "uint256"
        }
      ],
      "name": "claims",
      "outputs": [
        {
          "name": "",
          "type": "uint256"
        }
      ],
      "payable": false,
      "stateMutability": "view",
      "type": "function"
    },
    {
      "constant": true,
      "inputs": [
        {
          "name": "",
          "type": "uint256"
        }
      ],
      "name": "tokenIndexToApproved",
      "outputs": [
        {
          "name": "",
          "type": "address"
        }
      ],
      "payable": false,
      "stateMutability": "view",
      "type": "function"
    },
    {
      "constant": false,
      "inputs": [
        {
          "name": "_to",
          "type": "address"
        },
        {
          "name": "_tokenId",
          "type": "uint256"
        }
      ],
      "name": "transfer",
      "outputs": [],
      "payable": false,
      "stateMutability": "nonpayable",
      "type": "function"
    },
    {
      "constant": true,
      "inputs": [],
      "name": "getScore",
      "outputs": [
        {
          "name": "score",
          "type": "uint256"
        }
      ],
      "payable": false,
      "stateMutability": "view",
      "type": "function"
    },
    {
      "constant": true,
      "inputs": [
        {
          "name": "_to",
          "type": "address"
        },
        {
          "name": "_toId",
          "type": "uint256"
        }
      ],
      "name": "getLevel",
      "outputs": [
        {
          "name": "",
          "type": "uint256"
        }
      ],
      "payable": false,
      "stateMutability": "view",
      "type": "function"
    },
    {
      "constant": true,
      "inputs": [
        {
          "name": "_owner",
          "type": "address"
        }
      ],
      "name": "cBalanceOf",
      "outputs": [
        {
          "name": "",
          "type": "uint256"
        }
      ],
      "payable": false,
      "stateMutability": "view",
      "type": "function"
    },
    {
      "constant": false,
      "inputs": [
        {
          "name": "_id",
          "type": "uint256"
        }
      ],
      "name": "activate",
      "outputs": [],
      "payable": false,
      "stateMutability": "nonpayable",
      "type": "function"
    },
    {
      "constant": false,
      "inputs": [],
      "name": "join",
      "outputs": [
        {
          "name": "crowdsuranceId",
          "type": "uint256"
        }
      ],
      "payable": true,
      "stateMutability": "payable",
      "type": "function"
    },
    {
      "constant": true,
      "inputs": [
        {
          "name": "",
          "type": "address"
        }
      ],
      "name": "addressToApplication",
      "outputs": [
        {
          "name": "",
          "type": "uint256"
        }
      ],
      "payable": false,
      "stateMutability": "view",
      "type": "function"
    },
    {
      "constant": false,
      "inputs": [
        {
          "name": "_from",
          "type": "address"
        },
        {
          "name": "_to",
          "type": "address"
        },
        {
          "name": "_value",
          "type": "uint256"
        }
      ],
      "name": "cTransferFrom",
      "outputs": [
        {
          "name": "success",
          "type": "bool"
        }
      ],
      "payable": false,
      "stateMutability": "nonpayable",
      "type": "function"
    },
    {
      "constant": true,
      "inputs": [
        {
          "name": "_member",
          "type": "address"
        },
        {
          "name": "_status",
          "type": "uint8"
        }
      ],
      "name": "statusCount",
      "outputs": [
        {
          "name": "count",
          "type": "uint256"
        }
      ],
      "payable": false,
      "stateMutability": "view",
      "type": "function"
    },
    {
      "constant": false,
      "inputs": [
        {
          "name": "_id",
          "type": "uint256"
        },
        {
          "name": "_claim",
          "type": "uint256"
        }
      ],
      "name": "claim",
      "outputs": [
        {
          "name": "",
          "type": "bool"
        }
      ],
      "payable": false,
      "stateMutability": "nonpayable",
      "type": "function"
    },
    {
      "constant": true,
      "inputs": [
        {
          "name": "",
          "type": "address"
        }
      ],
      "name": "addressToScore",
      "outputs": [
        {
          "name": "",
          "type": "uint256"
        }
      ],
      "payable": false,
      "stateMutability": "view",
      "type": "function"
    },
    {
      "constant": false,
      "inputs": [
        {
          "name": "_id",
          "type": "uint256"
        },
        {
          "name": "_positive",
          "type": "bool"
        }
      ],
      "name": "vote",
      "outputs": [],
      "payable": false,
      "stateMutability": "nonpayable",
      "type": "function"
    },
    {
      "constant": true,
      "inputs": [
        {
          "name": "_tokenId",
          "type": "uint256"
        }
      ],
      "name": "valueOf",
      "outputs": [
        {
          "name": "value",
          "type": "uint256"
        }
      ],
      "payable": false,
      "stateMutability": "view",
      "type": "function"
    },
    {
      "constant": true,
      "inputs": [
        {
          "name": "",
          "type": "address"
        },
        {
          "name": "",
          "type": "address"
        }
      ],
      "name": "allowanceAmt",
      "outputs": [
        {
          "name": "",
          "type": "uint256"
        }
      ],
      "payable": false,
      "stateMutability": "view",
      "type": "function"
    },
    {
      "constant": true,
      "inputs": [],
      "name": "maxLevel",
      "outputs": [
        {
          "name": "",
          "type": "uint256"
        }
      ],
      "payable": false,
      "stateMutability": "view",
      "type": "function"
    },
    {
      "constant": false,
      "inputs": [
        {
          "name": "_member",
          "type": "address"
        },
        {
          "name": "_score",
          "type": "uint256"
        },
        {
          "name": "_amount",
          "type": "uint256"
        }
      ],
      "name": "scoring",
      "outputs": [],
      "payable": false,
      "stateMutability": "nonpayable",
      "type": "function"
    },
    {
      "constant": true,
      "inputs": [],
      "name": "newOwner",
      "outputs": [
        {
          "name": "",
          "type": "address"
        }
      ],
      "payable": false,
      "stateMutability": "view",
      "type": "function"
    },
    {
      "constant": false,
      "inputs": [],
      "name": "apply",
      "outputs": [
        {
          "name": "addId",
          "type": "uint256"
        }
      ],
      "payable": false,
      "stateMutability": "nonpayable",
      "type": "function"
    },
    {
      "constant": true,
      "inputs": [
        {
          "name": "",
          "type": "uint256"
        }
      ],
      "name": "extensions",
      "outputs": [
        {
          "name": "timeStamp",
          "type": "uint256"
        },
        {
          "name": "activated",
          "type": "uint256"
        },
        {
          "name": "duration",
          "type": "uint256"
        },
        {
          "name": "amount",
          "type": "uint256"
        },
        {
          "name": "paid",
          "type": "uint256"
        },
        {
          "name": "score",
          "type": "uint256"
        },
        {
          "name": "claimNumber",
          "type": "uint8"
        },
        {
          "name": "status",
          "type": "uint8"
        }
      ],
      "payable": false,
      "stateMutability": "view",
      "type": "function"
    },
    {
      "constant": true,
      "inputs": [],
      "name": "getNumberOfClaims",
      "outputs": [
        {
          "name": "",
          "type": "uint256"
        }
      ],
      "payable": false,
      "stateMutability": "view",
      "type": "function"
    },
    {
      "constant": true,
      "inputs": [
        {
          "name": "",
          "type": "address"
        },
        {
          "name": "",
          "type": "address"
        }
      ],
      "name": "allowance",
      "outputs": [
        {
          "name": "",
          "type": "uint256"
        }
      ],
      "payable": false,
      "stateMutability": "view",
      "type": "function"
    },
    {
      "constant": true,
      "inputs": [],
      "name": "getComission",
      "outputs": [
        {
          "name": "commission",
          "type": "uint256"
        }
      ],
      "payable": false,
      "stateMutability": "view",
      "type": "function"
    },
    {
      "constant": false,
      "inputs": [
        {
          "name": "_id",
          "type": "uint256"
        }
      ],
      "name": "castPositive",
      "outputs": [],
      "payable": false,
      "stateMutability": "nonpayable",
      "type": "function"
    },
    {
      "constant": true,
      "inputs": [],
      "name": "appNumber",
      "outputs": [
        {
          "name": "",
          "type": "uint256"
        }
      ],
      "payable": false,
      "stateMutability": "view",
      "type": "function"
    },
    {
      "constant": true,
      "inputs": [
        {
          "name": "",
          "type": "uint256"
        }
      ],
      "name": "applications",
      "outputs": [
        {
          "name": "timeStamp",
          "type": "uint256"
        },
        {
          "name": "member",
          "type": "address"
        },
        {
          "name": "tokensToBuy",
          "type": "uint8"
        },
        {
          "name": "paymetMethod",
          "type": "uint8"
        },
        {
          "name": "processed",
          "type": "bool"
        }
      ],
      "payable": false,
      "stateMutability": "view",
      "type": "function"
    },
    {
      "constant": true,
      "inputs": [
        {
          "name": "_nodeId",
          "type": "uint256"
        }
      ],
      "name": "getPath",
      "outputs": [
        {
          "name": "path",
          "type": "uint256[]"
        }
      ],
      "payable": false,
      "stateMutability": "view",
      "type": "function"
    },
    {
      "constant": true,
      "inputs": [
        {
          "name": "",
          "type": "address"
        },
        {
          "name": "",
          "type": "address"
        }
      ],
      "name": "allowanceIds",
      "outputs": [
        {
          "name": "",
          "type": "uint256"
        }
      ],
      "payable": false,
      "stateMutability": "view",
      "type": "function"
    },
    {
      "constant": false,
      "inputs": [
        {
          "name": "_newOwner",
          "type": "address"
        }
      ],
      "name": "transferOwnership",
      "outputs": [],
      "payable": false,
      "stateMutability": "nonpayable",
      "type": "function"
    },
    {
      "constant": false,
      "inputs": [
        {
          "name": "_jury",
          "type": "address"
        }
      ],
      "name": "addVoter",
      "outputs": [],
      "payable": false,
      "stateMutability": "nonpayable",
      "type": "function"
    },
    {
      "constant": true,
      "inputs": [
        {
          "name": "_owner",
          "type": "address"
        },
        {
          "name": "_spender",
          "type": "address"
        }
      ],
      "name": "cAllowance",
      "outputs": [
        {
          "name": "",
          "type": "uint256"
        }
      ],
      "payable": false,
      "stateMutability": "view",
      "type": "function"
    },
    {
      "inputs": [
        {
          "name": "_name",
          "type": "string"
        },
        {
          "name": "_symbol",
          "type": "string"
        }
      ],
      "payable": false,
      "stateMutability": "nonpayable",
      "type": "constructor"
    },
    {
      "payable": true,
      "stateMutability": "payable",
      "type": "fallback"
    },
    {
      "anonymous": false,
      "inputs": [
        {
          "indexed": false,
          "name": "member",
          "type": "address"
        },
        {
          "indexed": false,
          "name": "appId",
          "type": "uint256"
        }
      ],
      "name": "Apply",
      "type": "event"
    },
    {
      "anonymous": false,
      "inputs": [
        {
          "indexed": false,
          "name": "member",
          "type": "address"
        },
        {
          "indexed": false,
          "name": "id",
          "type": "uint256"
        },
        {
          "indexed": false,
          "name": "amount",
          "type": "uint256"
        }
      ],
      "name": "Join",
      "type": "event"
    },
    {
      "anonymous": false,
      "inputs": [
        {
          "indexed": false,
          "name": "member",
          "type": "address"
        },
        {
          "indexed": false,
          "name": "score",
          "type": "uint256"
        },
        {
          "indexed": false,
          "name": "amount",
          "type": "uint256"
        }
      ],
      "name": "Scoring",
      "type": "event"
    },
    {
      "anonymous": false,
      "inputs": [
        {
          "indexed": false,
          "name": "id",
          "type": "uint256"
        },
        {
          "indexed": false,
          "name": "amount",
          "type": "uint256"
        },
        {
          "indexed": false,
          "name": "score",
          "type": "uint256"
        }
      ],
      "name": "Activate",
      "type": "event"
    },
    {
      "anonymous": false,
      "inputs": [
        {
          "indexed": false,
          "name": "id",
          "type": "uint256"
        },
        {
          "indexed": false,
          "name": "claim",
          "type": "uint256"
        },
        {
          "indexed": false,
          "name": "number",
          "type": "uint8"
        }
      ],
      "name": "Claim",
      "type": "event"
    },
    {
      "anonymous": false,
      "inputs": [
        {
          "indexed": false,
          "name": "jury",
          "type": "address"
        },
        {
          "indexed": false,
          "name": "id",
          "type": "uint256"
        },
        {
          "indexed": false,
          "name": "positive",
          "type": "bool"
        }
      ],
      "name": "Vote",
      "type": "event"
    },
    {
      "anonymous": false,
      "inputs": [
        {
          "indexed": false,
          "name": "reciever",
          "type": "address"
        },
        {
          "indexed": false,
          "name": "id",
          "type": "uint256"
        },
        {
          "indexed": false,
          "name": "amount",
          "type": "uint256"
        },
        {
          "indexed": false,
          "name": "status",
          "type": "uint8"
        }
      ],
      "name": "Payment",
      "type": "event"
    },
    {
      "anonymous": false,
      "inputs": [
        {
          "indexed": false,
          "name": "member",
          "type": "address"
        },
        {
          "indexed": false,
          "name": "appId",
          "type": "uint256"
        }
      ],
      "name": "FSSF",
      "type": "event"
    },
    {
      "anonymous": false,
      "inputs": [
        {
          "indexed": false,
          "name": "id",
          "type": "uint256"
        },
        {
          "indexed": false,
          "name": "poolId",
          "type": "uint256"
        },
        {
          "indexed": false,
          "name": "level",
          "type": "uint8"
        }
      ],
      "name": "InsertPool",
      "type": "event"
    },
    {
      "anonymous": false,
      "inputs": [
        {
          "indexed": false,
          "name": "id",
          "type": "uint256"
        },
        {
          "indexed": false,
          "name": "superPoolValue",
          "type": "uint256"
        },
        {
          "indexed": false,
          "name": "poolValue",
          "type": "uint256"
        },
        {
          "indexed": false,
          "name": "subPoolValue",
          "type": "uint256"
        },
        {
          "indexed": false,
          "name": "comission",
          "type": "uint256"
        }
      ],
      "name": "DistributeValue",
      "type": "event"
    },
    {
      "anonymous": false,
      "inputs": [
        {
          "indexed": false,
          "name": "id",
          "type": "uint256"
        },
        {
          "indexed": false,
          "name": "value",
          "type": "uint256"
        }
      ],
      "name": "SecondTierCall",
      "type": "event"
    },
    {
      "anonymous": false,
      "inputs": [
        {
          "indexed": false,
          "name": "id",
          "type": "uint256"
        },
        {
          "indexed": false,
          "name": "poolId",
          "type": "uint256"
        },
        {
          "indexed": false,
          "name": "value",
          "type": "uint256"
        },
        {
          "indexed": false,
          "name": "level",
          "type": "uint8"
        }
      ],
      "name": "ShortOfFunds",
      "type": "event"
    },
    {
      "anonymous": false,
      "inputs": [
        {
          "indexed": false,
          "name": "id",
          "type": "uint256"
        },
        {
          "indexed": false,
          "name": "value",
          "type": "uint256"
        },
        {
          "indexed": false,
          "name": "level",
          "type": "uint8"
        }
      ],
      "name": "PaymentValue",
      "type": "event"
    },
    {
      "anonymous": false,
      "inputs": [
        {
          "indexed": false,
          "name": "nodeId",
          "type": "uint256"
        },
        {
          "indexed": false,
          "name": "parentId",
          "type": "uint256"
        },
        {
          "indexed": false,
          "name": "level",
          "type": "uint256"
        }
      ],
      "name": "AddToken",
      "type": "event"
    },
    {
      "anonymous": false,
      "inputs": [
        {
          "indexed": false,
          "name": "nodeId",
          "type": "uint256"
        },
        {
          "indexed": false,
          "name": "level",
          "type": "uint256"
        }
      ],
      "name": "RemoveToken",
      "type": "event"
    },
    {
      "anonymous": false,
      "inputs": [
        {
          "indexed": false,
          "name": "from",
          "type": "address"
        },
        {
          "indexed": false,
          "name": "fromId",
          "type": "uint256"
        },
        {
          "indexed": false,
          "name": "to",
          "type": "address"
        },
        {
          "indexed": false,
          "name": "toId",
          "type": "uint256"
        },
        {
          "indexed": false,
          "name": "value",
          "type": "uint256"
        }
      ],
      "name": "Transfer",
      "type": "event"
    },
    {
      "anonymous": false,
      "inputs": [
        {
          "indexed": false,
          "name": "to",
          "type": "address"
        },
        {
          "indexed": false,
          "name": "toId",
          "type": "uint256"
        },
        {
          "indexed": false,
          "name": "value",
          "type": "uint256"
        }
      ],
      "name": "AddValue",
      "type": "event"
    },
    {
      "anonymous": false,
      "inputs": [
        {
          "indexed": false,
          "name": "from",
          "type": "address"
        },
        {
          "indexed": false,
          "name": "fromId",
          "type": "uint256"
        },
        {
          "indexed": false,
          "name": "value",
          "type": "uint256"
        }
      ],
      "name": "RemoveValue",
      "type": "event"
    },
    {
      "anonymous": false,
      "inputs": [
        {
          "indexed": false,
          "name": "to",
          "type": "address"
        },
        {
          "indexed": false,
          "name": "toId",
          "type": "uint256"
        },
        {
          "indexed": false,
          "name": "level",
          "type": "uint256"
        }
      ],
      "name": "SetLevel",
      "type": "event"
    },
    {
      "anonymous": false,
      "inputs": [
        {
          "indexed": false,
          "name": "to",
          "type": "address"
        },
        {
          "indexed": false,
          "name": "toId",
          "type": "uint256"
        }
      ],
      "name": "IncreaseLevel",
      "type": "event"
    },
    {
      "anonymous": false,
      "inputs": [
        {
          "indexed": true,
          "name": "_prevOwner",
          "type": "address"
        },
        {
          "indexed": true,
          "name": "_newOwner",
          "type": "address"
        }
      ],
      "name": "OwnerUpdate",
      "type": "event"
    },
    {
      "anonymous": false,
      "inputs": [
        {
          "indexed": false,
          "name": "fromId",
          "type": "uint256"
        },
        {
          "indexed": false,
          "name": "spender",
          "type": "address"
        },
        {
          "indexed": false,
          "name": "toId",
          "type": "uint256"
        },
        {
          "indexed": false,
          "name": "value",
          "type": "uint256"
        }
      ],
      "name": "CApproveFrom",
      "type": "event"
    },
    {
      "anonymous": false,
      "inputs": [
        {
          "indexed": false,
          "name": "spender",
          "type": "address"
        },
        {
          "indexed": false,
          "name": "value",
          "type": "uint256"
        }
      ],
      "name": "CApprove",
      "type": "event"
    },
    {
      "anonymous": false,
      "inputs": [
        {
          "indexed": false,
          "name": "from",
          "type": "address"
        },
        {
          "indexed": false,
          "name": "fromId",
          "type": "uint256"
        },
        {
          "indexed": false,
          "name": "to",
          "type": "address"
        },
        {
          "indexed": false,
          "name": "toId",
          "type": "uint256"
        },
        {
          "indexed": false,
          "name": "value",
          "type": "uint256"
        },
        {
          "indexed": false,
          "name": "allowance",
          "type": "uint256"
        }
      ],
      "name": "CTransferFrom",
      "type": "event"
    },
    {
      "anonymous": false,
      "inputs": [
        {
          "indexed": false,
          "name": "to",
          "type": "address"
        },
        {
          "indexed": false,
          "name": "toId",
          "type": "uint256"
        },
        {
          "indexed": false,
          "name": "amount",
          "type": "uint256"
        }
      ],
      "name": "CIssue",
      "type": "event"
    },
    {
      "anonymous": false,
      "inputs": [
        {
          "indexed": false,
          "name": "from",
          "type": "address"
        },
        {
          "indexed": false,
          "name": "fromId",
          "type": "uint256"
        },
        {
          "indexed": false,
          "name": "amount",
          "type": "uint256"
        }
      ],
      "name": "CDestroy",
      "type": "event"
    },
    {
      "anonymous": false,
      "inputs": [
        {
          "indexed": false,
          "name": "from",
          "type": "address"
        },
        {
          "indexed": false,
          "name": "to",
          "type": "address"
        },
        {
          "indexed": false,
          "name": "tokenId",
          "type": "uint256"
        }
      ],
      "name": "Transfer",
      "type": "event"
    },
    {
      "anonymous": false,
      "inputs": [
        {
          "indexed": false,
          "name": "owner",
          "type": "address"
        },
        {
          "indexed": false,
          "name": "approved",
          "type": "address"
        },
        {
          "indexed": false,
          "name": "tokenId",
          "type": "uint256"
        }
      ],
      "name": "Approval",
      "type": "event"
    },
    {
      "anonymous": false,
      "inputs": [
        {
          "indexed": false,
          "name": "value",
          "type": "uint256"
        },
        {
          "indexed": false,
          "name": "metadata",
          "type": "string"
        },
        {
          "indexed": false,
          "name": "kind",
          "type": "uint256"
        },
        {
          "indexed": false,
          "name": "owner",
          "type": "address"
        }
      ],
      "name": "Birth",
      "type": "event"
    }
  ],
  "bytecode": "0x606060405234156200001057600080fd5b604051620062be380380620062be8339810160405280805182019190602001805190910190508181600080806200004662000915565b6200005062000915565b6200005a62000915565b60028054600160a060020a03191633600160a060020a03161790558787818181816000828051620000909291602001906200094f565b506001818051620000a69291602001906200094f565b5050600a8054600160a060020a03191633600160a060020a031617905550506004600c5550620001339150678ac7230489e80000905060408051908101604052600981527f5375706572506f6f6c00000000000000000000000000000000000000000000006020820152600a54600190600160a060020a0316640100000000620051c0620004c882021704565b955062000192600060408051908101604052600481527f506f6f6c000000000000000000000000000000000000000000000000000000006020820152600a54600190600160a060020a0316640100000000620051c0620004c882021704565b9450620001f1600060408051908101604052600781527f537562506f6f6c000000000000000000000000000000000000000000000000006020820152600a54600290600160a060020a0316640100000000620051c0620004c882021704565b93506200020d8587640100000000620014b0620006d982021704565b620002278486640100000000620014b0620006d982021704565b60c060405190810160405280600060ff16815260200160018152602001600a815260200160018152602001878152602001600a8152509250600e8054806001018281620002759190620009d4565b600092835260209092208591600602018151815460ff191660ff919091161781556020820151816001015560408201518160020155606082015181600301556080820151816004015560a0820151816005015550505060c060405190810160405280600160ff168152602001600a8152602001606481526020016001815260200186815260200160148152509150600e8054806001018281620003199190620009d4565b600092835260209092208491600602018151815460ff191660ff919091161781556020820151816001015560408201518160020155606082015181600301556080820151816004015560a0820151816005015550505060c060405190810160405280600260ff1681526020016103e88152602001606481526020016001815260200185815260200160328152509050600e8054806001018281620003be9190620009d4565b600092835260209092208391600602018151815460ff191660ff919091161781556020820151816001015560408201518160020155606082015181600301556080820151816004015560a082015181600501555050506000600360008154811015156200042757fe5b6000918252602082206005918202019290925567016345785d8a0000600f5562f099c0601055678ac7230489e8000060118190556012805461500061ff001960ff19928316600117161790915560139190915560148054821660031790556202a30060155560168054909116909217909155600a6017556064601855670de0b6b3a764000060195560218190556023555062000b7398505050505050505050565b6000620004d462000a08565b600060a06040519081016040528088815260200187815260200186815260200160008152602001600081525091506001600380548060010182816200051a919062000a40565b60009283526020909220859160050201815181556020820151816001019080516200054a9291602001906200094f565b506040820151816002015560608201518160030155608082015160049091015550039050801515620005e3576001600380548060010182816200058e919062000a40565b6000928352602090922085916005020181518155602082015181600101908051620005be9291602001906200094f565b5060408201518160020155606082015181600301556080820151816004015550500390505b63ffffffff81168114620005f657600080fd5b7fdea8e87d69047e1b3cd43ad599d34e3eacfe4408b4dfc5d0f6ac6a15a468de5c8787878760405184815260408101839052600160a060020a038216606082015260806020820181815290820185818151815260200191508051906020019080838360005b83811015620006755780820151838201526020016200065b565b50505050905090810190601f168015620006a35780820380516001836020036101000a031916815260200191505b509550505050505060405180910390a1620006cf60008583640100000000620042016200080e82021704565b9695505050505050565b8115801590620006ea575060035482105b1515620006f657600080fd5b801580159062000707575060035481105b15156200071357600080fd5b6001600c54036003828154811015156200072957fe5b9060005260206000209060050201600301541015156200074857600080fd5b6000828152600d6020526040902081905560038054829081106200076857fe5b9060005260206000209060050201600301546001016003838154811015156200078d57fe5b9060005260206000209060050201600301819055507f0900f87897aa374bb21fa36753905fa2944dd2301242246101a9047a0ed227a08282600385815481101515620007d557fe5b90600052602060002090600502016003015460405180848152602001838152602001828152602001935050505060405180910390a15050565b6104006003828154811015156200082157fe5b906000526020600020906005020160040154141515156200083e57fe5b600160a060020a03808316600081815260056020908152604080832080546001019055858352600490915290208054600160a060020a0319169091179055831615620008c057600160a060020a03831660009081526005602090815260408083208054600019019055838352600690915290208054600160a060020a03191690555b7fddf252ad1be2c89b69c2b068fc378daa952ba7f163c4a11628f55a4df523b3ef838383604051600160a060020a039384168152919092166020820152604080820192909252606001905180910390a1505050565b60c060405190810160405280600060ff16815260200160008152602001600081526020016000815260200160008152602001600081525090565b828054600181600116156101000203166002900490600052602060002090601f016020900481019282601f106200099257805160ff1916838001178555620009c2565b82800160010185558215620009c2579182015b82811115620009c2578251825591602001919060010190620009a5565b50620009d092915062000a6f565b5090565b81548183558181151162000a035760060281600602836000526020600020918201910162000a03919062000a8f565b505050565b60a0604051908101604052806000815260200162000a2562000ad3565b81526020016000815260200160008152602001600081525090565b81548183558181151162000a035760050281600502836000526020600020918201910162000a03919062000ae5565b62000a8c91905b80821115620009d0576000815560010162000a76565b90565b62000a8c91905b80821115620009d057805460ff19168155600060018201819055600282018190556003820181905560048201819055600582015560060162000a96565b60206040519081016040526000815290565b62000a8c91905b80821115620009d057600080825562000b09600183018262000b28565b5060006002820181905560038201819055600482015560050162000aec565b50805460018160011615610100020316600290046000825580601f1062000b50575062000b70565b601f01602090049060005260206000209081019062000b70919062000a6f565b50565b61573b8062000b836000396000f30060606040526004361061038d5763ffffffff7c01000000000000000000000000000000000000000000000000000000006000350416620f987f811461038f578062607b7f146103b857806301ffc9a7146103e257806306fdde031461041a578063095ea7b3146104a45780630c04ad11146104c65780630e13dd74146104dc57806317b9ebec1461053e57806318160ddd1461055757806319aa76251461057c5780631aff05961461058f5780631c41931c146105a25780631cced51b146105f05780631d36e06c1461063b57806323b872dd1461066d57806329625005146106955780632dcfcd5f146106ba57806332c4ee83146106cd57806336c5d724146106ef57806339e6cdb1146107055780633c7e7d28146107275780633c8deaca146107465780634cabcfac146107595780634fa4bd011461077e5780634fe89efe14610791578063545c3d55146107c657806356189236146107eb578063604919ea146107fe5780636352211e1461081157806366d80ba5146108275780636914db601461084957806370a082311461085f57806379ba50971461087e57806381d12c58146108915780638462151c146108e457806389035730146109565780638b3c99e3146109d65780638da5cb5b146109ec5780638f1fc77c146109ff57806395d89b4114610a1257806398dc5c9514610a255780639ca0883114610a4d5780639d26d1ca14610a63578063a01177cd14610a76578063a3dd261914610a89578063a3ec138d14610a9c578063a888c2cd14610abb578063a8bd9c3214610ad1578063a9059cbb14610ae7578063afd8206714610b09578063b121f2ac14610b1c578063b135707914610b3e578063b260c42a14610b5d578063b688a36314610b73578063be1d68ad14610b7b578063bf62266514610b9a578063c0521d7614610bc2578063c349026314610be7578063c52380e914610c00578063c9d27afe14610c1f578063cadf338f14610c3a578063cbbc9f8914610c50578063cc06c35914610c75578063cf7c436714610c88578063d4ee1d9014610cad578063db595b3b14610cc0578063db85d59c14610cd3578063dd52c33814610d35578063dd62ed3e14610d48578063dd6d3ca714610d6d578063ddf3ecc714610d80578063deb8386a14610d96578063dfefadff14610da9578063e176507314610dff578063e527cc9d14610e15578063f2fde38b14610e3a578063f4ab9adf14610e59578063f81fd7ea14610e78575b005b341561039a57600080fd5b6103a2610e9d565b60405160ff909116815260200160405180910390f35b34156103c357600080fd5b6103ce600435610f66565b604051901515815260200160405180910390f35b34156103ed57600080fd5b6103ce7fffffffff0000000000000000000000000000000000000000000000000000000060043516610fc8565b341561042557600080fd5b61042d6112a1565b60405160208082528190810183818151815260200191508051906020019080838360005b83811015610469578082015183820152602001610451565b50505050905090810190601f1680156104965780820380516001836020036101000a031916815260200191505b509250505060405180910390f35b34156104af57600080fd5b61038d600160a060020a036004351660243561134a565b34156104d157600080fd5b61038d6004356113bd565b34156104e757600080fd5b6104f26004356113cb565b6040518086600281111561050257fe5b60ff1681526020018560ff1660ff1681526020018460ff1660ff1681526020018381526020018281526020019550505050505060405180910390f35b341561054957600080fd5b61038d6004356024356114b0565b341561056257600080fd5b61056a6115dc565b60405190815260200160405180910390f35b341561058757600080fd5b61038d6115f7565b341561059a57600080fd5b61056a611609565b34156105ad57600080fd5b6105bb600435602435611625565b60405160ff909516855260208501939093526040808501929092526060840152608083019190915260a0909101905180910390f35b34156105fb57600080fd5b6106036118e3565b6040518082608080838360005b83811015610628578082015183820152602001610610565b5050505090500191505060405180910390f35b341561064657600080fd5b6106516004356119c6565b604051600160a060020a03909116815260200160405180910390f35b341561067857600080fd5b61038d600160a060020a03600435811690602435166044356119e1565b34156106a057600080fd5b61038d600160a060020a0360043516602435604435611a51565b34156106c557600080fd5b61038d611b01565b34156106d857600080fd5b6103ce600160a060020a0360043516602435611b23565b34156106fa57600080fd5b61038d600435611c23565b341561071057600080fd5b61038d600160a060020a0360043516602435611cc4565b341561073257600080fd5b61056a600160a060020a0360043516611d80565b341561075157600080fd5b61038d611d92565b341561076457600080fd5b61038d600160a060020a0360043516602435604435611db6565b341561078957600080fd5b61038d611e64565b341561079c57600080fd5b6107a4611e74565b604051600160a060020a03909216825260208201526040908101905180910390f35b34156107d157600080fd5b61038d600160a060020a0360043516602435604435611f0c565b34156107f657600080fd5b61056a611fba565b341561080957600080fd5b6103ce611fea565b341561081c57600080fd5b610651600435611fff565b341561083257600080fd5b6103ce600160a060020a0360043516602435612023565b341561085457600080fd5b61042d60043561205c565b341561086a57600080fd5b61056a600160a060020a0360043516612123565b341561088957600080fd5b61038d61213e565b341561089c57600080fd5b6108a76004356121cc565b604051958652602086019490945260408086019390935260ff91821660608601528116608085015290911660a083015260c0909101905180910390f35b34156108ef57600080fd5b610903600160a060020a0360043516612209565b60405160208082528190810183818151815260200191508051906020019060200280838360005b8381101561094257808201518382015260200161092a565b505050509050019250505060405180910390f35b341561096157600080fd5b61096961221a565b6040519b8c5260208c019a909a526040808c019990995260ff97881660608c015295871660808b015260a08a019490945291851660c089015260e0880152909216610100860152610120850191909152610140840152610160830191909152610180909101905180910390f35b34156109e157600080fd5b61038d600435612255565b34156109f757600080fd5b610651612645565b3415610a0a57600080fd5b61056a612654565b3415610a1d57600080fd5b61042d61269b565b3415610a3057600080fd5b6103ce600435600160a060020a036024351660443560643561270e565b3415610a5857600080fd5b61056a600435612809565b3415610a6e57600080fd5b61056a61281b565b3415610a8157600080fd5b61038d612837565b3415610a9457600080fd5b6103a26128d7565b3415610aa757600080fd5b61056a600160a060020a0360043516612906565b3415610ac657600080fd5b61056a600435612918565b3415610adc57600080fd5b610651600435612937565b3415610af257600080fd5b61038d600160a060020a0360043516602435612952565b3415610b1457600080fd5b61056a6129a8565b3415610b2757600080fd5b61056a600160a060020a03600435166024356129c4565b3415610b4957600080fd5b61056a600160a060020a0360043516612a03565b3415610b6857600080fd5b61038d600435612a7c565b61056a612b83565b3415610b8657600080fd5b61056a600160a060020a0360043516612c00565b3415610ba557600080fd5b6103ce600160a060020a0360043581169060243516604435612c12565b3415610bcd57600080fd5b61056a600160a060020a036004351660ff60243516612de9565b3415610bf257600080fd5b6103ce600435602435612e69565b3415610c0b57600080fd5b61056a600160a060020a0360043516613108565b3415610c2a57600080fd5b61038d600435602435151561311a565b3415610c4557600080fd5b61056a600435613263565b3415610c5b57600080fd5b61056a600160a060020a036004358116906024351661328d565b3415610c8057600080fd5b61056a6132aa565b3415610c9357600080fd5b61038d600160a060020a03600435166024356044356132b0565b3415610cb857600080fd5b610651613449565b3415610ccb57600080fd5b61056a613458565b3415610cde57600080fd5b610ce9600435613736565b60405197885260208801969096526040808801959095526060870193909352608086019190915260a085015260ff90811660c085015290911660e0830152610100909101905180910390f35b3415610d4057600080fd5b61056a61377f565b3415610d5357600080fd5b61056a600160a060020a0360043581169060243516613789565b3415610d7857600080fd5b61056a6137a6565b3415610d8b57600080fd5b61038d6004356137cf565b3415610da157600080fd5b61056a6137da565b3415610db457600080fd5b610dbf6004356137e0565b604051948552600160a060020a03909316602085015260ff91821660408086019190915291166060840152901515608083015260a0909101905180910390f35b3415610e0a57600080fd5b61090360043561386c565b3415610e2057600080fd5b61056a600160a060020a03600435811690602435166138c9565b3415610e4557600080fd5b61038d600160a060020a03600435166138e6565b3415610e6457600080fd5b61038d600160a060020a0360043516613948565b3415610e8357600080fd5b61056a600160a060020a0360043581169060243516613aea565b6000806000806000806000601c6000610eb4611fba565b8152602001908152602001600020600301549050610ed8610ed3611fba565b6113cb565b60009b509399509197509550935091506002866002811115610ef657fe5b1480610f0d57506001866002811115610f0b57fe5b145b15610f5d578360ff168560ff16118015610f275750818311155b15610f355760019650610f5d565b8360ff168560ff16148015610f4a5750818111155b15610f585760029650610f5d565b600396505b50505050505090565b600a5460009033600160a060020a03908116911614610f8157fe5b8115801590610f91575060035482105b1515610f9c57600080fd5b610fa7826002613b42565b1515610faf57fe5b610fb882613df3565b1515610fc057fe5b506001919050565b60006040517f737570706f727473496e74657266616365286279746573342900000000000000815260190160405180910390207bffffffffffffffffffffffffffffffffffffffffffffffffffffffff1916827bffffffffffffffffffffffffffffffffffffffffffffffffffffffff1916148061129b57506040517f746f6b656e4d657461646174612875696e743235362c737472696e67290000008152601d0160405180910390206040517f746f6b656e734f664f776e657228616464726573732900000000000000000000815260160160405180910390206040517f7472616e7366657246726f6d28616464726573732c616464726573732c75696e81527f7432353629000000000000000000000000000000000000000000000000000000602082015260250160405180910390206040517f7472616e7366657228616464726573732c75696e743235362900000000000000815260190160405180910390206040517f617070726f766528616464726573732c75696e74323536290000000000000000815260180160405180910390206040517f6f776e65724f662875696e743235362900000000000000000000000000000000815260100160405180910390206040517f62616c616e63654f662861646472657373290000000000000000000000000000815260120160405180910390206040517f746f74616c537570706c792829000000000000000000000000000000000000008152600d0160405180910390206040517f73796d626f6c2829000000000000000000000000000000000000000000000000815260080160405180910390206040517f6e616d6528290000000000000000000000000000000000000000000000000000815260060160405180910390201818181818181818187bffffffffffffffffffffffffffffffffffffffffffffffffffffffff1916827bffffffffffffffffffffffffffffffffffffffffffffffffffffffff1916145b92915050565b6112a96153cc565b60008054600181600116156101000203166002900480601f01602080910402602001604051908101604052809291908181526020018280546001816001161561010002031660029004801561133f5780601f106113145761010080835404028352916020019161133f565b820191906000526020600020905b81548152906001019060200180831161132257829003601f168201915b505050505090505b90565b6113543382614186565b151561135f57600080fd5b61136981836141a6565b7f8c5be1e5ebec7d5bd14f71427d1e84f3dd0314c0f7b2291e5b200ac8c7c3b925338383604051600160a060020a039384168152919092166020820152604080820192909252606001905180910390a15050565b6113c881600061311a565b50565b6000808080808080808815156113e057600080fd5b6113ea338a614186565b15156113f557600080fd5b600260008a8152601c6020526040902060060154610100900460ff161461141b57600080fd5b5050506000868152601e602052604081206003810154601254825460028401546001850154601654969b5060ff8086169b506101009586900481169a506064959094048416909202939093049650600160a060020a0330163195509293429390920192909210918688018116911614811561149957600297506114a4565b80156114a457600197505b50505091939590929450565b81158015906114c0575060035482105b15156114cb57600080fd5b80158015906114db575060035481105b15156114e657600080fd5b6001600c54036003828154811015156114fb57fe5b90600052602060002090600502016003015410151561151957600080fd5b6000828152600d60205260409020819055600380548290811061153857fe5b90600052602060002090600502016003015460010160038381548110151561155c57fe5b9060005260206000209060050201600301819055507f0900f87897aa374bb21fa36753905fa2944dd2301242246101a9047a0ed227a082826003858154811015156115a357fe5b90600052602060002090600502016003015460405180848152602001838152602001828152602001935050505060405180910390a15050565b600354600090818111156115ef57600019015b8091505b5090565b611607611602611fba565b612255565b565b600160a060020a0333166000908152601f602052604090205490565b60008060008060006116356153de565b60008082526020820181905260408201819052606082018190526004965080808a1580159061166557506003548b105b151561167057600080fd5b89151561167c57600080fd5b611686338c614186565b151561169157600080fd5b60008b8152600d602052604090205492508215156116ae57600080fd5b6000838152600d602052604090205491508115156116cb57600080fd5b506000818152600d60205260409020548015156116e757600080fd5b600398506003838154811015156116fa57fe5b60009182526020909120600590910201548a11611723576002985089848a5b60200201526118b6565b600380548490811061173157fe5b90600052602060002090600502016000015460038381548110151561175257fe5b6000918252602090912060059091020154018a116117bb576003805460019a508490811061177c57fe5b6000918252602090912060059091020154604085015260038054849081106117a057fe5b60009182526020909120600590910201548a03846001611719565b60038054849081106117c957fe5b9060005260206000209060050201600001546003838154811015156117ea57fe5b90600052602060002090600502016000015460038381548110151561180b57fe5b600091825260209091206005909102015401018a116118b6576003805460009a508490811061183657fe5b60009182526020909120600590910201546040850152600380548390811061185a57fe5b60009182526020918290206005909102015490850152600380548390811061187e57fe5b90600052602060002090600502016000015460038481548110151561189f57fe5b60009182526020909120600590910201548b030384525b60408401519750602084015196508351955030600160a060020a0316319450505050509295509295909350565b6118eb6153de565b600080825260208201819052604082018190526060820181905260015b6003548110156119c157600380548290811061192057fe5b9060005260206000209060050201600301549150600c548260ff16101561198e57600380548290811061194f57fe5b60009182526020909120600590910201548360ff84166004811061196f57fe5b6020020151018360ff84166004811061198457fe5b60200201526119b9565b600380548290811061199c57fe5b600091825260209091206005909102015460608401510160608401525b600101611908565b505090565b600460205260009081526040902054600160a060020a031681565b600160a060020a03821615156119f657600080fd5b30600160a060020a031682600160a060020a031614151515611a1757600080fd5b611a2133826141e1565b1515611a2c57600080fd5b611a368382614186565b1515611a4157600080fd5b611a4c838383614201565b505050565b600a5433600160a060020a03908116911614611a6957fe5b611a738383614186565b1515611a7e57600080fd5b80600383815481101515611a8e57fe5b9060005260206000209060050201600301819055507f48ed1b5769aee6cf16cda3da1db2a0acf83c194c9d2a98ebeff4904567af58f68383836040518084600160a060020a0316600160a060020a03168152602001838152602001828152602001935050505060405180910390a1505050565b600160a060020a0333166000908152601d60205260408120546116079161311a565b6000808080600160a060020a0386161515611b3d57600080fd5b841515611b4957600080fd5b339250611b558361431f565b9150611b608661431f565b905081811415611b6f57600080fd5b811515611b7b57600080fd5b801515611b8757600080fd5b600160a060020a038381166000818152600860209081526040808320948b168084529482528083208690559282528282208690556009815282822093825292909252908190208690557fe051949e9a44e2e9c21ee7d1c7b03ef0bf501aa3b7c4616a8543f229c0bede7a908790879051600160a060020a03909216825260208201526040908101905180910390a1600193505b50505092915050565b60008115801590611c35575060035482105b1515611c4057600080fd5b611c4982614369565b90508015611c5657600080fd5b6000828152600d6020526040812055600380547f399c331be71add502e95a2402ba7370605a945c1c6c1dc01c5e30f7e896cfa5691849182908110611c9757fe5b90600052602060002090600502016003015460405191825260208201526040908101905180910390a15050565b600a5433600160a060020a03908116911614611cdc57fe5b611ce68282614186565b1515611cf157600080fd5b6003805482908110611cff57fe5b906000526020600020906005020160030154600101600382815481101515611d2357fe5b9060005260206000209060050201600301819055507fb6ffa2bc58069f160ac94855c396bc8a7c591ae4b9e69d78cc004ad2e4d70d858282604051600160a060020a03909216825260208201526040908101905180910390a15050565b601a6020526000908152604090205481565b600160a060020a0333166000908152601d602052604090205461160790600161311a565b6000600160a060020a0384161515611dcd57600080fd5b811515611dd957600080fd5b5081801515611dee57611deb8461431f565b90505b801515611dfa57600080fd5b611e058482846143c7565b7f8ee078ba6dd38678f9ffdc8f1df2d512559df0cae2db32c829459127e10031978484846040518084600160a060020a0316600160a060020a03168152602001838152602001828152602001935050505060405180910390a150505050565b611607611e6f611fba565b612a7c565b602154600090819081901515611e8957611f07565b5060015b602054811015611f07576020805482908110611ea557fe5b906000526020600020906002020160010160169054906101000a900460ff161515611eff576020805482908110611ed857fe5b6000918252602090912060016002909202010154600160a060020a03169250905080611f07565b600101611e8d565b509091565b6000600160a060020a0384161515611f2357600080fd5b811515611f2f57600080fd5b5081801515611f4457611f418461431f565b90505b801515611f5057600080fd5b611f5b8482846144b5565b7ff3d0e22890d929d2a1cd5ca9e5f6498c4271ce2f0223ab4092297c2d11c9ef758484846040518084600160a060020a0316600160a060020a03168152602001838152602001828152602001935050505060405180910390a150505050565b600a5460009033600160a060020a0390811691161415611fdc57506000611347565b611fe533614577565b905090565b6000611fe5611ff7611fba565b601954612e69565b600081815260046020526040812054600160a060020a031680151561129b57600080fd5b600080600160a060020a038416151561203b57600080fd5b82151561204757600080fd5b5033612054818585612c12565b949350505050565b6120646153cc565b600380548390811061207257fe5b90600052602060002090600502016001018054600181600116156101000203166002900480601f0160208091040260200160405190810160405280929190818152602001828054600181600116156101000203166002900480156121175780601f106120ec57610100808354040283529160200191612117565b820191906000526020600020905b8154815290600101906020018083116120fa57829003601f168201915b50505050509050919050565b600160a060020a031660009081526005602052604090205490565b600b5433600160a060020a0390811691161461215957600080fd5b600b54600a54600160a060020a0391821691167f343765429aea5a34b3ff6a3785a98a5abb2597aca87bfbb58632c173d585373a60405160405180910390a3600b8054600a805473ffffffffffffffffffffffffffffffffffffffff19908116600160a060020a03841617909155169055565b601e6020526000908152604090208054600182015460028301546003909301549192909160ff808216916101008104821691620100009091041686565b6122116153cc565b61129b826145be565b600f5460105460115460125460135460145460155460165460175460185460195460ff8089169861010090048116979681169594169291908c565b6000806000806122636153de565b600086151561227157600080fd5b61227b3388614186565b151561228657600080fd5b60026000888152601c6020526040902060060154610100900460ff16146122ac57600080fd5b6000878152601e60205260409020600281015460018201546016546003840154939950429190920110965060ff90811661010083048216928216929092011614935084806122f75750835b151561230257600080fd5b6012548654606491610100900460ff16026003880154919004935060ff61010082048116911611801561233a575061233a87846146b3565b1561240757600160a060020a03331683156108fc0284604051600060405180830381858888f19350505050151561237057600080fd5b6000878152601c6020526040902060068101805461ff0019166103001790556004018054840190556123a287846147fc565b91507f261826fbdc11ee0da48a5356542bcb46786deaed4c215b871d3df7a03652262d33888560035b604051600160a060020a039094168452602084019290925260408084019190915260ff90911660608301526080909101905180910390a16125a8565b600386015460ff80821661010090920416148061243f5750601454600387015460ff9182166101008204831691831691909101909116105b801561246357506000878152601c60205260409020600301546124639088906146b3565b15612529576000878152601c60205260409081902060030154600160a060020a0333169181156108fc02919051600060405180830381858888f1935050505015156124ad57600080fd5b6000878152601c6020526040902060068101805461ff001916610500179055600381015460049091018054820190556124e79088906147fc565b6000888152601c60205260409020600301549092507f261826fbdc11ee0da48a5356542bcb46786deaed4c215b871d3df7a03652262d903390899060056123cb565b6000878152601c6020526040808220600601805461ff0019166104001790557f261826fbdc11ee0da48a5356542bcb46786deaed4c215b871d3df7a03652262d9133918a919060049051600160a060020a039094168452602084019290925260408084019190915260ff90911660608301526080909101905180910390a15b600386015462010000900460ff168110156125f657601d60006004880183600581106125d057fe5b0154600160a060020a0316815260208101919091526040016000908120556001016125a8565b6000878152601e60205260408120818155600181018290556002810182905560038101805462ffffff19169055906126316004830182615405565b505061263b6153de565b5050505050505050565b600a54600160a060020a031681565b600354600090819060015b8181101561269357600380548290811061267557fe5b6000918252602090912060059091020154929092019160010161265f565b509092915050565b6126a36153cc565b60018054600181600116156101000203166002900480601f01602080910402602001604051908101604052809291908181526020018280546001816001161561010002031660029004801561133f5780601f106113145761010080835404028352916020019161133f565b600080600160a060020a038516151561272657600080fd5b8584141561273357600080fd5b85151561273f57600080fd5b83151561274b57600080fd5b82151561275757600080fd5b5033600160a060020a038181166000818152600860209081526040808320948a168084529482528083208990559282528282208a90556009815282822093825292909252908190208490557fef4beaa380feab20776f162f92bbf15b04c59f8fd4e8ab2508b8d29fed7dfd6190879087908790879051938452600160a060020a03909216602084015260408084019190915260608301919091526080909101905180910390a150600195945050505050565b600d6020526000908152604090205481565b600160a060020a0333166000908152601a602052604090205490565b600a54600090819033600160a060020a0390811691161461285457fe5b61285c611e74565b9092509050600160a060020a0382161580159061287857508015155b156128d357601854600f5461288e9184916132b0565b7fa2b47dc564bd9b8719fa8435590eb01665bade49e1fa4890022587a074d9e4268282604051600160a060020a03909216825260208201526040908101905180910390a15b5050565b6000601c60006128e5611fba565b8152602081019190915260400160002060060154610100900460ff16919050565b601d6020526000908152604090205481565b602280548290811061292657fe5b600091825260209091200154905081565b600660205260009081526040902054600160a060020a031681565b600160a060020a038216151561296757600080fd5b30600160a060020a031682600160a060020a03161415151561298857600080fd5b6129923382614186565b151561299d57600080fd5b6128d3338383614201565b600160a060020a0333166000908152601b602052604090205490565b60006129d08383614186565b15156129db57600080fd5b60038054839081106129e957fe5b906000526020600020906005020160030154905092915050565b6000612a0d6153cc565b6000806000612a1b866145be565b93506000925083519150600090505b81811015612a72576003848281518110612a4057fe5b9060200190602002015181548110612a5457fe5b60009182526020909120600590910201549290920191600101612a2a565b5090949350505050565b801515612a8857600080fd5b612a923382614186565b1515612a9d57600080fd5b6000818152601c60205260409020600301541515612aba57600080fd5b6000818152601c602052604090206006015460ff6101009091041660011415612ae257600080fd5b610400600382815481101515612af457fe5b6000918252602080832060059283020160040193909355838252601c90925260409081902060068101805461ff00191661010017905542600182015560038101549201547ff5d2d36fd2c60192fd8f874c962737f1858ff797bf9865d071ade33eeee007019284929091905180848152602001838152602001828152602001935050505060405180910390a150565b33600160a060020a0381166000908152601b6020526040812054909134918215801590612bb25750600f548310155b1515612bbd57600080fd5b801515612bc957600080fd5b600160a060020a0382166000908152601a60205260409020548314612bed57600080fd5b612bf8828285614e23565b935050505090565b601f6020526000908152604090205481565b600080808080600160a060020a0387161515612c2d57600080fd5b851515612c3957600080fd5b50505050600160a060020a0384811660008181526008602090815260408083209488168084529482528083205493835280832054600983528184209584529490915290205486929081831415612c8e57600080fd5b821515612c9a57600080fd5b811515612ca657600080fd5b801515612cb257600080fd5b85811015612cbf57600080fd5b612ccc848389868a614fd1565b600160a060020a038481166000908152600960209081526040808320938b168352929052208054879003908190551515612d4457600160a060020a038481166000818152600960209081526040808320948c168084529482528083208390559282526008815282822090528181208190559182528120555b600160a060020a038085166000908152600960209081526040808320938b168352929052819020547fa085ba1c72fda1f13ecb6e0347284ac7d016a73b7a47c0ba151368bbe5ce2db9918a9185918b9188918c919051600160a060020a0396871681526020810195909552929094166040808501919091526060840191909152608083019390935260a082015260c001905180910390a1506001979650505050505050565b6000612df36153cc565b6000612dfe856145be565b915060009250600090505b8151811015612e61578360ff16601c6000848481518110612e2657fe5b906020019060200201518152602081019190915260400160002060060154610100900460ff161415612e59576001909201915b600101612e09565b505092915050565b60008080841515612e7957600080fd5b612e833386614186565b1515612e8e57600080fd5b831515612e9a57600080fd5b60016000868152601c6020526040902060060154610100900460ff1614612ec057600080fd5b6012546000868152601c602052604090206006015460ff918216911610612ee657600080fd5b601254606490610100900460ff1685026013546000888152601c60205260409020600401549290910493509083011115612f1f57600080fd5b506000848152601c6020526040902060028101546001909101540142811015612f4757600080fd5b60e06040519081016040908152858252426020830152601554818301526000606083018190526080830181905260a08084019190915260c083019151908101604090815260008083526020808401829052828401829052606084018290526080840182905292909352888352601e9091529020815181556020820151816001015560408201518160020155606082015160038201805460ff191660ff9290921691909117905560808201518160030160016101000a81548160ff021916908360ff16021790555060a08201518160030160026101000a81548160ff021916908360ff16021790555060c08201516130449060048301906005615428565b5050506000858152601c60205260409020600601805461ff001960ff198216600160ff9384168101909316171661020017909155602280549091810161308a838261548b565b506000918252602080832091909101879055868252601c9052604090819020600601547fb3ef0c14cd9ed6533151b9a921ddb33f8716dd3593254ffc741ae770313e3bea918791879160ff9091169051928352602083019190915260ff166040808301919091526060909101905180910390a1506001949350505050565b601b6020526000908152604090205481565b60008083151561312957600080fd5b600160a060020a0333166000908152601d6020526040902054841461314d57600080fd5b6000848152601c602052604090206006015460ff6101009091041660021461317457600080fd5b50506000828152601e6020526040902060028101546001820154014281101561319c57600080fd5b82156131bf5760038201805460ff8082166001011660ff199091161790556131e1565b60038201805460ff61010080830482166001019091160261ff00199091161790555b601d600033600160a060020a0316600160a060020a03168152602001908152602001600020600090557f8d85a70fd2c5d140a4a01143492d27ff82cfad4cead313e66c53f39b0feb5e0f338585604051600160a060020a039093168352602083019190915215156040808301919091526060909101905180910390a150505050565b600060038281548110151561327457fe5b9060005260206000209060050201600001549050919050565b600960209081526000928352604080842090915290825290205481565b600c5481565b600a5460009033600160a060020a039081169116146132cb57fe5b600160a060020a03841615156132e057600080fd5b8215156132ec57600080fd5b81158015906132fd5750600f548210155b151561330857600080fd5b50600160a060020a0383166000908152601a60209081526040808320849055601b8252808320859055601f9091529020548015801590613349575060205481105b156133ea57600160208281548110151561335f57fe5b6000918252602080832060016002909302019190910180549315157601000000000000000000000000000000000000000000000276ff000000000000000000000000000000000000000000001990941693909317909255600160a060020a0386168152601f909152604081205560218054600019019081905515156133ea576133ea602060006154af565b7f21619a95128e7e5c5367774b6479b6edbc059210239e39bbd50dbae00cfe09728484846040518084600160a060020a0316600160a060020a03168152602001838152602001828152602001935050505060405180910390a150505050565b600b54600160a060020a031681565b60006134626154d0565b600160a060020a0333166000908152601f602052604090205491508115801561348e5750601754602154105b156115f35760a06040519081016040528042815260200133600160a060020a03168152602001600160ff168152602001600060ff1681526020016000151581525090506001602080548060010182816134e791906154fe565b6000928352602090922084916002020181518155602082015160018201805473ffffffffffffffffffffffffffffffffffffffff1916600160a060020a039290921691909117905560408201518160010160146101000a81548160ff021916908360ff16021790555060608201518160010160156101000a81548160ff021916908360ff1602179055506080820151600190910180549115157601000000000000000000000000000000000000000000000276ff0000000000000000000000000000000000000000000019909216919091179055500391508115156136b5576001602080548060010182816135dc91906154fe565b6000928352602090922084916002020181518155602082015160018201805473ffffffffffffffffffffffffffffffffffffffff1916600160a060020a039290921691909117905560408201518160010160146101000a81548160ff021916908360ff16021790555060608201518160010160156101000a81548160ff021916908360ff1602179055506080820151600190910180549115157601000000000000000000000000000000000000000000000276ff0000000000000000000000000000000000000000000019909216919091179055500391505b63ffffffff821682146136c757600080fd5b33600160a060020a0381166000908152601f6020526040908190208490556021805460010190557f59470163a7d3423114f115af31707633dd4930abac0f3662fc3c4ef323f39a869190849051600160a060020a03909216825260208201526040908101905180910390a15090565b601c602052600090815260409020805460018201546002830154600384015460048501546005860154600690960154949593949293919290919060ff8082169161010090041688565b6023546022540390565b600760209081526000928352604080842090915290825290205481565b6000600360008154811015156137b857fe5b906000526020600020906005020160000154905090565b6113c881600161311a565b60215481565b60208054829081106137ee57fe5b600091825260209091206002909102018054600190910154909150600160a060020a0381169060ff740100000000000000000000000000000000000000008204811691750100000000000000000000000000000000000000000081048216917601000000000000000000000000000000000000000000009091041685565b6138746153cc565b6000828152600d6020526040812054905b600c548110156138c2578183828151811061389c57fe5b60209081029091018101919091526000928352600d905260409091205490600101613885565b5050919050565b600860209081526000928352604080842090915290825290205481565b600a5433600160a060020a039081169116146138fe57fe5b600a54600160a060020a038281169116141561391957600080fd5b600b805473ffffffffffffffffffffffffffffffffffffffff1916600160a060020a0392909216919091179055565b600a5460009081908190819033600160a060020a0390811691161461396957fe5b6022546023541061397957600080fd5b602260235481548110151561398a57fe5b6000918252602090912001549350600160a060020a03851615156139ad57600080fd5b8315156139b957600080fd5b60026000858152601c6020526040902060060154610100900460ff16146139df57600080fd5b6000848152601e60205260409020805490935015156139fd57600080fd5b6002830154600184015401915042821015613a1757600080fd5b50600382015460165460ff62010000909204821691168110613a3857600080fd5b846004840160ff831660058110613a4b57fe5b01805473ffffffffffffffffffffffffffffffffffffffff1916600160a060020a0392831617905560038401805462ff0000198116620100009182900460ff9081166001018116909202179091559086166000908152601d6020526040902085905560165481169082161415613ae35760238054600101908190556022541415613ae35760006023819055613ae160228261548b565b505b5050505050565b6000600160a060020a0382161515613b0157600080fd5b600160a060020a0383161515613b1657600080fd5b50600160a060020a03918216600090815260096020908152604080832093909416825291909152205490565b6000806000806000613b548787615161565b9350613b5f84614369565b9250613b6b878761518f565b915081831015613bd257613b7f87856114b0565b7f69186e91a26c2cd1f67397df408ddeb0db9249dbd6e2a428ad8ae0d59ba3bc88878588604051928352602083019190915260ff166040808301919091526060909101905180910390a160019450613de9565b600e805460ff8816908110613be357fe5b906000526020600020906006020160010154600e8760ff16815481101515613c0757fe5b9060005260206000209060060201600301541415613c285760009450613de9565b613d1a6000600386815481101515613c3c57fe5b90600052602060002090600502016001018054600181600116156101000203166002900480601f016020809104026020016040519081016040528092919081815260200182805460018160011615610100020316600290048015613ce15780601f10613cb657610100808354040283529160200191613ce1565b820191906000526020600020905b815481529060010190602001808311613cc457829003601f168201915b5050505050600387815481101515613cf557fe5b6000918252602090912060026005909202010154600a54600160a060020a03166151c0565b90508015613de457613d2f8160018803613b42565b15613de457613d3e87826114b0565b7f69186e91a26c2cd1f67397df408ddeb0db9249dbd6e2a428ad8ae0d59ba3bc88878288604051928352602083019190915260ff166040808301919091526060909101905180910390a180600e8760ff16815481101515613d9b57fe5b6000918252602090912060046006909202010155600e805460ff8816908110613dc057fe5b60009182526020909120600360069092020101805460019081019091559450613de9565b600094505b5050505092915050565b6000808080808080808815801590613e0c575060035489105b1515613e1757600080fd5b6001600c540360038a815481101515613e2c57fe5b906000526020600020906005020160030154141515613e4a57600080fd5b6000898152600d60205260409020549650861515613e6757600080fd5b6000878152600d60205260409020549550851515613e8457600080fd5b6000868152600d60205260409020549450841515613ea157600080fd5b6064600e6002815481101515613eb357fe5b90600052602060002090600602016005015460038b815481101515613ed457fe5b90600052602060002090600502016000015402811515613ef057fe5b049350831515613eff57600080fd5b6064600e6001815481101515613f1157fe5b90600052602060002090600602016005015460038b815481101515613f3257fe5b90600052602060002090600502016000015402811515613f4e57fe5b049250821515613f5d57600080fd5b6064600e6000815481101515613f6f57fe5b90600052602060002090600602016005015460038b815481101515613f9057fe5b90600052602060002090600502016000015402811515613fac57fe5b049150811515613fbb57600080fd5b81838560038c815481101515613fcd57fe5b60009182526020909120600590910201540303039050801515613fef57600080fd5b83600388815481101515613fff57fe5b9060005260206000209060050201600001540160038881548110151561402157fe5b6000918252602090912060059091020155600380548491908890811061404357fe5b9060005260206000209060050201600001540160038781548110151561406557fe5b6000918252602090912060059091020155600380548391908790811061408757fe5b906000526020600020906005020160000154016003868154811015156140a957fe5b600091825260208220600590910201919091556003805483929081106140cb57fe5b90600052602060002090600502016000015401600360008154811015156140ee57fe5b60009182526020822060059091020191909155600380548b90811061410f57fe5b60009182526020909120600590910201557fcfd3c3fcdcb63bcee48ff9a9ec28351afef5ba4fc9b5a8f46d5aa65565a3b1a38983858785604051808681526020018581526020018481526020018381526020018281526020019550505050505060405180910390a150600198975050505050505050565b600090815260046020526040902054600160a060020a0391821691161490565b600091825260066020526040909120805473ffffffffffffffffffffffffffffffffffffffff1916600160a060020a03909216919091179055565b600090815260066020526040902054600160a060020a0391821691161490565b61040060038281548110151561421357fe5b9060005260206000209060050201600401541415151561422f57fe5b600160a060020a0380831660008181526005602090815260408083208054600101905585835260049091529020805473ffffffffffffffffffffffffffffffffffffffff191690911790558316156142ca57600160a060020a0383166000908152600560209081526040808320805460001901905583835260069091529020805473ffffffffffffffffffffffffffffffffffffffff191690555b7fddf252ad1be2c89b69c2b068fc378daa952ba7f163c4a11628f55a4df523b3ef838383604051600160a060020a039384168152919092166020820152604080820192909252606001905180910390a1505050565b60006143296153cc565b6000614334846145be565b91508151905080151561434a57600092506138c2565b8160008151811061435757fe5b90602001906020020151949350505050565b60008080831580159061437d575060035484105b151561438857600080fd5b6143906115dc565b915060009250600190505b8181116138c2576000818152600d60205260409020548414156143bf576001909201915b60010161439b565b6143d18383614186565b15156143dc57600080fd5b8015156143e857600080fd5b806003838154811015156143f857fe5b6000918252602090912060059091020154101561441457600080fd5b8060038381548110151561442457fe5b9060005260206000209060050201600001540360038381548110151561444657fe5b60009182526020909120600590910201557f45dacd427fd388bf162986dbc958cdcf160c31b40efe076907cff377b9857c798383836040518084600160a060020a0316600160a060020a03168152602001838152602001828152602001935050505060405180910390a1505050565b6144bf8383614186565b15156144ca57600080fd5b8015156144d657600080fd5b806003838154811015156144e657fe5b9060005260206000209060050201600001540160038381548110151561450857fe5b60009182526020909120600590910201557f20f4934a3b4928cca0e51f3f1eaac12dee9af151a8a8ba5a424a89d93f6bf53d8383836040518084600160a060020a0316600160a060020a03168152602001838152602001828152602001935050505060405180910390a1505050565b60006145816153cc565b61458a836145be565b9050600081511161459c5760006145b7565b806001825103815181106145ac57fe5b906020019060200201515b9392505050565b6145c66153cc565b60006145d06153cc565b60008080600160a060020a03871615156145e957600080fd5b6145f287612123565b945084151561462257600060405180591061460a5750595b908082528060200260200182016040525095506146a9565b846040518059106146305750595b9080825280602002602001820160405250935061464b6115dc565b925060009150600190505b8281116146a557600081815260046020526040902054600160a060020a038881169116141561469d578084838060010194508151811061469257fe5b602090810290910101525b600101614656565b8395505b5050505050919050565b6000828152600d602052604081205481808215156146d057600080fd5b6000838152600d602052604090205491508115156146ed57600080fd5b506000818152600d602052604090205480151561470957600080fd5b600380548490811061471757fe5b600091825260209091206005909102015485116147375760019350611c1a565b600380548490811061474557fe5b90600052602060002090600502016000015460038381548110151561476657fe5b60009182526020909120600590910201540185116147875760019350611c1a565b600380548490811061479557fe5b9060005260206000209060050201600001546003838154811015156147b657fe5b9060005260206000209060050201600001546003838154811015156147d757fe5b600091825260209091206005909102015401018511611c1a5750600195945050505050565b6148046153de565b600080808515801590614818575060035486105b151561482357600080fd5b84151561482f57600080fd5b60008085526020808601829052604080870183905260608701839052888352600d909152902054925082151561486457600080fd5b6000838152600d6020526040902054915081151561488157600080fd5b506000818152600d602052604090205480151561489d57600080fd5b60038054849081106148ab57fe5b6000918252602090912060059091020154851161495b57604084018581525160038054859081106148d857fe5b906000526020600020906005020160000154036003848154811015156148fa57fe5b60009182526020909120600590910201557f7c6ae15e271230e8f8b92de835be76e504f4bb32c5c02872b19e167d6d100fbf86866002604051928352602083019190915260ff166040808301919091526060909101905180910390a1611c1a565b600380548490811061496957fe5b90600052602060002090600502016000015460038381548110151561498a57fe5b6000918252602090912060059091020154018511614b1e577ff5e9c26d6f4f4192de6ab81062e5f90501d77f924b508e44728a2b78d3c12c6d8684876002604051938452602084019290925260408084019190915260ff90911660608301526080909101905180910390a16003805484908110614a0357fe5b600091825260209091206005909102015460408501526003805484908110614a2757fe5b60009182526020918290206005909102015486039085015260408401516003805485908110614a5257fe5b90600052602060002090600502016000015403600384815481101515614a7457fe5b600091825260209091206005909102015583600160200201516003805484908110614a9b57fe5b90600052602060002090600502016000015403600383815481101515614abd57fe5b60009182526020909120600590910201557f7c6ae15e271230e8f8b92de835be76e504f4bb32c5c02872b19e167d6d100fbf86866001604051928352602083019190915260ff166040808301919091526060909101905180910390a1611c1a565b6003805484908110614b2c57fe5b906000526020600020906005020160000154600383815481101515614b4d57fe5b906000526020600020906005020160000154600383815481101515614b6e57fe5b600091825260209091206005909102015401018511614d8d577ff5e9c26d6f4f4192de6ab81062e5f90501d77f924b508e44728a2b78d3c12c6d8683876001604051938452602084019290925260408084019190915260ff90911660608301526080909101905180910390a16003805484908110614be857fe5b600091825260209091206005909102015460408501526003805483908110614c0c57fe5b600091825260209182902060059091020154908501526003805483908110614c3057fe5b906000526020600020906005020160000154600384815481101515614c5157fe5b6000918252602090912060059091020154860303845260408401516003805485908110614c7a57fe5b90600052602060002090600502016000015403600384815481101515614c9c57fe5b600091825260209091206005909102015583600160200201516003805484908110614cc357fe5b90600052602060002090600502016000015403600383815481101515614ce557fe5b600091825260209091206005909102015583516003805483908110614d0657fe5b90600052602060002090600502016000015403600382815481101515614d2857fe5b9060005260206000209060050201600001819055507f7c6ae15e271230e8f8b92de835be76e504f4bb32c5c02872b19e167d6d100fbf86866000604051928352602083019190915260ff166040808301919091526060909101905180910390a1611c1a565b7ff5e9c26d6f4f4192de6ab81062e5f90501d77f924b508e44728a2b78d3c12c6d8682876000604051938452602084019290925260408084019190915260ff90911660608301526080909101905180910390a17f95f5c188d1321fe8984cadebc18c8fcaddc6cedbf14ee92f03f318c0e2038485868660405191825260208201526040908101905180910390a150505092915050565b600080614e668360408051908101604052600c81527f43726f7764737572616e6365000000000000000000000000000000000000000060208201526000886151c0565b90506101006040519081016040528042815260200160008152602001600f60010154815260200184815260200160008152602001858152602001600060ff16815260200160006005811115614eb757fe5b60ff1690526000828152601c60205260409020815181556020820151816001015560408201518160020155606082015181600301556080820151816004015560a0820151816005015560c082015160068201805460ff191660ff9290921691909117905560e08201516006909101805460ff929092166101000261ff001990921691909117905550614f48816153b2565b507fbca387acb0ba7d06e329c4372885bb664f19a98153ccf3e74e56c136bf0e88c48582856040518084600160a060020a0316600160a060020a03168152602001838152602001828152602001935050505060405180910390a1600160a060020a0385166000908152601a60209081526040808320839055601b90915281205590509392505050565b614fdb8585614186565b1515614fe657600080fd5b614ff08383614186565b1515614ffb57600080fd5b80151561500757600080fd5b8382141561501457600080fd5b8060038581548110151561502457fe5b6000918252602090912060059091020154101561504057600080fd5b61040060038581548110151561505257fe5b9060005260206000209060050201600401541415151561507157600080fd5b8060038581548110151561508157fe5b906000526020600020906005020160000154036003858154811015156150a357fe5b600091825260209091206005909102015560038054829190849081106150c557fe5b906000526020600020906005020160000154016003838154811015156150e757fe5b60009182526020909120600590910201557f6d401b913d27047ecd2042f0331e2354d30e664920b31480dc71955edb996c388585858585604051600160a060020a0395861681526020810194909452919093166040808401919091526060830193909352608082015260a001905180910390a15050505050565b6000600e8260ff1681548110151561517557fe5b906000526020600020906006020160040154905092915050565b60006001600e8360ff168154811015156151a557fe5b90600052602060002090600602016002015403905092915050565b60006151ca61552a565b600060a060405190810160405280888152602001878152602001868152602001600081526020016000815250915060016003805480600101828161520e9190615560565b600092835260209092208591600502018151815560208201518160010190805161523c92916020019061558c565b5060408201518160020155606082015181600301556080820151600490910155500390508015156152d05760016003805480600101828161527d9190615560565b60009283526020909220859160050201815181556020820151816001019080516152ab92916020019061558c565b5060408201518160020155606082015181600301556080820151816004015550500390505b63ffffffff811681146152e257600080fd5b7fdea8e87d69047e1b3cd43ad599d34e3eacfe4408b4dfc5d0f6ac6a15a468de5c8787878760405184815260408101839052600160a060020a038216606082015260806020820181815290820185818151815260200191508051906020019080838360005b8381101561535f578082015183820152602001615347565b50505050905090810190601f16801561538c5780820380516001836020036101000a031916815260200191505b509550505050505060405180910390a16153a860008583614201565b9695505050505050565b60008115801590610f9157506003548210610f9c57600080fd5b60206040519081016040526000815290565b60806040519081016040526004815b60008152602001906001900390816153ed5790505090565b506000815560010160008155600101600081556001016000815560010160009055565b826005810192821561547f579160200282015b8281111561547f578251825473ffffffffffffffffffffffffffffffffffffffff1916600160a060020a03919091161782556020929092019160019091019061543b565b506115f3929150615606565b815481835581811511611a4c57600083815260209020611a4c918101908301615637565b50805460008255600202906000526020600020908101906113c89190615651565b60a0604051908101604090815260008083526020830181905290820181905260608201819052608082015290565b815481835581811511611a4c57600202816002028360005260206000209182019101611a4c9190615651565b60a060405190810160405280600081526020016155456153cc565b81526020016000815260200160008152602001600081525090565b815481835581811511611a4c57600502816005028360005260206000209182019101611a4c919061568d565b828054600181600116156101000203166002900490600052602060002090601f016020900481019282601f106155cd57805160ff19168380011785556155fa565b828001600101855582156155fa579182015b828111156155fa5782518255916020019190600101906155df565b506115f3929150615637565b61134791905b808211156115f357805473ffffffffffffffffffffffffffffffffffffffff1916815560010161560c565b61134791905b808211156115f3576000815560010161563d565b61134791905b808211156115f3576000815560018101805476ffffffffffffffffffffffffffffffffffffffffffffff19169055600201615657565b61134791905b808211156115f35760008082556156ad60018301826156cb565b50600060028201819055600382018190556004820155600501615693565b50805460018160011615610100020316600290046000825580601f106156f157506113c8565b601f0160209004906000526020600020908101906113c891906156375600a165627a7a72305820e4f8e5aee4ad440056641f2c33f0f2545283f723b5ba8317e6be2c7a5a61b47f0029",
  "source": "// \n// MIT License\n// \n// Copyright (c) 2018 REGA Risk Sharing\n//   \n// Permission is hereby granted, free of charge, to any person obtaining a copy\n// of this software and associated documentation files (the \"Software\"), to deal\n// in the Software without restriction, including without limitation the rights\n// to use, copy, modify, merge, publish, distribute, sublicense, and/or sell\n// copies of the Software, and to permit persons to whom the Software is\n// furnished to do so, subject to the following conditions:\n// \n// The above copyright notice and this permission notice shall be included in all\n// copies or substantial portions of the Software.\n// \n// THE SOFTWARE IS PROVIDED \"AS IS\", WITHOUT WARRANTY OF ANY KIND, EXPRESS OR\n// IMPLIED, INCLUDING BUT NOT LIMITED TO THE WARRANTIES OF MERCHANTABILITY,\n// FITNESS FOR A PARTICULAR PURPOSE AND NONINFRINGEMENT. IN NO EVENT SHALL THE\n// AUTHORS OR COPYRIGHT HOLDERS BE LIABLE FOR ANY CLAIM, DAMAGES OR OTHER\n// LIABILITY, WHETHER IN AN ACTION OF CONTRACT, TORT OR OTHERWISE, ARISING FROM,\n// OUT OF OR IN CONNECTION WITH THE SOFTWARE OR THE USE OR OTHER DEALINGS IN THE\n// SOFTWARE.\n// \n// Author: Sergei Sevriugin\n// Version: 0.0.1\n//  \n\npragma solidity ^0.4.17;\n\nimport './TokenPool.sol';\n/// TokenCrowdsurance is ERC721SmartToken for crowdsurance products. \n/// Crowdsurance, meaning people unite in communities to provide a guarantee of compensation for unexpected loss. \n/// Using ERC721SmartToken crowdsurance product can be 'tokenized' and can be availible as ERC20 token.\ncontract TokenCrowdsurance is TokenPool {\n    /// Crowdsurance token ERC721 extention\n    /// @param timeStamp join time stemp\n    /// @param activated coverage activation time stamp\n    /// @param duration crowdsurance coverage duration\n    /// @param amount join amount\n    /// @param paid paid claim amount\n    /// @param score member score\n    /// @param claimNumber number of claims\n    /// @param status crowdsurance status\n    struct Crowdsurance {\n        uint        timeStamp;          // join time stamp\n        uint        activated;          // coverage activation time stamp\n        uint        duration;           // risk coverage duration\n        uint256     amount;             // join amount\n        uint256     paid;               // paid amount\n        uint256     score;              // score\n        uint8       claimNumber;        // number of claims\n        uint8       status;             // crowdsurance status\n    }\n    /// Crowdsurance claim\n    /// @param amount claim amount\n    /// @param timeStamp claim time stamp\n    /// @param duration voting period\n    /// @param positive votes to pay claims\n    /// @param negative votes not to pay\n    /// @param number member number\n    /// @param members\n    struct Request {\n        uint256     amount;             // claim amount\n        uint        timeStamp;          // claim time stamp\n        uint        duration;           // voting duration\n        uint8       positive;           // number of positive votes\n        uint8       negative;           // number of negative votes\n        uint8       number;             // juries number\n        address[5]  members;            // jury members \n    }\n    /// Crowdsurance parameters\n    /// @param joinAmount default join amount\n    /// @param coverageDuration default coverage duration\n    /// @param maxClaimAmount maximum claim amount\n    /// @param maxClaimNumber maximum number of claims\n    /// @param paymentRatio %% from claim to be paid\n    /// @param maxPaymentAmount maximum paid amount for all claims for the covarage\n    /// @param minJuriesNumber minimum number of juries to coint votes\n    /// @param votingDuration duration of jury voting process in sec\n    /// @param juriesNumber default juriesNumber - must correspond with Request members array lenght\n    struct Parameters {\n        uint256     joinAmount;         // default join amount\n        uint        coverageDuration;   // coverage duration\n        uint256     maxClaimAmount;     // max claim amount\n        uint8       maxClaimNumber;     // max claim number for the contract\n        uint8       paymentRatio;       // claim to payment patio\n        uint256     maxPaymentAmount;   // max payment amount for the contract\n        uint8       minJuriesNumber;    // min juries number to count voting \n        uint        votingDuration;     // juries voting duration\n        uint8       juriesNumber;       // number of juries\n        uint256     maxApplications;    // maximum number of unprocessed applications\n        uint256     averageScore;       // avarega score\n        uint256     defaultClaimAmount; // default claim amount\n    }\n    /// New member application\n    /// @param timeStamp application time stamp\n    /// @param member new member address \n    /// @param tokensToBuys number of tokens to buy\n    /// @param paymetMethod join payment method : 0 - ETH\n    /// @param processed application processing status\n    struct Application {\n        uint        timeStamp;          // application time stamp\n        address     member;             // new member address\n        uint8       tokensToBuy;        // number of tokens to buy\n        uint8       paymetMethod;       // payment method : 0 - ETH\n        bool        processed;          // processing status\n    }\n    /// Crowdsurance parameters\n    Parameters public parameters;\n    mapping (address => uint256) public addressToAmount;            // address to join amount mapping\n    mapping (address => uint256) public addressToScore;             // address to scoring mapping\n    mapping (uint256 => Crowdsurance) public extensions;            // crowdsurance extension mapping\n    mapping (address => uint256) public voters;                     // crowdsurance voting\n    mapping (uint256 => Request) public requests;                   // crowdsurance token Id to Claim\n    mapping (address => uint256) public addressToApplication;       // address to application mapping\n    Application[] public applications;                              // applications\n    uint256 public appNumber;                                       // number of applications to process\n    uint256[] public claims;\n    uint256 first;\n    /// TokenCrowdsurance Apply event\n    /// @param member new member address\n    /// @param appId member appication id\n    event Apply(address member, uint256 appId);\n    /// TokenCrowdsurance Join event\n    /// @param member new member addrsss\n    /// @param id NFT token id for crowdsurance token\n    /// @param amount paid to join\n    event Join(address member, uint256 id, uint256 amount);\n    /// TokenCrowdsurance Scoring event\n    /// @param member new member addrsss\n    /// @param score member scoring\n    /// @param amount join amount\n    event Scoring(address member, uint256 score, uint256 amount);\n    /// TokenCrowdsurance Activate event\n    /// @param id NFT Id to activate\n    /// @param amount acowdsurance join amount\n    /// @param score member scoring\n    event Activate(uint256 id, uint256 amount, uint256 score);\n    /// TokenCrowdsurance Activate event\n    /// @param id NFT Id to activate\n    /// @param claim claim amount\n    /// @param number total claims number incuding this one\n    event Claim(uint256 id, uint256 claim, uint8 number);\n    /// TokenCrowdsurance vote event\n    /// @param jury voter\n    /// @param id NFT token id to vote\n    /// @param positive voting result\n    event Vote(address jury, uint256 id, bool positive);\n    /// TokenCrowdsurance payment event\n    /// @param reciever reciever of the p[ayment\n    /// @param id NFT id for crowdsurance token\n    /// @param amount mayment amount\n    /// @param status payment status (Approved, Rejected, Closed)\n    event Payment(address reciever, uint256 id, uint256 amount, uint8 status);\n    /// FSSF event\n    /// @param member member address\n    /// @param appId application ID\n    event FSSF(address member, uint256 appId);\n    /// TokenCrowdsurance Status\n    enum Status {Init, Active, Claim, Approved, Rejected, Closed}\n    enum VotingState {Progress, Voted, Timeout}\n    /// scoring function\n    /// @param _member address of the member to score\n    /// @param _score member scoroing result\n    /// @param _amount join amount calculated based on score\n    function scoring(address _member, uint256 _score, uint256 _amount) ownerOnly public {\n        require(_member != address(0));\n        require(_score != uint256(0));\n        require(_amount != uint256(0) && _amount >= parameters.joinAmount);\n        addressToAmount[_member] = _amount;\n        addressToScore[_member] = _score;\n        \n        // clear appication\n        uint256 addId = addressToApplication[_member];\n        if(addId != uint256(0) && addId < applications.length) {\n            applications[addId].processed = true;\n            delete addressToApplication[_member];\n            appNumber--;\n            // if no more applications to process then clear the app array\n            if (appNumber == uint256(0)) {\n                delete applications;\n            }\n        }\n\n        // emit scoring event\n        Scoring(_member, _score, _amount);\n    }\n    function fssf() ownerOnly public {\n        address member;\n        uint256 appId;\n\n        (member, appId) = getApplication();\n\n        if(member != address(0) && appId != uint256(0)) {\n            scoring(member, parameters.averageScore, parameters.joinAmount);\n            // emit FSSF event\n            FSSF(member, appId);\n        }\n    }\n    /// get next application to process\n    function getApplication() view public returns (address member, uint256 appId) {\n        member = address(0);\n        appId = uint256(0);\n\n        if(appNumber == uint256(0)) {\n            return;\n        }\n\n        for(uint256 i = 1; i < applications.length; i++) {\n            if(!applications[i].processed) {\n                member = applications[i].member;\n                appId = i;\n                return;\n            }\n        }\n    }\n    /// get join amount for sender\n    function getJoinAmount() view public returns (uint256 amount) {\n        amount = addressToAmount[msg.sender];\n    }\n    /// get score\n    function getScore() view public returns (uint256 score) {\n        score = addressToScore[msg.sender];\n    }\n    /// get application ID\n    function getAppID() view public returns (uint256 appId) {\n        appId = addressToApplication[msg.sender];\n    }\n    /// apply function \n    /// @return application ID must be not zero if application is accepted \n    function apply() public returns(uint256 addId) {\n        addId = addressToApplication[msg.sender];\n\n        if (addId == uint256(0) && appNumber < parameters.maxApplications) {\n            // new application\n            Application memory app = Application({\n                timeStamp: now,\n                member: msg.sender,\n                tokensToBuy: uint8(1),\n                paymetMethod: uint8(0),\n                processed: false\n            });\n            \n            addId = applications.push(app) - 1;\n            if(addId == uint256(0)) {\n                // process the first one -- keep 0 index reserved\n                addId = applications.push(app) - 1;\n            }\n            require(addId == uint256(uint32(addId)));\n            addressToApplication[msg.sender] = addId;\n            appNumber++;\n\n            // emit Apply event\n            Apply(msg.sender, addId);\n        }\n    }\n    function _join(address _member, uint256 _score, uint256 _amount) internal returns(uint256) {\n        uint256 id = _createNFT(_amount, \"Crowdsurance\", uint256(0), _member);\n        // Create extension \n        extensions[id] = Crowdsurance ({\n            timeStamp: now,\n            activated: uint(0),\n            duration: parameters.coverageDuration,\n            amount: _amount,\n            paid: uint256(0),\n            score: _score,\n            claimNumber: uint8(0),\n            status: uint8(Status.Init)\n        });\n        // now insert in a subpool\n        _addTokenToSubPool(id);\n        // emit event \n        Join(_member, id, _amount);\n        // clear mapping\n        delete addressToAmount[_member];\n        delete addressToScore[_member];\n        \n        // return NFT token ID\n        return id;\n    }\n    /// join function\n    /// @return cowdsuranceId NFT token ID for created crowdsurance\n    function join() public payable returns(uint256 crowdsuranceId) {\n        uint256 amount = msg.value;\n        address member = msg.sender;\n        uint256 score = addressToScore[member];\n        require(amount != uint256(0) && amount >= parameters.joinAmount);\n        require(score != uint256(0));\n        require(amount == addressToAmount[member]);\n        // call internal _join after all checkups \n        crowdsuranceId = _join(member, score, amount);\n    }\n    /// activate function \n    /// @param _id NFT token ID to activate\n    function activate(uint256 _id) public {\n        require(_id != uint256(0));\n        require(_owns(msg.sender, _id));\n        require(extensions[_id].amount != uint256(0));\n        require(extensions[_id].status != uint8(Status.Active));        // protect multiple activation that extend coverage\n\n        nfts[_id].state = StateBlocked; // block transfer\n        extensions[_id].status = uint8(Status.Active);\n        extensions[_id].activated = now;\n        // emit event\n        Activate(_id, extensions[_id].amount, extensions[_id].score);\n    }\n    /// claim function\n    /// @param _id NFT token ID to claim payment \n    /// @param _claim claim amount\n    function claim(uint256 _id, uint256 _claim) public returns(bool) {\n        // check all conditions before accept the claim\n        require(_id != uint256(0));\n        require(_owns(msg.sender, _id));\n        require(_claim != uint256(0));\n        require(extensions[_id].status == uint(Status.Active));\n        require(extensions[_id].claimNumber < parameters.maxClaimNumber);\n        uint256 _payment = _claim * parameters.paymentRatio / 100;\n        require((extensions[_id].paid + _payment) <= parameters.maxPaymentAmount);\n        uint coverageEnd = extensions[_id].activated + extensions[_id].duration;\n        require(coverageEnd >= now);\n        // now ready to accept the claim request\n        // change status\n        requests[_id] = Request ({\n            amount: _claim,\n            timeStamp: now,\n            duration: parameters.votingDuration,\n            positive: uint8(0),\n            negative: uint8(0),\n            number: uint8(0),\n            members: [address(0), address(0), address(0), address(0), address(0)]\n        });\n        extensions[_id].claimNumber++;\n        extensions[_id].status = uint8(Status.Claim);\n        // add claim to the Queue\n        claims.push(_id);\n        // emit event\n        Claim(_id, _claim, extensions[_id].claimNumber);\n        return true;\n    }\n    function getNumberOfClaims() view public returns(uint256) {\n        return (claims.length - first);\n    }\n    /// add voter function\n    /// @param _jury voter address\n    function addVoter(address _jury) ownerOnly public {\n        require(first < claims.length);\n        uint256 _id = claims[first];\n        require(_jury != address(0));\n        require(_id != uint256(0));\n        require(extensions[_id].status == uint(Status.Claim));\n        Request storage _request = requests[_id];\n        require(_request.amount != uint256(0));\n        uint votingEnd = _request.timeStamp + _request.duration;\n        require(votingEnd >= now);\n        uint8 _number = _request.number;\n        require(_number < parameters.juriesNumber);\n\n        _request.members[_number] = _jury;\n        _request.number++;\n        voters[_jury] = _id;\n\n        if(_number == parameters.juriesNumber) {\n            first++;\n            if(first == claims.length) {\n                first = 0;\n                claims.length = 0;\n            }\n        }\n    }\n    /// vote function\n    /// @param _id NFT id for claim voting\n    /// @param _positive true if positive to pay claims\n    function vote(uint256 _id, bool _positive) public {\n        require(_id != uint256(0));\n        require(_id == voters[msg.sender]);\n        require(extensions[_id].status == uint8(Status.Claim));\n        Request storage _request = requests[_id];\n        uint votingEnd = _request.timeStamp + _request.duration;\n        require(votingEnd >= now);\n        \n        if(_positive) {\n            _request.positive++;\n        } else {\n            _request.negative++;\n        }\n        delete voters[msg.sender]; // deliting prevent the second time voting\n        // emit event\n        Vote(msg.sender, _id, _positive);\n    }\n    /// helpers voting \n    function castPositive(uint256 _id) public {\n        vote(_id, true);\n    }\n    function castNegative(uint256 _id) public {\n        vote(_id, false);\n    }\n    /// token ID helpers\n    function _getCurrentTokenId(address _owner) internal view returns (uint256 currentId) {\n        uint256[] memory tokenIds = _tokensOfOwner(_owner);\n        currentId = tokenIds.length > 0 ? tokenIds[tokenIds.length-1] : uint256(0);\n    }\n    function getCurrentTokenId() public view returns (uint256 currentId) {\n        if(msg.sender == owner) {\n            currentId = uint256(0);                         // return 0 for owner\n        }\n        else {\n            currentId = _getCurrentTokenId(msg.sender);     // for the rest it will be the last token owned\n        }\n    }\n    /// actions helpers for the current token ID\n    function activateCurrent() public {\n        activate(getCurrentTokenId());\n    }\n    function claimCurrent() public returns(bool) {\n        return claim(getCurrentTokenId(), parameters.defaultClaimAmount);\n    }\n    function paymentCurrent() public {\n        payment(getCurrentTokenId());\n    }\n    /// voting helpers\n    function castPositiveSelected() public {\n        vote(voters[msg.sender], true);\n    }\n    function castNegativeSelected() public {\n        vote(voters[msg.sender], false);\n    }\n    /// status helper\n    function getCurrentStatus() view public returns(uint8 status) {\n        status = extensions[getCurrentTokenId()].status;\n    }\n    function getCurrentVotingStatus() view public returns(uint8 status) {\n        VotingState state;\n        uint8 positive;\n        uint8 negative;\n        uint256 payment;\n        uint256 balance;\n\n        uint256 amount = extensions[getCurrentTokenId()].amount;\n        (state, positive, negative, payment, balance) = votingStatus(getCurrentTokenId());\n\n        status = 0;\n        if(state == VotingState.Timeout || state == VotingState.Voted) {\n            if( positive > negative && payment <= balance ) {\n                status = 1;\n            }\n            else if ( positive == negative && amount <= balance ) {\n                status = 2;\n            }\n            else {\n                status = 3;\n            }\n        }\n    }\n    /// check claim voting status\n    /// @param _id NFT token to check\n    function votingStatus(uint256 _id) public view returns (VotingState state, uint8 positive, uint8 negative, uint256 payment, uint256 balance) {\n        require(_id != uint256(0));\n        require(_owns(msg.sender, _id));\n        require(extensions[_id].status == uint(Status.Claim));\n        \n        Request storage _request = requests[_id];\n\n        positive = _request.positive;\n        negative = _request.negative;\n        state = VotingState.Progress;\n        payment = _request.amount * parameters.paymentRatio / 100;\n        balance = this.balance;\n        bool timeout = ( _request.timeStamp + _request.duration ) < now;\n        bool voted = ( _request.positive + _request.negative ) == parameters.juriesNumber;\n\n        if(timeout) {\n            state = VotingState.Timeout;\n        }\n        else if (voted) {\n            state = VotingState.Voted;\n        }\n        \n    }\n    /// get payment function\n    /// @param _id NFT token to get payment\n    function payment(uint256 _id) public {\n        require(_id != uint256(0));\n        require(_owns(msg.sender, _id));\n        require(extensions[_id].status == uint(Status.Claim));\n        Request storage _request = requests[_id];\n        bool timeout = ( _request.timeStamp + _request.duration ) < now;\n        bool voted = ( _request.positive + _request.negative ) == parameters.juriesNumber;\n        require(timeout || voted);\n        uint256 _payment = _request.amount * parameters.paymentRatio / 100;\n        uint256[4] memory distribution;\n        if((_request.positive > _request.negative) && _checkPayment(_id, _payment)) {\n            // pay claims\n            msg.sender.transfer(_payment);\n            extensions[_id].status = uint8(Status.Approved);\n            extensions[_id].paid = extensions[_id].paid + _payment;\n            // update pools' balances\n            distribution = _payValue(_id, _payment);\n            // emit event\n            Payment(msg.sender, _id, _payment, uint8(Status.Approved));\n        } else if   (((_request.positive == _request.negative) || \n                    ((_request.positive + _request.negative) < parameters.minJuriesNumber))\n                    && _checkPayment(_id, extensions[_id].amount)) {\n            // pay back join amount\n            msg.sender.transfer(extensions[_id].amount);\n            extensions[_id].status = uint8(Status.Closed);\n            extensions[_id].paid = extensions[_id].paid + extensions[_id].amount;\n             // update pools' balances\n            distribution = _payValue(_id, extensions[_id].amount);\n            // emit event\n            Payment(msg.sender, _id, extensions[_id].amount, uint8(Status.Closed));\n        } else {\n            // no payment\n            extensions[_id].status = uint8(Status.Rejected);\n            // emit event\n            Payment(msg.sender, _id, uint256(0), uint8(Status.Rejected));\n        }\n        // now time to clean voting enviroment\n        for(uint i; i < _request.number; i++) {\n            delete voters[_request.members[i]];\n        }\n    \n        delete requests[_id];\n        delete distribution;\n    }\n\n    /// status count function\n    /// @param _member address of token owner\n    /// @param _status status to check\n    function statusCount(address _member, uint8 _status) view public returns (uint256 count) {\n        uint256[] memory tokenIds = _tokensOfOwner(_member);\n        count = uint256(0);\n\n        for (uint256 i = 0; i < tokenIds.length; i++) {\n            if (extensions[tokenIds[i]].status == _status) {\n                count++;\n            }\n        }\n    }\n    function TokenCrowdsurance(string _name, string _symbol) TokenPool(_name, _symbol) public {\n        // setup default crowdsurance product parameters\n        parameters.joinAmount = 0.1 ether;                  // default join amount\n        parameters.coverageDuration = 0.5 years;            // coverage duration in sec\n        parameters.maxClaimAmount = 10 ether;               // max claim amount\n        parameters.maxClaimNumber = 1;                      // max claim number for the contract\n        parameters.paymentRatio = 80;                       // claim to payment patio\n        parameters.maxPaymentAmount = 10 ether;             // max payment amount for the contract\n        parameters.minJuriesNumber = 3;                     // min juries number to count voting \n        parameters.votingDuration = 2 days;                 // juries voting duration in sec\n        parameters.juriesNumber = 5;                        // juries number -- not more than 5\n        parameters.maxApplications = 10;                    // max number of unprocessed applications\n        parameters.averageScore = 100;                      // average score value\n        parameters.defaultClaimAmount = 1 ether;            // default claim amount\n\n        appNumber = 0;                                      // initial value for applications\n        first = 0;\n    }\n    function() public payable { }                           //  fallback function to get Ether on contract account\n}",
  "sourcePath": "/Users/sergei/LuggageCrowdsurance/contracts/TokenCrowdsurance.sol",
  "compiler": {
    "name": "solc",
    "version": "0.4.18+commit.9cf6e910.Emscripten.clang"
  },
  "schemaVersion": "1.0.1",
  "updatedAt": "2018-05-22T10:22:11.978Z"
}