{
  "contractName": "TokenPool",
  "abi": [
    {
      "constant": false,
      "inputs": [
        {
          "name": "_id",
          "type": "uint256"
        }
      ],
      "name": "insertPool",
      "outputs": [
        {
          "name": "",
          "type": "bool"
        }
      ],
      "payable": false,
      "stateMutability": "nonpayable",
      "type": "function"
    },
    {
      "constant": true,
      "inputs": [
        {
          "name": "_interfaceID",
          "type": "bytes4"
        }
      ],
      "name": "supportsInterface",
      "outputs": [
        {
          "name": "",
          "type": "bool"
        }
      ],
      "payable": false,
      "stateMutability": "view",
      "type": "function"
    },
    {
      "constant": true,
      "inputs": [],
      "name": "name",
      "outputs": [
        {
          "name": "",
          "type": "string"
        }
      ],
      "payable": false,
      "stateMutability": "view",
      "type": "function"
    },
    {
      "constant": false,
      "inputs": [
        {
          "name": "_to",
          "type": "address"
        },
        {
          "name": "_tokenId",
          "type": "uint256"
        }
      ],
      "name": "approve",
      "outputs": [],
      "payable": false,
      "stateMutability": "nonpayable",
      "type": "function"
    },
    {
      "constant": false,
      "inputs": [
        {
          "name": "_nodeId",
          "type": "uint256"
        },
        {
          "name": "_parentId",
          "type": "uint256"
        }
      ],
      "name": "addToken",
      "outputs": [],
      "payable": false,
      "stateMutability": "nonpayable",
      "type": "function"
    },
    {
      "constant": true,
      "inputs": [],
      "name": "totalSupply",
      "outputs": [
        {
          "name": "",
          "type": "uint256"
        }
      ],
      "payable": false,
      "stateMutability": "view",
      "type": "function"
    },
    {
      "constant": true,
      "inputs": [],
      "name": "getDistribution",
      "outputs": [
        {
          "name": "distribution",
          "type": "uint256[4]"
        }
      ],
      "payable": false,
      "stateMutability": "view",
      "type": "function"
    },
    {
      "constant": true,
      "inputs": [
        {
          "name": "",
          "type": "uint256"
        }
      ],
      "name": "tokenIndexToOwner",
      "outputs": [
        {
          "name": "",
          "type": "address"
        }
      ],
      "payable": false,
      "stateMutability": "view",
      "type": "function"
    },
    {
      "constant": false,
      "inputs": [
        {
          "name": "_from",
          "type": "address"
        },
        {
          "name": "_to",
          "type": "address"
        },
        {
          "name": "_tokenId",
          "type": "uint256"
        }
      ],
      "name": "transferFrom",
      "outputs": [],
      "payable": false,
      "stateMutability": "nonpayable",
      "type": "function"
    },
    {
      "constant": false,
      "inputs": [
        {
          "name": "_to",
          "type": "address"
        },
        {
          "name": "_toId",
          "type": "uint256"
        },
        {
          "name": "_level",
          "type": "uint256"
        }
      ],
      "name": "setLevel",
      "outputs": [],
      "payable": false,
      "stateMutability": "nonpayable",
      "type": "function"
    },
    {
      "constant": false,
      "inputs": [
        {
          "name": "_spender",
          "type": "address"
        },
        {
          "name": "_value",
          "type": "uint256"
        }
      ],
      "name": "cApprove",
      "outputs": [
        {
          "name": "success",
          "type": "bool"
        }
      ],
      "payable": false,
      "stateMutability": "nonpayable",
      "type": "function"
    },
    {
      "constant": false,
      "inputs": [
        {
          "name": "_nodeId",
          "type": "uint256"
        }
      ],
      "name": "removeToken",
      "outputs": [],
      "payable": false,
      "stateMutability": "nonpayable",
      "type": "function"
    },
    {
      "constant": false,
      "inputs": [
        {
          "name": "_to",
          "type": "address"
        },
        {
          "name": "_toId",
          "type": "uint256"
        }
      ],
      "name": "increaseLevel",
      "outputs": [],
      "payable": false,
      "stateMutability": "nonpayable",
      "type": "function"
    },
    {
      "constant": false,
      "inputs": [
        {
          "name": "_from",
          "type": "address"
        },
        {
          "name": "_fromId",
          "type": "uint256"
        },
        {
          "name": "_amount",
          "type": "uint256"
        }
      ],
      "name": "cDestroy",
      "outputs": [],
      "payable": false,
      "stateMutability": "nonpayable",
      "type": "function"
    },
    {
      "constant": false,
      "inputs": [
        {
          "name": "_to",
          "type": "address"
        },
        {
          "name": "_toId",
          "type": "uint256"
        },
        {
          "name": "_amount",
          "type": "uint256"
        }
      ],
      "name": "cIssue",
      "outputs": [],
      "payable": false,
      "stateMutability": "nonpayable",
      "type": "function"
    },
    {
      "constant": true,
      "inputs": [
        {
          "name": "_tokenId",
          "type": "uint256"
        }
      ],
      "name": "ownerOf",
      "outputs": [
        {
          "name": "",
          "type": "address"
        }
      ],
      "payable": false,
      "stateMutability": "view",
      "type": "function"
    },
    {
      "constant": false,
      "inputs": [
        {
          "name": "_to",
          "type": "address"
        },
        {
          "name": "_value",
          "type": "uint256"
        }
      ],
      "name": "cTransfer",
      "outputs": [
        {
          "name": "success",
          "type": "bool"
        }
      ],
      "payable": false,
      "stateMutability": "nonpayable",
      "type": "function"
    },
    {
      "constant": true,
      "inputs": [
        {
          "name": "_tokenId",
          "type": "uint256"
        }
      ],
      "name": "tokenMetadata",
      "outputs": [
        {
          "name": "infoUrl",
          "type": "string"
        }
      ],
      "payable": false,
      "stateMutability": "view",
      "type": "function"
    },
    {
      "constant": true,
      "inputs": [
        {
          "name": "_owner",
          "type": "address"
        }
      ],
      "name": "balanceOf",
      "outputs": [
        {
          "name": "count",
          "type": "uint256"
        }
      ],
      "payable": false,
      "stateMutability": "view",
      "type": "function"
    },
    {
      "constant": false,
      "inputs": [],
      "name": "acceptOwnership",
      "outputs": [],
      "payable": false,
      "stateMutability": "nonpayable",
      "type": "function"
    },
    {
      "constant": true,
      "inputs": [
        {
          "name": "_owner",
          "type": "address"
        }
      ],
      "name": "tokensOfOwner",
      "outputs": [
        {
          "name": "ownerTokens",
          "type": "uint256[]"
        }
      ],
      "payable": false,
      "stateMutability": "view",
      "type": "function"
    },
    {
      "constant": true,
      "inputs": [],
      "name": "owner",
      "outputs": [
        {
          "name": "",
          "type": "address"
        }
      ],
      "payable": false,
      "stateMutability": "view",
      "type": "function"
    },
    {
      "constant": true,
      "inputs": [],
      "name": "cTotalSupply",
      "outputs": [
        {
          "name": "",
          "type": "uint256"
        }
      ],
      "payable": false,
      "stateMutability": "view",
      "type": "function"
    },
    {
      "constant": true,
      "inputs": [],
      "name": "symbol",
      "outputs": [
        {
          "name": "",
          "type": "string"
        }
      ],
      "payable": false,
      "stateMutability": "view",
      "type": "function"
    },
    {
      "constant": false,
      "inputs": [
        {
          "name": "_fromId",
          "type": "uint256"
        },
        {
          "name": "_spender",
          "type": "address"
        },
        {
          "name": "_toId",
          "type": "uint256"
        },
        {
          "name": "_value",
          "type": "uint256"
        }
      ],
      "name": "cApproveFrom",
      "outputs": [
        {
          "name": "success",
          "type": "bool"
        }
      ],
      "payable": false,
      "stateMutability": "nonpayable",
      "type": "function"
    },
    {
      "constant": true,
      "inputs": [
        {
          "name": "",
          "type": "uint256"
        }
      ],
      "name": "tokenIndexToPoolToken",
      "outputs": [
        {
          "name": "",
          "type": "uint256"
        }
      ],
      "payable": false,
      "stateMutability": "view",
      "type": "function"
    },
    {
      "constant": true,
      "inputs": [
        {
          "name": "",
          "type": "uint256"
        }
      ],
      "name": "tokenIndexToApproved",
      "outputs": [
        {
          "name": "",
          "type": "address"
        }
      ],
      "payable": false,
      "stateMutability": "view",
      "type": "function"
    },
    {
      "constant": false,
      "inputs": [
        {
          "name": "_to",
          "type": "address"
        },
        {
          "name": "_tokenId",
          "type": "uint256"
        }
      ],
      "name": "transfer",
      "outputs": [],
      "payable": false,
      "stateMutability": "nonpayable",
      "type": "function"
    },
    {
      "constant": true,
      "inputs": [
        {
          "name": "_to",
          "type": "address"
        },
        {
          "name": "_toId",
          "type": "uint256"
        }
      ],
      "name": "getLevel",
      "outputs": [
        {
          "name": "",
          "type": "uint256"
        }
      ],
      "payable": false,
      "stateMutability": "view",
      "type": "function"
    },
    {
      "constant": true,
      "inputs": [
        {
          "name": "_owner",
          "type": "address"
        }
      ],
      "name": "cBalanceOf",
      "outputs": [
        {
          "name": "",
          "type": "uint256"
        }
      ],
      "payable": false,
      "stateMutability": "view",
      "type": "function"
    },
    {
      "constant": false,
      "inputs": [
        {
          "name": "_from",
          "type": "address"
        },
        {
          "name": "_to",
          "type": "address"
        },
        {
          "name": "_value",
          "type": "uint256"
        }
      ],
      "name": "cTransferFrom",
      "outputs": [
        {
          "name": "success",
          "type": "bool"
        }
      ],
      "payable": false,
      "stateMutability": "nonpayable",
      "type": "function"
    },
    {
      "constant": true,
      "inputs": [
        {
          "name": "_tokenId",
          "type": "uint256"
        }
      ],
      "name": "valueOf",
      "outputs": [
        {
          "name": "value",
          "type": "uint256"
        }
      ],
      "payable": false,
      "stateMutability": "view",
      "type": "function"
    },
    {
      "constant": true,
      "inputs": [
        {
          "name": "",
          "type": "address"
        },
        {
          "name": "",
          "type": "address"
        }
      ],
      "name": "allowanceAmt",
      "outputs": [
        {
          "name": "",
          "type": "uint256"
        }
      ],
      "payable": false,
      "stateMutability": "view",
      "type": "function"
    },
    {
      "constant": true,
      "inputs": [],
      "name": "maxLevel",
      "outputs": [
        {
          "name": "",
          "type": "uint256"
        }
      ],
      "payable": false,
      "stateMutability": "view",
      "type": "function"
    },
    {
      "constant": true,
      "inputs": [],
      "name": "newOwner",
      "outputs": [
        {
          "name": "",
          "type": "address"
        }
      ],
      "payable": false,
      "stateMutability": "view",
      "type": "function"
    },
    {
      "constant": true,
      "inputs": [
        {
          "name": "",
          "type": "address"
        },
        {
          "name": "",
          "type": "address"
        }
      ],
      "name": "allowance",
      "outputs": [
        {
          "name": "",
          "type": "uint256"
        }
      ],
      "payable": false,
      "stateMutability": "view",
      "type": "function"
    },
    {
      "constant": true,
      "inputs": [],
      "name": "getComission",
      "outputs": [
        {
          "name": "commission",
          "type": "uint256"
        }
      ],
      "payable": false,
      "stateMutability": "view",
      "type": "function"
    },
    {
      "constant": true,
      "inputs": [
        {
          "name": "_nodeId",
          "type": "uint256"
        }
      ],
      "name": "getPath",
      "outputs": [
        {
          "name": "path",
          "type": "uint256[]"
        }
      ],
      "payable": false,
      "stateMutability": "view",
      "type": "function"
    },
    {
      "constant": true,
      "inputs": [
        {
          "name": "",
          "type": "address"
        },
        {
          "name": "",
          "type": "address"
        }
      ],
      "name": "allowanceIds",
      "outputs": [
        {
          "name": "",
          "type": "uint256"
        }
      ],
      "payable": false,
      "stateMutability": "view",
      "type": "function"
    },
    {
      "constant": false,
      "inputs": [
        {
          "name": "_newOwner",
          "type": "address"
        }
      ],
      "name": "transferOwnership",
      "outputs": [],
      "payable": false,
      "stateMutability": "nonpayable",
      "type": "function"
    },
    {
      "constant": true,
      "inputs": [
        {
          "name": "_owner",
          "type": "address"
        },
        {
          "name": "_spender",
          "type": "address"
        }
      ],
      "name": "cAllowance",
      "outputs": [
        {
          "name": "",
          "type": "uint256"
        }
      ],
      "payable": false,
      "stateMutability": "view",
      "type": "function"
    },
    {
      "inputs": [
        {
          "name": "_name",
          "type": "string"
        },
        {
          "name": "_symbol",
          "type": "string"
        }
      ],
      "payable": false,
      "stateMutability": "nonpayable",
      "type": "constructor"
    },
    {
      "anonymous": false,
      "inputs": [
        {
          "indexed": false,
          "name": "id",
          "type": "uint256"
        },
        {
          "indexed": false,
          "name": "poolId",
          "type": "uint256"
        },
        {
          "indexed": false,
          "name": "level",
          "type": "uint8"
        }
      ],
      "name": "InsertPool",
      "type": "event"
    },
    {
      "anonymous": false,
      "inputs": [
        {
          "indexed": false,
          "name": "id",
          "type": "uint256"
        },
        {
          "indexed": false,
          "name": "superPoolValue",
          "type": "uint256"
        },
        {
          "indexed": false,
          "name": "poolValue",
          "type": "uint256"
        },
        {
          "indexed": false,
          "name": "subPoolValue",
          "type": "uint256"
        },
        {
          "indexed": false,
          "name": "comission",
          "type": "uint256"
        }
      ],
      "name": "DistributeValue",
      "type": "event"
    },
    {
      "anonymous": false,
      "inputs": [
        {
          "indexed": false,
          "name": "id",
          "type": "uint256"
        },
        {
          "indexed": false,
          "name": "value",
          "type": "uint256"
        }
      ],
      "name": "SecondTierCall",
      "type": "event"
    },
    {
      "anonymous": false,
      "inputs": [
        {
          "indexed": false,
          "name": "id",
          "type": "uint256"
        },
        {
          "indexed": false,
          "name": "poolId",
          "type": "uint256"
        },
        {
          "indexed": false,
          "name": "value",
          "type": "uint256"
        },
        {
          "indexed": false,
          "name": "level",
          "type": "uint8"
        }
      ],
      "name": "ShortOfFunds",
      "type": "event"
    },
    {
      "anonymous": false,
      "inputs": [
        {
          "indexed": false,
          "name": "id",
          "type": "uint256"
        },
        {
          "indexed": false,
          "name": "value",
          "type": "uint256"
        },
        {
          "indexed": false,
          "name": "level",
          "type": "uint8"
        }
      ],
      "name": "PaymentValue",
      "type": "event"
    },
    {
      "anonymous": false,
      "inputs": [
        {
          "indexed": false,
          "name": "nodeId",
          "type": "uint256"
        },
        {
          "indexed": false,
          "name": "parentId",
          "type": "uint256"
        },
        {
          "indexed": false,
          "name": "level",
          "type": "uint256"
        }
      ],
      "name": "AddToken",
      "type": "event"
    },
    {
      "anonymous": false,
      "inputs": [
        {
          "indexed": false,
          "name": "nodeId",
          "type": "uint256"
        },
        {
          "indexed": false,
          "name": "level",
          "type": "uint256"
        }
      ],
      "name": "RemoveToken",
      "type": "event"
    },
    {
      "anonymous": false,
      "inputs": [
        {
          "indexed": false,
          "name": "from",
          "type": "address"
        },
        {
          "indexed": false,
          "name": "fromId",
          "type": "uint256"
        },
        {
          "indexed": false,
          "name": "to",
          "type": "address"
        },
        {
          "indexed": false,
          "name": "toId",
          "type": "uint256"
        },
        {
          "indexed": false,
          "name": "value",
          "type": "uint256"
        }
      ],
      "name": "Transfer",
      "type": "event"
    },
    {
      "anonymous": false,
      "inputs": [
        {
          "indexed": false,
          "name": "to",
          "type": "address"
        },
        {
          "indexed": false,
          "name": "toId",
          "type": "uint256"
        },
        {
          "indexed": false,
          "name": "value",
          "type": "uint256"
        }
      ],
      "name": "AddValue",
      "type": "event"
    },
    {
      "anonymous": false,
      "inputs": [
        {
          "indexed": false,
          "name": "from",
          "type": "address"
        },
        {
          "indexed": false,
          "name": "fromId",
          "type": "uint256"
        },
        {
          "indexed": false,
          "name": "value",
          "type": "uint256"
        }
      ],
      "name": "RemoveValue",
      "type": "event"
    },
    {
      "anonymous": false,
      "inputs": [
        {
          "indexed": false,
          "name": "to",
          "type": "address"
        },
        {
          "indexed": false,
          "name": "toId",
          "type": "uint256"
        },
        {
          "indexed": false,
          "name": "level",
          "type": "uint256"
        }
      ],
      "name": "SetLevel",
      "type": "event"
    },
    {
      "anonymous": false,
      "inputs": [
        {
          "indexed": false,
          "name": "to",
          "type": "address"
        },
        {
          "indexed": false,
          "name": "toId",
          "type": "uint256"
        }
      ],
      "name": "IncreaseLevel",
      "type": "event"
    },
    {
      "anonymous": false,
      "inputs": [
        {
          "indexed": true,
          "name": "_prevOwner",
          "type": "address"
        },
        {
          "indexed": true,
          "name": "_newOwner",
          "type": "address"
        }
      ],
      "name": "OwnerUpdate",
      "type": "event"
    },
    {
      "anonymous": false,
      "inputs": [
        {
          "indexed": false,
          "name": "fromId",
          "type": "uint256"
        },
        {
          "indexed": false,
          "name": "spender",
          "type": "address"
        },
        {
          "indexed": false,
          "name": "toId",
          "type": "uint256"
        },
        {
          "indexed": false,
          "name": "value",
          "type": "uint256"
        }
      ],
      "name": "CApproveFrom",
      "type": "event"
    },
    {
      "anonymous": false,
      "inputs": [
        {
          "indexed": false,
          "name": "spender",
          "type": "address"
        },
        {
          "indexed": false,
          "name": "value",
          "type": "uint256"
        }
      ],
      "name": "CApprove",
      "type": "event"
    },
    {
      "anonymous": false,
      "inputs": [
        {
          "indexed": false,
          "name": "from",
          "type": "address"
        },
        {
          "indexed": false,
          "name": "fromId",
          "type": "uint256"
        },
        {
          "indexed": false,
          "name": "to",
          "type": "address"
        },
        {
          "indexed": false,
          "name": "toId",
          "type": "uint256"
        },
        {
          "indexed": false,
          "name": "value",
          "type": "uint256"
        },
        {
          "indexed": false,
          "name": "allowance",
          "type": "uint256"
        }
      ],
      "name": "CTransferFrom",
      "type": "event"
    },
    {
      "anonymous": false,
      "inputs": [
        {
          "indexed": false,
          "name": "to",
          "type": "address"
        },
        {
          "indexed": false,
          "name": "toId",
          "type": "uint256"
        },
        {
          "indexed": false,
          "name": "amount",
          "type": "uint256"
        }
      ],
      "name": "CIssue",
      "type": "event"
    },
    {
      "anonymous": false,
      "inputs": [
        {
          "indexed": false,
          "name": "from",
          "type": "address"
        },
        {
          "indexed": false,
          "name": "fromId",
          "type": "uint256"
        },
        {
          "indexed": false,
          "name": "amount",
          "type": "uint256"
        }
      ],
      "name": "CDestroy",
      "type": "event"
    },
    {
      "anonymous": false,
      "inputs": [
        {
          "indexed": false,
          "name": "from",
          "type": "address"
        },
        {
          "indexed": false,
          "name": "to",
          "type": "address"
        },
        {
          "indexed": false,
          "name": "tokenId",
          "type": "uint256"
        }
      ],
      "name": "Transfer",
      "type": "event"
    },
    {
      "anonymous": false,
      "inputs": [
        {
          "indexed": false,
          "name": "owner",
          "type": "address"
        },
        {
          "indexed": false,
          "name": "approved",
          "type": "address"
        },
        {
          "indexed": false,
          "name": "tokenId",
          "type": "uint256"
        }
      ],
      "name": "Approval",
      "type": "event"
    },
    {
      "anonymous": false,
      "inputs": [
        {
          "indexed": false,
          "name": "value",
          "type": "uint256"
        },
        {
          "indexed": false,
          "name": "metadata",
          "type": "string"
        },
        {
          "indexed": false,
          "name": "kind",
          "type": "uint256"
        },
        {
          "indexed": false,
          "name": "owner",
          "type": "address"
        }
      ],
      "name": "Birth",
      "type": "event"
    }
  ],
  "bytecode": "0x606060405234156200001057600080fd5b6040516200379a3803806200379a833981016040528080518201919060200180519091019050600080806200004462000866565b6200004e62000866565b6200005862000866565b60028054600160a060020a03191633600160a060020a031617905587878181818160008280516200008e929160200190620008a0565b506001818051620000a4929160200190620008a0565b5050600a8054600160a060020a03191633600160a060020a031617905550506004600c55506200012a91506000905060408051908101604052600981527f5375706572506f6f6c00000000000000000000000000000000000000000000006020820152600a54600190600160a060020a0316640100000000620028f46200041982021704565b955062000189600060408051908101604052600481527f506f6f6c000000000000000000000000000000000000000000000000000000006020820152600a54600190600160a060020a0316640100000000620028f46200041982021704565b9450620001e8600060408051908101604052600781527f537562506f6f6c000000000000000000000000000000000000000000000000006020820152600a54600290600160a060020a0316640100000000620028f46200041982021704565b935062000204858764010000000062000c316200062a82021704565b6200021e848664010000000062000c316200062a82021704565b60c060405190810160405280600060ff16815260200160018152602001600a815260200160018152602001878152602001600a8152509250600e80548060010182816200026c919062000925565b600092835260209092208591600602018151815460ff191660ff919091161781556020820151816001015560408201518160020155606082015181600301556080820151816004015560a0820151816005015550505060c060405190810160405280600160ff168152602001600a8152602001606481526020016001815260200186815260200160148152509150600e805480600101828162000310919062000925565b600092835260209092208491600602018151815460ff191660ff919091161781556020820151816001015560408201518160020155606082015181600301556080820151816004015560a0820151816005015550505060c060405190810160405280600260ff1681526020016103e88152602001606481526020016001815260200185815260200160328152509050600e8054806001018281620003b5919062000925565b600092835260209092208391600602018151815460ff191660ff919091161781556020820151816001015560408201518160020155606082015181600301556080820151816004015560a08201518160050155505050505050505050505062000ac4565b60006200042562000959565b600060a06040519081016040528088815260200187815260200186815260200160008152602001600081525091506001600380548060010182816200046b919062000991565b60009283526020909220859160050201815181556020820151816001019080516200049b929160200190620008a0565b5060408201518160020155606082015181600301556080820151600490910155500390508015156200053457600160038054806001018281620004df919062000991565b60009283526020909220859160050201815181556020820151816001019080516200050f929160200190620008a0565b5060408201518160020155606082015181600301556080820151816004015550500390505b63ffffffff811681146200054757600080fd5b7fdea8e87d69047e1b3cd43ad599d34e3eacfe4408b4dfc5d0f6ac6a15a468de5c8787878760405184815260408101839052600160a060020a038216606082015260806020820181815290820185818151815260200191508051906020019080838360005b83811015620005c6578082015183820152602001620005ac565b50505050905090810190601f168015620005f45780820380516001836020036101000a031916815260200191505b509550505050505060405180910390a162000620600085836401000000006200229a6200075f82021704565b9695505050505050565b81158015906200063b575060035482105b15156200064757600080fd5b801580159062000658575060035481105b15156200066457600080fd5b6001600c54036003828154811015156200067a57fe5b9060005260206000209060050201600301541015156200069957600080fd5b6000828152600d602052604090208190556003805482908110620006b957fe5b906000526020600020906005020160030154600101600383815481101515620006de57fe5b9060005260206000209060050201600301819055507f0900f87897aa374bb21fa36753905fa2944dd2301242246101a9047a0ed227a082826003858154811015156200072657fe5b90600052602060002090600502016003015460405180848152602001838152602001828152602001935050505060405180910390a15050565b6104006003828154811015156200077257fe5b906000526020600020906005020160040154141515156200078f57fe5b600160a060020a03808316600081815260056020908152604080832080546001019055858352600490915290208054600160a060020a03191690911790558316156200081157600160a060020a03831660009081526005602090815260408083208054600019019055838352600690915290208054600160a060020a03191690555b7fddf252ad1be2c89b69c2b068fc378daa952ba7f163c4a11628f55a4df523b3ef838383604051600160a060020a039384168152919092166020820152604080820192909252606001905180910390a1505050565b60c060405190810160405280600060ff16815260200160008152602001600081526020016000815260200160008152602001600081525090565b828054600181600116156101000203166002900490600052602060002090601f016020900481019282601f10620008e357805160ff191683800117855562000913565b8280016001018555821562000913579182015b8281111562000913578251825591602001919060010190620008f6565b5062000921929150620009c0565b5090565b8154818355818115116200095457600602816006028360005260206000209182019101620009549190620009e0565b505050565b60a060405190810160405280600081526020016200097662000a24565b81526020016000815260200160008152602001600081525090565b815481835581811511620009545760050281600502836000526020600020918201910162000954919062000a36565b620009dd91905b80821115620009215760008155600101620009c7565b90565b620009dd91905b808211156200092157805460ff191681556000600182018190556002820181905560038201819055600482018190556005820155600601620009e7565b60206040519081016040526000815290565b620009dd91905b808211156200092157600080825562000a5a600183018262000a79565b5060006002820181905560038201819055600482015560050162000a3d565b50805460018160011615610100020316600290046000825580601f1062000aa1575062000ac1565b601f01602090049060005260206000209081019062000ac19190620009c0565b50565b612cc68062000ad46000396000f3006060604052600436106101f75763ffffffff7c0100000000000000000000000000000000000000000000000000000000600035041662607b7f81146101fc57806301ffc9a71461022657806306fdde031461025e578063095ea7b3146102e857806317b9ebec1461030c57806318160ddd146103255780631cced51b1461034a5780631d36e06c1461039557806323b872dd146103c757806329625005146103ef57806332c4ee831461041457806336c5d7241461043657806339e6cdb11461044c5780634cabcfac1461046e578063545c3d55146104935780636352211e146104b857806366d80ba5146104ce5780636914db60146104f057806370a082311461050657806379ba5097146105255780638462151c146105385780638da5cb5b146105aa5780638f1fc77c146105bd57806395d89b41146105d057806398dc5c95146105e35780639ca088311461060b578063a8bd9c3214610621578063a9059cbb14610637578063b121f2ac14610659578063b13570791461067b578063bf6226651461069a578063cadf338f146106c2578063cbbc9f89146106d8578063cc06c359146106fd578063d4ee1d9014610710578063dd62ed3e14610723578063dd6d3ca714610748578063e17650731461075b578063e527cc9d14610771578063f2fde38b14610796578063f81fd7ea146107b5575b600080fd5b341561020757600080fd5b6102126004356107da565b604051901515815260200160405180910390f35b341561023157600080fd5b6102127fffffffff000000000000000000000000000000000000000000000000000000006004351661083c565b341561026957600080fd5b610271610b15565b60405160208082528190810183818151815260200191508051906020019080838360005b838110156102ad578082015183820152602001610295565b50505050905090810190601f1680156102da5780820380516001836020036101000a031916815260200191505b509250505060405180910390f35b34156102f357600080fd5b61030a600160a060020a0360043516602435610bbe565b005b341561031757600080fd5b61030a600435602435610c31565b341561033057600080fd5b610338610d5d565b60405190815260200160405180910390f35b341561035557600080fd5b61035d610d78565b6040518082608080838360005b8381101561038257808201518382015260200161036a565b5050505090500191505060405180910390f35b34156103a057600080fd5b6103ab600435610e5b565b604051600160a060020a03909116815260200160405180910390f35b34156103d257600080fd5b61030a600160a060020a0360043581169060243516604435610e76565b34156103fa57600080fd5b61030a600160a060020a0360043516602435604435610ee6565b341561041f57600080fd5b610212600160a060020a0360043516602435610f96565b341561044157600080fd5b61030a600435611094565b341561045757600080fd5b61030a600160a060020a0360043516602435611135565b341561047957600080fd5b61030a600160a060020a03600435166024356044356111f1565b341561049e57600080fd5b61030a600160a060020a036004351660243560443561129f565b34156104c357600080fd5b6103ab60043561134d565b34156104d957600080fd5b610212600160a060020a0360043516602435611371565b34156104fb57600080fd5b6102716004356113aa565b341561051157600080fd5b610338600160a060020a0360043516611471565b341561053057600080fd5b61030a61148c565b341561054357600080fd5b610557600160a060020a036004351661151a565b60405160208082528190810183818151815260200191508051906020019060200280838360005b8381101561059657808201518382015260200161057e565b505050509050019250505060405180910390f35b34156105b557600080fd5b6103ab61152b565b34156105c857600080fd5b61033861153a565b34156105db57600080fd5b610271611581565b34156105ee57600080fd5b610212600435600160a060020a03602435166044356064356115f4565b341561061657600080fd5b6103386004356116ef565b341561062c57600080fd5b6103ab600435611701565b341561064257600080fd5b61030a600160a060020a036004351660243561171c565b341561066457600080fd5b610338600160a060020a0360043516602435611776565b341561068657600080fd5b610338600160a060020a03600435166117b5565b34156106a557600080fd5b610212600160a060020a036004358116906024351660443561182e565b34156106cd57600080fd5b610338600435611a05565b34156106e357600080fd5b610338600160a060020a0360043581169060243516611a2f565b341561070857600080fd5b610338611a4c565b341561071b57600080fd5b6103ab611a52565b341561072e57600080fd5b610338600160a060020a0360043581169060243516611a61565b341561075357600080fd5b610338611a7e565b341561076657600080fd5b610557600435611aa7565b341561077c57600080fd5b610338600160a060020a0360043581169060243516611b04565b34156107a157600080fd5b61030a600160a060020a0360043516611b21565b34156107c057600080fd5b610338600160a060020a0360043581169060243516611b83565b600a5460009033600160a060020a039081169116146107f557fe5b8115801590610805575060035482105b151561081057600080fd5b61081b826002611bdb565b151561082357fe5b61082c82611e8c565b151561083457fe5b506001919050565b60006040517f737570706f727473496e74657266616365286279746573342900000000000000815260190160405180910390207bffffffffffffffffffffffffffffffffffffffffffffffffffffffff1916827bffffffffffffffffffffffffffffffffffffffffffffffffffffffff19161480610b0f57506040517f746f6b656e4d657461646174612875696e743235362c737472696e67290000008152601d0160405180910390206040517f746f6b656e734f664f776e657228616464726573732900000000000000000000815260160160405180910390206040517f7472616e7366657246726f6d28616464726573732c616464726573732c75696e81527f7432353629000000000000000000000000000000000000000000000000000000602082015260250160405180910390206040517f7472616e7366657228616464726573732c75696e743235362900000000000000815260190160405180910390206040517f617070726f766528616464726573732c75696e74323536290000000000000000815260180160405180910390206040517f6f776e65724f662875696e743235362900000000000000000000000000000000815260100160405180910390206040517f62616c616e63654f662861646472657373290000000000000000000000000000815260120160405180910390206040517f746f74616c537570706c792829000000000000000000000000000000000000008152600d0160405180910390206040517f73796d626f6c2829000000000000000000000000000000000000000000000000815260080160405180910390206040517f6e616d6528290000000000000000000000000000000000000000000000000000815260060160405180910390201818181818181818187bffffffffffffffffffffffffffffffffffffffffffffffffffffffff1916827bffffffffffffffffffffffffffffffffffffffffffffffffffffffff1916145b92915050565b610b1d612ae6565b60008054600181600116156101000203166002900480601f016020809104026020016040519081016040528092919081815260200182805460018160011615610100020316600290048015610bb35780601f10610b8857610100808354040283529160200191610bb3565b820191906000526020600020905b815481529060010190602001808311610b9657829003601f168201915b505050505090505b90565b610bc8338261221f565b1515610bd357600080fd5b610bdd818361223f565b7f8c5be1e5ebec7d5bd14f71427d1e84f3dd0314c0f7b2291e5b200ac8c7c3b925338383604051600160a060020a039384168152919092166020820152604080820192909252606001905180910390a15050565b8115801590610c41575060035482105b1515610c4c57600080fd5b8015801590610c5c575060035481105b1515610c6757600080fd5b6001600c5403600382815481101515610c7c57fe5b906000526020600020906005020160030154101515610c9a57600080fd5b6000828152600d602052604090208190556003805482908110610cb957fe5b906000526020600020906005020160030154600101600383815481101515610cdd57fe5b9060005260206000209060050201600301819055507f0900f87897aa374bb21fa36753905fa2944dd2301242246101a9047a0ed227a08282600385815481101515610d2457fe5b90600052602060002090600502016003015460405180848152602001838152602001828152602001935050505060405180910390a15050565b60035460009081811115610d7057600019015b8091505b5090565b610d80612af8565b600080825260208201819052604082018190526060820181905260015b600354811015610e56576003805482908110610db557fe5b9060005260206000209060050201600301549150600c548260ff161015610e23576003805482908110610de457fe5b60009182526020909120600590910201548360ff841660048110610e0457fe5b6020020151018360ff841660048110610e1957fe5b6020020152610e4e565b6003805482908110610e3157fe5b600091825260209091206005909102015460608401510160608401525b600101610d9d565b505090565b600460205260009081526040902054600160a060020a031681565b600160a060020a0382161515610e8b57600080fd5b30600160a060020a031682600160a060020a031614151515610eac57600080fd5b610eb6338261227a565b1515610ec157600080fd5b610ecb838261221f565b1515610ed657600080fd5b610ee183838361229a565b505050565b600a5433600160a060020a03908116911614610efe57fe5b610f08838361221f565b1515610f1357600080fd5b80600383815481101515610f2357fe5b9060005260206000209060050201600301819055507f48ed1b5769aee6cf16cda3da1db2a0acf83c194c9d2a98ebeff4904567af58f68383836040518084600160a060020a0316600160a060020a03168152602001838152602001828152602001935050505060405180910390a1505050565b6000808080600160a060020a0386161515610fb057600080fd5b841515610fbc57600080fd5b339250610fc8836123b8565b9150610fd3866123b8565b905081811415610fe257600080fd5b811515610fee57600080fd5b801515610ffa57600080fd5b600160a060020a038381166000818152600860209081526040808320948b168084529482528083208690559282528282208690556009815282822093825292909252908190208690557fe051949e9a44e2e9c21ee7d1c7b03ef0bf501aa3b7c4616a8543f229c0bede7a908790879051600160a060020a03909216825260208201526040908101905180910390a150600195945050505050565b600081158015906110a6575060035482105b15156110b157600080fd5b6110ba82612402565b905080156110c757600080fd5b6000828152600d6020526040812055600380547f399c331be71add502e95a2402ba7370605a945c1c6c1dc01c5e30f7e896cfa569184918290811061110857fe5b90600052602060002090600502016003015460405191825260208201526040908101905180910390a15050565b600a5433600160a060020a0390811691161461114d57fe5b611157828261221f565b151561116257600080fd5b600380548290811061117057fe5b90600052602060002090600502016003015460010160038281548110151561119457fe5b9060005260206000209060050201600301819055507fb6ffa2bc58069f160ac94855c396bc8a7c591ae4b9e69d78cc004ad2e4d70d858282604051600160a060020a03909216825260208201526040908101905180910390a15050565b6000600160a060020a038416151561120857600080fd5b81151561121457600080fd5b508180151561122957611226846123b8565b90505b80151561123557600080fd5b611240848284612460565b7f8ee078ba6dd38678f9ffdc8f1df2d512559df0cae2db32c829459127e10031978484846040518084600160a060020a0316600160a060020a03168152602001838152602001828152602001935050505060405180910390a150505050565b6000600160a060020a03841615156112b657600080fd5b8115156112c257600080fd5b50818015156112d7576112d4846123b8565b90505b8015156112e357600080fd5b6112ee84828461254e565b7ff3d0e22890d929d2a1cd5ca9e5f6498c4271ce2f0223ab4092297c2d11c9ef758484846040518084600160a060020a0316600160a060020a03168152602001838152602001828152602001935050505060405180910390a150505050565b600081815260046020526040812054600160a060020a0316801515610b0f57600080fd5b600080600160a060020a038416151561138957600080fd5b82151561139557600080fd5b50336113a281858561182e565b949350505050565b6113b2612ae6565b60038054839081106113c057fe5b90600052602060002090600502016001018054600181600116156101000203166002900480601f0160208091040260200160405190810160405280929190818152602001828054600181600116156101000203166002900480156114655780601f1061143a57610100808354040283529160200191611465565b820191906000526020600020905b81548152906001019060200180831161144857829003601f168201915b50505050509050919050565b600160a060020a031660009081526005602052604090205490565b600b5433600160a060020a039081169116146114a757600080fd5b600b54600a54600160a060020a0391821691167f343765429aea5a34b3ff6a3785a98a5abb2597aca87bfbb58632c173d585373a60405160405180910390a3600b8054600a805473ffffffffffffffffffffffffffffffffffffffff19908116600160a060020a03841617909155169055565b611522612ae6565b610b0f82612610565b600a54600160a060020a031681565b600354600090819060015b8181101561157957600380548290811061155b57fe5b60009182526020909120600590910201549290920191600101611545565b509092915050565b611589612ae6565b60018054600181600116156101000203166002900480601f016020809104026020016040519081016040528092919081815260200182805460018160011615610100020316600290048015610bb35780601f10610b8857610100808354040283529160200191610bb3565b600080600160a060020a038516151561160c57600080fd5b8584141561161957600080fd5b85151561162557600080fd5b83151561163157600080fd5b82151561163d57600080fd5b5033600160a060020a038181166000818152600860209081526040808320948a168084529482528083208990559282528282208a90556009815282822093825292909252908190208490557fef4beaa380feab20776f162f92bbf15b04c59f8fd4e8ab2508b8d29fed7dfd6190879087908790879051938452600160a060020a03909216602084015260408084019190915260608301919091526080909101905180910390a150600195945050505050565b600d6020526000908152604090205481565b600660205260009081526040902054600160a060020a031681565b600160a060020a038216151561173157600080fd5b30600160a060020a031682600160a060020a03161415151561175257600080fd5b61175c338261221f565b151561176757600080fd5b61177233838361229a565b5050565b6000611782838361221f565b151561178d57600080fd5b600380548390811061179b57fe5b906000526020600020906005020160030154905092915050565b60006117bf612ae6565b60008060006117cd86612610565b93506000925083519150600090505b818110156118245760038482815181106117f257fe5b906020019060200201518154811061180657fe5b600091825260209091206005909102015492909201916001016117dc565b5090949350505050565b600080808080600160a060020a038716151561184957600080fd5b85151561185557600080fd5b50505050600160a060020a03848116600081815260086020908152604080832094881680845294825280832054938352808320546009835281842095845294909152902054869290818314156118aa57600080fd5b8215156118b657600080fd5b8115156118c257600080fd5b8015156118ce57600080fd5b858110156118db57600080fd5b6118e8848389868a612705565b600160a060020a038481166000908152600960209081526040808320938b16835292905220805487900390819055151561196057600160a060020a038481166000818152600960209081526040808320948c168084529482528083208390559282526008815282822090528181208190559182528120555b600160a060020a038085166000908152600960209081526040808320938b168352929052819020547fa085ba1c72fda1f13ecb6e0347284ac7d016a73b7a47c0ba151368bbe5ce2db9918a9185918b9188918c919051600160a060020a0396871681526020810195909552929094166040808501919091526060840191909152608083019390935260a082015260c001905180910390a1506001979650505050505050565b6000600382815481101515611a1657fe5b9060005260206000209060050201600001549050919050565b600960209081526000928352604080842090915290825290205481565b600c5481565b600b54600160a060020a031681565b600760209081526000928352604080842090915290825290205481565b600060036000815481101515611a9057fe5b906000526020600020906005020160000154905090565b611aaf612ae6565b6000828152600d6020526040812054905b600c54811015611afd5781838281518110611ad757fe5b60209081029091018101919091526000928352600d905260409091205490600101611ac0565b5050919050565b600860209081526000928352604080842090915290825290205481565b600a5433600160a060020a03908116911614611b3957fe5b600a54600160a060020a0382811691161415611b5457600080fd5b600b805473ffffffffffffffffffffffffffffffffffffffff1916600160a060020a0392909216919091179055565b6000600160a060020a0382161515611b9a57600080fd5b600160a060020a0383161515611baf57600080fd5b50600160a060020a03918216600090815260096020908152604080832093909416825291909152205490565b6000806000806000611bed8787612895565b9350611bf884612402565b9250611c0487876128c3565b915081831015611c6b57611c188785610c31565b7f69186e91a26c2cd1f67397df408ddeb0db9249dbd6e2a428ad8ae0d59ba3bc88878588604051928352602083019190915260ff166040808301919091526060909101905180910390a160019450611e82565b600e805460ff8816908110611c7c57fe5b906000526020600020906006020160010154600e8760ff16815481101515611ca057fe5b9060005260206000209060060201600301541415611cc15760009450611e82565b611db36000600386815481101515611cd557fe5b90600052602060002090600502016001018054600181600116156101000203166002900480601f016020809104026020016040519081016040528092919081815260200182805460018160011615610100020316600290048015611d7a5780601f10611d4f57610100808354040283529160200191611d7a565b820191906000526020600020905b815481529060010190602001808311611d5d57829003601f168201915b5050505050600387815481101515611d8e57fe5b6000918252602090912060026005909202010154600a54600160a060020a03166128f4565b90508015611e7d57611dc88160018803611bdb565b15611e7d57611dd78782610c31565b7f69186e91a26c2cd1f67397df408ddeb0db9249dbd6e2a428ad8ae0d59ba3bc88878288604051928352602083019190915260ff166040808301919091526060909101905180910390a180600e8760ff16815481101515611e3457fe5b6000918252602090912060046006909202010155600e805460ff8816908110611e5957fe5b60009182526020909120600360069092020101805460019081019091559450611e82565b600094505b5050505092915050565b6000808080808080808815801590611ea5575060035489105b1515611eb057600080fd5b6001600c540360038a815481101515611ec557fe5b906000526020600020906005020160030154141515611ee357600080fd5b6000898152600d60205260409020549650861515611f0057600080fd5b6000878152600d60205260409020549550851515611f1d57600080fd5b6000868152600d60205260409020549450841515611f3a57600080fd5b6064600e6002815481101515611f4c57fe5b90600052602060002090600602016005015460038b815481101515611f6d57fe5b90600052602060002090600502016000015402811515611f8957fe5b049350831515611f9857600080fd5b6064600e6001815481101515611faa57fe5b90600052602060002090600602016005015460038b815481101515611fcb57fe5b90600052602060002090600502016000015402811515611fe757fe5b049250821515611ff657600080fd5b6064600e600081548110151561200857fe5b90600052602060002090600602016005015460038b81548110151561202957fe5b9060005260206000209060050201600001540281151561204557fe5b04915081151561205457600080fd5b81838560038c81548110151561206657fe5b6000918252602090912060059091020154030303905080151561208857600080fd5b8360038881548110151561209857fe5b906000526020600020906005020160000154016003888154811015156120ba57fe5b600091825260209091206005909102015560038054849190889081106120dc57fe5b906000526020600020906005020160000154016003878154811015156120fe57fe5b6000918252602090912060059091020155600380548391908790811061212057fe5b9060005260206000209060050201600001540160038681548110151561214257fe5b6000918252602082206005909102019190915560038054839290811061216457fe5b906000526020600020906005020160000154016003600081548110151561218757fe5b60009182526020822060059091020191909155600380548b9081106121a857fe5b60009182526020909120600590910201557fcfd3c3fcdcb63bcee48ff9a9ec28351afef5ba4fc9b5a8f46d5aa65565a3b1a38983858785604051808681526020018581526020018481526020018381526020018281526020019550505050505060405180910390a150600198975050505050505050565b600090815260046020526040902054600160a060020a0391821691161490565b600091825260066020526040909120805473ffffffffffffffffffffffffffffffffffffffff1916600160a060020a03909216919091179055565b600090815260066020526040902054600160a060020a0391821691161490565b6104006003828154811015156122ac57fe5b906000526020600020906005020160040154141515156122c857fe5b600160a060020a0380831660008181526005602090815260408083208054600101905585835260049091529020805473ffffffffffffffffffffffffffffffffffffffff1916909117905583161561236357600160a060020a0383166000908152600560209081526040808320805460001901905583835260069091529020805473ffffffffffffffffffffffffffffffffffffffff191690555b7fddf252ad1be2c89b69c2b068fc378daa952ba7f163c4a11628f55a4df523b3ef838383604051600160a060020a039384168152919092166020820152604080820192909252606001905180910390a1505050565b60006123c2612ae6565b60006123cd84612610565b9150815190508015156123e35760009250611afd565b816000815181106123f057fe5b90602001906020020151949350505050565b600080808315801590612416575060035484105b151561242157600080fd5b612429610d5d565b915060009250600190505b818111611afd576000818152600d6020526040902054841415612458576001909201915b600101612434565b61246a838361221f565b151561247557600080fd5b80151561248157600080fd5b8060038381548110151561249157fe5b600091825260209091206005909102015410156124ad57600080fd5b806003838154811015156124bd57fe5b906000526020600020906005020160000154036003838154811015156124df57fe5b60009182526020909120600590910201557f45dacd427fd388bf162986dbc958cdcf160c31b40efe076907cff377b9857c798383836040518084600160a060020a0316600160a060020a03168152602001838152602001828152602001935050505060405180910390a1505050565b612558838361221f565b151561256357600080fd5b80151561256f57600080fd5b8060038381548110151561257f57fe5b906000526020600020906005020160000154016003838154811015156125a157fe5b60009182526020909120600590910201557f20f4934a3b4928cca0e51f3f1eaac12dee9af151a8a8ba5a424a89d93f6bf53d8383836040518084600160a060020a0316600160a060020a03168152602001838152602001828152602001935050505060405180910390a1505050565b612618612ae6565b6000612622612ae6565b60008080600160a060020a038716151561263b57600080fd5b61264487611471565b945084151561267457600060405180591061265c5750595b908082528060200260200182016040525095506126fb565b846040518059106126825750595b9080825280602002602001820160405250935061269d610d5d565b925060009150600190505b8281116126f757600081815260046020526040902054600160a060020a03888116911614156126ef57808483806001019450815181106126e457fe5b602090810290910101525b6001016126a8565b8395505b5050505050919050565b61270f858561221f565b151561271a57600080fd5b612724838361221f565b151561272f57600080fd5b80151561273b57600080fd5b8382141561274857600080fd5b8060038581548110151561275857fe5b6000918252602090912060059091020154101561277457600080fd5b61040060038581548110151561278657fe5b906000526020600020906005020160040154141515156127a557600080fd5b806003858154811015156127b557fe5b906000526020600020906005020160000154036003858154811015156127d757fe5b600091825260209091206005909102015560038054829190849081106127f957fe5b9060005260206000209060050201600001540160038381548110151561281b57fe5b60009182526020909120600590910201557f6d401b913d27047ecd2042f0331e2354d30e664920b31480dc71955edb996c388585858585604051600160a060020a0395861681526020810194909452919093166040808401919091526060830193909352608082015260a001905180910390a15050505050565b6000600e8260ff168154811015156128a957fe5b906000526020600020906006020160040154905092915050565b60006001600e8360ff168154811015156128d957fe5b90600052602060002090600602016002015403905092915050565b60006128fe612b1f565b600060a06040519081016040528088815260200187815260200186815260200160008152602001600081525091506001600380548060010182816129429190612b55565b6000928352602090922085916005020181518155602082015181600101908051612970929160200190612b81565b506040820151816002015560608201518160030155608082015160049091015550039050801515612a04576001600380548060010182816129b19190612b55565b60009283526020909220859160050201815181556020820151816001019080516129df929160200190612b81565b5060408201518160020155606082015181600301556080820151816004015550500390505b63ffffffff81168114612a1657600080fd5b7fdea8e87d69047e1b3cd43ad599d34e3eacfe4408b4dfc5d0f6ac6a15a468de5c8787878760405184815260408101839052600160a060020a038216606082015260806020820181815290820185818151815260200191508051906020019080838360005b83811015612a93578082015183820152602001612a7b565b50505050905090810190601f168015612ac05780820380516001836020036101000a031916815260200191505b509550505050505060405180910390a1612adc6000858361229a565b9695505050505050565b60206040519081016040526000815290565b60806040519081016040526004815b6000815260200190600190039081612b075790505090565b60a06040519081016040528060008152602001612b3a612ae6565b81526020016000815260200160008152602001600081525090565b815481835581811511610ee157600502816005028360005260206000209182019101610ee19190612bfb565b828054600181600116156101000203166002900490600052602060002090601f016020900481019282601f10612bc257805160ff1916838001178555612bef565b82800160010185558215612bef579182015b82811115612bef578251825591602001919060010190612bd4565b50610d74929150612c39565b610bbb91905b80821115610d74576000808255612c1b6001830182612c53565b50600060028201819055600382018190556004820155600501612c01565b610bbb91905b80821115610d745760008155600101612c3f565b50805460018160011615610100020316600290046000825580601f10612c795750612c97565b601f016020900490600052602060002090810190612c979190612c39565b505600a165627a7a7230582081f18e4ab8cff76d786e5d585fa2b6d97f59ff388ac558db187aeabc8407fa4b0029",
  "source": "// \n// MIT License\n// \n// Copyright (c) 2018 REGA Risk Sharing\n//   \n// Permission is hereby granted, free of charge, to any person obtaining a copy\n// of this software and associated documentation files (the \"Software\"), to deal\n// in the Software without restriction, including without limitation the rights\n// to use, copy, modify, merge, publish, distribute, sublicense, and/or sell\n// copies of the Software, and to permit persons to whom the Software is\n// furnished to do so, subject to the following conditions:\n// \n// The above copyright notice and this permission notice shall be included in all\n// copies or substantial portions of the Software.\n// \n// THE SOFTWARE IS PROVIDED \"AS IS\", WITHOUT WARRANTY OF ANY KIND, EXPRESS OR\n// IMPLIED, INCLUDING BUT NOT LIMITED TO THE WARRANTIES OF MERCHANTABILITY,\n// FITNESS FOR A PARTICULAR PURPOSE AND NONINFRINGEMENT. IN NO EVENT SHALL THE\n// AUTHORS OR COPYRIGHT HOLDERS BE LIABLE FOR ANY CLAIM, DAMAGES OR OTHER\n// LIABILITY, WHETHER IN AN ACTION OF CONTRACT, TORT OR OTHERWISE, ARISING FROM,\n// OUT OF OR IN CONNECTION WITH THE SOFTWARE OR THE USE OR OTHER DEALINGS IN THE\n// SOFTWARE.\n// \n// Author: Sergei Sevriugin\n// Version: 0.0.1\n//  \n\npragma solidity ^0.4.17;\n\nimport './TokenContainer.sol';\n/// TokenPool is TokenContainer with 4 level pool structure: \n/// Super Pool (Level 0), Pool (Level 1), Sub Pool (Level 2) and Token (Level 3)\n/// Level       Container / Member\n/// ------------------------------------------------\n///   0         SuperPool\n///   1              |______Pool\n///   2                      |______SubPool\n///   3                                |_______Token\ncontract TokenPool is TokenContainer {\n    /// TokenPool insertPool event\n    /// @param id inserted token ID\n    /// @param poolId pool ID\n    /// @param level pool level\n    event InsertPool(uint256 id, uint256 poolId, uint8 level);\n    /// TokenPool value distribution event\n    /// @param id NFT token ID for value distribution \n    /// @param superPoolValue SuperPool Share\n    /// @param poolValue Pool Share\n    /// @param subPoolValue SubPool Share\n    /// @param comission Comission = the rest after all pools \n    event DistributeValue(uint256 id, uint256 superPoolValue, uint256 poolValue, uint256 subPoolValue, uint256 comission);\n    /// TokenPool Second Tier Call event\n    /// @param id NFT token ID that emits event\n    /// @param value 2nd tier capital call value\n    event SecondTierCall(uint256 id, uint256 value);\n    /// TokenPool ShortOfFunds event\n    /// @param id NFT token ID that emits event\n    /// @param poolId pool ID that can't pay\n    /// @param value that pool can't pay\n    /// @param level pool level that can't \n    event ShortOfFunds(uint256 id, uint256 poolId, uint256 value, uint8 level);\n    /// TokenPool Payment Value event\n    /// @param id NFT token ID that emits event\n    /// @param value paid value\n    /// @param level pool level that paid\n    event PaymentValue(uint256 id, uint256 value, uint8 level);\n    /// @dev Pool defines pool structure\n    /// @param level Pool level: 0,1,2,3\n    /// @param maxNumber Maximum number of pools on this lavel\n    /// @param maxMember Maximum number of members for the pool\n    /// @param number Pool number for this level\n    /// @param last NFT ID for last availible pool (with member capacity)\n    struct Pool {\n        uint8   level;      // Pool level: 0,1,2,3\n        uint256 maxNumber;  // Maximum number of pools on this lavel\n        uint256 maxMember;  // Maximum number of members for the pool\n        uint256 number;     // Pool number for this level\n        uint256 last;       // NFT ID for last availible pool (with member capacity)\n        uint256 share;      // Pool share from token investment\n    }\n    /// @dev Pool structure \n    Pool[] pools;           // Pool structure\n    /// inset new member in the pool\n    /// @param _id NFT token ID to inserr\n    /// @param _level Pool level to insert\n    /// @return TRUE if insert is done \n    function _getParent(uint256 _id, uint8 _level) internal view returns (uint256 parentId) {\n        // by default returns pools[_level].last but must be overloaded to use score to calculate right pool\n        _id;\n        parentId = pools[_level].last;\n    }\n    function _getCapacity(uint256 _id, uint8 _level) internal view returns (uint256 parentId) {\n        // by default returns pools[_level].maxMember - 1; but can be overloaded to use score to calculate right pool capacity\n        _id;\n        parentId = pools[_level].maxMember - 1;\n    }\n    function _insertPool(uint256 _id, uint8 _level) internal returns (bool) {\n        uint256 parentId = _getParent(_id, _level); // pool NFT token ID\n        uint256 size = _getPoolSize(parentId);      // current pool size\n        uint256 max = _getCapacity(_id, _level);    // max pool size - 1\n        // check if there is a place to insert \n        if (size < max) {\n            // simple insert\n            addToken(_id, parentId); // add to pool \n            InsertPool(_id, parentId, _level); // event \n            return true;\n        }\n        else {\n            // no capacity in the current pool, so, need to add new pool\n            // check if it's possible\n            if(pools[_level].number == pools[_level].maxNumber) {\n                // no capacity to add new pool at this lavel\n                return false;\n            }\n            else {\n                // make a copy from the last pool\n                uint newPool = _createNFT(uint256(0), nfts[parentId].metadata, nfts[parentId].kind, owner);\n                if (newPool != uint(0)) { \n                    // insert pool in the pool structure\n                    if (_insertPool(newPool, _level-1)) {\n                        // insert token to the new pool\n                        addToken(_id, newPool); // add to pool\n                        InsertPool(_id, newPool, _level); // event \n                        // record new pool data in the structure \n                        pools[_level].last = newPool; // new pool is last one\n                        pools[_level].number++;\n                        // new pool and member are inserted \n                        return true;\n                    }\n                    else {\n                        return false;\n                    }\n                }\n                else {\n                    return false;\n                }\n            }\n        }\n    }\n    /// distribute value of the token _id to pools\n    /// @dev make it as simmple as possible for fixed pool staructure\n    /// @param _id NFT token ID to distribute value\n    /// @return TRUE if distribution is complited \n    function _distributeValue(uint256 _id) internal returns (bool) {\n        // need to make sure that _id is terminal node in the structure \n        require(_id != uint256(0) && _id < nfts.length);\n        require(nfts[_id].level == maxLevel - 1);\n        // now we can check then the path has all pools\n        uint256 subPoolId = tokenIndexToPoolToken[_id];\n        require(subPoolId != uint256(0)); // SubPool\n        uint256 poolId = tokenIndexToPoolToken[subPoolId];\n        require(poolId != uint256(0)); // Pool\n        uint256 superPoolId = tokenIndexToPoolToken[poolId];\n        require(superPoolId != uint256(0)); // SuperPool\n        // calculate values to distribute based of pool structure shares\n        uint256 subPoolValue = nfts[_id].value * pools[2].share / 100;\n        require(subPoolValue != uint256(0));\n        uint256 poolValue = nfts[_id].value * pools[1].share / 100;\n        require(poolValue != uint256(0));\n        uint256 superPoolValue = nfts[_id].value * pools[0].share / 100;\n        require(superPoolValue != uint256(0));\n        uint256 commission = nfts[_id].value - subPoolValue - poolValue - superPoolValue;\n        require(commission != uint256(0));\n        // ready to distribute\n        nfts[subPoolId].value = nfts[subPoolId].value + subPoolValue;\n        nfts[poolId].value = nfts[poolId].value + poolValue;\n        nfts[superPoolId].value = nfts[superPoolId].value + superPoolValue;\n        // we will keep comission in the reserved token with ID = 0\n        nfts[0].value = nfts[0].value + commission;\n        // the distribution is done 0 --> _id value\n        nfts[_id].value = uint256(0);\n        DistributeValue(_id, superPoolValue, poolValue, subPoolValue, commission);\n        return true;\n    }\n    /// insert token in pool structure\n    /// @param _id NFT token ID to insert\n    /// @return TRUE if insert is done \n    function insertPool(uint256 _id) ownerOnly public returns(bool) {\n        require(_id != uint256(0) && _id < nfts.length);\n        // call internal function\n        assert(_insertPool(_id, 2));\n        // if inserted then make value distribution \n        assert(_distributeValue(_id));\n        return true;\n    }\n    /// get collected comission\n    /// @return commission commission value\n    function getComission() public view returns(uint256 commission) {\n        commission = nfts[0].value;\n    }\n    /// get value distribution except commission \n    /// @return distribution [0] = SuperPool, [1] = Pool, [2] = SubPool and [3] = Tokens (must be 0)\n    function getDistribution() public view returns(uint256[4] distribution)\n    {\n        uint8 _level;\n        distribution[0] = uint256(0);   // Super Pool Value\n        distribution[1] = uint256(0);   // Pool Value\n        distribution[2] = uint256(0);   // SubPool Value\n        distribution[3] = uint256(0);   // Tokens Value (must be 0)\n\n        for (uint256 id = 1; id < nfts.length; id++) {\n            _level = uint8(nfts[id].level);\n            if(_level < maxLevel) {\n                distribution[_level] = distribution[_level] + nfts[id].value;\n            }\n            else {\n                distribution[3] = distribution[3] + nfts[id].value; // if something wrong w/ level add to tokens\n            }\n        }\n    }\n    function _payValue(uint256 _id, uint256 _value) internal returns(uint256[4] distribution) {\n        require(_id != uint256(0) && _id < nfts.length);\n        require(_value != uint256(0));\n        distribution[0] = uint256(0);   // Super Pool Value\n        distribution[1] = uint256(0);   // Pool Value\n        distribution[2] = uint256(0);   // SubPool Value\n        distribution[3] = uint256(0);   // Tokens Value (must be 0)\n        // now we can check then the path has all pools\n        uint256 subPoolId = tokenIndexToPoolToken[_id];\n        require(subPoolId != uint256(0)); // SubPool\n        uint256 poolId = tokenIndexToPoolToken[subPoolId];\n        require(poolId != uint256(0)); // Pool\n        uint256 superPoolId = tokenIndexToPoolToken[poolId];\n        require(superPoolId != uint256(0)); // SuperPool\n        if(_value <= nfts[subPoolId].value) {\n            distribution[2] = _value;\n            nfts[subPoolId].value = nfts[subPoolId].value - distribution[2];\n\n            PaymentValue(_id, _value, uint8(2));\n        }\n        else if (_value <= nfts[poolId].value + nfts[subPoolId].value) {\n            ShortOfFunds(_id, subPoolId, _value, uint8(2));\n\n            distribution[2] = nfts[subPoolId].value;\n            distribution[1] = _value;\n            nfts[subPoolId].value = nfts[subPoolId].value - distribution[2];\n            nfts[poolId].value = nfts[poolId].value - distribution[1];\n\n            PaymentValue(_id, _value, uint8(1));\n        }\n        else if (_value <= nfts[superPoolId].value + nfts[poolId].value + nfts[subPoolId].value) {\n            ShortOfFunds(_id, poolId, _value, uint8(1));\n\n            distribution[2] = nfts[subPoolId].value;\n            distribution[1] = nfts[poolId].value;\n            distribution[0] = _value;\n            nfts[subPoolId].value = nfts[subPoolId].value - distribution[2];\n            nfts[poolId].value = nfts[poolId].value - distribution[1];\n            nfts[superPoolId].value = nfts[superPoolId].value - distribution[0];\n\n            PaymentValue(_id, _value, uint8(0));\n        }\n        else {\n            ShortOfFunds(_id, superPoolId, _value, uint8(0));\n            SecondTierCall(_id, _value);\n        }\n    }\n    /// TokenPool Constructor\n    function TokenPool(string _name, string _symbol) TokenContainer(_name, _symbol) public { \n        maxLevel = 4; // FIXED DO NOT CHANGE!\n\n        // Creating templates\n        uint superPoolId = _createNFT(uint256(0), \"SuperPool\", uint256(1), owner);\n        uint poolId = _createNFT(uint256(0), \"Pool\", uint256(1), owner);\n        uint subPoolId = _createNFT(uint256(0), \"SubPool\", uint256(2), owner);\n\n        // Build initil structure SubPool --> Pool --> SuperPool\n        addToken(poolId, superPoolId);\n        addToken(subPoolId, poolId);\n\n        // Build configuration \n        // SuperPool configuration\n        Pool memory superPool = Pool({\n            level: uint8(0),\n            maxNumber: uint256(1),\n            maxMember: uint256(10),\n            number: uint256(1),\n            last: uint256(superPoolId),\n            share: uint256(10)\n        });\n        pools.push(superPool);\n        // Pool configuration \n        Pool memory pool = Pool({\n            level: uint8(1),\n            maxNumber: uint256(10),\n            maxMember: uint256(100),\n            number: uint256(1),\n            last: uint256(poolId),\n            share: uint256(20)\n        });\n        pools.push(pool);\n        // SubPool configuration \n        Pool memory subPool = Pool({\n            level: uint8(2),\n            maxNumber: uint256(1000),\n            maxMember: uint256(100),\n            number: uint256(1),\n            last: uint256(subPoolId),\n            share: uint256(50)\n        });\n        pools.push(subPool);\n    }\n}",
  "sourcePath": "/Users/sergei/LuggageCrowdsurance/contracts/TokenPool.sol",
  "compiler": {
    "name": "solc",
    "version": "0.4.18+commit.9cf6e910.Emscripten.clang"
  },
  "schemaVersion": "1.0.1",
  "updatedAt": "2018-05-03T12:01:12.954Z"
}